{
	"contracts/Voting.sol": {
		"Voting": {
			"abi": [
				{
					"inputs": [],
					"stateMutability": "nonpayable",
					"type": "constructor"
				},
				{
					"inputs": [],
					"name": "HasAlreadyVoted",
					"type": "error"
				},
				{
					"inputs": [],
					"name": "InvalidPastVoteID",
					"type": "error"
				},
				{
					"inputs": [],
					"name": "InvalidProposalID",
					"type": "error"
				},
				{
					"inputs": [
						{
							"internalType": "enum Voting.WorkflowStatus",
							"name": "current",
							"type": "uint8"
						},
						{
							"internalType": "enum Voting.WorkflowStatus",
							"name": "expected",
							"type": "uint8"
						}
					],
					"name": "InvalidWorkflowStatus",
					"type": "error"
				},
				{
					"inputs": [
						{
							"internalType": "address",
							"name": "owner",
							"type": "address"
						}
					],
					"name": "OwnableInvalidOwner",
					"type": "error"
				},
				{
					"inputs": [
						{
							"internalType": "address",
							"name": "account",
							"type": "address"
						}
					],
					"name": "OwnableUnauthorizedAccount",
					"type": "error"
				},
				{
					"inputs": [],
					"name": "VoterAddressNotAllowed",
					"type": "error"
				},
				{
					"inputs": [],
					"name": "VoterAlreadyRegistered",
					"type": "error"
				},
				{
					"inputs": [],
					"name": "WorkflowAlreadyEnded",
					"type": "error"
				},
				{
					"anonymous": false,
					"inputs": [
						{
							"indexed": true,
							"internalType": "address",
							"name": "previousOwner",
							"type": "address"
						},
						{
							"indexed": true,
							"internalType": "address",
							"name": "newOwner",
							"type": "address"
						}
					],
					"name": "OwnershipTransferred",
					"type": "event"
				},
				{
					"anonymous": false,
					"inputs": [
						{
							"indexed": false,
							"internalType": "uint256",
							"name": "proposalId",
							"type": "uint256"
						}
					],
					"name": "ProposalRegistered",
					"type": "event"
				},
				{
					"anonymous": false,
					"inputs": [
						{
							"indexed": false,
							"internalType": "address",
							"name": "voter",
							"type": "address"
						},
						{
							"indexed": false,
							"internalType": "uint256",
							"name": "proposalId",
							"type": "uint256"
						}
					],
					"name": "Voted",
					"type": "event"
				},
				{
					"anonymous": false,
					"inputs": [
						{
							"indexed": false,
							"internalType": "address",
							"name": "voterAddress",
							"type": "address"
						}
					],
					"name": "VoterRegistered",
					"type": "event"
				},
				{
					"anonymous": false,
					"inputs": [
						{
							"indexed": false,
							"internalType": "uint256",
							"name": "maxVotes",
							"type": "uint256"
						},
						{
							"indexed": false,
							"internalType": "uint256",
							"name": "winningProposalsCount",
							"type": "uint256"
						}
					],
					"name": "VotesTallied",
					"type": "event"
				},
				{
					"anonymous": false,
					"inputs": [
						{
							"indexed": true,
							"internalType": "uint256",
							"name": "roundIndex",
							"type": "uint256"
						},
						{
							"indexed": false,
							"internalType": "uint256",
							"name": "totalVotes",
							"type": "uint256"
						},
						{
							"indexed": false,
							"internalType": "uint256",
							"name": "winningProposalsCount",
							"type": "uint256"
						}
					],
					"name": "VotingReset",
					"type": "event"
				},
				{
					"anonymous": false,
					"inputs": [
						{
							"indexed": false,
							"internalType": "enum Voting.WorkflowStatus",
							"name": "previousStatus",
							"type": "uint8"
						},
						{
							"indexed": false,
							"internalType": "enum Voting.WorkflowStatus",
							"name": "newStatus",
							"type": "uint8"
						}
					],
					"name": "WorkflowStatusChange",
					"type": "event"
				},
				{
					"inputs": [
						{
							"internalType": "uint256",
							"name": "index",
							"type": "uint256"
						}
					],
					"name": "getPastVote",
					"outputs": [
						{
							"components": [
								{
									"internalType": "uint256",
									"name": "totalVotesCount",
									"type": "uint256"
								},
								{
									"components": [
										{
											"internalType": "string",
											"name": "description",
											"type": "string"
										},
										{
											"internalType": "uint256",
											"name": "voteCount",
											"type": "uint256"
										}
									],
									"internalType": "struct Voting.Proposal[]",
									"name": "proposals",
									"type": "tuple[]"
								},
								{
									"components": [
										{
											"internalType": "string",
											"name": "description",
											"type": "string"
										},
										{
											"internalType": "uint256",
											"name": "voteCount",
											"type": "uint256"
										}
									],
									"internalType": "struct Voting.Proposal[]",
									"name": "winningProposals",
									"type": "tuple[]"
								}
							],
							"internalType": "struct Voting.VotingSummary",
							"name": "",
							"type": "tuple"
						}
					],
					"stateMutability": "view",
					"type": "function"
				},
				{
					"inputs": [],
					"name": "getVoteResults",
					"outputs": [
						{
							"components": [
								{
									"internalType": "string",
									"name": "description",
									"type": "string"
								},
								{
									"internalType": "uint256",
									"name": "voteCount",
									"type": "uint256"
								}
							],
							"internalType": "struct Voting.Proposal[]",
							"name": "winningProposals",
							"type": "tuple[]"
						}
					],
					"stateMutability": "view",
					"type": "function"
				},
				{
					"inputs": [],
					"name": "nextWorkflowStatus",
					"outputs": [],
					"stateMutability": "nonpayable",
					"type": "function"
				},
				{
					"inputs": [],
					"name": "owner",
					"outputs": [
						{
							"internalType": "address",
							"name": "",
							"type": "address"
						}
					],
					"stateMutability": "view",
					"type": "function"
				},
				{
					"inputs": [
						{
							"internalType": "string",
							"name": "_description",
							"type": "string"
						}
					],
					"name": "registerProposal",
					"outputs": [],
					"stateMutability": "nonpayable",
					"type": "function"
				},
				{
					"inputs": [
						{
							"internalType": "address",
							"name": "_address",
							"type": "address"
						}
					],
					"name": "registerVoter",
					"outputs": [],
					"stateMutability": "nonpayable",
					"type": "function"
				},
				{
					"inputs": [],
					"name": "renounceOwnership",
					"outputs": [],
					"stateMutability": "nonpayable",
					"type": "function"
				},
				{
					"inputs": [],
					"name": "resetVotingState",
					"outputs": [],
					"stateMutability": "nonpayable",
					"type": "function"
				},
				{
					"inputs": [
						{
							"internalType": "address",
							"name": "newOwner",
							"type": "address"
						}
					],
					"name": "transferOwnership",
					"outputs": [],
					"stateMutability": "nonpayable",
					"type": "function"
				},
				{
					"inputs": [
						{
							"internalType": "uint256",
							"name": "_proposalId",
							"type": "uint256"
						}
					],
					"name": "vote",
					"outputs": [],
					"stateMutability": "nonpayable",
					"type": "function"
				}
			],
			"devdoc": {
				"errors": {
					"OwnableInvalidOwner(address)": [
						{
							"details": "The owner is not a valid owner account. (eg. `address(0)`)"
						}
					],
					"OwnableUnauthorizedAccount(address)": [
						{
							"details": "The caller account is not authorized to perform an operation."
						}
					]
				},
				"kind": "dev",
				"methods": {
					"owner()": {
						"details": "Returns the address of the current owner."
					},
					"renounceOwnership()": {
						"details": "Leaves the contract without owner. It will not be possible to call `onlyOwner` functions. Can only be called by the current owner. NOTE: Renouncing ownership will leave the contract without an owner, thereby disabling any functionality that is only available to the owner."
					},
					"transferOwnership(address)": {
						"details": "Transfers ownership of the contract to a new account (`newOwner`). Can only be called by the current owner."
					}
				},
				"title": "Voting System",
				"version": 1
			},
			"evm": {
				"assembly": "    /* \"contracts/Voting.sol\":452:7099  contract Voting is Ownable {... */\n  mstore(0x40, 0x80)\n    /* \"contracts/Voting.sol\":1692:1796  constructor() Ownable(msg.sender) {... */\n  callvalue\n  dup1\n  iszero\n  tag_1\n  jumpi\n  revert(0x00, 0x00)\ntag_1:\n  pop\n    /* \"contracts/Voting.sol\":1714:1724  msg.sender */\n  caller\n    /* \"@openzeppelin/contracts/access/Ownable.sol\":1297:1298  0 */\n  0x00\n    /* \"@openzeppelin/contracts/access/Ownable.sol\":1273:1299  initialOwner == address(0) */\n  0xffffffffffffffffffffffffffffffffffffffff\n  and\n    /* \"@openzeppelin/contracts/access/Ownable.sol\":1273:1285  initialOwner */\n  dup2\n    /* \"@openzeppelin/contracts/access/Ownable.sol\":1273:1299  initialOwner == address(0) */\n  0xffffffffffffffffffffffffffffffffffffffff\n  and\n  sub\n    /* \"@openzeppelin/contracts/access/Ownable.sol\":1269:1364  if (initialOwner == address(0)) {... */\n  tag_5\n  jumpi\n    /* \"@openzeppelin/contracts/access/Ownable.sol\":1350:1351  0 */\n  0x00\n    /* \"@openzeppelin/contracts/access/Ownable.sol\":1322:1353  OwnableInvalidOwner(address(0)) */\n  mload(0x40)\n  0x1e4fbdf700000000000000000000000000000000000000000000000000000000\n  dup2\n  mstore\n  0x04\n  add\n  tag_6\n  swap2\n  swap1\n  tag_7\n  jump\t// in\ntag_6:\n  mload(0x40)\n  dup1\n  swap2\n  sub\n  swap1\n  revert\n    /* \"@openzeppelin/contracts/access/Ownable.sol\":1269:1364  if (initialOwner == address(0)) {... */\ntag_5:\n    /* \"@openzeppelin/contracts/access/Ownable.sol\":1373:1405  _transferOwnership(initialOwner) */\n  tag_8\n    /* \"@openzeppelin/contracts/access/Ownable.sol\":1392:1404  initialOwner */\n  dup2\n    /* \"@openzeppelin/contracts/access/Ownable.sol\":1373:1391  _transferOwnership */\n  shl(0x20, tag_9)\n    /* \"@openzeppelin/contracts/access/Ownable.sol\":1373:1405  _transferOwnership(initialOwner) */\n  0x20\n  shr\n  jump\t// in\ntag_8:\n    /* \"@openzeppelin/contracts/access/Ownable.sol\":1225:1412  constructor(address initialOwner) {... */\n  pop\n    /* \"contracts/Voting.sol\":1757:1789  WorkflowStatus.RegisteringVoters */\n  0x00\n    /* \"contracts/Voting.sol\":1736:1747  currentVote */\n  0x01\n    /* \"contracts/Voting.sol\":1736:1754  currentVote.status */\n  0x03\n  add\n  0x00\n    /* \"contracts/Voting.sol\":1736:1789  currentVote.status = WorkflowStatus.RegisteringVoters */\n  0x0100\n  exp\n  dup2\n  sload\n  dup2\n  0xff\n  mul\n  not\n  and\n  swap1\n  dup4\n  0x05\n  dup2\n  gt\n  iszero\n  tag_11\n  jumpi\n  tag_12\n  tag_13\n  jump\t// in\ntag_12:\ntag_11:\n  mul\n  or\n  swap1\n  sstore\n  pop\n    /* \"contracts/Voting.sol\":452:7099  contract Voting is Ownable {... */\n  jump(tag_14)\n    /* \"@openzeppelin/contracts/access/Ownable.sol\":2912:3099  function _transferOwnership(address newOwner) internal virtual {... */\ntag_9:\n    /* \"@openzeppelin/contracts/access/Ownable.sol\":2985:3001  address oldOwner */\n  0x00\n    /* \"@openzeppelin/contracts/access/Ownable.sol\":3004:3010  _owner */\n  0x00\n  0x00\n  swap1\n  sload\n  swap1\n  0x0100\n  exp\n  swap1\n  div\n  0xffffffffffffffffffffffffffffffffffffffff\n  and\n    /* \"@openzeppelin/contracts/access/Ownable.sol\":2985:3010  address oldOwner = _owner */\n  swap1\n  pop\n    /* \"@openzeppelin/contracts/access/Ownable.sol\":3029:3037  newOwner */\n  dup2\n    /* \"@openzeppelin/contracts/access/Ownable.sol\":3020:3026  _owner */\n  0x00\n  0x00\n    /* \"@openzeppelin/contracts/access/Ownable.sol\":3020:3037  _owner = newOwner */\n  0x0100\n  exp\n  dup2\n  sload\n  dup2\n  0xffffffffffffffffffffffffffffffffffffffff\n  mul\n  not\n  and\n  swap1\n  dup4\n  0xffffffffffffffffffffffffffffffffffffffff\n  and\n  mul\n  or\n  swap1\n  sstore\n  pop\n    /* \"@openzeppelin/contracts/access/Ownable.sol\":3083:3091  newOwner */\n  dup2\n    /* \"@openzeppelin/contracts/access/Ownable.sol\":3052:3092  OwnershipTransferred(oldOwner, newOwner) */\n  0xffffffffffffffffffffffffffffffffffffffff\n  and\n    /* \"@openzeppelin/contracts/access/Ownable.sol\":3073:3081  oldOwner */\n  dup2\n    /* \"@openzeppelin/contracts/access/Ownable.sol\":3052:3092  OwnershipTransferred(oldOwner, newOwner) */\n  0xffffffffffffffffffffffffffffffffffffffff\n  and\n  0x8be0079c531659141344cd1fd0a4f28419497f9722a3daafe3b4186f6b6457e0\n  mload(0x40)\n  mload(0x40)\n  dup1\n  swap2\n  sub\n  swap1\n  log3\n    /* \"@openzeppelin/contracts/access/Ownable.sol\":2975:3099  {... */\n  pop\n    /* \"@openzeppelin/contracts/access/Ownable.sol\":2912:3099  function _transferOwnership(address newOwner) internal virtual {... */\n  pop\n  jump\t// out\n    /* \"#utility.yul\":7:133   */\ntag_16:\n    /* \"#utility.yul\":44:51   */\n  0x00\n    /* \"#utility.yul\":84:126   */\n  0xffffffffffffffffffffffffffffffffffffffff\n    /* \"#utility.yul\":77:82   */\n  dup3\n    /* \"#utility.yul\":73:127   */\n  and\n    /* \"#utility.yul\":62:127   */\n  swap1\n  pop\n    /* \"#utility.yul\":7:133   */\n  swap2\n  swap1\n  pop\n  jump\t// out\n    /* \"#utility.yul\":139:235   */\ntag_17:\n    /* \"#utility.yul\":176:183   */\n  0x00\n    /* \"#utility.yul\":205:229   */\n  tag_22\n    /* \"#utility.yul\":223:228   */\n  dup3\n    /* \"#utility.yul\":205:229   */\n  tag_16\n  jump\t// in\ntag_22:\n    /* \"#utility.yul\":194:229   */\n  swap1\n  pop\n    /* \"#utility.yul\":139:235   */\n  swap2\n  swap1\n  pop\n  jump\t// out\n    /* \"#utility.yul\":241:359   */\ntag_18:\n    /* \"#utility.yul\":328:352   */\n  tag_24\n    /* \"#utility.yul\":346:351   */\n  dup2\n    /* \"#utility.yul\":328:352   */\n  tag_17\n  jump\t// in\ntag_24:\n    /* \"#utility.yul\":323:326   */\n  dup3\n    /* \"#utility.yul\":316:353   */\n  mstore\n    /* \"#utility.yul\":241:359   */\n  pop\n  pop\n  jump\t// out\n    /* \"#utility.yul\":365:587   */\ntag_7:\n    /* \"#utility.yul\":458:462   */\n  0x00\n    /* \"#utility.yul\":496:498   */\n  0x20\n    /* \"#utility.yul\":485:494   */\n  dup3\n    /* \"#utility.yul\":481:499   */\n  add\n    /* \"#utility.yul\":473:499   */\n  swap1\n  pop\n    /* \"#utility.yul\":509:580   */\n  tag_26\n    /* \"#utility.yul\":577:578   */\n  0x00\n    /* \"#utility.yul\":566:575   */\n  dup4\n    /* \"#utility.yul\":562:579   */\n  add\n    /* \"#utility.yul\":553:559   */\n  dup5\n    /* \"#utility.yul\":509:580   */\n  tag_18\n  jump\t// in\ntag_26:\n    /* \"#utility.yul\":365:587   */\n  swap3\n  swap2\n  pop\n  pop\n  jump\t// out\n    /* \"#utility.yul\":593:773   */\ntag_13:\n    /* \"#utility.yul\":641:718   */\n  0x4e487b7100000000000000000000000000000000000000000000000000000000\n    /* \"#utility.yul\":638:639   */\n  0x00\n    /* \"#utility.yul\":631:719   */\n  mstore\n    /* \"#utility.yul\":738:742   */\n  0x21\n    /* \"#utility.yul\":735:736   */\n  0x04\n    /* \"#utility.yul\":728:743   */\n  mstore\n    /* \"#utility.yul\":762:766   */\n  0x24\n    /* \"#utility.yul\":759:760   */\n  0x00\n    /* \"#utility.yul\":752:767   */\n  revert\n    /* \"contracts/Voting.sol\":452:7099  contract Voting is Ownable {... */\ntag_14:\n  dataSize(sub_0)\n  dup1\n  dataOffset(sub_0)\n  0x00\n  codecopy\n  0x00\n  return\nstop\n\nsub_0: assembly {\n        /* \"contracts/Voting.sol\":452:7099  contract Voting is Ownable {... */\n      mstore(0x40, 0x80)\n      callvalue\n      dup1\n      iszero\n      tag_1\n      jumpi\n      revert(0x00, 0x00)\n    tag_1:\n      pop\n      jumpi(tag_2, lt(calldatasize, 0x04))\n      shr(0xe0, calldataload(0x00))\n      dup1\n      0x75406284\n      gt\n      tag_13\n      jumpi\n      dup1\n      0x75406284\n      eq\n      tag_8\n      jumpi\n      dup1\n      0x86a66dc3\n      eq\n      tag_9\n      jumpi\n      dup1\n      0x8b5df08d\n      eq\n      tag_10\n      jumpi\n      dup1\n      0x8da5cb5b\n      eq\n      tag_11\n      jumpi\n      dup1\n      0xf2fde38b\n      eq\n      tag_12\n      jumpi\n      jump(tag_2)\n    tag_13:\n      dup1\n      0x0121b93f\n      eq\n      tag_3\n      jumpi\n      dup1\n      0x23edca11\n      eq\n      tag_4\n      jumpi\n      dup1\n      0x2f95355b\n      eq\n      tag_5\n      jumpi\n      dup1\n      0x38db6dd3\n      eq\n      tag_6\n      jumpi\n      dup1\n      0x715018a6\n      eq\n      tag_7\n      jumpi\n    tag_2:\n      revert(0x00, 0x00)\n        /* \"contracts/Voting.sol\":5714:6470  function vote(uint256 _proposalId) external allowedVoter {... */\n    tag_3:\n      tag_14\n      0x04\n      dup1\n      calldatasize\n      sub\n      dup2\n      add\n      swap1\n      tag_15\n      swap2\n      swap1\n      tag_16\n      jump\t// in\n    tag_15:\n      tag_17\n      jump\t// in\n    tag_14:\n      stop\n        /* \"contracts/Voting.sol\":6915:7097  function getPastVote(uint index) external view returns (VotingSummary memory) {... */\n    tag_4:\n      tag_18\n      0x04\n      dup1\n      calldatasize\n      sub\n      dup2\n      add\n      swap1\n      tag_19\n      swap2\n      swap1\n      tag_16\n      jump\t// in\n    tag_19:\n      tag_20\n      jump\t// in\n    tag_18:\n      mload(0x40)\n      tag_21\n      swap2\n      swap1\n      tag_22\n      jump\t// in\n    tag_21:\n      mload(0x40)\n      dup1\n      swap2\n      sub\n      swap1\n      return\n        /* \"contracts/Voting.sol\":5173:5605  function registerProposal(string memory _description) external allowedVoter {... */\n    tag_5:\n      tag_23\n      0x04\n      dup1\n      calldatasize\n      sub\n      dup2\n      add\n      swap1\n      tag_24\n      swap2\n      swap1\n      tag_25\n      jump\t// in\n    tag_24:\n      tag_26\n      jump\t// in\n    tag_23:\n      stop\n        /* \"contracts/Voting.sol\":2160:2632  function registerVoter(address _address) external onlyOwner {... */\n    tag_6:\n      tag_27\n      0x04\n      dup1\n      calldatasize\n      sub\n      dup2\n      add\n      swap1\n      tag_28\n      swap2\n      swap1\n      tag_29\n      jump\t// in\n    tag_28:\n      tag_30\n      jump\t// in\n    tag_27:\n      stop\n        /* \"@openzeppelin/contracts/access/Ownable.sol\":2293:2394  function renounceOwnership() public virtual onlyOwner {... */\n    tag_7:\n      tag_31\n      tag_32\n      jump\t// in\n    tag_31:\n      stop\n        /* \"contracts/Voting.sol\":2766:3272  function nextWorkflowStatus() external onlyOwner {... */\n    tag_8:\n      tag_33\n      tag_34\n      jump\t// in\n    tag_33:\n      stop\n        /* \"contracts/Voting.sol\":6583:6907  function getVoteResults() external view allowedVoter returns (Proposal[] memory winningProposals) {... */\n    tag_9:\n      tag_35\n      tag_36\n      jump\t// in\n    tag_35:\n      mload(0x40)\n      tag_37\n      swap2\n      swap1\n      tag_38\n      jump\t// in\n    tag_37:\n      mload(0x40)\n      dup1\n      swap2\n      sub\n      swap1\n      return\n        /* \"contracts/Voting.sol\":4122:5042  function resetVotingState() external onlyOwner {... */\n    tag_10:\n      tag_39\n      tag_40\n      jump\t// in\n    tag_39:\n      stop\n        /* \"@openzeppelin/contracts/access/Ownable.sol\":1638:1723  function owner() public view virtual returns (address) {... */\n    tag_11:\n      tag_41\n      tag_42\n      jump\t// in\n    tag_41:\n      mload(0x40)\n      tag_43\n      swap2\n      swap1\n      tag_44\n      jump\t// in\n    tag_43:\n      mload(0x40)\n      dup1\n      swap2\n      sub\n      swap1\n      return\n        /* \"@openzeppelin/contracts/access/Ownable.sol\":2543:2758  function transferOwnership(address newOwner) public virtual onlyOwner {... */\n    tag_12:\n      tag_45\n      0x04\n      dup1\n      calldatasize\n      sub\n      dup2\n      add\n      swap1\n      tag_46\n      swap2\n      swap1\n      tag_29\n      jump\t// in\n    tag_46:\n      tag_47\n      jump\t// in\n    tag_45:\n      stop\n        /* \"contracts/Voting.sol\":5714:6470  function vote(uint256 _proposalId) external allowedVoter {... */\n    tag_17:\n        /* \"contracts/Voting.sol\":1940:1951  currentVote */\n      0x01\n        /* \"contracts/Voting.sol\":1940:1958  currentVote.voters */\n      0x00\n      add\n        /* \"contracts/Voting.sol\":1940:1970  currentVote.voters[msg.sender] */\n      0x00\n        /* \"contracts/Voting.sol\":1959:1969  msg.sender */\n      caller\n        /* \"contracts/Voting.sol\":1940:1970  currentVote.voters[msg.sender] */\n      0xffffffffffffffffffffffffffffffffffffffff\n      and\n      0xffffffffffffffffffffffffffffffffffffffff\n      and\n      dup2\n      mstore\n      0x20\n      add\n      swap1\n      dup2\n      mstore\n      0x20\n      add\n      0x00\n      keccak256\n        /* \"contracts/Voting.sol\":1940:1983  currentVote.voters[msg.sender].isRegistered */\n      0x00\n      add\n      0x00\n      swap1\n      sload\n      swap1\n      0x0100\n      exp\n      swap1\n      div\n      0xff\n      and\n        /* \"contracts/Voting.sol\":1919:2032  require(... */\n      tag_49\n      jumpi\n      mload(0x40)\n      0xb3e2c01600000000000000000000000000000000000000000000000000000000\n      dup2\n      mstore\n      0x04\n      add\n      mload(0x40)\n      dup1\n      swap2\n      sub\n      swap1\n      revert\n    tag_49:\n        /* \"contracts/Voting.sol\":5824:5859  WorkflowStatus.VotingSessionStarted */\n      0x03\n        /* \"contracts/Voting.sol\":5802:5859  currentVote.status == WorkflowStatus.VotingSessionStarted */\n      0x05\n      dup2\n      gt\n      iszero\n      tag_51\n      jumpi\n      tag_52\n      tag_53\n      jump\t// in\n    tag_52:\n    tag_51:\n        /* \"contracts/Voting.sol\":5802:5813  currentVote */\n      0x01\n        /* \"contracts/Voting.sol\":5802:5820  currentVote.status */\n      0x03\n      add\n      0x00\n      swap1\n      sload\n      swap1\n      0x0100\n      exp\n      swap1\n      div\n      0xff\n      and\n        /* \"contracts/Voting.sol\":5802:5859  currentVote.status == WorkflowStatus.VotingSessionStarted */\n      0x05\n      dup2\n      gt\n      iszero\n      tag_54\n      jumpi\n      tag_55\n      tag_53\n      jump\t// in\n    tag_55:\n    tag_54:\n      eq\n        /* \"contracts/Voting.sol\":5895:5906  currentVote */\n      0x01\n        /* \"contracts/Voting.sol\":5895:5913  currentVote.status */\n      0x03\n      add\n      0x00\n      swap1\n      sload\n      swap1\n      0x0100\n      exp\n      swap1\n      div\n      0xff\n      and\n        /* \"contracts/Voting.sol\":5915:5950  WorkflowStatus.VotingSessionStarted */\n      0x03\n        /* \"contracts/Voting.sol\":5781:5961  require(... */\n      swap1\n      swap2\n      tag_56\n      jumpi\n      mload(0x40)\n      0x0e10df3f00000000000000000000000000000000000000000000000000000000\n      dup2\n      mstore\n      0x04\n      add\n      tag_57\n      swap3\n      swap2\n      swap1\n      tag_58\n      jump\t// in\n    tag_57:\n      mload(0x40)\n      dup1\n      swap2\n      sub\n      swap1\n      revert\n    tag_56:\n      pop\n      pop\n        /* \"contracts/Voting.sol\":5993:6004  currentVote */\n      0x01\n        /* \"contracts/Voting.sol\":5993:6011  currentVote.voters */\n      0x00\n      add\n        /* \"contracts/Voting.sol\":5993:6023  currentVote.voters[msg.sender] */\n      0x00\n        /* \"contracts/Voting.sol\":6012:6022  msg.sender */\n      caller\n        /* \"contracts/Voting.sol\":5993:6023  currentVote.voters[msg.sender] */\n      0xffffffffffffffffffffffffffffffffffffffff\n      and\n      0xffffffffffffffffffffffffffffffffffffffff\n      and\n      dup2\n      mstore\n      0x20\n      add\n      swap1\n      dup2\n      mstore\n      0x20\n      add\n      0x00\n      keccak256\n        /* \"contracts/Voting.sol\":5993:6032  currentVote.voters[msg.sender].hasVoted */\n      0x00\n      add\n      0x01\n      swap1\n      sload\n      swap1\n      0x0100\n      exp\n      swap1\n      div\n      0xff\n      and\n        /* \"contracts/Voting.sol\":5992:6032  !currentVote.voters[msg.sender].hasVoted */\n      iszero\n        /* \"contracts/Voting.sol\":5971:6073  require(... */\n      tag_59\n      jumpi\n      mload(0x40)\n      0xd40aec4400000000000000000000000000000000000000000000000000000000\n      dup2\n      mstore\n      0x04\n      add\n      mload(0x40)\n      dup1\n      swap2\n      sub\n      swap1\n      revert\n    tag_59:\n        /* \"contracts/Voting.sol\":6118:6129  currentVote */\n      0x01\n        /* \"contracts/Voting.sol\":6118:6139  currentVote.proposals */\n      0x02\n      add\n        /* \"contracts/Voting.sol\":6118:6146  currentVote.proposals.length */\n      dup1\n      sload\n      swap1\n      pop\n        /* \"contracts/Voting.sol\":6104:6115  _proposalId */\n      dup2\n        /* \"contracts/Voting.sol\":6104:6146  _proposalId < currentVote.proposals.length */\n      lt\n        /* \"contracts/Voting.sol\":6083:6190  require(... */\n      tag_60\n      jumpi\n      mload(0x40)\n      0xf299af6600000000000000000000000000000000000000000000000000000000\n      dup2\n      mstore\n      0x04\n      add\n      mload(0x40)\n      dup1\n      swap2\n      sub\n      swap1\n      revert\n    tag_60:\n        /* \"contracts/Voting.sol\":6249:6250  1 */\n      0x01\n        /* \"contracts/Voting.sol\":6201:6212  currentVote */\n      dup1\n        /* \"contracts/Voting.sol\":6201:6222  currentVote.proposals */\n      0x02\n      add\n        /* \"contracts/Voting.sol\":6223:6234  _proposalId */\n      dup3\n        /* \"contracts/Voting.sol\":6201:6235  currentVote.proposals[_proposalId] */\n      dup2\n      sload\n      dup2\n      lt\n      tag_61\n      jumpi\n      tag_62\n      tag_63\n      jump\t// in\n    tag_62:\n    tag_61:\n      swap1\n      0x00\n      mstore\n      keccak256(0x00, 0x20)\n      swap1\n      0x02\n      mul\n      add\n        /* \"contracts/Voting.sol\":6201:6245  currentVote.proposals[_proposalId].voteCount */\n      0x01\n      add\n      0x00\n        /* \"contracts/Voting.sol\":6201:6250  currentVote.proposals[_proposalId].voteCount += 1 */\n      dup3\n      dup3\n      sload\n      tag_65\n      swap2\n      swap1\n      tag_66\n      jump\t// in\n    tag_65:\n      swap3\n      pop\n      pop\n      dup2\n      swap1\n      sstore\n      pop\n        /* \"contracts/Voting.sol\":6309:6320  _proposalId */\n      dup1\n        /* \"contracts/Voting.sol\":6260:6271  currentVote */\n      0x01\n        /* \"contracts/Voting.sol\":6260:6278  currentVote.voters */\n      0x00\n      add\n        /* \"contracts/Voting.sol\":6260:6290  currentVote.voters[msg.sender] */\n      0x00\n        /* \"contracts/Voting.sol\":6279:6289  msg.sender */\n      caller\n        /* \"contracts/Voting.sol\":6260:6290  currentVote.voters[msg.sender] */\n      0xffffffffffffffffffffffffffffffffffffffff\n      and\n      0xffffffffffffffffffffffffffffffffffffffff\n      and\n      dup2\n      mstore\n      0x20\n      add\n      swap1\n      dup2\n      mstore\n      0x20\n      add\n      0x00\n      keccak256\n        /* \"contracts/Voting.sol\":6260:6306  currentVote.voters[msg.sender].votedProposalId */\n      0x01\n      add\n        /* \"contracts/Voting.sol\":6260:6320  currentVote.voters[msg.sender].votedProposalId = _proposalId */\n      dup2\n      swap1\n      sstore\n      pop\n        /* \"contracts/Voting.sol\":6372:6376  true */\n      0x01\n        /* \"contracts/Voting.sol\":6330:6341  currentVote */\n      dup1\n        /* \"contracts/Voting.sol\":6330:6348  currentVote.voters */\n      0x00\n      add\n        /* \"contracts/Voting.sol\":6330:6360  currentVote.voters[msg.sender] */\n      0x00\n        /* \"contracts/Voting.sol\":6349:6359  msg.sender */\n      caller\n        /* \"contracts/Voting.sol\":6330:6360  currentVote.voters[msg.sender] */\n      0xffffffffffffffffffffffffffffffffffffffff\n      and\n      0xffffffffffffffffffffffffffffffffffffffff\n      and\n      dup2\n      mstore\n      0x20\n      add\n      swap1\n      dup2\n      mstore\n      0x20\n      add\n      0x00\n      keccak256\n        /* \"contracts/Voting.sol\":6330:6369  currentVote.voters[msg.sender].hasVoted */\n      0x00\n      add\n      0x01\n        /* \"contracts/Voting.sol\":6330:6376  currentVote.voters[msg.sender].hasVoted = true */\n      0x0100\n      exp\n      dup2\n      sload\n      dup2\n      0xff\n      mul\n      not\n      and\n      swap1\n      dup4\n      iszero\n      iszero\n      mul\n      or\n      swap1\n      sstore\n      pop\n        /* \"contracts/Voting.sol\":6417:6418  1 */\n      0x01\n        /* \"contracts/Voting.sol\":6386:6397  currentVote */\n      dup1\n        /* \"contracts/Voting.sol\":6386:6413  currentVote.totalVotesCount */\n      0x01\n      add\n      0x00\n        /* \"contracts/Voting.sol\":6386:6418  currentVote.totalVotesCount += 1 */\n      dup3\n      dup3\n      sload\n      tag_67\n      swap2\n      swap1\n      tag_66\n      jump\t// in\n    tag_67:\n      swap3\n      pop\n      pop\n      dup2\n      swap1\n      sstore\n      pop\n        /* \"contracts/Voting.sol\":6433:6463  Voted(msg.sender, _proposalId) */\n      0x4d99b957a2bc29a30ebd96a7be8e68fe50a3c701db28a91436490b7d53870ca4\n        /* \"contracts/Voting.sol\":6439:6449  msg.sender */\n      caller\n        /* \"contracts/Voting.sol\":6451:6462  _proposalId */\n      dup3\n        /* \"contracts/Voting.sol\":6433:6463  Voted(msg.sender, _proposalId) */\n      mload(0x40)\n      tag_68\n      swap3\n      swap2\n      swap1\n      tag_69\n      jump\t// in\n    tag_68:\n      mload(0x40)\n      dup1\n      swap2\n      sub\n      swap1\n      log1\n        /* \"contracts/Voting.sol\":5714:6470  function vote(uint256 _proposalId) external allowedVoter {... */\n      pop\n      jump\t// out\n        /* \"contracts/Voting.sol\":6915:7097  function getPastVote(uint index) external view returns (VotingSummary memory) {... */\n    tag_20:\n        /* \"contracts/Voting.sol\":6971:6991  VotingSummary memory */\n      tag_70\n      tag_71\n      jump\t// in\n    tag_70:\n        /* \"contracts/Voting.sol\":7019:7028  pastVotes */\n      0x06\n        /* \"contracts/Voting.sol\":7019:7035  pastVotes.length */\n      dup1\n      sload\n      swap1\n      pop\n        /* \"contracts/Voting.sol\":7011:7016  index */\n      dup3\n        /* \"contracts/Voting.sol\":7011:7035  index < pastVotes.length */\n      lt\n        /* \"contracts/Voting.sol\":7003:7057  require(index < pastVotes.length, InvalidPastVoteID()) */\n      tag_73\n      jumpi\n      mload(0x40)\n      0x1397166e00000000000000000000000000000000000000000000000000000000\n      dup2\n      mstore\n      0x04\n      add\n      mload(0x40)\n      dup1\n      swap2\n      sub\n      swap1\n      revert\n    tag_73:\n        /* \"contracts/Voting.sol\":7074:7083  pastVotes */\n      0x06\n        /* \"contracts/Voting.sol\":7084:7089  index */\n      dup3\n        /* \"contracts/Voting.sol\":7074:7090  pastVotes[index] */\n      dup2\n      sload\n      dup2\n      lt\n      tag_74\n      jumpi\n      tag_75\n      tag_63\n      jump\t// in\n    tag_75:\n    tag_74:\n      swap1\n      0x00\n      mstore\n      keccak256(0x00, 0x20)\n      swap1\n      0x03\n      mul\n      add\n        /* \"contracts/Voting.sol\":7067:7090  return pastVotes[index] */\n      mload(0x40)\n      dup1\n      0x60\n      add\n      0x40\n      mstore\n      swap1\n      dup2\n      0x00\n      dup3\n      add\n      sload\n      dup2\n      mstore\n      0x20\n      add\n      0x01\n      dup3\n      add\n      dup1\n      sload\n      dup1\n      0x20\n      mul\n      0x20\n      add\n      mload(0x40)\n      swap1\n      dup2\n      add\n      0x40\n      mstore\n      dup1\n      swap3\n      swap2\n      swap1\n      dup2\n      dup2\n      mstore\n      0x20\n      add\n      0x00\n      swap1\n    tag_77:\n      dup3\n      dup3\n      lt\n      iszero\n      tag_78\n      jumpi\n      dup4\n      dup3\n      swap1\n      0x00\n      mstore\n      keccak256(0x00, 0x20)\n      swap1\n      0x02\n      mul\n      add\n      mload(0x40)\n      dup1\n      0x40\n      add\n      0x40\n      mstore\n      swap1\n      dup2\n      0x00\n      dup3\n      add\n      dup1\n      sload\n      tag_80\n      swap1\n      tag_81\n      jump\t// in\n    tag_80:\n      dup1\n      0x1f\n      add\n      0x20\n      dup1\n      swap2\n      div\n      mul\n      0x20\n      add\n      mload(0x40)\n      swap1\n      dup2\n      add\n      0x40\n      mstore\n      dup1\n      swap3\n      swap2\n      swap1\n      dup2\n      dup2\n      mstore\n      0x20\n      add\n      dup3\n      dup1\n      sload\n      tag_82\n      swap1\n      tag_81\n      jump\t// in\n    tag_82:\n      dup1\n      iszero\n      tag_83\n      jumpi\n      dup1\n      0x1f\n      lt\n      tag_84\n      jumpi\n      0x0100\n      dup1\n      dup4\n      sload\n      div\n      mul\n      dup4\n      mstore\n      swap2\n      0x20\n      add\n      swap2\n      jump(tag_83)\n    tag_84:\n      dup3\n      add\n      swap2\n      swap1\n      0x00\n      mstore\n      keccak256(0x00, 0x20)\n      swap1\n    tag_85:\n      dup2\n      sload\n      dup2\n      mstore\n      swap1\n      0x01\n      add\n      swap1\n      0x20\n      add\n      dup1\n      dup4\n      gt\n      tag_85\n      jumpi\n      dup3\n      swap1\n      sub\n      0x1f\n      and\n      dup3\n      add\n      swap2\n    tag_83:\n      pop\n      pop\n      pop\n      pop\n      pop\n      dup2\n      mstore\n      0x20\n      add\n      0x01\n      dup3\n      add\n      sload\n      dup2\n      mstore\n      pop\n      pop\n      dup2\n      mstore\n      0x20\n      add\n      swap1\n      0x01\n      add\n      swap1\n      jump(tag_77)\n    tag_78:\n      pop\n      pop\n      pop\n      pop\n      dup2\n      mstore\n      0x20\n      add\n      0x02\n      dup3\n      add\n      dup1\n      sload\n      dup1\n      0x20\n      mul\n      0x20\n      add\n      mload(0x40)\n      swap1\n      dup2\n      add\n      0x40\n      mstore\n      dup1\n      swap3\n      swap2\n      swap1\n      dup2\n      dup2\n      mstore\n      0x20\n      add\n      0x00\n      swap1\n    tag_86:\n      dup3\n      dup3\n      lt\n      iszero\n      tag_87\n      jumpi\n      dup4\n      dup3\n      swap1\n      0x00\n      mstore\n      keccak256(0x00, 0x20)\n      swap1\n      0x02\n      mul\n      add\n      mload(0x40)\n      dup1\n      0x40\n      add\n      0x40\n      mstore\n      swap1\n      dup2\n      0x00\n      dup3\n      add\n      dup1\n      sload\n      tag_89\n      swap1\n      tag_81\n      jump\t// in\n    tag_89:\n      dup1\n      0x1f\n      add\n      0x20\n      dup1\n      swap2\n      div\n      mul\n      0x20\n      add\n      mload(0x40)\n      swap1\n      dup2\n      add\n      0x40\n      mstore\n      dup1\n      swap3\n      swap2\n      swap1\n      dup2\n      dup2\n      mstore\n      0x20\n      add\n      dup3\n      dup1\n      sload\n      tag_90\n      swap1\n      tag_81\n      jump\t// in\n    tag_90:\n      dup1\n      iszero\n      tag_91\n      jumpi\n      dup1\n      0x1f\n      lt\n      tag_92\n      jumpi\n      0x0100\n      dup1\n      dup4\n      sload\n      div\n      mul\n      dup4\n      mstore\n      swap2\n      0x20\n      add\n      swap2\n      jump(tag_91)\n    tag_92:\n      dup3\n      add\n      swap2\n      swap1\n      0x00\n      mstore\n      keccak256(0x00, 0x20)\n      swap1\n    tag_93:\n      dup2\n      sload\n      dup2\n      mstore\n      swap1\n      0x01\n      add\n      swap1\n      0x20\n      add\n      dup1\n      dup4\n      gt\n      tag_93\n      jumpi\n      dup3\n      swap1\n      sub\n      0x1f\n      and\n      dup3\n      add\n      swap2\n    tag_91:\n      pop\n      pop\n      pop\n      pop\n      pop\n      dup2\n      mstore\n      0x20\n      add\n      0x01\n      dup3\n      add\n      sload\n      dup2\n      mstore\n      pop\n      pop\n      dup2\n      mstore\n      0x20\n      add\n      swap1\n      0x01\n      add\n      swap1\n      jump(tag_86)\n    tag_87:\n      pop\n      pop\n      pop\n      pop\n      dup2\n      mstore\n      pop\n      pop\n      swap1\n      pop\n        /* \"contracts/Voting.sol\":6915:7097  function getPastVote(uint index) external view returns (VotingSummary memory) {... */\n      swap2\n      swap1\n      pop\n      jump\t// out\n        /* \"contracts/Voting.sol\":5173:5605  function registerProposal(string memory _description) external allowedVoter {... */\n    tag_26:\n        /* \"contracts/Voting.sol\":1940:1951  currentVote */\n      0x01\n        /* \"contracts/Voting.sol\":1940:1958  currentVote.voters */\n      0x00\n      add\n        /* \"contracts/Voting.sol\":1940:1970  currentVote.voters[msg.sender] */\n      0x00\n        /* \"contracts/Voting.sol\":1959:1969  msg.sender */\n      caller\n        /* \"contracts/Voting.sol\":1940:1970  currentVote.voters[msg.sender] */\n      0xffffffffffffffffffffffffffffffffffffffff\n      and\n      0xffffffffffffffffffffffffffffffffffffffff\n      and\n      dup2\n      mstore\n      0x20\n      add\n      swap1\n      dup2\n      mstore\n      0x20\n      add\n      0x00\n      keccak256\n        /* \"contracts/Voting.sol\":1940:1983  currentVote.voters[msg.sender].isRegistered */\n      0x00\n      add\n      0x00\n      swap1\n      sload\n      swap1\n      0x0100\n      exp\n      swap1\n      div\n      0xff\n      and\n        /* \"contracts/Voting.sol\":1919:2032  require(... */\n      tag_95\n      jumpi\n      mload(0x40)\n      0xb3e2c01600000000000000000000000000000000000000000000000000000000\n      dup2\n      mstore\n      0x04\n      add\n      mload(0x40)\n      dup1\n      swap2\n      sub\n      swap1\n      revert\n    tag_95:\n        /* \"contracts/Voting.sol\":5302:5345  WorkflowStatus.ProposalsRegistrationStarted */\n      0x01\n        /* \"contracts/Voting.sol\":5280:5345  currentVote.status == WorkflowStatus.ProposalsRegistrationStarted */\n      0x05\n      dup2\n      gt\n      iszero\n      tag_97\n      jumpi\n      tag_98\n      tag_53\n      jump\t// in\n    tag_98:\n    tag_97:\n        /* \"contracts/Voting.sol\":5280:5291  currentVote */\n      0x01\n        /* \"contracts/Voting.sol\":5280:5298  currentVote.status */\n      0x03\n      add\n      0x00\n      swap1\n      sload\n      swap1\n      0x0100\n      exp\n      swap1\n      div\n      0xff\n      and\n        /* \"contracts/Voting.sol\":5280:5345  currentVote.status == WorkflowStatus.ProposalsRegistrationStarted */\n      0x05\n      dup2\n      gt\n      iszero\n      tag_99\n      jumpi\n      tag_100\n      tag_53\n      jump\t// in\n    tag_100:\n    tag_99:\n      eq\n        /* \"contracts/Voting.sol\":5381:5392  currentVote */\n      0x01\n        /* \"contracts/Voting.sol\":5381:5399  currentVote.status */\n      0x03\n      add\n      0x00\n      swap1\n      sload\n      swap1\n      0x0100\n      exp\n      swap1\n      div\n      0xff\n      and\n        /* \"contracts/Voting.sol\":5401:5444  WorkflowStatus.ProposalsRegistrationStarted */\n      0x01\n        /* \"contracts/Voting.sol\":5259:5455  require(... */\n      swap1\n      swap2\n      tag_101\n      jumpi\n      mload(0x40)\n      0x0e10df3f00000000000000000000000000000000000000000000000000000000\n      dup2\n      mstore\n      0x04\n      add\n      tag_102\n      swap3\n      swap2\n      swap1\n      tag_58\n      jump\t// in\n    tag_102:\n      mload(0x40)\n      dup1\n      swap2\n      sub\n      swap1\n      revert\n    tag_101:\n      pop\n      pop\n        /* \"contracts/Voting.sol\":5478:5489  currentVote */\n      0x01\n        /* \"contracts/Voting.sol\":5478:5499  currentVote.proposals */\n      0x02\n      add\n        /* \"contracts/Voting.sol\":5505:5530  Proposal(_description, 0) */\n      mload(0x40)\n      dup1\n      0x40\n      add\n      0x40\n      mstore\n      dup1\n        /* \"contracts/Voting.sol\":5514:5526  _description */\n      dup4\n        /* \"contracts/Voting.sol\":5505:5530  Proposal(_description, 0) */\n      dup2\n      mstore\n      0x20\n      add\n        /* \"contracts/Voting.sol\":5528:5529  0 */\n      0x00\n        /* \"contracts/Voting.sol\":5505:5530  Proposal(_description, 0) */\n      dup2\n      mstore\n      pop\n        /* \"contracts/Voting.sol\":5478:5531  currentVote.proposals.push(Proposal(_description, 0)) */\n      swap1\n      dup1\n      0x01\n      dup2\n      sload\n      add\n      dup1\n      dup3\n      sstore\n      dup1\n      swap2\n      pop\n      pop\n      0x01\n      swap1\n      sub\n      swap1\n      0x00\n      mstore\n      keccak256(0x00, 0x20)\n      swap1\n      0x02\n      mul\n      add\n      0x00\n      swap1\n      swap2\n      swap1\n      swap2\n      swap1\n      swap2\n      pop\n      0x00\n      dup3\n      add\n      mload\n      dup2\n      0x00\n      add\n      swap1\n      dup2\n      tag_104\n      swap2\n      swap1\n      tag_105\n      jump\t// in\n    tag_104:\n      pop\n      0x20\n      dup3\n      add\n      mload\n      dup2\n      0x01\n      add\n      sstore\n      pop\n      pop\n        /* \"contracts/Voting.sol\":5546:5598  ProposalRegistered(currentVote.proposals.length - 1) */\n      0x92e393e9b54e2f801d3ea4beb0c5e71a21cc34a5d34b77d0fb8a3aa1650dc18f\n        /* \"contracts/Voting.sol\":5596:5597  1 */\n      0x01\n        /* \"contracts/Voting.sol\":5565:5576  currentVote */\n      dup1\n        /* \"contracts/Voting.sol\":5565:5586  currentVote.proposals */\n      0x02\n      add\n        /* \"contracts/Voting.sol\":5565:5593  currentVote.proposals.length */\n      dup1\n      sload\n      swap1\n      pop\n        /* \"contracts/Voting.sol\":5565:5597  currentVote.proposals.length - 1 */\n      tag_106\n      swap2\n      swap1\n      tag_107\n      jump\t// in\n    tag_106:\n        /* \"contracts/Voting.sol\":5546:5598  ProposalRegistered(currentVote.proposals.length - 1) */\n      mload(0x40)\n      tag_108\n      swap2\n      swap1\n      tag_109\n      jump\t// in\n    tag_108:\n      mload(0x40)\n      dup1\n      swap2\n      sub\n      swap1\n      log1\n        /* \"contracts/Voting.sol\":5173:5605  function registerProposal(string memory _description) external allowedVoter {... */\n      pop\n      jump\t// out\n        /* \"contracts/Voting.sol\":2160:2632  function registerVoter(address _address) external onlyOwner {... */\n    tag_30:\n        /* \"@openzeppelin/contracts/access/Ownable.sol\":1531:1544  _checkOwner() */\n      tag_111\n        /* \"@openzeppelin/contracts/access/Ownable.sol\":1531:1542  _checkOwner */\n      tag_112\n        /* \"@openzeppelin/contracts/access/Ownable.sol\":1531:1544  _checkOwner() */\n      jump\t// in\n    tag_111:\n        /* \"contracts/Voting.sol\":2273:2305  WorkflowStatus.RegisteringVoters */\n      0x00\n        /* \"contracts/Voting.sol\":2251:2305  currentVote.status == WorkflowStatus.RegisteringVoters */\n      0x05\n      dup2\n      gt\n      iszero\n      tag_114\n      jumpi\n      tag_115\n      tag_53\n      jump\t// in\n    tag_115:\n    tag_114:\n        /* \"contracts/Voting.sol\":2251:2262  currentVote */\n      0x01\n        /* \"contracts/Voting.sol\":2251:2269  currentVote.status */\n      0x03\n      add\n      0x00\n      swap1\n      sload\n      swap1\n      0x0100\n      exp\n      swap1\n      div\n      0xff\n      and\n        /* \"contracts/Voting.sol\":2251:2305  currentVote.status == WorkflowStatus.RegisteringVoters */\n      0x05\n      dup2\n      gt\n      iszero\n      tag_116\n      jumpi\n      tag_117\n      tag_53\n      jump\t// in\n    tag_117:\n    tag_116:\n      eq\n        /* \"contracts/Voting.sol\":2342:2353  currentVote */\n      0x01\n        /* \"contracts/Voting.sol\":2342:2360  currentVote.status */\n      0x03\n      add\n      0x00\n      swap1\n      sload\n      swap1\n      0x0100\n      exp\n      swap1\n      div\n      0xff\n      and\n        /* \"contracts/Voting.sol\":2362:2394  WorkflowStatus.RegisteringVoters */\n      0x00\n        /* \"contracts/Voting.sol\":2230:2405  require(... */\n      swap1\n      swap2\n      tag_118\n      jumpi\n      mload(0x40)\n      0x0e10df3f00000000000000000000000000000000000000000000000000000000\n      dup2\n      mstore\n      0x04\n      add\n      tag_119\n      swap3\n      swap2\n      swap1\n      tag_58\n      jump\t// in\n    tag_119:\n      mload(0x40)\n      dup1\n      swap2\n      sub\n      swap1\n      revert\n    tag_118:\n      pop\n      pop\n        /* \"contracts/Voting.sol\":2437:2448  currentVote */\n      0x01\n        /* \"contracts/Voting.sol\":2437:2455  currentVote.voters */\n      0x00\n      add\n        /* \"contracts/Voting.sol\":2437:2465  currentVote.voters[_address] */\n      0x00\n        /* \"contracts/Voting.sol\":2456:2464  _address */\n      dup3\n        /* \"contracts/Voting.sol\":2437:2465  currentVote.voters[_address] */\n      0xffffffffffffffffffffffffffffffffffffffff\n      and\n      0xffffffffffffffffffffffffffffffffffffffff\n      and\n      dup2\n      mstore\n      0x20\n      add\n      swap1\n      dup2\n      mstore\n      0x20\n      add\n      0x00\n      keccak256\n        /* \"contracts/Voting.sol\":2437:2478  currentVote.voters[_address].isRegistered */\n      0x00\n      add\n      0x00\n      swap1\n      sload\n      swap1\n      0x0100\n      exp\n      swap1\n      div\n      0xff\n      and\n        /* \"contracts/Voting.sol\":2436:2478  !currentVote.voters[_address].isRegistered */\n      iszero\n        /* \"contracts/Voting.sol\":2415:2526  require(... */\n      tag_120\n      jumpi\n      mload(0x40)\n      0x59a1ec4700000000000000000000000000000000000000000000000000000000\n      dup2\n      mstore\n      0x04\n      add\n      mload(0x40)\n      dup1\n      swap2\n      sub\n      swap1\n      revert\n    tag_120:\n        /* \"contracts/Voting.sol\":2581:2585  true */\n      0x01\n        /* \"contracts/Voting.sol\":2537:2548  currentVote */\n      dup1\n        /* \"contracts/Voting.sol\":2537:2555  currentVote.voters */\n      0x00\n      add\n        /* \"contracts/Voting.sol\":2537:2565  currentVote.voters[_address] */\n      0x00\n        /* \"contracts/Voting.sol\":2556:2564  _address */\n      dup4\n        /* \"contracts/Voting.sol\":2537:2565  currentVote.voters[_address] */\n      0xffffffffffffffffffffffffffffffffffffffff\n      and\n      0xffffffffffffffffffffffffffffffffffffffff\n      and\n      dup2\n      mstore\n      0x20\n      add\n      swap1\n      dup2\n      mstore\n      0x20\n      add\n      0x00\n      keccak256\n        /* \"contracts/Voting.sol\":2537:2578  currentVote.voters[_address].isRegistered */\n      0x00\n      add\n      0x00\n        /* \"contracts/Voting.sol\":2537:2585  currentVote.voters[_address].isRegistered = true */\n      0x0100\n      exp\n      dup2\n      sload\n      dup2\n      0xff\n      mul\n      not\n      and\n      swap1\n      dup4\n      iszero\n      iszero\n      mul\n      or\n      swap1\n      sstore\n      pop\n        /* \"contracts/Voting.sol\":2600:2625  VoterRegistered(_address) */\n      0xb6be2187d059cc2a55fe29e0e503b566e1e0f8c8780096e185429350acffd3dd\n        /* \"contracts/Voting.sol\":2616:2624  _address */\n      dup2\n        /* \"contracts/Voting.sol\":2600:2625  VoterRegistered(_address) */\n      mload(0x40)\n      tag_121\n      swap2\n      swap1\n      tag_44\n      jump\t// in\n    tag_121:\n      mload(0x40)\n      dup1\n      swap2\n      sub\n      swap1\n      log1\n        /* \"contracts/Voting.sol\":2160:2632  function registerVoter(address _address) external onlyOwner {... */\n      pop\n      jump\t// out\n        /* \"@openzeppelin/contracts/access/Ownable.sol\":2293:2394  function renounceOwnership() public virtual onlyOwner {... */\n    tag_32:\n        /* \"@openzeppelin/contracts/access/Ownable.sol\":1531:1544  _checkOwner() */\n      tag_123\n        /* \"@openzeppelin/contracts/access/Ownable.sol\":1531:1542  _checkOwner */\n      tag_112\n        /* \"@openzeppelin/contracts/access/Ownable.sol\":1531:1544  _checkOwner() */\n      jump\t// in\n    tag_123:\n        /* \"@openzeppelin/contracts/access/Ownable.sol\":2357:2387  _transferOwnership(address(0)) */\n      tag_125\n        /* \"@openzeppelin/contracts/access/Ownable.sol\":2384:2385  0 */\n      0x00\n        /* \"@openzeppelin/contracts/access/Ownable.sol\":2357:2375  _transferOwnership */\n      tag_126\n        /* \"@openzeppelin/contracts/access/Ownable.sol\":2357:2387  _transferOwnership(address(0)) */\n      jump\t// in\n    tag_125:\n        /* \"@openzeppelin/contracts/access/Ownable.sol\":2293:2394  function renounceOwnership() public virtual onlyOwner {... */\n      jump\t// out\n        /* \"contracts/Voting.sol\":2766:3272  function nextWorkflowStatus() external onlyOwner {... */\n    tag_34:\n        /* \"@openzeppelin/contracts/access/Ownable.sol\":1531:1544  _checkOwner() */\n      tag_128\n        /* \"@openzeppelin/contracts/access/Ownable.sol\":1531:1542  _checkOwner */\n      tag_112\n        /* \"@openzeppelin/contracts/access/Ownable.sol\":1531:1544  _checkOwner() */\n      jump\t// in\n    tag_128:\n        /* \"contracts/Voting.sol\":2907:2908  1 */\n      0x01\n        /* \"contracts/Voting.sol\":2879:2903  type(WorkflowStatus).max */\n      0x05\n        /* \"contracts/Voting.sol\":2874:2904  uint(type(WorkflowStatus).max) */\n      dup1\n      dup2\n      gt\n      iszero\n      tag_130\n      jumpi\n      tag_131\n      tag_53\n      jump\t// in\n    tag_131:\n    tag_130:\n        /* \"contracts/Voting.sol\":2874:2908  uint(type(WorkflowStatus).max) - 1 */\n      tag_132\n      swap2\n      swap1\n      tag_107\n      jump\t// in\n    tag_132:\n        /* \"contracts/Voting.sol\":2851:2862  currentVote */\n      0x01\n        /* \"contracts/Voting.sol\":2851:2869  currentVote.status */\n      0x03\n      add\n      0x00\n      swap1\n      sload\n      swap1\n      0x0100\n      exp\n      swap1\n      div\n      0xff\n      and\n        /* \"contracts/Voting.sol\":2846:2870  uint(currentVote.status) */\n      0x05\n      dup2\n      gt\n      iszero\n      tag_133\n      jumpi\n      tag_134\n      tag_53\n      jump\t// in\n    tag_134:\n    tag_133:\n        /* \"contracts/Voting.sol\":2846:2909  uint(currentVote.status) < (uint(type(WorkflowStatus).max) - 1) */\n      lt\n        /* \"contracts/Voting.sol\":2825:2957  require(... */\n      tag_135\n      jumpi\n      mload(0x40)\n      0x086fc57f00000000000000000000000000000000000000000000000000000000\n      dup2\n      mstore\n      0x04\n      add\n      mload(0x40)\n      dup1\n      swap2\n      sub\n      swap1\n      revert\n    tag_135:\n        /* \"contracts/Voting.sol\":2967:2996  WorkflowStatus previousStatus */\n      0x00\n        /* \"contracts/Voting.sol\":2999:3010  currentVote */\n      0x01\n        /* \"contracts/Voting.sol\":2999:3017  currentVote.status */\n      0x03\n      add\n      0x00\n      swap1\n      sload\n      swap1\n      0x0100\n      exp\n      swap1\n      div\n      0xff\n      and\n        /* \"contracts/Voting.sol\":2967:3017  WorkflowStatus previousStatus = currentVote.status */\n      swap1\n      pop\n        /* \"contracts/Voting.sol\":3090:3091  1 */\n      0x01\n        /* \"contracts/Voting.sol\":3068:3079  currentVote */\n      dup1\n        /* \"contracts/Voting.sol\":3068:3086  currentVote.status */\n      0x03\n      add\n      0x00\n      swap1\n      sload\n      swap1\n      0x0100\n      exp\n      swap1\n      div\n      0xff\n      and\n        /* \"contracts/Voting.sol\":3063:3087  uint(currentVote.status) */\n      0x05\n      dup2\n      gt\n      iszero\n      tag_136\n      jumpi\n      tag_137\n      tag_53\n      jump\t// in\n    tag_137:\n    tag_136:\n        /* \"contracts/Voting.sol\":3063:3091  uint(currentVote.status) + 1 */\n      tag_138\n      swap2\n      swap1\n      tag_66\n      jump\t// in\n    tag_138:\n        /* \"contracts/Voting.sol\":3048:3092  WorkflowStatus(uint(currentVote.status) + 1) */\n      0x05\n      dup2\n      gt\n      iszero\n      tag_139\n      jumpi\n      tag_140\n      tag_53\n      jump\t// in\n    tag_140:\n    tag_139:\n        /* \"contracts/Voting.sol\":3027:3038  currentVote */\n      0x01\n        /* \"contracts/Voting.sol\":3027:3045  currentVote.status */\n      0x03\n      add\n      0x00\n        /* \"contracts/Voting.sol\":3027:3092  currentVote.status = WorkflowStatus(uint(currentVote.status) + 1) */\n      0x0100\n      exp\n      dup2\n      sload\n      dup2\n      0xff\n      mul\n      not\n      and\n      swap1\n      dup4\n      0x05\n      dup2\n      gt\n      iszero\n      tag_141\n      jumpi\n      tag_142\n      tag_53\n      jump\t// in\n    tag_142:\n    tag_141:\n      mul\n      or\n      swap1\n      sstore\n      pop\n        /* \"contracts/Voting.sol\":3107:3163  WorkflowStatusChange(previousStatus, currentVote.status) */\n      0x0a97a4ee45751e2abf3e4fc8946939630b11b371ea8ae39ccdc3056e98f5cc3f\n        /* \"contracts/Voting.sol\":3128:3142  previousStatus */\n      dup2\n        /* \"contracts/Voting.sol\":3144:3155  currentVote */\n      0x01\n        /* \"contracts/Voting.sol\":3144:3162  currentVote.status */\n      0x03\n      add\n      0x00\n      swap1\n      sload\n      swap1\n      0x0100\n      exp\n      swap1\n      div\n      0xff\n      and\n        /* \"contracts/Voting.sol\":3107:3163  WorkflowStatusChange(previousStatus, currentVote.status) */\n      mload(0x40)\n      tag_143\n      swap3\n      swap2\n      swap1\n      tag_58\n      jump\t// in\n    tag_143:\n      mload(0x40)\n      dup1\n      swap2\n      sub\n      swap1\n      log1\n        /* \"contracts/Voting.sol\":3200:3227  WorkflowStatus.VotesTallied */\n      0x05\n        /* \"contracts/Voting.sol\":3178:3227  currentVote.status == WorkflowStatus.VotesTallied */\n      dup1\n      dup2\n      gt\n      iszero\n      tag_144\n      jumpi\n      tag_145\n      tag_53\n      jump\t// in\n    tag_145:\n    tag_144:\n        /* \"contracts/Voting.sol\":3178:3189  currentVote */\n      0x01\n        /* \"contracts/Voting.sol\":3178:3196  currentVote.status */\n      0x03\n      add\n      0x00\n      swap1\n      sload\n      swap1\n      0x0100\n      exp\n      swap1\n      div\n      0xff\n      and\n        /* \"contracts/Voting.sol\":3178:3227  currentVote.status == WorkflowStatus.VotesTallied */\n      0x05\n      dup2\n      gt\n      iszero\n      tag_146\n      jumpi\n      tag_147\n      tag_53\n      jump\t// in\n    tag_147:\n    tag_146:\n      sub\n        /* \"contracts/Voting.sol\":3174:3266  if (currentVote.status == WorkflowStatus.VotesTallied) {... */\n      tag_148\n      jumpi\n        /* \"contracts/Voting.sol\":3243:3255  tallyVotes() */\n      tag_149\n        /* \"contracts/Voting.sol\":3243:3253  tallyVotes */\n      tag_150\n        /* \"contracts/Voting.sol\":3243:3255  tallyVotes() */\n      jump\t// in\n    tag_149:\n        /* \"contracts/Voting.sol\":3174:3266  if (currentVote.status == WorkflowStatus.VotesTallied) {... */\n    tag_148:\n        /* \"contracts/Voting.sol\":2815:3272  {... */\n      pop\n        /* \"contracts/Voting.sol\":2766:3272  function nextWorkflowStatus() external onlyOwner {... */\n      jump\t// out\n        /* \"contracts/Voting.sol\":6583:6907  function getVoteResults() external view allowedVoter returns (Proposal[] memory winningProposals) {... */\n    tag_36:\n        /* \"contracts/Voting.sol\":6645:6679  Proposal[] memory winningProposals */\n      0x60\n        /* \"contracts/Voting.sol\":1940:1951  currentVote */\n      0x01\n        /* \"contracts/Voting.sol\":1940:1958  currentVote.voters */\n      0x00\n      add\n        /* \"contracts/Voting.sol\":1940:1970  currentVote.voters[msg.sender] */\n      0x00\n        /* \"contracts/Voting.sol\":1959:1969  msg.sender */\n      caller\n        /* \"contracts/Voting.sol\":1940:1970  currentVote.voters[msg.sender] */\n      0xffffffffffffffffffffffffffffffffffffffff\n      and\n      0xffffffffffffffffffffffffffffffffffffffff\n      and\n      dup2\n      mstore\n      0x20\n      add\n      swap1\n      dup2\n      mstore\n      0x20\n      add\n      0x00\n      keccak256\n        /* \"contracts/Voting.sol\":1940:1983  currentVote.voters[msg.sender].isRegistered */\n      0x00\n      add\n      0x00\n      swap1\n      sload\n      swap1\n      0x0100\n      exp\n      swap1\n      div\n      0xff\n      and\n        /* \"contracts/Voting.sol\":1919:2032  require(... */\n      tag_152\n      jumpi\n      mload(0x40)\n      0xb3e2c01600000000000000000000000000000000000000000000000000000000\n      dup2\n      mstore\n      0x04\n      add\n      mload(0x40)\n      dup1\n      swap2\n      sub\n      swap1\n      revert\n    tag_152:\n        /* \"contracts/Voting.sol\":6734:6761  WorkflowStatus.VotesTallied */\n      0x05\n        /* \"contracts/Voting.sol\":6712:6761  currentVote.status == WorkflowStatus.VotesTallied */\n      dup1\n      dup2\n      gt\n      iszero\n      tag_154\n      jumpi\n      tag_155\n      tag_53\n      jump\t// in\n    tag_155:\n    tag_154:\n        /* \"contracts/Voting.sol\":6712:6723  currentVote */\n      0x01\n        /* \"contracts/Voting.sol\":6712:6730  currentVote.status */\n      0x03\n      add\n      0x00\n      swap1\n      sload\n      swap1\n      0x0100\n      exp\n      swap1\n      div\n      0xff\n      and\n        /* \"contracts/Voting.sol\":6712:6761  currentVote.status == WorkflowStatus.VotesTallied */\n      0x05\n      dup2\n      gt\n      iszero\n      tag_156\n      jumpi\n      tag_157\n      tag_53\n      jump\t// in\n    tag_157:\n    tag_156:\n      eq\n        /* \"contracts/Voting.sol\":6797:6808  currentVote */\n      0x01\n        /* \"contracts/Voting.sol\":6797:6815  currentVote.status */\n      0x03\n      add\n      0x00\n      swap1\n      sload\n      swap1\n      0x0100\n      exp\n      swap1\n      div\n      0xff\n      and\n        /* \"contracts/Voting.sol\":6817:6844  WorkflowStatus.VotesTallied */\n      0x05\n        /* \"contracts/Voting.sol\":6691:6855  require(... */\n      swap1\n      swap2\n      tag_158\n      jumpi\n      mload(0x40)\n      0x0e10df3f00000000000000000000000000000000000000000000000000000000\n      dup2\n      mstore\n      0x04\n      add\n      tag_159\n      swap3\n      swap2\n      swap1\n      tag_58\n      jump\t// in\n    tag_159:\n      mload(0x40)\n      dup1\n      swap2\n      sub\n      swap1\n      revert\n    tag_158:\n      pop\n      pop\n        /* \"contracts/Voting.sol\":6872:6883  currentVote */\n      0x01\n        /* \"contracts/Voting.sol\":6872:6900  currentVote.winningProposals */\n      0x04\n      add\n        /* \"contracts/Voting.sol\":6865:6900  return currentVote.winningProposals */\n      dup1\n      sload\n      dup1\n      0x20\n      mul\n      0x20\n      add\n      mload(0x40)\n      swap1\n      dup2\n      add\n      0x40\n      mstore\n      dup1\n      swap3\n      swap2\n      swap1\n      dup2\n      dup2\n      mstore\n      0x20\n      add\n      0x00\n      swap1\n    tag_160:\n      dup3\n      dup3\n      lt\n      iszero\n      tag_161\n      jumpi\n      dup4\n      dup3\n      swap1\n      0x00\n      mstore\n      keccak256(0x00, 0x20)\n      swap1\n      0x02\n      mul\n      add\n      mload(0x40)\n      dup1\n      0x40\n      add\n      0x40\n      mstore\n      swap1\n      dup2\n      0x00\n      dup3\n      add\n      dup1\n      sload\n      tag_163\n      swap1\n      tag_81\n      jump\t// in\n    tag_163:\n      dup1\n      0x1f\n      add\n      0x20\n      dup1\n      swap2\n      div\n      mul\n      0x20\n      add\n      mload(0x40)\n      swap1\n      dup2\n      add\n      0x40\n      mstore\n      dup1\n      swap3\n      swap2\n      swap1\n      dup2\n      dup2\n      mstore\n      0x20\n      add\n      dup3\n      dup1\n      sload\n      tag_164\n      swap1\n      tag_81\n      jump\t// in\n    tag_164:\n      dup1\n      iszero\n      tag_165\n      jumpi\n      dup1\n      0x1f\n      lt\n      tag_166\n      jumpi\n      0x0100\n      dup1\n      dup4\n      sload\n      div\n      mul\n      dup4\n      mstore\n      swap2\n      0x20\n      add\n      swap2\n      jump(tag_165)\n    tag_166:\n      dup3\n      add\n      swap2\n      swap1\n      0x00\n      mstore\n      keccak256(0x00, 0x20)\n      swap1\n    tag_167:\n      dup2\n      sload\n      dup2\n      mstore\n      swap1\n      0x01\n      add\n      swap1\n      0x20\n      add\n      dup1\n      dup4\n      gt\n      tag_167\n      jumpi\n      dup3\n      swap1\n      sub\n      0x1f\n      and\n      dup3\n      add\n      swap2\n    tag_165:\n      pop\n      pop\n      pop\n      pop\n      pop\n      dup2\n      mstore\n      0x20\n      add\n      0x01\n      dup3\n      add\n      sload\n      dup2\n      mstore\n      pop\n      pop\n      dup2\n      mstore\n      0x20\n      add\n      swap1\n      0x01\n      add\n      swap1\n      jump(tag_160)\n    tag_161:\n      pop\n      pop\n      pop\n      pop\n      swap1\n      pop\n        /* \"contracts/Voting.sol\":6583:6907  function getVoteResults() external view allowedVoter returns (Proposal[] memory winningProposals) {... */\n      swap1\n      jump\t// out\n        /* \"contracts/Voting.sol\":4122:5042  function resetVotingState() external onlyOwner {... */\n    tag_40:\n        /* \"@openzeppelin/contracts/access/Ownable.sol\":1531:1544  _checkOwner() */\n      tag_169\n        /* \"@openzeppelin/contracts/access/Ownable.sol\":1531:1542  _checkOwner */\n      tag_112\n        /* \"@openzeppelin/contracts/access/Ownable.sol\":1531:1544  _checkOwner() */\n      jump\t// in\n    tag_169:\n        /* \"contracts/Voting.sol\":4222:4249  WorkflowStatus.VotesTallied */\n      0x05\n        /* \"contracts/Voting.sol\":4200:4249  currentVote.status == WorkflowStatus.VotesTallied */\n      dup1\n      dup2\n      gt\n      iszero\n      tag_171\n      jumpi\n      tag_172\n      tag_53\n      jump\t// in\n    tag_172:\n    tag_171:\n        /* \"contracts/Voting.sol\":4200:4211  currentVote */\n      0x01\n        /* \"contracts/Voting.sol\":4200:4218  currentVote.status */\n      0x03\n      add\n      0x00\n      swap1\n      sload\n      swap1\n      0x0100\n      exp\n      swap1\n      div\n      0xff\n      and\n        /* \"contracts/Voting.sol\":4200:4249  currentVote.status == WorkflowStatus.VotesTallied */\n      0x05\n      dup2\n      gt\n      iszero\n      tag_173\n      jumpi\n      tag_174\n      tag_53\n      jump\t// in\n    tag_174:\n    tag_173:\n      eq\n        /* \"contracts/Voting.sol\":4286:4297  currentVote */\n      0x01\n        /* \"contracts/Voting.sol\":4286:4304  currentVote.status */\n      0x03\n      add\n      0x00\n      swap1\n      sload\n      swap1\n      0x0100\n      exp\n      swap1\n      div\n      0xff\n      and\n        /* \"contracts/Voting.sol\":4306:4333  WorkflowStatus.VotesTallied */\n      0x05\n        /* \"contracts/Voting.sol\":4179:4344  require(... */\n      swap1\n      swap2\n      tag_175\n      jumpi\n      mload(0x40)\n      0x0e10df3f00000000000000000000000000000000000000000000000000000000\n      dup2\n      mstore\n      0x04\n      add\n      tag_176\n      swap3\n      swap2\n      swap1\n      tag_58\n      jump\t// in\n    tag_176:\n      mload(0x40)\n      dup1\n      swap2\n      sub\n      swap1\n      revert\n    tag_175:\n      pop\n      pop\n        /* \"contracts/Voting.sol\":4355:4364  pastVotes */\n      0x06\n        /* \"contracts/Voting.sol\":4355:4371  pastVotes.push() */\n      0x01\n      dup2\n      0x01\n      dup2\n      sload\n      add\n      dup1\n      dup3\n      sstore\n      dup1\n      swap2\n      pop\n      pop\n      sub\n      swap1\n      0x00\n      mstore\n      keccak256(0x00, 0x20)\n      swap1\n      pop\n      pop\n        /* \"contracts/Voting.sol\":4410:4439  VotingSummary storage summary */\n      0x00\n        /* \"contracts/Voting.sol\":4442:4451  pastVotes */\n      0x06\n        /* \"contracts/Voting.sol\":4471:4472  1 */\n      0x01\n        /* \"contracts/Voting.sol\":4452:4461  pastVotes */\n      0x06\n        /* \"contracts/Voting.sol\":4452:4468  pastVotes.length */\n      dup1\n      sload\n      swap1\n      pop\n        /* \"contracts/Voting.sol\":4452:4472  pastVotes.length - 1 */\n      tag_178\n      swap2\n      swap1\n      tag_107\n      jump\t// in\n    tag_178:\n        /* \"contracts/Voting.sol\":4442:4473  pastVotes[pastVotes.length - 1] */\n      dup2\n      sload\n      dup2\n      lt\n      tag_179\n      jumpi\n      tag_180\n      tag_63\n      jump\t// in\n    tag_180:\n    tag_179:\n      swap1\n      0x00\n      mstore\n      keccak256(0x00, 0x20)\n      swap1\n      0x03\n      mul\n      add\n        /* \"contracts/Voting.sol\":4410:4473  VotingSummary storage summary = pastVotes[pastVotes.length - 1] */\n      swap1\n      pop\n        /* \"contracts/Voting.sol\":4510:4521  currentVote */\n      0x01\n        /* \"contracts/Voting.sol\":4510:4537  currentVote.totalVotesCount */\n      dup1\n      add\n      sload\n        /* \"contracts/Voting.sol\":4484:4491  summary */\n      dup2\n        /* \"contracts/Voting.sol\":4484:4507  summary.totalVotesCount */\n      0x00\n      add\n        /* \"contracts/Voting.sol\":4484:4537  summary.totalVotesCount = currentVote.totalVotesCount */\n      dup2\n      swap1\n      sstore\n      pop\n        /* \"contracts/Voting.sol\":4553:4559  uint i */\n      0x00\n        /* \"contracts/Voting.sol\":4562:4563  0 */\n      0x00\n        /* \"contracts/Voting.sol\":4553:4563  uint i = 0 */\n      swap1\n      pop\n        /* \"contracts/Voting.sol\":4548:4677  for (uint i = 0; i < currentVote.proposals.length; i++) {... */\n    tag_182:\n        /* \"contracts/Voting.sol\":4569:4580  currentVote */\n      0x01\n        /* \"contracts/Voting.sol\":4569:4590  currentVote.proposals */\n      0x02\n      add\n        /* \"contracts/Voting.sol\":4569:4597  currentVote.proposals.length */\n      dup1\n      sload\n      swap1\n      pop\n        /* \"contracts/Voting.sol\":4565:4566  i */\n      dup2\n        /* \"contracts/Voting.sol\":4565:4597  i < currentVote.proposals.length */\n      lt\n        /* \"contracts/Voting.sol\":4548:4677  for (uint i = 0; i < currentVote.proposals.length; i++) {... */\n      iszero\n      tag_183\n      jumpi\n        /* \"contracts/Voting.sol\":4618:4625  summary */\n      dup2\n        /* \"contracts/Voting.sol\":4618:4635  summary.proposals */\n      0x01\n      add\n        /* \"contracts/Voting.sol\":4641:4652  currentVote */\n      0x01\n        /* \"contracts/Voting.sol\":4641:4662  currentVote.proposals */\n      0x02\n      add\n        /* \"contracts/Voting.sol\":4663:4664  i */\n      dup3\n        /* \"contracts/Voting.sol\":4641:4665  currentVote.proposals[i] */\n      dup2\n      sload\n      dup2\n      lt\n      tag_185\n      jumpi\n      tag_186\n      tag_63\n      jump\t// in\n    tag_186:\n    tag_185:\n      swap1\n      0x00\n      mstore\n      keccak256(0x00, 0x20)\n      swap1\n      0x02\n      mul\n      add\n        /* \"contracts/Voting.sol\":4618:4666  summary.proposals.push(currentVote.proposals[i]) */\n      swap1\n      dup1\n      0x01\n      dup2\n      sload\n      add\n      dup1\n      dup3\n      sstore\n      dup1\n      swap2\n      pop\n      pop\n      0x01\n      swap1\n      sub\n      swap1\n      0x00\n      mstore\n      keccak256(0x00, 0x20)\n      swap1\n      0x02\n      mul\n      add\n      0x00\n      swap1\n      swap2\n      swap1\n      swap2\n      swap1\n      swap2\n      pop\n      0x00\n      dup3\n      add\n      dup2\n      0x00\n      add\n      swap1\n      dup2\n      tag_189\n      swap2\n      swap1\n      tag_190\n      jump\t// in\n    tag_189:\n      pop\n      0x01\n      dup3\n      add\n      sload\n      dup2\n      0x01\n      add\n      sstore\n      pop\n      pop\n        /* \"contracts/Voting.sol\":4599:4602  i++ */\n      dup1\n      dup1\n      0x01\n      add\n      swap2\n      pop\n      pop\n        /* \"contracts/Voting.sol\":4548:4677  for (uint i = 0; i < currentVote.proposals.length; i++) {... */\n      jump(tag_182)\n    tag_183:\n      pop\n        /* \"contracts/Voting.sol\":4692:4698  uint i */\n      0x00\n        /* \"contracts/Voting.sol\":4701:4702  0 */\n      0x00\n        /* \"contracts/Voting.sol\":4692:4702  uint i = 0 */\n      swap1\n      pop\n        /* \"contracts/Voting.sol\":4687:4837  for (uint i = 0; i < currentVote.winningProposals.length; i++) {... */\n    tag_191:\n        /* \"contracts/Voting.sol\":4708:4719  currentVote */\n      0x01\n        /* \"contracts/Voting.sol\":4708:4736  currentVote.winningProposals */\n      0x04\n      add\n        /* \"contracts/Voting.sol\":4708:4743  currentVote.winningProposals.length */\n      dup1\n      sload\n      swap1\n      pop\n        /* \"contracts/Voting.sol\":4704:4705  i */\n      dup2\n        /* \"contracts/Voting.sol\":4704:4743  i < currentVote.winningProposals.length */\n      lt\n        /* \"contracts/Voting.sol\":4687:4837  for (uint i = 0; i < currentVote.winningProposals.length; i++) {... */\n      iszero\n      tag_192\n      jumpi\n        /* \"contracts/Voting.sol\":4764:4771  summary */\n      dup2\n        /* \"contracts/Voting.sol\":4764:4788  summary.winningProposals */\n      0x02\n      add\n        /* \"contracts/Voting.sol\":4794:4805  currentVote */\n      0x01\n        /* \"contracts/Voting.sol\":4794:4822  currentVote.winningProposals */\n      0x04\n      add\n        /* \"contracts/Voting.sol\":4823:4824  i */\n      dup3\n        /* \"contracts/Voting.sol\":4794:4825  currentVote.winningProposals[i] */\n      dup2\n      sload\n      dup2\n      lt\n      tag_194\n      jumpi\n      tag_195\n      tag_63\n      jump\t// in\n    tag_195:\n    tag_194:\n      swap1\n      0x00\n      mstore\n      keccak256(0x00, 0x20)\n      swap1\n      0x02\n      mul\n      add\n        /* \"contracts/Voting.sol\":4764:4826  summary.winningProposals.push(currentVote.winningProposals[i]) */\n      swap1\n      dup1\n      0x01\n      dup2\n      sload\n      add\n      dup1\n      dup3\n      sstore\n      dup1\n      swap2\n      pop\n      pop\n      0x01\n      swap1\n      sub\n      swap1\n      0x00\n      mstore\n      keccak256(0x00, 0x20)\n      swap1\n      0x02\n      mul\n      add\n      0x00\n      swap1\n      swap2\n      swap1\n      swap2\n      swap1\n      swap2\n      pop\n      0x00\n      dup3\n      add\n      dup2\n      0x00\n      add\n      swap1\n      dup2\n      tag_198\n      swap2\n      swap1\n      tag_190\n      jump\t// in\n    tag_198:\n      pop\n      0x01\n      dup3\n      add\n      sload\n      dup2\n      0x01\n      add\n      sstore\n      pop\n      pop\n        /* \"contracts/Voting.sol\":4745:4748  i++ */\n      dup1\n      dup1\n      0x01\n      add\n      swap2\n      pop\n      pop\n        /* \"contracts/Voting.sol\":4687:4837  for (uint i = 0; i < currentVote.winningProposals.length; i++) {... */\n      jump(tag_191)\n    tag_192:\n      pop\n        /* \"contracts/Voting.sol\":4854:4865  currentVote */\n      0x01\n      0x00\n        /* \"contracts/Voting.sol\":4847:4865  delete currentVote */\n      0x01\n      dup3\n      add\n      0x00\n      swap1\n      sstore\n      0x02\n      dup3\n      add\n      0x00\n      tag_199\n      swap2\n      swap1\n      tag_200\n      jump\t// in\n    tag_199:\n      0x03\n      dup3\n      add\n      exp(0x0100, 0x00)\n      dup2\n      sload\n      swap1\n      0xff\n      mul\n      not\n      and\n      swap1\n      sstore\n      0x04\n      dup3\n      add\n      0x00\n      tag_201\n      swap2\n      swap1\n      tag_200\n      jump\t// in\n    tag_201:\n      pop\n      pop\n        /* \"contracts/Voting.sol\":4896:4928  WorkflowStatus.RegisteringVoters */\n      0x00\n        /* \"contracts/Voting.sol\":4875:4886  currentVote */\n      0x01\n        /* \"contracts/Voting.sol\":4875:4893  currentVote.status */\n      0x03\n      add\n      0x00\n        /* \"contracts/Voting.sol\":4875:4928  currentVote.status = WorkflowStatus.RegisteringVoters */\n      0x0100\n      exp\n      dup2\n      sload\n      dup2\n      0xff\n      mul\n      not\n      and\n      swap1\n      dup4\n      0x05\n      dup2\n      gt\n      iszero\n      tag_202\n      jumpi\n      tag_203\n      tag_53\n      jump\t// in\n    tag_203:\n    tag_202:\n      mul\n      or\n      swap1\n      sstore\n      pop\n        /* \"contracts/Voting.sol\":4975:4976  1 */\n      0x01\n        /* \"contracts/Voting.sol\":4956:4965  pastVotes */\n      0x06\n        /* \"contracts/Voting.sol\":4956:4972  pastVotes.length */\n      dup1\n      sload\n      swap1\n      pop\n        /* \"contracts/Voting.sol\":4956:4976  pastVotes.length - 1 */\n      tag_204\n      swap2\n      swap1\n      tag_107\n      jump\t// in\n    tag_204:\n        /* \"contracts/Voting.sol\":4944:5035  VotingReset(pastVotes.length - 1, summary.totalVotesCount, summary.winningProposals.length) */\n      0x87f1efd3ecc2164eb03e4374ac4bfebd5ee2d9f4785fc2f4c9c193fc132bb03f\n        /* \"contracts/Voting.sol\":4978:4985  summary */\n      dup3\n        /* \"contracts/Voting.sol\":4978:5001  summary.totalVotesCount */\n      0x00\n      add\n      sload\n        /* \"contracts/Voting.sol\":5003:5010  summary */\n      dup4\n        /* \"contracts/Voting.sol\":5003:5027  summary.winningProposals */\n      0x02\n      add\n        /* \"contracts/Voting.sol\":5003:5034  summary.winningProposals.length */\n      dup1\n      sload\n      swap1\n      pop\n        /* \"contracts/Voting.sol\":4944:5035  VotingReset(pastVotes.length - 1, summary.totalVotesCount, summary.winningProposals.length) */\n      mload(0x40)\n      tag_205\n      swap3\n      swap2\n      swap1\n      tag_206\n      jump\t// in\n    tag_205:\n      mload(0x40)\n      dup1\n      swap2\n      sub\n      swap1\n      log2\n        /* \"contracts/Voting.sol\":4169:5042  {... */\n      pop\n        /* \"contracts/Voting.sol\":4122:5042  function resetVotingState() external onlyOwner {... */\n      jump\t// out\n        /* \"@openzeppelin/contracts/access/Ownable.sol\":1638:1723  function owner() public view virtual returns (address) {... */\n    tag_42:\n        /* \"@openzeppelin/contracts/access/Ownable.sol\":1684:1691  address */\n      0x00\n        /* \"@openzeppelin/contracts/access/Ownable.sol\":1710:1716  _owner */\n      0x00\n      0x00\n      swap1\n      sload\n      swap1\n      0x0100\n      exp\n      swap1\n      div\n      0xffffffffffffffffffffffffffffffffffffffff\n      and\n        /* \"@openzeppelin/contracts/access/Ownable.sol\":1703:1716  return _owner */\n      swap1\n      pop\n        /* \"@openzeppelin/contracts/access/Ownable.sol\":1638:1723  function owner() public view virtual returns (address) {... */\n      swap1\n      jump\t// out\n        /* \"@openzeppelin/contracts/access/Ownable.sol\":2543:2758  function transferOwnership(address newOwner) public virtual onlyOwner {... */\n    tag_47:\n        /* \"@openzeppelin/contracts/access/Ownable.sol\":1531:1544  _checkOwner() */\n      tag_209\n        /* \"@openzeppelin/contracts/access/Ownable.sol\":1531:1542  _checkOwner */\n      tag_112\n        /* \"@openzeppelin/contracts/access/Ownable.sol\":1531:1544  _checkOwner() */\n      jump\t// in\n    tag_209:\n        /* \"@openzeppelin/contracts/access/Ownable.sol\":2647:2648  0 */\n      0x00\n        /* \"@openzeppelin/contracts/access/Ownable.sol\":2627:2649  newOwner == address(0) */\n      0xffffffffffffffffffffffffffffffffffffffff\n      and\n        /* \"@openzeppelin/contracts/access/Ownable.sol\":2627:2635  newOwner */\n      dup2\n        /* \"@openzeppelin/contracts/access/Ownable.sol\":2627:2649  newOwner == address(0) */\n      0xffffffffffffffffffffffffffffffffffffffff\n      and\n      sub\n        /* \"@openzeppelin/contracts/access/Ownable.sol\":2623:2714  if (newOwner == address(0)) {... */\n      tag_211\n      jumpi\n        /* \"@openzeppelin/contracts/access/Ownable.sol\":2700:2701  0 */\n      0x00\n        /* \"@openzeppelin/contracts/access/Ownable.sol\":2672:2703  OwnableInvalidOwner(address(0)) */\n      mload(0x40)\n      0x1e4fbdf700000000000000000000000000000000000000000000000000000000\n      dup2\n      mstore\n      0x04\n      add\n      tag_212\n      swap2\n      swap1\n      tag_44\n      jump\t// in\n    tag_212:\n      mload(0x40)\n      dup1\n      swap2\n      sub\n      swap1\n      revert\n        /* \"@openzeppelin/contracts/access/Ownable.sol\":2623:2714  if (newOwner == address(0)) {... */\n    tag_211:\n        /* \"@openzeppelin/contracts/access/Ownable.sol\":2723:2751  _transferOwnership(newOwner) */\n      tag_213\n        /* \"@openzeppelin/contracts/access/Ownable.sol\":2742:2750  newOwner */\n      dup2\n        /* \"@openzeppelin/contracts/access/Ownable.sol\":2723:2741  _transferOwnership */\n      tag_126\n        /* \"@openzeppelin/contracts/access/Ownable.sol\":2723:2751  _transferOwnership(newOwner) */\n      jump\t// in\n    tag_213:\n        /* \"@openzeppelin/contracts/access/Ownable.sol\":2543:2758  function transferOwnership(address newOwner) public virtual onlyOwner {... */\n      pop\n      jump\t// out\n        /* \"@openzeppelin/contracts/access/Ownable.sol\":1796:1958  function _checkOwner() internal view virtual {... */\n    tag_112:\n        /* \"@openzeppelin/contracts/access/Ownable.sol\":1866:1878  _msgSender() */\n      tag_215\n        /* \"@openzeppelin/contracts/access/Ownable.sol\":1866:1876  _msgSender */\n      tag_216\n        /* \"@openzeppelin/contracts/access/Ownable.sol\":1866:1878  _msgSender() */\n      jump\t// in\n    tag_215:\n        /* \"@openzeppelin/contracts/access/Ownable.sol\":1855:1878  owner() != _msgSender() */\n      0xffffffffffffffffffffffffffffffffffffffff\n      and\n        /* \"@openzeppelin/contracts/access/Ownable.sol\":1855:1862  owner() */\n      tag_217\n        /* \"@openzeppelin/contracts/access/Ownable.sol\":1855:1860  owner */\n      tag_42\n        /* \"@openzeppelin/contracts/access/Ownable.sol\":1855:1862  owner() */\n      jump\t// in\n    tag_217:\n        /* \"@openzeppelin/contracts/access/Ownable.sol\":1855:1878  owner() != _msgSender() */\n      0xffffffffffffffffffffffffffffffffffffffff\n      and\n      eq\n        /* \"@openzeppelin/contracts/access/Ownable.sol\":1851:1952  if (owner() != _msgSender()) {... */\n      tag_218\n      jumpi\n        /* \"@openzeppelin/contracts/access/Ownable.sol\":1928:1940  _msgSender() */\n      tag_219\n        /* \"@openzeppelin/contracts/access/Ownable.sol\":1928:1938  _msgSender */\n      tag_216\n        /* \"@openzeppelin/contracts/access/Ownable.sol\":1928:1940  _msgSender() */\n      jump\t// in\n    tag_219:\n        /* \"@openzeppelin/contracts/access/Ownable.sol\":1901:1941  OwnableUnauthorizedAccount(_msgSender()) */\n      mload(0x40)\n      0x118cdaa700000000000000000000000000000000000000000000000000000000\n      dup2\n      mstore\n      0x04\n      add\n      tag_220\n      swap2\n      swap1\n      tag_44\n      jump\t// in\n    tag_220:\n      mload(0x40)\n      dup1\n      swap2\n      sub\n      swap1\n      revert\n        /* \"@openzeppelin/contracts/access/Ownable.sol\":1851:1952  if (owner() != _msgSender()) {... */\n    tag_218:\n        /* \"@openzeppelin/contracts/access/Ownable.sol\":1796:1958  function _checkOwner() internal view virtual {... */\n      jump\t// out\n        /* \"@openzeppelin/contracts/access/Ownable.sol\":2912:3099  function _transferOwnership(address newOwner) internal virtual {... */\n    tag_126:\n        /* \"@openzeppelin/contracts/access/Ownable.sol\":2985:3001  address oldOwner */\n      0x00\n        /* \"@openzeppelin/contracts/access/Ownable.sol\":3004:3010  _owner */\n      0x00\n      0x00\n      swap1\n      sload\n      swap1\n      0x0100\n      exp\n      swap1\n      div\n      0xffffffffffffffffffffffffffffffffffffffff\n      and\n        /* \"@openzeppelin/contracts/access/Ownable.sol\":2985:3010  address oldOwner = _owner */\n      swap1\n      pop\n        /* \"@openzeppelin/contracts/access/Ownable.sol\":3029:3037  newOwner */\n      dup2\n        /* \"@openzeppelin/contracts/access/Ownable.sol\":3020:3026  _owner */\n      0x00\n      0x00\n        /* \"@openzeppelin/contracts/access/Ownable.sol\":3020:3037  _owner = newOwner */\n      0x0100\n      exp\n      dup2\n      sload\n      dup2\n      0xffffffffffffffffffffffffffffffffffffffff\n      mul\n      not\n      and\n      swap1\n      dup4\n      0xffffffffffffffffffffffffffffffffffffffff\n      and\n      mul\n      or\n      swap1\n      sstore\n      pop\n        /* \"@openzeppelin/contracts/access/Ownable.sol\":3083:3091  newOwner */\n      dup2\n        /* \"@openzeppelin/contracts/access/Ownable.sol\":3052:3092  OwnershipTransferred(oldOwner, newOwner) */\n      0xffffffffffffffffffffffffffffffffffffffff\n      and\n        /* \"@openzeppelin/contracts/access/Ownable.sol\":3073:3081  oldOwner */\n      dup2\n        /* \"@openzeppelin/contracts/access/Ownable.sol\":3052:3092  OwnershipTransferred(oldOwner, newOwner) */\n      0xffffffffffffffffffffffffffffffffffffffff\n      and\n      0x8be0079c531659141344cd1fd0a4f28419497f9722a3daafe3b4186f6b6457e0\n      mload(0x40)\n      mload(0x40)\n      dup1\n      swap2\n      sub\n      swap1\n      log3\n        /* \"@openzeppelin/contracts/access/Ownable.sol\":2975:3099  {... */\n      pop\n        /* \"@openzeppelin/contracts/access/Ownable.sol\":2912:3099  function _transferOwnership(address newOwner) internal virtual {... */\n      pop\n      jump\t// out\n        /* \"contracts/Voting.sol\":3413:4116  function tallyVotes() internal onlyOwner {... */\n    tag_150:\n        /* \"@openzeppelin/contracts/access/Ownable.sol\":1531:1544  _checkOwner() */\n      tag_223\n        /* \"@openzeppelin/contracts/access/Ownable.sol\":1531:1542  _checkOwner */\n      tag_112\n        /* \"@openzeppelin/contracts/access/Ownable.sol\":1531:1544  _checkOwner() */\n      jump\t// in\n    tag_223:\n        /* \"contracts/Voting.sol\":3464:3477  uint maxVotes */\n      0x00\n        /* \"contracts/Voting.sol\":3480:3481  0 */\n      0x00\n        /* \"contracts/Voting.sol\":3464:3481  uint maxVotes = 0 */\n      swap1\n      pop\n        /* \"contracts/Voting.sol\":3498:3509  currentVote */\n      0x01\n        /* \"contracts/Voting.sol\":3498:3526  currentVote.winningProposals */\n      0x04\n      add\n      0x00\n        /* \"contracts/Voting.sol\":3491:3526  delete currentVote.winningProposals */\n      tag_225\n      swap2\n      swap1\n      tag_200\n      jump\t// in\n    tag_225:\n        /* \"contracts/Voting.sol\":3542:3548  uint i */\n      0x00\n        /* \"contracts/Voting.sol\":3551:3552  0 */\n      0x00\n        /* \"contracts/Voting.sol\":3542:3552  uint i = 0 */\n      swap1\n      pop\n        /* \"contracts/Voting.sol\":3537:4035  for (uint i = 0; i < currentVote.proposals.length; ++i) {... */\n    tag_226:\n        /* \"contracts/Voting.sol\":3558:3569  currentVote */\n      0x01\n        /* \"contracts/Voting.sol\":3558:3579  currentVote.proposals */\n      0x02\n      add\n        /* \"contracts/Voting.sol\":3558:3586  currentVote.proposals.length */\n      dup1\n      sload\n      swap1\n      pop\n        /* \"contracts/Voting.sol\":3554:3555  i */\n      dup2\n        /* \"contracts/Voting.sol\":3554:3586  i < currentVote.proposals.length */\n      lt\n        /* \"contracts/Voting.sol\":3537:4035  for (uint i = 0; i < currentVote.proposals.length; ++i) {... */\n      iszero\n      tag_227\n      jumpi\n        /* \"contracts/Voting.sol\":3607:3622  uint votesCount */\n      0x00\n        /* \"contracts/Voting.sol\":3625:3636  currentVote */\n      0x01\n        /* \"contracts/Voting.sol\":3625:3646  currentVote.proposals */\n      0x02\n      add\n        /* \"contracts/Voting.sol\":3647:3648  i */\n      dup3\n        /* \"contracts/Voting.sol\":3625:3649  currentVote.proposals[i] */\n      dup2\n      sload\n      dup2\n      lt\n      tag_229\n      jumpi\n      tag_230\n      tag_63\n      jump\t// in\n    tag_230:\n    tag_229:\n      swap1\n      0x00\n      mstore\n      keccak256(0x00, 0x20)\n      swap1\n      0x02\n      mul\n      add\n        /* \"contracts/Voting.sol\":3625:3659  currentVote.proposals[i].voteCount */\n      0x01\n      add\n      sload\n        /* \"contracts/Voting.sol\":3607:3659  uint votesCount = currentVote.proposals[i].voteCount */\n      swap1\n      pop\n        /* \"contracts/Voting.sol\":3690:3698  maxVotes */\n      dup3\n        /* \"contracts/Voting.sol\":3677:3687  votesCount */\n      dup2\n        /* \"contracts/Voting.sol\":3677:3698  votesCount > maxVotes */\n      gt\n        /* \"contracts/Voting.sol\":3674:4025  if(votesCount > maxVotes){... */\n      iszero\n      tag_232\n      jumpi\n        /* \"contracts/Voting.sol\":3728:3738  votesCount */\n      dup1\n        /* \"contracts/Voting.sol\":3717:3738  maxVotes = votesCount */\n      swap3\n      pop\n        /* \"contracts/Voting.sol\":3763:3774  currentVote */\n      0x01\n        /* \"contracts/Voting.sol\":3763:3791  currentVote.winningProposals */\n      0x04\n      add\n      0x00\n        /* \"contracts/Voting.sol\":3756:3791  delete currentVote.winningProposals */\n      tag_233\n      swap2\n      swap1\n      tag_200\n      jump\t// in\n    tag_233:\n        /* \"contracts/Voting.sol\":3809:3820  currentVote */\n      0x01\n        /* \"contracts/Voting.sol\":3809:3837  currentVote.winningProposals */\n      0x04\n      add\n        /* \"contracts/Voting.sol\":3843:3854  currentVote */\n      0x01\n        /* \"contracts/Voting.sol\":3843:3864  currentVote.proposals */\n      0x02\n      add\n        /* \"contracts/Voting.sol\":3865:3866  i */\n      dup4\n        /* \"contracts/Voting.sol\":3843:3867  currentVote.proposals[i] */\n      dup2\n      sload\n      dup2\n      lt\n      tag_234\n      jumpi\n      tag_235\n      tag_63\n      jump\t// in\n    tag_235:\n    tag_234:\n      swap1\n      0x00\n      mstore\n      keccak256(0x00, 0x20)\n      swap1\n      0x02\n      mul\n      add\n        /* \"contracts/Voting.sol\":3809:3868  currentVote.winningProposals.push(currentVote.proposals[i]) */\n      swap1\n      dup1\n      0x01\n      dup2\n      sload\n      add\n      dup1\n      dup3\n      sstore\n      dup1\n      swap2\n      pop\n      pop\n      0x01\n      swap1\n      sub\n      swap1\n      0x00\n      mstore\n      keccak256(0x00, 0x20)\n      swap1\n      0x02\n      mul\n      add\n      0x00\n      swap1\n      swap2\n      swap1\n      swap2\n      swap1\n      swap2\n      pop\n      0x00\n      dup3\n      add\n      dup2\n      0x00\n      add\n      swap1\n      dup2\n      tag_238\n      swap2\n      swap1\n      tag_190\n      jump\t// in\n    tag_238:\n      pop\n      0x01\n      dup3\n      add\n      sload\n      dup2\n      0x01\n      add\n      sstore\n      pop\n      pop\n        /* \"contracts/Voting.sol\":3674:4025  if(votesCount > maxVotes){... */\n      jump(tag_239)\n    tag_232:\n        /* \"contracts/Voting.sol\":3907:3915  maxVotes */\n      dup3\n        /* \"contracts/Voting.sol\":3893:3903  votesCount */\n      dup2\n        /* \"contracts/Voting.sol\":3893:3915  votesCount == maxVotes */\n      eq\n        /* \"contracts/Voting.sol\":3893:3932  votesCount == maxVotes && maxVotes != 0 */\n      dup1\n      iszero\n      tag_240\n      jumpi\n      pop\n        /* \"contracts/Voting.sol\":3931:3932  0 */\n      0x00\n        /* \"contracts/Voting.sol\":3919:3927  maxVotes */\n      dup4\n        /* \"contracts/Voting.sol\":3919:3932  maxVotes != 0 */\n      eq\n      iszero\n        /* \"contracts/Voting.sol\":3893:3932  votesCount == maxVotes && maxVotes != 0 */\n    tag_240:\n        /* \"contracts/Voting.sol\":3889:4025  if (votesCount == maxVotes && maxVotes != 0){... */\n      iszero\n      tag_241\n      jumpi\n        /* \"contracts/Voting.sol\":3951:3962  currentVote */\n      0x01\n        /* \"contracts/Voting.sol\":3951:3979  currentVote.winningProposals */\n      0x04\n      add\n        /* \"contracts/Voting.sol\":3985:3996  currentVote */\n      0x01\n        /* \"contracts/Voting.sol\":3985:4006  currentVote.proposals */\n      0x02\n      add\n        /* \"contracts/Voting.sol\":4007:4008  i */\n      dup4\n        /* \"contracts/Voting.sol\":3985:4009  currentVote.proposals[i] */\n      dup2\n      sload\n      dup2\n      lt\n      tag_242\n      jumpi\n      tag_243\n      tag_63\n      jump\t// in\n    tag_243:\n    tag_242:\n      swap1\n      0x00\n      mstore\n      keccak256(0x00, 0x20)\n      swap1\n      0x02\n      mul\n      add\n        /* \"contracts/Voting.sol\":3951:4010  currentVote.winningProposals.push(currentVote.proposals[i]) */\n      swap1\n      dup1\n      0x01\n      dup2\n      sload\n      add\n      dup1\n      dup3\n      sstore\n      dup1\n      swap2\n      pop\n      pop\n      0x01\n      swap1\n      sub\n      swap1\n      0x00\n      mstore\n      keccak256(0x00, 0x20)\n      swap1\n      0x02\n      mul\n      add\n      0x00\n      swap1\n      swap2\n      swap1\n      swap2\n      swap1\n      swap2\n      pop\n      0x00\n      dup3\n      add\n      dup2\n      0x00\n      add\n      swap1\n      dup2\n      tag_246\n      swap2\n      swap1\n      tag_190\n      jump\t// in\n    tag_246:\n      pop\n      0x01\n      dup3\n      add\n      sload\n      dup2\n      0x01\n      add\n      sstore\n      pop\n      pop\n        /* \"contracts/Voting.sol\":3889:4025  if (votesCount == maxVotes && maxVotes != 0){... */\n    tag_241:\n        /* \"contracts/Voting.sol\":3674:4025  if(votesCount > maxVotes){... */\n    tag_239:\n        /* \"contracts/Voting.sol\":3593:4035  {... */\n      pop\n        /* \"contracts/Voting.sol\":3588:3591  ++i */\n      dup1\n      0x01\n      add\n      swap1\n      pop\n        /* \"contracts/Voting.sol\":3537:4035  for (uint i = 0; i < currentVote.proposals.length; ++i) {... */\n      jump(tag_226)\n    tag_227:\n      pop\n        /* \"contracts/Voting.sol\":4050:4109  VotesTallied(maxVotes, currentVote.winningProposals.length) */\n      0x45ef9b7fc34bdfcccc29be8be99ab3e8f3206f5957d34325050712b5b486bdce\n        /* \"contracts/Voting.sol\":4063:4071  maxVotes */\n      dup2\n        /* \"contracts/Voting.sol\":4073:4084  currentVote */\n      0x01\n        /* \"contracts/Voting.sol\":4073:4101  currentVote.winningProposals */\n      0x04\n      add\n        /* \"contracts/Voting.sol\":4073:4108  currentVote.winningProposals.length */\n      dup1\n      sload\n      swap1\n      pop\n        /* \"contracts/Voting.sol\":4050:4109  VotesTallied(maxVotes, currentVote.winningProposals.length) */\n      mload(0x40)\n      tag_247\n      swap3\n      swap2\n      swap1\n      tag_206\n      jump\t// in\n    tag_247:\n      mload(0x40)\n      dup1\n      swap2\n      sub\n      swap1\n      log1\n        /* \"contracts/Voting.sol\":3454:4116  {... */\n      pop\n        /* \"contracts/Voting.sol\":3413:4116  function tallyVotes() internal onlyOwner {... */\n      jump\t// out\n        /* \"@openzeppelin/contracts/utils/Context.sol\":656:752  function _msgSender() internal view virtual returns (address) {... */\n    tag_216:\n        /* \"@openzeppelin/contracts/utils/Context.sol\":709:716  address */\n      0x00\n        /* \"@openzeppelin/contracts/utils/Context.sol\":735:745  msg.sender */\n      caller\n        /* \"@openzeppelin/contracts/utils/Context.sol\":728:745  return msg.sender */\n      swap1\n      pop\n        /* \"@openzeppelin/contracts/utils/Context.sol\":656:752  function _msgSender() internal view virtual returns (address) {... */\n      swap1\n      jump\t// out\n    tag_71:\n      mload(0x40)\n      dup1\n      0x60\n      add\n      0x40\n      mstore\n      dup1\n      0x00\n      dup2\n      mstore\n      0x20\n      add\n      0x60\n      dup2\n      mstore\n      0x20\n      add\n      0x60\n      dup2\n      mstore\n      pop\n      swap1\n      jump\t// out\n    tag_200:\n      pop\n      dup1\n      sload\n      0x00\n      dup3\n      sstore\n      0x02\n      mul\n      swap1\n      0x00\n      mstore\n      keccak256(0x00, 0x20)\n      swap1\n      dup2\n      add\n      swap1\n      tag_250\n      swap2\n      swap1\n      tag_251\n      jump\t// in\n    tag_250:\n      pop\n      jump\t// out\n    tag_251:\n    tag_252:\n      dup1\n      dup3\n      gt\n      iszero\n      tag_253\n      jumpi\n      0x00\n      0x00\n      dup3\n      add\n      0x00\n      tag_254\n      swap2\n      swap1\n      tag_255\n      jump\t// in\n    tag_254:\n      0x01\n      dup3\n      add\n      0x00\n      swap1\n      sstore\n      pop\n      0x02\n      add\n      jump(tag_252)\n    tag_253:\n      pop\n      swap1\n      jump\t// out\n    tag_255:\n      pop\n      dup1\n      sload\n      tag_256\n      swap1\n      tag_81\n      jump\t// in\n    tag_256:\n      0x00\n      dup3\n      sstore\n      dup1\n      0x1f\n      lt\n      tag_258\n      jumpi\n      pop\n      jump(tag_257)\n    tag_258:\n      0x1f\n      add\n      0x20\n      swap1\n      div\n      swap1\n      0x00\n      mstore\n      keccak256(0x00, 0x20)\n      swap1\n      dup2\n      add\n      swap1\n      tag_259\n      swap2\n      swap1\n      tag_260\n      jump\t// in\n    tag_259:\n    tag_257:\n      pop\n      jump\t// out\n    tag_260:\n    tag_261:\n      dup1\n      dup3\n      gt\n      iszero\n      tag_262\n      jumpi\n      0x00\n      dup2\n      0x00\n      swap1\n      sstore\n      pop\n      0x01\n      add\n      jump(tag_261)\n    tag_262:\n      pop\n      swap1\n      jump\t// out\n        /* \"#utility.yul\":7:82   */\n    tag_263:\n        /* \"#utility.yul\":40:46   */\n      0x00\n        /* \"#utility.yul\":73:75   */\n      0x40\n        /* \"#utility.yul\":67:76   */\n      mload\n        /* \"#utility.yul\":57:76   */\n      swap1\n      pop\n        /* \"#utility.yul\":7:82   */\n      swap1\n      jump\t// out\n        /* \"#utility.yul\":88:205   */\n    tag_264:\n        /* \"#utility.yul\":197:198   */\n      0x00\n        /* \"#utility.yul\":194:195   */\n      0x00\n        /* \"#utility.yul\":187:199   */\n      revert\n        /* \"#utility.yul\":211:328   */\n    tag_265:\n        /* \"#utility.yul\":320:321   */\n      0x00\n        /* \"#utility.yul\":317:318   */\n      0x00\n        /* \"#utility.yul\":310:322   */\n      revert\n        /* \"#utility.yul\":334:411   */\n    tag_266:\n        /* \"#utility.yul\":371:378   */\n      0x00\n        /* \"#utility.yul\":400:405   */\n      dup2\n        /* \"#utility.yul\":389:405   */\n      swap1\n      pop\n        /* \"#utility.yul\":334:411   */\n      swap2\n      swap1\n      pop\n      jump\t// out\n        /* \"#utility.yul\":417:539   */\n    tag_267:\n        /* \"#utility.yul\":490:514   */\n      tag_328\n        /* \"#utility.yul\":508:513   */\n      dup2\n        /* \"#utility.yul\":490:514   */\n      tag_266\n      jump\t// in\n    tag_328:\n        /* \"#utility.yul\":483:488   */\n      dup2\n        /* \"#utility.yul\":480:515   */\n      eq\n        /* \"#utility.yul\":470:533   */\n      tag_329\n      jumpi\n        /* \"#utility.yul\":529:530   */\n      0x00\n        /* \"#utility.yul\":526:527   */\n      0x00\n        /* \"#utility.yul\":519:531   */\n      revert\n        /* \"#utility.yul\":470:533   */\n    tag_329:\n        /* \"#utility.yul\":417:539   */\n      pop\n      jump\t// out\n        /* \"#utility.yul\":545:684   */\n    tag_268:\n        /* \"#utility.yul\":591:596   */\n      0x00\n        /* \"#utility.yul\":629:635   */\n      dup2\n        /* \"#utility.yul\":616:636   */\n      calldataload\n        /* \"#utility.yul\":607:636   */\n      swap1\n      pop\n        /* \"#utility.yul\":645:678   */\n      tag_331\n        /* \"#utility.yul\":672:677   */\n      dup2\n        /* \"#utility.yul\":645:678   */\n      tag_267\n      jump\t// in\n    tag_331:\n        /* \"#utility.yul\":545:684   */\n      swap3\n      swap2\n      pop\n      pop\n      jump\t// out\n        /* \"#utility.yul\":690:1019   */\n    tag_16:\n        /* \"#utility.yul\":749:755   */\n      0x00\n        /* \"#utility.yul\":798:800   */\n      0x20\n        /* \"#utility.yul\":786:795   */\n      dup3\n        /* \"#utility.yul\":777:784   */\n      dup5\n        /* \"#utility.yul\":773:796   */\n      sub\n        /* \"#utility.yul\":769:801   */\n      slt\n        /* \"#utility.yul\":766:885   */\n      iszero\n      tag_333\n      jumpi\n        /* \"#utility.yul\":804:883   */\n      tag_334\n      tag_264\n      jump\t// in\n    tag_334:\n        /* \"#utility.yul\":766:885   */\n    tag_333:\n        /* \"#utility.yul\":924:925   */\n      0x00\n        /* \"#utility.yul\":949:1002   */\n      tag_335\n        /* \"#utility.yul\":994:1001   */\n      dup5\n        /* \"#utility.yul\":985:991   */\n      dup3\n        /* \"#utility.yul\":974:983   */\n      dup6\n        /* \"#utility.yul\":970:992   */\n      add\n        /* \"#utility.yul\":949:1002   */\n      tag_268\n      jump\t// in\n    tag_335:\n        /* \"#utility.yul\":939:1002   */\n      swap2\n      pop\n        /* \"#utility.yul\":895:1012   */\n      pop\n        /* \"#utility.yul\":690:1019   */\n      swap3\n      swap2\n      pop\n      pop\n      jump\t// out\n        /* \"#utility.yul\":1025:1133   */\n    tag_269:\n        /* \"#utility.yul\":1102:1126   */\n      tag_337\n        /* \"#utility.yul\":1120:1125   */\n      dup2\n        /* \"#utility.yul\":1102:1126   */\n      tag_266\n      jump\t// in\n    tag_337:\n        /* \"#utility.yul\":1097:1100   */\n      dup3\n        /* \"#utility.yul\":1090:1127   */\n      mstore\n        /* \"#utility.yul\":1025:1133   */\n      pop\n      pop\n      jump\t// out\n        /* \"#utility.yul\":1139:1278   */\n    tag_270:\n        /* \"#utility.yul\":1231:1237   */\n      0x00\n        /* \"#utility.yul\":1265:1270   */\n      dup2\n        /* \"#utility.yul\":1259:1271   */\n      mload\n        /* \"#utility.yul\":1249:1271   */\n      swap1\n      pop\n        /* \"#utility.yul\":1139:1278   */\n      swap2\n      swap1\n      pop\n      jump\t// out\n        /* \"#utility.yul\":1284:1483   */\n    tag_271:\n        /* \"#utility.yul\":1398:1409   */\n      0x00\n        /* \"#utility.yul\":1432:1438   */\n      dup3\n        /* \"#utility.yul\":1427:1430   */\n      dup3\n        /* \"#utility.yul\":1420:1439   */\n      mstore\n        /* \"#utility.yul\":1472:1476   */\n      0x20\n        /* \"#utility.yul\":1467:1470   */\n      dup3\n        /* \"#utility.yul\":1463:1477   */\n      add\n        /* \"#utility.yul\":1448:1477   */\n      swap1\n      pop\n        /* \"#utility.yul\":1284:1483   */\n      swap3\n      swap2\n      pop\n      pop\n      jump\t// out\n        /* \"#utility.yul\":1489:1646   */\n    tag_272:\n        /* \"#utility.yul\":1581:1585   */\n      0x00\n        /* \"#utility.yul\":1604:1607   */\n      dup2\n        /* \"#utility.yul\":1596:1607   */\n      swap1\n      pop\n        /* \"#utility.yul\":1634:1638   */\n      0x20\n        /* \"#utility.yul\":1629:1632   */\n      dup3\n        /* \"#utility.yul\":1625:1639   */\n      add\n        /* \"#utility.yul\":1617:1639   */\n      swap1\n      pop\n        /* \"#utility.yul\":1489:1646   */\n      swap2\n      swap1\n      pop\n      jump\t// out\n        /* \"#utility.yul\":1652:1751   */\n    tag_273:\n        /* \"#utility.yul\":1704:1710   */\n      0x00\n        /* \"#utility.yul\":1738:1743   */\n      dup2\n        /* \"#utility.yul\":1732:1744   */\n      mload\n        /* \"#utility.yul\":1722:1744   */\n      swap1\n      pop\n        /* \"#utility.yul\":1652:1751   */\n      swap2\n      swap1\n      pop\n      jump\t// out\n        /* \"#utility.yul\":1757:1916   */\n    tag_274:\n        /* \"#utility.yul\":1831:1842   */\n      0x00\n        /* \"#utility.yul\":1865:1871   */\n      dup3\n        /* \"#utility.yul\":1860:1863   */\n      dup3\n        /* \"#utility.yul\":1853:1872   */\n      mstore\n        /* \"#utility.yul\":1905:1909   */\n      0x20\n        /* \"#utility.yul\":1900:1903   */\n      dup3\n        /* \"#utility.yul\":1896:1910   */\n      add\n        /* \"#utility.yul\":1881:1910   */\n      swap1\n      pop\n        /* \"#utility.yul\":1757:1916   */\n      swap3\n      swap2\n      pop\n      pop\n      jump\t// out\n        /* \"#utility.yul\":1922:2061   */\n    tag_275:\n        /* \"#utility.yul\":2011:2017   */\n      dup3\n        /* \"#utility.yul\":2006:2009   */\n      dup2\n        /* \"#utility.yul\":2001:2004   */\n      dup4\n        /* \"#utility.yul\":1995:2018   */\n      mcopy\n        /* \"#utility.yul\":2052:2053   */\n      0x00\n        /* \"#utility.yul\":2043:2049   */\n      dup4\n        /* \"#utility.yul\":2038:2041   */\n      dup4\n        /* \"#utility.yul\":2034:2050   */\n      add\n        /* \"#utility.yul\":2027:2054   */\n      mstore\n        /* \"#utility.yul\":1922:2061   */\n      pop\n      pop\n      pop\n      jump\t// out\n        /* \"#utility.yul\":2067:2169   */\n    tag_276:\n        /* \"#utility.yul\":2108:2114   */\n      0x00\n        /* \"#utility.yul\":2159:2161   */\n      0x1f\n        /* \"#utility.yul\":2155:2162   */\n      not\n        /* \"#utility.yul\":2150:2152   */\n      0x1f\n        /* \"#utility.yul\":2143:2148   */\n      dup4\n        /* \"#utility.yul\":2139:2153   */\n      add\n        /* \"#utility.yul\":2135:2163   */\n      and\n        /* \"#utility.yul\":2125:2163   */\n      swap1\n      pop\n        /* \"#utility.yul\":2067:2169   */\n      swap2\n      swap1\n      pop\n      jump\t// out\n        /* \"#utility.yul\":2175:2532   */\n    tag_277:\n        /* \"#utility.yul\":2253:2256   */\n      0x00\n        /* \"#utility.yul\":2281:2320   */\n      tag_346\n        /* \"#utility.yul\":2314:2319   */\n      dup3\n        /* \"#utility.yul\":2281:2320   */\n      tag_273\n      jump\t// in\n    tag_346:\n        /* \"#utility.yul\":2336:2397   */\n      tag_347\n        /* \"#utility.yul\":2390:2396   */\n      dup2\n        /* \"#utility.yul\":2385:2388   */\n      dup6\n        /* \"#utility.yul\":2336:2397   */\n      tag_274\n      jump\t// in\n    tag_347:\n        /* \"#utility.yul\":2329:2397   */\n      swap4\n      pop\n        /* \"#utility.yul\":2406:2471   */\n      tag_348\n        /* \"#utility.yul\":2464:2470   */\n      dup2\n        /* \"#utility.yul\":2459:2462   */\n      dup6\n        /* \"#utility.yul\":2452:2456   */\n      0x20\n        /* \"#utility.yul\":2445:2450   */\n      dup7\n        /* \"#utility.yul\":2441:2457   */\n      add\n        /* \"#utility.yul\":2406:2471   */\n      tag_275\n      jump\t// in\n    tag_348:\n        /* \"#utility.yul\":2496:2525   */\n      tag_349\n        /* \"#utility.yul\":2518:2524   */\n      dup2\n        /* \"#utility.yul\":2496:2525   */\n      tag_276\n      jump\t// in\n    tag_349:\n        /* \"#utility.yul\":2491:2494   */\n      dup5\n        /* \"#utility.yul\":2487:2526   */\n      add\n        /* \"#utility.yul\":2480:2526   */\n      swap2\n      pop\n        /* \"#utility.yul\":2257:2532   */\n      pop\n        /* \"#utility.yul\":2175:2532   */\n      swap3\n      swap2\n      pop\n      pop\n      jump\t// out\n        /* \"#utility.yul\":2594:3202   */\n    tag_278:\n        /* \"#utility.yul\":2703:2706   */\n      0x00\n        /* \"#utility.yul\":2739:2743   */\n      0x40\n        /* \"#utility.yul\":2734:2737   */\n      dup4\n        /* \"#utility.yul\":2730:2744   */\n      add\n        /* \"#utility.yul\":2833:2837   */\n      0x00\n        /* \"#utility.yul\":2826:2831   */\n      dup4\n        /* \"#utility.yul\":2822:2838   */\n      add\n        /* \"#utility.yul\":2816:2839   */\n      mload\n        /* \"#utility.yul\":2886:2889   */\n      dup5\n        /* \"#utility.yul\":2880:2884   */\n      dup3\n        /* \"#utility.yul\":2876:2890   */\n      sub\n        /* \"#utility.yul\":2869:2873   */\n      0x00\n        /* \"#utility.yul\":2864:2867   */\n      dup7\n        /* \"#utility.yul\":2860:2874   */\n      add\n        /* \"#utility.yul\":2853:2891   */\n      mstore\n        /* \"#utility.yul\":2912:2985   */\n      tag_351\n        /* \"#utility.yul\":2980:2984   */\n      dup3\n        /* \"#utility.yul\":2966:2978   */\n      dup3\n        /* \"#utility.yul\":2912:2985   */\n      tag_277\n      jump\t// in\n    tag_351:\n        /* \"#utility.yul\":2904:2985   */\n      swap2\n      pop\n        /* \"#utility.yul\":2754:2996   */\n      pop\n        /* \"#utility.yul\":3083:3087   */\n      0x20\n        /* \"#utility.yul\":3076:3081   */\n      dup4\n        /* \"#utility.yul\":3072:3088   */\n      add\n        /* \"#utility.yul\":3066:3089   */\n      mload\n        /* \"#utility.yul\":3102:3165   */\n      tag_352\n        /* \"#utility.yul\":3159:3163   */\n      0x20\n        /* \"#utility.yul\":3154:3157   */\n      dup7\n        /* \"#utility.yul\":3150:3164   */\n      add\n        /* \"#utility.yul\":3136:3148   */\n      dup3\n        /* \"#utility.yul\":3102:3165   */\n      tag_269\n      jump\t// in\n    tag_352:\n        /* \"#utility.yul\":3006:3175   */\n      pop\n        /* \"#utility.yul\":3192:3196   */\n      dup1\n        /* \"#utility.yul\":3185:3196   */\n      swap2\n      pop\n        /* \"#utility.yul\":2708:3202   */\n      pop\n        /* \"#utility.yul\":2594:3202   */\n      swap3\n      swap2\n      pop\n      pop\n      jump\t// out\n        /* \"#utility.yul\":3208:3464   */\n    tag_279:\n        /* \"#utility.yul\":3327:3337   */\n      0x00\n        /* \"#utility.yul\":3362:3458   */\n      tag_354\n        /* \"#utility.yul\":3454:3457   */\n      dup4\n        /* \"#utility.yul\":3446:3452   */\n      dup4\n        /* \"#utility.yul\":3362:3458   */\n      tag_278\n      jump\t// in\n    tag_354:\n        /* \"#utility.yul\":3348:3458   */\n      swap1\n      pop\n        /* \"#utility.yul\":3208:3464   */\n      swap3\n      swap2\n      pop\n      pop\n      jump\t// out\n        /* \"#utility.yul\":3470:3608   */\n    tag_280:\n        /* \"#utility.yul\":3565:3569   */\n      0x00\n        /* \"#utility.yul\":3597:3601   */\n      0x20\n        /* \"#utility.yul\":3592:3595   */\n      dup3\n        /* \"#utility.yul\":3588:3602   */\n      add\n        /* \"#utility.yul\":3580:3602   */\n      swap1\n      pop\n        /* \"#utility.yul\":3470:3608   */\n      swap2\n      swap1\n      pop\n      jump\t// out\n        /* \"#utility.yul\":3674:4765   */\n    tag_281:\n        /* \"#utility.yul\":3833:3836   */\n      0x00\n        /* \"#utility.yul\":3862:3941   */\n      tag_357\n        /* \"#utility.yul\":3935:3940   */\n      dup3\n        /* \"#utility.yul\":3862:3941   */\n      tag_270\n      jump\t// in\n    tag_357:\n        /* \"#utility.yul\":3957:4058   */\n      tag_358\n        /* \"#utility.yul\":4051:4057   */\n      dup2\n        /* \"#utility.yul\":4046:4049   */\n      dup6\n        /* \"#utility.yul\":3957:4058   */\n      tag_271\n      jump\t// in\n    tag_358:\n        /* \"#utility.yul\":3950:4058   */\n      swap4\n      pop\n        /* \"#utility.yul\":4084:4087   */\n      dup4\n        /* \"#utility.yul\":4129:4133   */\n      0x20\n        /* \"#utility.yul\":4121:4127   */\n      dup3\n        /* \"#utility.yul\":4117:4134   */\n      mul\n        /* \"#utility.yul\":4112:4115   */\n      dup6\n        /* \"#utility.yul\":4108:4135   */\n      add\n        /* \"#utility.yul\":4159:4240   */\n      tag_359\n        /* \"#utility.yul\":4234:4239   */\n      dup6\n        /* \"#utility.yul\":4159:4240   */\n      tag_272\n      jump\t// in\n    tag_359:\n        /* \"#utility.yul\":4263:4270   */\n      dup1\n        /* \"#utility.yul\":4294:4295   */\n      0x00\n        /* \"#utility.yul\":4279:4720   */\n    tag_360:\n        /* \"#utility.yul\":4304:4310   */\n      dup6\n        /* \"#utility.yul\":4301:4302   */\n      dup2\n        /* \"#utility.yul\":4298:4311   */\n      lt\n        /* \"#utility.yul\":4279:4720   */\n      iszero\n      tag_362\n      jumpi\n        /* \"#utility.yul\":4375:4384   */\n      dup5\n        /* \"#utility.yul\":4369:4373   */\n      dup5\n        /* \"#utility.yul\":4365:4385   */\n      sub\n        /* \"#utility.yul\":4360:4363   */\n      dup10\n        /* \"#utility.yul\":4353:4386   */\n      mstore\n        /* \"#utility.yul\":4426:4432   */\n      dup2\n        /* \"#utility.yul\":4420:4433   */\n      mload\n        /* \"#utility.yul\":4454:4568   */\n      tag_363\n        /* \"#utility.yul\":4563:4567   */\n      dup6\n        /* \"#utility.yul\":4548:4561   */\n      dup3\n        /* \"#utility.yul\":4454:4568   */\n      tag_279\n      jump\t// in\n    tag_363:\n        /* \"#utility.yul\":4446:4568   */\n      swap5\n      pop\n        /* \"#utility.yul\":4591:4676   */\n      tag_364\n        /* \"#utility.yul\":4669:4675   */\n      dup4\n        /* \"#utility.yul\":4591:4676   */\n      tag_280\n      jump\t// in\n    tag_364:\n        /* \"#utility.yul\":4581:4676   */\n      swap3\n      pop\n        /* \"#utility.yul\":4705:4709   */\n      0x20\n        /* \"#utility.yul\":4700:4703   */\n      dup11\n        /* \"#utility.yul\":4696:4710   */\n      add\n        /* \"#utility.yul\":4689:4710   */\n      swap10\n      pop\n        /* \"#utility.yul\":4339:4720   */\n      pop\n        /* \"#utility.yul\":4326:4327   */\n      0x01\n        /* \"#utility.yul\":4323:4324   */\n      dup2\n        /* \"#utility.yul\":4319:4328   */\n      add\n        /* \"#utility.yul\":4314:4328   */\n      swap1\n      pop\n        /* \"#utility.yul\":4279:4720   */\n      jump(tag_360)\n    tag_362:\n        /* \"#utility.yul\":4283:4297   */\n      pop\n        /* \"#utility.yul\":4736:4740   */\n      dup3\n        /* \"#utility.yul\":4729:4740   */\n      swap8\n      pop\n        /* \"#utility.yul\":4756:4759   */\n      dup8\n        /* \"#utility.yul\":4749:4759   */\n      swap6\n      pop\n        /* \"#utility.yul\":3838:4765   */\n      pop\n      pop\n      pop\n      pop\n      pop\n        /* \"#utility.yul\":3674:4765   */\n      swap3\n      swap2\n      pop\n      pop\n      jump\t// out\n        /* \"#utility.yul\":4837:5886   */\n    tag_282:\n        /* \"#utility.yul\":4966:4969   */\n      0x00\n        /* \"#utility.yul\":5002:5006   */\n      0x60\n        /* \"#utility.yul\":4997:5000   */\n      dup4\n        /* \"#utility.yul\":4993:5007   */\n      add\n        /* \"#utility.yul\":5100:5104   */\n      0x00\n        /* \"#utility.yul\":5093:5098   */\n      dup4\n        /* \"#utility.yul\":5089:5105   */\n      add\n        /* \"#utility.yul\":5083:5106   */\n      mload\n        /* \"#utility.yul\":5119:5182   */\n      tag_366\n        /* \"#utility.yul\":5176:5180   */\n      0x00\n        /* \"#utility.yul\":5171:5174   */\n      dup7\n        /* \"#utility.yul\":5167:5181   */\n      add\n        /* \"#utility.yul\":5153:5165   */\n      dup3\n        /* \"#utility.yul\":5119:5182   */\n      tag_269\n      jump\t// in\n    tag_366:\n        /* \"#utility.yul\":5017:5192   */\n      pop\n        /* \"#utility.yul\":5279:5283   */\n      0x20\n        /* \"#utility.yul\":5272:5277   */\n      dup4\n        /* \"#utility.yul\":5268:5284   */\n      add\n        /* \"#utility.yul\":5262:5285   */\n      mload\n        /* \"#utility.yul\":5332:5335   */\n      dup5\n        /* \"#utility.yul\":5326:5330   */\n      dup3\n        /* \"#utility.yul\":5322:5336   */\n      sub\n        /* \"#utility.yul\":5315:5319   */\n      0x20\n        /* \"#utility.yul\":5310:5313   */\n      dup7\n        /* \"#utility.yul\":5306:5320   */\n      add\n        /* \"#utility.yul\":5299:5337   */\n      mstore\n        /* \"#utility.yul\":5358:5511   */\n      tag_367\n        /* \"#utility.yul\":5506:5510   */\n      dup3\n        /* \"#utility.yul\":5492:5504   */\n      dup3\n        /* \"#utility.yul\":5358:5511   */\n      tag_281\n      jump\t// in\n    tag_367:\n        /* \"#utility.yul\":5350:5511   */\n      swap2\n      pop\n        /* \"#utility.yul\":5202:5522   */\n      pop\n        /* \"#utility.yul\":5616:5620   */\n      0x40\n        /* \"#utility.yul\":5609:5614   */\n      dup4\n        /* \"#utility.yul\":5605:5621   */\n      add\n        /* \"#utility.yul\":5599:5622   */\n      mload\n        /* \"#utility.yul\":5669:5672   */\n      dup5\n        /* \"#utility.yul\":5663:5667   */\n      dup3\n        /* \"#utility.yul\":5659:5673   */\n      sub\n        /* \"#utility.yul\":5652:5656   */\n      0x40\n        /* \"#utility.yul\":5647:5650   */\n      dup7\n        /* \"#utility.yul\":5643:5657   */\n      add\n        /* \"#utility.yul\":5636:5674   */\n      mstore\n        /* \"#utility.yul\":5695:5848   */\n      tag_368\n        /* \"#utility.yul\":5843:5847   */\n      dup3\n        /* \"#utility.yul\":5829:5841   */\n      dup3\n        /* \"#utility.yul\":5695:5848   */\n      tag_281\n      jump\t// in\n    tag_368:\n        /* \"#utility.yul\":5687:5848   */\n      swap2\n      pop\n        /* \"#utility.yul\":5532:5859   */\n      pop\n        /* \"#utility.yul\":5876:5880   */\n      dup1\n        /* \"#utility.yul\":5869:5880   */\n      swap2\n      pop\n        /* \"#utility.yul\":4971:5886   */\n      pop\n        /* \"#utility.yul\":4837:5886   */\n      swap3\n      swap2\n      pop\n      pop\n      jump\t// out\n        /* \"#utility.yul\":5892:6285   */\n    tag_22:\n        /* \"#utility.yul\":6045:6049   */\n      0x00\n        /* \"#utility.yul\":6083:6085   */\n      0x20\n        /* \"#utility.yul\":6072:6081   */\n      dup3\n        /* \"#utility.yul\":6068:6086   */\n      add\n        /* \"#utility.yul\":6060:6086   */\n      swap1\n      pop\n        /* \"#utility.yul\":6132:6141   */\n      dup2\n        /* \"#utility.yul\":6126:6130   */\n      dup2\n        /* \"#utility.yul\":6122:6142   */\n      sub\n        /* \"#utility.yul\":6118:6119   */\n      0x00\n        /* \"#utility.yul\":6107:6116   */\n      dup4\n        /* \"#utility.yul\":6103:6120   */\n      add\n        /* \"#utility.yul\":6096:6143   */\n      mstore\n        /* \"#utility.yul\":6160:6278   */\n      tag_370\n        /* \"#utility.yul\":6273:6277   */\n      dup2\n        /* \"#utility.yul\":6264:6270   */\n      dup5\n        /* \"#utility.yul\":6160:6278   */\n      tag_282\n      jump\t// in\n    tag_370:\n        /* \"#utility.yul\":6152:6278   */\n      swap1\n      pop\n        /* \"#utility.yul\":5892:6285   */\n      swap3\n      swap2\n      pop\n      pop\n      jump\t// out\n        /* \"#utility.yul\":6291:6408   */\n    tag_283:\n        /* \"#utility.yul\":6400:6401   */\n      0x00\n        /* \"#utility.yul\":6397:6398   */\n      0x00\n        /* \"#utility.yul\":6390:6402   */\n      revert\n        /* \"#utility.yul\":6414:6531   */\n    tag_284:\n        /* \"#utility.yul\":6523:6524   */\n      0x00\n        /* \"#utility.yul\":6520:6521   */\n      0x00\n        /* \"#utility.yul\":6513:6525   */\n      revert\n        /* \"#utility.yul\":6537:6717   */\n    tag_285:\n        /* \"#utility.yul\":6585:6662   */\n      0x4e487b7100000000000000000000000000000000000000000000000000000000\n        /* \"#utility.yul\":6582:6583   */\n      0x00\n        /* \"#utility.yul\":6575:6663   */\n      mstore\n        /* \"#utility.yul\":6682:6686   */\n      0x41\n        /* \"#utility.yul\":6679:6680   */\n      0x04\n        /* \"#utility.yul\":6672:6687   */\n      mstore\n        /* \"#utility.yul\":6706:6710   */\n      0x24\n        /* \"#utility.yul\":6703:6704   */\n      0x00\n        /* \"#utility.yul\":6696:6711   */\n      revert\n        /* \"#utility.yul\":6723:7004   */\n    tag_286:\n        /* \"#utility.yul\":6806:6833   */\n      tag_375\n        /* \"#utility.yul\":6828:6832   */\n      dup3\n        /* \"#utility.yul\":6806:6833   */\n      tag_276\n      jump\t// in\n    tag_375:\n        /* \"#utility.yul\":6798:6804   */\n      dup2\n        /* \"#utility.yul\":6794:6834   */\n      add\n        /* \"#utility.yul\":6936:6942   */\n      dup2\n        /* \"#utility.yul\":6924:6934   */\n      dup2\n        /* \"#utility.yul\":6921:6943   */\n      lt\n        /* \"#utility.yul\":6900:6918   */\n      0xffffffffffffffff\n        /* \"#utility.yul\":6888:6898   */\n      dup3\n        /* \"#utility.yul\":6885:6919   */\n      gt\n        /* \"#utility.yul\":6882:6944   */\n      or\n        /* \"#utility.yul\":6879:6967   */\n      iszero\n      tag_376\n      jumpi\n        /* \"#utility.yul\":6947:6965   */\n      tag_377\n      tag_285\n      jump\t// in\n    tag_377:\n        /* \"#utility.yul\":6879:6967   */\n    tag_376:\n        /* \"#utility.yul\":6987:6997   */\n      dup1\n        /* \"#utility.yul\":6983:6985   */\n      0x40\n        /* \"#utility.yul\":6976:6998   */\n      mstore\n        /* \"#utility.yul\":6766:7004   */\n      pop\n        /* \"#utility.yul\":6723:7004   */\n      pop\n      pop\n      jump\t// out\n        /* \"#utility.yul\":7010:7139   */\n    tag_287:\n        /* \"#utility.yul\":7044:7050   */\n      0x00\n        /* \"#utility.yul\":7071:7091   */\n      tag_379\n      tag_263\n      jump\t// in\n    tag_379:\n        /* \"#utility.yul\":7061:7091   */\n      swap1\n      pop\n        /* \"#utility.yul\":7100:7133   */\n      tag_380\n        /* \"#utility.yul\":7128:7132   */\n      dup3\n        /* \"#utility.yul\":7120:7126   */\n      dup3\n        /* \"#utility.yul\":7100:7133   */\n      tag_286\n      jump\t// in\n    tag_380:\n        /* \"#utility.yul\":7010:7139   */\n      swap2\n      swap1\n      pop\n      jump\t// out\n        /* \"#utility.yul\":7145:7453   */\n    tag_288:\n        /* \"#utility.yul\":7207:7211   */\n      0x00\n        /* \"#utility.yul\":7297:7315   */\n      0xffffffffffffffff\n        /* \"#utility.yul\":7289:7295   */\n      dup3\n        /* \"#utility.yul\":7286:7316   */\n      gt\n        /* \"#utility.yul\":7283:7339   */\n      iszero\n      tag_382\n      jumpi\n        /* \"#utility.yul\":7319:7337   */\n      tag_383\n      tag_285\n      jump\t// in\n    tag_383:\n        /* \"#utility.yul\":7283:7339   */\n    tag_382:\n        /* \"#utility.yul\":7357:7386   */\n      tag_384\n        /* \"#utility.yul\":7379:7385   */\n      dup3\n        /* \"#utility.yul\":7357:7386   */\n      tag_276\n      jump\t// in\n    tag_384:\n        /* \"#utility.yul\":7349:7386   */\n      swap1\n      pop\n        /* \"#utility.yul\":7441:7445   */\n      0x20\n        /* \"#utility.yul\":7435:7439   */\n      dup2\n        /* \"#utility.yul\":7431:7446   */\n      add\n        /* \"#utility.yul\":7423:7446   */\n      swap1\n      pop\n        /* \"#utility.yul\":7145:7453   */\n      swap2\n      swap1\n      pop\n      jump\t// out\n        /* \"#utility.yul\":7459:7607   */\n    tag_289:\n        /* \"#utility.yul\":7557:7563   */\n      dup3\n        /* \"#utility.yul\":7552:7555   */\n      dup2\n        /* \"#utility.yul\":7547:7550   */\n      dup4\n        /* \"#utility.yul\":7534:7564   */\n      calldatacopy\n        /* \"#utility.yul\":7598:7599   */\n      0x00\n        /* \"#utility.yul\":7589:7595   */\n      dup4\n        /* \"#utility.yul\":7584:7587   */\n      dup4\n        /* \"#utility.yul\":7580:7596   */\n      add\n        /* \"#utility.yul\":7573:7600   */\n      mstore\n        /* \"#utility.yul\":7459:7607   */\n      pop\n      pop\n      pop\n      jump\t// out\n        /* \"#utility.yul\":7613:8038   */\n    tag_290:\n        /* \"#utility.yul\":7691:7696   */\n      0x00\n        /* \"#utility.yul\":7716:7782   */\n      tag_387\n        /* \"#utility.yul\":7732:7781   */\n      tag_388\n        /* \"#utility.yul\":7774:7780   */\n      dup5\n        /* \"#utility.yul\":7732:7781   */\n      tag_288\n      jump\t// in\n    tag_388:\n        /* \"#utility.yul\":7716:7782   */\n      tag_287\n      jump\t// in\n    tag_387:\n        /* \"#utility.yul\":7707:7782   */\n      swap1\n      pop\n        /* \"#utility.yul\":7805:7811   */\n      dup3\n        /* \"#utility.yul\":7798:7803   */\n      dup2\n        /* \"#utility.yul\":7791:7812   */\n      mstore\n        /* \"#utility.yul\":7843:7847   */\n      0x20\n        /* \"#utility.yul\":7836:7841   */\n      dup2\n        /* \"#utility.yul\":7832:7848   */\n      add\n        /* \"#utility.yul\":7881:7884   */\n      dup5\n        /* \"#utility.yul\":7872:7878   */\n      dup5\n        /* \"#utility.yul\":7867:7870   */\n      dup5\n        /* \"#utility.yul\":7863:7879   */\n      add\n        /* \"#utility.yul\":7860:7885   */\n      gt\n        /* \"#utility.yul\":7857:7969   */\n      iszero\n      tag_389\n      jumpi\n        /* \"#utility.yul\":7888:7967   */\n      tag_390\n      tag_284\n      jump\t// in\n    tag_390:\n        /* \"#utility.yul\":7857:7969   */\n    tag_389:\n        /* \"#utility.yul\":7978:8032   */\n      tag_391\n        /* \"#utility.yul\":8025:8031   */\n      dup5\n        /* \"#utility.yul\":8020:8023   */\n      dup3\n        /* \"#utility.yul\":8015:8018   */\n      dup6\n        /* \"#utility.yul\":7978:8032   */\n      tag_289\n      jump\t// in\n    tag_391:\n        /* \"#utility.yul\":7697:8038   */\n      pop\n        /* \"#utility.yul\":7613:8038   */\n      swap4\n      swap3\n      pop\n      pop\n      pop\n      jump\t// out\n        /* \"#utility.yul\":8058:8398   */\n    tag_291:\n        /* \"#utility.yul\":8114:8119   */\n      0x00\n        /* \"#utility.yul\":8163:8166   */\n      dup3\n        /* \"#utility.yul\":8156:8160   */\n      0x1f\n        /* \"#utility.yul\":8148:8154   */\n      dup4\n        /* \"#utility.yul\":8144:8161   */\n      add\n        /* \"#utility.yul\":8140:8167   */\n      slt\n        /* \"#utility.yul\":8130:8252   */\n      tag_393\n      jumpi\n        /* \"#utility.yul\":8171:8250   */\n      tag_394\n      tag_283\n      jump\t// in\n    tag_394:\n        /* \"#utility.yul\":8130:8252   */\n    tag_393:\n        /* \"#utility.yul\":8288:8294   */\n      dup2\n        /* \"#utility.yul\":8275:8295   */\n      calldataload\n        /* \"#utility.yul\":8313:8392   */\n      tag_395\n        /* \"#utility.yul\":8388:8391   */\n      dup5\n        /* \"#utility.yul\":8380:8386   */\n      dup3\n        /* \"#utility.yul\":8373:8377   */\n      0x20\n        /* \"#utility.yul\":8365:8371   */\n      dup7\n        /* \"#utility.yul\":8361:8378   */\n      add\n        /* \"#utility.yul\":8313:8392   */\n      tag_290\n      jump\t// in\n    tag_395:\n        /* \"#utility.yul\":8304:8392   */\n      swap2\n      pop\n        /* \"#utility.yul\":8120:8398   */\n      pop\n        /* \"#utility.yul\":8058:8398   */\n      swap3\n      swap2\n      pop\n      pop\n      jump\t// out\n        /* \"#utility.yul\":8404:8913   */\n    tag_25:\n        /* \"#utility.yul\":8473:8479   */\n      0x00\n        /* \"#utility.yul\":8522:8524   */\n      0x20\n        /* \"#utility.yul\":8510:8519   */\n      dup3\n        /* \"#utility.yul\":8501:8508   */\n      dup5\n        /* \"#utility.yul\":8497:8520   */\n      sub\n        /* \"#utility.yul\":8493:8525   */\n      slt\n        /* \"#utility.yul\":8490:8609   */\n      iszero\n      tag_397\n      jumpi\n        /* \"#utility.yul\":8528:8607   */\n      tag_398\n      tag_264\n      jump\t// in\n    tag_398:\n        /* \"#utility.yul\":8490:8609   */\n    tag_397:\n        /* \"#utility.yul\":8676:8677   */\n      0x00\n        /* \"#utility.yul\":8665:8674   */\n      dup3\n        /* \"#utility.yul\":8661:8678   */\n      add\n        /* \"#utility.yul\":8648:8679   */\n      calldataload\n        /* \"#utility.yul\":8706:8724   */\n      0xffffffffffffffff\n        /* \"#utility.yul\":8698:8704   */\n      dup2\n        /* \"#utility.yul\":8695:8725   */\n      gt\n        /* \"#utility.yul\":8692:8809   */\n      iszero\n      tag_399\n      jumpi\n        /* \"#utility.yul\":8728:8807   */\n      tag_400\n      tag_265\n      jump\t// in\n    tag_400:\n        /* \"#utility.yul\":8692:8809   */\n    tag_399:\n        /* \"#utility.yul\":8833:8896   */\n      tag_401\n        /* \"#utility.yul\":8888:8895   */\n      dup5\n        /* \"#utility.yul\":8879:8885   */\n      dup3\n        /* \"#utility.yul\":8868:8877   */\n      dup6\n        /* \"#utility.yul\":8864:8886   */\n      add\n        /* \"#utility.yul\":8833:8896   */\n      tag_291\n      jump\t// in\n    tag_401:\n        /* \"#utility.yul\":8823:8896   */\n      swap2\n      pop\n        /* \"#utility.yul\":8619:8906   */\n      pop\n        /* \"#utility.yul\":8404:8913   */\n      swap3\n      swap2\n      pop\n      pop\n      jump\t// out\n        /* \"#utility.yul\":8919:9045   */\n    tag_292:\n        /* \"#utility.yul\":8956:8963   */\n      0x00\n        /* \"#utility.yul\":8996:9038   */\n      0xffffffffffffffffffffffffffffffffffffffff\n        /* \"#utility.yul\":8989:8994   */\n      dup3\n        /* \"#utility.yul\":8985:9039   */\n      and\n        /* \"#utility.yul\":8974:9039   */\n      swap1\n      pop\n        /* \"#utility.yul\":8919:9045   */\n      swap2\n      swap1\n      pop\n      jump\t// out\n        /* \"#utility.yul\":9051:9147   */\n    tag_293:\n        /* \"#utility.yul\":9088:9095   */\n      0x00\n        /* \"#utility.yul\":9117:9141   */\n      tag_404\n        /* \"#utility.yul\":9135:9140   */\n      dup3\n        /* \"#utility.yul\":9117:9141   */\n      tag_292\n      jump\t// in\n    tag_404:\n        /* \"#utility.yul\":9106:9141   */\n      swap1\n      pop\n        /* \"#utility.yul\":9051:9147   */\n      swap2\n      swap1\n      pop\n      jump\t// out\n        /* \"#utility.yul\":9153:9275   */\n    tag_294:\n        /* \"#utility.yul\":9226:9250   */\n      tag_406\n        /* \"#utility.yul\":9244:9249   */\n      dup2\n        /* \"#utility.yul\":9226:9250   */\n      tag_293\n      jump\t// in\n    tag_406:\n        /* \"#utility.yul\":9219:9224   */\n      dup2\n        /* \"#utility.yul\":9216:9251   */\n      eq\n        /* \"#utility.yul\":9206:9269   */\n      tag_407\n      jumpi\n        /* \"#utility.yul\":9265:9266   */\n      0x00\n        /* \"#utility.yul\":9262:9263   */\n      0x00\n        /* \"#utility.yul\":9255:9267   */\n      revert\n        /* \"#utility.yul\":9206:9269   */\n    tag_407:\n        /* \"#utility.yul\":9153:9275   */\n      pop\n      jump\t// out\n        /* \"#utility.yul\":9281:9420   */\n    tag_295:\n        /* \"#utility.yul\":9327:9332   */\n      0x00\n        /* \"#utility.yul\":9365:9371   */\n      dup2\n        /* \"#utility.yul\":9352:9372   */\n      calldataload\n        /* \"#utility.yul\":9343:9372   */\n      swap1\n      pop\n        /* \"#utility.yul\":9381:9414   */\n      tag_409\n        /* \"#utility.yul\":9408:9413   */\n      dup2\n        /* \"#utility.yul\":9381:9414   */\n      tag_294\n      jump\t// in\n    tag_409:\n        /* \"#utility.yul\":9281:9420   */\n      swap3\n      swap2\n      pop\n      pop\n      jump\t// out\n        /* \"#utility.yul\":9426:9755   */\n    tag_29:\n        /* \"#utility.yul\":9485:9491   */\n      0x00\n        /* \"#utility.yul\":9534:9536   */\n      0x20\n        /* \"#utility.yul\":9522:9531   */\n      dup3\n        /* \"#utility.yul\":9513:9520   */\n      dup5\n        /* \"#utility.yul\":9509:9532   */\n      sub\n        /* \"#utility.yul\":9505:9537   */\n      slt\n        /* \"#utility.yul\":9502:9621   */\n      iszero\n      tag_411\n      jumpi\n        /* \"#utility.yul\":9540:9619   */\n      tag_412\n      tag_264\n      jump\t// in\n    tag_412:\n        /* \"#utility.yul\":9502:9621   */\n    tag_411:\n        /* \"#utility.yul\":9660:9661   */\n      0x00\n        /* \"#utility.yul\":9685:9738   */\n      tag_413\n        /* \"#utility.yul\":9730:9737   */\n      dup5\n        /* \"#utility.yul\":9721:9727   */\n      dup3\n        /* \"#utility.yul\":9710:9719   */\n      dup6\n        /* \"#utility.yul\":9706:9728   */\n      add\n        /* \"#utility.yul\":9685:9738   */\n      tag_295\n      jump\t// in\n    tag_413:\n        /* \"#utility.yul\":9675:9738   */\n      swap2\n      pop\n        /* \"#utility.yul\":9631:9748   */\n      pop\n        /* \"#utility.yul\":9426:9755   */\n      swap3\n      swap2\n      pop\n      pop\n      jump\t// out\n        /* \"#utility.yul\":9761:9970   */\n    tag_296:\n        /* \"#utility.yul\":9885:9896   */\n      0x00\n        /* \"#utility.yul\":9919:9925   */\n      dup3\n        /* \"#utility.yul\":9914:9917   */\n      dup3\n        /* \"#utility.yul\":9907:9926   */\n      mstore\n        /* \"#utility.yul\":9959:9963   */\n      0x20\n        /* \"#utility.yul\":9954:9957   */\n      dup3\n        /* \"#utility.yul\":9950:9964   */\n      add\n        /* \"#utility.yul\":9935:9964   */\n      swap1\n      pop\n        /* \"#utility.yul\":9761:9970   */\n      swap3\n      swap2\n      pop\n      pop\n      jump\t// out\n        /* \"#utility.yul\":10036:11147   */\n    tag_297:\n        /* \"#utility.yul\":10205:10208   */\n      0x00\n        /* \"#utility.yul\":10234:10313   */\n      tag_416\n        /* \"#utility.yul\":10307:10312   */\n      dup3\n        /* \"#utility.yul\":10234:10313   */\n      tag_270\n      jump\t// in\n    tag_416:\n        /* \"#utility.yul\":10329:10440   */\n      tag_417\n        /* \"#utility.yul\":10433:10439   */\n      dup2\n        /* \"#utility.yul\":10428:10431   */\n      dup6\n        /* \"#utility.yul\":10329:10440   */\n      tag_296\n      jump\t// in\n    tag_417:\n        /* \"#utility.yul\":10322:10440   */\n      swap4\n      pop\n        /* \"#utility.yul\":10466:10469   */\n      dup4\n        /* \"#utility.yul\":10511:10515   */\n      0x20\n        /* \"#utility.yul\":10503:10509   */\n      dup3\n        /* \"#utility.yul\":10499:10516   */\n      mul\n        /* \"#utility.yul\":10494:10497   */\n      dup6\n        /* \"#utility.yul\":10490:10517   */\n      add\n        /* \"#utility.yul\":10541:10622   */\n      tag_418\n        /* \"#utility.yul\":10616:10621   */\n      dup6\n        /* \"#utility.yul\":10541:10622   */\n      tag_272\n      jump\t// in\n    tag_418:\n        /* \"#utility.yul\":10645:10652   */\n      dup1\n        /* \"#utility.yul\":10676:10677   */\n      0x00\n        /* \"#utility.yul\":10661:11102   */\n    tag_419:\n        /* \"#utility.yul\":10686:10692   */\n      dup6\n        /* \"#utility.yul\":10683:10684   */\n      dup2\n        /* \"#utility.yul\":10680:10693   */\n      lt\n        /* \"#utility.yul\":10661:11102   */\n      iszero\n      tag_421\n      jumpi\n        /* \"#utility.yul\":10757:10766   */\n      dup5\n        /* \"#utility.yul\":10751:10755   */\n      dup5\n        /* \"#utility.yul\":10747:10767   */\n      sub\n        /* \"#utility.yul\":10742:10745   */\n      dup10\n        /* \"#utility.yul\":10735:10768   */\n      mstore\n        /* \"#utility.yul\":10808:10814   */\n      dup2\n        /* \"#utility.yul\":10802:10815   */\n      mload\n        /* \"#utility.yul\":10836:10950   */\n      tag_422\n        /* \"#utility.yul\":10945:10949   */\n      dup6\n        /* \"#utility.yul\":10930:10943   */\n      dup3\n        /* \"#utility.yul\":10836:10950   */\n      tag_279\n      jump\t// in\n    tag_422:\n        /* \"#utility.yul\":10828:10950   */\n      swap5\n      pop\n        /* \"#utility.yul\":10973:11058   */\n      tag_423\n        /* \"#utility.yul\":11051:11057   */\n      dup4\n        /* \"#utility.yul\":10973:11058   */\n      tag_280\n      jump\t// in\n    tag_423:\n        /* \"#utility.yul\":10963:11058   */\n      swap3\n      pop\n        /* \"#utility.yul\":11087:11091   */\n      0x20\n        /* \"#utility.yul\":11082:11085   */\n      dup11\n        /* \"#utility.yul\":11078:11092   */\n      add\n        /* \"#utility.yul\":11071:11092   */\n      swap10\n      pop\n        /* \"#utility.yul\":10721:11102   */\n      pop\n        /* \"#utility.yul\":10708:10709   */\n      0x01\n        /* \"#utility.yul\":10705:10706   */\n      dup2\n        /* \"#utility.yul\":10701:10710   */\n      add\n        /* \"#utility.yul\":10696:10710   */\n      swap1\n      pop\n        /* \"#utility.yul\":10661:11102   */\n      jump(tag_419)\n    tag_421:\n        /* \"#utility.yul\":10665:10679   */\n      pop\n        /* \"#utility.yul\":11118:11122   */\n      dup3\n        /* \"#utility.yul\":11111:11122   */\n      swap8\n      pop\n        /* \"#utility.yul\":11138:11141   */\n      dup8\n        /* \"#utility.yul\":11131:11141   */\n      swap6\n      pop\n        /* \"#utility.yul\":10210:11147   */\n      pop\n      pop\n      pop\n      pop\n      pop\n        /* \"#utility.yul\":10036:11147   */\n      swap3\n      swap2\n      pop\n      pop\n      jump\t// out\n        /* \"#utility.yul\":11153:11626   */\n    tag_38:\n        /* \"#utility.yul\":11346:11350   */\n      0x00\n        /* \"#utility.yul\":11384:11386   */\n      0x20\n        /* \"#utility.yul\":11373:11382   */\n      dup3\n        /* \"#utility.yul\":11369:11387   */\n      add\n        /* \"#utility.yul\":11361:11387   */\n      swap1\n      pop\n        /* \"#utility.yul\":11433:11442   */\n      dup2\n        /* \"#utility.yul\":11427:11431   */\n      dup2\n        /* \"#utility.yul\":11423:11443   */\n      sub\n        /* \"#utility.yul\":11419:11420   */\n      0x00\n        /* \"#utility.yul\":11408:11417   */\n      dup4\n        /* \"#utility.yul\":11404:11421   */\n      add\n        /* \"#utility.yul\":11397:11444   */\n      mstore\n        /* \"#utility.yul\":11461:11619   */\n      tag_425\n        /* \"#utility.yul\":11614:11618   */\n      dup2\n        /* \"#utility.yul\":11605:11611   */\n      dup5\n        /* \"#utility.yul\":11461:11619   */\n      tag_297\n      jump\t// in\n    tag_425:\n        /* \"#utility.yul\":11453:11619   */\n      swap1\n      pop\n        /* \"#utility.yul\":11153:11626   */\n      swap3\n      swap2\n      pop\n      pop\n      jump\t// out\n        /* \"#utility.yul\":11632:11750   */\n    tag_298:\n        /* \"#utility.yul\":11719:11743   */\n      tag_427\n        /* \"#utility.yul\":11737:11742   */\n      dup2\n        /* \"#utility.yul\":11719:11743   */\n      tag_293\n      jump\t// in\n    tag_427:\n        /* \"#utility.yul\":11714:11717   */\n      dup3\n        /* \"#utility.yul\":11707:11744   */\n      mstore\n        /* \"#utility.yul\":11632:11750   */\n      pop\n      pop\n      jump\t// out\n        /* \"#utility.yul\":11756:11978   */\n    tag_44:\n        /* \"#utility.yul\":11849:11853   */\n      0x00\n        /* \"#utility.yul\":11887:11889   */\n      0x20\n        /* \"#utility.yul\":11876:11885   */\n      dup3\n        /* \"#utility.yul\":11872:11890   */\n      add\n        /* \"#utility.yul\":11864:11890   */\n      swap1\n      pop\n        /* \"#utility.yul\":11900:11971   */\n      tag_429\n        /* \"#utility.yul\":11968:11969   */\n      0x00\n        /* \"#utility.yul\":11957:11966   */\n      dup4\n        /* \"#utility.yul\":11953:11970   */\n      add\n        /* \"#utility.yul\":11944:11950   */\n      dup5\n        /* \"#utility.yul\":11900:11971   */\n      tag_298\n      jump\t// in\n    tag_429:\n        /* \"#utility.yul\":11756:11978   */\n      swap3\n      swap2\n      pop\n      pop\n      jump\t// out\n        /* \"#utility.yul\":11984:12164   */\n    tag_53:\n        /* \"#utility.yul\":12032:12109   */\n      0x4e487b7100000000000000000000000000000000000000000000000000000000\n        /* \"#utility.yul\":12029:12030   */\n      0x00\n        /* \"#utility.yul\":12022:12110   */\n      mstore\n        /* \"#utility.yul\":12129:12133   */\n      0x21\n        /* \"#utility.yul\":12126:12127   */\n      0x04\n        /* \"#utility.yul\":12119:12134   */\n      mstore\n        /* \"#utility.yul\":12153:12157   */\n      0x24\n        /* \"#utility.yul\":12150:12151   */\n      0x00\n        /* \"#utility.yul\":12143:12158   */\n      revert\n        /* \"#utility.yul\":12170:12293   */\n    tag_299:\n        /* \"#utility.yul\":12261:12262   */\n      0x06\n        /* \"#utility.yul\":12254:12259   */\n      dup2\n        /* \"#utility.yul\":12251:12263   */\n      lt\n        /* \"#utility.yul\":12241:12287   */\n      tag_432\n      jumpi\n        /* \"#utility.yul\":12267:12285   */\n      tag_433\n      tag_53\n      jump\t// in\n    tag_433:\n        /* \"#utility.yul\":12241:12287   */\n    tag_432:\n        /* \"#utility.yul\":12170:12293   */\n      pop\n      jump\t// out\n        /* \"#utility.yul\":12299:12446   */\n    tag_300:\n        /* \"#utility.yul\":12354:12361   */\n      0x00\n        /* \"#utility.yul\":12383:12388   */\n      dup2\n        /* \"#utility.yul\":12372:12388   */\n      swap1\n      pop\n        /* \"#utility.yul\":12389:12440   */\n      tag_435\n        /* \"#utility.yul\":12434:12439   */\n      dup3\n        /* \"#utility.yul\":12389:12440   */\n      tag_299\n      jump\t// in\n    tag_435:\n        /* \"#utility.yul\":12299:12446   */\n      swap2\n      swap1\n      pop\n      jump\t// out\n        /* \"#utility.yul\":12452:12599   */\n    tag_301:\n        /* \"#utility.yul\":12518:12527   */\n      0x00\n        /* \"#utility.yul\":12551:12593   */\n      tag_437\n        /* \"#utility.yul\":12587:12592   */\n      dup3\n        /* \"#utility.yul\":12551:12593   */\n      tag_300\n      jump\t// in\n    tag_437:\n        /* \"#utility.yul\":12538:12593   */\n      swap1\n      pop\n        /* \"#utility.yul\":12452:12599   */\n      swap2\n      swap1\n      pop\n      jump\t// out\n        /* \"#utility.yul\":12605:12768   */\n    tag_302:\n        /* \"#utility.yul\":12708:12761   */\n      tag_439\n        /* \"#utility.yul\":12755:12760   */\n      dup2\n        /* \"#utility.yul\":12708:12761   */\n      tag_301\n      jump\t// in\n    tag_439:\n        /* \"#utility.yul\":12703:12706   */\n      dup3\n        /* \"#utility.yul\":12696:12762   */\n      mstore\n        /* \"#utility.yul\":12605:12768   */\n      pop\n      pop\n      jump\t// out\n        /* \"#utility.yul\":12774:13170   */\n    tag_58:\n        /* \"#utility.yul\":12927:12931   */\n      0x00\n        /* \"#utility.yul\":12965:12967   */\n      0x40\n        /* \"#utility.yul\":12954:12963   */\n      dup3\n        /* \"#utility.yul\":12950:12968   */\n      add\n        /* \"#utility.yul\":12942:12968   */\n      swap1\n      pop\n        /* \"#utility.yul\":12978:13065   */\n      tag_441\n        /* \"#utility.yul\":13062:13063   */\n      0x00\n        /* \"#utility.yul\":13051:13060   */\n      dup4\n        /* \"#utility.yul\":13047:13064   */\n      add\n        /* \"#utility.yul\":13038:13044   */\n      dup6\n        /* \"#utility.yul\":12978:13065   */\n      tag_302\n      jump\t// in\n    tag_441:\n        /* \"#utility.yul\":13075:13163   */\n      tag_442\n        /* \"#utility.yul\":13159:13161   */\n      0x20\n        /* \"#utility.yul\":13148:13157   */\n      dup4\n        /* \"#utility.yul\":13144:13162   */\n      add\n        /* \"#utility.yul\":13135:13141   */\n      dup5\n        /* \"#utility.yul\":13075:13163   */\n      tag_302\n      jump\t// in\n    tag_442:\n        /* \"#utility.yul\":12774:13170   */\n      swap4\n      swap3\n      pop\n      pop\n      pop\n      jump\t// out\n        /* \"#utility.yul\":13176:13356   */\n    tag_63:\n        /* \"#utility.yul\":13224:13301   */\n      0x4e487b7100000000000000000000000000000000000000000000000000000000\n        /* \"#utility.yul\":13221:13222   */\n      0x00\n        /* \"#utility.yul\":13214:13302   */\n      mstore\n        /* \"#utility.yul\":13321:13325   */\n      0x32\n        /* \"#utility.yul\":13318:13319   */\n      0x04\n        /* \"#utility.yul\":13311:13326   */\n      mstore\n        /* \"#utility.yul\":13345:13349   */\n      0x24\n        /* \"#utility.yul\":13342:13343   */\n      0x00\n        /* \"#utility.yul\":13335:13350   */\n      revert\n        /* \"#utility.yul\":13362:13542   */\n    tag_303:\n        /* \"#utility.yul\":13410:13487   */\n      0x4e487b7100000000000000000000000000000000000000000000000000000000\n        /* \"#utility.yul\":13407:13408   */\n      0x00\n        /* \"#utility.yul\":13400:13488   */\n      mstore\n        /* \"#utility.yul\":13507:13511   */\n      0x11\n        /* \"#utility.yul\":13504:13505   */\n      0x04\n        /* \"#utility.yul\":13497:13512   */\n      mstore\n        /* \"#utility.yul\":13531:13535   */\n      0x24\n        /* \"#utility.yul\":13528:13529   */\n      0x00\n        /* \"#utility.yul\":13521:13536   */\n      revert\n        /* \"#utility.yul\":13548:13739   */\n    tag_66:\n        /* \"#utility.yul\":13588:13591   */\n      0x00\n        /* \"#utility.yul\":13607:13627   */\n      tag_446\n        /* \"#utility.yul\":13625:13626   */\n      dup3\n        /* \"#utility.yul\":13607:13627   */\n      tag_266\n      jump\t// in\n    tag_446:\n        /* \"#utility.yul\":13602:13627   */\n      swap2\n      pop\n        /* \"#utility.yul\":13641:13661   */\n      tag_447\n        /* \"#utility.yul\":13659:13660   */\n      dup4\n        /* \"#utility.yul\":13641:13661   */\n      tag_266\n      jump\t// in\n    tag_447:\n        /* \"#utility.yul\":13636:13661   */\n      swap3\n      pop\n        /* \"#utility.yul\":13684:13685   */\n      dup3\n        /* \"#utility.yul\":13681:13682   */\n      dup3\n        /* \"#utility.yul\":13677:13686   */\n      add\n        /* \"#utility.yul\":13670:13686   */\n      swap1\n      pop\n        /* \"#utility.yul\":13705:13708   */\n      dup1\n        /* \"#utility.yul\":13702:13703   */\n      dup3\n        /* \"#utility.yul\":13699:13709   */\n      gt\n        /* \"#utility.yul\":13696:13732   */\n      iszero\n      tag_448\n      jumpi\n        /* \"#utility.yul\":13712:13730   */\n      tag_449\n      tag_303\n      jump\t// in\n    tag_449:\n        /* \"#utility.yul\":13696:13732   */\n    tag_448:\n        /* \"#utility.yul\":13548:13739   */\n      swap3\n      swap2\n      pop\n      pop\n      jump\t// out\n        /* \"#utility.yul\":13745:13863   */\n    tag_304:\n        /* \"#utility.yul\":13832:13856   */\n      tag_451\n        /* \"#utility.yul\":13850:13855   */\n      dup2\n        /* \"#utility.yul\":13832:13856   */\n      tag_266\n      jump\t// in\n    tag_451:\n        /* \"#utility.yul\":13827:13830   */\n      dup3\n        /* \"#utility.yul\":13820:13857   */\n      mstore\n        /* \"#utility.yul\":13745:13863   */\n      pop\n      pop\n      jump\t// out\n        /* \"#utility.yul\":13869:14201   */\n    tag_69:\n        /* \"#utility.yul\":13990:13994   */\n      0x00\n        /* \"#utility.yul\":14028:14030   */\n      0x40\n        /* \"#utility.yul\":14017:14026   */\n      dup3\n        /* \"#utility.yul\":14013:14031   */\n      add\n        /* \"#utility.yul\":14005:14031   */\n      swap1\n      pop\n        /* \"#utility.yul\":14041:14112   */\n      tag_453\n        /* \"#utility.yul\":14109:14110   */\n      0x00\n        /* \"#utility.yul\":14098:14107   */\n      dup4\n        /* \"#utility.yul\":14094:14111   */\n      add\n        /* \"#utility.yul\":14085:14091   */\n      dup6\n        /* \"#utility.yul\":14041:14112   */\n      tag_298\n      jump\t// in\n    tag_453:\n        /* \"#utility.yul\":14122:14194   */\n      tag_454\n        /* \"#utility.yul\":14190:14192   */\n      0x20\n        /* \"#utility.yul\":14179:14188   */\n      dup4\n        /* \"#utility.yul\":14175:14193   */\n      add\n        /* \"#utility.yul\":14166:14172   */\n      dup5\n        /* \"#utility.yul\":14122:14194   */\n      tag_304\n      jump\t// in\n    tag_454:\n        /* \"#utility.yul\":13869:14201   */\n      swap4\n      swap3\n      pop\n      pop\n      pop\n      jump\t// out\n        /* \"#utility.yul\":14207:14387   */\n    tag_305:\n        /* \"#utility.yul\":14255:14332   */\n      0x4e487b7100000000000000000000000000000000000000000000000000000000\n        /* \"#utility.yul\":14252:14253   */\n      0x00\n        /* \"#utility.yul\":14245:14333   */\n      mstore\n        /* \"#utility.yul\":14352:14356   */\n      0x22\n        /* \"#utility.yul\":14349:14350   */\n      0x04\n        /* \"#utility.yul\":14342:14357   */\n      mstore\n        /* \"#utility.yul\":14376:14380   */\n      0x24\n        /* \"#utility.yul\":14373:14374   */\n      0x00\n        /* \"#utility.yul\":14366:14381   */\n      revert\n        /* \"#utility.yul\":14393:14713   */\n    tag_81:\n        /* \"#utility.yul\":14437:14443   */\n      0x00\n        /* \"#utility.yul\":14474:14475   */\n      0x02\n        /* \"#utility.yul\":14468:14472   */\n      dup3\n        /* \"#utility.yul\":14464:14476   */\n      div\n        /* \"#utility.yul\":14454:14476   */\n      swap1\n      pop\n        /* \"#utility.yul\":14521:14522   */\n      0x01\n        /* \"#utility.yul\":14515:14519   */\n      dup3\n        /* \"#utility.yul\":14511:14523   */\n      and\n        /* \"#utility.yul\":14542:14560   */\n      dup1\n        /* \"#utility.yul\":14532:14613   */\n      tag_457\n      jumpi\n        /* \"#utility.yul\":14598:14602   */\n      0x7f\n        /* \"#utility.yul\":14590:14596   */\n      dup3\n        /* \"#utility.yul\":14586:14603   */\n      and\n        /* \"#utility.yul\":14576:14603   */\n      swap2\n      pop\n        /* \"#utility.yul\":14532:14613   */\n    tag_457:\n        /* \"#utility.yul\":14660:14662   */\n      0x20\n        /* \"#utility.yul\":14652:14658   */\n      dup3\n        /* \"#utility.yul\":14649:14663   */\n      lt\n        /* \"#utility.yul\":14629:14647   */\n      dup2\n        /* \"#utility.yul\":14626:14664   */\n      sub\n        /* \"#utility.yul\":14623:14707   */\n      tag_458\n      jumpi\n        /* \"#utility.yul\":14679:14697   */\n      tag_459\n      tag_305\n      jump\t// in\n    tag_459:\n        /* \"#utility.yul\":14623:14707   */\n    tag_458:\n        /* \"#utility.yul\":14444:14713   */\n      pop\n        /* \"#utility.yul\":14393:14713   */\n      swap2\n      swap1\n      pop\n      jump\t// out\n        /* \"#utility.yul\":14719:14860   */\n    tag_306:\n        /* \"#utility.yul\":14768:14772   */\n      0x00\n        /* \"#utility.yul\":14791:14794   */\n      dup2\n        /* \"#utility.yul\":14783:14794   */\n      swap1\n      pop\n        /* \"#utility.yul\":14814:14817   */\n      dup2\n        /* \"#utility.yul\":14811:14812   */\n      0x00\n        /* \"#utility.yul\":14804:14818   */\n      mstore\n        /* \"#utility.yul\":14848:14852   */\n      0x20\n        /* \"#utility.yul\":14845:14846   */\n      0x00\n        /* \"#utility.yul\":14835:14853   */\n      keccak256\n        /* \"#utility.yul\":14827:14853   */\n      swap1\n      pop\n        /* \"#utility.yul\":14719:14860   */\n      swap2\n      swap1\n      pop\n      jump\t// out\n        /* \"#utility.yul\":14866:14959   */\n    tag_307:\n        /* \"#utility.yul\":14903:14909   */\n      0x00\n        /* \"#utility.yul\":14950:14952   */\n      0x20\n        /* \"#utility.yul\":14945:14947   */\n      0x1f\n        /* \"#utility.yul\":14938:14943   */\n      dup4\n        /* \"#utility.yul\":14934:14948   */\n      add\n        /* \"#utility.yul\":14930:14953   */\n      div\n        /* \"#utility.yul\":14920:14953   */\n      swap1\n      pop\n        /* \"#utility.yul\":14866:14959   */\n      swap2\n      swap1\n      pop\n      jump\t// out\n        /* \"#utility.yul\":14965:15072   */\n    tag_308:\n        /* \"#utility.yul\":15009:15017   */\n      0x00\n        /* \"#utility.yul\":15059:15064   */\n      dup3\n        /* \"#utility.yul\":15053:15057   */\n      dup3\n        /* \"#utility.yul\":15049:15065   */\n      shl\n        /* \"#utility.yul\":15028:15065   */\n      swap1\n      pop\n        /* \"#utility.yul\":14965:15072   */\n      swap3\n      swap2\n      pop\n      pop\n      jump\t// out\n        /* \"#utility.yul\":15078:15471   */\n    tag_309:\n        /* \"#utility.yul\":15147:15153   */\n      0x00\n        /* \"#utility.yul\":15197:15198   */\n      0x08\n        /* \"#utility.yul\":15185:15195   */\n      dup4\n        /* \"#utility.yul\":15181:15199   */\n      mul\n        /* \"#utility.yul\":15220:15317   */\n      tag_464\n        /* \"#utility.yul\":15250:15316   */\n      0xffffffffffffffffffffffffffffffffffffffffffffffffffffffffffffffff\n        /* \"#utility.yul\":15239:15248   */\n      dup3\n        /* \"#utility.yul\":15220:15317   */\n      tag_308\n      jump\t// in\n    tag_464:\n        /* \"#utility.yul\":15338:15377   */\n      tag_465\n        /* \"#utility.yul\":15368:15376   */\n      dup7\n        /* \"#utility.yul\":15357:15366   */\n      dup4\n        /* \"#utility.yul\":15338:15377   */\n      tag_308\n      jump\t// in\n    tag_465:\n        /* \"#utility.yul\":15326:15377   */\n      swap6\n      pop\n        /* \"#utility.yul\":15410:15414   */\n      dup1\n        /* \"#utility.yul\":15406:15415   */\n      not\n        /* \"#utility.yul\":15399:15404   */\n      dup5\n        /* \"#utility.yul\":15395:15416   */\n      and\n        /* \"#utility.yul\":15386:15416   */\n      swap4\n      pop\n        /* \"#utility.yul\":15459:15463   */\n      dup1\n        /* \"#utility.yul\":15449:15457   */\n      dup7\n        /* \"#utility.yul\":15445:15464   */\n      and\n        /* \"#utility.yul\":15438:15443   */\n      dup5\n        /* \"#utility.yul\":15435:15465   */\n      or\n        /* \"#utility.yul\":15425:15465   */\n      swap3\n      pop\n        /* \"#utility.yul\":15154:15471   */\n      pop\n      pop\n        /* \"#utility.yul\":15078:15471   */\n      swap4\n      swap3\n      pop\n      pop\n      pop\n      jump\t// out\n        /* \"#utility.yul\":15477:15537   */\n    tag_310:\n        /* \"#utility.yul\":15505:15508   */\n      0x00\n        /* \"#utility.yul\":15526:15531   */\n      dup2\n        /* \"#utility.yul\":15519:15531   */\n      swap1\n      pop\n        /* \"#utility.yul\":15477:15537   */\n      swap2\n      swap1\n      pop\n      jump\t// out\n        /* \"#utility.yul\":15543:15685   */\n    tag_311:\n        /* \"#utility.yul\":15593:15602   */\n      0x00\n        /* \"#utility.yul\":15626:15679   */\n      tag_468\n        /* \"#utility.yul\":15644:15678   */\n      tag_469\n        /* \"#utility.yul\":15653:15677   */\n      tag_470\n        /* \"#utility.yul\":15671:15676   */\n      dup5\n        /* \"#utility.yul\":15653:15677   */\n      tag_266\n      jump\t// in\n    tag_470:\n        /* \"#utility.yul\":15644:15678   */\n      tag_310\n      jump\t// in\n    tag_469:\n        /* \"#utility.yul\":15626:15679   */\n      tag_266\n      jump\t// in\n    tag_468:\n        /* \"#utility.yul\":15613:15679   */\n      swap1\n      pop\n        /* \"#utility.yul\":15543:15685   */\n      swap2\n      swap1\n      pop\n      jump\t// out\n        /* \"#utility.yul\":15691:15766   */\n    tag_312:\n        /* \"#utility.yul\":15734:15737   */\n      0x00\n        /* \"#utility.yul\":15755:15760   */\n      dup2\n        /* \"#utility.yul\":15748:15760   */\n      swap1\n      pop\n        /* \"#utility.yul\":15691:15766   */\n      swap2\n      swap1\n      pop\n      jump\t// out\n        /* \"#utility.yul\":15772:16041   */\n    tag_313:\n        /* \"#utility.yul\":15882:15921   */\n      tag_473\n        /* \"#utility.yul\":15913:15920   */\n      dup4\n        /* \"#utility.yul\":15882:15921   */\n      tag_311\n      jump\t// in\n    tag_473:\n        /* \"#utility.yul\":15943:16034   */\n      tag_474\n        /* \"#utility.yul\":15992:16033   */\n      tag_475\n        /* \"#utility.yul\":16016:16032   */\n      dup3\n        /* \"#utility.yul\":15992:16033   */\n      tag_312\n      jump\t// in\n    tag_475:\n        /* \"#utility.yul\":15984:15990   */\n      dup5\n        /* \"#utility.yul\":15977:15981   */\n      dup5\n        /* \"#utility.yul\":15971:15982   */\n      sload\n        /* \"#utility.yul\":15943:16034   */\n      tag_309\n      jump\t// in\n    tag_474:\n        /* \"#utility.yul\":15937:15941   */\n      dup3\n        /* \"#utility.yul\":15930:16035   */\n      sstore\n        /* \"#utility.yul\":15848:16041   */\n      pop\n        /* \"#utility.yul\":15772:16041   */\n      pop\n      pop\n      pop\n      jump\t// out\n        /* \"#utility.yul\":16047:16120   */\n    tag_314:\n        /* \"#utility.yul\":16092:16095   */\n      0x00\n        /* \"#utility.yul\":16113:16114   */\n      0x00\n        /* \"#utility.yul\":16106:16114   */\n      swap1\n      pop\n        /* \"#utility.yul\":16047:16120   */\n      swap1\n      jump\t// out\n        /* \"#utility.yul\":16126:16315   */\n    tag_315:\n        /* \"#utility.yul\":16203:16235   */\n      tag_478\n      tag_314\n      jump\t// in\n    tag_478:\n        /* \"#utility.yul\":16244:16309   */\n      tag_479\n        /* \"#utility.yul\":16302:16308   */\n      dup2\n        /* \"#utility.yul\":16294:16300   */\n      dup5\n        /* \"#utility.yul\":16288:16292   */\n      dup5\n        /* \"#utility.yul\":16244:16309   */\n      tag_313\n      jump\t// in\n    tag_479:\n        /* \"#utility.yul\":16179:16315   */\n      pop\n        /* \"#utility.yul\":16126:16315   */\n      pop\n      pop\n      jump\t// out\n        /* \"#utility.yul\":16321:16507   */\n    tag_316:\n        /* \"#utility.yul\":16381:16501   */\n    tag_481:\n        /* \"#utility.yul\":16398:16401   */\n      dup2\n        /* \"#utility.yul\":16391:16396   */\n      dup2\n        /* \"#utility.yul\":16388:16402   */\n      lt\n        /* \"#utility.yul\":16381:16501   */\n      iszero\n      tag_483\n      jumpi\n        /* \"#utility.yul\":16452:16491   */\n      tag_484\n        /* \"#utility.yul\":16489:16490   */\n      0x00\n        /* \"#utility.yul\":16482:16487   */\n      dup3\n        /* \"#utility.yul\":16452:16491   */\n      tag_315\n      jump\t// in\n    tag_484:\n        /* \"#utility.yul\":16425:16426   */\n      0x01\n        /* \"#utility.yul\":16418:16423   */\n      dup2\n        /* \"#utility.yul\":16414:16427   */\n      add\n        /* \"#utility.yul\":16405:16427   */\n      swap1\n      pop\n        /* \"#utility.yul\":16381:16501   */\n      jump(tag_481)\n    tag_483:\n        /* \"#utility.yul\":16321:16507   */\n      pop\n      pop\n      jump\t// out\n        /* \"#utility.yul\":16513:17056   */\n    tag_317:\n        /* \"#utility.yul\":16614:16616   */\n      0x1f\n        /* \"#utility.yul\":16609:16612   */\n      dup3\n        /* \"#utility.yul\":16606:16617   */\n      gt\n        /* \"#utility.yul\":16603:17049   */\n      iszero\n      tag_486\n      jumpi\n        /* \"#utility.yul\":16648:16686   */\n      tag_487\n        /* \"#utility.yul\":16680:16685   */\n      dup2\n        /* \"#utility.yul\":16648:16686   */\n      tag_306\n      jump\t// in\n    tag_487:\n        /* \"#utility.yul\":16732:16761   */\n      tag_488\n        /* \"#utility.yul\":16750:16760   */\n      dup5\n        /* \"#utility.yul\":16732:16761   */\n      tag_307\n      jump\t// in\n    tag_488:\n        /* \"#utility.yul\":16722:16730   */\n      dup2\n        /* \"#utility.yul\":16718:16762   */\n      add\n        /* \"#utility.yul\":16915:16917   */\n      0x20\n        /* \"#utility.yul\":16903:16913   */\n      dup6\n        /* \"#utility.yul\":16900:16918   */\n      lt\n        /* \"#utility.yul\":16897:16946   */\n      iszero\n      tag_489\n      jumpi\n        /* \"#utility.yul\":16936:16944   */\n      dup2\n        /* \"#utility.yul\":16921:16944   */\n      swap1\n      pop\n        /* \"#utility.yul\":16897:16946   */\n    tag_489:\n        /* \"#utility.yul\":16959:17039   */\n      tag_490\n        /* \"#utility.yul\":17015:17037   */\n      tag_491\n        /* \"#utility.yul\":17033:17036   */\n      dup6\n        /* \"#utility.yul\":17015:17037   */\n      tag_307\n      jump\t// in\n    tag_491:\n        /* \"#utility.yul\":17005:17013   */\n      dup4\n        /* \"#utility.yul\":17001:17038   */\n      add\n        /* \"#utility.yul\":16988:16999   */\n      dup3\n        /* \"#utility.yul\":16959:17039   */\n      tag_316\n      jump\t// in\n    tag_490:\n        /* \"#utility.yul\":16618:17049   */\n      pop\n      pop\n        /* \"#utility.yul\":16603:17049   */\n    tag_486:\n        /* \"#utility.yul\":16513:17056   */\n      pop\n      pop\n      pop\n      jump\t// out\n        /* \"#utility.yul\":17062:17179   */\n    tag_318:\n        /* \"#utility.yul\":17116:17124   */\n      0x00\n        /* \"#utility.yul\":17166:17171   */\n      dup3\n        /* \"#utility.yul\":17160:17164   */\n      dup3\n        /* \"#utility.yul\":17156:17172   */\n      shr\n        /* \"#utility.yul\":17135:17172   */\n      swap1\n      pop\n        /* \"#utility.yul\":17062:17179   */\n      swap3\n      swap2\n      pop\n      pop\n      jump\t// out\n        /* \"#utility.yul\":17185:17354   */\n    tag_319:\n        /* \"#utility.yul\":17229:17235   */\n      0x00\n        /* \"#utility.yul\":17262:17313   */\n      tag_494\n        /* \"#utility.yul\":17310:17311   */\n      0x00\n        /* \"#utility.yul\":17306:17312   */\n      not\n        /* \"#utility.yul\":17298:17303   */\n      dup5\n        /* \"#utility.yul\":17295:17296   */\n      0x08\n        /* \"#utility.yul\":17291:17304   */\n      mul\n        /* \"#utility.yul\":17262:17313   */\n      tag_318\n      jump\t// in\n    tag_494:\n        /* \"#utility.yul\":17258:17314   */\n      not\n        /* \"#utility.yul\":17343:17347   */\n      dup1\n        /* \"#utility.yul\":17337:17341   */\n      dup4\n        /* \"#utility.yul\":17333:17348   */\n      and\n        /* \"#utility.yul\":17323:17348   */\n      swap2\n      pop\n        /* \"#utility.yul\":17236:17354   */\n      pop\n        /* \"#utility.yul\":17185:17354   */\n      swap3\n      swap2\n      pop\n      pop\n      jump\t// out\n        /* \"#utility.yul\":17359:17654   */\n    tag_320:\n        /* \"#utility.yul\":17435:17439   */\n      0x00\n        /* \"#utility.yul\":17581:17610   */\n      tag_496\n        /* \"#utility.yul\":17606:17609   */\n      dup4\n        /* \"#utility.yul\":17600:17604   */\n      dup4\n        /* \"#utility.yul\":17581:17610   */\n      tag_319\n      jump\t// in\n    tag_496:\n        /* \"#utility.yul\":17573:17610   */\n      swap2\n      pop\n        /* \"#utility.yul\":17643:17646   */\n      dup3\n        /* \"#utility.yul\":17640:17641   */\n      0x02\n        /* \"#utility.yul\":17636:17647   */\n      mul\n        /* \"#utility.yul\":17630:17634   */\n      dup3\n        /* \"#utility.yul\":17627:17648   */\n      or\n        /* \"#utility.yul\":17619:17648   */\n      swap1\n      pop\n        /* \"#utility.yul\":17359:17654   */\n      swap3\n      swap2\n      pop\n      pop\n      jump\t// out\n        /* \"#utility.yul\":17659:19054   */\n    tag_105:\n        /* \"#utility.yul\":17776:17813   */\n      tag_498\n        /* \"#utility.yul\":17809:17812   */\n      dup3\n        /* \"#utility.yul\":17776:17813   */\n      tag_273\n      jump\t// in\n    tag_498:\n        /* \"#utility.yul\":17878:17896   */\n      0xffffffffffffffff\n        /* \"#utility.yul\":17870:17876   */\n      dup2\n        /* \"#utility.yul\":17867:17897   */\n      gt\n        /* \"#utility.yul\":17864:17920   */\n      iszero\n      tag_499\n      jumpi\n        /* \"#utility.yul\":17900:17918   */\n      tag_500\n      tag_285\n      jump\t// in\n    tag_500:\n        /* \"#utility.yul\":17864:17920   */\n    tag_499:\n        /* \"#utility.yul\":17944:17982   */\n      tag_501\n        /* \"#utility.yul\":17976:17980   */\n      dup3\n        /* \"#utility.yul\":17970:17981   */\n      sload\n        /* \"#utility.yul\":17944:17982   */\n      tag_81\n      jump\t// in\n    tag_501:\n        /* \"#utility.yul\":18029:18096   */\n      tag_502\n        /* \"#utility.yul\":18089:18095   */\n      dup3\n        /* \"#utility.yul\":18081:18087   */\n      dup3\n        /* \"#utility.yul\":18075:18079   */\n      dup6\n        /* \"#utility.yul\":18029:18096   */\n      tag_317\n      jump\t// in\n    tag_502:\n        /* \"#utility.yul\":18123:18124   */\n      0x00\n        /* \"#utility.yul\":18147:18151   */\n      0x20\n        /* \"#utility.yul\":18134:18151   */\n      swap1\n      pop\n        /* \"#utility.yul\":18179:18181   */\n      0x1f\n        /* \"#utility.yul\":18171:18177   */\n      dup4\n        /* \"#utility.yul\":18168:18182   */\n      gt\n        /* \"#utility.yul\":18196:18197   */\n      0x01\n        /* \"#utility.yul\":18191:18809   */\n      dup2\n      eq\n      tag_504\n      jumpi\n        /* \"#utility.yul\":18853:18854   */\n      0x00\n        /* \"#utility.yul\":18870:18876   */\n      dup5\n        /* \"#utility.yul\":18867:18944   */\n      iszero\n      tag_505\n      jumpi\n        /* \"#utility.yul\":18919:18928   */\n      dup3\n        /* \"#utility.yul\":18914:18917   */\n      dup8\n        /* \"#utility.yul\":18910:18929   */\n      add\n        /* \"#utility.yul\":18904:18930   */\n      mload\n        /* \"#utility.yul\":18895:18930   */\n      swap1\n      pop\n        /* \"#utility.yul\":18867:18944   */\n    tag_505:\n        /* \"#utility.yul\":18970:19037   */\n      tag_506\n        /* \"#utility.yul\":19030:19036   */\n      dup6\n        /* \"#utility.yul\":19023:19028   */\n      dup3\n        /* \"#utility.yul\":18970:19037   */\n      tag_320\n      jump\t// in\n    tag_506:\n        /* \"#utility.yul\":18964:18968   */\n      dup7\n        /* \"#utility.yul\":18957:19038   */\n      sstore\n        /* \"#utility.yul\":18826:19048   */\n      pop\n        /* \"#utility.yul\":18161:19048   */\n      jump(tag_503)\n        /* \"#utility.yul\":18191:18809   */\n    tag_504:\n        /* \"#utility.yul\":18243:18247   */\n      0x1f\n        /* \"#utility.yul\":18239:18248   */\n      not\n        /* \"#utility.yul\":18231:18237   */\n      dup5\n        /* \"#utility.yul\":18227:18249   */\n      and\n        /* \"#utility.yul\":18277:18314   */\n      tag_507\n        /* \"#utility.yul\":18309:18313   */\n      dup7\n        /* \"#utility.yul\":18277:18314   */\n      tag_306\n      jump\t// in\n    tag_507:\n        /* \"#utility.yul\":18336:18337   */\n      0x00\n        /* \"#utility.yul\":18350:18558   */\n    tag_508:\n        /* \"#utility.yul\":18364:18371   */\n      dup3\n        /* \"#utility.yul\":18361:18362   */\n      dup2\n        /* \"#utility.yul\":18358:18372   */\n      lt\n        /* \"#utility.yul\":18350:18558   */\n      iszero\n      tag_510\n      jumpi\n        /* \"#utility.yul\":18443:18452   */\n      dup5\n        /* \"#utility.yul\":18438:18441   */\n      dup10\n        /* \"#utility.yul\":18434:18453   */\n      add\n        /* \"#utility.yul\":18428:18454   */\n      mload\n        /* \"#utility.yul\":18420:18426   */\n      dup3\n        /* \"#utility.yul\":18413:18455   */\n      sstore\n        /* \"#utility.yul\":18494:18495   */\n      0x01\n        /* \"#utility.yul\":18486:18492   */\n      dup3\n        /* \"#utility.yul\":18482:18496   */\n      add\n        /* \"#utility.yul\":18472:18496   */\n      swap2\n      pop\n        /* \"#utility.yul\":18541:18543   */\n      0x20\n        /* \"#utility.yul\":18530:18539   */\n      dup6\n        /* \"#utility.yul\":18526:18544   */\n      add\n        /* \"#utility.yul\":18513:18544   */\n      swap5\n      pop\n        /* \"#utility.yul\":18387:18391   */\n      0x20\n        /* \"#utility.yul\":18384:18385   */\n      dup2\n        /* \"#utility.yul\":18380:18392   */\n      add\n        /* \"#utility.yul\":18375:18392   */\n      swap1\n      pop\n        /* \"#utility.yul\":18350:18558   */\n      jump(tag_508)\n    tag_510:\n        /* \"#utility.yul\":18586:18592   */\n      dup7\n        /* \"#utility.yul\":18577:18584   */\n      dup4\n        /* \"#utility.yul\":18574:18593   */\n      lt\n        /* \"#utility.yul\":18571:18750   */\n      iszero\n      tag_511\n      jumpi\n        /* \"#utility.yul\":18644:18653   */\n      dup5\n        /* \"#utility.yul\":18639:18642   */\n      dup10\n        /* \"#utility.yul\":18635:18654   */\n      add\n        /* \"#utility.yul\":18629:18655   */\n      mload\n        /* \"#utility.yul\":18687:18735   */\n      tag_512\n        /* \"#utility.yul\":18729:18733   */\n      0x1f\n        /* \"#utility.yul\":18721:18727   */\n      dup10\n        /* \"#utility.yul\":18717:18734   */\n      and\n        /* \"#utility.yul\":18706:18715   */\n      dup3\n        /* \"#utility.yul\":18687:18735   */\n      tag_319\n      jump\t// in\n    tag_512:\n        /* \"#utility.yul\":18679:18685   */\n      dup4\n        /* \"#utility.yul\":18672:18736   */\n      sstore\n        /* \"#utility.yul\":18594:18750   */\n      pop\n        /* \"#utility.yul\":18571:18750   */\n    tag_511:\n        /* \"#utility.yul\":18796:18797   */\n      0x01\n        /* \"#utility.yul\":18792:18793   */\n      0x02\n        /* \"#utility.yul\":18784:18790   */\n      dup9\n        /* \"#utility.yul\":18780:18794   */\n      mul\n        /* \"#utility.yul\":18776:18798   */\n      add\n        /* \"#utility.yul\":18770:18774   */\n      dup9\n        /* \"#utility.yul\":18763:18799   */\n      sstore\n        /* \"#utility.yul\":18198:18809   */\n      pop\n      pop\n      pop\n        /* \"#utility.yul\":18161:19048   */\n    tag_503:\n      pop\n        /* \"#utility.yul\":17751:19054   */\n      pop\n      pop\n      pop\n        /* \"#utility.yul\":17659:19054   */\n      pop\n      pop\n      jump\t// out\n        /* \"#utility.yul\":19060:19254   */\n    tag_107:\n        /* \"#utility.yul\":19100:19104   */\n      0x00\n        /* \"#utility.yul\":19120:19140   */\n      tag_514\n        /* \"#utility.yul\":19138:19139   */\n      dup3\n        /* \"#utility.yul\":19120:19140   */\n      tag_266\n      jump\t// in\n    tag_514:\n        /* \"#utility.yul\":19115:19140   */\n      swap2\n      pop\n        /* \"#utility.yul\":19154:19174   */\n      tag_515\n        /* \"#utility.yul\":19172:19173   */\n      dup4\n        /* \"#utility.yul\":19154:19174   */\n      tag_266\n      jump\t// in\n    tag_515:\n        /* \"#utility.yul\":19149:19174   */\n      swap3\n      pop\n        /* \"#utility.yul\":19198:19199   */\n      dup3\n        /* \"#utility.yul\":19195:19196   */\n      dup3\n        /* \"#utility.yul\":19191:19200   */\n      sub\n        /* \"#utility.yul\":19183:19200   */\n      swap1\n      pop\n        /* \"#utility.yul\":19222:19223   */\n      dup2\n        /* \"#utility.yul\":19216:19220   */\n      dup2\n        /* \"#utility.yul\":19213:19224   */\n      gt\n        /* \"#utility.yul\":19210:19247   */\n      iszero\n      tag_516\n      jumpi\n        /* \"#utility.yul\":19227:19245   */\n      tag_517\n      tag_303\n      jump\t// in\n    tag_517:\n        /* \"#utility.yul\":19210:19247   */\n    tag_516:\n        /* \"#utility.yul\":19060:19254   */\n      swap3\n      swap2\n      pop\n      pop\n      jump\t// out\n        /* \"#utility.yul\":19260:19482   */\n    tag_109:\n        /* \"#utility.yul\":19353:19357   */\n      0x00\n        /* \"#utility.yul\":19391:19393   */\n      0x20\n        /* \"#utility.yul\":19380:19389   */\n      dup3\n        /* \"#utility.yul\":19376:19394   */\n      add\n        /* \"#utility.yul\":19368:19394   */\n      swap1\n      pop\n        /* \"#utility.yul\":19404:19475   */\n      tag_519\n        /* \"#utility.yul\":19472:19473   */\n      0x00\n        /* \"#utility.yul\":19461:19470   */\n      dup4\n        /* \"#utility.yul\":19457:19474   */\n      add\n        /* \"#utility.yul\":19448:19454   */\n      dup5\n        /* \"#utility.yul\":19404:19475   */\n      tag_304\n      jump\t// in\n    tag_519:\n        /* \"#utility.yul\":19260:19482   */\n      swap3\n      swap2\n      pop\n      pop\n      jump\t// out\n        /* \"#utility.yul\":19488:19637   */\n    tag_321:\n        /* \"#utility.yul\":19537:19543   */\n      0x00\n        /* \"#utility.yul\":19571:19576   */\n      dup2\n        /* \"#utility.yul\":19565:19577   */\n      sload\n        /* \"#utility.yul\":19555:19577   */\n      swap1\n      pop\n        /* \"#utility.yul\":19597:19630   */\n      tag_521\n        /* \"#utility.yul\":19623:19629   */\n      dup2\n        /* \"#utility.yul\":19597:19630   */\n      tag_81\n      jump\t// in\n    tag_521:\n        /* \"#utility.yul\":19587:19630   */\n      swap1\n      pop\n        /* \"#utility.yul\":19488:19637   */\n      swap2\n      swap1\n      pop\n      jump\t// out\n        /* \"#utility.yul\":19643:21094   */\n    tag_190:\n        /* \"#utility.yul\":19754:19757   */\n      dup2\n        /* \"#utility.yul\":19748:19752   */\n      dup2\n        /* \"#utility.yul\":19745:19758   */\n      sub\n        /* \"#utility.yul\":19742:19768   */\n      tag_523\n      jumpi\n        /* \"#utility.yul\":19761:19766   */\n      pop\n      pop\n      jump(tag_522)\n        /* \"#utility.yul\":19742:19768   */\n    tag_523:\n        /* \"#utility.yul\":19792:19826   */\n      tag_524\n        /* \"#utility.yul\":19822:19825   */\n      dup3\n        /* \"#utility.yul\":19792:19826   */\n      tag_321\n      jump\t// in\n    tag_524:\n        /* \"#utility.yul\":19891:19909   */\n      0xffffffffffffffff\n        /* \"#utility.yul\":19883:19889   */\n      dup2\n        /* \"#utility.yul\":19880:19910   */\n      gt\n        /* \"#utility.yul\":19877:19933   */\n      iszero\n      tag_525\n      jumpi\n        /* \"#utility.yul\":19913:19931   */\n      tag_526\n      tag_285\n      jump\t// in\n    tag_526:\n        /* \"#utility.yul\":19877:19933   */\n    tag_525:\n        /* \"#utility.yul\":19957:19995   */\n      tag_527\n        /* \"#utility.yul\":19989:19993   */\n      dup3\n        /* \"#utility.yul\":19983:19994   */\n      sload\n        /* \"#utility.yul\":19957:19995   */\n      tag_81\n      jump\t// in\n    tag_527:\n        /* \"#utility.yul\":20042:20109   */\n      tag_528\n        /* \"#utility.yul\":20102:20108   */\n      dup3\n        /* \"#utility.yul\":20094:20100   */\n      dup3\n        /* \"#utility.yul\":20088:20092   */\n      dup6\n        /* \"#utility.yul\":20042:20109   */\n      tag_317\n      jump\t// in\n    tag_528:\n        /* \"#utility.yul\":20136:20137   */\n      0x00\n        /* \"#utility.yul\":20165:20167   */\n      0x1f\n        /* \"#utility.yul\":20157:20163   */\n      dup4\n        /* \"#utility.yul\":20154:20168   */\n      gt\n        /* \"#utility.yul\":20182:20183   */\n      0x01\n        /* \"#utility.yul\":20177:20849   */\n      dup2\n      eq\n      tag_530\n      jumpi\n        /* \"#utility.yul\":20893:20894   */\n      0x00\n        /* \"#utility.yul\":20910:20916   */\n      dup5\n        /* \"#utility.yul\":20907:20984   */\n      iszero\n      tag_531\n      jumpi\n        /* \"#utility.yul\":20959:20968   */\n      dup3\n        /* \"#utility.yul\":20954:20957   */\n      dup8\n        /* \"#utility.yul\":20950:20969   */\n      add\n        /* \"#utility.yul\":20944:20970   */\n      sload\n        /* \"#utility.yul\":20935:20970   */\n      swap1\n      pop\n        /* \"#utility.yul\":20907:20984   */\n    tag_531:\n        /* \"#utility.yul\":21010:21077   */\n      tag_532\n        /* \"#utility.yul\":21070:21076   */\n      dup6\n        /* \"#utility.yul\":21063:21068   */\n      dup3\n        /* \"#utility.yul\":21010:21077   */\n      tag_320\n      jump\t// in\n    tag_532:\n        /* \"#utility.yul\":21004:21008   */\n      dup7\n        /* \"#utility.yul\":20997:21078   */\n      sstore\n        /* \"#utility.yul\":20866:21088   */\n      pop\n        /* \"#utility.yul\":20147:21088   */\n      jump(tag_529)\n        /* \"#utility.yul\":20177:20849   */\n    tag_530:\n        /* \"#utility.yul\":20229:20233   */\n      0x1f\n        /* \"#utility.yul\":20225:20234   */\n      not\n        /* \"#utility.yul\":20217:20223   */\n      dup5\n        /* \"#utility.yul\":20213:20235   */\n      and\n        /* \"#utility.yul\":20255:20291   */\n      tag_533\n        /* \"#utility.yul\":20287:20290   */\n      dup8\n        /* \"#utility.yul\":20255:20291   */\n      tag_306\n      jump\t// in\n    tag_533:\n        /* \"#utility.yul\":20248:20291   */\n      swap7\n      pop\n        /* \"#utility.yul\":20318:20355   */\n      tag_534\n        /* \"#utility.yul\":20350:20354   */\n      dup7\n        /* \"#utility.yul\":20318:20355   */\n      tag_306\n      jump\t// in\n    tag_534:\n        /* \"#utility.yul\":20377:20378   */\n      0x00\n        /* \"#utility.yul\":20391:20598   */\n    tag_535:\n        /* \"#utility.yul\":20405:20412   */\n      dup3\n        /* \"#utility.yul\":20402:20403   */\n      dup2\n        /* \"#utility.yul\":20399:20413   */\n      lt\n        /* \"#utility.yul\":20391:20598   */\n      iszero\n      tag_537\n      jumpi\n        /* \"#utility.yul\":20484:20493   */\n      dup5\n        /* \"#utility.yul\":20479:20482   */\n      dup10\n        /* \"#utility.yul\":20475:20494   */\n      add\n        /* \"#utility.yul\":20469:20495   */\n      sload\n        /* \"#utility.yul\":20461:20467   */\n      dup3\n        /* \"#utility.yul\":20454:20496   */\n      sstore\n        /* \"#utility.yul\":20535:20536   */\n      0x01\n        /* \"#utility.yul\":20527:20533   */\n      dup3\n        /* \"#utility.yul\":20523:20537   */\n      add\n        /* \"#utility.yul\":20513:20537   */\n      swap2\n      pop\n        /* \"#utility.yul\":20582:20583   */\n      0x01\n        /* \"#utility.yul\":20571:20580   */\n      dup6\n        /* \"#utility.yul\":20567:20584   */\n      add\n        /* \"#utility.yul\":20554:20584   */\n      swap5\n      pop\n        /* \"#utility.yul\":20428:20432   */\n      0x20\n        /* \"#utility.yul\":20425:20426   */\n      dup2\n        /* \"#utility.yul\":20421:20433   */\n      add\n        /* \"#utility.yul\":20416:20433   */\n      swap1\n      pop\n        /* \"#utility.yul\":20391:20598   */\n      jump(tag_535)\n    tag_537:\n        /* \"#utility.yul\":20626:20632   */\n      dup7\n        /* \"#utility.yul\":20617:20624   */\n      dup4\n        /* \"#utility.yul\":20614:20633   */\n      lt\n        /* \"#utility.yul\":20611:20790   */\n      iszero\n      tag_538\n      jumpi\n        /* \"#utility.yul\":20684:20693   */\n      dup5\n        /* \"#utility.yul\":20679:20682   */\n      dup10\n        /* \"#utility.yul\":20675:20694   */\n      add\n        /* \"#utility.yul\":20669:20695   */\n      sload\n        /* \"#utility.yul\":20727:20775   */\n      tag_539\n        /* \"#utility.yul\":20769:20773   */\n      0x1f\n        /* \"#utility.yul\":20761:20767   */\n      dup10\n        /* \"#utility.yul\":20757:20774   */\n      and\n        /* \"#utility.yul\":20746:20755   */\n      dup3\n        /* \"#utility.yul\":20727:20775   */\n      tag_319\n      jump\t// in\n    tag_539:\n        /* \"#utility.yul\":20719:20725   */\n      dup4\n        /* \"#utility.yul\":20712:20776   */\n      sstore\n        /* \"#utility.yul\":20634:20790   */\n      pop\n        /* \"#utility.yul\":20611:20790   */\n    tag_538:\n        /* \"#utility.yul\":20836:20837   */\n      0x01\n        /* \"#utility.yul\":20832:20833   */\n      0x02\n        /* \"#utility.yul\":20824:20830   */\n      dup9\n        /* \"#utility.yul\":20820:20834   */\n      mul\n        /* \"#utility.yul\":20816:20838   */\n      add\n        /* \"#utility.yul\":20810:20814   */\n      dup9\n        /* \"#utility.yul\":20803:20839   */\n      sstore\n        /* \"#utility.yul\":20184:20849   */\n      pop\n      pop\n      pop\n        /* \"#utility.yul\":20147:21088   */\n    tag_529:\n      pop\n        /* \"#utility.yul\":19732:21094   */\n      pop\n      pop\n      pop\n        /* \"#utility.yul\":19643:21094   */\n      pop\n      pop\n    tag_522:\n      jump\t// out\n        /* \"#utility.yul\":21100:21432   */\n    tag_206:\n        /* \"#utility.yul\":21221:21225   */\n      0x00\n        /* \"#utility.yul\":21259:21261   */\n      0x40\n        /* \"#utility.yul\":21248:21257   */\n      dup3\n        /* \"#utility.yul\":21244:21262   */\n      add\n        /* \"#utility.yul\":21236:21262   */\n      swap1\n      pop\n        /* \"#utility.yul\":21272:21343   */\n      tag_541\n        /* \"#utility.yul\":21340:21341   */\n      0x00\n        /* \"#utility.yul\":21329:21338   */\n      dup4\n        /* \"#utility.yul\":21325:21342   */\n      add\n        /* \"#utility.yul\":21316:21322   */\n      dup6\n        /* \"#utility.yul\":21272:21343   */\n      tag_304\n      jump\t// in\n    tag_541:\n        /* \"#utility.yul\":21353:21425   */\n      tag_542\n        /* \"#utility.yul\":21421:21423   */\n      0x20\n        /* \"#utility.yul\":21410:21419   */\n      dup4\n        /* \"#utility.yul\":21406:21424   */\n      add\n        /* \"#utility.yul\":21397:21403   */\n      dup5\n        /* \"#utility.yul\":21353:21425   */\n      tag_304\n      jump\t// in\n    tag_542:\n        /* \"#utility.yul\":21100:21432   */\n      swap4\n      swap3\n      pop\n      pop\n      pop\n      jump\t// out\n\n    auxdata: 0xa2646970667358221220bf7af437850aab8e309064f956da0af9f8ff5552a5ad2ca7cae973b24b73b45464736f6c634300081e0033\n}\n",
				"bytecode": {
					"linkReferences": {},
					"object": "608060405234801561000f575f5ffd5b50335f73ffffffffffffffffffffffffffffffffffffffff168173ffffffffffffffffffffffffffffffffffffffff1603610081575f6040517f1e4fbdf700000000000000000000000000000000000000000000000000000000815260040161007891906101c2565b60405180910390fd5b610090816100c260201b60201c565b505f60016003015f6101000a81548160ff021916908360058111156100b8576100b76101db565b5b0217905550610208565b5f5f5f9054906101000a900473ffffffffffffffffffffffffffffffffffffffff169050815f5f6101000a81548173ffffffffffffffffffffffffffffffffffffffff021916908373ffffffffffffffffffffffffffffffffffffffff1602179055508173ffffffffffffffffffffffffffffffffffffffff168173ffffffffffffffffffffffffffffffffffffffff167f8be0079c531659141344cd1fd0a4f28419497f9722a3daafe3b4186f6b6457e060405160405180910390a35050565b5f73ffffffffffffffffffffffffffffffffffffffff82169050919050565b5f6101ac82610183565b9050919050565b6101bc816101a2565b82525050565b5f6020820190506101d55f8301846101b3565b92915050565b7f4e487b71000000000000000000000000000000000000000000000000000000005f52602160045260245ffd5b612071806102155f395ff3fe608060405234801561000f575f5ffd5b506004361061009c575f3560e01c80637540628411610064578063754062841461012e57806386a66dc3146101385780638b5df08d146101565780638da5cb5b14610160578063f2fde38b1461017e5761009c565b80630121b93f146100a057806323edca11146100bc5780632f95355b146100ec57806338db6dd314610108578063715018a614610124575b5f5ffd5b6100ba60048036038101906100b591906115cf565b61019a565b005b6100d660048036038101906100d191906115cf565b6104aa565b6040516100e391906117c2565b60405180910390f35b6101066004803603810190610101919061190e565b610715565b005b610122600480360381019061011d91906119af565b6108d8565b005b61012c610a87565b005b610136610a9a565b005b610140610c2f565b60405161014d9190611a5d565b60405180910390f35b61015e610e3c565b005b610168611110565b6040516101759190611a8c565b60405180910390f35b610198600480360381019061019391906119af565b611137565b005b60015f015f3373ffffffffffffffffffffffffffffffffffffffff1673ffffffffffffffffffffffffffffffffffffffff1681526020019081526020015f205f015f9054906101000a900460ff1661021e576040517fb3e2c01600000000000000000000000000000000000000000000000000000000815260040160405180910390fd5b6003600581111561023257610231611aa5565b5b60016003015f9054906101000a900460ff16600581111561025657610255611aa5565b5b1460016003015f9054906101000a900460ff16600390916102ae576040517f0e10df3f0000000000000000000000000000000000000000000000000000000081526004016102a5929190611b18565b60405180910390fd5b505060015f015f3373ffffffffffffffffffffffffffffffffffffffff1673ffffffffffffffffffffffffffffffffffffffff1681526020019081526020015f205f0160019054906101000a900460ff1615610336576040517fd40aec4400000000000000000000000000000000000000000000000000000000815260040160405180910390fd5b6001600201805490508110610377576040517ff299af6600000000000000000000000000000000000000000000000000000000815260040160405180910390fd5b600180600201828154811061038f5761038e611b3f565b5b905f5260205f2090600202016001015f8282546103ac9190611b99565b925050819055508060015f015f3373ffffffffffffffffffffffffffffffffffffffff1673ffffffffffffffffffffffffffffffffffffffff1681526020019081526020015f20600101819055506001805f015f3373ffffffffffffffffffffffffffffffffffffffff1673ffffffffffffffffffffffffffffffffffffffff1681526020019081526020015f205f0160016101000a81548160ff0219169083151502179055506001806001015f8282546104679190611b99565b925050819055507f4d99b957a2bc29a30ebd96a7be8e68fe50a3c701db28a91436490b7d53870ca4338260405161049f929190611bdb565b60405180910390a150565b6104b26114c6565b60068054905082106104f0576040517f1397166e00000000000000000000000000000000000000000000000000000000815260040160405180910390fd5b6006828154811061050457610503611b3f565b5b905f5260205f2090600302016040518060600160405290815f820154815260200160018201805480602002602001604051908101604052809291908181526020015f905b82821015610611578382905f5260205f2090600202016040518060400160405290815f8201805461057890611c2f565b80601f01602080910402602001604051908101604052809291908181526020018280546105a490611c2f565b80156105ef5780601f106105c6576101008083540402835291602001916105ef565b820191905f5260205f20905b8154815290600101906020018083116105d257829003601f168201915b5050505050815260200160018201548152505081526020019060010190610548565b50505050815260200160028201805480602002602001604051908101604052809291908181526020015f905b82821015610706578382905f5260205f2090600202016040518060400160405290815f8201805461066d90611c2f565b80601f016020809104026020016040519081016040528092919081815260200182805461069990611c2f565b80156106e45780601f106106bb576101008083540402835291602001916106e4565b820191905f5260205f20905b8154815290600101906020018083116106c757829003601f168201915b505050505081526020016001820154815250508152602001906001019061063d565b50505050815250509050919050565b60015f015f3373ffffffffffffffffffffffffffffffffffffffff1673ffffffffffffffffffffffffffffffffffffffff1681526020019081526020015f205f015f9054906101000a900460ff16610799576040517fb3e2c01600000000000000000000000000000000000000000000000000000000815260040160405180910390fd5b600160058111156107ad576107ac611aa5565b5b60016003015f9054906101000a900460ff1660058111156107d1576107d0611aa5565b5b1460016003015f9054906101000a900460ff1660019091610829576040517f0e10df3f000000000000000000000000000000000000000000000000000000008152600401610820929190611b18565b60405180910390fd5b5050600160020160405180604001604052808381526020015f815250908060018154018082558091505060019003905f5260205f2090600202015f909190919091505f820151815f01908161087e9190611dff565b506020820151816001015550507f92e393e9b54e2f801d3ea4beb0c5e71a21cc34a5d34b77d0fb8a3aa1650dc18f600180600201805490506108c09190611ece565b6040516108cd9190611f01565b60405180910390a150565b6108e06111bb565b5f60058111156108f3576108f2611aa5565b5b60016003015f9054906101000a900460ff16600581111561091757610916611aa5565b5b1460016003015f9054906101000a900460ff165f909161096e576040517f0e10df3f000000000000000000000000000000000000000000000000000000008152600401610965929190611b18565b60405180910390fd5b505060015f015f8273ffffffffffffffffffffffffffffffffffffffff1673ffffffffffffffffffffffffffffffffffffffff1681526020019081526020015f205f015f9054906101000a900460ff16156109f5576040517f59a1ec4700000000000000000000000000000000000000000000000000000000815260040160405180910390fd5b6001805f015f8373ffffffffffffffffffffffffffffffffffffffff1673ffffffffffffffffffffffffffffffffffffffff1681526020019081526020015f205f015f6101000a81548160ff0219169083151502179055507fb6be2187d059cc2a55fe29e0e503b566e1e0f8c8780096e185429350acffd3dd81604051610a7c9190611a8c565b60405180910390a150565b610a8f6111bb565b610a985f611242565b565b610aa26111bb565b6001600580811115610ab757610ab6611aa5565b5b610ac19190611ece565b60016003015f9054906101000a900460ff166005811115610ae557610ae4611aa5565b5b10610b1c576040517f086fc57f00000000000000000000000000000000000000000000000000000000815260040160405180910390fd5b5f60016003015f9054906101000a900460ff1690506001806003015f9054906101000a900460ff166005811115610b5657610b55611aa5565b5b610b609190611b99565b6005811115610b7257610b71611aa5565b5b60016003015f6101000a81548160ff02191690836005811115610b9857610b97611aa5565b5b02179055507f0a97a4ee45751e2abf3e4fc8946939630b11b371ea8ae39ccdc3056e98f5cc3f8160016003015f9054906101000a900460ff16604051610bdf929190611b18565b60405180910390a1600580811115610bfa57610bf9611aa5565b5b60016003015f9054906101000a900460ff166005811115610c1e57610c1d611aa5565b5b03610c2c57610c2b611303565b5b50565b606060015f015f3373ffffffffffffffffffffffffffffffffffffffff1673ffffffffffffffffffffffffffffffffffffffff1681526020019081526020015f205f015f9054906101000a900460ff16610cb5576040517fb3e2c01600000000000000000000000000000000000000000000000000000000815260040160405180910390fd5b600580811115610cc857610cc7611aa5565b5b60016003015f9054906101000a900460ff166005811115610cec57610ceb611aa5565b5b1460016003015f9054906101000a900460ff1660059091610d44576040517f0e10df3f000000000000000000000000000000000000000000000000000000008152600401610d3b929190611b18565b60405180910390fd5b50506001600401805480602002602001604051908101604052809291908181526020015f905b82821015610e33578382905f5260205f2090600202016040518060400160405290815f82018054610d9a90611c2f565b80601f0160208091040260200160405190810160405280929190818152602001828054610dc690611c2f565b8015610e115780601f10610de857610100808354040283529160200191610e11565b820191905f5260205f20905b815481529060010190602001808311610df457829003601f168201915b5050505050815260200160018201548152505081526020019060010190610d6a565b50505050905090565b610e446111bb565b600580811115610e5757610e56611aa5565b5b60016003015f9054906101000a900460ff166005811115610e7b57610e7a611aa5565b5b1460016003015f9054906101000a900460ff1660059091610ed3576040517f0e10df3f000000000000000000000000000000000000000000000000000000008152600401610eca929190611b18565b60405180910390fd5b5050600660018160018154018082558091505003905f5260205f209050505f60066001600680549050610f069190611ece565b81548110610f1757610f16611b3f565b5b905f5260205f20906003020190506001800154815f01819055505f5f90505b600160020180549050811015610fbf578160010160016002018281548110610f6157610f60611b3f565b5b905f5260205f209060020201908060018154018082558091505060019003905f5260205f2090600202015f909190919091505f8201815f019081610fa59190611f2f565b506001820154816001015550508080600101915050610f36565b505f5f90505b60016004018054905081101561104e578160020160016004018281548110610ff057610fef611b3f565b5b905f5260205f209060020201908060018154018082558091505060019003905f5260205f2090600202015f909190919091505f8201815f0190816110349190611f2f565b506001820154816001015550508080600101915050610fc5565b5060015f600182015f9055600282015f61106891906114e6565b600382015f6101000a81549060ff0219169055600482015f61108a91906114e6565b50505f60016003015f6101000a81548160ff021916908360058111156110b3576110b2611aa5565b5b021790555060016006805490506110ca9190611ece565b7f87f1efd3ecc2164eb03e4374ac4bfebd5ee2d9f4785fc2f4c9c193fc132bb03f825f01548360020180549050604051611105929190612014565b60405180910390a250565b5f5f5f9054906101000a900473ffffffffffffffffffffffffffffffffffffffff16905090565b61113f6111bb565b5f73ffffffffffffffffffffffffffffffffffffffff168173ffffffffffffffffffffffffffffffffffffffff16036111af575f6040517f1e4fbdf70000000000000000000000000000000000000000000000000000000081526004016111a69190611a8c565b60405180910390fd5b6111b881611242565b50565b6111c36114bf565b73ffffffffffffffffffffffffffffffffffffffff166111e1611110565b73ffffffffffffffffffffffffffffffffffffffff1614611240576112046114bf565b6040517f118cdaa70000000000000000000000000000000000000000000000000000000081526004016112379190611a8c565b60405180910390fd5b565b5f5f5f9054906101000a900473ffffffffffffffffffffffffffffffffffffffff169050815f5f6101000a81548173ffffffffffffffffffffffffffffffffffffffff021916908373ffffffffffffffffffffffffffffffffffffffff1602179055508173ffffffffffffffffffffffffffffffffffffffff168173ffffffffffffffffffffffffffffffffffffffff167f8be0079c531659141344cd1fd0a4f28419497f9722a3daafe3b4186f6b6457e060405160405180910390a35050565b61130b6111bb565b5f5f905060016004015f61131f91906114e6565b5f5f90505b60016002018054905081101561147a575f6001600201828154811061134c5761134b611b3f565b5b905f5260205f209060020201600101549050828111156113eb5780925060016004015f61137991906114e6565b60016004016001600201838154811061139557611394611b3f565b5b905f5260205f209060020201908060018154018082558091505060019003905f5260205f2090600202015f909190919091505f8201815f0190816113d99190611f2f565b5060018201548160010155505061146e565b82811480156113fa57505f8314155b1561146d5760016004016001600201838154811061141b5761141a611b3f565b5b905f5260205f209060020201908060018154018082558091505060019003905f5260205f2090600202015f909190919091505f8201815f01908161145f9190611f2f565b506001820154816001015550505b5b50806001019050611324565b507f45ef9b7fc34bdfcccc29be8be99ab3e8f3206f5957d34325050712b5b486bdce816001600401805490506040516114b4929190612014565b60405180910390a150565b5f33905090565b60405180606001604052805f815260200160608152602001606081525090565b5080545f8255600202905f5260205f20908101906115049190611507565b50565b5b8082111561152f575f5f82015f61151f9190611533565b600182015f905550600201611508565b5090565b50805461153f90611c2f565b5f825580601f10611550575061156d565b601f0160209004905f5260205f209081019061156c9190611570565b5b50565b5b80821115611587575f815f905550600101611571565b5090565b5f604051905090565b5f5ffd5b5f5ffd5b5f819050919050565b6115ae8161159c565b81146115b8575f5ffd5b50565b5f813590506115c9816115a5565b92915050565b5f602082840312156115e4576115e3611594565b5b5f6115f1848285016115bb565b91505092915050565b6116038161159c565b82525050565b5f81519050919050565b5f82825260208201905092915050565b5f819050602082019050919050565b5f81519050919050565b5f82825260208201905092915050565b8281835e5f83830152505050565b5f601f19601f8301169050919050565b5f61167482611632565b61167e818561163c565b935061168e81856020860161164c565b6116978161165a565b840191505092915050565b5f604083015f8301518482035f8601526116bc828261166a565b91505060208301516116d160208601826115fa565b508091505092915050565b5f6116e783836116a2565b905092915050565b5f602082019050919050565b5f61170582611609565b61170f8185611613565b93508360208202850161172185611623565b805f5b8581101561175c578484038952815161173d85826116dc565b9450611748836116ef565b925060208a01995050600181019050611724565b50829750879550505050505092915050565b5f606083015f8301516117835f8601826115fa565b506020830151848203602086015261179b82826116fb565b915050604083015184820360408601526117b582826116fb565b9150508091505092915050565b5f6020820190508181035f8301526117da818461176e565b905092915050565b5f5ffd5b5f5ffd5b7f4e487b71000000000000000000000000000000000000000000000000000000005f52604160045260245ffd5b6118208261165a565b810181811067ffffffffffffffff8211171561183f5761183e6117ea565b5b80604052505050565b5f61185161158b565b905061185d8282611817565b919050565b5f67ffffffffffffffff82111561187c5761187b6117ea565b5b6118858261165a565b9050602081019050919050565b828183375f83830152505050565b5f6118b26118ad84611862565b611848565b9050828152602081018484840111156118ce576118cd6117e6565b5b6118d9848285611892565b509392505050565b5f82601f8301126118f5576118f46117e2565b5b81356119058482602086016118a0565b91505092915050565b5f6020828403121561192357611922611594565b5b5f82013567ffffffffffffffff8111156119405761193f611598565b5b61194c848285016118e1565b91505092915050565b5f73ffffffffffffffffffffffffffffffffffffffff82169050919050565b5f61197e82611955565b9050919050565b61198e81611974565b8114611998575f5ffd5b50565b5f813590506119a981611985565b92915050565b5f602082840312156119c4576119c3611594565b5b5f6119d18482850161199b565b91505092915050565b5f82825260208201905092915050565b5f6119f482611609565b6119fe81856119da565b935083602082028501611a1085611623565b805f5b85811015611a4b5784840389528151611a2c85826116dc565b9450611a37836116ef565b925060208a01995050600181019050611a13565b50829750879550505050505092915050565b5f6020820190508181035f830152611a7581846119ea565b905092915050565b611a8681611974565b82525050565b5f602082019050611a9f5f830184611a7d565b92915050565b7f4e487b71000000000000000000000000000000000000000000000000000000005f52602160045260245ffd5b60068110611ae357611ae2611aa5565b5b50565b5f819050611af382611ad2565b919050565b5f611b0282611ae6565b9050919050565b611b1281611af8565b82525050565b5f604082019050611b2b5f830185611b09565b611b386020830184611b09565b9392505050565b7f4e487b71000000000000000000000000000000000000000000000000000000005f52603260045260245ffd5b7f4e487b71000000000000000000000000000000000000000000000000000000005f52601160045260245ffd5b5f611ba38261159c565b9150611bae8361159c565b9250828201905080821115611bc657611bc5611b6c565b5b92915050565b611bd58161159c565b82525050565b5f604082019050611bee5f830185611a7d565b611bfb6020830184611bcc565b9392505050565b7f4e487b71000000000000000000000000000000000000000000000000000000005f52602260045260245ffd5b5f6002820490506001821680611c4657607f821691505b602082108103611c5957611c58611c02565b5b50919050565b5f819050815f5260205f209050919050565b5f6020601f8301049050919050565b5f82821b905092915050565b5f60088302611cbb7fffffffffffffffffffffffffffffffffffffffffffffffffffffffffffffffff82611c80565b611cc58683611c80565b95508019841693508086168417925050509392505050565b5f819050919050565b5f611d00611cfb611cf68461159c565b611cdd565b61159c565b9050919050565b5f819050919050565b611d1983611ce6565b611d2d611d2582611d07565b848454611c8c565b825550505050565b5f5f905090565b611d44611d35565b611d4f818484611d10565b505050565b5b81811015611d7257611d675f82611d3c565b600181019050611d55565b5050565b601f821115611db757611d8881611c5f565b611d9184611c71565b81016020851015611da0578190505b611db4611dac85611c71565b830182611d54565b50505b505050565b5f82821c905092915050565b5f611dd75f1984600802611dbc565b1980831691505092915050565b5f611def8383611dc8565b9150826002028217905092915050565b611e0882611632565b67ffffffffffffffff811115611e2157611e206117ea565b5b611e2b8254611c2f565b611e36828285611d76565b5f60209050601f831160018114611e67575f8415611e55578287015190505b611e5f8582611de4565b865550611ec6565b601f198416611e7586611c5f565b5f5b82811015611e9c57848901518255600182019150602085019450602081019050611e77565b86831015611eb95784890151611eb5601f891682611dc8565b8355505b6001600288020188555050505b505050505050565b5f611ed88261159c565b9150611ee38361159c565b9250828203905081811115611efb57611efa611b6c565b5b92915050565b5f602082019050611f145f830184611bcc565b92915050565b5f81549050611f2881611c2f565b9050919050565b818103611f3d575050612012565b611f4682611f1a565b67ffffffffffffffff811115611f5f57611f5e6117ea565b5b611f698254611c2f565b611f74828285611d76565b5f601f831160018114611fa1575f8415611f8f578287015490505b611f998582611de4565b86555061200b565b601f198416611faf87611c5f565b9650611fba86611c5f565b5f5b82811015611fe157848901548255600182019150600185019450602081019050611fbc565b86831015611ffe5784890154611ffa601f891682611dc8565b8355505b6001600288020188555050505b5050505050505b565b5f6040820190506120275f830185611bcc565b6120346020830184611bcc565b939250505056fea2646970667358221220bf7af437850aab8e309064f956da0af9f8ff5552a5ad2ca7cae973b24b73b45464736f6c634300081e0033",
					"opcodes": "PUSH1 0x80 PUSH1 0x40 MSTORE CALLVALUE DUP1 ISZERO PUSH2 0xF JUMPI PUSH0 PUSH0 REVERT JUMPDEST POP CALLER PUSH0 PUSH20 0xFFFFFFFFFFFFFFFFFFFFFFFFFFFFFFFFFFFFFFFF AND DUP2 PUSH20 0xFFFFFFFFFFFFFFFFFFFFFFFFFFFFFFFFFFFFFFFF AND SUB PUSH2 0x81 JUMPI PUSH0 PUSH1 0x40 MLOAD PUSH32 0x1E4FBDF700000000000000000000000000000000000000000000000000000000 DUP2 MSTORE PUSH1 0x4 ADD PUSH2 0x78 SWAP2 SWAP1 PUSH2 0x1C2 JUMP JUMPDEST PUSH1 0x40 MLOAD DUP1 SWAP2 SUB SWAP1 REVERT JUMPDEST PUSH2 0x90 DUP2 PUSH2 0xC2 PUSH1 0x20 SHL PUSH1 0x20 SHR JUMP JUMPDEST POP PUSH0 PUSH1 0x1 PUSH1 0x3 ADD PUSH0 PUSH2 0x100 EXP DUP2 SLOAD DUP2 PUSH1 0xFF MUL NOT AND SWAP1 DUP4 PUSH1 0x5 DUP2 GT ISZERO PUSH2 0xB8 JUMPI PUSH2 0xB7 PUSH2 0x1DB JUMP JUMPDEST JUMPDEST MUL OR SWAP1 SSTORE POP PUSH2 0x208 JUMP JUMPDEST PUSH0 PUSH0 PUSH0 SWAP1 SLOAD SWAP1 PUSH2 0x100 EXP SWAP1 DIV PUSH20 0xFFFFFFFFFFFFFFFFFFFFFFFFFFFFFFFFFFFFFFFF AND SWAP1 POP DUP2 PUSH0 PUSH0 PUSH2 0x100 EXP DUP2 SLOAD DUP2 PUSH20 0xFFFFFFFFFFFFFFFFFFFFFFFFFFFFFFFFFFFFFFFF MUL NOT AND SWAP1 DUP4 PUSH20 0xFFFFFFFFFFFFFFFFFFFFFFFFFFFFFFFFFFFFFFFF AND MUL OR SWAP1 SSTORE POP DUP2 PUSH20 0xFFFFFFFFFFFFFFFFFFFFFFFFFFFFFFFFFFFFFFFF AND DUP2 PUSH20 0xFFFFFFFFFFFFFFFFFFFFFFFFFFFFFFFFFFFFFFFF AND PUSH32 0x8BE0079C531659141344CD1FD0A4F28419497F9722A3DAAFE3B4186F6B6457E0 PUSH1 0x40 MLOAD PUSH1 0x40 MLOAD DUP1 SWAP2 SUB SWAP1 LOG3 POP POP JUMP JUMPDEST PUSH0 PUSH20 0xFFFFFFFFFFFFFFFFFFFFFFFFFFFFFFFFFFFFFFFF DUP3 AND SWAP1 POP SWAP2 SWAP1 POP JUMP JUMPDEST PUSH0 PUSH2 0x1AC DUP3 PUSH2 0x183 JUMP JUMPDEST SWAP1 POP SWAP2 SWAP1 POP JUMP JUMPDEST PUSH2 0x1BC DUP2 PUSH2 0x1A2 JUMP JUMPDEST DUP3 MSTORE POP POP JUMP JUMPDEST PUSH0 PUSH1 0x20 DUP3 ADD SWAP1 POP PUSH2 0x1D5 PUSH0 DUP4 ADD DUP5 PUSH2 0x1B3 JUMP JUMPDEST SWAP3 SWAP2 POP POP JUMP JUMPDEST PUSH32 0x4E487B7100000000000000000000000000000000000000000000000000000000 PUSH0 MSTORE PUSH1 0x21 PUSH1 0x4 MSTORE PUSH1 0x24 PUSH0 REVERT JUMPDEST PUSH2 0x2071 DUP1 PUSH2 0x215 PUSH0 CODECOPY PUSH0 RETURN INVALID PUSH1 0x80 PUSH1 0x40 MSTORE CALLVALUE DUP1 ISZERO PUSH2 0xF JUMPI PUSH0 PUSH0 REVERT JUMPDEST POP PUSH1 0x4 CALLDATASIZE LT PUSH2 0x9C JUMPI PUSH0 CALLDATALOAD PUSH1 0xE0 SHR DUP1 PUSH4 0x75406284 GT PUSH2 0x64 JUMPI DUP1 PUSH4 0x75406284 EQ PUSH2 0x12E JUMPI DUP1 PUSH4 0x86A66DC3 EQ PUSH2 0x138 JUMPI DUP1 PUSH4 0x8B5DF08D EQ PUSH2 0x156 JUMPI DUP1 PUSH4 0x8DA5CB5B EQ PUSH2 0x160 JUMPI DUP1 PUSH4 0xF2FDE38B EQ PUSH2 0x17E JUMPI PUSH2 0x9C JUMP JUMPDEST DUP1 PUSH4 0x121B93F EQ PUSH2 0xA0 JUMPI DUP1 PUSH4 0x23EDCA11 EQ PUSH2 0xBC JUMPI DUP1 PUSH4 0x2F95355B EQ PUSH2 0xEC JUMPI DUP1 PUSH4 0x38DB6DD3 EQ PUSH2 0x108 JUMPI DUP1 PUSH4 0x715018A6 EQ PUSH2 0x124 JUMPI JUMPDEST PUSH0 PUSH0 REVERT JUMPDEST PUSH2 0xBA PUSH1 0x4 DUP1 CALLDATASIZE SUB DUP2 ADD SWAP1 PUSH2 0xB5 SWAP2 SWAP1 PUSH2 0x15CF JUMP JUMPDEST PUSH2 0x19A JUMP JUMPDEST STOP JUMPDEST PUSH2 0xD6 PUSH1 0x4 DUP1 CALLDATASIZE SUB DUP2 ADD SWAP1 PUSH2 0xD1 SWAP2 SWAP1 PUSH2 0x15CF JUMP JUMPDEST PUSH2 0x4AA JUMP JUMPDEST PUSH1 0x40 MLOAD PUSH2 0xE3 SWAP2 SWAP1 PUSH2 0x17C2 JUMP JUMPDEST PUSH1 0x40 MLOAD DUP1 SWAP2 SUB SWAP1 RETURN JUMPDEST PUSH2 0x106 PUSH1 0x4 DUP1 CALLDATASIZE SUB DUP2 ADD SWAP1 PUSH2 0x101 SWAP2 SWAP1 PUSH2 0x190E JUMP JUMPDEST PUSH2 0x715 JUMP JUMPDEST STOP JUMPDEST PUSH2 0x122 PUSH1 0x4 DUP1 CALLDATASIZE SUB DUP2 ADD SWAP1 PUSH2 0x11D SWAP2 SWAP1 PUSH2 0x19AF JUMP JUMPDEST PUSH2 0x8D8 JUMP JUMPDEST STOP JUMPDEST PUSH2 0x12C PUSH2 0xA87 JUMP JUMPDEST STOP JUMPDEST PUSH2 0x136 PUSH2 0xA9A JUMP JUMPDEST STOP JUMPDEST PUSH2 0x140 PUSH2 0xC2F JUMP JUMPDEST PUSH1 0x40 MLOAD PUSH2 0x14D SWAP2 SWAP1 PUSH2 0x1A5D JUMP JUMPDEST PUSH1 0x40 MLOAD DUP1 SWAP2 SUB SWAP1 RETURN JUMPDEST PUSH2 0x15E PUSH2 0xE3C JUMP JUMPDEST STOP JUMPDEST PUSH2 0x168 PUSH2 0x1110 JUMP JUMPDEST PUSH1 0x40 MLOAD PUSH2 0x175 SWAP2 SWAP1 PUSH2 0x1A8C JUMP JUMPDEST PUSH1 0x40 MLOAD DUP1 SWAP2 SUB SWAP1 RETURN JUMPDEST PUSH2 0x198 PUSH1 0x4 DUP1 CALLDATASIZE SUB DUP2 ADD SWAP1 PUSH2 0x193 SWAP2 SWAP1 PUSH2 0x19AF JUMP JUMPDEST PUSH2 0x1137 JUMP JUMPDEST STOP JUMPDEST PUSH1 0x1 PUSH0 ADD PUSH0 CALLER PUSH20 0xFFFFFFFFFFFFFFFFFFFFFFFFFFFFFFFFFFFFFFFF AND PUSH20 0xFFFFFFFFFFFFFFFFFFFFFFFFFFFFFFFFFFFFFFFF AND DUP2 MSTORE PUSH1 0x20 ADD SWAP1 DUP2 MSTORE PUSH1 0x20 ADD PUSH0 KECCAK256 PUSH0 ADD PUSH0 SWAP1 SLOAD SWAP1 PUSH2 0x100 EXP SWAP1 DIV PUSH1 0xFF AND PUSH2 0x21E JUMPI PUSH1 0x40 MLOAD PUSH32 0xB3E2C01600000000000000000000000000000000000000000000000000000000 DUP2 MSTORE PUSH1 0x4 ADD PUSH1 0x40 MLOAD DUP1 SWAP2 SUB SWAP1 REVERT JUMPDEST PUSH1 0x3 PUSH1 0x5 DUP2 GT ISZERO PUSH2 0x232 JUMPI PUSH2 0x231 PUSH2 0x1AA5 JUMP JUMPDEST JUMPDEST PUSH1 0x1 PUSH1 0x3 ADD PUSH0 SWAP1 SLOAD SWAP1 PUSH2 0x100 EXP SWAP1 DIV PUSH1 0xFF AND PUSH1 0x5 DUP2 GT ISZERO PUSH2 0x256 JUMPI PUSH2 0x255 PUSH2 0x1AA5 JUMP JUMPDEST JUMPDEST EQ PUSH1 0x1 PUSH1 0x3 ADD PUSH0 SWAP1 SLOAD SWAP1 PUSH2 0x100 EXP SWAP1 DIV PUSH1 0xFF AND PUSH1 0x3 SWAP1 SWAP2 PUSH2 0x2AE JUMPI PUSH1 0x40 MLOAD PUSH32 0xE10DF3F00000000000000000000000000000000000000000000000000000000 DUP2 MSTORE PUSH1 0x4 ADD PUSH2 0x2A5 SWAP3 SWAP2 SWAP1 PUSH2 0x1B18 JUMP JUMPDEST PUSH1 0x40 MLOAD DUP1 SWAP2 SUB SWAP1 REVERT JUMPDEST POP POP PUSH1 0x1 PUSH0 ADD PUSH0 CALLER PUSH20 0xFFFFFFFFFFFFFFFFFFFFFFFFFFFFFFFFFFFFFFFF AND PUSH20 0xFFFFFFFFFFFFFFFFFFFFFFFFFFFFFFFFFFFFFFFF AND DUP2 MSTORE PUSH1 0x20 ADD SWAP1 DUP2 MSTORE PUSH1 0x20 ADD PUSH0 KECCAK256 PUSH0 ADD PUSH1 0x1 SWAP1 SLOAD SWAP1 PUSH2 0x100 EXP SWAP1 DIV PUSH1 0xFF AND ISZERO PUSH2 0x336 JUMPI PUSH1 0x40 MLOAD PUSH32 0xD40AEC4400000000000000000000000000000000000000000000000000000000 DUP2 MSTORE PUSH1 0x4 ADD PUSH1 0x40 MLOAD DUP1 SWAP2 SUB SWAP1 REVERT JUMPDEST PUSH1 0x1 PUSH1 0x2 ADD DUP1 SLOAD SWAP1 POP DUP2 LT PUSH2 0x377 JUMPI PUSH1 0x40 MLOAD PUSH32 0xF299AF6600000000000000000000000000000000000000000000000000000000 DUP2 MSTORE PUSH1 0x4 ADD PUSH1 0x40 MLOAD DUP1 SWAP2 SUB SWAP1 REVERT JUMPDEST PUSH1 0x1 DUP1 PUSH1 0x2 ADD DUP3 DUP2 SLOAD DUP2 LT PUSH2 0x38F JUMPI PUSH2 0x38E PUSH2 0x1B3F JUMP JUMPDEST JUMPDEST SWAP1 PUSH0 MSTORE PUSH1 0x20 PUSH0 KECCAK256 SWAP1 PUSH1 0x2 MUL ADD PUSH1 0x1 ADD PUSH0 DUP3 DUP3 SLOAD PUSH2 0x3AC SWAP2 SWAP1 PUSH2 0x1B99 JUMP JUMPDEST SWAP3 POP POP DUP2 SWAP1 SSTORE POP DUP1 PUSH1 0x1 PUSH0 ADD PUSH0 CALLER PUSH20 0xFFFFFFFFFFFFFFFFFFFFFFFFFFFFFFFFFFFFFFFF AND PUSH20 0xFFFFFFFFFFFFFFFFFFFFFFFFFFFFFFFFFFFFFFFF AND DUP2 MSTORE PUSH1 0x20 ADD SWAP1 DUP2 MSTORE PUSH1 0x20 ADD PUSH0 KECCAK256 PUSH1 0x1 ADD DUP2 SWAP1 SSTORE POP PUSH1 0x1 DUP1 PUSH0 ADD PUSH0 CALLER PUSH20 0xFFFFFFFFFFFFFFFFFFFFFFFFFFFFFFFFFFFFFFFF AND PUSH20 0xFFFFFFFFFFFFFFFFFFFFFFFFFFFFFFFFFFFFFFFF AND DUP2 MSTORE PUSH1 0x20 ADD SWAP1 DUP2 MSTORE PUSH1 0x20 ADD PUSH0 KECCAK256 PUSH0 ADD PUSH1 0x1 PUSH2 0x100 EXP DUP2 SLOAD DUP2 PUSH1 0xFF MUL NOT AND SWAP1 DUP4 ISZERO ISZERO MUL OR SWAP1 SSTORE POP PUSH1 0x1 DUP1 PUSH1 0x1 ADD PUSH0 DUP3 DUP3 SLOAD PUSH2 0x467 SWAP2 SWAP1 PUSH2 0x1B99 JUMP JUMPDEST SWAP3 POP POP DUP2 SWAP1 SSTORE POP PUSH32 0x4D99B957A2BC29A30EBD96A7BE8E68FE50A3C701DB28A91436490B7D53870CA4 CALLER DUP3 PUSH1 0x40 MLOAD PUSH2 0x49F SWAP3 SWAP2 SWAP1 PUSH2 0x1BDB JUMP JUMPDEST PUSH1 0x40 MLOAD DUP1 SWAP2 SUB SWAP1 LOG1 POP JUMP JUMPDEST PUSH2 0x4B2 PUSH2 0x14C6 JUMP JUMPDEST PUSH1 0x6 DUP1 SLOAD SWAP1 POP DUP3 LT PUSH2 0x4F0 JUMPI PUSH1 0x40 MLOAD PUSH32 0x1397166E00000000000000000000000000000000000000000000000000000000 DUP2 MSTORE PUSH1 0x4 ADD PUSH1 0x40 MLOAD DUP1 SWAP2 SUB SWAP1 REVERT JUMPDEST PUSH1 0x6 DUP3 DUP2 SLOAD DUP2 LT PUSH2 0x504 JUMPI PUSH2 0x503 PUSH2 0x1B3F JUMP JUMPDEST JUMPDEST SWAP1 PUSH0 MSTORE PUSH1 0x20 PUSH0 KECCAK256 SWAP1 PUSH1 0x3 MUL ADD PUSH1 0x40 MLOAD DUP1 PUSH1 0x60 ADD PUSH1 0x40 MSTORE SWAP1 DUP2 PUSH0 DUP3 ADD SLOAD DUP2 MSTORE PUSH1 0x20 ADD PUSH1 0x1 DUP3 ADD DUP1 SLOAD DUP1 PUSH1 0x20 MUL PUSH1 0x20 ADD PUSH1 0x40 MLOAD SWAP1 DUP2 ADD PUSH1 0x40 MSTORE DUP1 SWAP3 SWAP2 SWAP1 DUP2 DUP2 MSTORE PUSH1 0x20 ADD PUSH0 SWAP1 JUMPDEST DUP3 DUP3 LT ISZERO PUSH2 0x611 JUMPI DUP4 DUP3 SWAP1 PUSH0 MSTORE PUSH1 0x20 PUSH0 KECCAK256 SWAP1 PUSH1 0x2 MUL ADD PUSH1 0x40 MLOAD DUP1 PUSH1 0x40 ADD PUSH1 0x40 MSTORE SWAP1 DUP2 PUSH0 DUP3 ADD DUP1 SLOAD PUSH2 0x578 SWAP1 PUSH2 0x1C2F JUMP JUMPDEST DUP1 PUSH1 0x1F ADD PUSH1 0x20 DUP1 SWAP2 DIV MUL PUSH1 0x20 ADD PUSH1 0x40 MLOAD SWAP1 DUP2 ADD PUSH1 0x40 MSTORE DUP1 SWAP3 SWAP2 SWAP1 DUP2 DUP2 MSTORE PUSH1 0x20 ADD DUP3 DUP1 SLOAD PUSH2 0x5A4 SWAP1 PUSH2 0x1C2F JUMP JUMPDEST DUP1 ISZERO PUSH2 0x5EF JUMPI DUP1 PUSH1 0x1F LT PUSH2 0x5C6 JUMPI PUSH2 0x100 DUP1 DUP4 SLOAD DIV MUL DUP4 MSTORE SWAP2 PUSH1 0x20 ADD SWAP2 PUSH2 0x5EF JUMP JUMPDEST DUP3 ADD SWAP2 SWAP1 PUSH0 MSTORE PUSH1 0x20 PUSH0 KECCAK256 SWAP1 JUMPDEST DUP2 SLOAD DUP2 MSTORE SWAP1 PUSH1 0x1 ADD SWAP1 PUSH1 0x20 ADD DUP1 DUP4 GT PUSH2 0x5D2 JUMPI DUP3 SWAP1 SUB PUSH1 0x1F AND DUP3 ADD SWAP2 JUMPDEST POP POP POP POP POP DUP2 MSTORE PUSH1 0x20 ADD PUSH1 0x1 DUP3 ADD SLOAD DUP2 MSTORE POP POP DUP2 MSTORE PUSH1 0x20 ADD SWAP1 PUSH1 0x1 ADD SWAP1 PUSH2 0x548 JUMP JUMPDEST POP POP POP POP DUP2 MSTORE PUSH1 0x20 ADD PUSH1 0x2 DUP3 ADD DUP1 SLOAD DUP1 PUSH1 0x20 MUL PUSH1 0x20 ADD PUSH1 0x40 MLOAD SWAP1 DUP2 ADD PUSH1 0x40 MSTORE DUP1 SWAP3 SWAP2 SWAP1 DUP2 DUP2 MSTORE PUSH1 0x20 ADD PUSH0 SWAP1 JUMPDEST DUP3 DUP3 LT ISZERO PUSH2 0x706 JUMPI DUP4 DUP3 SWAP1 PUSH0 MSTORE PUSH1 0x20 PUSH0 KECCAK256 SWAP1 PUSH1 0x2 MUL ADD PUSH1 0x40 MLOAD DUP1 PUSH1 0x40 ADD PUSH1 0x40 MSTORE SWAP1 DUP2 PUSH0 DUP3 ADD DUP1 SLOAD PUSH2 0x66D SWAP1 PUSH2 0x1C2F JUMP JUMPDEST DUP1 PUSH1 0x1F ADD PUSH1 0x20 DUP1 SWAP2 DIV MUL PUSH1 0x20 ADD PUSH1 0x40 MLOAD SWAP1 DUP2 ADD PUSH1 0x40 MSTORE DUP1 SWAP3 SWAP2 SWAP1 DUP2 DUP2 MSTORE PUSH1 0x20 ADD DUP3 DUP1 SLOAD PUSH2 0x699 SWAP1 PUSH2 0x1C2F JUMP JUMPDEST DUP1 ISZERO PUSH2 0x6E4 JUMPI DUP1 PUSH1 0x1F LT PUSH2 0x6BB JUMPI PUSH2 0x100 DUP1 DUP4 SLOAD DIV MUL DUP4 MSTORE SWAP2 PUSH1 0x20 ADD SWAP2 PUSH2 0x6E4 JUMP JUMPDEST DUP3 ADD SWAP2 SWAP1 PUSH0 MSTORE PUSH1 0x20 PUSH0 KECCAK256 SWAP1 JUMPDEST DUP2 SLOAD DUP2 MSTORE SWAP1 PUSH1 0x1 ADD SWAP1 PUSH1 0x20 ADD DUP1 DUP4 GT PUSH2 0x6C7 JUMPI DUP3 SWAP1 SUB PUSH1 0x1F AND DUP3 ADD SWAP2 JUMPDEST POP POP POP POP POP DUP2 MSTORE PUSH1 0x20 ADD PUSH1 0x1 DUP3 ADD SLOAD DUP2 MSTORE POP POP DUP2 MSTORE PUSH1 0x20 ADD SWAP1 PUSH1 0x1 ADD SWAP1 PUSH2 0x63D JUMP JUMPDEST POP POP POP POP DUP2 MSTORE POP POP SWAP1 POP SWAP2 SWAP1 POP JUMP JUMPDEST PUSH1 0x1 PUSH0 ADD PUSH0 CALLER PUSH20 0xFFFFFFFFFFFFFFFFFFFFFFFFFFFFFFFFFFFFFFFF AND PUSH20 0xFFFFFFFFFFFFFFFFFFFFFFFFFFFFFFFFFFFFFFFF AND DUP2 MSTORE PUSH1 0x20 ADD SWAP1 DUP2 MSTORE PUSH1 0x20 ADD PUSH0 KECCAK256 PUSH0 ADD PUSH0 SWAP1 SLOAD SWAP1 PUSH2 0x100 EXP SWAP1 DIV PUSH1 0xFF AND PUSH2 0x799 JUMPI PUSH1 0x40 MLOAD PUSH32 0xB3E2C01600000000000000000000000000000000000000000000000000000000 DUP2 MSTORE PUSH1 0x4 ADD PUSH1 0x40 MLOAD DUP1 SWAP2 SUB SWAP1 REVERT JUMPDEST PUSH1 0x1 PUSH1 0x5 DUP2 GT ISZERO PUSH2 0x7AD JUMPI PUSH2 0x7AC PUSH2 0x1AA5 JUMP JUMPDEST JUMPDEST PUSH1 0x1 PUSH1 0x3 ADD PUSH0 SWAP1 SLOAD SWAP1 PUSH2 0x100 EXP SWAP1 DIV PUSH1 0xFF AND PUSH1 0x5 DUP2 GT ISZERO PUSH2 0x7D1 JUMPI PUSH2 0x7D0 PUSH2 0x1AA5 JUMP JUMPDEST JUMPDEST EQ PUSH1 0x1 PUSH1 0x3 ADD PUSH0 SWAP1 SLOAD SWAP1 PUSH2 0x100 EXP SWAP1 DIV PUSH1 0xFF AND PUSH1 0x1 SWAP1 SWAP2 PUSH2 0x829 JUMPI PUSH1 0x40 MLOAD PUSH32 0xE10DF3F00000000000000000000000000000000000000000000000000000000 DUP2 MSTORE PUSH1 0x4 ADD PUSH2 0x820 SWAP3 SWAP2 SWAP1 PUSH2 0x1B18 JUMP JUMPDEST PUSH1 0x40 MLOAD DUP1 SWAP2 SUB SWAP1 REVERT JUMPDEST POP POP PUSH1 0x1 PUSH1 0x2 ADD PUSH1 0x40 MLOAD DUP1 PUSH1 0x40 ADD PUSH1 0x40 MSTORE DUP1 DUP4 DUP2 MSTORE PUSH1 0x20 ADD PUSH0 DUP2 MSTORE POP SWAP1 DUP1 PUSH1 0x1 DUP2 SLOAD ADD DUP1 DUP3 SSTORE DUP1 SWAP2 POP POP PUSH1 0x1 SWAP1 SUB SWAP1 PUSH0 MSTORE PUSH1 0x20 PUSH0 KECCAK256 SWAP1 PUSH1 0x2 MUL ADD PUSH0 SWAP1 SWAP2 SWAP1 SWAP2 SWAP1 SWAP2 POP PUSH0 DUP3 ADD MLOAD DUP2 PUSH0 ADD SWAP1 DUP2 PUSH2 0x87E SWAP2 SWAP1 PUSH2 0x1DFF JUMP JUMPDEST POP PUSH1 0x20 DUP3 ADD MLOAD DUP2 PUSH1 0x1 ADD SSTORE POP POP PUSH32 0x92E393E9B54E2F801D3EA4BEB0C5E71A21CC34A5D34B77D0FB8A3AA1650DC18F PUSH1 0x1 DUP1 PUSH1 0x2 ADD DUP1 SLOAD SWAP1 POP PUSH2 0x8C0 SWAP2 SWAP1 PUSH2 0x1ECE JUMP JUMPDEST PUSH1 0x40 MLOAD PUSH2 0x8CD SWAP2 SWAP1 PUSH2 0x1F01 JUMP JUMPDEST PUSH1 0x40 MLOAD DUP1 SWAP2 SUB SWAP1 LOG1 POP JUMP JUMPDEST PUSH2 0x8E0 PUSH2 0x11BB JUMP JUMPDEST PUSH0 PUSH1 0x5 DUP2 GT ISZERO PUSH2 0x8F3 JUMPI PUSH2 0x8F2 PUSH2 0x1AA5 JUMP JUMPDEST JUMPDEST PUSH1 0x1 PUSH1 0x3 ADD PUSH0 SWAP1 SLOAD SWAP1 PUSH2 0x100 EXP SWAP1 DIV PUSH1 0xFF AND PUSH1 0x5 DUP2 GT ISZERO PUSH2 0x917 JUMPI PUSH2 0x916 PUSH2 0x1AA5 JUMP JUMPDEST JUMPDEST EQ PUSH1 0x1 PUSH1 0x3 ADD PUSH0 SWAP1 SLOAD SWAP1 PUSH2 0x100 EXP SWAP1 DIV PUSH1 0xFF AND PUSH0 SWAP1 SWAP2 PUSH2 0x96E JUMPI PUSH1 0x40 MLOAD PUSH32 0xE10DF3F00000000000000000000000000000000000000000000000000000000 DUP2 MSTORE PUSH1 0x4 ADD PUSH2 0x965 SWAP3 SWAP2 SWAP1 PUSH2 0x1B18 JUMP JUMPDEST PUSH1 0x40 MLOAD DUP1 SWAP2 SUB SWAP1 REVERT JUMPDEST POP POP PUSH1 0x1 PUSH0 ADD PUSH0 DUP3 PUSH20 0xFFFFFFFFFFFFFFFFFFFFFFFFFFFFFFFFFFFFFFFF AND PUSH20 0xFFFFFFFFFFFFFFFFFFFFFFFFFFFFFFFFFFFFFFFF AND DUP2 MSTORE PUSH1 0x20 ADD SWAP1 DUP2 MSTORE PUSH1 0x20 ADD PUSH0 KECCAK256 PUSH0 ADD PUSH0 SWAP1 SLOAD SWAP1 PUSH2 0x100 EXP SWAP1 DIV PUSH1 0xFF AND ISZERO PUSH2 0x9F5 JUMPI PUSH1 0x40 MLOAD PUSH32 0x59A1EC4700000000000000000000000000000000000000000000000000000000 DUP2 MSTORE PUSH1 0x4 ADD PUSH1 0x40 MLOAD DUP1 SWAP2 SUB SWAP1 REVERT JUMPDEST PUSH1 0x1 DUP1 PUSH0 ADD PUSH0 DUP4 PUSH20 0xFFFFFFFFFFFFFFFFFFFFFFFFFFFFFFFFFFFFFFFF AND PUSH20 0xFFFFFFFFFFFFFFFFFFFFFFFFFFFFFFFFFFFFFFFF AND DUP2 MSTORE PUSH1 0x20 ADD SWAP1 DUP2 MSTORE PUSH1 0x20 ADD PUSH0 KECCAK256 PUSH0 ADD PUSH0 PUSH2 0x100 EXP DUP2 SLOAD DUP2 PUSH1 0xFF MUL NOT AND SWAP1 DUP4 ISZERO ISZERO MUL OR SWAP1 SSTORE POP PUSH32 0xB6BE2187D059CC2A55FE29E0E503B566E1E0F8C8780096E185429350ACFFD3DD DUP2 PUSH1 0x40 MLOAD PUSH2 0xA7C SWAP2 SWAP1 PUSH2 0x1A8C JUMP JUMPDEST PUSH1 0x40 MLOAD DUP1 SWAP2 SUB SWAP1 LOG1 POP JUMP JUMPDEST PUSH2 0xA8F PUSH2 0x11BB JUMP JUMPDEST PUSH2 0xA98 PUSH0 PUSH2 0x1242 JUMP JUMPDEST JUMP JUMPDEST PUSH2 0xAA2 PUSH2 0x11BB JUMP JUMPDEST PUSH1 0x1 PUSH1 0x5 DUP1 DUP2 GT ISZERO PUSH2 0xAB7 JUMPI PUSH2 0xAB6 PUSH2 0x1AA5 JUMP JUMPDEST JUMPDEST PUSH2 0xAC1 SWAP2 SWAP1 PUSH2 0x1ECE JUMP JUMPDEST PUSH1 0x1 PUSH1 0x3 ADD PUSH0 SWAP1 SLOAD SWAP1 PUSH2 0x100 EXP SWAP1 DIV PUSH1 0xFF AND PUSH1 0x5 DUP2 GT ISZERO PUSH2 0xAE5 JUMPI PUSH2 0xAE4 PUSH2 0x1AA5 JUMP JUMPDEST JUMPDEST LT PUSH2 0xB1C JUMPI PUSH1 0x40 MLOAD PUSH32 0x86FC57F00000000000000000000000000000000000000000000000000000000 DUP2 MSTORE PUSH1 0x4 ADD PUSH1 0x40 MLOAD DUP1 SWAP2 SUB SWAP1 REVERT JUMPDEST PUSH0 PUSH1 0x1 PUSH1 0x3 ADD PUSH0 SWAP1 SLOAD SWAP1 PUSH2 0x100 EXP SWAP1 DIV PUSH1 0xFF AND SWAP1 POP PUSH1 0x1 DUP1 PUSH1 0x3 ADD PUSH0 SWAP1 SLOAD SWAP1 PUSH2 0x100 EXP SWAP1 DIV PUSH1 0xFF AND PUSH1 0x5 DUP2 GT ISZERO PUSH2 0xB56 JUMPI PUSH2 0xB55 PUSH2 0x1AA5 JUMP JUMPDEST JUMPDEST PUSH2 0xB60 SWAP2 SWAP1 PUSH2 0x1B99 JUMP JUMPDEST PUSH1 0x5 DUP2 GT ISZERO PUSH2 0xB72 JUMPI PUSH2 0xB71 PUSH2 0x1AA5 JUMP JUMPDEST JUMPDEST PUSH1 0x1 PUSH1 0x3 ADD PUSH0 PUSH2 0x100 EXP DUP2 SLOAD DUP2 PUSH1 0xFF MUL NOT AND SWAP1 DUP4 PUSH1 0x5 DUP2 GT ISZERO PUSH2 0xB98 JUMPI PUSH2 0xB97 PUSH2 0x1AA5 JUMP JUMPDEST JUMPDEST MUL OR SWAP1 SSTORE POP PUSH32 0xA97A4EE45751E2ABF3E4FC8946939630B11B371EA8AE39CCDC3056E98F5CC3F DUP2 PUSH1 0x1 PUSH1 0x3 ADD PUSH0 SWAP1 SLOAD SWAP1 PUSH2 0x100 EXP SWAP1 DIV PUSH1 0xFF AND PUSH1 0x40 MLOAD PUSH2 0xBDF SWAP3 SWAP2 SWAP1 PUSH2 0x1B18 JUMP JUMPDEST PUSH1 0x40 MLOAD DUP1 SWAP2 SUB SWAP1 LOG1 PUSH1 0x5 DUP1 DUP2 GT ISZERO PUSH2 0xBFA JUMPI PUSH2 0xBF9 PUSH2 0x1AA5 JUMP JUMPDEST JUMPDEST PUSH1 0x1 PUSH1 0x3 ADD PUSH0 SWAP1 SLOAD SWAP1 PUSH2 0x100 EXP SWAP1 DIV PUSH1 0xFF AND PUSH1 0x5 DUP2 GT ISZERO PUSH2 0xC1E JUMPI PUSH2 0xC1D PUSH2 0x1AA5 JUMP JUMPDEST JUMPDEST SUB PUSH2 0xC2C JUMPI PUSH2 0xC2B PUSH2 0x1303 JUMP JUMPDEST JUMPDEST POP JUMP JUMPDEST PUSH1 0x60 PUSH1 0x1 PUSH0 ADD PUSH0 CALLER PUSH20 0xFFFFFFFFFFFFFFFFFFFFFFFFFFFFFFFFFFFFFFFF AND PUSH20 0xFFFFFFFFFFFFFFFFFFFFFFFFFFFFFFFFFFFFFFFF AND DUP2 MSTORE PUSH1 0x20 ADD SWAP1 DUP2 MSTORE PUSH1 0x20 ADD PUSH0 KECCAK256 PUSH0 ADD PUSH0 SWAP1 SLOAD SWAP1 PUSH2 0x100 EXP SWAP1 DIV PUSH1 0xFF AND PUSH2 0xCB5 JUMPI PUSH1 0x40 MLOAD PUSH32 0xB3E2C01600000000000000000000000000000000000000000000000000000000 DUP2 MSTORE PUSH1 0x4 ADD PUSH1 0x40 MLOAD DUP1 SWAP2 SUB SWAP1 REVERT JUMPDEST PUSH1 0x5 DUP1 DUP2 GT ISZERO PUSH2 0xCC8 JUMPI PUSH2 0xCC7 PUSH2 0x1AA5 JUMP JUMPDEST JUMPDEST PUSH1 0x1 PUSH1 0x3 ADD PUSH0 SWAP1 SLOAD SWAP1 PUSH2 0x100 EXP SWAP1 DIV PUSH1 0xFF AND PUSH1 0x5 DUP2 GT ISZERO PUSH2 0xCEC JUMPI PUSH2 0xCEB PUSH2 0x1AA5 JUMP JUMPDEST JUMPDEST EQ PUSH1 0x1 PUSH1 0x3 ADD PUSH0 SWAP1 SLOAD SWAP1 PUSH2 0x100 EXP SWAP1 DIV PUSH1 0xFF AND PUSH1 0x5 SWAP1 SWAP2 PUSH2 0xD44 JUMPI PUSH1 0x40 MLOAD PUSH32 0xE10DF3F00000000000000000000000000000000000000000000000000000000 DUP2 MSTORE PUSH1 0x4 ADD PUSH2 0xD3B SWAP3 SWAP2 SWAP1 PUSH2 0x1B18 JUMP JUMPDEST PUSH1 0x40 MLOAD DUP1 SWAP2 SUB SWAP1 REVERT JUMPDEST POP POP PUSH1 0x1 PUSH1 0x4 ADD DUP1 SLOAD DUP1 PUSH1 0x20 MUL PUSH1 0x20 ADD PUSH1 0x40 MLOAD SWAP1 DUP2 ADD PUSH1 0x40 MSTORE DUP1 SWAP3 SWAP2 SWAP1 DUP2 DUP2 MSTORE PUSH1 0x20 ADD PUSH0 SWAP1 JUMPDEST DUP3 DUP3 LT ISZERO PUSH2 0xE33 JUMPI DUP4 DUP3 SWAP1 PUSH0 MSTORE PUSH1 0x20 PUSH0 KECCAK256 SWAP1 PUSH1 0x2 MUL ADD PUSH1 0x40 MLOAD DUP1 PUSH1 0x40 ADD PUSH1 0x40 MSTORE SWAP1 DUP2 PUSH0 DUP3 ADD DUP1 SLOAD PUSH2 0xD9A SWAP1 PUSH2 0x1C2F JUMP JUMPDEST DUP1 PUSH1 0x1F ADD PUSH1 0x20 DUP1 SWAP2 DIV MUL PUSH1 0x20 ADD PUSH1 0x40 MLOAD SWAP1 DUP2 ADD PUSH1 0x40 MSTORE DUP1 SWAP3 SWAP2 SWAP1 DUP2 DUP2 MSTORE PUSH1 0x20 ADD DUP3 DUP1 SLOAD PUSH2 0xDC6 SWAP1 PUSH2 0x1C2F JUMP JUMPDEST DUP1 ISZERO PUSH2 0xE11 JUMPI DUP1 PUSH1 0x1F LT PUSH2 0xDE8 JUMPI PUSH2 0x100 DUP1 DUP4 SLOAD DIV MUL DUP4 MSTORE SWAP2 PUSH1 0x20 ADD SWAP2 PUSH2 0xE11 JUMP JUMPDEST DUP3 ADD SWAP2 SWAP1 PUSH0 MSTORE PUSH1 0x20 PUSH0 KECCAK256 SWAP1 JUMPDEST DUP2 SLOAD DUP2 MSTORE SWAP1 PUSH1 0x1 ADD SWAP1 PUSH1 0x20 ADD DUP1 DUP4 GT PUSH2 0xDF4 JUMPI DUP3 SWAP1 SUB PUSH1 0x1F AND DUP3 ADD SWAP2 JUMPDEST POP POP POP POP POP DUP2 MSTORE PUSH1 0x20 ADD PUSH1 0x1 DUP3 ADD SLOAD DUP2 MSTORE POP POP DUP2 MSTORE PUSH1 0x20 ADD SWAP1 PUSH1 0x1 ADD SWAP1 PUSH2 0xD6A JUMP JUMPDEST POP POP POP POP SWAP1 POP SWAP1 JUMP JUMPDEST PUSH2 0xE44 PUSH2 0x11BB JUMP JUMPDEST PUSH1 0x5 DUP1 DUP2 GT ISZERO PUSH2 0xE57 JUMPI PUSH2 0xE56 PUSH2 0x1AA5 JUMP JUMPDEST JUMPDEST PUSH1 0x1 PUSH1 0x3 ADD PUSH0 SWAP1 SLOAD SWAP1 PUSH2 0x100 EXP SWAP1 DIV PUSH1 0xFF AND PUSH1 0x5 DUP2 GT ISZERO PUSH2 0xE7B JUMPI PUSH2 0xE7A PUSH2 0x1AA5 JUMP JUMPDEST JUMPDEST EQ PUSH1 0x1 PUSH1 0x3 ADD PUSH0 SWAP1 SLOAD SWAP1 PUSH2 0x100 EXP SWAP1 DIV PUSH1 0xFF AND PUSH1 0x5 SWAP1 SWAP2 PUSH2 0xED3 JUMPI PUSH1 0x40 MLOAD PUSH32 0xE10DF3F00000000000000000000000000000000000000000000000000000000 DUP2 MSTORE PUSH1 0x4 ADD PUSH2 0xECA SWAP3 SWAP2 SWAP1 PUSH2 0x1B18 JUMP JUMPDEST PUSH1 0x40 MLOAD DUP1 SWAP2 SUB SWAP1 REVERT JUMPDEST POP POP PUSH1 0x6 PUSH1 0x1 DUP2 PUSH1 0x1 DUP2 SLOAD ADD DUP1 DUP3 SSTORE DUP1 SWAP2 POP POP SUB SWAP1 PUSH0 MSTORE PUSH1 0x20 PUSH0 KECCAK256 SWAP1 POP POP PUSH0 PUSH1 0x6 PUSH1 0x1 PUSH1 0x6 DUP1 SLOAD SWAP1 POP PUSH2 0xF06 SWAP2 SWAP1 PUSH2 0x1ECE JUMP JUMPDEST DUP2 SLOAD DUP2 LT PUSH2 0xF17 JUMPI PUSH2 0xF16 PUSH2 0x1B3F JUMP JUMPDEST JUMPDEST SWAP1 PUSH0 MSTORE PUSH1 0x20 PUSH0 KECCAK256 SWAP1 PUSH1 0x3 MUL ADD SWAP1 POP PUSH1 0x1 DUP1 ADD SLOAD DUP2 PUSH0 ADD DUP2 SWAP1 SSTORE POP PUSH0 PUSH0 SWAP1 POP JUMPDEST PUSH1 0x1 PUSH1 0x2 ADD DUP1 SLOAD SWAP1 POP DUP2 LT ISZERO PUSH2 0xFBF JUMPI DUP2 PUSH1 0x1 ADD PUSH1 0x1 PUSH1 0x2 ADD DUP3 DUP2 SLOAD DUP2 LT PUSH2 0xF61 JUMPI PUSH2 0xF60 PUSH2 0x1B3F JUMP JUMPDEST JUMPDEST SWAP1 PUSH0 MSTORE PUSH1 0x20 PUSH0 KECCAK256 SWAP1 PUSH1 0x2 MUL ADD SWAP1 DUP1 PUSH1 0x1 DUP2 SLOAD ADD DUP1 DUP3 SSTORE DUP1 SWAP2 POP POP PUSH1 0x1 SWAP1 SUB SWAP1 PUSH0 MSTORE PUSH1 0x20 PUSH0 KECCAK256 SWAP1 PUSH1 0x2 MUL ADD PUSH0 SWAP1 SWAP2 SWAP1 SWAP2 SWAP1 SWAP2 POP PUSH0 DUP3 ADD DUP2 PUSH0 ADD SWAP1 DUP2 PUSH2 0xFA5 SWAP2 SWAP1 PUSH2 0x1F2F JUMP JUMPDEST POP PUSH1 0x1 DUP3 ADD SLOAD DUP2 PUSH1 0x1 ADD SSTORE POP POP DUP1 DUP1 PUSH1 0x1 ADD SWAP2 POP POP PUSH2 0xF36 JUMP JUMPDEST POP PUSH0 PUSH0 SWAP1 POP JUMPDEST PUSH1 0x1 PUSH1 0x4 ADD DUP1 SLOAD SWAP1 POP DUP2 LT ISZERO PUSH2 0x104E JUMPI DUP2 PUSH1 0x2 ADD PUSH1 0x1 PUSH1 0x4 ADD DUP3 DUP2 SLOAD DUP2 LT PUSH2 0xFF0 JUMPI PUSH2 0xFEF PUSH2 0x1B3F JUMP JUMPDEST JUMPDEST SWAP1 PUSH0 MSTORE PUSH1 0x20 PUSH0 KECCAK256 SWAP1 PUSH1 0x2 MUL ADD SWAP1 DUP1 PUSH1 0x1 DUP2 SLOAD ADD DUP1 DUP3 SSTORE DUP1 SWAP2 POP POP PUSH1 0x1 SWAP1 SUB SWAP1 PUSH0 MSTORE PUSH1 0x20 PUSH0 KECCAK256 SWAP1 PUSH1 0x2 MUL ADD PUSH0 SWAP1 SWAP2 SWAP1 SWAP2 SWAP1 SWAP2 POP PUSH0 DUP3 ADD DUP2 PUSH0 ADD SWAP1 DUP2 PUSH2 0x1034 SWAP2 SWAP1 PUSH2 0x1F2F JUMP JUMPDEST POP PUSH1 0x1 DUP3 ADD SLOAD DUP2 PUSH1 0x1 ADD SSTORE POP POP DUP1 DUP1 PUSH1 0x1 ADD SWAP2 POP POP PUSH2 0xFC5 JUMP JUMPDEST POP PUSH1 0x1 PUSH0 PUSH1 0x1 DUP3 ADD PUSH0 SWAP1 SSTORE PUSH1 0x2 DUP3 ADD PUSH0 PUSH2 0x1068 SWAP2 SWAP1 PUSH2 0x14E6 JUMP JUMPDEST PUSH1 0x3 DUP3 ADD PUSH0 PUSH2 0x100 EXP DUP2 SLOAD SWAP1 PUSH1 0xFF MUL NOT AND SWAP1 SSTORE PUSH1 0x4 DUP3 ADD PUSH0 PUSH2 0x108A SWAP2 SWAP1 PUSH2 0x14E6 JUMP JUMPDEST POP POP PUSH0 PUSH1 0x1 PUSH1 0x3 ADD PUSH0 PUSH2 0x100 EXP DUP2 SLOAD DUP2 PUSH1 0xFF MUL NOT AND SWAP1 DUP4 PUSH1 0x5 DUP2 GT ISZERO PUSH2 0x10B3 JUMPI PUSH2 0x10B2 PUSH2 0x1AA5 JUMP JUMPDEST JUMPDEST MUL OR SWAP1 SSTORE POP PUSH1 0x1 PUSH1 0x6 DUP1 SLOAD SWAP1 POP PUSH2 0x10CA SWAP2 SWAP1 PUSH2 0x1ECE JUMP JUMPDEST PUSH32 0x87F1EFD3ECC2164EB03E4374AC4BFEBD5EE2D9F4785FC2F4C9C193FC132BB03F DUP3 PUSH0 ADD SLOAD DUP4 PUSH1 0x2 ADD DUP1 SLOAD SWAP1 POP PUSH1 0x40 MLOAD PUSH2 0x1105 SWAP3 SWAP2 SWAP1 PUSH2 0x2014 JUMP JUMPDEST PUSH1 0x40 MLOAD DUP1 SWAP2 SUB SWAP1 LOG2 POP JUMP JUMPDEST PUSH0 PUSH0 PUSH0 SWAP1 SLOAD SWAP1 PUSH2 0x100 EXP SWAP1 DIV PUSH20 0xFFFFFFFFFFFFFFFFFFFFFFFFFFFFFFFFFFFFFFFF AND SWAP1 POP SWAP1 JUMP JUMPDEST PUSH2 0x113F PUSH2 0x11BB JUMP JUMPDEST PUSH0 PUSH20 0xFFFFFFFFFFFFFFFFFFFFFFFFFFFFFFFFFFFFFFFF AND DUP2 PUSH20 0xFFFFFFFFFFFFFFFFFFFFFFFFFFFFFFFFFFFFFFFF AND SUB PUSH2 0x11AF JUMPI PUSH0 PUSH1 0x40 MLOAD PUSH32 0x1E4FBDF700000000000000000000000000000000000000000000000000000000 DUP2 MSTORE PUSH1 0x4 ADD PUSH2 0x11A6 SWAP2 SWAP1 PUSH2 0x1A8C JUMP JUMPDEST PUSH1 0x40 MLOAD DUP1 SWAP2 SUB SWAP1 REVERT JUMPDEST PUSH2 0x11B8 DUP2 PUSH2 0x1242 JUMP JUMPDEST POP JUMP JUMPDEST PUSH2 0x11C3 PUSH2 0x14BF JUMP JUMPDEST PUSH20 0xFFFFFFFFFFFFFFFFFFFFFFFFFFFFFFFFFFFFFFFF AND PUSH2 0x11E1 PUSH2 0x1110 JUMP JUMPDEST PUSH20 0xFFFFFFFFFFFFFFFFFFFFFFFFFFFFFFFFFFFFFFFF AND EQ PUSH2 0x1240 JUMPI PUSH2 0x1204 PUSH2 0x14BF JUMP JUMPDEST PUSH1 0x40 MLOAD PUSH32 0x118CDAA700000000000000000000000000000000000000000000000000000000 DUP2 MSTORE PUSH1 0x4 ADD PUSH2 0x1237 SWAP2 SWAP1 PUSH2 0x1A8C JUMP JUMPDEST PUSH1 0x40 MLOAD DUP1 SWAP2 SUB SWAP1 REVERT JUMPDEST JUMP JUMPDEST PUSH0 PUSH0 PUSH0 SWAP1 SLOAD SWAP1 PUSH2 0x100 EXP SWAP1 DIV PUSH20 0xFFFFFFFFFFFFFFFFFFFFFFFFFFFFFFFFFFFFFFFF AND SWAP1 POP DUP2 PUSH0 PUSH0 PUSH2 0x100 EXP DUP2 SLOAD DUP2 PUSH20 0xFFFFFFFFFFFFFFFFFFFFFFFFFFFFFFFFFFFFFFFF MUL NOT AND SWAP1 DUP4 PUSH20 0xFFFFFFFFFFFFFFFFFFFFFFFFFFFFFFFFFFFFFFFF AND MUL OR SWAP1 SSTORE POP DUP2 PUSH20 0xFFFFFFFFFFFFFFFFFFFFFFFFFFFFFFFFFFFFFFFF AND DUP2 PUSH20 0xFFFFFFFFFFFFFFFFFFFFFFFFFFFFFFFFFFFFFFFF AND PUSH32 0x8BE0079C531659141344CD1FD0A4F28419497F9722A3DAAFE3B4186F6B6457E0 PUSH1 0x40 MLOAD PUSH1 0x40 MLOAD DUP1 SWAP2 SUB SWAP1 LOG3 POP POP JUMP JUMPDEST PUSH2 0x130B PUSH2 0x11BB JUMP JUMPDEST PUSH0 PUSH0 SWAP1 POP PUSH1 0x1 PUSH1 0x4 ADD PUSH0 PUSH2 0x131F SWAP2 SWAP1 PUSH2 0x14E6 JUMP JUMPDEST PUSH0 PUSH0 SWAP1 POP JUMPDEST PUSH1 0x1 PUSH1 0x2 ADD DUP1 SLOAD SWAP1 POP DUP2 LT ISZERO PUSH2 0x147A JUMPI PUSH0 PUSH1 0x1 PUSH1 0x2 ADD DUP3 DUP2 SLOAD DUP2 LT PUSH2 0x134C JUMPI PUSH2 0x134B PUSH2 0x1B3F JUMP JUMPDEST JUMPDEST SWAP1 PUSH0 MSTORE PUSH1 0x20 PUSH0 KECCAK256 SWAP1 PUSH1 0x2 MUL ADD PUSH1 0x1 ADD SLOAD SWAP1 POP DUP3 DUP2 GT ISZERO PUSH2 0x13EB JUMPI DUP1 SWAP3 POP PUSH1 0x1 PUSH1 0x4 ADD PUSH0 PUSH2 0x1379 SWAP2 SWAP1 PUSH2 0x14E6 JUMP JUMPDEST PUSH1 0x1 PUSH1 0x4 ADD PUSH1 0x1 PUSH1 0x2 ADD DUP4 DUP2 SLOAD DUP2 LT PUSH2 0x1395 JUMPI PUSH2 0x1394 PUSH2 0x1B3F JUMP JUMPDEST JUMPDEST SWAP1 PUSH0 MSTORE PUSH1 0x20 PUSH0 KECCAK256 SWAP1 PUSH1 0x2 MUL ADD SWAP1 DUP1 PUSH1 0x1 DUP2 SLOAD ADD DUP1 DUP3 SSTORE DUP1 SWAP2 POP POP PUSH1 0x1 SWAP1 SUB SWAP1 PUSH0 MSTORE PUSH1 0x20 PUSH0 KECCAK256 SWAP1 PUSH1 0x2 MUL ADD PUSH0 SWAP1 SWAP2 SWAP1 SWAP2 SWAP1 SWAP2 POP PUSH0 DUP3 ADD DUP2 PUSH0 ADD SWAP1 DUP2 PUSH2 0x13D9 SWAP2 SWAP1 PUSH2 0x1F2F JUMP JUMPDEST POP PUSH1 0x1 DUP3 ADD SLOAD DUP2 PUSH1 0x1 ADD SSTORE POP POP PUSH2 0x146E JUMP JUMPDEST DUP3 DUP2 EQ DUP1 ISZERO PUSH2 0x13FA JUMPI POP PUSH0 DUP4 EQ ISZERO JUMPDEST ISZERO PUSH2 0x146D JUMPI PUSH1 0x1 PUSH1 0x4 ADD PUSH1 0x1 PUSH1 0x2 ADD DUP4 DUP2 SLOAD DUP2 LT PUSH2 0x141B JUMPI PUSH2 0x141A PUSH2 0x1B3F JUMP JUMPDEST JUMPDEST SWAP1 PUSH0 MSTORE PUSH1 0x20 PUSH0 KECCAK256 SWAP1 PUSH1 0x2 MUL ADD SWAP1 DUP1 PUSH1 0x1 DUP2 SLOAD ADD DUP1 DUP3 SSTORE DUP1 SWAP2 POP POP PUSH1 0x1 SWAP1 SUB SWAP1 PUSH0 MSTORE PUSH1 0x20 PUSH0 KECCAK256 SWAP1 PUSH1 0x2 MUL ADD PUSH0 SWAP1 SWAP2 SWAP1 SWAP2 SWAP1 SWAP2 POP PUSH0 DUP3 ADD DUP2 PUSH0 ADD SWAP1 DUP2 PUSH2 0x145F SWAP2 SWAP1 PUSH2 0x1F2F JUMP JUMPDEST POP PUSH1 0x1 DUP3 ADD SLOAD DUP2 PUSH1 0x1 ADD SSTORE POP POP JUMPDEST JUMPDEST POP DUP1 PUSH1 0x1 ADD SWAP1 POP PUSH2 0x1324 JUMP JUMPDEST POP PUSH32 0x45EF9B7FC34BDFCCCC29BE8BE99AB3E8F3206F5957D34325050712B5B486BDCE DUP2 PUSH1 0x1 PUSH1 0x4 ADD DUP1 SLOAD SWAP1 POP PUSH1 0x40 MLOAD PUSH2 0x14B4 SWAP3 SWAP2 SWAP1 PUSH2 0x2014 JUMP JUMPDEST PUSH1 0x40 MLOAD DUP1 SWAP2 SUB SWAP1 LOG1 POP JUMP JUMPDEST PUSH0 CALLER SWAP1 POP SWAP1 JUMP JUMPDEST PUSH1 0x40 MLOAD DUP1 PUSH1 0x60 ADD PUSH1 0x40 MSTORE DUP1 PUSH0 DUP2 MSTORE PUSH1 0x20 ADD PUSH1 0x60 DUP2 MSTORE PUSH1 0x20 ADD PUSH1 0x60 DUP2 MSTORE POP SWAP1 JUMP JUMPDEST POP DUP1 SLOAD PUSH0 DUP3 SSTORE PUSH1 0x2 MUL SWAP1 PUSH0 MSTORE PUSH1 0x20 PUSH0 KECCAK256 SWAP1 DUP2 ADD SWAP1 PUSH2 0x1504 SWAP2 SWAP1 PUSH2 0x1507 JUMP JUMPDEST POP JUMP JUMPDEST JUMPDEST DUP1 DUP3 GT ISZERO PUSH2 0x152F JUMPI PUSH0 PUSH0 DUP3 ADD PUSH0 PUSH2 0x151F SWAP2 SWAP1 PUSH2 0x1533 JUMP JUMPDEST PUSH1 0x1 DUP3 ADD PUSH0 SWAP1 SSTORE POP PUSH1 0x2 ADD PUSH2 0x1508 JUMP JUMPDEST POP SWAP1 JUMP JUMPDEST POP DUP1 SLOAD PUSH2 0x153F SWAP1 PUSH2 0x1C2F JUMP JUMPDEST PUSH0 DUP3 SSTORE DUP1 PUSH1 0x1F LT PUSH2 0x1550 JUMPI POP PUSH2 0x156D JUMP JUMPDEST PUSH1 0x1F ADD PUSH1 0x20 SWAP1 DIV SWAP1 PUSH0 MSTORE PUSH1 0x20 PUSH0 KECCAK256 SWAP1 DUP2 ADD SWAP1 PUSH2 0x156C SWAP2 SWAP1 PUSH2 0x1570 JUMP JUMPDEST JUMPDEST POP JUMP JUMPDEST JUMPDEST DUP1 DUP3 GT ISZERO PUSH2 0x1587 JUMPI PUSH0 DUP2 PUSH0 SWAP1 SSTORE POP PUSH1 0x1 ADD PUSH2 0x1571 JUMP JUMPDEST POP SWAP1 JUMP JUMPDEST PUSH0 PUSH1 0x40 MLOAD SWAP1 POP SWAP1 JUMP JUMPDEST PUSH0 PUSH0 REVERT JUMPDEST PUSH0 PUSH0 REVERT JUMPDEST PUSH0 DUP2 SWAP1 POP SWAP2 SWAP1 POP JUMP JUMPDEST PUSH2 0x15AE DUP2 PUSH2 0x159C JUMP JUMPDEST DUP2 EQ PUSH2 0x15B8 JUMPI PUSH0 PUSH0 REVERT JUMPDEST POP JUMP JUMPDEST PUSH0 DUP2 CALLDATALOAD SWAP1 POP PUSH2 0x15C9 DUP2 PUSH2 0x15A5 JUMP JUMPDEST SWAP3 SWAP2 POP POP JUMP JUMPDEST PUSH0 PUSH1 0x20 DUP3 DUP5 SUB SLT ISZERO PUSH2 0x15E4 JUMPI PUSH2 0x15E3 PUSH2 0x1594 JUMP JUMPDEST JUMPDEST PUSH0 PUSH2 0x15F1 DUP5 DUP3 DUP6 ADD PUSH2 0x15BB JUMP JUMPDEST SWAP2 POP POP SWAP3 SWAP2 POP POP JUMP JUMPDEST PUSH2 0x1603 DUP2 PUSH2 0x159C JUMP JUMPDEST DUP3 MSTORE POP POP JUMP JUMPDEST PUSH0 DUP2 MLOAD SWAP1 POP SWAP2 SWAP1 POP JUMP JUMPDEST PUSH0 DUP3 DUP3 MSTORE PUSH1 0x20 DUP3 ADD SWAP1 POP SWAP3 SWAP2 POP POP JUMP JUMPDEST PUSH0 DUP2 SWAP1 POP PUSH1 0x20 DUP3 ADD SWAP1 POP SWAP2 SWAP1 POP JUMP JUMPDEST PUSH0 DUP2 MLOAD SWAP1 POP SWAP2 SWAP1 POP JUMP JUMPDEST PUSH0 DUP3 DUP3 MSTORE PUSH1 0x20 DUP3 ADD SWAP1 POP SWAP3 SWAP2 POP POP JUMP JUMPDEST DUP3 DUP2 DUP4 MCOPY PUSH0 DUP4 DUP4 ADD MSTORE POP POP POP JUMP JUMPDEST PUSH0 PUSH1 0x1F NOT PUSH1 0x1F DUP4 ADD AND SWAP1 POP SWAP2 SWAP1 POP JUMP JUMPDEST PUSH0 PUSH2 0x1674 DUP3 PUSH2 0x1632 JUMP JUMPDEST PUSH2 0x167E DUP2 DUP6 PUSH2 0x163C JUMP JUMPDEST SWAP4 POP PUSH2 0x168E DUP2 DUP6 PUSH1 0x20 DUP7 ADD PUSH2 0x164C JUMP JUMPDEST PUSH2 0x1697 DUP2 PUSH2 0x165A JUMP JUMPDEST DUP5 ADD SWAP2 POP POP SWAP3 SWAP2 POP POP JUMP JUMPDEST PUSH0 PUSH1 0x40 DUP4 ADD PUSH0 DUP4 ADD MLOAD DUP5 DUP3 SUB PUSH0 DUP7 ADD MSTORE PUSH2 0x16BC DUP3 DUP3 PUSH2 0x166A JUMP JUMPDEST SWAP2 POP POP PUSH1 0x20 DUP4 ADD MLOAD PUSH2 0x16D1 PUSH1 0x20 DUP7 ADD DUP3 PUSH2 0x15FA JUMP JUMPDEST POP DUP1 SWAP2 POP POP SWAP3 SWAP2 POP POP JUMP JUMPDEST PUSH0 PUSH2 0x16E7 DUP4 DUP4 PUSH2 0x16A2 JUMP JUMPDEST SWAP1 POP SWAP3 SWAP2 POP POP JUMP JUMPDEST PUSH0 PUSH1 0x20 DUP3 ADD SWAP1 POP SWAP2 SWAP1 POP JUMP JUMPDEST PUSH0 PUSH2 0x1705 DUP3 PUSH2 0x1609 JUMP JUMPDEST PUSH2 0x170F DUP2 DUP6 PUSH2 0x1613 JUMP JUMPDEST SWAP4 POP DUP4 PUSH1 0x20 DUP3 MUL DUP6 ADD PUSH2 0x1721 DUP6 PUSH2 0x1623 JUMP JUMPDEST DUP1 PUSH0 JUMPDEST DUP6 DUP2 LT ISZERO PUSH2 0x175C JUMPI DUP5 DUP5 SUB DUP10 MSTORE DUP2 MLOAD PUSH2 0x173D DUP6 DUP3 PUSH2 0x16DC JUMP JUMPDEST SWAP5 POP PUSH2 0x1748 DUP4 PUSH2 0x16EF JUMP JUMPDEST SWAP3 POP PUSH1 0x20 DUP11 ADD SWAP10 POP POP PUSH1 0x1 DUP2 ADD SWAP1 POP PUSH2 0x1724 JUMP JUMPDEST POP DUP3 SWAP8 POP DUP8 SWAP6 POP POP POP POP POP POP SWAP3 SWAP2 POP POP JUMP JUMPDEST PUSH0 PUSH1 0x60 DUP4 ADD PUSH0 DUP4 ADD MLOAD PUSH2 0x1783 PUSH0 DUP7 ADD DUP3 PUSH2 0x15FA JUMP JUMPDEST POP PUSH1 0x20 DUP4 ADD MLOAD DUP5 DUP3 SUB PUSH1 0x20 DUP7 ADD MSTORE PUSH2 0x179B DUP3 DUP3 PUSH2 0x16FB JUMP JUMPDEST SWAP2 POP POP PUSH1 0x40 DUP4 ADD MLOAD DUP5 DUP3 SUB PUSH1 0x40 DUP7 ADD MSTORE PUSH2 0x17B5 DUP3 DUP3 PUSH2 0x16FB JUMP JUMPDEST SWAP2 POP POP DUP1 SWAP2 POP POP SWAP3 SWAP2 POP POP JUMP JUMPDEST PUSH0 PUSH1 0x20 DUP3 ADD SWAP1 POP DUP2 DUP2 SUB PUSH0 DUP4 ADD MSTORE PUSH2 0x17DA DUP2 DUP5 PUSH2 0x176E JUMP JUMPDEST SWAP1 POP SWAP3 SWAP2 POP POP JUMP JUMPDEST PUSH0 PUSH0 REVERT JUMPDEST PUSH0 PUSH0 REVERT JUMPDEST PUSH32 0x4E487B7100000000000000000000000000000000000000000000000000000000 PUSH0 MSTORE PUSH1 0x41 PUSH1 0x4 MSTORE PUSH1 0x24 PUSH0 REVERT JUMPDEST PUSH2 0x1820 DUP3 PUSH2 0x165A JUMP JUMPDEST DUP2 ADD DUP2 DUP2 LT PUSH8 0xFFFFFFFFFFFFFFFF DUP3 GT OR ISZERO PUSH2 0x183F JUMPI PUSH2 0x183E PUSH2 0x17EA JUMP JUMPDEST JUMPDEST DUP1 PUSH1 0x40 MSTORE POP POP POP JUMP JUMPDEST PUSH0 PUSH2 0x1851 PUSH2 0x158B JUMP JUMPDEST SWAP1 POP PUSH2 0x185D DUP3 DUP3 PUSH2 0x1817 JUMP JUMPDEST SWAP2 SWAP1 POP JUMP JUMPDEST PUSH0 PUSH8 0xFFFFFFFFFFFFFFFF DUP3 GT ISZERO PUSH2 0x187C JUMPI PUSH2 0x187B PUSH2 0x17EA JUMP JUMPDEST JUMPDEST PUSH2 0x1885 DUP3 PUSH2 0x165A JUMP JUMPDEST SWAP1 POP PUSH1 0x20 DUP2 ADD SWAP1 POP SWAP2 SWAP1 POP JUMP JUMPDEST DUP3 DUP2 DUP4 CALLDATACOPY PUSH0 DUP4 DUP4 ADD MSTORE POP POP POP JUMP JUMPDEST PUSH0 PUSH2 0x18B2 PUSH2 0x18AD DUP5 PUSH2 0x1862 JUMP JUMPDEST PUSH2 0x1848 JUMP JUMPDEST SWAP1 POP DUP3 DUP2 MSTORE PUSH1 0x20 DUP2 ADD DUP5 DUP5 DUP5 ADD GT ISZERO PUSH2 0x18CE JUMPI PUSH2 0x18CD PUSH2 0x17E6 JUMP JUMPDEST JUMPDEST PUSH2 0x18D9 DUP5 DUP3 DUP6 PUSH2 0x1892 JUMP JUMPDEST POP SWAP4 SWAP3 POP POP POP JUMP JUMPDEST PUSH0 DUP3 PUSH1 0x1F DUP4 ADD SLT PUSH2 0x18F5 JUMPI PUSH2 0x18F4 PUSH2 0x17E2 JUMP JUMPDEST JUMPDEST DUP2 CALLDATALOAD PUSH2 0x1905 DUP5 DUP3 PUSH1 0x20 DUP7 ADD PUSH2 0x18A0 JUMP JUMPDEST SWAP2 POP POP SWAP3 SWAP2 POP POP JUMP JUMPDEST PUSH0 PUSH1 0x20 DUP3 DUP5 SUB SLT ISZERO PUSH2 0x1923 JUMPI PUSH2 0x1922 PUSH2 0x1594 JUMP JUMPDEST JUMPDEST PUSH0 DUP3 ADD CALLDATALOAD PUSH8 0xFFFFFFFFFFFFFFFF DUP2 GT ISZERO PUSH2 0x1940 JUMPI PUSH2 0x193F PUSH2 0x1598 JUMP JUMPDEST JUMPDEST PUSH2 0x194C DUP5 DUP3 DUP6 ADD PUSH2 0x18E1 JUMP JUMPDEST SWAP2 POP POP SWAP3 SWAP2 POP POP JUMP JUMPDEST PUSH0 PUSH20 0xFFFFFFFFFFFFFFFFFFFFFFFFFFFFFFFFFFFFFFFF DUP3 AND SWAP1 POP SWAP2 SWAP1 POP JUMP JUMPDEST PUSH0 PUSH2 0x197E DUP3 PUSH2 0x1955 JUMP JUMPDEST SWAP1 POP SWAP2 SWAP1 POP JUMP JUMPDEST PUSH2 0x198E DUP2 PUSH2 0x1974 JUMP JUMPDEST DUP2 EQ PUSH2 0x1998 JUMPI PUSH0 PUSH0 REVERT JUMPDEST POP JUMP JUMPDEST PUSH0 DUP2 CALLDATALOAD SWAP1 POP PUSH2 0x19A9 DUP2 PUSH2 0x1985 JUMP JUMPDEST SWAP3 SWAP2 POP POP JUMP JUMPDEST PUSH0 PUSH1 0x20 DUP3 DUP5 SUB SLT ISZERO PUSH2 0x19C4 JUMPI PUSH2 0x19C3 PUSH2 0x1594 JUMP JUMPDEST JUMPDEST PUSH0 PUSH2 0x19D1 DUP5 DUP3 DUP6 ADD PUSH2 0x199B JUMP JUMPDEST SWAP2 POP POP SWAP3 SWAP2 POP POP JUMP JUMPDEST PUSH0 DUP3 DUP3 MSTORE PUSH1 0x20 DUP3 ADD SWAP1 POP SWAP3 SWAP2 POP POP JUMP JUMPDEST PUSH0 PUSH2 0x19F4 DUP3 PUSH2 0x1609 JUMP JUMPDEST PUSH2 0x19FE DUP2 DUP6 PUSH2 0x19DA JUMP JUMPDEST SWAP4 POP DUP4 PUSH1 0x20 DUP3 MUL DUP6 ADD PUSH2 0x1A10 DUP6 PUSH2 0x1623 JUMP JUMPDEST DUP1 PUSH0 JUMPDEST DUP6 DUP2 LT ISZERO PUSH2 0x1A4B JUMPI DUP5 DUP5 SUB DUP10 MSTORE DUP2 MLOAD PUSH2 0x1A2C DUP6 DUP3 PUSH2 0x16DC JUMP JUMPDEST SWAP5 POP PUSH2 0x1A37 DUP4 PUSH2 0x16EF JUMP JUMPDEST SWAP3 POP PUSH1 0x20 DUP11 ADD SWAP10 POP POP PUSH1 0x1 DUP2 ADD SWAP1 POP PUSH2 0x1A13 JUMP JUMPDEST POP DUP3 SWAP8 POP DUP8 SWAP6 POP POP POP POP POP POP SWAP3 SWAP2 POP POP JUMP JUMPDEST PUSH0 PUSH1 0x20 DUP3 ADD SWAP1 POP DUP2 DUP2 SUB PUSH0 DUP4 ADD MSTORE PUSH2 0x1A75 DUP2 DUP5 PUSH2 0x19EA JUMP JUMPDEST SWAP1 POP SWAP3 SWAP2 POP POP JUMP JUMPDEST PUSH2 0x1A86 DUP2 PUSH2 0x1974 JUMP JUMPDEST DUP3 MSTORE POP POP JUMP JUMPDEST PUSH0 PUSH1 0x20 DUP3 ADD SWAP1 POP PUSH2 0x1A9F PUSH0 DUP4 ADD DUP5 PUSH2 0x1A7D JUMP JUMPDEST SWAP3 SWAP2 POP POP JUMP JUMPDEST PUSH32 0x4E487B7100000000000000000000000000000000000000000000000000000000 PUSH0 MSTORE PUSH1 0x21 PUSH1 0x4 MSTORE PUSH1 0x24 PUSH0 REVERT JUMPDEST PUSH1 0x6 DUP2 LT PUSH2 0x1AE3 JUMPI PUSH2 0x1AE2 PUSH2 0x1AA5 JUMP JUMPDEST JUMPDEST POP JUMP JUMPDEST PUSH0 DUP2 SWAP1 POP PUSH2 0x1AF3 DUP3 PUSH2 0x1AD2 JUMP JUMPDEST SWAP2 SWAP1 POP JUMP JUMPDEST PUSH0 PUSH2 0x1B02 DUP3 PUSH2 0x1AE6 JUMP JUMPDEST SWAP1 POP SWAP2 SWAP1 POP JUMP JUMPDEST PUSH2 0x1B12 DUP2 PUSH2 0x1AF8 JUMP JUMPDEST DUP3 MSTORE POP POP JUMP JUMPDEST PUSH0 PUSH1 0x40 DUP3 ADD SWAP1 POP PUSH2 0x1B2B PUSH0 DUP4 ADD DUP6 PUSH2 0x1B09 JUMP JUMPDEST PUSH2 0x1B38 PUSH1 0x20 DUP4 ADD DUP5 PUSH2 0x1B09 JUMP JUMPDEST SWAP4 SWAP3 POP POP POP JUMP JUMPDEST PUSH32 0x4E487B7100000000000000000000000000000000000000000000000000000000 PUSH0 MSTORE PUSH1 0x32 PUSH1 0x4 MSTORE PUSH1 0x24 PUSH0 REVERT JUMPDEST PUSH32 0x4E487B7100000000000000000000000000000000000000000000000000000000 PUSH0 MSTORE PUSH1 0x11 PUSH1 0x4 MSTORE PUSH1 0x24 PUSH0 REVERT JUMPDEST PUSH0 PUSH2 0x1BA3 DUP3 PUSH2 0x159C JUMP JUMPDEST SWAP2 POP PUSH2 0x1BAE DUP4 PUSH2 0x159C JUMP JUMPDEST SWAP3 POP DUP3 DUP3 ADD SWAP1 POP DUP1 DUP3 GT ISZERO PUSH2 0x1BC6 JUMPI PUSH2 0x1BC5 PUSH2 0x1B6C JUMP JUMPDEST JUMPDEST SWAP3 SWAP2 POP POP JUMP JUMPDEST PUSH2 0x1BD5 DUP2 PUSH2 0x159C JUMP JUMPDEST DUP3 MSTORE POP POP JUMP JUMPDEST PUSH0 PUSH1 0x40 DUP3 ADD SWAP1 POP PUSH2 0x1BEE PUSH0 DUP4 ADD DUP6 PUSH2 0x1A7D JUMP JUMPDEST PUSH2 0x1BFB PUSH1 0x20 DUP4 ADD DUP5 PUSH2 0x1BCC JUMP JUMPDEST SWAP4 SWAP3 POP POP POP JUMP JUMPDEST PUSH32 0x4E487B7100000000000000000000000000000000000000000000000000000000 PUSH0 MSTORE PUSH1 0x22 PUSH1 0x4 MSTORE PUSH1 0x24 PUSH0 REVERT JUMPDEST PUSH0 PUSH1 0x2 DUP3 DIV SWAP1 POP PUSH1 0x1 DUP3 AND DUP1 PUSH2 0x1C46 JUMPI PUSH1 0x7F DUP3 AND SWAP2 POP JUMPDEST PUSH1 0x20 DUP3 LT DUP2 SUB PUSH2 0x1C59 JUMPI PUSH2 0x1C58 PUSH2 0x1C02 JUMP JUMPDEST JUMPDEST POP SWAP2 SWAP1 POP JUMP JUMPDEST PUSH0 DUP2 SWAP1 POP DUP2 PUSH0 MSTORE PUSH1 0x20 PUSH0 KECCAK256 SWAP1 POP SWAP2 SWAP1 POP JUMP JUMPDEST PUSH0 PUSH1 0x20 PUSH1 0x1F DUP4 ADD DIV SWAP1 POP SWAP2 SWAP1 POP JUMP JUMPDEST PUSH0 DUP3 DUP3 SHL SWAP1 POP SWAP3 SWAP2 POP POP JUMP JUMPDEST PUSH0 PUSH1 0x8 DUP4 MUL PUSH2 0x1CBB PUSH32 0xFFFFFFFFFFFFFFFFFFFFFFFFFFFFFFFFFFFFFFFFFFFFFFFFFFFFFFFFFFFFFFFF DUP3 PUSH2 0x1C80 JUMP JUMPDEST PUSH2 0x1CC5 DUP7 DUP4 PUSH2 0x1C80 JUMP JUMPDEST SWAP6 POP DUP1 NOT DUP5 AND SWAP4 POP DUP1 DUP7 AND DUP5 OR SWAP3 POP POP POP SWAP4 SWAP3 POP POP POP JUMP JUMPDEST PUSH0 DUP2 SWAP1 POP SWAP2 SWAP1 POP JUMP JUMPDEST PUSH0 PUSH2 0x1D00 PUSH2 0x1CFB PUSH2 0x1CF6 DUP5 PUSH2 0x159C JUMP JUMPDEST PUSH2 0x1CDD JUMP JUMPDEST PUSH2 0x159C JUMP JUMPDEST SWAP1 POP SWAP2 SWAP1 POP JUMP JUMPDEST PUSH0 DUP2 SWAP1 POP SWAP2 SWAP1 POP JUMP JUMPDEST PUSH2 0x1D19 DUP4 PUSH2 0x1CE6 JUMP JUMPDEST PUSH2 0x1D2D PUSH2 0x1D25 DUP3 PUSH2 0x1D07 JUMP JUMPDEST DUP5 DUP5 SLOAD PUSH2 0x1C8C JUMP JUMPDEST DUP3 SSTORE POP POP POP POP JUMP JUMPDEST PUSH0 PUSH0 SWAP1 POP SWAP1 JUMP JUMPDEST PUSH2 0x1D44 PUSH2 0x1D35 JUMP JUMPDEST PUSH2 0x1D4F DUP2 DUP5 DUP5 PUSH2 0x1D10 JUMP JUMPDEST POP POP POP JUMP JUMPDEST JUMPDEST DUP2 DUP2 LT ISZERO PUSH2 0x1D72 JUMPI PUSH2 0x1D67 PUSH0 DUP3 PUSH2 0x1D3C JUMP JUMPDEST PUSH1 0x1 DUP2 ADD SWAP1 POP PUSH2 0x1D55 JUMP JUMPDEST POP POP JUMP JUMPDEST PUSH1 0x1F DUP3 GT ISZERO PUSH2 0x1DB7 JUMPI PUSH2 0x1D88 DUP2 PUSH2 0x1C5F JUMP JUMPDEST PUSH2 0x1D91 DUP5 PUSH2 0x1C71 JUMP JUMPDEST DUP2 ADD PUSH1 0x20 DUP6 LT ISZERO PUSH2 0x1DA0 JUMPI DUP2 SWAP1 POP JUMPDEST PUSH2 0x1DB4 PUSH2 0x1DAC DUP6 PUSH2 0x1C71 JUMP JUMPDEST DUP4 ADD DUP3 PUSH2 0x1D54 JUMP JUMPDEST POP POP JUMPDEST POP POP POP JUMP JUMPDEST PUSH0 DUP3 DUP3 SHR SWAP1 POP SWAP3 SWAP2 POP POP JUMP JUMPDEST PUSH0 PUSH2 0x1DD7 PUSH0 NOT DUP5 PUSH1 0x8 MUL PUSH2 0x1DBC JUMP JUMPDEST NOT DUP1 DUP4 AND SWAP2 POP POP SWAP3 SWAP2 POP POP JUMP JUMPDEST PUSH0 PUSH2 0x1DEF DUP4 DUP4 PUSH2 0x1DC8 JUMP JUMPDEST SWAP2 POP DUP3 PUSH1 0x2 MUL DUP3 OR SWAP1 POP SWAP3 SWAP2 POP POP JUMP JUMPDEST PUSH2 0x1E08 DUP3 PUSH2 0x1632 JUMP JUMPDEST PUSH8 0xFFFFFFFFFFFFFFFF DUP2 GT ISZERO PUSH2 0x1E21 JUMPI PUSH2 0x1E20 PUSH2 0x17EA JUMP JUMPDEST JUMPDEST PUSH2 0x1E2B DUP3 SLOAD PUSH2 0x1C2F JUMP JUMPDEST PUSH2 0x1E36 DUP3 DUP3 DUP6 PUSH2 0x1D76 JUMP JUMPDEST PUSH0 PUSH1 0x20 SWAP1 POP PUSH1 0x1F DUP4 GT PUSH1 0x1 DUP2 EQ PUSH2 0x1E67 JUMPI PUSH0 DUP5 ISZERO PUSH2 0x1E55 JUMPI DUP3 DUP8 ADD MLOAD SWAP1 POP JUMPDEST PUSH2 0x1E5F DUP6 DUP3 PUSH2 0x1DE4 JUMP JUMPDEST DUP7 SSTORE POP PUSH2 0x1EC6 JUMP JUMPDEST PUSH1 0x1F NOT DUP5 AND PUSH2 0x1E75 DUP7 PUSH2 0x1C5F JUMP JUMPDEST PUSH0 JUMPDEST DUP3 DUP2 LT ISZERO PUSH2 0x1E9C JUMPI DUP5 DUP10 ADD MLOAD DUP3 SSTORE PUSH1 0x1 DUP3 ADD SWAP2 POP PUSH1 0x20 DUP6 ADD SWAP5 POP PUSH1 0x20 DUP2 ADD SWAP1 POP PUSH2 0x1E77 JUMP JUMPDEST DUP7 DUP4 LT ISZERO PUSH2 0x1EB9 JUMPI DUP5 DUP10 ADD MLOAD PUSH2 0x1EB5 PUSH1 0x1F DUP10 AND DUP3 PUSH2 0x1DC8 JUMP JUMPDEST DUP4 SSTORE POP JUMPDEST PUSH1 0x1 PUSH1 0x2 DUP9 MUL ADD DUP9 SSTORE POP POP POP JUMPDEST POP POP POP POP POP POP JUMP JUMPDEST PUSH0 PUSH2 0x1ED8 DUP3 PUSH2 0x159C JUMP JUMPDEST SWAP2 POP PUSH2 0x1EE3 DUP4 PUSH2 0x159C JUMP JUMPDEST SWAP3 POP DUP3 DUP3 SUB SWAP1 POP DUP2 DUP2 GT ISZERO PUSH2 0x1EFB JUMPI PUSH2 0x1EFA PUSH2 0x1B6C JUMP JUMPDEST JUMPDEST SWAP3 SWAP2 POP POP JUMP JUMPDEST PUSH0 PUSH1 0x20 DUP3 ADD SWAP1 POP PUSH2 0x1F14 PUSH0 DUP4 ADD DUP5 PUSH2 0x1BCC JUMP JUMPDEST SWAP3 SWAP2 POP POP JUMP JUMPDEST PUSH0 DUP2 SLOAD SWAP1 POP PUSH2 0x1F28 DUP2 PUSH2 0x1C2F JUMP JUMPDEST SWAP1 POP SWAP2 SWAP1 POP JUMP JUMPDEST DUP2 DUP2 SUB PUSH2 0x1F3D JUMPI POP POP PUSH2 0x2012 JUMP JUMPDEST PUSH2 0x1F46 DUP3 PUSH2 0x1F1A JUMP JUMPDEST PUSH8 0xFFFFFFFFFFFFFFFF DUP2 GT ISZERO PUSH2 0x1F5F JUMPI PUSH2 0x1F5E PUSH2 0x17EA JUMP JUMPDEST JUMPDEST PUSH2 0x1F69 DUP3 SLOAD PUSH2 0x1C2F JUMP JUMPDEST PUSH2 0x1F74 DUP3 DUP3 DUP6 PUSH2 0x1D76 JUMP JUMPDEST PUSH0 PUSH1 0x1F DUP4 GT PUSH1 0x1 DUP2 EQ PUSH2 0x1FA1 JUMPI PUSH0 DUP5 ISZERO PUSH2 0x1F8F JUMPI DUP3 DUP8 ADD SLOAD SWAP1 POP JUMPDEST PUSH2 0x1F99 DUP6 DUP3 PUSH2 0x1DE4 JUMP JUMPDEST DUP7 SSTORE POP PUSH2 0x200B JUMP JUMPDEST PUSH1 0x1F NOT DUP5 AND PUSH2 0x1FAF DUP8 PUSH2 0x1C5F JUMP JUMPDEST SWAP7 POP PUSH2 0x1FBA DUP7 PUSH2 0x1C5F JUMP JUMPDEST PUSH0 JUMPDEST DUP3 DUP2 LT ISZERO PUSH2 0x1FE1 JUMPI DUP5 DUP10 ADD SLOAD DUP3 SSTORE PUSH1 0x1 DUP3 ADD SWAP2 POP PUSH1 0x1 DUP6 ADD SWAP5 POP PUSH1 0x20 DUP2 ADD SWAP1 POP PUSH2 0x1FBC JUMP JUMPDEST DUP7 DUP4 LT ISZERO PUSH2 0x1FFE JUMPI DUP5 DUP10 ADD SLOAD PUSH2 0x1FFA PUSH1 0x1F DUP10 AND DUP3 PUSH2 0x1DC8 JUMP JUMPDEST DUP4 SSTORE POP JUMPDEST PUSH1 0x1 PUSH1 0x2 DUP9 MUL ADD DUP9 SSTORE POP POP POP JUMPDEST POP POP POP POP POP POP JUMPDEST JUMP JUMPDEST PUSH0 PUSH1 0x40 DUP3 ADD SWAP1 POP PUSH2 0x2027 PUSH0 DUP4 ADD DUP6 PUSH2 0x1BCC JUMP JUMPDEST PUSH2 0x2034 PUSH1 0x20 DUP4 ADD DUP5 PUSH2 0x1BCC JUMP JUMPDEST SWAP4 SWAP3 POP POP POP JUMP INVALID LOG2 PUSH5 0x6970667358 0x22 SLT KECCAK256 0xBF PUSH27 0xF437850AAB8E309064F956DA0AF9F8FF5552A5AD2CA7CAE973B24B PUSH20 0xB45464736F6C634300081E003300000000000000 "
				},
				"gasEstimates": {
					"creation": {
						"codeDepositCost": "1661000",
						"executionCost": "infinite",
						"totalCost": "infinite"
					},
					"external": {
						"getPastVote(uint256)": "infinite",
						"getVoteResults()": "infinite",
						"nextWorkflowStatus()": "infinite",
						"owner()": "2580",
						"registerProposal(string)": "infinite",
						"registerVoter(address)": "infinite",
						"renounceOwnership()": "infinite",
						"resetVotingState()": "infinite",
						"transferOwnership(address)": "infinite",
						"vote(uint256)": "infinite"
					},
					"internal": {
						"tallyVotes()": "infinite"
					}
				},
				"methodIdentifiers": {
					"getPastVote(uint256)": "23edca11",
					"getVoteResults()": "86a66dc3",
					"nextWorkflowStatus()": "75406284",
					"owner()": "8da5cb5b",
					"registerProposal(string)": "2f95355b",
					"registerVoter(address)": "38db6dd3",
					"renounceOwnership()": "715018a6",
					"resetVotingState()": "8b5df08d",
					"transferOwnership(address)": "f2fde38b",
					"vote(uint256)": "0121b93f"
				}
			},
			"storageLayout": {
				"storage": [
					{
						"astId": 8,
						"contract": "contracts/Voting.sol:Voting",
						"label": "_owner",
						"offset": 0,
						"slot": "0",
						"type": "t_address"
					},
					{
						"astId": 294,
						"contract": "contracts/Voting.sol:Voting",
						"label": "currentVote",
						"offset": 0,
						"slot": "1",
						"type": "t_struct(VotingState)280_storage"
					},
					{
						"astId": 298,
						"contract": "contracts/Voting.sol:Voting",
						"label": "pastVotes",
						"offset": 0,
						"slot": "6",
						"type": "t_array(t_struct(VotingSummary)291_storage)dyn_storage"
					}
				],
				"types": {
					"t_address": {
						"encoding": "inplace",
						"label": "address",
						"numberOfBytes": "20"
					},
					"t_array(t_struct(Proposal)254_storage)dyn_storage": {
						"base": "t_struct(Proposal)254_storage",
						"encoding": "dynamic_array",
						"label": "struct Voting.Proposal[]",
						"numberOfBytes": "32"
					},
					"t_array(t_struct(VotingSummary)291_storage)dyn_storage": {
						"base": "t_struct(VotingSummary)291_storage",
						"encoding": "dynamic_array",
						"label": "struct Voting.VotingSummary[]",
						"numberOfBytes": "32"
					},
					"t_bool": {
						"encoding": "inplace",
						"label": "bool",
						"numberOfBytes": "1"
					},
					"t_enum(WorkflowStatus)261": {
						"encoding": "inplace",
						"label": "enum Voting.WorkflowStatus",
						"numberOfBytes": "1"
					},
					"t_mapping(t_address,t_struct(Voter)249_storage)": {
						"encoding": "mapping",
						"key": "t_address",
						"label": "mapping(address => struct Voting.Voter)",
						"numberOfBytes": "32",
						"value": "t_struct(Voter)249_storage"
					},
					"t_string_storage": {
						"encoding": "bytes",
						"label": "string",
						"numberOfBytes": "32"
					},
					"t_struct(Proposal)254_storage": {
						"encoding": "inplace",
						"label": "struct Voting.Proposal",
						"members": [
							{
								"astId": 251,
								"contract": "contracts/Voting.sol:Voting",
								"label": "description",
								"offset": 0,
								"slot": "0",
								"type": "t_string_storage"
							},
							{
								"astId": 253,
								"contract": "contracts/Voting.sol:Voting",
								"label": "voteCount",
								"offset": 0,
								"slot": "1",
								"type": "t_uint256"
							}
						],
						"numberOfBytes": "64"
					},
					"t_struct(Voter)249_storage": {
						"encoding": "inplace",
						"label": "struct Voting.Voter",
						"members": [
							{
								"astId": 244,
								"contract": "contracts/Voting.sol:Voting",
								"label": "isRegistered",
								"offset": 0,
								"slot": "0",
								"type": "t_bool"
							},
							{
								"astId": 246,
								"contract": "contracts/Voting.sol:Voting",
								"label": "hasVoted",
								"offset": 1,
								"slot": "0",
								"type": "t_bool"
							},
							{
								"astId": 248,
								"contract": "contracts/Voting.sol:Voting",
								"label": "votedProposalId",
								"offset": 0,
								"slot": "1",
								"type": "t_uint256"
							}
						],
						"numberOfBytes": "64"
					},
					"t_struct(VotingState)280_storage": {
						"encoding": "inplace",
						"label": "struct Voting.VotingState",
						"members": [
							{
								"astId": 266,
								"contract": "contracts/Voting.sol:Voting",
								"label": "voters",
								"offset": 0,
								"slot": "0",
								"type": "t_mapping(t_address,t_struct(Voter)249_storage)"
							},
							{
								"astId": 268,
								"contract": "contracts/Voting.sol:Voting",
								"label": "totalVotesCount",
								"offset": 0,
								"slot": "1",
								"type": "t_uint256"
							},
							{
								"astId": 272,
								"contract": "contracts/Voting.sol:Voting",
								"label": "proposals",
								"offset": 0,
								"slot": "2",
								"type": "t_array(t_struct(Proposal)254_storage)dyn_storage"
							},
							{
								"astId": 275,
								"contract": "contracts/Voting.sol:Voting",
								"label": "status",
								"offset": 0,
								"slot": "3",
								"type": "t_enum(WorkflowStatus)261"
							},
							{
								"astId": 279,
								"contract": "contracts/Voting.sol:Voting",
								"label": "winningProposals",
								"offset": 0,
								"slot": "4",
								"type": "t_array(t_struct(Proposal)254_storage)dyn_storage"
							}
						],
						"numberOfBytes": "160"
					},
					"t_struct(VotingSummary)291_storage": {
						"encoding": "inplace",
						"label": "struct Voting.VotingSummary",
						"members": [
							{
								"astId": 282,
								"contract": "contracts/Voting.sol:Voting",
								"label": "totalVotesCount",
								"offset": 0,
								"slot": "0",
								"type": "t_uint256"
							},
							{
								"astId": 286,
								"contract": "contracts/Voting.sol:Voting",
								"label": "proposals",
								"offset": 0,
								"slot": "1",
								"type": "t_array(t_struct(Proposal)254_storage)dyn_storage"
							},
							{
								"astId": 290,
								"contract": "contracts/Voting.sol:Voting",
								"label": "winningProposals",
								"offset": 0,
								"slot": "2",
								"type": "t_array(t_struct(Proposal)254_storage)dyn_storage"
							}
						],
						"numberOfBytes": "96"
					},
					"t_uint256": {
						"encoding": "inplace",
						"label": "uint256",
						"numberOfBytes": "32"
					}
				}
			},
			"userdoc": {
				"kind": "user",
				"methods": {
					"getVoteResults()": {
						"notice": "This function is to access the vote results Only available to registered voters"
					},
					"nextWorkflowStatus()": {
						"notice": "This function is for updating the status of the voting workflow Only available to the contract owner"
					},
					"registerProposal(string)": {
						"notice": "This function is to add voting proposal for the upcoming vote Only available to registered voters"
					},
					"registerVoter(address)": {
						"notice": "This function is for registering voter  Only available to the contract owner"
					},
					"vote(uint256)": {
						"notice": "This function is to vote for a proposal Only available to registered voters"
					}
				},
				"version": 1
			}
		}
	}
}