{
	"contracts/Voting.sol": {
		"Voting": {
			"abi": [
				{
					"inputs": [],
					"stateMutability": "nonpayable",
					"type": "constructor"
				},
				{
					"inputs": [],
					"name": "HasAlreadyVoted",
					"type": "error"
				},
				{
					"inputs": [],
					"name": "InvalidProposalID",
					"type": "error"
				},
				{
					"inputs": [
						{
							"internalType": "enum Voting.WorkflowStatus",
							"name": "current",
							"type": "uint8"
						},
						{
							"internalType": "enum Voting.WorkflowStatus",
							"name": "expected",
							"type": "uint8"
						}
					],
					"name": "InvalidWorkflowStatus",
					"type": "error"
				},
				{
					"inputs": [
						{
							"internalType": "address",
							"name": "owner",
							"type": "address"
						}
					],
					"name": "OwnableInvalidOwner",
					"type": "error"
				},
				{
					"inputs": [
						{
							"internalType": "address",
							"name": "account",
							"type": "address"
						}
					],
					"name": "OwnableUnauthorizedAccount",
					"type": "error"
				},
				{
					"inputs": [],
					"name": "VoterAddressNotAllowed",
					"type": "error"
				},
				{
					"inputs": [],
					"name": "VoterAlreadyRegistered",
					"type": "error"
				},
				{
					"inputs": [],
					"name": "WorkflowAlreadyEnded",
					"type": "error"
				},
				{
					"anonymous": false,
					"inputs": [
						{
							"indexed": true,
							"internalType": "address",
							"name": "previousOwner",
							"type": "address"
						},
						{
							"indexed": true,
							"internalType": "address",
							"name": "newOwner",
							"type": "address"
						}
					],
					"name": "OwnershipTransferred",
					"type": "event"
				},
				{
					"anonymous": false,
					"inputs": [
						{
							"indexed": false,
							"internalType": "uint256",
							"name": "proposalId",
							"type": "uint256"
						}
					],
					"name": "ProposalRegistered",
					"type": "event"
				},
				{
					"anonymous": false,
					"inputs": [
						{
							"indexed": false,
							"internalType": "address",
							"name": "voter",
							"type": "address"
						},
						{
							"indexed": false,
							"internalType": "uint256",
							"name": "proposalId",
							"type": "uint256"
						}
					],
					"name": "Voted",
					"type": "event"
				},
				{
					"anonymous": false,
					"inputs": [
						{
							"indexed": false,
							"internalType": "address",
							"name": "voterAddress",
							"type": "address"
						}
					],
					"name": "VoterRegistered",
					"type": "event"
				},
				{
					"anonymous": false,
					"inputs": [
						{
							"indexed": false,
							"internalType": "enum Voting.WorkflowStatus",
							"name": "previousStatus",
							"type": "uint8"
						},
						{
							"indexed": false,
							"internalType": "enum Voting.WorkflowStatus",
							"name": "newStatus",
							"type": "uint8"
						}
					],
					"name": "WorkflowStatusChange",
					"type": "event"
				},
				{
					"inputs": [],
					"name": "nextWorkflowStatus",
					"outputs": [],
					"stateMutability": "nonpayable",
					"type": "function"
				},
				{
					"inputs": [],
					"name": "owner",
					"outputs": [
						{
							"internalType": "address",
							"name": "",
							"type": "address"
						}
					],
					"stateMutability": "view",
					"type": "function"
				},
				{
					"inputs": [
						{
							"internalType": "string",
							"name": "_description",
							"type": "string"
						}
					],
					"name": "registerProposal",
					"outputs": [],
					"stateMutability": "nonpayable",
					"type": "function"
				},
				{
					"inputs": [
						{
							"internalType": "address",
							"name": "_address",
							"type": "address"
						}
					],
					"name": "registerVoter",
					"outputs": [],
					"stateMutability": "nonpayable",
					"type": "function"
				},
				{
					"inputs": [],
					"name": "renounceOwnership",
					"outputs": [],
					"stateMutability": "nonpayable",
					"type": "function"
				},
				{
					"inputs": [
						{
							"internalType": "address",
							"name": "newOwner",
							"type": "address"
						}
					],
					"name": "transferOwnership",
					"outputs": [],
					"stateMutability": "nonpayable",
					"type": "function"
				},
				{
					"inputs": [
						{
							"internalType": "uint256",
							"name": "_proposalId",
							"type": "uint256"
						}
					],
					"name": "vote",
					"outputs": [],
					"stateMutability": "nonpayable",
					"type": "function"
				}
			],
			"devdoc": {
				"errors": {
					"OwnableInvalidOwner(address)": [
						{
							"details": "The owner is not a valid owner account. (eg. `address(0)`)"
						}
					],
					"OwnableUnauthorizedAccount(address)": [
						{
							"details": "The caller account is not authorized to perform an operation."
						}
					]
				},
				"kind": "dev",
				"methods": {
					"owner()": {
						"details": "Returns the address of the current owner."
					},
					"renounceOwnership()": {
						"details": "Leaves the contract without owner. It will not be possible to call `onlyOwner` functions. Can only be called by the current owner. NOTE: Renouncing ownership will leave the contract without an owner, thereby disabling any functionality that is only available to the owner."
					},
					"transferOwnership(address)": {
						"details": "Transfers ownership of the contract to a new account (`newOwner`). Can only be called by the current owner."
					}
				},
				"title": "Voting System",
				"version": 1
			},
			"evm": {
				"assembly": "    /* \"contracts/Voting.sol\":424:4226  contract Voting is Ownable {... */\n  mstore(0x40, 0x80)\n    /* \"contracts/Voting.sol\":1342:1448  constructor() Ownable(msg.sender) {... */\n  callvalue\n  dup1\n  iszero\n  tag_1\n  jumpi\n  revert(0x00, 0x00)\ntag_1:\n  pop\n    /* \"contracts/Voting.sol\":1364:1374  msg.sender */\n  caller\n    /* \"@openzeppelin/contracts/access/Ownable.sol\":1297:1298  0 */\n  0x00\n    /* \"@openzeppelin/contracts/access/Ownable.sol\":1273:1299  initialOwner == address(0) */\n  0xffffffffffffffffffffffffffffffffffffffff\n  and\n    /* \"@openzeppelin/contracts/access/Ownable.sol\":1273:1285  initialOwner */\n  dup2\n    /* \"@openzeppelin/contracts/access/Ownable.sol\":1273:1299  initialOwner == address(0) */\n  0xffffffffffffffffffffffffffffffffffffffff\n  and\n  sub\n    /* \"@openzeppelin/contracts/access/Ownable.sol\":1269:1364  if (initialOwner == address(0)) {... */\n  tag_5\n  jumpi\n    /* \"@openzeppelin/contracts/access/Ownable.sol\":1350:1351  0 */\n  0x00\n    /* \"@openzeppelin/contracts/access/Ownable.sol\":1322:1353  OwnableInvalidOwner(address(0)) */\n  mload(0x40)\n  0x1e4fbdf700000000000000000000000000000000000000000000000000000000\n  dup2\n  mstore\n  0x04\n  add\n  tag_6\n  swap2\n  swap1\n  tag_7\n  jump\t// in\ntag_6:\n  mload(0x40)\n  dup1\n  swap2\n  sub\n  swap1\n  revert\n    /* \"@openzeppelin/contracts/access/Ownable.sol\":1269:1364  if (initialOwner == address(0)) {... */\ntag_5:\n    /* \"@openzeppelin/contracts/access/Ownable.sol\":1373:1405  _transferOwnership(initialOwner) */\n  tag_8\n    /* \"@openzeppelin/contracts/access/Ownable.sol\":1392:1404  initialOwner */\n  dup2\n    /* \"@openzeppelin/contracts/access/Ownable.sol\":1373:1391  _transferOwnership */\n  shl(0x20, tag_9)\n    /* \"@openzeppelin/contracts/access/Ownable.sol\":1373:1405  _transferOwnership(initialOwner) */\n  0x20\n  shr\n  jump\t// in\ntag_8:\n    /* \"@openzeppelin/contracts/access/Ownable.sol\":1225:1412  constructor(address initialOwner) {... */\n  pop\n    /* \"contracts/Voting.sol\":1409:1441  WorkflowStatus.RegisteringVoters */\n  0x00\n    /* \"contracts/Voting.sol\":1386:1399  currentVoting */\n  0x01\n    /* \"contracts/Voting.sol\":1386:1406  currentVoting.status */\n  0x02\n  add\n  0x00\n    /* \"contracts/Voting.sol\":1386:1441  currentVoting.status = WorkflowStatus.RegisteringVoters */\n  0x0100\n  exp\n  dup2\n  sload\n  dup2\n  0xff\n  mul\n  not\n  and\n  swap1\n  dup4\n  0x05\n  dup2\n  gt\n  iszero\n  tag_11\n  jumpi\n  tag_12\n  tag_13\n  jump\t// in\ntag_12:\ntag_11:\n  mul\n  or\n  swap1\n  sstore\n  pop\n    /* \"contracts/Voting.sol\":424:4226  contract Voting is Ownable {... */\n  jump(tag_14)\n    /* \"@openzeppelin/contracts/access/Ownable.sol\":2912:3099  function _transferOwnership(address newOwner) internal virtual {... */\ntag_9:\n    /* \"@openzeppelin/contracts/access/Ownable.sol\":2985:3001  address oldOwner */\n  0x00\n    /* \"@openzeppelin/contracts/access/Ownable.sol\":3004:3010  _owner */\n  0x00\n  0x00\n  swap1\n  sload\n  swap1\n  0x0100\n  exp\n  swap1\n  div\n  0xffffffffffffffffffffffffffffffffffffffff\n  and\n    /* \"@openzeppelin/contracts/access/Ownable.sol\":2985:3010  address oldOwner = _owner */\n  swap1\n  pop\n    /* \"@openzeppelin/contracts/access/Ownable.sol\":3029:3037  newOwner */\n  dup2\n    /* \"@openzeppelin/contracts/access/Ownable.sol\":3020:3026  _owner */\n  0x00\n  0x00\n    /* \"@openzeppelin/contracts/access/Ownable.sol\":3020:3037  _owner = newOwner */\n  0x0100\n  exp\n  dup2\n  sload\n  dup2\n  0xffffffffffffffffffffffffffffffffffffffff\n  mul\n  not\n  and\n  swap1\n  dup4\n  0xffffffffffffffffffffffffffffffffffffffff\n  and\n  mul\n  or\n  swap1\n  sstore\n  pop\n    /* \"@openzeppelin/contracts/access/Ownable.sol\":3083:3091  newOwner */\n  dup2\n    /* \"@openzeppelin/contracts/access/Ownable.sol\":3052:3092  OwnershipTransferred(oldOwner, newOwner) */\n  0xffffffffffffffffffffffffffffffffffffffff\n  and\n    /* \"@openzeppelin/contracts/access/Ownable.sol\":3073:3081  oldOwner */\n  dup2\n    /* \"@openzeppelin/contracts/access/Ownable.sol\":3052:3092  OwnershipTransferred(oldOwner, newOwner) */\n  0xffffffffffffffffffffffffffffffffffffffff\n  and\n  0x8be0079c531659141344cd1fd0a4f28419497f9722a3daafe3b4186f6b6457e0\n  mload(0x40)\n  mload(0x40)\n  dup1\n  swap2\n  sub\n  swap1\n  log3\n    /* \"@openzeppelin/contracts/access/Ownable.sol\":2975:3099  {... */\n  pop\n    /* \"@openzeppelin/contracts/access/Ownable.sol\":2912:3099  function _transferOwnership(address newOwner) internal virtual {... */\n  pop\n  jump\t// out\n    /* \"#utility.yul\":7:133   */\ntag_16:\n    /* \"#utility.yul\":44:51   */\n  0x00\n    /* \"#utility.yul\":84:126   */\n  0xffffffffffffffffffffffffffffffffffffffff\n    /* \"#utility.yul\":77:82   */\n  dup3\n    /* \"#utility.yul\":73:127   */\n  and\n    /* \"#utility.yul\":62:127   */\n  swap1\n  pop\n    /* \"#utility.yul\":7:133   */\n  swap2\n  swap1\n  pop\n  jump\t// out\n    /* \"#utility.yul\":139:235   */\ntag_17:\n    /* \"#utility.yul\":176:183   */\n  0x00\n    /* \"#utility.yul\":205:229   */\n  tag_22\n    /* \"#utility.yul\":223:228   */\n  dup3\n    /* \"#utility.yul\":205:229   */\n  tag_16\n  jump\t// in\ntag_22:\n    /* \"#utility.yul\":194:229   */\n  swap1\n  pop\n    /* \"#utility.yul\":139:235   */\n  swap2\n  swap1\n  pop\n  jump\t// out\n    /* \"#utility.yul\":241:359   */\ntag_18:\n    /* \"#utility.yul\":328:352   */\n  tag_24\n    /* \"#utility.yul\":346:351   */\n  dup2\n    /* \"#utility.yul\":328:352   */\n  tag_17\n  jump\t// in\ntag_24:\n    /* \"#utility.yul\":323:326   */\n  dup3\n    /* \"#utility.yul\":316:353   */\n  mstore\n    /* \"#utility.yul\":241:359   */\n  pop\n  pop\n  jump\t// out\n    /* \"#utility.yul\":365:587   */\ntag_7:\n    /* \"#utility.yul\":458:462   */\n  0x00\n    /* \"#utility.yul\":496:498   */\n  0x20\n    /* \"#utility.yul\":485:494   */\n  dup3\n    /* \"#utility.yul\":481:499   */\n  add\n    /* \"#utility.yul\":473:499   */\n  swap1\n  pop\n    /* \"#utility.yul\":509:580   */\n  tag_26\n    /* \"#utility.yul\":577:578   */\n  0x00\n    /* \"#utility.yul\":566:575   */\n  dup4\n    /* \"#utility.yul\":562:579   */\n  add\n    /* \"#utility.yul\":553:559   */\n  dup5\n    /* \"#utility.yul\":509:580   */\n  tag_18\n  jump\t// in\ntag_26:\n    /* \"#utility.yul\":365:587   */\n  swap3\n  swap2\n  pop\n  pop\n  jump\t// out\n    /* \"#utility.yul\":593:773   */\ntag_13:\n    /* \"#utility.yul\":641:718   */\n  0x4e487b7100000000000000000000000000000000000000000000000000000000\n    /* \"#utility.yul\":638:639   */\n  0x00\n    /* \"#utility.yul\":631:719   */\n  mstore\n    /* \"#utility.yul\":738:742   */\n  0x21\n    /* \"#utility.yul\":735:736   */\n  0x04\n    /* \"#utility.yul\":728:743   */\n  mstore\n    /* \"#utility.yul\":762:766   */\n  0x24\n    /* \"#utility.yul\":759:760   */\n  0x00\n    /* \"#utility.yul\":752:767   */\n  revert\n    /* \"contracts/Voting.sol\":424:4226  contract Voting is Ownable {... */\ntag_14:\n  dataSize(sub_0)\n  dup1\n  dataOffset(sub_0)\n  0x00\n  codecopy\n  0x00\n  return\nstop\n\nsub_0: assembly {\n        /* \"contracts/Voting.sol\":424:4226  contract Voting is Ownable {... */\n      mstore(0x40, 0x80)\n      callvalue\n      dup1\n      iszero\n      tag_1\n      jumpi\n      revert(0x00, 0x00)\n    tag_1:\n      pop\n      jumpi(tag_2, lt(calldatasize, 0x04))\n      shr(0xe0, calldataload(0x00))\n      dup1\n      0x715018a6\n      gt\n      tag_10\n      jumpi\n      dup1\n      0x715018a6\n      eq\n      tag_6\n      jumpi\n      dup1\n      0x75406284\n      eq\n      tag_7\n      jumpi\n      dup1\n      0x8da5cb5b\n      eq\n      tag_8\n      jumpi\n      dup1\n      0xf2fde38b\n      eq\n      tag_9\n      jumpi\n      jump(tag_2)\n    tag_10:\n      dup1\n      0x0121b93f\n      eq\n      tag_3\n      jumpi\n      dup1\n      0x2f95355b\n      eq\n      tag_4\n      jumpi\n      dup1\n      0x38db6dd3\n      eq\n      tag_5\n      jumpi\n    tag_2:\n      revert(0x00, 0x00)\n        /* \"contracts/Voting.sol\":3494:4222  function vote(uint256 _proposalId) external allowedVoter {... */\n    tag_3:\n      tag_11\n      0x04\n      dup1\n      calldatasize\n      sub\n      dup2\n      add\n      swap1\n      tag_12\n      swap2\n      swap1\n      tag_13\n      jump\t// in\n    tag_12:\n      tag_14\n      jump\t// in\n    tag_11:\n      stop\n        /* \"contracts/Voting.sol\":2966:3385  function registerProposal(string memory _description) external allowedVoter {... */\n    tag_4:\n      tag_15\n      0x04\n      dup1\n      calldatasize\n      sub\n      dup2\n      add\n      swap1\n      tag_16\n      swap2\n      swap1\n      tag_17\n      jump\t// in\n    tag_16:\n      tag_18\n      jump\t// in\n    tag_15:\n      stop\n        /* \"contracts/Voting.sol\":1814:2294  function registerVoter(address _address) external onlyOwner {... */\n    tag_5:\n      tag_19\n      0x04\n      dup1\n      calldatasize\n      sub\n      dup2\n      add\n      swap1\n      tag_20\n      swap2\n      swap1\n      tag_21\n      jump\t// in\n    tag_20:\n      tag_22\n      jump\t// in\n    tag_19:\n      stop\n        /* \"@openzeppelin/contracts/access/Ownable.sol\":2293:2394  function renounceOwnership() public virtual onlyOwner {... */\n    tag_6:\n      tag_23\n      tag_24\n      jump\t// in\n    tag_23:\n      stop\n        /* \"contracts/Voting.sol\":2428:2835  function nextWorkflowStatus() external onlyOwner {... */\n    tag_7:\n      tag_25\n      tag_26\n      jump\t// in\n    tag_25:\n      stop\n        /* \"@openzeppelin/contracts/access/Ownable.sol\":1638:1723  function owner() public view virtual returns (address) {... */\n    tag_8:\n      tag_27\n      tag_28\n      jump\t// in\n    tag_27:\n      mload(0x40)\n      tag_29\n      swap2\n      swap1\n      tag_30\n      jump\t// in\n    tag_29:\n      mload(0x40)\n      dup1\n      swap2\n      sub\n      swap1\n      return\n        /* \"@openzeppelin/contracts/access/Ownable.sol\":2543:2758  function transferOwnership(address newOwner) public virtual onlyOwner {... */\n    tag_9:\n      tag_31\n      0x04\n      dup1\n      calldatasize\n      sub\n      dup2\n      add\n      swap1\n      tag_32\n      swap2\n      swap1\n      tag_21\n      jump\t// in\n    tag_32:\n      tag_33\n      jump\t// in\n    tag_31:\n      stop\n        /* \"contracts/Voting.sol\":3494:4222  function vote(uint256 _proposalId) external allowedVoter {... */\n    tag_14:\n        /* \"contracts/Voting.sol\":1592:1605  currentVoting */\n      0x01\n        /* \"contracts/Voting.sol\":1592:1612  currentVoting.voters */\n      0x00\n      add\n        /* \"contracts/Voting.sol\":1592:1624  currentVoting.voters[msg.sender] */\n      0x00\n        /* \"contracts/Voting.sol\":1613:1623  msg.sender */\n      caller\n        /* \"contracts/Voting.sol\":1592:1624  currentVoting.voters[msg.sender] */\n      0xffffffffffffffffffffffffffffffffffffffff\n      and\n      0xffffffffffffffffffffffffffffffffffffffff\n      and\n      dup2\n      mstore\n      0x20\n      add\n      swap1\n      dup2\n      mstore\n      0x20\n      add\n      0x00\n      keccak256\n        /* \"contracts/Voting.sol\":1592:1637  currentVoting.voters[msg.sender].isRegistered */\n      0x00\n      add\n      0x00\n      swap1\n      sload\n      swap1\n      0x0100\n      exp\n      swap1\n      div\n      0xff\n      and\n        /* \"contracts/Voting.sol\":1571:1686  require(... */\n      tag_35\n      jumpi\n      mload(0x40)\n      0xb3e2c01600000000000000000000000000000000000000000000000000000000\n      dup2\n      mstore\n      0x04\n      add\n      mload(0x40)\n      dup1\n      swap2\n      sub\n      swap1\n      revert\n    tag_35:\n        /* \"contracts/Voting.sol\":3606:3641  WorkflowStatus.VotingSessionStarted */\n      0x03\n        /* \"contracts/Voting.sol\":3582:3641  currentVoting.status == WorkflowStatus.VotingSessionStarted */\n      0x05\n      dup2\n      gt\n      iszero\n      tag_37\n      jumpi\n      tag_38\n      tag_39\n      jump\t// in\n    tag_38:\n    tag_37:\n        /* \"contracts/Voting.sol\":3582:3595  currentVoting */\n      0x01\n        /* \"contracts/Voting.sol\":3582:3602  currentVoting.status */\n      0x02\n      add\n      0x00\n      swap1\n      sload\n      swap1\n      0x0100\n      exp\n      swap1\n      div\n      0xff\n      and\n        /* \"contracts/Voting.sol\":3582:3641  currentVoting.status == WorkflowStatus.VotingSessionStarted */\n      0x05\n      dup2\n      gt\n      iszero\n      tag_40\n      jumpi\n      tag_41\n      tag_39\n      jump\t// in\n    tag_41:\n    tag_40:\n      eq\n        /* \"contracts/Voting.sol\":3677:3690  currentVoting */\n      0x01\n        /* \"contracts/Voting.sol\":3677:3697  currentVoting.status */\n      0x02\n      add\n      0x00\n      swap1\n      sload\n      swap1\n      0x0100\n      exp\n      swap1\n      div\n      0xff\n      and\n        /* \"contracts/Voting.sol\":3699:3734  WorkflowStatus.VotingSessionStarted */\n      0x03\n        /* \"contracts/Voting.sol\":3561:3745  require(... */\n      swap1\n      swap2\n      tag_42\n      jumpi\n      mload(0x40)\n      0x0e10df3f00000000000000000000000000000000000000000000000000000000\n      dup2\n      mstore\n      0x04\n      add\n      tag_43\n      swap3\n      swap2\n      swap1\n      tag_44\n      jump\t// in\n    tag_43:\n      mload(0x40)\n      dup1\n      swap2\n      sub\n      swap1\n      revert\n    tag_42:\n      pop\n      pop\n        /* \"contracts/Voting.sol\":3777:3790  currentVoting */\n      0x01\n        /* \"contracts/Voting.sol\":3777:3797  currentVoting.voters */\n      0x00\n      add\n        /* \"contracts/Voting.sol\":3777:3809  currentVoting.voters[msg.sender] */\n      0x00\n        /* \"contracts/Voting.sol\":3798:3808  msg.sender */\n      caller\n        /* \"contracts/Voting.sol\":3777:3809  currentVoting.voters[msg.sender] */\n      0xffffffffffffffffffffffffffffffffffffffff\n      and\n      0xffffffffffffffffffffffffffffffffffffffff\n      and\n      dup2\n      mstore\n      0x20\n      add\n      swap1\n      dup2\n      mstore\n      0x20\n      add\n      0x00\n      keccak256\n        /* \"contracts/Voting.sol\":3777:3818  currentVoting.voters[msg.sender].hasVoted */\n      0x00\n      add\n      0x01\n      swap1\n      sload\n      swap1\n      0x0100\n      exp\n      swap1\n      div\n      0xff\n      and\n        /* \"contracts/Voting.sol\":3776:3818  !currentVoting.voters[msg.sender].hasVoted */\n      iszero\n        /* \"contracts/Voting.sol\":3755:3859  require(... */\n      tag_45\n      jumpi\n      mload(0x40)\n      0xd40aec4400000000000000000000000000000000000000000000000000000000\n      dup2\n      mstore\n      0x04\n      add\n      mload(0x40)\n      dup1\n      swap2\n      sub\n      swap1\n      revert\n    tag_45:\n        /* \"contracts/Voting.sol\":3904:3917  currentVoting */\n      0x01\n        /* \"contracts/Voting.sol\":3904:3927  currentVoting.proposals */\n      dup1\n      add\n        /* \"contracts/Voting.sol\":3904:3934  currentVoting.proposals.length */\n      dup1\n      sload\n      swap1\n      pop\n        /* \"contracts/Voting.sol\":3890:3901  _proposalId */\n      dup2\n        /* \"contracts/Voting.sol\":3890:3934  _proposalId < currentVoting.proposals.length */\n      lt\n        /* \"contracts/Voting.sol\":3869:3978  require(... */\n      tag_46\n      jumpi\n      mload(0x40)\n      0xf299af6600000000000000000000000000000000000000000000000000000000\n      dup2\n      mstore\n      0x04\n      add\n      mload(0x40)\n      dup1\n      swap2\n      sub\n      swap1\n      revert\n    tag_46:\n        /* \"contracts/Voting.sol\":4039:4040  1 */\n      0x01\n        /* \"contracts/Voting.sol\":3989:4002  currentVoting */\n      dup1\n        /* \"contracts/Voting.sol\":3989:4012  currentVoting.proposals */\n      0x01\n      add\n        /* \"contracts/Voting.sol\":4013:4024  _proposalId */\n      dup3\n        /* \"contracts/Voting.sol\":3989:4025  currentVoting.proposals[_proposalId] */\n      dup2\n      sload\n      dup2\n      lt\n      tag_47\n      jumpi\n      tag_48\n      tag_49\n      jump\t// in\n    tag_48:\n    tag_47:\n      swap1\n      0x00\n      mstore\n      keccak256(0x00, 0x20)\n      swap1\n      0x02\n      mul\n      add\n        /* \"contracts/Voting.sol\":3989:4035  currentVoting.proposals[_proposalId].voteCount */\n      0x01\n      add\n      0x00\n        /* \"contracts/Voting.sol\":3989:4040  currentVoting.proposals[_proposalId].voteCount += 1 */\n      dup3\n      dup3\n      sload\n      tag_51\n      swap2\n      swap1\n      tag_52\n      jump\t// in\n    tag_51:\n      swap3\n      pop\n      pop\n      dup2\n      swap1\n      sstore\n      pop\n        /* \"contracts/Voting.sol\":4101:4112  _proposalId */\n      dup1\n        /* \"contracts/Voting.sol\":4050:4063  currentVoting */\n      0x01\n        /* \"contracts/Voting.sol\":4050:4070  currentVoting.voters */\n      0x00\n      add\n        /* \"contracts/Voting.sol\":4050:4082  currentVoting.voters[msg.sender] */\n      0x00\n        /* \"contracts/Voting.sol\":4071:4081  msg.sender */\n      caller\n        /* \"contracts/Voting.sol\":4050:4082  currentVoting.voters[msg.sender] */\n      0xffffffffffffffffffffffffffffffffffffffff\n      and\n      0xffffffffffffffffffffffffffffffffffffffff\n      and\n      dup2\n      mstore\n      0x20\n      add\n      swap1\n      dup2\n      mstore\n      0x20\n      add\n      0x00\n      keccak256\n        /* \"contracts/Voting.sol\":4050:4098  currentVoting.voters[msg.sender].votedProposalId */\n      0x01\n      add\n        /* \"contracts/Voting.sol\":4050:4112  currentVoting.voters[msg.sender].votedProposalId = _proposalId */\n      dup2\n      swap1\n      sstore\n      pop\n        /* \"contracts/Voting.sol\":4166:4170  true */\n      0x01\n        /* \"contracts/Voting.sol\":4122:4135  currentVoting */\n      dup1\n        /* \"contracts/Voting.sol\":4122:4142  currentVoting.voters */\n      0x00\n      add\n        /* \"contracts/Voting.sol\":4122:4154  currentVoting.voters[msg.sender] */\n      0x00\n        /* \"contracts/Voting.sol\":4143:4153  msg.sender */\n      caller\n        /* \"contracts/Voting.sol\":4122:4154  currentVoting.voters[msg.sender] */\n      0xffffffffffffffffffffffffffffffffffffffff\n      and\n      0xffffffffffffffffffffffffffffffffffffffff\n      and\n      dup2\n      mstore\n      0x20\n      add\n      swap1\n      dup2\n      mstore\n      0x20\n      add\n      0x00\n      keccak256\n        /* \"contracts/Voting.sol\":4122:4163  currentVoting.voters[msg.sender].hasVoted */\n      0x00\n      add\n      0x01\n        /* \"contracts/Voting.sol\":4122:4170  currentVoting.voters[msg.sender].hasVoted = true */\n      0x0100\n      exp\n      dup2\n      sload\n      dup2\n      0xff\n      mul\n      not\n      and\n      swap1\n      dup4\n      iszero\n      iszero\n      mul\n      or\n      swap1\n      sstore\n      pop\n        /* \"contracts/Voting.sol\":4185:4215  Voted(msg.sender, _proposalId) */\n      0x4d99b957a2bc29a30ebd96a7be8e68fe50a3c701db28a91436490b7d53870ca4\n        /* \"contracts/Voting.sol\":4191:4201  msg.sender */\n      caller\n        /* \"contracts/Voting.sol\":4203:4214  _proposalId */\n      dup3\n        /* \"contracts/Voting.sol\":4185:4215  Voted(msg.sender, _proposalId) */\n      mload(0x40)\n      tag_53\n      swap3\n      swap2\n      swap1\n      tag_54\n      jump\t// in\n    tag_53:\n      mload(0x40)\n      dup1\n      swap2\n      sub\n      swap1\n      log1\n        /* \"contracts/Voting.sol\":3494:4222  function vote(uint256 _proposalId) external allowedVoter {... */\n      pop\n      jump\t// out\n        /* \"contracts/Voting.sol\":2966:3385  function registerProposal(string memory _description) external allowedVoter {... */\n    tag_18:\n        /* \"contracts/Voting.sol\":1592:1605  currentVoting */\n      0x01\n        /* \"contracts/Voting.sol\":1592:1612  currentVoting.voters */\n      0x00\n      add\n        /* \"contracts/Voting.sol\":1592:1624  currentVoting.voters[msg.sender] */\n      0x00\n        /* \"contracts/Voting.sol\":1613:1623  msg.sender */\n      caller\n        /* \"contracts/Voting.sol\":1592:1624  currentVoting.voters[msg.sender] */\n      0xffffffffffffffffffffffffffffffffffffffff\n      and\n      0xffffffffffffffffffffffffffffffffffffffff\n      and\n      dup2\n      mstore\n      0x20\n      add\n      swap1\n      dup2\n      mstore\n      0x20\n      add\n      0x00\n      keccak256\n        /* \"contracts/Voting.sol\":1592:1637  currentVoting.voters[msg.sender].isRegistered */\n      0x00\n      add\n      0x00\n      swap1\n      sload\n      swap1\n      0x0100\n      exp\n      swap1\n      div\n      0xff\n      and\n        /* \"contracts/Voting.sol\":1571:1686  require(... */\n      tag_56\n      jumpi\n      mload(0x40)\n      0xb3e2c01600000000000000000000000000000000000000000000000000000000\n      dup2\n      mstore\n      0x04\n      add\n      mload(0x40)\n      dup1\n      swap2\n      sub\n      swap1\n      revert\n    tag_56:\n        /* \"contracts/Voting.sol\":3097:3140  WorkflowStatus.ProposalsRegistrationStarted */\n      0x01\n        /* \"contracts/Voting.sol\":3073:3140  currentVoting.status == WorkflowStatus.ProposalsRegistrationStarted */\n      0x05\n      dup2\n      gt\n      iszero\n      tag_58\n      jumpi\n      tag_59\n      tag_39\n      jump\t// in\n    tag_59:\n    tag_58:\n        /* \"contracts/Voting.sol\":3073:3086  currentVoting */\n      0x01\n        /* \"contracts/Voting.sol\":3073:3093  currentVoting.status */\n      0x02\n      add\n      0x00\n      swap1\n      sload\n      swap1\n      0x0100\n      exp\n      swap1\n      div\n      0xff\n      and\n        /* \"contracts/Voting.sol\":3073:3140  currentVoting.status == WorkflowStatus.ProposalsRegistrationStarted */\n      0x05\n      dup2\n      gt\n      iszero\n      tag_60\n      jumpi\n      tag_61\n      tag_39\n      jump\t// in\n    tag_61:\n    tag_60:\n      eq\n        /* \"contracts/Voting.sol\":3176:3189  currentVoting */\n      0x01\n        /* \"contracts/Voting.sol\":3176:3196  currentVoting.status */\n      0x02\n      add\n      0x00\n      swap1\n      sload\n      swap1\n      0x0100\n      exp\n      swap1\n      div\n      0xff\n      and\n        /* \"contracts/Voting.sol\":3198:3241  WorkflowStatus.ProposalsRegistrationStarted */\n      0x01\n        /* \"contracts/Voting.sol\":3052:3252  require(... */\n      swap1\n      swap2\n      tag_62\n      jumpi\n      mload(0x40)\n      0x0e10df3f00000000000000000000000000000000000000000000000000000000\n      dup2\n      mstore\n      0x04\n      add\n      tag_63\n      swap3\n      swap2\n      swap1\n      tag_44\n      jump\t// in\n    tag_63:\n      mload(0x40)\n      dup1\n      swap2\n      sub\n      swap1\n      revert\n    tag_62:\n      pop\n      pop\n        /* \"contracts/Voting.sol\":3275:3288  currentVoting */\n      0x01\n        /* \"contracts/Voting.sol\":3275:3298  currentVoting.proposals */\n      dup1\n      add\n        /* \"contracts/Voting.sol\":3317:3368  Proposal({description: _description, voteCount: 0}) */\n      mload(0x40)\n      dup1\n      0x40\n      add\n      0x40\n      mstore\n      dup1\n        /* \"contracts/Voting.sol\":3340:3352  _description */\n      dup4\n        /* \"contracts/Voting.sol\":3317:3368  Proposal({description: _description, voteCount: 0}) */\n      dup2\n      mstore\n      0x20\n      add\n        /* \"contracts/Voting.sol\":3365:3366  0 */\n      0x00\n        /* \"contracts/Voting.sol\":3317:3368  Proposal({description: _description, voteCount: 0}) */\n      dup2\n      mstore\n      pop\n        /* \"contracts/Voting.sol\":3275:3378  currentVoting.proposals.push(... */\n      swap1\n      dup1\n      0x01\n      dup2\n      sload\n      add\n      dup1\n      dup3\n      sstore\n      dup1\n      swap2\n      pop\n      pop\n      0x01\n      swap1\n      sub\n      swap1\n      0x00\n      mstore\n      keccak256(0x00, 0x20)\n      swap1\n      0x02\n      mul\n      add\n      0x00\n      swap1\n      swap2\n      swap1\n      swap2\n      swap1\n      swap2\n      pop\n      0x00\n      dup3\n      add\n      mload\n      dup2\n      0x00\n      add\n      swap1\n      dup2\n      tag_65\n      swap2\n      swap1\n      tag_66\n      jump\t// in\n    tag_65:\n      pop\n      0x20\n      dup3\n      add\n      mload\n      dup2\n      0x01\n      add\n      sstore\n      pop\n      pop\n        /* \"contracts/Voting.sol\":2966:3385  function registerProposal(string memory _description) external allowedVoter {... */\n      pop\n      jump\t// out\n        /* \"contracts/Voting.sol\":1814:2294  function registerVoter(address _address) external onlyOwner {... */\n    tag_22:\n        /* \"@openzeppelin/contracts/access/Ownable.sol\":1531:1544  _checkOwner() */\n      tag_68\n        /* \"@openzeppelin/contracts/access/Ownable.sol\":1531:1542  _checkOwner */\n      tag_69\n        /* \"@openzeppelin/contracts/access/Ownable.sol\":1531:1544  _checkOwner() */\n      jump\t// in\n    tag_68:\n        /* \"contracts/Voting.sol\":1929:1961  WorkflowStatus.RegisteringVoters */\n      0x00\n        /* \"contracts/Voting.sol\":1905:1961  currentVoting.status == WorkflowStatus.RegisteringVoters */\n      0x05\n      dup2\n      gt\n      iszero\n      tag_71\n      jumpi\n      tag_72\n      tag_39\n      jump\t// in\n    tag_72:\n    tag_71:\n        /* \"contracts/Voting.sol\":1905:1918  currentVoting */\n      0x01\n        /* \"contracts/Voting.sol\":1905:1925  currentVoting.status */\n      0x02\n      add\n      0x00\n      swap1\n      sload\n      swap1\n      0x0100\n      exp\n      swap1\n      div\n      0xff\n      and\n        /* \"contracts/Voting.sol\":1905:1961  currentVoting.status == WorkflowStatus.RegisteringVoters */\n      0x05\n      dup2\n      gt\n      iszero\n      tag_73\n      jumpi\n      tag_74\n      tag_39\n      jump\t// in\n    tag_74:\n    tag_73:\n      eq\n        /* \"contracts/Voting.sol\":1998:2011  currentVoting */\n      0x01\n        /* \"contracts/Voting.sol\":1998:2018  currentVoting.status */\n      0x02\n      add\n      0x00\n      swap1\n      sload\n      swap1\n      0x0100\n      exp\n      swap1\n      div\n      0xff\n      and\n        /* \"contracts/Voting.sol\":2020:2052  WorkflowStatus.RegisteringVoters */\n      0x00\n        /* \"contracts/Voting.sol\":1884:2063  require(... */\n      swap1\n      swap2\n      tag_75\n      jumpi\n      mload(0x40)\n      0x0e10df3f00000000000000000000000000000000000000000000000000000000\n      dup2\n      mstore\n      0x04\n      add\n      tag_76\n      swap3\n      swap2\n      swap1\n      tag_44\n      jump\t// in\n    tag_76:\n      mload(0x40)\n      dup1\n      swap2\n      sub\n      swap1\n      revert\n    tag_75:\n      pop\n      pop\n        /* \"contracts/Voting.sol\":2095:2108  currentVoting */\n      0x01\n        /* \"contracts/Voting.sol\":2095:2115  currentVoting.voters */\n      0x00\n      add\n        /* \"contracts/Voting.sol\":2095:2125  currentVoting.voters[_address] */\n      0x00\n        /* \"contracts/Voting.sol\":2116:2124  _address */\n      dup3\n        /* \"contracts/Voting.sol\":2095:2125  currentVoting.voters[_address] */\n      0xffffffffffffffffffffffffffffffffffffffff\n      and\n      0xffffffffffffffffffffffffffffffffffffffff\n      and\n      dup2\n      mstore\n      0x20\n      add\n      swap1\n      dup2\n      mstore\n      0x20\n      add\n      0x00\n      keccak256\n        /* \"contracts/Voting.sol\":2095:2138  currentVoting.voters[_address].isRegistered */\n      0x00\n      add\n      0x00\n      swap1\n      sload\n      swap1\n      0x0100\n      exp\n      swap1\n      div\n      0xff\n      and\n        /* \"contracts/Voting.sol\":2094:2138  !currentVoting.voters[_address].isRegistered */\n      iszero\n        /* \"contracts/Voting.sol\":2073:2186  require(... */\n      tag_77\n      jumpi\n      mload(0x40)\n      0x59a1ec4700000000000000000000000000000000000000000000000000000000\n      dup2\n      mstore\n      0x04\n      add\n      mload(0x40)\n      dup1\n      swap2\n      sub\n      swap1\n      revert\n    tag_77:\n        /* \"contracts/Voting.sol\":2243:2247  true */\n      0x01\n        /* \"contracts/Voting.sol\":2197:2210  currentVoting */\n      dup1\n        /* \"contracts/Voting.sol\":2197:2217  currentVoting.voters */\n      0x00\n      add\n        /* \"contracts/Voting.sol\":2197:2227  currentVoting.voters[_address] */\n      0x00\n        /* \"contracts/Voting.sol\":2218:2226  _address */\n      dup4\n        /* \"contracts/Voting.sol\":2197:2227  currentVoting.voters[_address] */\n      0xffffffffffffffffffffffffffffffffffffffff\n      and\n      0xffffffffffffffffffffffffffffffffffffffff\n      and\n      dup2\n      mstore\n      0x20\n      add\n      swap1\n      dup2\n      mstore\n      0x20\n      add\n      0x00\n      keccak256\n        /* \"contracts/Voting.sol\":2197:2240  currentVoting.voters[_address].isRegistered */\n      0x00\n      add\n      0x00\n        /* \"contracts/Voting.sol\":2197:2247  currentVoting.voters[_address].isRegistered = true */\n      0x0100\n      exp\n      dup2\n      sload\n      dup2\n      0xff\n      mul\n      not\n      and\n      swap1\n      dup4\n      iszero\n      iszero\n      mul\n      or\n      swap1\n      sstore\n      pop\n        /* \"contracts/Voting.sol\":2262:2287  VoterRegistered(_address) */\n      0xb6be2187d059cc2a55fe29e0e503b566e1e0f8c8780096e185429350acffd3dd\n        /* \"contracts/Voting.sol\":2278:2286  _address */\n      dup2\n        /* \"contracts/Voting.sol\":2262:2287  VoterRegistered(_address) */\n      mload(0x40)\n      tag_78\n      swap2\n      swap1\n      tag_30\n      jump\t// in\n    tag_78:\n      mload(0x40)\n      dup1\n      swap2\n      sub\n      swap1\n      log1\n        /* \"contracts/Voting.sol\":1814:2294  function registerVoter(address _address) external onlyOwner {... */\n      pop\n      jump\t// out\n        /* \"@openzeppelin/contracts/access/Ownable.sol\":2293:2394  function renounceOwnership() public virtual onlyOwner {... */\n    tag_24:\n        /* \"@openzeppelin/contracts/access/Ownable.sol\":1531:1544  _checkOwner() */\n      tag_80\n        /* \"@openzeppelin/contracts/access/Ownable.sol\":1531:1542  _checkOwner */\n      tag_69\n        /* \"@openzeppelin/contracts/access/Ownable.sol\":1531:1544  _checkOwner() */\n      jump\t// in\n    tag_80:\n        /* \"@openzeppelin/contracts/access/Ownable.sol\":2357:2387  _transferOwnership(address(0)) */\n      tag_82\n        /* \"@openzeppelin/contracts/access/Ownable.sol\":2384:2385  0 */\n      0x00\n        /* \"@openzeppelin/contracts/access/Ownable.sol\":2357:2375  _transferOwnership */\n      tag_83\n        /* \"@openzeppelin/contracts/access/Ownable.sol\":2357:2387  _transferOwnership(address(0)) */\n      jump\t// in\n    tag_82:\n        /* \"@openzeppelin/contracts/access/Ownable.sol\":2293:2394  function renounceOwnership() public virtual onlyOwner {... */\n      jump\t// out\n        /* \"contracts/Voting.sol\":2428:2835  function nextWorkflowStatus() external onlyOwner {... */\n    tag_26:\n        /* \"@openzeppelin/contracts/access/Ownable.sol\":1531:1544  _checkOwner() */\n      tag_85\n        /* \"@openzeppelin/contracts/access/Ownable.sol\":1531:1542  _checkOwner */\n      tag_69\n        /* \"@openzeppelin/contracts/access/Ownable.sol\":1531:1544  _checkOwner() */\n      jump\t// in\n    tag_85:\n        /* \"contracts/Voting.sol\":2542:2566  type(WorkflowStatus).max */\n      0x05\n        /* \"contracts/Voting.sol\":2537:2567  uint(type(WorkflowStatus).max) */\n      dup1\n      dup2\n      gt\n      iszero\n      tag_87\n      jumpi\n      tag_88\n      tag_39\n      jump\t// in\n    tag_88:\n    tag_87:\n        /* \"contracts/Voting.sol\":2513:2526  currentVoting */\n      0x01\n        /* \"contracts/Voting.sol\":2513:2533  currentVoting.status */\n      0x02\n      add\n      0x00\n      swap1\n      sload\n      swap1\n      0x0100\n      exp\n      swap1\n      div\n      0xff\n      and\n        /* \"contracts/Voting.sol\":2508:2534  uint(currentVoting.status) */\n      0x05\n      dup2\n      gt\n      iszero\n      tag_89\n      jumpi\n      tag_90\n      tag_39\n      jump\t// in\n    tag_90:\n    tag_89:\n        /* \"contracts/Voting.sol\":2508:2567  uint(currentVoting.status) < uint(type(WorkflowStatus).max) */\n      lt\n        /* \"contracts/Voting.sol\":2487:2614  require(... */\n      tag_91\n      jumpi\n      mload(0x40)\n      0x086fc57f00000000000000000000000000000000000000000000000000000000\n      dup2\n      mstore\n      0x04\n      add\n      mload(0x40)\n      dup1\n      swap2\n      sub\n      swap1\n      revert\n    tag_91:\n        /* \"contracts/Voting.sol\":2624:2653  WorkflowStatus previousStatus */\n      0x00\n        /* \"contracts/Voting.sol\":2656:2669  currentVoting */\n      0x01\n        /* \"contracts/Voting.sol\":2656:2676  currentVoting.status */\n      0x02\n      add\n      0x00\n      swap1\n      sload\n      swap1\n      0x0100\n      exp\n      swap1\n      div\n      0xff\n      and\n        /* \"contracts/Voting.sol\":2624:2676  WorkflowStatus previousStatus = currentVoting.status */\n      swap1\n      pop\n        /* \"contracts/Voting.sol\":2753:2754  1 */\n      0x01\n        /* \"contracts/Voting.sol\":2729:2742  currentVoting */\n      dup1\n        /* \"contracts/Voting.sol\":2729:2749  currentVoting.status */\n      0x02\n      add\n      0x00\n      swap1\n      sload\n      swap1\n      0x0100\n      exp\n      swap1\n      div\n      0xff\n      and\n        /* \"contracts/Voting.sol\":2724:2750  uint(currentVoting.status) */\n      0x05\n      dup2\n      gt\n      iszero\n      tag_92\n      jumpi\n      tag_93\n      tag_39\n      jump\t// in\n    tag_93:\n    tag_92:\n        /* \"contracts/Voting.sol\":2724:2754  uint(currentVoting.status) + 1 */\n      tag_94\n      swap2\n      swap1\n      tag_52\n      jump\t// in\n    tag_94:\n        /* \"contracts/Voting.sol\":2709:2755  WorkflowStatus(uint(currentVoting.status) + 1) */\n      0x05\n      dup2\n      gt\n      iszero\n      tag_95\n      jumpi\n      tag_96\n      tag_39\n      jump\t// in\n    tag_96:\n    tag_95:\n        /* \"contracts/Voting.sol\":2686:2699  currentVoting */\n      0x01\n        /* \"contracts/Voting.sol\":2686:2706  currentVoting.status */\n      0x02\n      add\n      0x00\n        /* \"contracts/Voting.sol\":2686:2755  currentVoting.status = WorkflowStatus(uint(currentVoting.status) + 1) */\n      0x0100\n      exp\n      dup2\n      sload\n      dup2\n      0xff\n      mul\n      not\n      and\n      swap1\n      dup4\n      0x05\n      dup2\n      gt\n      iszero\n      tag_97\n      jumpi\n      tag_98\n      tag_39\n      jump\t// in\n    tag_98:\n    tag_97:\n      mul\n      or\n      swap1\n      sstore\n      pop\n        /* \"contracts/Voting.sol\":2770:2828  WorkflowStatusChange(previousStatus, currentVoting.status) */\n      0x0a97a4ee45751e2abf3e4fc8946939630b11b371ea8ae39ccdc3056e98f5cc3f\n        /* \"contracts/Voting.sol\":2791:2805  previousStatus */\n      dup2\n        /* \"contracts/Voting.sol\":2807:2820  currentVoting */\n      0x01\n        /* \"contracts/Voting.sol\":2807:2827  currentVoting.status */\n      0x02\n      add\n      0x00\n      swap1\n      sload\n      swap1\n      0x0100\n      exp\n      swap1\n      div\n      0xff\n      and\n        /* \"contracts/Voting.sol\":2770:2828  WorkflowStatusChange(previousStatus, currentVoting.status) */\n      mload(0x40)\n      tag_99\n      swap3\n      swap2\n      swap1\n      tag_44\n      jump\t// in\n    tag_99:\n      mload(0x40)\n      dup1\n      swap2\n      sub\n      swap1\n      log1\n        /* \"contracts/Voting.sol\":2477:2835  {... */\n      pop\n        /* \"contracts/Voting.sol\":2428:2835  function nextWorkflowStatus() external onlyOwner {... */\n      jump\t// out\n        /* \"@openzeppelin/contracts/access/Ownable.sol\":1638:1723  function owner() public view virtual returns (address) {... */\n    tag_28:\n        /* \"@openzeppelin/contracts/access/Ownable.sol\":1684:1691  address */\n      0x00\n        /* \"@openzeppelin/contracts/access/Ownable.sol\":1710:1716  _owner */\n      0x00\n      0x00\n      swap1\n      sload\n      swap1\n      0x0100\n      exp\n      swap1\n      div\n      0xffffffffffffffffffffffffffffffffffffffff\n      and\n        /* \"@openzeppelin/contracts/access/Ownable.sol\":1703:1716  return _owner */\n      swap1\n      pop\n        /* \"@openzeppelin/contracts/access/Ownable.sol\":1638:1723  function owner() public view virtual returns (address) {... */\n      swap1\n      jump\t// out\n        /* \"@openzeppelin/contracts/access/Ownable.sol\":2543:2758  function transferOwnership(address newOwner) public virtual onlyOwner {... */\n    tag_33:\n        /* \"@openzeppelin/contracts/access/Ownable.sol\":1531:1544  _checkOwner() */\n      tag_102\n        /* \"@openzeppelin/contracts/access/Ownable.sol\":1531:1542  _checkOwner */\n      tag_69\n        /* \"@openzeppelin/contracts/access/Ownable.sol\":1531:1544  _checkOwner() */\n      jump\t// in\n    tag_102:\n        /* \"@openzeppelin/contracts/access/Ownable.sol\":2647:2648  0 */\n      0x00\n        /* \"@openzeppelin/contracts/access/Ownable.sol\":2627:2649  newOwner == address(0) */\n      0xffffffffffffffffffffffffffffffffffffffff\n      and\n        /* \"@openzeppelin/contracts/access/Ownable.sol\":2627:2635  newOwner */\n      dup2\n        /* \"@openzeppelin/contracts/access/Ownable.sol\":2627:2649  newOwner == address(0) */\n      0xffffffffffffffffffffffffffffffffffffffff\n      and\n      sub\n        /* \"@openzeppelin/contracts/access/Ownable.sol\":2623:2714  if (newOwner == address(0)) {... */\n      tag_104\n      jumpi\n        /* \"@openzeppelin/contracts/access/Ownable.sol\":2700:2701  0 */\n      0x00\n        /* \"@openzeppelin/contracts/access/Ownable.sol\":2672:2703  OwnableInvalidOwner(address(0)) */\n      mload(0x40)\n      0x1e4fbdf700000000000000000000000000000000000000000000000000000000\n      dup2\n      mstore\n      0x04\n      add\n      tag_105\n      swap2\n      swap1\n      tag_30\n      jump\t// in\n    tag_105:\n      mload(0x40)\n      dup1\n      swap2\n      sub\n      swap1\n      revert\n        /* \"@openzeppelin/contracts/access/Ownable.sol\":2623:2714  if (newOwner == address(0)) {... */\n    tag_104:\n        /* \"@openzeppelin/contracts/access/Ownable.sol\":2723:2751  _transferOwnership(newOwner) */\n      tag_106\n        /* \"@openzeppelin/contracts/access/Ownable.sol\":2742:2750  newOwner */\n      dup2\n        /* \"@openzeppelin/contracts/access/Ownable.sol\":2723:2741  _transferOwnership */\n      tag_83\n        /* \"@openzeppelin/contracts/access/Ownable.sol\":2723:2751  _transferOwnership(newOwner) */\n      jump\t// in\n    tag_106:\n        /* \"@openzeppelin/contracts/access/Ownable.sol\":2543:2758  function transferOwnership(address newOwner) public virtual onlyOwner {... */\n      pop\n      jump\t// out\n        /* \"@openzeppelin/contracts/access/Ownable.sol\":1796:1958  function _checkOwner() internal view virtual {... */\n    tag_69:\n        /* \"@openzeppelin/contracts/access/Ownable.sol\":1866:1878  _msgSender() */\n      tag_108\n        /* \"@openzeppelin/contracts/access/Ownable.sol\":1866:1876  _msgSender */\n      tag_109\n        /* \"@openzeppelin/contracts/access/Ownable.sol\":1866:1878  _msgSender() */\n      jump\t// in\n    tag_108:\n        /* \"@openzeppelin/contracts/access/Ownable.sol\":1855:1878  owner() != _msgSender() */\n      0xffffffffffffffffffffffffffffffffffffffff\n      and\n        /* \"@openzeppelin/contracts/access/Ownable.sol\":1855:1862  owner() */\n      tag_110\n        /* \"@openzeppelin/contracts/access/Ownable.sol\":1855:1860  owner */\n      tag_28\n        /* \"@openzeppelin/contracts/access/Ownable.sol\":1855:1862  owner() */\n      jump\t// in\n    tag_110:\n        /* \"@openzeppelin/contracts/access/Ownable.sol\":1855:1878  owner() != _msgSender() */\n      0xffffffffffffffffffffffffffffffffffffffff\n      and\n      eq\n        /* \"@openzeppelin/contracts/access/Ownable.sol\":1851:1952  if (owner() != _msgSender()) {... */\n      tag_111\n      jumpi\n        /* \"@openzeppelin/contracts/access/Ownable.sol\":1928:1940  _msgSender() */\n      tag_112\n        /* \"@openzeppelin/contracts/access/Ownable.sol\":1928:1938  _msgSender */\n      tag_109\n        /* \"@openzeppelin/contracts/access/Ownable.sol\":1928:1940  _msgSender() */\n      jump\t// in\n    tag_112:\n        /* \"@openzeppelin/contracts/access/Ownable.sol\":1901:1941  OwnableUnauthorizedAccount(_msgSender()) */\n      mload(0x40)\n      0x118cdaa700000000000000000000000000000000000000000000000000000000\n      dup2\n      mstore\n      0x04\n      add\n      tag_113\n      swap2\n      swap1\n      tag_30\n      jump\t// in\n    tag_113:\n      mload(0x40)\n      dup1\n      swap2\n      sub\n      swap1\n      revert\n        /* \"@openzeppelin/contracts/access/Ownable.sol\":1851:1952  if (owner() != _msgSender()) {... */\n    tag_111:\n        /* \"@openzeppelin/contracts/access/Ownable.sol\":1796:1958  function _checkOwner() internal view virtual {... */\n      jump\t// out\n        /* \"@openzeppelin/contracts/access/Ownable.sol\":2912:3099  function _transferOwnership(address newOwner) internal virtual {... */\n    tag_83:\n        /* \"@openzeppelin/contracts/access/Ownable.sol\":2985:3001  address oldOwner */\n      0x00\n        /* \"@openzeppelin/contracts/access/Ownable.sol\":3004:3010  _owner */\n      0x00\n      0x00\n      swap1\n      sload\n      swap1\n      0x0100\n      exp\n      swap1\n      div\n      0xffffffffffffffffffffffffffffffffffffffff\n      and\n        /* \"@openzeppelin/contracts/access/Ownable.sol\":2985:3010  address oldOwner = _owner */\n      swap1\n      pop\n        /* \"@openzeppelin/contracts/access/Ownable.sol\":3029:3037  newOwner */\n      dup2\n        /* \"@openzeppelin/contracts/access/Ownable.sol\":3020:3026  _owner */\n      0x00\n      0x00\n        /* \"@openzeppelin/contracts/access/Ownable.sol\":3020:3037  _owner = newOwner */\n      0x0100\n      exp\n      dup2\n      sload\n      dup2\n      0xffffffffffffffffffffffffffffffffffffffff\n      mul\n      not\n      and\n      swap1\n      dup4\n      0xffffffffffffffffffffffffffffffffffffffff\n      and\n      mul\n      or\n      swap1\n      sstore\n      pop\n        /* \"@openzeppelin/contracts/access/Ownable.sol\":3083:3091  newOwner */\n      dup2\n        /* \"@openzeppelin/contracts/access/Ownable.sol\":3052:3092  OwnershipTransferred(oldOwner, newOwner) */\n      0xffffffffffffffffffffffffffffffffffffffff\n      and\n        /* \"@openzeppelin/contracts/access/Ownable.sol\":3073:3081  oldOwner */\n      dup2\n        /* \"@openzeppelin/contracts/access/Ownable.sol\":3052:3092  OwnershipTransferred(oldOwner, newOwner) */\n      0xffffffffffffffffffffffffffffffffffffffff\n      and\n      0x8be0079c531659141344cd1fd0a4f28419497f9722a3daafe3b4186f6b6457e0\n      mload(0x40)\n      mload(0x40)\n      dup1\n      swap2\n      sub\n      swap1\n      log3\n        /* \"@openzeppelin/contracts/access/Ownable.sol\":2975:3099  {... */\n      pop\n        /* \"@openzeppelin/contracts/access/Ownable.sol\":2912:3099  function _transferOwnership(address newOwner) internal virtual {... */\n      pop\n      jump\t// out\n        /* \"@openzeppelin/contracts/utils/Context.sol\":656:752  function _msgSender() internal view virtual returns (address) {... */\n    tag_109:\n        /* \"@openzeppelin/contracts/utils/Context.sol\":709:716  address */\n      0x00\n        /* \"@openzeppelin/contracts/utils/Context.sol\":735:745  msg.sender */\n      caller\n        /* \"@openzeppelin/contracts/utils/Context.sol\":728:745  return msg.sender */\n      swap1\n      pop\n        /* \"@openzeppelin/contracts/utils/Context.sol\":656:752  function _msgSender() internal view virtual returns (address) {... */\n      swap1\n      jump\t// out\n        /* \"#utility.yul\":7:82   */\n    tag_116:\n        /* \"#utility.yul\":40:46   */\n      0x00\n        /* \"#utility.yul\":73:75   */\n      0x40\n        /* \"#utility.yul\":67:76   */\n      mload\n        /* \"#utility.yul\":57:76   */\n      swap1\n      pop\n        /* \"#utility.yul\":7:82   */\n      swap1\n      jump\t// out\n        /* \"#utility.yul\":88:205   */\n    tag_117:\n        /* \"#utility.yul\":197:198   */\n      0x00\n        /* \"#utility.yul\":194:195   */\n      0x00\n        /* \"#utility.yul\":187:199   */\n      revert\n        /* \"#utility.yul\":211:328   */\n    tag_118:\n        /* \"#utility.yul\":320:321   */\n      0x00\n        /* \"#utility.yul\":317:318   */\n      0x00\n        /* \"#utility.yul\":310:322   */\n      revert\n        /* \"#utility.yul\":334:411   */\n    tag_119:\n        /* \"#utility.yul\":371:378   */\n      0x00\n        /* \"#utility.yul\":400:405   */\n      dup2\n        /* \"#utility.yul\":389:405   */\n      swap1\n      pop\n        /* \"#utility.yul\":334:411   */\n      swap2\n      swap1\n      pop\n      jump\t// out\n        /* \"#utility.yul\":417:539   */\n    tag_120:\n        /* \"#utility.yul\":490:514   */\n      tag_167\n        /* \"#utility.yul\":508:513   */\n      dup2\n        /* \"#utility.yul\":490:514   */\n      tag_119\n      jump\t// in\n    tag_167:\n        /* \"#utility.yul\":483:488   */\n      dup2\n        /* \"#utility.yul\":480:515   */\n      eq\n        /* \"#utility.yul\":470:533   */\n      tag_168\n      jumpi\n        /* \"#utility.yul\":529:530   */\n      0x00\n        /* \"#utility.yul\":526:527   */\n      0x00\n        /* \"#utility.yul\":519:531   */\n      revert\n        /* \"#utility.yul\":470:533   */\n    tag_168:\n        /* \"#utility.yul\":417:539   */\n      pop\n      jump\t// out\n        /* \"#utility.yul\":545:684   */\n    tag_121:\n        /* \"#utility.yul\":591:596   */\n      0x00\n        /* \"#utility.yul\":629:635   */\n      dup2\n        /* \"#utility.yul\":616:636   */\n      calldataload\n        /* \"#utility.yul\":607:636   */\n      swap1\n      pop\n        /* \"#utility.yul\":645:678   */\n      tag_170\n        /* \"#utility.yul\":672:677   */\n      dup2\n        /* \"#utility.yul\":645:678   */\n      tag_120\n      jump\t// in\n    tag_170:\n        /* \"#utility.yul\":545:684   */\n      swap3\n      swap2\n      pop\n      pop\n      jump\t// out\n        /* \"#utility.yul\":690:1019   */\n    tag_13:\n        /* \"#utility.yul\":749:755   */\n      0x00\n        /* \"#utility.yul\":798:800   */\n      0x20\n        /* \"#utility.yul\":786:795   */\n      dup3\n        /* \"#utility.yul\":777:784   */\n      dup5\n        /* \"#utility.yul\":773:796   */\n      sub\n        /* \"#utility.yul\":769:801   */\n      slt\n        /* \"#utility.yul\":766:885   */\n      iszero\n      tag_172\n      jumpi\n        /* \"#utility.yul\":804:883   */\n      tag_173\n      tag_117\n      jump\t// in\n    tag_173:\n        /* \"#utility.yul\":766:885   */\n    tag_172:\n        /* \"#utility.yul\":924:925   */\n      0x00\n        /* \"#utility.yul\":949:1002   */\n      tag_174\n        /* \"#utility.yul\":994:1001   */\n      dup5\n        /* \"#utility.yul\":985:991   */\n      dup3\n        /* \"#utility.yul\":974:983   */\n      dup6\n        /* \"#utility.yul\":970:992   */\n      add\n        /* \"#utility.yul\":949:1002   */\n      tag_121\n      jump\t// in\n    tag_174:\n        /* \"#utility.yul\":939:1002   */\n      swap2\n      pop\n        /* \"#utility.yul\":895:1012   */\n      pop\n        /* \"#utility.yul\":690:1019   */\n      swap3\n      swap2\n      pop\n      pop\n      jump\t// out\n        /* \"#utility.yul\":1025:1142   */\n    tag_122:\n        /* \"#utility.yul\":1134:1135   */\n      0x00\n        /* \"#utility.yul\":1131:1132   */\n      0x00\n        /* \"#utility.yul\":1124:1136   */\n      revert\n        /* \"#utility.yul\":1148:1265   */\n    tag_123:\n        /* \"#utility.yul\":1257:1258   */\n      0x00\n        /* \"#utility.yul\":1254:1255   */\n      0x00\n        /* \"#utility.yul\":1247:1259   */\n      revert\n        /* \"#utility.yul\":1271:1373   */\n    tag_124:\n        /* \"#utility.yul\":1312:1318   */\n      0x00\n        /* \"#utility.yul\":1363:1365   */\n      0x1f\n        /* \"#utility.yul\":1359:1366   */\n      not\n        /* \"#utility.yul\":1354:1356   */\n      0x1f\n        /* \"#utility.yul\":1347:1352   */\n      dup4\n        /* \"#utility.yul\":1343:1357   */\n      add\n        /* \"#utility.yul\":1339:1367   */\n      and\n        /* \"#utility.yul\":1329:1367   */\n      swap1\n      pop\n        /* \"#utility.yul\":1271:1373   */\n      swap2\n      swap1\n      pop\n      jump\t// out\n        /* \"#utility.yul\":1379:1559   */\n    tag_125:\n        /* \"#utility.yul\":1427:1504   */\n      0x4e487b7100000000000000000000000000000000000000000000000000000000\n        /* \"#utility.yul\":1424:1425   */\n      0x00\n        /* \"#utility.yul\":1417:1505   */\n      mstore\n        /* \"#utility.yul\":1524:1528   */\n      0x41\n        /* \"#utility.yul\":1521:1522   */\n      0x04\n        /* \"#utility.yul\":1514:1529   */\n      mstore\n        /* \"#utility.yul\":1548:1552   */\n      0x24\n        /* \"#utility.yul\":1545:1546   */\n      0x00\n        /* \"#utility.yul\":1538:1553   */\n      revert\n        /* \"#utility.yul\":1565:1846   */\n    tag_126:\n        /* \"#utility.yul\":1648:1675   */\n      tag_180\n        /* \"#utility.yul\":1670:1674   */\n      dup3\n        /* \"#utility.yul\":1648:1675   */\n      tag_124\n      jump\t// in\n    tag_180:\n        /* \"#utility.yul\":1640:1646   */\n      dup2\n        /* \"#utility.yul\":1636:1676   */\n      add\n        /* \"#utility.yul\":1778:1784   */\n      dup2\n        /* \"#utility.yul\":1766:1776   */\n      dup2\n        /* \"#utility.yul\":1763:1785   */\n      lt\n        /* \"#utility.yul\":1742:1760   */\n      0xffffffffffffffff\n        /* \"#utility.yul\":1730:1740   */\n      dup3\n        /* \"#utility.yul\":1727:1761   */\n      gt\n        /* \"#utility.yul\":1724:1786   */\n      or\n        /* \"#utility.yul\":1721:1809   */\n      iszero\n      tag_181\n      jumpi\n        /* \"#utility.yul\":1789:1807   */\n      tag_182\n      tag_125\n      jump\t// in\n    tag_182:\n        /* \"#utility.yul\":1721:1809   */\n    tag_181:\n        /* \"#utility.yul\":1829:1839   */\n      dup1\n        /* \"#utility.yul\":1825:1827   */\n      0x40\n        /* \"#utility.yul\":1818:1840   */\n      mstore\n        /* \"#utility.yul\":1608:1846   */\n      pop\n        /* \"#utility.yul\":1565:1846   */\n      pop\n      pop\n      jump\t// out\n        /* \"#utility.yul\":1852:1981   */\n    tag_127:\n        /* \"#utility.yul\":1886:1892   */\n      0x00\n        /* \"#utility.yul\":1913:1933   */\n      tag_184\n      tag_116\n      jump\t// in\n    tag_184:\n        /* \"#utility.yul\":1903:1933   */\n      swap1\n      pop\n        /* \"#utility.yul\":1942:1975   */\n      tag_185\n        /* \"#utility.yul\":1970:1974   */\n      dup3\n        /* \"#utility.yul\":1962:1968   */\n      dup3\n        /* \"#utility.yul\":1942:1975   */\n      tag_126\n      jump\t// in\n    tag_185:\n        /* \"#utility.yul\":1852:1981   */\n      swap2\n      swap1\n      pop\n      jump\t// out\n        /* \"#utility.yul\":1987:2295   */\n    tag_128:\n        /* \"#utility.yul\":2049:2053   */\n      0x00\n        /* \"#utility.yul\":2139:2157   */\n      0xffffffffffffffff\n        /* \"#utility.yul\":2131:2137   */\n      dup3\n        /* \"#utility.yul\":2128:2158   */\n      gt\n        /* \"#utility.yul\":2125:2181   */\n      iszero\n      tag_187\n      jumpi\n        /* \"#utility.yul\":2161:2179   */\n      tag_188\n      tag_125\n      jump\t// in\n    tag_188:\n        /* \"#utility.yul\":2125:2181   */\n    tag_187:\n        /* \"#utility.yul\":2199:2228   */\n      tag_189\n        /* \"#utility.yul\":2221:2227   */\n      dup3\n        /* \"#utility.yul\":2199:2228   */\n      tag_124\n      jump\t// in\n    tag_189:\n        /* \"#utility.yul\":2191:2228   */\n      swap1\n      pop\n        /* \"#utility.yul\":2283:2287   */\n      0x20\n        /* \"#utility.yul\":2277:2281   */\n      dup2\n        /* \"#utility.yul\":2273:2288   */\n      add\n        /* \"#utility.yul\":2265:2288   */\n      swap1\n      pop\n        /* \"#utility.yul\":1987:2295   */\n      swap2\n      swap1\n      pop\n      jump\t// out\n        /* \"#utility.yul\":2301:2449   */\n    tag_129:\n        /* \"#utility.yul\":2399:2405   */\n      dup3\n        /* \"#utility.yul\":2394:2397   */\n      dup2\n        /* \"#utility.yul\":2389:2392   */\n      dup4\n        /* \"#utility.yul\":2376:2406   */\n      calldatacopy\n        /* \"#utility.yul\":2440:2441   */\n      0x00\n        /* \"#utility.yul\":2431:2437   */\n      dup4\n        /* \"#utility.yul\":2426:2429   */\n      dup4\n        /* \"#utility.yul\":2422:2438   */\n      add\n        /* \"#utility.yul\":2415:2442   */\n      mstore\n        /* \"#utility.yul\":2301:2449   */\n      pop\n      pop\n      pop\n      jump\t// out\n        /* \"#utility.yul\":2455:2880   */\n    tag_130:\n        /* \"#utility.yul\":2533:2538   */\n      0x00\n        /* \"#utility.yul\":2558:2624   */\n      tag_192\n        /* \"#utility.yul\":2574:2623   */\n      tag_193\n        /* \"#utility.yul\":2616:2622   */\n      dup5\n        /* \"#utility.yul\":2574:2623   */\n      tag_128\n      jump\t// in\n    tag_193:\n        /* \"#utility.yul\":2558:2624   */\n      tag_127\n      jump\t// in\n    tag_192:\n        /* \"#utility.yul\":2549:2624   */\n      swap1\n      pop\n        /* \"#utility.yul\":2647:2653   */\n      dup3\n        /* \"#utility.yul\":2640:2645   */\n      dup2\n        /* \"#utility.yul\":2633:2654   */\n      mstore\n        /* \"#utility.yul\":2685:2689   */\n      0x20\n        /* \"#utility.yul\":2678:2683   */\n      dup2\n        /* \"#utility.yul\":2674:2690   */\n      add\n        /* \"#utility.yul\":2723:2726   */\n      dup5\n        /* \"#utility.yul\":2714:2720   */\n      dup5\n        /* \"#utility.yul\":2709:2712   */\n      dup5\n        /* \"#utility.yul\":2705:2721   */\n      add\n        /* \"#utility.yul\":2702:2727   */\n      gt\n        /* \"#utility.yul\":2699:2811   */\n      iszero\n      tag_194\n      jumpi\n        /* \"#utility.yul\":2730:2809   */\n      tag_195\n      tag_123\n      jump\t// in\n    tag_195:\n        /* \"#utility.yul\":2699:2811   */\n    tag_194:\n        /* \"#utility.yul\":2820:2874   */\n      tag_196\n        /* \"#utility.yul\":2867:2873   */\n      dup5\n        /* \"#utility.yul\":2862:2865   */\n      dup3\n        /* \"#utility.yul\":2857:2860   */\n      dup6\n        /* \"#utility.yul\":2820:2874   */\n      tag_129\n      jump\t// in\n    tag_196:\n        /* \"#utility.yul\":2539:2880   */\n      pop\n        /* \"#utility.yul\":2455:2880   */\n      swap4\n      swap3\n      pop\n      pop\n      pop\n      jump\t// out\n        /* \"#utility.yul\":2900:3240   */\n    tag_131:\n        /* \"#utility.yul\":2956:2961   */\n      0x00\n        /* \"#utility.yul\":3005:3008   */\n      dup3\n        /* \"#utility.yul\":2998:3002   */\n      0x1f\n        /* \"#utility.yul\":2990:2996   */\n      dup4\n        /* \"#utility.yul\":2986:3003   */\n      add\n        /* \"#utility.yul\":2982:3009   */\n      slt\n        /* \"#utility.yul\":2972:3094   */\n      tag_198\n      jumpi\n        /* \"#utility.yul\":3013:3092   */\n      tag_199\n      tag_122\n      jump\t// in\n    tag_199:\n        /* \"#utility.yul\":2972:3094   */\n    tag_198:\n        /* \"#utility.yul\":3130:3136   */\n      dup2\n        /* \"#utility.yul\":3117:3137   */\n      calldataload\n        /* \"#utility.yul\":3155:3234   */\n      tag_200\n        /* \"#utility.yul\":3230:3233   */\n      dup5\n        /* \"#utility.yul\":3222:3228   */\n      dup3\n        /* \"#utility.yul\":3215:3219   */\n      0x20\n        /* \"#utility.yul\":3207:3213   */\n      dup7\n        /* \"#utility.yul\":3203:3220   */\n      add\n        /* \"#utility.yul\":3155:3234   */\n      tag_130\n      jump\t// in\n    tag_200:\n        /* \"#utility.yul\":3146:3234   */\n      swap2\n      pop\n        /* \"#utility.yul\":2962:3240   */\n      pop\n        /* \"#utility.yul\":2900:3240   */\n      swap3\n      swap2\n      pop\n      pop\n      jump\t// out\n        /* \"#utility.yul\":3246:3755   */\n    tag_17:\n        /* \"#utility.yul\":3315:3321   */\n      0x00\n        /* \"#utility.yul\":3364:3366   */\n      0x20\n        /* \"#utility.yul\":3352:3361   */\n      dup3\n        /* \"#utility.yul\":3343:3350   */\n      dup5\n        /* \"#utility.yul\":3339:3362   */\n      sub\n        /* \"#utility.yul\":3335:3367   */\n      slt\n        /* \"#utility.yul\":3332:3451   */\n      iszero\n      tag_202\n      jumpi\n        /* \"#utility.yul\":3370:3449   */\n      tag_203\n      tag_117\n      jump\t// in\n    tag_203:\n        /* \"#utility.yul\":3332:3451   */\n    tag_202:\n        /* \"#utility.yul\":3518:3519   */\n      0x00\n        /* \"#utility.yul\":3507:3516   */\n      dup3\n        /* \"#utility.yul\":3503:3520   */\n      add\n        /* \"#utility.yul\":3490:3521   */\n      calldataload\n        /* \"#utility.yul\":3548:3566   */\n      0xffffffffffffffff\n        /* \"#utility.yul\":3540:3546   */\n      dup2\n        /* \"#utility.yul\":3537:3567   */\n      gt\n        /* \"#utility.yul\":3534:3651   */\n      iszero\n      tag_204\n      jumpi\n        /* \"#utility.yul\":3570:3649   */\n      tag_205\n      tag_118\n      jump\t// in\n    tag_205:\n        /* \"#utility.yul\":3534:3651   */\n    tag_204:\n        /* \"#utility.yul\":3675:3738   */\n      tag_206\n        /* \"#utility.yul\":3730:3737   */\n      dup5\n        /* \"#utility.yul\":3721:3727   */\n      dup3\n        /* \"#utility.yul\":3710:3719   */\n      dup6\n        /* \"#utility.yul\":3706:3728   */\n      add\n        /* \"#utility.yul\":3675:3738   */\n      tag_131\n      jump\t// in\n    tag_206:\n        /* \"#utility.yul\":3665:3738   */\n      swap2\n      pop\n        /* \"#utility.yul\":3461:3748   */\n      pop\n        /* \"#utility.yul\":3246:3755   */\n      swap3\n      swap2\n      pop\n      pop\n      jump\t// out\n        /* \"#utility.yul\":3761:3887   */\n    tag_132:\n        /* \"#utility.yul\":3798:3805   */\n      0x00\n        /* \"#utility.yul\":3838:3880   */\n      0xffffffffffffffffffffffffffffffffffffffff\n        /* \"#utility.yul\":3831:3836   */\n      dup3\n        /* \"#utility.yul\":3827:3881   */\n      and\n        /* \"#utility.yul\":3816:3881   */\n      swap1\n      pop\n        /* \"#utility.yul\":3761:3887   */\n      swap2\n      swap1\n      pop\n      jump\t// out\n        /* \"#utility.yul\":3893:3989   */\n    tag_133:\n        /* \"#utility.yul\":3930:3937   */\n      0x00\n        /* \"#utility.yul\":3959:3983   */\n      tag_209\n        /* \"#utility.yul\":3977:3982   */\n      dup3\n        /* \"#utility.yul\":3959:3983   */\n      tag_132\n      jump\t// in\n    tag_209:\n        /* \"#utility.yul\":3948:3983   */\n      swap1\n      pop\n        /* \"#utility.yul\":3893:3989   */\n      swap2\n      swap1\n      pop\n      jump\t// out\n        /* \"#utility.yul\":3995:4117   */\n    tag_134:\n        /* \"#utility.yul\":4068:4092   */\n      tag_211\n        /* \"#utility.yul\":4086:4091   */\n      dup2\n        /* \"#utility.yul\":4068:4092   */\n      tag_133\n      jump\t// in\n    tag_211:\n        /* \"#utility.yul\":4061:4066   */\n      dup2\n        /* \"#utility.yul\":4058:4093   */\n      eq\n        /* \"#utility.yul\":4048:4111   */\n      tag_212\n      jumpi\n        /* \"#utility.yul\":4107:4108   */\n      0x00\n        /* \"#utility.yul\":4104:4105   */\n      0x00\n        /* \"#utility.yul\":4097:4109   */\n      revert\n        /* \"#utility.yul\":4048:4111   */\n    tag_212:\n        /* \"#utility.yul\":3995:4117   */\n      pop\n      jump\t// out\n        /* \"#utility.yul\":4123:4262   */\n    tag_135:\n        /* \"#utility.yul\":4169:4174   */\n      0x00\n        /* \"#utility.yul\":4207:4213   */\n      dup2\n        /* \"#utility.yul\":4194:4214   */\n      calldataload\n        /* \"#utility.yul\":4185:4214   */\n      swap1\n      pop\n        /* \"#utility.yul\":4223:4256   */\n      tag_214\n        /* \"#utility.yul\":4250:4255   */\n      dup2\n        /* \"#utility.yul\":4223:4256   */\n      tag_134\n      jump\t// in\n    tag_214:\n        /* \"#utility.yul\":4123:4262   */\n      swap3\n      swap2\n      pop\n      pop\n      jump\t// out\n        /* \"#utility.yul\":4268:4597   */\n    tag_21:\n        /* \"#utility.yul\":4327:4333   */\n      0x00\n        /* \"#utility.yul\":4376:4378   */\n      0x20\n        /* \"#utility.yul\":4364:4373   */\n      dup3\n        /* \"#utility.yul\":4355:4362   */\n      dup5\n        /* \"#utility.yul\":4351:4374   */\n      sub\n        /* \"#utility.yul\":4347:4379   */\n      slt\n        /* \"#utility.yul\":4344:4463   */\n      iszero\n      tag_216\n      jumpi\n        /* \"#utility.yul\":4382:4461   */\n      tag_217\n      tag_117\n      jump\t// in\n    tag_217:\n        /* \"#utility.yul\":4344:4463   */\n    tag_216:\n        /* \"#utility.yul\":4502:4503   */\n      0x00\n        /* \"#utility.yul\":4527:4580   */\n      tag_218\n        /* \"#utility.yul\":4572:4579   */\n      dup5\n        /* \"#utility.yul\":4563:4569   */\n      dup3\n        /* \"#utility.yul\":4552:4561   */\n      dup6\n        /* \"#utility.yul\":4548:4570   */\n      add\n        /* \"#utility.yul\":4527:4580   */\n      tag_135\n      jump\t// in\n    tag_218:\n        /* \"#utility.yul\":4517:4580   */\n      swap2\n      pop\n        /* \"#utility.yul\":4473:4590   */\n      pop\n        /* \"#utility.yul\":4268:4597   */\n      swap3\n      swap2\n      pop\n      pop\n      jump\t// out\n        /* \"#utility.yul\":4603:4721   */\n    tag_136:\n        /* \"#utility.yul\":4690:4714   */\n      tag_220\n        /* \"#utility.yul\":4708:4713   */\n      dup2\n        /* \"#utility.yul\":4690:4714   */\n      tag_133\n      jump\t// in\n    tag_220:\n        /* \"#utility.yul\":4685:4688   */\n      dup3\n        /* \"#utility.yul\":4678:4715   */\n      mstore\n        /* \"#utility.yul\":4603:4721   */\n      pop\n      pop\n      jump\t// out\n        /* \"#utility.yul\":4727:4949   */\n    tag_30:\n        /* \"#utility.yul\":4820:4824   */\n      0x00\n        /* \"#utility.yul\":4858:4860   */\n      0x20\n        /* \"#utility.yul\":4847:4856   */\n      dup3\n        /* \"#utility.yul\":4843:4861   */\n      add\n        /* \"#utility.yul\":4835:4861   */\n      swap1\n      pop\n        /* \"#utility.yul\":4871:4942   */\n      tag_222\n        /* \"#utility.yul\":4939:4940   */\n      0x00\n        /* \"#utility.yul\":4928:4937   */\n      dup4\n        /* \"#utility.yul\":4924:4941   */\n      add\n        /* \"#utility.yul\":4915:4921   */\n      dup5\n        /* \"#utility.yul\":4871:4942   */\n      tag_136\n      jump\t// in\n    tag_222:\n        /* \"#utility.yul\":4727:4949   */\n      swap3\n      swap2\n      pop\n      pop\n      jump\t// out\n        /* \"#utility.yul\":4955:5135   */\n    tag_39:\n        /* \"#utility.yul\":5003:5080   */\n      0x4e487b7100000000000000000000000000000000000000000000000000000000\n        /* \"#utility.yul\":5000:5001   */\n      0x00\n        /* \"#utility.yul\":4993:5081   */\n      mstore\n        /* \"#utility.yul\":5100:5104   */\n      0x21\n        /* \"#utility.yul\":5097:5098   */\n      0x04\n        /* \"#utility.yul\":5090:5105   */\n      mstore\n        /* \"#utility.yul\":5124:5128   */\n      0x24\n        /* \"#utility.yul\":5121:5122   */\n      0x00\n        /* \"#utility.yul\":5114:5129   */\n      revert\n        /* \"#utility.yul\":5141:5264   */\n    tag_137:\n        /* \"#utility.yul\":5232:5233   */\n      0x06\n        /* \"#utility.yul\":5225:5230   */\n      dup2\n        /* \"#utility.yul\":5222:5234   */\n      lt\n        /* \"#utility.yul\":5212:5258   */\n      tag_225\n      jumpi\n        /* \"#utility.yul\":5238:5256   */\n      tag_226\n      tag_39\n      jump\t// in\n    tag_226:\n        /* \"#utility.yul\":5212:5258   */\n    tag_225:\n        /* \"#utility.yul\":5141:5264   */\n      pop\n      jump\t// out\n        /* \"#utility.yul\":5270:5417   */\n    tag_138:\n        /* \"#utility.yul\":5325:5332   */\n      0x00\n        /* \"#utility.yul\":5354:5359   */\n      dup2\n        /* \"#utility.yul\":5343:5359   */\n      swap1\n      pop\n        /* \"#utility.yul\":5360:5411   */\n      tag_228\n        /* \"#utility.yul\":5405:5410   */\n      dup3\n        /* \"#utility.yul\":5360:5411   */\n      tag_137\n      jump\t// in\n    tag_228:\n        /* \"#utility.yul\":5270:5417   */\n      swap2\n      swap1\n      pop\n      jump\t// out\n        /* \"#utility.yul\":5423:5570   */\n    tag_139:\n        /* \"#utility.yul\":5489:5498   */\n      0x00\n        /* \"#utility.yul\":5522:5564   */\n      tag_230\n        /* \"#utility.yul\":5558:5563   */\n      dup3\n        /* \"#utility.yul\":5522:5564   */\n      tag_138\n      jump\t// in\n    tag_230:\n        /* \"#utility.yul\":5509:5564   */\n      swap1\n      pop\n        /* \"#utility.yul\":5423:5570   */\n      swap2\n      swap1\n      pop\n      jump\t// out\n        /* \"#utility.yul\":5576:5739   */\n    tag_140:\n        /* \"#utility.yul\":5679:5732   */\n      tag_232\n        /* \"#utility.yul\":5726:5731   */\n      dup2\n        /* \"#utility.yul\":5679:5732   */\n      tag_139\n      jump\t// in\n    tag_232:\n        /* \"#utility.yul\":5674:5677   */\n      dup3\n        /* \"#utility.yul\":5667:5733   */\n      mstore\n        /* \"#utility.yul\":5576:5739   */\n      pop\n      pop\n      jump\t// out\n        /* \"#utility.yul\":5745:6141   */\n    tag_44:\n        /* \"#utility.yul\":5898:5902   */\n      0x00\n        /* \"#utility.yul\":5936:5938   */\n      0x40\n        /* \"#utility.yul\":5925:5934   */\n      dup3\n        /* \"#utility.yul\":5921:5939   */\n      add\n        /* \"#utility.yul\":5913:5939   */\n      swap1\n      pop\n        /* \"#utility.yul\":5949:6036   */\n      tag_234\n        /* \"#utility.yul\":6033:6034   */\n      0x00\n        /* \"#utility.yul\":6022:6031   */\n      dup4\n        /* \"#utility.yul\":6018:6035   */\n      add\n        /* \"#utility.yul\":6009:6015   */\n      dup6\n        /* \"#utility.yul\":5949:6036   */\n      tag_140\n      jump\t// in\n    tag_234:\n        /* \"#utility.yul\":6046:6134   */\n      tag_235\n        /* \"#utility.yul\":6130:6132   */\n      0x20\n        /* \"#utility.yul\":6119:6128   */\n      dup4\n        /* \"#utility.yul\":6115:6133   */\n      add\n        /* \"#utility.yul\":6106:6112   */\n      dup5\n        /* \"#utility.yul\":6046:6134   */\n      tag_140\n      jump\t// in\n    tag_235:\n        /* \"#utility.yul\":5745:6141   */\n      swap4\n      swap3\n      pop\n      pop\n      pop\n      jump\t// out\n        /* \"#utility.yul\":6147:6327   */\n    tag_49:\n        /* \"#utility.yul\":6195:6272   */\n      0x4e487b7100000000000000000000000000000000000000000000000000000000\n        /* \"#utility.yul\":6192:6193   */\n      0x00\n        /* \"#utility.yul\":6185:6273   */\n      mstore\n        /* \"#utility.yul\":6292:6296   */\n      0x32\n        /* \"#utility.yul\":6289:6290   */\n      0x04\n        /* \"#utility.yul\":6282:6297   */\n      mstore\n        /* \"#utility.yul\":6316:6320   */\n      0x24\n        /* \"#utility.yul\":6313:6314   */\n      0x00\n        /* \"#utility.yul\":6306:6321   */\n      revert\n        /* \"#utility.yul\":6333:6513   */\n    tag_141:\n        /* \"#utility.yul\":6381:6458   */\n      0x4e487b7100000000000000000000000000000000000000000000000000000000\n        /* \"#utility.yul\":6378:6379   */\n      0x00\n        /* \"#utility.yul\":6371:6459   */\n      mstore\n        /* \"#utility.yul\":6478:6482   */\n      0x11\n        /* \"#utility.yul\":6475:6476   */\n      0x04\n        /* \"#utility.yul\":6468:6483   */\n      mstore\n        /* \"#utility.yul\":6502:6506   */\n      0x24\n        /* \"#utility.yul\":6499:6500   */\n      0x00\n        /* \"#utility.yul\":6492:6507   */\n      revert\n        /* \"#utility.yul\":6519:6710   */\n    tag_52:\n        /* \"#utility.yul\":6559:6562   */\n      0x00\n        /* \"#utility.yul\":6578:6598   */\n      tag_239\n        /* \"#utility.yul\":6596:6597   */\n      dup3\n        /* \"#utility.yul\":6578:6598   */\n      tag_119\n      jump\t// in\n    tag_239:\n        /* \"#utility.yul\":6573:6598   */\n      swap2\n      pop\n        /* \"#utility.yul\":6612:6632   */\n      tag_240\n        /* \"#utility.yul\":6630:6631   */\n      dup4\n        /* \"#utility.yul\":6612:6632   */\n      tag_119\n      jump\t// in\n    tag_240:\n        /* \"#utility.yul\":6607:6632   */\n      swap3\n      pop\n        /* \"#utility.yul\":6655:6656   */\n      dup3\n        /* \"#utility.yul\":6652:6653   */\n      dup3\n        /* \"#utility.yul\":6648:6657   */\n      add\n        /* \"#utility.yul\":6641:6657   */\n      swap1\n      pop\n        /* \"#utility.yul\":6676:6679   */\n      dup1\n        /* \"#utility.yul\":6673:6674   */\n      dup3\n        /* \"#utility.yul\":6670:6680   */\n      gt\n        /* \"#utility.yul\":6667:6703   */\n      iszero\n      tag_241\n      jumpi\n        /* \"#utility.yul\":6683:6701   */\n      tag_242\n      tag_141\n      jump\t// in\n    tag_242:\n        /* \"#utility.yul\":6667:6703   */\n    tag_241:\n        /* \"#utility.yul\":6519:6710   */\n      swap3\n      swap2\n      pop\n      pop\n      jump\t// out\n        /* \"#utility.yul\":6716:6834   */\n    tag_142:\n        /* \"#utility.yul\":6803:6827   */\n      tag_244\n        /* \"#utility.yul\":6821:6826   */\n      dup2\n        /* \"#utility.yul\":6803:6827   */\n      tag_119\n      jump\t// in\n    tag_244:\n        /* \"#utility.yul\":6798:6801   */\n      dup3\n        /* \"#utility.yul\":6791:6828   */\n      mstore\n        /* \"#utility.yul\":6716:6834   */\n      pop\n      pop\n      jump\t// out\n        /* \"#utility.yul\":6840:7172   */\n    tag_54:\n        /* \"#utility.yul\":6961:6965   */\n      0x00\n        /* \"#utility.yul\":6999:7001   */\n      0x40\n        /* \"#utility.yul\":6988:6997   */\n      dup3\n        /* \"#utility.yul\":6984:7002   */\n      add\n        /* \"#utility.yul\":6976:7002   */\n      swap1\n      pop\n        /* \"#utility.yul\":7012:7083   */\n      tag_246\n        /* \"#utility.yul\":7080:7081   */\n      0x00\n        /* \"#utility.yul\":7069:7078   */\n      dup4\n        /* \"#utility.yul\":7065:7082   */\n      add\n        /* \"#utility.yul\":7056:7062   */\n      dup6\n        /* \"#utility.yul\":7012:7083   */\n      tag_136\n      jump\t// in\n    tag_246:\n        /* \"#utility.yul\":7093:7165   */\n      tag_247\n        /* \"#utility.yul\":7161:7163   */\n      0x20\n        /* \"#utility.yul\":7150:7159   */\n      dup4\n        /* \"#utility.yul\":7146:7164   */\n      add\n        /* \"#utility.yul\":7137:7143   */\n      dup5\n        /* \"#utility.yul\":7093:7165   */\n      tag_142\n      jump\t// in\n    tag_247:\n        /* \"#utility.yul\":6840:7172   */\n      swap4\n      swap3\n      pop\n      pop\n      pop\n      jump\t// out\n        /* \"#utility.yul\":7178:7277   */\n    tag_143:\n        /* \"#utility.yul\":7230:7236   */\n      0x00\n        /* \"#utility.yul\":7264:7269   */\n      dup2\n        /* \"#utility.yul\":7258:7270   */\n      mload\n        /* \"#utility.yul\":7248:7270   */\n      swap1\n      pop\n        /* \"#utility.yul\":7178:7277   */\n      swap2\n      swap1\n      pop\n      jump\t// out\n        /* \"#utility.yul\":7283:7463   */\n    tag_144:\n        /* \"#utility.yul\":7331:7408   */\n      0x4e487b7100000000000000000000000000000000000000000000000000000000\n        /* \"#utility.yul\":7328:7329   */\n      0x00\n        /* \"#utility.yul\":7321:7409   */\n      mstore\n        /* \"#utility.yul\":7428:7432   */\n      0x22\n        /* \"#utility.yul\":7425:7426   */\n      0x04\n        /* \"#utility.yul\":7418:7433   */\n      mstore\n        /* \"#utility.yul\":7452:7456   */\n      0x24\n        /* \"#utility.yul\":7449:7450   */\n      0x00\n        /* \"#utility.yul\":7442:7457   */\n      revert\n        /* \"#utility.yul\":7469:7789   */\n    tag_145:\n        /* \"#utility.yul\":7513:7519   */\n      0x00\n        /* \"#utility.yul\":7550:7551   */\n      0x02\n        /* \"#utility.yul\":7544:7548   */\n      dup3\n        /* \"#utility.yul\":7540:7552   */\n      div\n        /* \"#utility.yul\":7530:7552   */\n      swap1\n      pop\n        /* \"#utility.yul\":7597:7598   */\n      0x01\n        /* \"#utility.yul\":7591:7595   */\n      dup3\n        /* \"#utility.yul\":7587:7599   */\n      and\n        /* \"#utility.yul\":7618:7636   */\n      dup1\n        /* \"#utility.yul\":7608:7689   */\n      tag_251\n      jumpi\n        /* \"#utility.yul\":7674:7678   */\n      0x7f\n        /* \"#utility.yul\":7666:7672   */\n      dup3\n        /* \"#utility.yul\":7662:7679   */\n      and\n        /* \"#utility.yul\":7652:7679   */\n      swap2\n      pop\n        /* \"#utility.yul\":7608:7689   */\n    tag_251:\n        /* \"#utility.yul\":7736:7738   */\n      0x20\n        /* \"#utility.yul\":7728:7734   */\n      dup3\n        /* \"#utility.yul\":7725:7739   */\n      lt\n        /* \"#utility.yul\":7705:7723   */\n      dup2\n        /* \"#utility.yul\":7702:7740   */\n      sub\n        /* \"#utility.yul\":7699:7783   */\n      tag_252\n      jumpi\n        /* \"#utility.yul\":7755:7773   */\n      tag_253\n      tag_144\n      jump\t// in\n    tag_253:\n        /* \"#utility.yul\":7699:7783   */\n    tag_252:\n        /* \"#utility.yul\":7520:7789   */\n      pop\n        /* \"#utility.yul\":7469:7789   */\n      swap2\n      swap1\n      pop\n      jump\t// out\n        /* \"#utility.yul\":7795:7936   */\n    tag_146:\n        /* \"#utility.yul\":7844:7848   */\n      0x00\n        /* \"#utility.yul\":7867:7870   */\n      dup2\n        /* \"#utility.yul\":7859:7870   */\n      swap1\n      pop\n        /* \"#utility.yul\":7890:7893   */\n      dup2\n        /* \"#utility.yul\":7887:7888   */\n      0x00\n        /* \"#utility.yul\":7880:7894   */\n      mstore\n        /* \"#utility.yul\":7924:7928   */\n      0x20\n        /* \"#utility.yul\":7921:7922   */\n      0x00\n        /* \"#utility.yul\":7911:7929   */\n      keccak256\n        /* \"#utility.yul\":7903:7929   */\n      swap1\n      pop\n        /* \"#utility.yul\":7795:7936   */\n      swap2\n      swap1\n      pop\n      jump\t// out\n        /* \"#utility.yul\":7942:8035   */\n    tag_147:\n        /* \"#utility.yul\":7979:7985   */\n      0x00\n        /* \"#utility.yul\":8026:8028   */\n      0x20\n        /* \"#utility.yul\":8021:8023   */\n      0x1f\n        /* \"#utility.yul\":8014:8019   */\n      dup4\n        /* \"#utility.yul\":8010:8024   */\n      add\n        /* \"#utility.yul\":8006:8029   */\n      div\n        /* \"#utility.yul\":7996:8029   */\n      swap1\n      pop\n        /* \"#utility.yul\":7942:8035   */\n      swap2\n      swap1\n      pop\n      jump\t// out\n        /* \"#utility.yul\":8041:8148   */\n    tag_148:\n        /* \"#utility.yul\":8085:8093   */\n      0x00\n        /* \"#utility.yul\":8135:8140   */\n      dup3\n        /* \"#utility.yul\":8129:8133   */\n      dup3\n        /* \"#utility.yul\":8125:8141   */\n      shl\n        /* \"#utility.yul\":8104:8141   */\n      swap1\n      pop\n        /* \"#utility.yul\":8041:8148   */\n      swap3\n      swap2\n      pop\n      pop\n      jump\t// out\n        /* \"#utility.yul\":8154:8547   */\n    tag_149:\n        /* \"#utility.yul\":8223:8229   */\n      0x00\n        /* \"#utility.yul\":8273:8274   */\n      0x08\n        /* \"#utility.yul\":8261:8271   */\n      dup4\n        /* \"#utility.yul\":8257:8275   */\n      mul\n        /* \"#utility.yul\":8296:8393   */\n      tag_258\n        /* \"#utility.yul\":8326:8392   */\n      0xffffffffffffffffffffffffffffffffffffffffffffffffffffffffffffffff\n        /* \"#utility.yul\":8315:8324   */\n      dup3\n        /* \"#utility.yul\":8296:8393   */\n      tag_148\n      jump\t// in\n    tag_258:\n        /* \"#utility.yul\":8414:8453   */\n      tag_259\n        /* \"#utility.yul\":8444:8452   */\n      dup7\n        /* \"#utility.yul\":8433:8442   */\n      dup4\n        /* \"#utility.yul\":8414:8453   */\n      tag_148\n      jump\t// in\n    tag_259:\n        /* \"#utility.yul\":8402:8453   */\n      swap6\n      pop\n        /* \"#utility.yul\":8486:8490   */\n      dup1\n        /* \"#utility.yul\":8482:8491   */\n      not\n        /* \"#utility.yul\":8475:8480   */\n      dup5\n        /* \"#utility.yul\":8471:8492   */\n      and\n        /* \"#utility.yul\":8462:8492   */\n      swap4\n      pop\n        /* \"#utility.yul\":8535:8539   */\n      dup1\n        /* \"#utility.yul\":8525:8533   */\n      dup7\n        /* \"#utility.yul\":8521:8540   */\n      and\n        /* \"#utility.yul\":8514:8519   */\n      dup5\n        /* \"#utility.yul\":8511:8541   */\n      or\n        /* \"#utility.yul\":8501:8541   */\n      swap3\n      pop\n        /* \"#utility.yul\":8230:8547   */\n      pop\n      pop\n        /* \"#utility.yul\":8154:8547   */\n      swap4\n      swap3\n      pop\n      pop\n      pop\n      jump\t// out\n        /* \"#utility.yul\":8553:8613   */\n    tag_150:\n        /* \"#utility.yul\":8581:8584   */\n      0x00\n        /* \"#utility.yul\":8602:8607   */\n      dup2\n        /* \"#utility.yul\":8595:8607   */\n      swap1\n      pop\n        /* \"#utility.yul\":8553:8613   */\n      swap2\n      swap1\n      pop\n      jump\t// out\n        /* \"#utility.yul\":8619:8761   */\n    tag_151:\n        /* \"#utility.yul\":8669:8678   */\n      0x00\n        /* \"#utility.yul\":8702:8755   */\n      tag_262\n        /* \"#utility.yul\":8720:8754   */\n      tag_263\n        /* \"#utility.yul\":8729:8753   */\n      tag_264\n        /* \"#utility.yul\":8747:8752   */\n      dup5\n        /* \"#utility.yul\":8729:8753   */\n      tag_119\n      jump\t// in\n    tag_264:\n        /* \"#utility.yul\":8720:8754   */\n      tag_150\n      jump\t// in\n    tag_263:\n        /* \"#utility.yul\":8702:8755   */\n      tag_119\n      jump\t// in\n    tag_262:\n        /* \"#utility.yul\":8689:8755   */\n      swap1\n      pop\n        /* \"#utility.yul\":8619:8761   */\n      swap2\n      swap1\n      pop\n      jump\t// out\n        /* \"#utility.yul\":8767:8842   */\n    tag_152:\n        /* \"#utility.yul\":8810:8813   */\n      0x00\n        /* \"#utility.yul\":8831:8836   */\n      dup2\n        /* \"#utility.yul\":8824:8836   */\n      swap1\n      pop\n        /* \"#utility.yul\":8767:8842   */\n      swap2\n      swap1\n      pop\n      jump\t// out\n        /* \"#utility.yul\":8848:9117   */\n    tag_153:\n        /* \"#utility.yul\":8958:8997   */\n      tag_267\n        /* \"#utility.yul\":8989:8996   */\n      dup4\n        /* \"#utility.yul\":8958:8997   */\n      tag_151\n      jump\t// in\n    tag_267:\n        /* \"#utility.yul\":9019:9110   */\n      tag_268\n        /* \"#utility.yul\":9068:9109   */\n      tag_269\n        /* \"#utility.yul\":9092:9108   */\n      dup3\n        /* \"#utility.yul\":9068:9109   */\n      tag_152\n      jump\t// in\n    tag_269:\n        /* \"#utility.yul\":9060:9066   */\n      dup5\n        /* \"#utility.yul\":9053:9057   */\n      dup5\n        /* \"#utility.yul\":9047:9058   */\n      sload\n        /* \"#utility.yul\":9019:9110   */\n      tag_149\n      jump\t// in\n    tag_268:\n        /* \"#utility.yul\":9013:9017   */\n      dup3\n        /* \"#utility.yul\":9006:9111   */\n      sstore\n        /* \"#utility.yul\":8924:9117   */\n      pop\n        /* \"#utility.yul\":8848:9117   */\n      pop\n      pop\n      pop\n      jump\t// out\n        /* \"#utility.yul\":9123:9196   */\n    tag_154:\n        /* \"#utility.yul\":9168:9171   */\n      0x00\n        /* \"#utility.yul\":9189:9190   */\n      0x00\n        /* \"#utility.yul\":9182:9190   */\n      swap1\n      pop\n        /* \"#utility.yul\":9123:9196   */\n      swap1\n      jump\t// out\n        /* \"#utility.yul\":9202:9391   */\n    tag_155:\n        /* \"#utility.yul\":9279:9311   */\n      tag_272\n      tag_154\n      jump\t// in\n    tag_272:\n        /* \"#utility.yul\":9320:9385   */\n      tag_273\n        /* \"#utility.yul\":9378:9384   */\n      dup2\n        /* \"#utility.yul\":9370:9376   */\n      dup5\n        /* \"#utility.yul\":9364:9368   */\n      dup5\n        /* \"#utility.yul\":9320:9385   */\n      tag_153\n      jump\t// in\n    tag_273:\n        /* \"#utility.yul\":9255:9391   */\n      pop\n        /* \"#utility.yul\":9202:9391   */\n      pop\n      pop\n      jump\t// out\n        /* \"#utility.yul\":9397:9583   */\n    tag_156:\n        /* \"#utility.yul\":9457:9577   */\n    tag_275:\n        /* \"#utility.yul\":9474:9477   */\n      dup2\n        /* \"#utility.yul\":9467:9472   */\n      dup2\n        /* \"#utility.yul\":9464:9478   */\n      lt\n        /* \"#utility.yul\":9457:9577   */\n      iszero\n      tag_277\n      jumpi\n        /* \"#utility.yul\":9528:9567   */\n      tag_278\n        /* \"#utility.yul\":9565:9566   */\n      0x00\n        /* \"#utility.yul\":9558:9563   */\n      dup3\n        /* \"#utility.yul\":9528:9567   */\n      tag_155\n      jump\t// in\n    tag_278:\n        /* \"#utility.yul\":9501:9502   */\n      0x01\n        /* \"#utility.yul\":9494:9499   */\n      dup2\n        /* \"#utility.yul\":9490:9503   */\n      add\n        /* \"#utility.yul\":9481:9503   */\n      swap1\n      pop\n        /* \"#utility.yul\":9457:9577   */\n      jump(tag_275)\n    tag_277:\n        /* \"#utility.yul\":9397:9583   */\n      pop\n      pop\n      jump\t// out\n        /* \"#utility.yul\":9589:10132   */\n    tag_157:\n        /* \"#utility.yul\":9690:9692   */\n      0x1f\n        /* \"#utility.yul\":9685:9688   */\n      dup3\n        /* \"#utility.yul\":9682:9693   */\n      gt\n        /* \"#utility.yul\":9679:10125   */\n      iszero\n      tag_280\n      jumpi\n        /* \"#utility.yul\":9724:9762   */\n      tag_281\n        /* \"#utility.yul\":9756:9761   */\n      dup2\n        /* \"#utility.yul\":9724:9762   */\n      tag_146\n      jump\t// in\n    tag_281:\n        /* \"#utility.yul\":9808:9837   */\n      tag_282\n        /* \"#utility.yul\":9826:9836   */\n      dup5\n        /* \"#utility.yul\":9808:9837   */\n      tag_147\n      jump\t// in\n    tag_282:\n        /* \"#utility.yul\":9798:9806   */\n      dup2\n        /* \"#utility.yul\":9794:9838   */\n      add\n        /* \"#utility.yul\":9991:9993   */\n      0x20\n        /* \"#utility.yul\":9979:9989   */\n      dup6\n        /* \"#utility.yul\":9976:9994   */\n      lt\n        /* \"#utility.yul\":9973:10022   */\n      iszero\n      tag_283\n      jumpi\n        /* \"#utility.yul\":10012:10020   */\n      dup2\n        /* \"#utility.yul\":9997:10020   */\n      swap1\n      pop\n        /* \"#utility.yul\":9973:10022   */\n    tag_283:\n        /* \"#utility.yul\":10035:10115   */\n      tag_284\n        /* \"#utility.yul\":10091:10113   */\n      tag_285\n        /* \"#utility.yul\":10109:10112   */\n      dup6\n        /* \"#utility.yul\":10091:10113   */\n      tag_147\n      jump\t// in\n    tag_285:\n        /* \"#utility.yul\":10081:10089   */\n      dup4\n        /* \"#utility.yul\":10077:10114   */\n      add\n        /* \"#utility.yul\":10064:10075   */\n      dup3\n        /* \"#utility.yul\":10035:10115   */\n      tag_156\n      jump\t// in\n    tag_284:\n        /* \"#utility.yul\":9694:10125   */\n      pop\n      pop\n        /* \"#utility.yul\":9679:10125   */\n    tag_280:\n        /* \"#utility.yul\":9589:10132   */\n      pop\n      pop\n      pop\n      jump\t// out\n        /* \"#utility.yul\":10138:10255   */\n    tag_158:\n        /* \"#utility.yul\":10192:10200   */\n      0x00\n        /* \"#utility.yul\":10242:10247   */\n      dup3\n        /* \"#utility.yul\":10236:10240   */\n      dup3\n        /* \"#utility.yul\":10232:10248   */\n      shr\n        /* \"#utility.yul\":10211:10248   */\n      swap1\n      pop\n        /* \"#utility.yul\":10138:10255   */\n      swap3\n      swap2\n      pop\n      pop\n      jump\t// out\n        /* \"#utility.yul\":10261:10430   */\n    tag_159:\n        /* \"#utility.yul\":10305:10311   */\n      0x00\n        /* \"#utility.yul\":10338:10389   */\n      tag_288\n        /* \"#utility.yul\":10386:10387   */\n      0x00\n        /* \"#utility.yul\":10382:10388   */\n      not\n        /* \"#utility.yul\":10374:10379   */\n      dup5\n        /* \"#utility.yul\":10371:10372   */\n      0x08\n        /* \"#utility.yul\":10367:10380   */\n      mul\n        /* \"#utility.yul\":10338:10389   */\n      tag_158\n      jump\t// in\n    tag_288:\n        /* \"#utility.yul\":10334:10390   */\n      not\n        /* \"#utility.yul\":10419:10423   */\n      dup1\n        /* \"#utility.yul\":10413:10417   */\n      dup4\n        /* \"#utility.yul\":10409:10424   */\n      and\n        /* \"#utility.yul\":10399:10424   */\n      swap2\n      pop\n        /* \"#utility.yul\":10312:10430   */\n      pop\n        /* \"#utility.yul\":10261:10430   */\n      swap3\n      swap2\n      pop\n      pop\n      jump\t// out\n        /* \"#utility.yul\":10435:10730   */\n    tag_160:\n        /* \"#utility.yul\":10511:10515   */\n      0x00\n        /* \"#utility.yul\":10657:10686   */\n      tag_290\n        /* \"#utility.yul\":10682:10685   */\n      dup4\n        /* \"#utility.yul\":10676:10680   */\n      dup4\n        /* \"#utility.yul\":10657:10686   */\n      tag_159\n      jump\t// in\n    tag_290:\n        /* \"#utility.yul\":10649:10686   */\n      swap2\n      pop\n        /* \"#utility.yul\":10719:10722   */\n      dup3\n        /* \"#utility.yul\":10716:10717   */\n      0x02\n        /* \"#utility.yul\":10712:10723   */\n      mul\n        /* \"#utility.yul\":10706:10710   */\n      dup3\n        /* \"#utility.yul\":10703:10724   */\n      or\n        /* \"#utility.yul\":10695:10724   */\n      swap1\n      pop\n        /* \"#utility.yul\":10435:10730   */\n      swap3\n      swap2\n      pop\n      pop\n      jump\t// out\n        /* \"#utility.yul\":10735:12130   */\n    tag_66:\n        /* \"#utility.yul\":10852:10889   */\n      tag_292\n        /* \"#utility.yul\":10885:10888   */\n      dup3\n        /* \"#utility.yul\":10852:10889   */\n      tag_143\n      jump\t// in\n    tag_292:\n        /* \"#utility.yul\":10954:10972   */\n      0xffffffffffffffff\n        /* \"#utility.yul\":10946:10952   */\n      dup2\n        /* \"#utility.yul\":10943:10973   */\n      gt\n        /* \"#utility.yul\":10940:10996   */\n      iszero\n      tag_293\n      jumpi\n        /* \"#utility.yul\":10976:10994   */\n      tag_294\n      tag_125\n      jump\t// in\n    tag_294:\n        /* \"#utility.yul\":10940:10996   */\n    tag_293:\n        /* \"#utility.yul\":11020:11058   */\n      tag_295\n        /* \"#utility.yul\":11052:11056   */\n      dup3\n        /* \"#utility.yul\":11046:11057   */\n      sload\n        /* \"#utility.yul\":11020:11058   */\n      tag_145\n      jump\t// in\n    tag_295:\n        /* \"#utility.yul\":11105:11172   */\n      tag_296\n        /* \"#utility.yul\":11165:11171   */\n      dup3\n        /* \"#utility.yul\":11157:11163   */\n      dup3\n        /* \"#utility.yul\":11151:11155   */\n      dup6\n        /* \"#utility.yul\":11105:11172   */\n      tag_157\n      jump\t// in\n    tag_296:\n        /* \"#utility.yul\":11199:11200   */\n      0x00\n        /* \"#utility.yul\":11223:11227   */\n      0x20\n        /* \"#utility.yul\":11210:11227   */\n      swap1\n      pop\n        /* \"#utility.yul\":11255:11257   */\n      0x1f\n        /* \"#utility.yul\":11247:11253   */\n      dup4\n        /* \"#utility.yul\":11244:11258   */\n      gt\n        /* \"#utility.yul\":11272:11273   */\n      0x01\n        /* \"#utility.yul\":11267:11885   */\n      dup2\n      eq\n      tag_298\n      jumpi\n        /* \"#utility.yul\":11929:11930   */\n      0x00\n        /* \"#utility.yul\":11946:11952   */\n      dup5\n        /* \"#utility.yul\":11943:12020   */\n      iszero\n      tag_299\n      jumpi\n        /* \"#utility.yul\":11995:12004   */\n      dup3\n        /* \"#utility.yul\":11990:11993   */\n      dup8\n        /* \"#utility.yul\":11986:12005   */\n      add\n        /* \"#utility.yul\":11980:12006   */\n      mload\n        /* \"#utility.yul\":11971:12006   */\n      swap1\n      pop\n        /* \"#utility.yul\":11943:12020   */\n    tag_299:\n        /* \"#utility.yul\":12046:12113   */\n      tag_300\n        /* \"#utility.yul\":12106:12112   */\n      dup6\n        /* \"#utility.yul\":12099:12104   */\n      dup3\n        /* \"#utility.yul\":12046:12113   */\n      tag_160\n      jump\t// in\n    tag_300:\n        /* \"#utility.yul\":12040:12044   */\n      dup7\n        /* \"#utility.yul\":12033:12114   */\n      sstore\n        /* \"#utility.yul\":11902:12124   */\n      pop\n        /* \"#utility.yul\":11237:12124   */\n      jump(tag_297)\n        /* \"#utility.yul\":11267:11885   */\n    tag_298:\n        /* \"#utility.yul\":11319:11323   */\n      0x1f\n        /* \"#utility.yul\":11315:11324   */\n      not\n        /* \"#utility.yul\":11307:11313   */\n      dup5\n        /* \"#utility.yul\":11303:11325   */\n      and\n        /* \"#utility.yul\":11353:11390   */\n      tag_301\n        /* \"#utility.yul\":11385:11389   */\n      dup7\n        /* \"#utility.yul\":11353:11390   */\n      tag_146\n      jump\t// in\n    tag_301:\n        /* \"#utility.yul\":11412:11413   */\n      0x00\n        /* \"#utility.yul\":11426:11634   */\n    tag_302:\n        /* \"#utility.yul\":11440:11447   */\n      dup3\n        /* \"#utility.yul\":11437:11438   */\n      dup2\n        /* \"#utility.yul\":11434:11448   */\n      lt\n        /* \"#utility.yul\":11426:11634   */\n      iszero\n      tag_304\n      jumpi\n        /* \"#utility.yul\":11519:11528   */\n      dup5\n        /* \"#utility.yul\":11514:11517   */\n      dup10\n        /* \"#utility.yul\":11510:11529   */\n      add\n        /* \"#utility.yul\":11504:11530   */\n      mload\n        /* \"#utility.yul\":11496:11502   */\n      dup3\n        /* \"#utility.yul\":11489:11531   */\n      sstore\n        /* \"#utility.yul\":11570:11571   */\n      0x01\n        /* \"#utility.yul\":11562:11568   */\n      dup3\n        /* \"#utility.yul\":11558:11572   */\n      add\n        /* \"#utility.yul\":11548:11572   */\n      swap2\n      pop\n        /* \"#utility.yul\":11617:11619   */\n      0x20\n        /* \"#utility.yul\":11606:11615   */\n      dup6\n        /* \"#utility.yul\":11602:11620   */\n      add\n        /* \"#utility.yul\":11589:11620   */\n      swap5\n      pop\n        /* \"#utility.yul\":11463:11467   */\n      0x20\n        /* \"#utility.yul\":11460:11461   */\n      dup2\n        /* \"#utility.yul\":11456:11468   */\n      add\n        /* \"#utility.yul\":11451:11468   */\n      swap1\n      pop\n        /* \"#utility.yul\":11426:11634   */\n      jump(tag_302)\n    tag_304:\n        /* \"#utility.yul\":11662:11668   */\n      dup7\n        /* \"#utility.yul\":11653:11660   */\n      dup4\n        /* \"#utility.yul\":11650:11669   */\n      lt\n        /* \"#utility.yul\":11647:11826   */\n      iszero\n      tag_305\n      jumpi\n        /* \"#utility.yul\":11720:11729   */\n      dup5\n        /* \"#utility.yul\":11715:11718   */\n      dup10\n        /* \"#utility.yul\":11711:11730   */\n      add\n        /* \"#utility.yul\":11705:11731   */\n      mload\n        /* \"#utility.yul\":11763:11811   */\n      tag_306\n        /* \"#utility.yul\":11805:11809   */\n      0x1f\n        /* \"#utility.yul\":11797:11803   */\n      dup10\n        /* \"#utility.yul\":11793:11810   */\n      and\n        /* \"#utility.yul\":11782:11791   */\n      dup3\n        /* \"#utility.yul\":11763:11811   */\n      tag_159\n      jump\t// in\n    tag_306:\n        /* \"#utility.yul\":11755:11761   */\n      dup4\n        /* \"#utility.yul\":11748:11812   */\n      sstore\n        /* \"#utility.yul\":11670:11826   */\n      pop\n        /* \"#utility.yul\":11647:11826   */\n    tag_305:\n        /* \"#utility.yul\":11872:11873   */\n      0x01\n        /* \"#utility.yul\":11868:11869   */\n      0x02\n        /* \"#utility.yul\":11860:11866   */\n      dup9\n        /* \"#utility.yul\":11856:11870   */\n      mul\n        /* \"#utility.yul\":11852:11874   */\n      add\n        /* \"#utility.yul\":11846:11850   */\n      dup9\n        /* \"#utility.yul\":11839:11875   */\n      sstore\n        /* \"#utility.yul\":11274:11885   */\n      pop\n      pop\n      pop\n        /* \"#utility.yul\":11237:12124   */\n    tag_297:\n      pop\n        /* \"#utility.yul\":10827:12130   */\n      pop\n      pop\n      pop\n        /* \"#utility.yul\":10735:12130   */\n      pop\n      pop\n      jump\t// out\n\n    auxdata: 0xa264697066735822122037292000bfd62f7e079ea14610ece0bb5b06ad54c7af5f0208d493f62ddf024464736f6c634300081e0033\n}\n",
				"bytecode": {
					"linkReferences": {},
					"object": "608060405234801561000f575f5ffd5b50335f73ffffffffffffffffffffffffffffffffffffffff168173ffffffffffffffffffffffffffffffffffffffff1603610081575f6040517f1e4fbdf700000000000000000000000000000000000000000000000000000000815260040161007891906101c2565b60405180910390fd5b610090816100c260201b60201c565b505f60016002015f6101000a81548160ff021916908360058111156100b8576100b76101db565b5b0217905550610208565b5f5f5f9054906101000a900473ffffffffffffffffffffffffffffffffffffffff169050815f5f6101000a81548173ffffffffffffffffffffffffffffffffffffffff021916908373ffffffffffffffffffffffffffffffffffffffff1602179055508173ffffffffffffffffffffffffffffffffffffffff168173ffffffffffffffffffffffffffffffffffffffff167f8be0079c531659141344cd1fd0a4f28419497f9722a3daafe3b4186f6b6457e060405160405180910390a35050565b5f73ffffffffffffffffffffffffffffffffffffffff82169050919050565b5f6101ac82610183565b9050919050565b6101bc816101a2565b82525050565b5f6020820190506101d55f8301846101b3565b92915050565b7f4e487b71000000000000000000000000000000000000000000000000000000005f52602160045260245ffd5b611195806102155f395ff3fe608060405234801561000f575f5ffd5b506004361061007b575f3560e01c8063715018a611610059578063715018a6146100d357806375406284146100dd5780638da5cb5b146100e7578063f2fde38b146101055761007b565b80630121b93f1461007f5780632f95355b1461009b57806338db6dd3146100b7575b5f5ffd5b61009960048036038101906100949190610ad1565b610121565b005b6100b560048036038101906100b09190610c38565b610415565b005b6100d160048036038101906100cc9190610cd9565b61058d565b005b6100db61073c565b005b6100e561074f565b005b6100ef610893565b6040516100fc9190610d13565b60405180910390f35b61011f600480360381019061011a9190610cd9565b6108ba565b005b60015f015f3373ffffffffffffffffffffffffffffffffffffffff1673ffffffffffffffffffffffffffffffffffffffff1681526020019081526020015f205f015f9054906101000a900460ff166101a5576040517fb3e2c01600000000000000000000000000000000000000000000000000000000815260040160405180910390fd5b600360058111156101b9576101b8610d2c565b5b60016002015f9054906101000a900460ff1660058111156101dd576101dc610d2c565b5b1460016002015f9054906101000a900460ff1660039091610235576040517f0e10df3f00000000000000000000000000000000000000000000000000000000815260040161022c929190610d9f565b60405180910390fd5b505060015f015f3373ffffffffffffffffffffffffffffffffffffffff1673ffffffffffffffffffffffffffffffffffffffff1681526020019081526020015f205f0160019054906101000a900460ff16156102bd576040517fd40aec4400000000000000000000000000000000000000000000000000000000815260040160405180910390fd5b600180018054905081106102fd576040517ff299af6600000000000000000000000000000000000000000000000000000000815260040160405180910390fd5b600180600101828154811061031557610314610dc6565b5b905f5260205f2090600202016001015f8282546103329190610e20565b925050819055508060015f015f3373ffffffffffffffffffffffffffffffffffffffff1673ffffffffffffffffffffffffffffffffffffffff1681526020019081526020015f20600101819055506001805f015f3373ffffffffffffffffffffffffffffffffffffffff1673ffffffffffffffffffffffffffffffffffffffff1681526020019081526020015f205f0160016101000a81548160ff0219169083151502179055507f4d99b957a2bc29a30ebd96a7be8e68fe50a3c701db28a91436490b7d53870ca4338260405161040a929190610e62565b60405180910390a150565b60015f015f3373ffffffffffffffffffffffffffffffffffffffff1673ffffffffffffffffffffffffffffffffffffffff1681526020019081526020015f205f015f9054906101000a900460ff16610499576040517fb3e2c01600000000000000000000000000000000000000000000000000000000815260040160405180910390fd5b600160058111156104ad576104ac610d2c565b5b60016002015f9054906101000a900460ff1660058111156104d1576104d0610d2c565b5b1460016002015f9054906101000a900460ff1660019091610529576040517f0e10df3f000000000000000000000000000000000000000000000000000000008152600401610520929190610d9f565b60405180910390fd5b50506001800160405180604001604052808381526020015f815250908060018154018082558091505060019003905f5260205f2090600202015f909190919091505f820151815f01908161057d9190611090565b5060208201518160010155505050565b61059561093e565b5f60058111156105a8576105a7610d2c565b5b60016002015f9054906101000a900460ff1660058111156105cc576105cb610d2c565b5b1460016002015f9054906101000a900460ff165f9091610623576040517f0e10df3f00000000000000000000000000000000000000000000000000000000815260040161061a929190610d9f565b60405180910390fd5b505060015f015f8273ffffffffffffffffffffffffffffffffffffffff1673ffffffffffffffffffffffffffffffffffffffff1681526020019081526020015f205f015f9054906101000a900460ff16156106aa576040517f59a1ec4700000000000000000000000000000000000000000000000000000000815260040160405180910390fd5b6001805f015f8373ffffffffffffffffffffffffffffffffffffffff1673ffffffffffffffffffffffffffffffffffffffff1681526020019081526020015f205f015f6101000a81548160ff0219169083151502179055507fb6be2187d059cc2a55fe29e0e503b566e1e0f8c8780096e185429350acffd3dd816040516107319190610d13565b60405180910390a150565b61074461093e565b61074d5f6109c5565b565b61075761093e565b60058081111561076a57610769610d2c565b5b60016002015f9054906101000a900460ff16600581111561078e5761078d610d2c565b5b106107c5576040517f086fc57f00000000000000000000000000000000000000000000000000000000815260040160405180910390fd5b5f60016002015f9054906101000a900460ff1690506001806002015f9054906101000a900460ff1660058111156107ff576107fe610d2c565b5b6108099190610e20565b600581111561081b5761081a610d2c565b5b60016002015f6101000a81548160ff0219169083600581111561084157610840610d2c565b5b02179055507f0a97a4ee45751e2abf3e4fc8946939630b11b371ea8ae39ccdc3056e98f5cc3f8160016002015f9054906101000a900460ff16604051610888929190610d9f565b60405180910390a150565b5f5f5f9054906101000a900473ffffffffffffffffffffffffffffffffffffffff16905090565b6108c261093e565b5f73ffffffffffffffffffffffffffffffffffffffff168173ffffffffffffffffffffffffffffffffffffffff1603610932575f6040517f1e4fbdf70000000000000000000000000000000000000000000000000000000081526004016109299190610d13565b60405180910390fd5b61093b816109c5565b50565b610946610a86565b73ffffffffffffffffffffffffffffffffffffffff16610964610893565b73ffffffffffffffffffffffffffffffffffffffff16146109c357610987610a86565b6040517f118cdaa70000000000000000000000000000000000000000000000000000000081526004016109ba9190610d13565b60405180910390fd5b565b5f5f5f9054906101000a900473ffffffffffffffffffffffffffffffffffffffff169050815f5f6101000a81548173ffffffffffffffffffffffffffffffffffffffff021916908373ffffffffffffffffffffffffffffffffffffffff1602179055508173ffffffffffffffffffffffffffffffffffffffff168173ffffffffffffffffffffffffffffffffffffffff167f8be0079c531659141344cd1fd0a4f28419497f9722a3daafe3b4186f6b6457e060405160405180910390a35050565b5f33905090565b5f604051905090565b5f5ffd5b5f5ffd5b5f819050919050565b610ab081610a9e565b8114610aba575f5ffd5b50565b5f81359050610acb81610aa7565b92915050565b5f60208284031215610ae657610ae5610a96565b5b5f610af384828501610abd565b91505092915050565b5f5ffd5b5f5ffd5b5f601f19601f8301169050919050565b7f4e487b71000000000000000000000000000000000000000000000000000000005f52604160045260245ffd5b610b4a82610b04565b810181811067ffffffffffffffff82111715610b6957610b68610b14565b5b80604052505050565b5f610b7b610a8d565b9050610b878282610b41565b919050565b5f67ffffffffffffffff821115610ba657610ba5610b14565b5b610baf82610b04565b9050602081019050919050565b828183375f83830152505050565b5f610bdc610bd784610b8c565b610b72565b905082815260208101848484011115610bf857610bf7610b00565b5b610c03848285610bbc565b509392505050565b5f82601f830112610c1f57610c1e610afc565b5b8135610c2f848260208601610bca565b91505092915050565b5f60208284031215610c4d57610c4c610a96565b5b5f82013567ffffffffffffffff811115610c6a57610c69610a9a565b5b610c7684828501610c0b565b91505092915050565b5f73ffffffffffffffffffffffffffffffffffffffff82169050919050565b5f610ca882610c7f565b9050919050565b610cb881610c9e565b8114610cc2575f5ffd5b50565b5f81359050610cd381610caf565b92915050565b5f60208284031215610cee57610ced610a96565b5b5f610cfb84828501610cc5565b91505092915050565b610d0d81610c9e565b82525050565b5f602082019050610d265f830184610d04565b92915050565b7f4e487b71000000000000000000000000000000000000000000000000000000005f52602160045260245ffd5b60068110610d6a57610d69610d2c565b5b50565b5f819050610d7a82610d59565b919050565b5f610d8982610d6d565b9050919050565b610d9981610d7f565b82525050565b5f604082019050610db25f830185610d90565b610dbf6020830184610d90565b9392505050565b7f4e487b71000000000000000000000000000000000000000000000000000000005f52603260045260245ffd5b7f4e487b71000000000000000000000000000000000000000000000000000000005f52601160045260245ffd5b5f610e2a82610a9e565b9150610e3583610a9e565b9250828201905080821115610e4d57610e4c610df3565b5b92915050565b610e5c81610a9e565b82525050565b5f604082019050610e755f830185610d04565b610e826020830184610e53565b9392505050565b5f81519050919050565b7f4e487b71000000000000000000000000000000000000000000000000000000005f52602260045260245ffd5b5f6002820490506001821680610ed757607f821691505b602082108103610eea57610ee9610e93565b5b50919050565b5f819050815f5260205f209050919050565b5f6020601f8301049050919050565b5f82821b905092915050565b5f60088302610f4c7fffffffffffffffffffffffffffffffffffffffffffffffffffffffffffffffff82610f11565b610f568683610f11565b95508019841693508086168417925050509392505050565b5f819050919050565b5f610f91610f8c610f8784610a9e565b610f6e565b610a9e565b9050919050565b5f819050919050565b610faa83610f77565b610fbe610fb682610f98565b848454610f1d565b825550505050565b5f5f905090565b610fd5610fc6565b610fe0818484610fa1565b505050565b5b8181101561100357610ff85f82610fcd565b600181019050610fe6565b5050565b601f8211156110485761101981610ef0565b61102284610f02565b81016020851015611031578190505b61104561103d85610f02565b830182610fe5565b50505b505050565b5f82821c905092915050565b5f6110685f198460080261104d565b1980831691505092915050565b5f6110808383611059565b9150826002028217905092915050565b61109982610e89565b67ffffffffffffffff8111156110b2576110b1610b14565b5b6110bc8254610ec0565b6110c7828285611007565b5f60209050601f8311600181146110f8575f84156110e6578287015190505b6110f08582611075565b865550611157565b601f19841661110686610ef0565b5f5b8281101561112d57848901518255600182019150602085019450602081019050611108565b8683101561114a5784890151611146601f891682611059565b8355505b6001600288020188555050505b50505050505056fea264697066735822122037292000bfd62f7e079ea14610ece0bb5b06ad54c7af5f0208d493f62ddf024464736f6c634300081e0033",
					"opcodes": "PUSH1 0x80 PUSH1 0x40 MSTORE CALLVALUE DUP1 ISZERO PUSH2 0xF JUMPI PUSH0 PUSH0 REVERT JUMPDEST POP CALLER PUSH0 PUSH20 0xFFFFFFFFFFFFFFFFFFFFFFFFFFFFFFFFFFFFFFFF AND DUP2 PUSH20 0xFFFFFFFFFFFFFFFFFFFFFFFFFFFFFFFFFFFFFFFF AND SUB PUSH2 0x81 JUMPI PUSH0 PUSH1 0x40 MLOAD PUSH32 0x1E4FBDF700000000000000000000000000000000000000000000000000000000 DUP2 MSTORE PUSH1 0x4 ADD PUSH2 0x78 SWAP2 SWAP1 PUSH2 0x1C2 JUMP JUMPDEST PUSH1 0x40 MLOAD DUP1 SWAP2 SUB SWAP1 REVERT JUMPDEST PUSH2 0x90 DUP2 PUSH2 0xC2 PUSH1 0x20 SHL PUSH1 0x20 SHR JUMP JUMPDEST POP PUSH0 PUSH1 0x1 PUSH1 0x2 ADD PUSH0 PUSH2 0x100 EXP DUP2 SLOAD DUP2 PUSH1 0xFF MUL NOT AND SWAP1 DUP4 PUSH1 0x5 DUP2 GT ISZERO PUSH2 0xB8 JUMPI PUSH2 0xB7 PUSH2 0x1DB JUMP JUMPDEST JUMPDEST MUL OR SWAP1 SSTORE POP PUSH2 0x208 JUMP JUMPDEST PUSH0 PUSH0 PUSH0 SWAP1 SLOAD SWAP1 PUSH2 0x100 EXP SWAP1 DIV PUSH20 0xFFFFFFFFFFFFFFFFFFFFFFFFFFFFFFFFFFFFFFFF AND SWAP1 POP DUP2 PUSH0 PUSH0 PUSH2 0x100 EXP DUP2 SLOAD DUP2 PUSH20 0xFFFFFFFFFFFFFFFFFFFFFFFFFFFFFFFFFFFFFFFF MUL NOT AND SWAP1 DUP4 PUSH20 0xFFFFFFFFFFFFFFFFFFFFFFFFFFFFFFFFFFFFFFFF AND MUL OR SWAP1 SSTORE POP DUP2 PUSH20 0xFFFFFFFFFFFFFFFFFFFFFFFFFFFFFFFFFFFFFFFF AND DUP2 PUSH20 0xFFFFFFFFFFFFFFFFFFFFFFFFFFFFFFFFFFFFFFFF AND PUSH32 0x8BE0079C531659141344CD1FD0A4F28419497F9722A3DAAFE3B4186F6B6457E0 PUSH1 0x40 MLOAD PUSH1 0x40 MLOAD DUP1 SWAP2 SUB SWAP1 LOG3 POP POP JUMP JUMPDEST PUSH0 PUSH20 0xFFFFFFFFFFFFFFFFFFFFFFFFFFFFFFFFFFFFFFFF DUP3 AND SWAP1 POP SWAP2 SWAP1 POP JUMP JUMPDEST PUSH0 PUSH2 0x1AC DUP3 PUSH2 0x183 JUMP JUMPDEST SWAP1 POP SWAP2 SWAP1 POP JUMP JUMPDEST PUSH2 0x1BC DUP2 PUSH2 0x1A2 JUMP JUMPDEST DUP3 MSTORE POP POP JUMP JUMPDEST PUSH0 PUSH1 0x20 DUP3 ADD SWAP1 POP PUSH2 0x1D5 PUSH0 DUP4 ADD DUP5 PUSH2 0x1B3 JUMP JUMPDEST SWAP3 SWAP2 POP POP JUMP JUMPDEST PUSH32 0x4E487B7100000000000000000000000000000000000000000000000000000000 PUSH0 MSTORE PUSH1 0x21 PUSH1 0x4 MSTORE PUSH1 0x24 PUSH0 REVERT JUMPDEST PUSH2 0x1195 DUP1 PUSH2 0x215 PUSH0 CODECOPY PUSH0 RETURN INVALID PUSH1 0x80 PUSH1 0x40 MSTORE CALLVALUE DUP1 ISZERO PUSH2 0xF JUMPI PUSH0 PUSH0 REVERT JUMPDEST POP PUSH1 0x4 CALLDATASIZE LT PUSH2 0x7B JUMPI PUSH0 CALLDATALOAD PUSH1 0xE0 SHR DUP1 PUSH4 0x715018A6 GT PUSH2 0x59 JUMPI DUP1 PUSH4 0x715018A6 EQ PUSH2 0xD3 JUMPI DUP1 PUSH4 0x75406284 EQ PUSH2 0xDD JUMPI DUP1 PUSH4 0x8DA5CB5B EQ PUSH2 0xE7 JUMPI DUP1 PUSH4 0xF2FDE38B EQ PUSH2 0x105 JUMPI PUSH2 0x7B JUMP JUMPDEST DUP1 PUSH4 0x121B93F EQ PUSH2 0x7F JUMPI DUP1 PUSH4 0x2F95355B EQ PUSH2 0x9B JUMPI DUP1 PUSH4 0x38DB6DD3 EQ PUSH2 0xB7 JUMPI JUMPDEST PUSH0 PUSH0 REVERT JUMPDEST PUSH2 0x99 PUSH1 0x4 DUP1 CALLDATASIZE SUB DUP2 ADD SWAP1 PUSH2 0x94 SWAP2 SWAP1 PUSH2 0xAD1 JUMP JUMPDEST PUSH2 0x121 JUMP JUMPDEST STOP JUMPDEST PUSH2 0xB5 PUSH1 0x4 DUP1 CALLDATASIZE SUB DUP2 ADD SWAP1 PUSH2 0xB0 SWAP2 SWAP1 PUSH2 0xC38 JUMP JUMPDEST PUSH2 0x415 JUMP JUMPDEST STOP JUMPDEST PUSH2 0xD1 PUSH1 0x4 DUP1 CALLDATASIZE SUB DUP2 ADD SWAP1 PUSH2 0xCC SWAP2 SWAP1 PUSH2 0xCD9 JUMP JUMPDEST PUSH2 0x58D JUMP JUMPDEST STOP JUMPDEST PUSH2 0xDB PUSH2 0x73C JUMP JUMPDEST STOP JUMPDEST PUSH2 0xE5 PUSH2 0x74F JUMP JUMPDEST STOP JUMPDEST PUSH2 0xEF PUSH2 0x893 JUMP JUMPDEST PUSH1 0x40 MLOAD PUSH2 0xFC SWAP2 SWAP1 PUSH2 0xD13 JUMP JUMPDEST PUSH1 0x40 MLOAD DUP1 SWAP2 SUB SWAP1 RETURN JUMPDEST PUSH2 0x11F PUSH1 0x4 DUP1 CALLDATASIZE SUB DUP2 ADD SWAP1 PUSH2 0x11A SWAP2 SWAP1 PUSH2 0xCD9 JUMP JUMPDEST PUSH2 0x8BA JUMP JUMPDEST STOP JUMPDEST PUSH1 0x1 PUSH0 ADD PUSH0 CALLER PUSH20 0xFFFFFFFFFFFFFFFFFFFFFFFFFFFFFFFFFFFFFFFF AND PUSH20 0xFFFFFFFFFFFFFFFFFFFFFFFFFFFFFFFFFFFFFFFF AND DUP2 MSTORE PUSH1 0x20 ADD SWAP1 DUP2 MSTORE PUSH1 0x20 ADD PUSH0 KECCAK256 PUSH0 ADD PUSH0 SWAP1 SLOAD SWAP1 PUSH2 0x100 EXP SWAP1 DIV PUSH1 0xFF AND PUSH2 0x1A5 JUMPI PUSH1 0x40 MLOAD PUSH32 0xB3E2C01600000000000000000000000000000000000000000000000000000000 DUP2 MSTORE PUSH1 0x4 ADD PUSH1 0x40 MLOAD DUP1 SWAP2 SUB SWAP1 REVERT JUMPDEST PUSH1 0x3 PUSH1 0x5 DUP2 GT ISZERO PUSH2 0x1B9 JUMPI PUSH2 0x1B8 PUSH2 0xD2C JUMP JUMPDEST JUMPDEST PUSH1 0x1 PUSH1 0x2 ADD PUSH0 SWAP1 SLOAD SWAP1 PUSH2 0x100 EXP SWAP1 DIV PUSH1 0xFF AND PUSH1 0x5 DUP2 GT ISZERO PUSH2 0x1DD JUMPI PUSH2 0x1DC PUSH2 0xD2C JUMP JUMPDEST JUMPDEST EQ PUSH1 0x1 PUSH1 0x2 ADD PUSH0 SWAP1 SLOAD SWAP1 PUSH2 0x100 EXP SWAP1 DIV PUSH1 0xFF AND PUSH1 0x3 SWAP1 SWAP2 PUSH2 0x235 JUMPI PUSH1 0x40 MLOAD PUSH32 0xE10DF3F00000000000000000000000000000000000000000000000000000000 DUP2 MSTORE PUSH1 0x4 ADD PUSH2 0x22C SWAP3 SWAP2 SWAP1 PUSH2 0xD9F JUMP JUMPDEST PUSH1 0x40 MLOAD DUP1 SWAP2 SUB SWAP1 REVERT JUMPDEST POP POP PUSH1 0x1 PUSH0 ADD PUSH0 CALLER PUSH20 0xFFFFFFFFFFFFFFFFFFFFFFFFFFFFFFFFFFFFFFFF AND PUSH20 0xFFFFFFFFFFFFFFFFFFFFFFFFFFFFFFFFFFFFFFFF AND DUP2 MSTORE PUSH1 0x20 ADD SWAP1 DUP2 MSTORE PUSH1 0x20 ADD PUSH0 KECCAK256 PUSH0 ADD PUSH1 0x1 SWAP1 SLOAD SWAP1 PUSH2 0x100 EXP SWAP1 DIV PUSH1 0xFF AND ISZERO PUSH2 0x2BD JUMPI PUSH1 0x40 MLOAD PUSH32 0xD40AEC4400000000000000000000000000000000000000000000000000000000 DUP2 MSTORE PUSH1 0x4 ADD PUSH1 0x40 MLOAD DUP1 SWAP2 SUB SWAP1 REVERT JUMPDEST PUSH1 0x1 DUP1 ADD DUP1 SLOAD SWAP1 POP DUP2 LT PUSH2 0x2FD JUMPI PUSH1 0x40 MLOAD PUSH32 0xF299AF6600000000000000000000000000000000000000000000000000000000 DUP2 MSTORE PUSH1 0x4 ADD PUSH1 0x40 MLOAD DUP1 SWAP2 SUB SWAP1 REVERT JUMPDEST PUSH1 0x1 DUP1 PUSH1 0x1 ADD DUP3 DUP2 SLOAD DUP2 LT PUSH2 0x315 JUMPI PUSH2 0x314 PUSH2 0xDC6 JUMP JUMPDEST JUMPDEST SWAP1 PUSH0 MSTORE PUSH1 0x20 PUSH0 KECCAK256 SWAP1 PUSH1 0x2 MUL ADD PUSH1 0x1 ADD PUSH0 DUP3 DUP3 SLOAD PUSH2 0x332 SWAP2 SWAP1 PUSH2 0xE20 JUMP JUMPDEST SWAP3 POP POP DUP2 SWAP1 SSTORE POP DUP1 PUSH1 0x1 PUSH0 ADD PUSH0 CALLER PUSH20 0xFFFFFFFFFFFFFFFFFFFFFFFFFFFFFFFFFFFFFFFF AND PUSH20 0xFFFFFFFFFFFFFFFFFFFFFFFFFFFFFFFFFFFFFFFF AND DUP2 MSTORE PUSH1 0x20 ADD SWAP1 DUP2 MSTORE PUSH1 0x20 ADD PUSH0 KECCAK256 PUSH1 0x1 ADD DUP2 SWAP1 SSTORE POP PUSH1 0x1 DUP1 PUSH0 ADD PUSH0 CALLER PUSH20 0xFFFFFFFFFFFFFFFFFFFFFFFFFFFFFFFFFFFFFFFF AND PUSH20 0xFFFFFFFFFFFFFFFFFFFFFFFFFFFFFFFFFFFFFFFF AND DUP2 MSTORE PUSH1 0x20 ADD SWAP1 DUP2 MSTORE PUSH1 0x20 ADD PUSH0 KECCAK256 PUSH0 ADD PUSH1 0x1 PUSH2 0x100 EXP DUP2 SLOAD DUP2 PUSH1 0xFF MUL NOT AND SWAP1 DUP4 ISZERO ISZERO MUL OR SWAP1 SSTORE POP PUSH32 0x4D99B957A2BC29A30EBD96A7BE8E68FE50A3C701DB28A91436490B7D53870CA4 CALLER DUP3 PUSH1 0x40 MLOAD PUSH2 0x40A SWAP3 SWAP2 SWAP1 PUSH2 0xE62 JUMP JUMPDEST PUSH1 0x40 MLOAD DUP1 SWAP2 SUB SWAP1 LOG1 POP JUMP JUMPDEST PUSH1 0x1 PUSH0 ADD PUSH0 CALLER PUSH20 0xFFFFFFFFFFFFFFFFFFFFFFFFFFFFFFFFFFFFFFFF AND PUSH20 0xFFFFFFFFFFFFFFFFFFFFFFFFFFFFFFFFFFFFFFFF AND DUP2 MSTORE PUSH1 0x20 ADD SWAP1 DUP2 MSTORE PUSH1 0x20 ADD PUSH0 KECCAK256 PUSH0 ADD PUSH0 SWAP1 SLOAD SWAP1 PUSH2 0x100 EXP SWAP1 DIV PUSH1 0xFF AND PUSH2 0x499 JUMPI PUSH1 0x40 MLOAD PUSH32 0xB3E2C01600000000000000000000000000000000000000000000000000000000 DUP2 MSTORE PUSH1 0x4 ADD PUSH1 0x40 MLOAD DUP1 SWAP2 SUB SWAP1 REVERT JUMPDEST PUSH1 0x1 PUSH1 0x5 DUP2 GT ISZERO PUSH2 0x4AD JUMPI PUSH2 0x4AC PUSH2 0xD2C JUMP JUMPDEST JUMPDEST PUSH1 0x1 PUSH1 0x2 ADD PUSH0 SWAP1 SLOAD SWAP1 PUSH2 0x100 EXP SWAP1 DIV PUSH1 0xFF AND PUSH1 0x5 DUP2 GT ISZERO PUSH2 0x4D1 JUMPI PUSH2 0x4D0 PUSH2 0xD2C JUMP JUMPDEST JUMPDEST EQ PUSH1 0x1 PUSH1 0x2 ADD PUSH0 SWAP1 SLOAD SWAP1 PUSH2 0x100 EXP SWAP1 DIV PUSH1 0xFF AND PUSH1 0x1 SWAP1 SWAP2 PUSH2 0x529 JUMPI PUSH1 0x40 MLOAD PUSH32 0xE10DF3F00000000000000000000000000000000000000000000000000000000 DUP2 MSTORE PUSH1 0x4 ADD PUSH2 0x520 SWAP3 SWAP2 SWAP1 PUSH2 0xD9F JUMP JUMPDEST PUSH1 0x40 MLOAD DUP1 SWAP2 SUB SWAP1 REVERT JUMPDEST POP POP PUSH1 0x1 DUP1 ADD PUSH1 0x40 MLOAD DUP1 PUSH1 0x40 ADD PUSH1 0x40 MSTORE DUP1 DUP4 DUP2 MSTORE PUSH1 0x20 ADD PUSH0 DUP2 MSTORE POP SWAP1 DUP1 PUSH1 0x1 DUP2 SLOAD ADD DUP1 DUP3 SSTORE DUP1 SWAP2 POP POP PUSH1 0x1 SWAP1 SUB SWAP1 PUSH0 MSTORE PUSH1 0x20 PUSH0 KECCAK256 SWAP1 PUSH1 0x2 MUL ADD PUSH0 SWAP1 SWAP2 SWAP1 SWAP2 SWAP1 SWAP2 POP PUSH0 DUP3 ADD MLOAD DUP2 PUSH0 ADD SWAP1 DUP2 PUSH2 0x57D SWAP2 SWAP1 PUSH2 0x1090 JUMP JUMPDEST POP PUSH1 0x20 DUP3 ADD MLOAD DUP2 PUSH1 0x1 ADD SSTORE POP POP POP JUMP JUMPDEST PUSH2 0x595 PUSH2 0x93E JUMP JUMPDEST PUSH0 PUSH1 0x5 DUP2 GT ISZERO PUSH2 0x5A8 JUMPI PUSH2 0x5A7 PUSH2 0xD2C JUMP JUMPDEST JUMPDEST PUSH1 0x1 PUSH1 0x2 ADD PUSH0 SWAP1 SLOAD SWAP1 PUSH2 0x100 EXP SWAP1 DIV PUSH1 0xFF AND PUSH1 0x5 DUP2 GT ISZERO PUSH2 0x5CC JUMPI PUSH2 0x5CB PUSH2 0xD2C JUMP JUMPDEST JUMPDEST EQ PUSH1 0x1 PUSH1 0x2 ADD PUSH0 SWAP1 SLOAD SWAP1 PUSH2 0x100 EXP SWAP1 DIV PUSH1 0xFF AND PUSH0 SWAP1 SWAP2 PUSH2 0x623 JUMPI PUSH1 0x40 MLOAD PUSH32 0xE10DF3F00000000000000000000000000000000000000000000000000000000 DUP2 MSTORE PUSH1 0x4 ADD PUSH2 0x61A SWAP3 SWAP2 SWAP1 PUSH2 0xD9F JUMP JUMPDEST PUSH1 0x40 MLOAD DUP1 SWAP2 SUB SWAP1 REVERT JUMPDEST POP POP PUSH1 0x1 PUSH0 ADD PUSH0 DUP3 PUSH20 0xFFFFFFFFFFFFFFFFFFFFFFFFFFFFFFFFFFFFFFFF AND PUSH20 0xFFFFFFFFFFFFFFFFFFFFFFFFFFFFFFFFFFFFFFFF AND DUP2 MSTORE PUSH1 0x20 ADD SWAP1 DUP2 MSTORE PUSH1 0x20 ADD PUSH0 KECCAK256 PUSH0 ADD PUSH0 SWAP1 SLOAD SWAP1 PUSH2 0x100 EXP SWAP1 DIV PUSH1 0xFF AND ISZERO PUSH2 0x6AA JUMPI PUSH1 0x40 MLOAD PUSH32 0x59A1EC4700000000000000000000000000000000000000000000000000000000 DUP2 MSTORE PUSH1 0x4 ADD PUSH1 0x40 MLOAD DUP1 SWAP2 SUB SWAP1 REVERT JUMPDEST PUSH1 0x1 DUP1 PUSH0 ADD PUSH0 DUP4 PUSH20 0xFFFFFFFFFFFFFFFFFFFFFFFFFFFFFFFFFFFFFFFF AND PUSH20 0xFFFFFFFFFFFFFFFFFFFFFFFFFFFFFFFFFFFFFFFF AND DUP2 MSTORE PUSH1 0x20 ADD SWAP1 DUP2 MSTORE PUSH1 0x20 ADD PUSH0 KECCAK256 PUSH0 ADD PUSH0 PUSH2 0x100 EXP DUP2 SLOAD DUP2 PUSH1 0xFF MUL NOT AND SWAP1 DUP4 ISZERO ISZERO MUL OR SWAP1 SSTORE POP PUSH32 0xB6BE2187D059CC2A55FE29E0E503B566E1E0F8C8780096E185429350ACFFD3DD DUP2 PUSH1 0x40 MLOAD PUSH2 0x731 SWAP2 SWAP1 PUSH2 0xD13 JUMP JUMPDEST PUSH1 0x40 MLOAD DUP1 SWAP2 SUB SWAP1 LOG1 POP JUMP JUMPDEST PUSH2 0x744 PUSH2 0x93E JUMP JUMPDEST PUSH2 0x74D PUSH0 PUSH2 0x9C5 JUMP JUMPDEST JUMP JUMPDEST PUSH2 0x757 PUSH2 0x93E JUMP JUMPDEST PUSH1 0x5 DUP1 DUP2 GT ISZERO PUSH2 0x76A JUMPI PUSH2 0x769 PUSH2 0xD2C JUMP JUMPDEST JUMPDEST PUSH1 0x1 PUSH1 0x2 ADD PUSH0 SWAP1 SLOAD SWAP1 PUSH2 0x100 EXP SWAP1 DIV PUSH1 0xFF AND PUSH1 0x5 DUP2 GT ISZERO PUSH2 0x78E JUMPI PUSH2 0x78D PUSH2 0xD2C JUMP JUMPDEST JUMPDEST LT PUSH2 0x7C5 JUMPI PUSH1 0x40 MLOAD PUSH32 0x86FC57F00000000000000000000000000000000000000000000000000000000 DUP2 MSTORE PUSH1 0x4 ADD PUSH1 0x40 MLOAD DUP1 SWAP2 SUB SWAP1 REVERT JUMPDEST PUSH0 PUSH1 0x1 PUSH1 0x2 ADD PUSH0 SWAP1 SLOAD SWAP1 PUSH2 0x100 EXP SWAP1 DIV PUSH1 0xFF AND SWAP1 POP PUSH1 0x1 DUP1 PUSH1 0x2 ADD PUSH0 SWAP1 SLOAD SWAP1 PUSH2 0x100 EXP SWAP1 DIV PUSH1 0xFF AND PUSH1 0x5 DUP2 GT ISZERO PUSH2 0x7FF JUMPI PUSH2 0x7FE PUSH2 0xD2C JUMP JUMPDEST JUMPDEST PUSH2 0x809 SWAP2 SWAP1 PUSH2 0xE20 JUMP JUMPDEST PUSH1 0x5 DUP2 GT ISZERO PUSH2 0x81B JUMPI PUSH2 0x81A PUSH2 0xD2C JUMP JUMPDEST JUMPDEST PUSH1 0x1 PUSH1 0x2 ADD PUSH0 PUSH2 0x100 EXP DUP2 SLOAD DUP2 PUSH1 0xFF MUL NOT AND SWAP1 DUP4 PUSH1 0x5 DUP2 GT ISZERO PUSH2 0x841 JUMPI PUSH2 0x840 PUSH2 0xD2C JUMP JUMPDEST JUMPDEST MUL OR SWAP1 SSTORE POP PUSH32 0xA97A4EE45751E2ABF3E4FC8946939630B11B371EA8AE39CCDC3056E98F5CC3F DUP2 PUSH1 0x1 PUSH1 0x2 ADD PUSH0 SWAP1 SLOAD SWAP1 PUSH2 0x100 EXP SWAP1 DIV PUSH1 0xFF AND PUSH1 0x40 MLOAD PUSH2 0x888 SWAP3 SWAP2 SWAP1 PUSH2 0xD9F JUMP JUMPDEST PUSH1 0x40 MLOAD DUP1 SWAP2 SUB SWAP1 LOG1 POP JUMP JUMPDEST PUSH0 PUSH0 PUSH0 SWAP1 SLOAD SWAP1 PUSH2 0x100 EXP SWAP1 DIV PUSH20 0xFFFFFFFFFFFFFFFFFFFFFFFFFFFFFFFFFFFFFFFF AND SWAP1 POP SWAP1 JUMP JUMPDEST PUSH2 0x8C2 PUSH2 0x93E JUMP JUMPDEST PUSH0 PUSH20 0xFFFFFFFFFFFFFFFFFFFFFFFFFFFFFFFFFFFFFFFF AND DUP2 PUSH20 0xFFFFFFFFFFFFFFFFFFFFFFFFFFFFFFFFFFFFFFFF AND SUB PUSH2 0x932 JUMPI PUSH0 PUSH1 0x40 MLOAD PUSH32 0x1E4FBDF700000000000000000000000000000000000000000000000000000000 DUP2 MSTORE PUSH1 0x4 ADD PUSH2 0x929 SWAP2 SWAP1 PUSH2 0xD13 JUMP JUMPDEST PUSH1 0x40 MLOAD DUP1 SWAP2 SUB SWAP1 REVERT JUMPDEST PUSH2 0x93B DUP2 PUSH2 0x9C5 JUMP JUMPDEST POP JUMP JUMPDEST PUSH2 0x946 PUSH2 0xA86 JUMP JUMPDEST PUSH20 0xFFFFFFFFFFFFFFFFFFFFFFFFFFFFFFFFFFFFFFFF AND PUSH2 0x964 PUSH2 0x893 JUMP JUMPDEST PUSH20 0xFFFFFFFFFFFFFFFFFFFFFFFFFFFFFFFFFFFFFFFF AND EQ PUSH2 0x9C3 JUMPI PUSH2 0x987 PUSH2 0xA86 JUMP JUMPDEST PUSH1 0x40 MLOAD PUSH32 0x118CDAA700000000000000000000000000000000000000000000000000000000 DUP2 MSTORE PUSH1 0x4 ADD PUSH2 0x9BA SWAP2 SWAP1 PUSH2 0xD13 JUMP JUMPDEST PUSH1 0x40 MLOAD DUP1 SWAP2 SUB SWAP1 REVERT JUMPDEST JUMP JUMPDEST PUSH0 PUSH0 PUSH0 SWAP1 SLOAD SWAP1 PUSH2 0x100 EXP SWAP1 DIV PUSH20 0xFFFFFFFFFFFFFFFFFFFFFFFFFFFFFFFFFFFFFFFF AND SWAP1 POP DUP2 PUSH0 PUSH0 PUSH2 0x100 EXP DUP2 SLOAD DUP2 PUSH20 0xFFFFFFFFFFFFFFFFFFFFFFFFFFFFFFFFFFFFFFFF MUL NOT AND SWAP1 DUP4 PUSH20 0xFFFFFFFFFFFFFFFFFFFFFFFFFFFFFFFFFFFFFFFF AND MUL OR SWAP1 SSTORE POP DUP2 PUSH20 0xFFFFFFFFFFFFFFFFFFFFFFFFFFFFFFFFFFFFFFFF AND DUP2 PUSH20 0xFFFFFFFFFFFFFFFFFFFFFFFFFFFFFFFFFFFFFFFF AND PUSH32 0x8BE0079C531659141344CD1FD0A4F28419497F9722A3DAAFE3B4186F6B6457E0 PUSH1 0x40 MLOAD PUSH1 0x40 MLOAD DUP1 SWAP2 SUB SWAP1 LOG3 POP POP JUMP JUMPDEST PUSH0 CALLER SWAP1 POP SWAP1 JUMP JUMPDEST PUSH0 PUSH1 0x40 MLOAD SWAP1 POP SWAP1 JUMP JUMPDEST PUSH0 PUSH0 REVERT JUMPDEST PUSH0 PUSH0 REVERT JUMPDEST PUSH0 DUP2 SWAP1 POP SWAP2 SWAP1 POP JUMP JUMPDEST PUSH2 0xAB0 DUP2 PUSH2 0xA9E JUMP JUMPDEST DUP2 EQ PUSH2 0xABA JUMPI PUSH0 PUSH0 REVERT JUMPDEST POP JUMP JUMPDEST PUSH0 DUP2 CALLDATALOAD SWAP1 POP PUSH2 0xACB DUP2 PUSH2 0xAA7 JUMP JUMPDEST SWAP3 SWAP2 POP POP JUMP JUMPDEST PUSH0 PUSH1 0x20 DUP3 DUP5 SUB SLT ISZERO PUSH2 0xAE6 JUMPI PUSH2 0xAE5 PUSH2 0xA96 JUMP JUMPDEST JUMPDEST PUSH0 PUSH2 0xAF3 DUP5 DUP3 DUP6 ADD PUSH2 0xABD JUMP JUMPDEST SWAP2 POP POP SWAP3 SWAP2 POP POP JUMP JUMPDEST PUSH0 PUSH0 REVERT JUMPDEST PUSH0 PUSH0 REVERT JUMPDEST PUSH0 PUSH1 0x1F NOT PUSH1 0x1F DUP4 ADD AND SWAP1 POP SWAP2 SWAP1 POP JUMP JUMPDEST PUSH32 0x4E487B7100000000000000000000000000000000000000000000000000000000 PUSH0 MSTORE PUSH1 0x41 PUSH1 0x4 MSTORE PUSH1 0x24 PUSH0 REVERT JUMPDEST PUSH2 0xB4A DUP3 PUSH2 0xB04 JUMP JUMPDEST DUP2 ADD DUP2 DUP2 LT PUSH8 0xFFFFFFFFFFFFFFFF DUP3 GT OR ISZERO PUSH2 0xB69 JUMPI PUSH2 0xB68 PUSH2 0xB14 JUMP JUMPDEST JUMPDEST DUP1 PUSH1 0x40 MSTORE POP POP POP JUMP JUMPDEST PUSH0 PUSH2 0xB7B PUSH2 0xA8D JUMP JUMPDEST SWAP1 POP PUSH2 0xB87 DUP3 DUP3 PUSH2 0xB41 JUMP JUMPDEST SWAP2 SWAP1 POP JUMP JUMPDEST PUSH0 PUSH8 0xFFFFFFFFFFFFFFFF DUP3 GT ISZERO PUSH2 0xBA6 JUMPI PUSH2 0xBA5 PUSH2 0xB14 JUMP JUMPDEST JUMPDEST PUSH2 0xBAF DUP3 PUSH2 0xB04 JUMP JUMPDEST SWAP1 POP PUSH1 0x20 DUP2 ADD SWAP1 POP SWAP2 SWAP1 POP JUMP JUMPDEST DUP3 DUP2 DUP4 CALLDATACOPY PUSH0 DUP4 DUP4 ADD MSTORE POP POP POP JUMP JUMPDEST PUSH0 PUSH2 0xBDC PUSH2 0xBD7 DUP5 PUSH2 0xB8C JUMP JUMPDEST PUSH2 0xB72 JUMP JUMPDEST SWAP1 POP DUP3 DUP2 MSTORE PUSH1 0x20 DUP2 ADD DUP5 DUP5 DUP5 ADD GT ISZERO PUSH2 0xBF8 JUMPI PUSH2 0xBF7 PUSH2 0xB00 JUMP JUMPDEST JUMPDEST PUSH2 0xC03 DUP5 DUP3 DUP6 PUSH2 0xBBC JUMP JUMPDEST POP SWAP4 SWAP3 POP POP POP JUMP JUMPDEST PUSH0 DUP3 PUSH1 0x1F DUP4 ADD SLT PUSH2 0xC1F JUMPI PUSH2 0xC1E PUSH2 0xAFC JUMP JUMPDEST JUMPDEST DUP2 CALLDATALOAD PUSH2 0xC2F DUP5 DUP3 PUSH1 0x20 DUP7 ADD PUSH2 0xBCA JUMP JUMPDEST SWAP2 POP POP SWAP3 SWAP2 POP POP JUMP JUMPDEST PUSH0 PUSH1 0x20 DUP3 DUP5 SUB SLT ISZERO PUSH2 0xC4D JUMPI PUSH2 0xC4C PUSH2 0xA96 JUMP JUMPDEST JUMPDEST PUSH0 DUP3 ADD CALLDATALOAD PUSH8 0xFFFFFFFFFFFFFFFF DUP2 GT ISZERO PUSH2 0xC6A JUMPI PUSH2 0xC69 PUSH2 0xA9A JUMP JUMPDEST JUMPDEST PUSH2 0xC76 DUP5 DUP3 DUP6 ADD PUSH2 0xC0B JUMP JUMPDEST SWAP2 POP POP SWAP3 SWAP2 POP POP JUMP JUMPDEST PUSH0 PUSH20 0xFFFFFFFFFFFFFFFFFFFFFFFFFFFFFFFFFFFFFFFF DUP3 AND SWAP1 POP SWAP2 SWAP1 POP JUMP JUMPDEST PUSH0 PUSH2 0xCA8 DUP3 PUSH2 0xC7F JUMP JUMPDEST SWAP1 POP SWAP2 SWAP1 POP JUMP JUMPDEST PUSH2 0xCB8 DUP2 PUSH2 0xC9E JUMP JUMPDEST DUP2 EQ PUSH2 0xCC2 JUMPI PUSH0 PUSH0 REVERT JUMPDEST POP JUMP JUMPDEST PUSH0 DUP2 CALLDATALOAD SWAP1 POP PUSH2 0xCD3 DUP2 PUSH2 0xCAF JUMP JUMPDEST SWAP3 SWAP2 POP POP JUMP JUMPDEST PUSH0 PUSH1 0x20 DUP3 DUP5 SUB SLT ISZERO PUSH2 0xCEE JUMPI PUSH2 0xCED PUSH2 0xA96 JUMP JUMPDEST JUMPDEST PUSH0 PUSH2 0xCFB DUP5 DUP3 DUP6 ADD PUSH2 0xCC5 JUMP JUMPDEST SWAP2 POP POP SWAP3 SWAP2 POP POP JUMP JUMPDEST PUSH2 0xD0D DUP2 PUSH2 0xC9E JUMP JUMPDEST DUP3 MSTORE POP POP JUMP JUMPDEST PUSH0 PUSH1 0x20 DUP3 ADD SWAP1 POP PUSH2 0xD26 PUSH0 DUP4 ADD DUP5 PUSH2 0xD04 JUMP JUMPDEST SWAP3 SWAP2 POP POP JUMP JUMPDEST PUSH32 0x4E487B7100000000000000000000000000000000000000000000000000000000 PUSH0 MSTORE PUSH1 0x21 PUSH1 0x4 MSTORE PUSH1 0x24 PUSH0 REVERT JUMPDEST PUSH1 0x6 DUP2 LT PUSH2 0xD6A JUMPI PUSH2 0xD69 PUSH2 0xD2C JUMP JUMPDEST JUMPDEST POP JUMP JUMPDEST PUSH0 DUP2 SWAP1 POP PUSH2 0xD7A DUP3 PUSH2 0xD59 JUMP JUMPDEST SWAP2 SWAP1 POP JUMP JUMPDEST PUSH0 PUSH2 0xD89 DUP3 PUSH2 0xD6D JUMP JUMPDEST SWAP1 POP SWAP2 SWAP1 POP JUMP JUMPDEST PUSH2 0xD99 DUP2 PUSH2 0xD7F JUMP JUMPDEST DUP3 MSTORE POP POP JUMP JUMPDEST PUSH0 PUSH1 0x40 DUP3 ADD SWAP1 POP PUSH2 0xDB2 PUSH0 DUP4 ADD DUP6 PUSH2 0xD90 JUMP JUMPDEST PUSH2 0xDBF PUSH1 0x20 DUP4 ADD DUP5 PUSH2 0xD90 JUMP JUMPDEST SWAP4 SWAP3 POP POP POP JUMP JUMPDEST PUSH32 0x4E487B7100000000000000000000000000000000000000000000000000000000 PUSH0 MSTORE PUSH1 0x32 PUSH1 0x4 MSTORE PUSH1 0x24 PUSH0 REVERT JUMPDEST PUSH32 0x4E487B7100000000000000000000000000000000000000000000000000000000 PUSH0 MSTORE PUSH1 0x11 PUSH1 0x4 MSTORE PUSH1 0x24 PUSH0 REVERT JUMPDEST PUSH0 PUSH2 0xE2A DUP3 PUSH2 0xA9E JUMP JUMPDEST SWAP2 POP PUSH2 0xE35 DUP4 PUSH2 0xA9E JUMP JUMPDEST SWAP3 POP DUP3 DUP3 ADD SWAP1 POP DUP1 DUP3 GT ISZERO PUSH2 0xE4D JUMPI PUSH2 0xE4C PUSH2 0xDF3 JUMP JUMPDEST JUMPDEST SWAP3 SWAP2 POP POP JUMP JUMPDEST PUSH2 0xE5C DUP2 PUSH2 0xA9E JUMP JUMPDEST DUP3 MSTORE POP POP JUMP JUMPDEST PUSH0 PUSH1 0x40 DUP3 ADD SWAP1 POP PUSH2 0xE75 PUSH0 DUP4 ADD DUP6 PUSH2 0xD04 JUMP JUMPDEST PUSH2 0xE82 PUSH1 0x20 DUP4 ADD DUP5 PUSH2 0xE53 JUMP JUMPDEST SWAP4 SWAP3 POP POP POP JUMP JUMPDEST PUSH0 DUP2 MLOAD SWAP1 POP SWAP2 SWAP1 POP JUMP JUMPDEST PUSH32 0x4E487B7100000000000000000000000000000000000000000000000000000000 PUSH0 MSTORE PUSH1 0x22 PUSH1 0x4 MSTORE PUSH1 0x24 PUSH0 REVERT JUMPDEST PUSH0 PUSH1 0x2 DUP3 DIV SWAP1 POP PUSH1 0x1 DUP3 AND DUP1 PUSH2 0xED7 JUMPI PUSH1 0x7F DUP3 AND SWAP2 POP JUMPDEST PUSH1 0x20 DUP3 LT DUP2 SUB PUSH2 0xEEA JUMPI PUSH2 0xEE9 PUSH2 0xE93 JUMP JUMPDEST JUMPDEST POP SWAP2 SWAP1 POP JUMP JUMPDEST PUSH0 DUP2 SWAP1 POP DUP2 PUSH0 MSTORE PUSH1 0x20 PUSH0 KECCAK256 SWAP1 POP SWAP2 SWAP1 POP JUMP JUMPDEST PUSH0 PUSH1 0x20 PUSH1 0x1F DUP4 ADD DIV SWAP1 POP SWAP2 SWAP1 POP JUMP JUMPDEST PUSH0 DUP3 DUP3 SHL SWAP1 POP SWAP3 SWAP2 POP POP JUMP JUMPDEST PUSH0 PUSH1 0x8 DUP4 MUL PUSH2 0xF4C PUSH32 0xFFFFFFFFFFFFFFFFFFFFFFFFFFFFFFFFFFFFFFFFFFFFFFFFFFFFFFFFFFFFFFFF DUP3 PUSH2 0xF11 JUMP JUMPDEST PUSH2 0xF56 DUP7 DUP4 PUSH2 0xF11 JUMP JUMPDEST SWAP6 POP DUP1 NOT DUP5 AND SWAP4 POP DUP1 DUP7 AND DUP5 OR SWAP3 POP POP POP SWAP4 SWAP3 POP POP POP JUMP JUMPDEST PUSH0 DUP2 SWAP1 POP SWAP2 SWAP1 POP JUMP JUMPDEST PUSH0 PUSH2 0xF91 PUSH2 0xF8C PUSH2 0xF87 DUP5 PUSH2 0xA9E JUMP JUMPDEST PUSH2 0xF6E JUMP JUMPDEST PUSH2 0xA9E JUMP JUMPDEST SWAP1 POP SWAP2 SWAP1 POP JUMP JUMPDEST PUSH0 DUP2 SWAP1 POP SWAP2 SWAP1 POP JUMP JUMPDEST PUSH2 0xFAA DUP4 PUSH2 0xF77 JUMP JUMPDEST PUSH2 0xFBE PUSH2 0xFB6 DUP3 PUSH2 0xF98 JUMP JUMPDEST DUP5 DUP5 SLOAD PUSH2 0xF1D JUMP JUMPDEST DUP3 SSTORE POP POP POP POP JUMP JUMPDEST PUSH0 PUSH0 SWAP1 POP SWAP1 JUMP JUMPDEST PUSH2 0xFD5 PUSH2 0xFC6 JUMP JUMPDEST PUSH2 0xFE0 DUP2 DUP5 DUP5 PUSH2 0xFA1 JUMP JUMPDEST POP POP POP JUMP JUMPDEST JUMPDEST DUP2 DUP2 LT ISZERO PUSH2 0x1003 JUMPI PUSH2 0xFF8 PUSH0 DUP3 PUSH2 0xFCD JUMP JUMPDEST PUSH1 0x1 DUP2 ADD SWAP1 POP PUSH2 0xFE6 JUMP JUMPDEST POP POP JUMP JUMPDEST PUSH1 0x1F DUP3 GT ISZERO PUSH2 0x1048 JUMPI PUSH2 0x1019 DUP2 PUSH2 0xEF0 JUMP JUMPDEST PUSH2 0x1022 DUP5 PUSH2 0xF02 JUMP JUMPDEST DUP2 ADD PUSH1 0x20 DUP6 LT ISZERO PUSH2 0x1031 JUMPI DUP2 SWAP1 POP JUMPDEST PUSH2 0x1045 PUSH2 0x103D DUP6 PUSH2 0xF02 JUMP JUMPDEST DUP4 ADD DUP3 PUSH2 0xFE5 JUMP JUMPDEST POP POP JUMPDEST POP POP POP JUMP JUMPDEST PUSH0 DUP3 DUP3 SHR SWAP1 POP SWAP3 SWAP2 POP POP JUMP JUMPDEST PUSH0 PUSH2 0x1068 PUSH0 NOT DUP5 PUSH1 0x8 MUL PUSH2 0x104D JUMP JUMPDEST NOT DUP1 DUP4 AND SWAP2 POP POP SWAP3 SWAP2 POP POP JUMP JUMPDEST PUSH0 PUSH2 0x1080 DUP4 DUP4 PUSH2 0x1059 JUMP JUMPDEST SWAP2 POP DUP3 PUSH1 0x2 MUL DUP3 OR SWAP1 POP SWAP3 SWAP2 POP POP JUMP JUMPDEST PUSH2 0x1099 DUP3 PUSH2 0xE89 JUMP JUMPDEST PUSH8 0xFFFFFFFFFFFFFFFF DUP2 GT ISZERO PUSH2 0x10B2 JUMPI PUSH2 0x10B1 PUSH2 0xB14 JUMP JUMPDEST JUMPDEST PUSH2 0x10BC DUP3 SLOAD PUSH2 0xEC0 JUMP JUMPDEST PUSH2 0x10C7 DUP3 DUP3 DUP6 PUSH2 0x1007 JUMP JUMPDEST PUSH0 PUSH1 0x20 SWAP1 POP PUSH1 0x1F DUP4 GT PUSH1 0x1 DUP2 EQ PUSH2 0x10F8 JUMPI PUSH0 DUP5 ISZERO PUSH2 0x10E6 JUMPI DUP3 DUP8 ADD MLOAD SWAP1 POP JUMPDEST PUSH2 0x10F0 DUP6 DUP3 PUSH2 0x1075 JUMP JUMPDEST DUP7 SSTORE POP PUSH2 0x1157 JUMP JUMPDEST PUSH1 0x1F NOT DUP5 AND PUSH2 0x1106 DUP7 PUSH2 0xEF0 JUMP JUMPDEST PUSH0 JUMPDEST DUP3 DUP2 LT ISZERO PUSH2 0x112D JUMPI DUP5 DUP10 ADD MLOAD DUP3 SSTORE PUSH1 0x1 DUP3 ADD SWAP2 POP PUSH1 0x20 DUP6 ADD SWAP5 POP PUSH1 0x20 DUP2 ADD SWAP1 POP PUSH2 0x1108 JUMP JUMPDEST DUP7 DUP4 LT ISZERO PUSH2 0x114A JUMPI DUP5 DUP10 ADD MLOAD PUSH2 0x1146 PUSH1 0x1F DUP10 AND DUP3 PUSH2 0x1059 JUMP JUMPDEST DUP4 SSTORE POP JUMPDEST PUSH1 0x1 PUSH1 0x2 DUP9 MUL ADD DUP9 SSTORE POP POP POP JUMPDEST POP POP POP POP POP POP JUMP INVALID LOG2 PUSH5 0x6970667358 0x22 SLT KECCAK256 CALLDATACOPY 0x29 KECCAK256 STOP 0xBF 0xD6 0x2F PUSH31 0x79EA14610ECE0BB5B06AD54C7AF5F0208D493F62DDF024464736F6C634300 ADDMOD 0x1E STOP CALLER "
				},
				"gasEstimates": {
					"creation": {
						"codeDepositCost": "900200",
						"executionCost": "infinite",
						"totalCost": "infinite"
					},
					"external": {
						"nextWorkflowStatus()": "infinite",
						"owner()": "2558",
						"registerProposal(string)": "infinite",
						"registerVoter(address)": "infinite",
						"renounceOwnership()": "infinite",
						"transferOwnership(address)": "infinite",
						"vote(uint256)": "infinite"
					}
				},
				"methodIdentifiers": {
					"nextWorkflowStatus()": "75406284",
					"owner()": "8da5cb5b",
					"registerProposal(string)": "2f95355b",
					"registerVoter(address)": "38db6dd3",
					"renounceOwnership()": "715018a6",
					"transferOwnership(address)": "f2fde38b",
					"vote(uint256)": "0121b93f"
				}
			},
			"storageLayout": {
				"storage": [
					{
						"astId": 8,
						"contract": "contracts/Voting.sol:Voting",
						"label": "_owner",
						"offset": 0,
						"slot": "0",
						"type": "t_address"
					},
					{
						"astId": 265,
						"contract": "contracts/Voting.sol:Voting",
						"label": "currentVoting",
						"offset": 0,
						"slot": "1",
						"type": "t_struct(VotingState)262_storage"
					},
					{
						"astId": 269,
						"contract": "contracts/Voting.sol:Voting",
						"label": "pastVote",
						"offset": 0,
						"slot": "5",
						"type": "t_array(t_struct(VotingState)262_storage)dyn_storage"
					}
				],
				"types": {
					"t_address": {
						"encoding": "inplace",
						"label": "address",
						"numberOfBytes": "20"
					},
					"t_array(t_struct(Proposal)238_storage)dyn_storage": {
						"base": "t_struct(Proposal)238_storage",
						"encoding": "dynamic_array",
						"label": "struct Voting.Proposal[]",
						"numberOfBytes": "32"
					},
					"t_array(t_struct(VotingState)262_storage)dyn_storage": {
						"base": "t_struct(VotingState)262_storage",
						"encoding": "dynamic_array",
						"label": "struct Voting.VotingState[]",
						"numberOfBytes": "32"
					},
					"t_bool": {
						"encoding": "inplace",
						"label": "bool",
						"numberOfBytes": "1"
					},
					"t_enum(WorkflowStatus)245": {
						"encoding": "inplace",
						"label": "enum Voting.WorkflowStatus",
						"numberOfBytes": "1"
					},
					"t_mapping(t_address,t_struct(Voter)233_storage)": {
						"encoding": "mapping",
						"key": "t_address",
						"label": "mapping(address => struct Voting.Voter)",
						"numberOfBytes": "32",
						"value": "t_struct(Voter)233_storage"
					},
					"t_string_storage": {
						"encoding": "bytes",
						"label": "string",
						"numberOfBytes": "32"
					},
					"t_struct(Proposal)238_storage": {
						"encoding": "inplace",
						"label": "struct Voting.Proposal",
						"members": [
							{
								"astId": 235,
								"contract": "contracts/Voting.sol:Voting",
								"label": "description",
								"offset": 0,
								"slot": "0",
								"type": "t_string_storage"
							},
							{
								"astId": 237,
								"contract": "contracts/Voting.sol:Voting",
								"label": "voteCount",
								"offset": 0,
								"slot": "1",
								"type": "t_uint256"
							}
						],
						"numberOfBytes": "64"
					},
					"t_struct(Voter)233_storage": {
						"encoding": "inplace",
						"label": "struct Voting.Voter",
						"members": [
							{
								"astId": 228,
								"contract": "contracts/Voting.sol:Voting",
								"label": "isRegistered",
								"offset": 0,
								"slot": "0",
								"type": "t_bool"
							},
							{
								"astId": 230,
								"contract": "contracts/Voting.sol:Voting",
								"label": "hasVoted",
								"offset": 1,
								"slot": "0",
								"type": "t_bool"
							},
							{
								"astId": 232,
								"contract": "contracts/Voting.sol:Voting",
								"label": "votedProposalId",
								"offset": 0,
								"slot": "1",
								"type": "t_uint256"
							}
						],
						"numberOfBytes": "64"
					},
					"t_struct(VotingState)262_storage": {
						"encoding": "inplace",
						"label": "struct Voting.VotingState",
						"members": [
							{
								"astId": 250,
								"contract": "contracts/Voting.sol:Voting",
								"label": "voters",
								"offset": 0,
								"slot": "0",
								"type": "t_mapping(t_address,t_struct(Voter)233_storage)"
							},
							{
								"astId": 254,
								"contract": "contracts/Voting.sol:Voting",
								"label": "proposals",
								"offset": 0,
								"slot": "1",
								"type": "t_array(t_struct(Proposal)238_storage)dyn_storage"
							},
							{
								"astId": 257,
								"contract": "contracts/Voting.sol:Voting",
								"label": "status",
								"offset": 0,
								"slot": "2",
								"type": "t_enum(WorkflowStatus)245"
							},
							{
								"astId": 261,
								"contract": "contracts/Voting.sol:Voting",
								"label": "winningProposals",
								"offset": 0,
								"slot": "3",
								"type": "t_array(t_struct(Proposal)238_storage)dyn_storage"
							}
						],
						"numberOfBytes": "128"
					},
					"t_uint256": {
						"encoding": "inplace",
						"label": "uint256",
						"numberOfBytes": "32"
					}
				}
			},
			"userdoc": {
				"kind": "user",
				"methods": {
					"nextWorkflowStatus()": {
						"notice": "This function is for updating the status of the voting workflow Only available to the contract owner"
					},
					"registerProposal(string)": {
						"notice": "This function is to add voting proposal for the upcoming vote Only available to registered voters"
					},
					"registerVoter(address)": {
						"notice": "This function is for registering voter  Only available to the contract owner"
					},
					"vote(uint256)": {
						"notice": "This function is to vote for a proposal Only available to registered voters"
					}
				},
				"version": 1
			}
		}
	}
}