{
	"contracts/Voting.sol": {
		"Voting": {
			"abi": [
				{
					"inputs": [],
					"stateMutability": "nonpayable",
					"type": "constructor"
				},
				{
					"inputs": [],
					"name": "HasAlreadyVoted",
					"type": "error"
				},
				{
					"inputs": [],
					"name": "InvalidPastVoteID",
					"type": "error"
				},
				{
					"inputs": [],
					"name": "InvalidProposalID",
					"type": "error"
				},
				{
					"inputs": [
						{
							"internalType": "enum Voting.WorkflowStatus",
							"name": "current",
							"type": "uint8"
						},
						{
							"internalType": "enum Voting.WorkflowStatus",
							"name": "expected",
							"type": "uint8"
						}
					],
					"name": "InvalidWorkflowStatus",
					"type": "error"
				},
				{
					"inputs": [
						{
							"internalType": "address",
							"name": "owner",
							"type": "address"
						}
					],
					"name": "OwnableInvalidOwner",
					"type": "error"
				},
				{
					"inputs": [
						{
							"internalType": "address",
							"name": "account",
							"type": "address"
						}
					],
					"name": "OwnableUnauthorizedAccount",
					"type": "error"
				},
				{
					"inputs": [],
					"name": "VoterAddressNotAllowed",
					"type": "error"
				},
				{
					"inputs": [],
					"name": "VoterAlreadyRegistered",
					"type": "error"
				},
				{
					"inputs": [],
					"name": "WorkflowAlreadyEnded",
					"type": "error"
				},
				{
					"anonymous": false,
					"inputs": [
						{
							"indexed": true,
							"internalType": "address",
							"name": "previousOwner",
							"type": "address"
						},
						{
							"indexed": true,
							"internalType": "address",
							"name": "newOwner",
							"type": "address"
						}
					],
					"name": "OwnershipTransferred",
					"type": "event"
				},
				{
					"anonymous": false,
					"inputs": [
						{
							"indexed": false,
							"internalType": "uint256",
							"name": "proposalId",
							"type": "uint256"
						}
					],
					"name": "ProposalRegistered",
					"type": "event"
				},
				{
					"anonymous": false,
					"inputs": [
						{
							"indexed": false,
							"internalType": "address",
							"name": "voter",
							"type": "address"
						},
						{
							"indexed": false,
							"internalType": "uint256",
							"name": "proposalId",
							"type": "uint256"
						}
					],
					"name": "Voted",
					"type": "event"
				},
				{
					"anonymous": false,
					"inputs": [
						{
							"indexed": false,
							"internalType": "address",
							"name": "voterAddress",
							"type": "address"
						}
					],
					"name": "VoterRegistered",
					"type": "event"
				},
				{
					"anonymous": false,
					"inputs": [
						{
							"indexed": false,
							"internalType": "uint256",
							"name": "maxVotes",
							"type": "uint256"
						},
						{
							"indexed": false,
							"internalType": "uint256",
							"name": "winningProposalsCount",
							"type": "uint256"
						}
					],
					"name": "VotesTallied",
					"type": "event"
				},
				{
					"anonymous": false,
					"inputs": [
						{
							"indexed": true,
							"internalType": "uint256",
							"name": "roundIndex",
							"type": "uint256"
						},
						{
							"indexed": false,
							"internalType": "uint256",
							"name": "totalVotes",
							"type": "uint256"
						},
						{
							"indexed": false,
							"internalType": "uint256",
							"name": "winningProposalsCount",
							"type": "uint256"
						}
					],
					"name": "VotingReset",
					"type": "event"
				},
				{
					"anonymous": false,
					"inputs": [
						{
							"indexed": false,
							"internalType": "enum Voting.WorkflowStatus",
							"name": "previousStatus",
							"type": "uint8"
						},
						{
							"indexed": false,
							"internalType": "enum Voting.WorkflowStatus",
							"name": "newStatus",
							"type": "uint8"
						}
					],
					"name": "WorkflowStatusChange",
					"type": "event"
				},
				{
					"inputs": [
						{
							"internalType": "uint256",
							"name": "index",
							"type": "uint256"
						}
					],
					"name": "getPastVote",
					"outputs": [
						{
							"components": [
								{
									"internalType": "uint256",
									"name": "totalVotesCount",
									"type": "uint256"
								},
								{
									"components": [
										{
											"internalType": "string",
											"name": "description",
											"type": "string"
										},
										{
											"internalType": "uint256",
											"name": "voteCount",
											"type": "uint256"
										}
									],
									"internalType": "struct Voting.Proposal[]",
									"name": "proposals",
									"type": "tuple[]"
								},
								{
									"internalType": "uint256[]",
									"name": "winningProposals",
									"type": "uint256[]"
								}
							],
							"internalType": "struct Voting.VotingSummary",
							"name": "",
							"type": "tuple"
						}
					],
					"stateMutability": "view",
					"type": "function"
				},
				{
					"inputs": [
						{
							"internalType": "uint256",
							"name": "_proposalId",
							"type": "uint256"
						}
					],
					"name": "getProposal",
					"outputs": [],
					"stateMutability": "view",
					"type": "function"
				},
				{
					"inputs": [],
					"name": "getVoteResults",
					"outputs": [
						{
							"internalType": "uint256[]",
							"name": "winningProposals",
							"type": "uint256[]"
						}
					],
					"stateMutability": "view",
					"type": "function"
				},
				{
					"inputs": [],
					"name": "nextWorkflowStatus",
					"outputs": [],
					"stateMutability": "nonpayable",
					"type": "function"
				},
				{
					"inputs": [],
					"name": "owner",
					"outputs": [
						{
							"internalType": "address",
							"name": "",
							"type": "address"
						}
					],
					"stateMutability": "view",
					"type": "function"
				},
				{
					"inputs": [
						{
							"internalType": "string",
							"name": "_description",
							"type": "string"
						}
					],
					"name": "registerProposal",
					"outputs": [],
					"stateMutability": "nonpayable",
					"type": "function"
				},
				{
					"inputs": [
						{
							"internalType": "address",
							"name": "_address",
							"type": "address"
						}
					],
					"name": "registerVoter",
					"outputs": [],
					"stateMutability": "nonpayable",
					"type": "function"
				},
				{
					"inputs": [],
					"name": "renounceOwnership",
					"outputs": [],
					"stateMutability": "nonpayable",
					"type": "function"
				},
				{
					"inputs": [],
					"name": "resetVotingState",
					"outputs": [],
					"stateMutability": "nonpayable",
					"type": "function"
				},
				{
					"inputs": [
						{
							"internalType": "address",
							"name": "newOwner",
							"type": "address"
						}
					],
					"name": "transferOwnership",
					"outputs": [],
					"stateMutability": "nonpayable",
					"type": "function"
				},
				{
					"inputs": [
						{
							"internalType": "uint256",
							"name": "_proposalId",
							"type": "uint256"
						}
					],
					"name": "vote",
					"outputs": [],
					"stateMutability": "nonpayable",
					"type": "function"
				}
			],
			"devdoc": {
				"errors": {
					"OwnableInvalidOwner(address)": [
						{
							"details": "The owner is not a valid owner account. (eg. `address(0)`)"
						}
					],
					"OwnableUnauthorizedAccount(address)": [
						{
							"details": "The caller account is not authorized to perform an operation."
						}
					]
				},
				"kind": "dev",
				"methods": {
					"owner()": {
						"details": "Returns the address of the current owner."
					},
					"renounceOwnership()": {
						"details": "Leaves the contract without owner. It will not be possible to call `onlyOwner` functions. Can only be called by the current owner. NOTE: Renouncing ownership will leave the contract without an owner, thereby disabling any functionality that is only available to the owner."
					},
					"transferOwnership(address)": {
						"details": "Transfers ownership of the contract to a new account (`newOwner`). Can only be called by the current owner."
					}
				},
				"title": "Voting System",
				"version": 1
			},
			"evm": {
				"assembly": "    /* \"contracts/Voting.sol\":451:7331  contract Voting is Ownable {... */\n  mstore(0x40, 0x80)\n    /* \"contracts/Voting.sol\":1698:1802  constructor() Ownable(msg.sender) {... */\n  callvalue\n  dup1\n  iszero\n  tag_1\n  jumpi\n  revert(0x00, 0x00)\ntag_1:\n  pop\n    /* \"contracts/Voting.sol\":1720:1730  msg.sender */\n  caller\n    /* \"@openzeppelin/contracts/access/Ownable.sol\":1297:1298  0 */\n  0x00\n    /* \"@openzeppelin/contracts/access/Ownable.sol\":1273:1299  initialOwner == address(0) */\n  0xffffffffffffffffffffffffffffffffffffffff\n  and\n    /* \"@openzeppelin/contracts/access/Ownable.sol\":1273:1285  initialOwner */\n  dup2\n    /* \"@openzeppelin/contracts/access/Ownable.sol\":1273:1299  initialOwner == address(0) */\n  0xffffffffffffffffffffffffffffffffffffffff\n  and\n  sub\n    /* \"@openzeppelin/contracts/access/Ownable.sol\":1269:1364  if (initialOwner == address(0)) {... */\n  tag_5\n  jumpi\n    /* \"@openzeppelin/contracts/access/Ownable.sol\":1350:1351  0 */\n  0x00\n    /* \"@openzeppelin/contracts/access/Ownable.sol\":1322:1353  OwnableInvalidOwner(address(0)) */\n  mload(0x40)\n  0x1e4fbdf700000000000000000000000000000000000000000000000000000000\n  dup2\n  mstore\n  0x04\n  add\n  tag_6\n  swap2\n  swap1\n  tag_7\n  jump\t// in\ntag_6:\n  mload(0x40)\n  dup1\n  swap2\n  sub\n  swap1\n  revert\n    /* \"@openzeppelin/contracts/access/Ownable.sol\":1269:1364  if (initialOwner == address(0)) {... */\ntag_5:\n    /* \"@openzeppelin/contracts/access/Ownable.sol\":1373:1405  _transferOwnership(initialOwner) */\n  tag_8\n    /* \"@openzeppelin/contracts/access/Ownable.sol\":1392:1404  initialOwner */\n  dup2\n    /* \"@openzeppelin/contracts/access/Ownable.sol\":1373:1391  _transferOwnership */\n  shl(0x20, tag_9)\n    /* \"@openzeppelin/contracts/access/Ownable.sol\":1373:1405  _transferOwnership(initialOwner) */\n  0x20\n  shr\n  jump\t// in\ntag_8:\n    /* \"@openzeppelin/contracts/access/Ownable.sol\":1225:1412  constructor(address initialOwner) {... */\n  pop\n    /* \"contracts/Voting.sol\":1763:1795  WorkflowStatus.RegisteringVoters */\n  0x00\n    /* \"contracts/Voting.sol\":1742:1753  currentVote */\n  0x01\n    /* \"contracts/Voting.sol\":1742:1760  currentVote.status */\n  0x03\n  add\n  0x00\n    /* \"contracts/Voting.sol\":1742:1795  currentVote.status = WorkflowStatus.RegisteringVoters */\n  0x0100\n  exp\n  dup2\n  sload\n  dup2\n  0xff\n  mul\n  not\n  and\n  swap1\n  dup4\n  0x05\n  dup2\n  gt\n  iszero\n  tag_11\n  jumpi\n  tag_12\n  tag_13\n  jump\t// in\ntag_12:\ntag_11:\n  mul\n  or\n  swap1\n  sstore\n  pop\n    /* \"contracts/Voting.sol\":451:7331  contract Voting is Ownable {... */\n  jump(tag_14)\n    /* \"@openzeppelin/contracts/access/Ownable.sol\":2912:3099  function _transferOwnership(address newOwner) internal virtual {... */\ntag_9:\n    /* \"@openzeppelin/contracts/access/Ownable.sol\":2985:3001  address oldOwner */\n  0x00\n    /* \"@openzeppelin/contracts/access/Ownable.sol\":3004:3010  _owner */\n  0x00\n  0x00\n  swap1\n  sload\n  swap1\n  0x0100\n  exp\n  swap1\n  div\n  0xffffffffffffffffffffffffffffffffffffffff\n  and\n    /* \"@openzeppelin/contracts/access/Ownable.sol\":2985:3010  address oldOwner = _owner */\n  swap1\n  pop\n    /* \"@openzeppelin/contracts/access/Ownable.sol\":3029:3037  newOwner */\n  dup2\n    /* \"@openzeppelin/contracts/access/Ownable.sol\":3020:3026  _owner */\n  0x00\n  0x00\n    /* \"@openzeppelin/contracts/access/Ownable.sol\":3020:3037  _owner = newOwner */\n  0x0100\n  exp\n  dup2\n  sload\n  dup2\n  0xffffffffffffffffffffffffffffffffffffffff\n  mul\n  not\n  and\n  swap1\n  dup4\n  0xffffffffffffffffffffffffffffffffffffffff\n  and\n  mul\n  or\n  swap1\n  sstore\n  pop\n    /* \"@openzeppelin/contracts/access/Ownable.sol\":3083:3091  newOwner */\n  dup2\n    /* \"@openzeppelin/contracts/access/Ownable.sol\":3052:3092  OwnershipTransferred(oldOwner, newOwner) */\n  0xffffffffffffffffffffffffffffffffffffffff\n  and\n    /* \"@openzeppelin/contracts/access/Ownable.sol\":3073:3081  oldOwner */\n  dup2\n    /* \"@openzeppelin/contracts/access/Ownable.sol\":3052:3092  OwnershipTransferred(oldOwner, newOwner) */\n  0xffffffffffffffffffffffffffffffffffffffff\n  and\n  0x8be0079c531659141344cd1fd0a4f28419497f9722a3daafe3b4186f6b6457e0\n  mload(0x40)\n  mload(0x40)\n  dup1\n  swap2\n  sub\n  swap1\n  log3\n    /* \"@openzeppelin/contracts/access/Ownable.sol\":2975:3099  {... */\n  pop\n    /* \"@openzeppelin/contracts/access/Ownable.sol\":2912:3099  function _transferOwnership(address newOwner) internal virtual {... */\n  pop\n  jump\t// out\n    /* \"#utility.yul\":7:133   */\ntag_16:\n    /* \"#utility.yul\":44:51   */\n  0x00\n    /* \"#utility.yul\":84:126   */\n  0xffffffffffffffffffffffffffffffffffffffff\n    /* \"#utility.yul\":77:82   */\n  dup3\n    /* \"#utility.yul\":73:127   */\n  and\n    /* \"#utility.yul\":62:127   */\n  swap1\n  pop\n    /* \"#utility.yul\":7:133   */\n  swap2\n  swap1\n  pop\n  jump\t// out\n    /* \"#utility.yul\":139:235   */\ntag_17:\n    /* \"#utility.yul\":176:183   */\n  0x00\n    /* \"#utility.yul\":205:229   */\n  tag_22\n    /* \"#utility.yul\":223:228   */\n  dup3\n    /* \"#utility.yul\":205:229   */\n  tag_16\n  jump\t// in\ntag_22:\n    /* \"#utility.yul\":194:229   */\n  swap1\n  pop\n    /* \"#utility.yul\":139:235   */\n  swap2\n  swap1\n  pop\n  jump\t// out\n    /* \"#utility.yul\":241:359   */\ntag_18:\n    /* \"#utility.yul\":328:352   */\n  tag_24\n    /* \"#utility.yul\":346:351   */\n  dup2\n    /* \"#utility.yul\":328:352   */\n  tag_17\n  jump\t// in\ntag_24:\n    /* \"#utility.yul\":323:326   */\n  dup3\n    /* \"#utility.yul\":316:353   */\n  mstore\n    /* \"#utility.yul\":241:359   */\n  pop\n  pop\n  jump\t// out\n    /* \"#utility.yul\":365:587   */\ntag_7:\n    /* \"#utility.yul\":458:462   */\n  0x00\n    /* \"#utility.yul\":496:498   */\n  0x20\n    /* \"#utility.yul\":485:494   */\n  dup3\n    /* \"#utility.yul\":481:499   */\n  add\n    /* \"#utility.yul\":473:499   */\n  swap1\n  pop\n    /* \"#utility.yul\":509:580   */\n  tag_26\n    /* \"#utility.yul\":577:578   */\n  0x00\n    /* \"#utility.yul\":566:575   */\n  dup4\n    /* \"#utility.yul\":562:579   */\n  add\n    /* \"#utility.yul\":553:559   */\n  dup5\n    /* \"#utility.yul\":509:580   */\n  tag_18\n  jump\t// in\ntag_26:\n    /* \"#utility.yul\":365:587   */\n  swap3\n  swap2\n  pop\n  pop\n  jump\t// out\n    /* \"#utility.yul\":593:773   */\ntag_13:\n    /* \"#utility.yul\":641:718   */\n  0x4e487b7100000000000000000000000000000000000000000000000000000000\n    /* \"#utility.yul\":638:639   */\n  0x00\n    /* \"#utility.yul\":631:719   */\n  mstore\n    /* \"#utility.yul\":738:742   */\n  0x21\n    /* \"#utility.yul\":735:736   */\n  0x04\n    /* \"#utility.yul\":728:743   */\n  mstore\n    /* \"#utility.yul\":762:766   */\n  0x24\n    /* \"#utility.yul\":759:760   */\n  0x00\n    /* \"#utility.yul\":752:767   */\n  revert\n    /* \"contracts/Voting.sol\":451:7331  contract Voting is Ownable {... */\ntag_14:\n  dataSize(sub_0)\n  dup1\n  dataOffset(sub_0)\n  0x00\n  codecopy\n  0x00\n  return\nstop\n\nsub_0: assembly {\n        /* \"contracts/Voting.sol\":451:7331  contract Voting is Ownable {... */\n      mstore(0x40, 0x80)\n      callvalue\n      dup1\n      iszero\n      tag_1\n      jumpi\n      revert(0x00, 0x00)\n    tag_1:\n      pop\n      jumpi(tag_2, lt(calldatasize, 0x04))\n      shr(0xe0, calldataload(0x00))\n      dup1\n      0x75406284\n      gt\n      tag_14\n      jumpi\n      dup1\n      0x75406284\n      eq\n      tag_8\n      jumpi\n      dup1\n      0x86a66dc3\n      eq\n      tag_9\n      jumpi\n      dup1\n      0x8b5df08d\n      eq\n      tag_10\n      jumpi\n      dup1\n      0x8da5cb5b\n      eq\n      tag_11\n      jumpi\n      dup1\n      0xc7f758a8\n      eq\n      tag_12\n      jumpi\n      dup1\n      0xf2fde38b\n      eq\n      tag_13\n      jumpi\n      jump(tag_2)\n    tag_14:\n      dup1\n      0x0121b93f\n      eq\n      tag_3\n      jumpi\n      dup1\n      0x23edca11\n      eq\n      tag_4\n      jumpi\n      dup1\n      0x2f95355b\n      eq\n      tag_5\n      jumpi\n      dup1\n      0x38db6dd3\n      eq\n      tag_6\n      jumpi\n      dup1\n      0x715018a6\n      eq\n      tag_7\n      jumpi\n    tag_2:\n      revert(0x00, 0x00)\n        /* \"contracts/Voting.sol\":5805:6561  function vote(uint256 _proposalId) external allowedVoter {... */\n    tag_3:\n      tag_15\n      0x04\n      dup1\n      calldatasize\n      sub\n      dup2\n      add\n      swap1\n      tag_16\n      swap2\n      swap1\n      tag_17\n      jump\t// in\n    tag_16:\n      tag_18\n      jump\t// in\n    tag_15:\n      stop\n        /* \"contracts/Voting.sol\":7147:7329  function getPastVote(uint index) external view returns (VotingSummary memory) {... */\n    tag_4:\n      tag_19\n      0x04\n      dup1\n      calldatasize\n      sub\n      dup2\n      add\n      swap1\n      tag_20\n      swap2\n      swap1\n      tag_17\n      jump\t// in\n    tag_20:\n      tag_21\n      jump\t// in\n    tag_19:\n      mload(0x40)\n      tag_22\n      swap2\n      swap1\n      tag_23\n      jump\t// in\n    tag_22:\n      mload(0x40)\n      dup1\n      swap2\n      sub\n      swap1\n      return\n        /* \"contracts/Voting.sol\":5264:5696  function registerProposal(string memory _description) external allowedVoter {... */\n    tag_5:\n      tag_24\n      0x04\n      dup1\n      calldatasize\n      sub\n      dup2\n      add\n      swap1\n      tag_25\n      swap2\n      swap1\n      tag_26\n      jump\t// in\n    tag_25:\n      tag_27\n      jump\t// in\n    tag_24:\n      stop\n        /* \"contracts/Voting.sol\":2166:2638  function registerVoter(address _address) external onlyOwner {... */\n    tag_6:\n      tag_28\n      0x04\n      dup1\n      calldatasize\n      sub\n      dup2\n      add\n      swap1\n      tag_29\n      swap2\n      swap1\n      tag_30\n      jump\t// in\n    tag_29:\n      tag_31\n      jump\t// in\n    tag_28:\n      stop\n        /* \"@openzeppelin/contracts/access/Ownable.sol\":2293:2394  function renounceOwnership() public virtual onlyOwner {... */\n    tag_7:\n      tag_32\n      tag_33\n      jump\t// in\n    tag_32:\n      stop\n        /* \"contracts/Voting.sol\":2772:3273  function nextWorkflowStatus() external onlyOwner {... */\n    tag_8:\n      tag_34\n      tag_35\n      jump\t// in\n    tag_34:\n      stop\n        /* \"contracts/Voting.sol\":6755:7075  function getVoteResults() external view allowedVoter returns (uint[] memory winningProposals) {... */\n    tag_9:\n      tag_36\n      tag_37\n      jump\t// in\n    tag_36:\n      mload(0x40)\n      tag_38\n      swap2\n      swap1\n      tag_39\n      jump\t// in\n    tag_38:\n      mload(0x40)\n      dup1\n      swap2\n      sub\n      swap1\n      return\n        /* \"contracts/Voting.sol\":4213:5133  function resetVotingState() external onlyOwner {... */\n    tag_10:\n      tag_40\n      tag_41\n      jump\t// in\n    tag_40:\n      stop\n        /* \"@openzeppelin/contracts/access/Ownable.sol\":1638:1723  function owner() public view virtual returns (address) {... */\n    tag_11:\n      tag_42\n      tag_43\n      jump\t// in\n    tag_42:\n      mload(0x40)\n      tag_44\n      swap2\n      swap1\n      tag_45\n      jump\t// in\n    tag_44:\n      mload(0x40)\n      dup1\n      swap2\n      sub\n      swap1\n      return\n        /* \"contracts/Voting.sol\":6567:6642  function getProposal(uint256 _proposalId) public view allowedVoter {... */\n    tag_12:\n      tag_46\n      0x04\n      dup1\n      calldatasize\n      sub\n      dup2\n      add\n      swap1\n      tag_47\n      swap2\n      swap1\n      tag_17\n      jump\t// in\n    tag_47:\n      tag_48\n      jump\t// in\n    tag_46:\n      stop\n        /* \"@openzeppelin/contracts/access/Ownable.sol\":2543:2758  function transferOwnership(address newOwner) public virtual onlyOwner {... */\n    tag_13:\n      tag_49\n      0x04\n      dup1\n      calldatasize\n      sub\n      dup2\n      add\n      swap1\n      tag_50\n      swap2\n      swap1\n      tag_30\n      jump\t// in\n    tag_50:\n      tag_51\n      jump\t// in\n    tag_49:\n      stop\n        /* \"contracts/Voting.sol\":5805:6561  function vote(uint256 _proposalId) external allowedVoter {... */\n    tag_18:\n        /* \"contracts/Voting.sol\":1946:1957  currentVote */\n      0x01\n        /* \"contracts/Voting.sol\":1946:1964  currentVote.voters */\n      0x00\n      add\n        /* \"contracts/Voting.sol\":1946:1976  currentVote.voters[msg.sender] */\n      0x00\n        /* \"contracts/Voting.sol\":1965:1975  msg.sender */\n      caller\n        /* \"contracts/Voting.sol\":1946:1976  currentVote.voters[msg.sender] */\n      0xffffffffffffffffffffffffffffffffffffffff\n      and\n      0xffffffffffffffffffffffffffffffffffffffff\n      and\n      dup2\n      mstore\n      0x20\n      add\n      swap1\n      dup2\n      mstore\n      0x20\n      add\n      0x00\n      keccak256\n        /* \"contracts/Voting.sol\":1946:1989  currentVote.voters[msg.sender].isRegistered */\n      0x00\n      add\n      0x00\n      swap1\n      sload\n      swap1\n      0x0100\n      exp\n      swap1\n      div\n      0xff\n      and\n        /* \"contracts/Voting.sol\":1925:2038  require(... */\n      tag_53\n      jumpi\n      mload(0x40)\n      0xb3e2c01600000000000000000000000000000000000000000000000000000000\n      dup2\n      mstore\n      0x04\n      add\n      mload(0x40)\n      dup1\n      swap2\n      sub\n      swap1\n      revert\n    tag_53:\n        /* \"contracts/Voting.sol\":5915:5950  WorkflowStatus.VotingSessionStarted */\n      0x03\n        /* \"contracts/Voting.sol\":5893:5950  currentVote.status == WorkflowStatus.VotingSessionStarted */\n      0x05\n      dup2\n      gt\n      iszero\n      tag_55\n      jumpi\n      tag_56\n      tag_57\n      jump\t// in\n    tag_56:\n    tag_55:\n        /* \"contracts/Voting.sol\":5893:5904  currentVote */\n      0x01\n        /* \"contracts/Voting.sol\":5893:5911  currentVote.status */\n      0x03\n      add\n      0x00\n      swap1\n      sload\n      swap1\n      0x0100\n      exp\n      swap1\n      div\n      0xff\n      and\n        /* \"contracts/Voting.sol\":5893:5950  currentVote.status == WorkflowStatus.VotingSessionStarted */\n      0x05\n      dup2\n      gt\n      iszero\n      tag_58\n      jumpi\n      tag_59\n      tag_57\n      jump\t// in\n    tag_59:\n    tag_58:\n      eq\n        /* \"contracts/Voting.sol\":5986:5997  currentVote */\n      0x01\n        /* \"contracts/Voting.sol\":5986:6004  currentVote.status */\n      0x03\n      add\n      0x00\n      swap1\n      sload\n      swap1\n      0x0100\n      exp\n      swap1\n      div\n      0xff\n      and\n        /* \"contracts/Voting.sol\":6006:6041  WorkflowStatus.VotingSessionStarted */\n      0x03\n        /* \"contracts/Voting.sol\":5872:6052  require(... */\n      swap1\n      swap2\n      tag_60\n      jumpi\n      mload(0x40)\n      0x0e10df3f00000000000000000000000000000000000000000000000000000000\n      dup2\n      mstore\n      0x04\n      add\n      tag_61\n      swap3\n      swap2\n      swap1\n      tag_62\n      jump\t// in\n    tag_61:\n      mload(0x40)\n      dup1\n      swap2\n      sub\n      swap1\n      revert\n    tag_60:\n      pop\n      pop\n        /* \"contracts/Voting.sol\":6084:6095  currentVote */\n      0x01\n        /* \"contracts/Voting.sol\":6084:6102  currentVote.voters */\n      0x00\n      add\n        /* \"contracts/Voting.sol\":6084:6114  currentVote.voters[msg.sender] */\n      0x00\n        /* \"contracts/Voting.sol\":6103:6113  msg.sender */\n      caller\n        /* \"contracts/Voting.sol\":6084:6114  currentVote.voters[msg.sender] */\n      0xffffffffffffffffffffffffffffffffffffffff\n      and\n      0xffffffffffffffffffffffffffffffffffffffff\n      and\n      dup2\n      mstore\n      0x20\n      add\n      swap1\n      dup2\n      mstore\n      0x20\n      add\n      0x00\n      keccak256\n        /* \"contracts/Voting.sol\":6084:6123  currentVote.voters[msg.sender].hasVoted */\n      0x00\n      add\n      0x01\n      swap1\n      sload\n      swap1\n      0x0100\n      exp\n      swap1\n      div\n      0xff\n      and\n        /* \"contracts/Voting.sol\":6083:6123  !currentVote.voters[msg.sender].hasVoted */\n      iszero\n        /* \"contracts/Voting.sol\":6062:6164  require(... */\n      tag_63\n      jumpi\n      mload(0x40)\n      0xd40aec4400000000000000000000000000000000000000000000000000000000\n      dup2\n      mstore\n      0x04\n      add\n      mload(0x40)\n      dup1\n      swap2\n      sub\n      swap1\n      revert\n    tag_63:\n        /* \"contracts/Voting.sol\":6209:6220  currentVote */\n      0x01\n        /* \"contracts/Voting.sol\":6209:6230  currentVote.proposals */\n      0x02\n      add\n        /* \"contracts/Voting.sol\":6209:6237  currentVote.proposals.length */\n      dup1\n      sload\n      swap1\n      pop\n        /* \"contracts/Voting.sol\":6195:6206  _proposalId */\n      dup2\n        /* \"contracts/Voting.sol\":6195:6237  _proposalId < currentVote.proposals.length */\n      lt\n        /* \"contracts/Voting.sol\":6174:6281  require(... */\n      tag_64\n      jumpi\n      mload(0x40)\n      0xf299af6600000000000000000000000000000000000000000000000000000000\n      dup2\n      mstore\n      0x04\n      add\n      mload(0x40)\n      dup1\n      swap2\n      sub\n      swap1\n      revert\n    tag_64:\n        /* \"contracts/Voting.sol\":6340:6341  1 */\n      0x01\n        /* \"contracts/Voting.sol\":6292:6303  currentVote */\n      dup1\n        /* \"contracts/Voting.sol\":6292:6313  currentVote.proposals */\n      0x02\n      add\n        /* \"contracts/Voting.sol\":6314:6325  _proposalId */\n      dup3\n        /* \"contracts/Voting.sol\":6292:6326  currentVote.proposals[_proposalId] */\n      dup2\n      sload\n      dup2\n      lt\n      tag_65\n      jumpi\n      tag_66\n      tag_67\n      jump\t// in\n    tag_66:\n    tag_65:\n      swap1\n      0x00\n      mstore\n      keccak256(0x00, 0x20)\n      swap1\n      0x02\n      mul\n      add\n        /* \"contracts/Voting.sol\":6292:6336  currentVote.proposals[_proposalId].voteCount */\n      0x01\n      add\n      0x00\n        /* \"contracts/Voting.sol\":6292:6341  currentVote.proposals[_proposalId].voteCount += 1 */\n      dup3\n      dup3\n      sload\n      tag_69\n      swap2\n      swap1\n      tag_70\n      jump\t// in\n    tag_69:\n      swap3\n      pop\n      pop\n      dup2\n      swap1\n      sstore\n      pop\n        /* \"contracts/Voting.sol\":6400:6411  _proposalId */\n      dup1\n        /* \"contracts/Voting.sol\":6351:6362  currentVote */\n      0x01\n        /* \"contracts/Voting.sol\":6351:6369  currentVote.voters */\n      0x00\n      add\n        /* \"contracts/Voting.sol\":6351:6381  currentVote.voters[msg.sender] */\n      0x00\n        /* \"contracts/Voting.sol\":6370:6380  msg.sender */\n      caller\n        /* \"contracts/Voting.sol\":6351:6381  currentVote.voters[msg.sender] */\n      0xffffffffffffffffffffffffffffffffffffffff\n      and\n      0xffffffffffffffffffffffffffffffffffffffff\n      and\n      dup2\n      mstore\n      0x20\n      add\n      swap1\n      dup2\n      mstore\n      0x20\n      add\n      0x00\n      keccak256\n        /* \"contracts/Voting.sol\":6351:6397  currentVote.voters[msg.sender].votedProposalId */\n      0x01\n      add\n        /* \"contracts/Voting.sol\":6351:6411  currentVote.voters[msg.sender].votedProposalId = _proposalId */\n      dup2\n      swap1\n      sstore\n      pop\n        /* \"contracts/Voting.sol\":6463:6467  true */\n      0x01\n        /* \"contracts/Voting.sol\":6421:6432  currentVote */\n      dup1\n        /* \"contracts/Voting.sol\":6421:6439  currentVote.voters */\n      0x00\n      add\n        /* \"contracts/Voting.sol\":6421:6451  currentVote.voters[msg.sender] */\n      0x00\n        /* \"contracts/Voting.sol\":6440:6450  msg.sender */\n      caller\n        /* \"contracts/Voting.sol\":6421:6451  currentVote.voters[msg.sender] */\n      0xffffffffffffffffffffffffffffffffffffffff\n      and\n      0xffffffffffffffffffffffffffffffffffffffff\n      and\n      dup2\n      mstore\n      0x20\n      add\n      swap1\n      dup2\n      mstore\n      0x20\n      add\n      0x00\n      keccak256\n        /* \"contracts/Voting.sol\":6421:6460  currentVote.voters[msg.sender].hasVoted */\n      0x00\n      add\n      0x01\n        /* \"contracts/Voting.sol\":6421:6467  currentVote.voters[msg.sender].hasVoted = true */\n      0x0100\n      exp\n      dup2\n      sload\n      dup2\n      0xff\n      mul\n      not\n      and\n      swap1\n      dup4\n      iszero\n      iszero\n      mul\n      or\n      swap1\n      sstore\n      pop\n        /* \"contracts/Voting.sol\":6508:6509  1 */\n      0x01\n        /* \"contracts/Voting.sol\":6477:6488  currentVote */\n      dup1\n        /* \"contracts/Voting.sol\":6477:6504  currentVote.totalVotesCount */\n      0x01\n      add\n      0x00\n        /* \"contracts/Voting.sol\":6477:6509  currentVote.totalVotesCount += 1 */\n      dup3\n      dup3\n      sload\n      tag_71\n      swap2\n      swap1\n      tag_70\n      jump\t// in\n    tag_71:\n      swap3\n      pop\n      pop\n      dup2\n      swap1\n      sstore\n      pop\n        /* \"contracts/Voting.sol\":6524:6554  Voted(msg.sender, _proposalId) */\n      0x4d99b957a2bc29a30ebd96a7be8e68fe50a3c701db28a91436490b7d53870ca4\n        /* \"contracts/Voting.sol\":6530:6540  msg.sender */\n      caller\n        /* \"contracts/Voting.sol\":6542:6553  _proposalId */\n      dup3\n        /* \"contracts/Voting.sol\":6524:6554  Voted(msg.sender, _proposalId) */\n      mload(0x40)\n      tag_72\n      swap3\n      swap2\n      swap1\n      tag_73\n      jump\t// in\n    tag_72:\n      mload(0x40)\n      dup1\n      swap2\n      sub\n      swap1\n      log1\n        /* \"contracts/Voting.sol\":5805:6561  function vote(uint256 _proposalId) external allowedVoter {... */\n      pop\n      jump\t// out\n        /* \"contracts/Voting.sol\":7147:7329  function getPastVote(uint index) external view returns (VotingSummary memory) {... */\n    tag_21:\n        /* \"contracts/Voting.sol\":7203:7223  VotingSummary memory */\n      tag_74\n      tag_75\n      jump\t// in\n    tag_74:\n        /* \"contracts/Voting.sol\":7251:7260  pastVotes */\n      0x06\n        /* \"contracts/Voting.sol\":7251:7267  pastVotes.length */\n      dup1\n      sload\n      swap1\n      pop\n        /* \"contracts/Voting.sol\":7243:7248  index */\n      dup3\n        /* \"contracts/Voting.sol\":7243:7267  index < pastVotes.length */\n      lt\n        /* \"contracts/Voting.sol\":7235:7289  require(index < pastVotes.length, InvalidPastVoteID()) */\n      tag_77\n      jumpi\n      mload(0x40)\n      0x1397166e00000000000000000000000000000000000000000000000000000000\n      dup2\n      mstore\n      0x04\n      add\n      mload(0x40)\n      dup1\n      swap2\n      sub\n      swap1\n      revert\n    tag_77:\n        /* \"contracts/Voting.sol\":7306:7315  pastVotes */\n      0x06\n        /* \"contracts/Voting.sol\":7316:7321  index */\n      dup3\n        /* \"contracts/Voting.sol\":7306:7322  pastVotes[index] */\n      dup2\n      sload\n      dup2\n      lt\n      tag_78\n      jumpi\n      tag_79\n      tag_67\n      jump\t// in\n    tag_79:\n    tag_78:\n      swap1\n      0x00\n      mstore\n      keccak256(0x00, 0x20)\n      swap1\n      0x03\n      mul\n      add\n        /* \"contracts/Voting.sol\":7299:7322  return pastVotes[index] */\n      mload(0x40)\n      dup1\n      0x60\n      add\n      0x40\n      mstore\n      swap1\n      dup2\n      0x00\n      dup3\n      add\n      sload\n      dup2\n      mstore\n      0x20\n      add\n      0x01\n      dup3\n      add\n      dup1\n      sload\n      dup1\n      0x20\n      mul\n      0x20\n      add\n      mload(0x40)\n      swap1\n      dup2\n      add\n      0x40\n      mstore\n      dup1\n      swap3\n      swap2\n      swap1\n      dup2\n      dup2\n      mstore\n      0x20\n      add\n      0x00\n      swap1\n    tag_81:\n      dup3\n      dup3\n      lt\n      iszero\n      tag_82\n      jumpi\n      dup4\n      dup3\n      swap1\n      0x00\n      mstore\n      keccak256(0x00, 0x20)\n      swap1\n      0x02\n      mul\n      add\n      mload(0x40)\n      dup1\n      0x40\n      add\n      0x40\n      mstore\n      swap1\n      dup2\n      0x00\n      dup3\n      add\n      dup1\n      sload\n      tag_84\n      swap1\n      tag_85\n      jump\t// in\n    tag_84:\n      dup1\n      0x1f\n      add\n      0x20\n      dup1\n      swap2\n      div\n      mul\n      0x20\n      add\n      mload(0x40)\n      swap1\n      dup2\n      add\n      0x40\n      mstore\n      dup1\n      swap3\n      swap2\n      swap1\n      dup2\n      dup2\n      mstore\n      0x20\n      add\n      dup3\n      dup1\n      sload\n      tag_86\n      swap1\n      tag_85\n      jump\t// in\n    tag_86:\n      dup1\n      iszero\n      tag_87\n      jumpi\n      dup1\n      0x1f\n      lt\n      tag_88\n      jumpi\n      0x0100\n      dup1\n      dup4\n      sload\n      div\n      mul\n      dup4\n      mstore\n      swap2\n      0x20\n      add\n      swap2\n      jump(tag_87)\n    tag_88:\n      dup3\n      add\n      swap2\n      swap1\n      0x00\n      mstore\n      keccak256(0x00, 0x20)\n      swap1\n    tag_89:\n      dup2\n      sload\n      dup2\n      mstore\n      swap1\n      0x01\n      add\n      swap1\n      0x20\n      add\n      dup1\n      dup4\n      gt\n      tag_89\n      jumpi\n      dup3\n      swap1\n      sub\n      0x1f\n      and\n      dup3\n      add\n      swap2\n    tag_87:\n      pop\n      pop\n      pop\n      pop\n      pop\n      dup2\n      mstore\n      0x20\n      add\n      0x01\n      dup3\n      add\n      sload\n      dup2\n      mstore\n      pop\n      pop\n      dup2\n      mstore\n      0x20\n      add\n      swap1\n      0x01\n      add\n      swap1\n      jump(tag_81)\n    tag_82:\n      pop\n      pop\n      pop\n      pop\n      dup2\n      mstore\n      0x20\n      add\n      0x02\n      dup3\n      add\n      dup1\n      sload\n      dup1\n      0x20\n      mul\n      0x20\n      add\n      mload(0x40)\n      swap1\n      dup2\n      add\n      0x40\n      mstore\n      dup1\n      swap3\n      swap2\n      swap1\n      dup2\n      dup2\n      mstore\n      0x20\n      add\n      dup3\n      dup1\n      sload\n      dup1\n      iszero\n      tag_90\n      jumpi\n      0x20\n      mul\n      dup3\n      add\n      swap2\n      swap1\n      0x00\n      mstore\n      keccak256(0x00, 0x20)\n      swap1\n    tag_91:\n      dup2\n      sload\n      dup2\n      mstore\n      0x20\n      add\n      swap1\n      0x01\n      add\n      swap1\n      dup1\n      dup4\n      gt\n      tag_91\n      jumpi\n    tag_90:\n      pop\n      pop\n      pop\n      pop\n      pop\n      dup2\n      mstore\n      pop\n      pop\n      swap1\n      pop\n        /* \"contracts/Voting.sol\":7147:7329  function getPastVote(uint index) external view returns (VotingSummary memory) {... */\n      swap2\n      swap1\n      pop\n      jump\t// out\n        /* \"contracts/Voting.sol\":5264:5696  function registerProposal(string memory _description) external allowedVoter {... */\n    tag_27:\n        /* \"contracts/Voting.sol\":1946:1957  currentVote */\n      0x01\n        /* \"contracts/Voting.sol\":1946:1964  currentVote.voters */\n      0x00\n      add\n        /* \"contracts/Voting.sol\":1946:1976  currentVote.voters[msg.sender] */\n      0x00\n        /* \"contracts/Voting.sol\":1965:1975  msg.sender */\n      caller\n        /* \"contracts/Voting.sol\":1946:1976  currentVote.voters[msg.sender] */\n      0xffffffffffffffffffffffffffffffffffffffff\n      and\n      0xffffffffffffffffffffffffffffffffffffffff\n      and\n      dup2\n      mstore\n      0x20\n      add\n      swap1\n      dup2\n      mstore\n      0x20\n      add\n      0x00\n      keccak256\n        /* \"contracts/Voting.sol\":1946:1989  currentVote.voters[msg.sender].isRegistered */\n      0x00\n      add\n      0x00\n      swap1\n      sload\n      swap1\n      0x0100\n      exp\n      swap1\n      div\n      0xff\n      and\n        /* \"contracts/Voting.sol\":1925:2038  require(... */\n      tag_93\n      jumpi\n      mload(0x40)\n      0xb3e2c01600000000000000000000000000000000000000000000000000000000\n      dup2\n      mstore\n      0x04\n      add\n      mload(0x40)\n      dup1\n      swap2\n      sub\n      swap1\n      revert\n    tag_93:\n        /* \"contracts/Voting.sol\":5393:5436  WorkflowStatus.ProposalsRegistrationStarted */\n      0x01\n        /* \"contracts/Voting.sol\":5371:5436  currentVote.status == WorkflowStatus.ProposalsRegistrationStarted */\n      0x05\n      dup2\n      gt\n      iszero\n      tag_95\n      jumpi\n      tag_96\n      tag_57\n      jump\t// in\n    tag_96:\n    tag_95:\n        /* \"contracts/Voting.sol\":5371:5382  currentVote */\n      0x01\n        /* \"contracts/Voting.sol\":5371:5389  currentVote.status */\n      0x03\n      add\n      0x00\n      swap1\n      sload\n      swap1\n      0x0100\n      exp\n      swap1\n      div\n      0xff\n      and\n        /* \"contracts/Voting.sol\":5371:5436  currentVote.status == WorkflowStatus.ProposalsRegistrationStarted */\n      0x05\n      dup2\n      gt\n      iszero\n      tag_97\n      jumpi\n      tag_98\n      tag_57\n      jump\t// in\n    tag_98:\n    tag_97:\n      eq\n        /* \"contracts/Voting.sol\":5472:5483  currentVote */\n      0x01\n        /* \"contracts/Voting.sol\":5472:5490  currentVote.status */\n      0x03\n      add\n      0x00\n      swap1\n      sload\n      swap1\n      0x0100\n      exp\n      swap1\n      div\n      0xff\n      and\n        /* \"contracts/Voting.sol\":5492:5535  WorkflowStatus.ProposalsRegistrationStarted */\n      0x01\n        /* \"contracts/Voting.sol\":5350:5546  require(... */\n      swap1\n      swap2\n      tag_99\n      jumpi\n      mload(0x40)\n      0x0e10df3f00000000000000000000000000000000000000000000000000000000\n      dup2\n      mstore\n      0x04\n      add\n      tag_100\n      swap3\n      swap2\n      swap1\n      tag_62\n      jump\t// in\n    tag_100:\n      mload(0x40)\n      dup1\n      swap2\n      sub\n      swap1\n      revert\n    tag_99:\n      pop\n      pop\n        /* \"contracts/Voting.sol\":5569:5580  currentVote */\n      0x01\n        /* \"contracts/Voting.sol\":5569:5590  currentVote.proposals */\n      0x02\n      add\n        /* \"contracts/Voting.sol\":5596:5621  Proposal(_description, 0) */\n      mload(0x40)\n      dup1\n      0x40\n      add\n      0x40\n      mstore\n      dup1\n        /* \"contracts/Voting.sol\":5605:5617  _description */\n      dup4\n        /* \"contracts/Voting.sol\":5596:5621  Proposal(_description, 0) */\n      dup2\n      mstore\n      0x20\n      add\n        /* \"contracts/Voting.sol\":5619:5620  0 */\n      0x00\n        /* \"contracts/Voting.sol\":5596:5621  Proposal(_description, 0) */\n      dup2\n      mstore\n      pop\n        /* \"contracts/Voting.sol\":5569:5622  currentVote.proposals.push(Proposal(_description, 0)) */\n      swap1\n      dup1\n      0x01\n      dup2\n      sload\n      add\n      dup1\n      dup3\n      sstore\n      dup1\n      swap2\n      pop\n      pop\n      0x01\n      swap1\n      sub\n      swap1\n      0x00\n      mstore\n      keccak256(0x00, 0x20)\n      swap1\n      0x02\n      mul\n      add\n      0x00\n      swap1\n      swap2\n      swap1\n      swap2\n      swap1\n      swap2\n      pop\n      0x00\n      dup3\n      add\n      mload\n      dup2\n      0x00\n      add\n      swap1\n      dup2\n      tag_102\n      swap2\n      swap1\n      tag_103\n      jump\t// in\n    tag_102:\n      pop\n      0x20\n      dup3\n      add\n      mload\n      dup2\n      0x01\n      add\n      sstore\n      pop\n      pop\n        /* \"contracts/Voting.sol\":5637:5689  ProposalRegistered(currentVote.proposals.length - 1) */\n      0x92e393e9b54e2f801d3ea4beb0c5e71a21cc34a5d34b77d0fb8a3aa1650dc18f\n        /* \"contracts/Voting.sol\":5687:5688  1 */\n      0x01\n        /* \"contracts/Voting.sol\":5656:5667  currentVote */\n      dup1\n        /* \"contracts/Voting.sol\":5656:5677  currentVote.proposals */\n      0x02\n      add\n        /* \"contracts/Voting.sol\":5656:5684  currentVote.proposals.length */\n      dup1\n      sload\n      swap1\n      pop\n        /* \"contracts/Voting.sol\":5656:5688  currentVote.proposals.length - 1 */\n      tag_104\n      swap2\n      swap1\n      tag_105\n      jump\t// in\n    tag_104:\n        /* \"contracts/Voting.sol\":5637:5689  ProposalRegistered(currentVote.proposals.length - 1) */\n      mload(0x40)\n      tag_106\n      swap2\n      swap1\n      tag_107\n      jump\t// in\n    tag_106:\n      mload(0x40)\n      dup1\n      swap2\n      sub\n      swap1\n      log1\n        /* \"contracts/Voting.sol\":5264:5696  function registerProposal(string memory _description) external allowedVoter {... */\n      pop\n      jump\t// out\n        /* \"contracts/Voting.sol\":2166:2638  function registerVoter(address _address) external onlyOwner {... */\n    tag_31:\n        /* \"@openzeppelin/contracts/access/Ownable.sol\":1531:1544  _checkOwner() */\n      tag_109\n        /* \"@openzeppelin/contracts/access/Ownable.sol\":1531:1542  _checkOwner */\n      tag_110\n        /* \"@openzeppelin/contracts/access/Ownable.sol\":1531:1544  _checkOwner() */\n      jump\t// in\n    tag_109:\n        /* \"contracts/Voting.sol\":2279:2311  WorkflowStatus.RegisteringVoters */\n      0x00\n        /* \"contracts/Voting.sol\":2257:2311  currentVote.status == WorkflowStatus.RegisteringVoters */\n      0x05\n      dup2\n      gt\n      iszero\n      tag_112\n      jumpi\n      tag_113\n      tag_57\n      jump\t// in\n    tag_113:\n    tag_112:\n        /* \"contracts/Voting.sol\":2257:2268  currentVote */\n      0x01\n        /* \"contracts/Voting.sol\":2257:2275  currentVote.status */\n      0x03\n      add\n      0x00\n      swap1\n      sload\n      swap1\n      0x0100\n      exp\n      swap1\n      div\n      0xff\n      and\n        /* \"contracts/Voting.sol\":2257:2311  currentVote.status == WorkflowStatus.RegisteringVoters */\n      0x05\n      dup2\n      gt\n      iszero\n      tag_114\n      jumpi\n      tag_115\n      tag_57\n      jump\t// in\n    tag_115:\n    tag_114:\n      eq\n        /* \"contracts/Voting.sol\":2348:2359  currentVote */\n      0x01\n        /* \"contracts/Voting.sol\":2348:2366  currentVote.status */\n      0x03\n      add\n      0x00\n      swap1\n      sload\n      swap1\n      0x0100\n      exp\n      swap1\n      div\n      0xff\n      and\n        /* \"contracts/Voting.sol\":2368:2400  WorkflowStatus.RegisteringVoters */\n      0x00\n        /* \"contracts/Voting.sol\":2236:2411  require(... */\n      swap1\n      swap2\n      tag_116\n      jumpi\n      mload(0x40)\n      0x0e10df3f00000000000000000000000000000000000000000000000000000000\n      dup2\n      mstore\n      0x04\n      add\n      tag_117\n      swap3\n      swap2\n      swap1\n      tag_62\n      jump\t// in\n    tag_117:\n      mload(0x40)\n      dup1\n      swap2\n      sub\n      swap1\n      revert\n    tag_116:\n      pop\n      pop\n        /* \"contracts/Voting.sol\":2443:2454  currentVote */\n      0x01\n        /* \"contracts/Voting.sol\":2443:2461  currentVote.voters */\n      0x00\n      add\n        /* \"contracts/Voting.sol\":2443:2471  currentVote.voters[_address] */\n      0x00\n        /* \"contracts/Voting.sol\":2462:2470  _address */\n      dup3\n        /* \"contracts/Voting.sol\":2443:2471  currentVote.voters[_address] */\n      0xffffffffffffffffffffffffffffffffffffffff\n      and\n      0xffffffffffffffffffffffffffffffffffffffff\n      and\n      dup2\n      mstore\n      0x20\n      add\n      swap1\n      dup2\n      mstore\n      0x20\n      add\n      0x00\n      keccak256\n        /* \"contracts/Voting.sol\":2443:2484  currentVote.voters[_address].isRegistered */\n      0x00\n      add\n      0x00\n      swap1\n      sload\n      swap1\n      0x0100\n      exp\n      swap1\n      div\n      0xff\n      and\n        /* \"contracts/Voting.sol\":2442:2484  !currentVote.voters[_address].isRegistered */\n      iszero\n        /* \"contracts/Voting.sol\":2421:2532  require(... */\n      tag_118\n      jumpi\n      mload(0x40)\n      0x59a1ec4700000000000000000000000000000000000000000000000000000000\n      dup2\n      mstore\n      0x04\n      add\n      mload(0x40)\n      dup1\n      swap2\n      sub\n      swap1\n      revert\n    tag_118:\n        /* \"contracts/Voting.sol\":2587:2591  true */\n      0x01\n        /* \"contracts/Voting.sol\":2543:2554  currentVote */\n      dup1\n        /* \"contracts/Voting.sol\":2543:2561  currentVote.voters */\n      0x00\n      add\n        /* \"contracts/Voting.sol\":2543:2571  currentVote.voters[_address] */\n      0x00\n        /* \"contracts/Voting.sol\":2562:2570  _address */\n      dup4\n        /* \"contracts/Voting.sol\":2543:2571  currentVote.voters[_address] */\n      0xffffffffffffffffffffffffffffffffffffffff\n      and\n      0xffffffffffffffffffffffffffffffffffffffff\n      and\n      dup2\n      mstore\n      0x20\n      add\n      swap1\n      dup2\n      mstore\n      0x20\n      add\n      0x00\n      keccak256\n        /* \"contracts/Voting.sol\":2543:2584  currentVote.voters[_address].isRegistered */\n      0x00\n      add\n      0x00\n        /* \"contracts/Voting.sol\":2543:2591  currentVote.voters[_address].isRegistered = true */\n      0x0100\n      exp\n      dup2\n      sload\n      dup2\n      0xff\n      mul\n      not\n      and\n      swap1\n      dup4\n      iszero\n      iszero\n      mul\n      or\n      swap1\n      sstore\n      pop\n        /* \"contracts/Voting.sol\":2606:2631  VoterRegistered(_address) */\n      0xb6be2187d059cc2a55fe29e0e503b566e1e0f8c8780096e185429350acffd3dd\n        /* \"contracts/Voting.sol\":2622:2630  _address */\n      dup2\n        /* \"contracts/Voting.sol\":2606:2631  VoterRegistered(_address) */\n      mload(0x40)\n      tag_119\n      swap2\n      swap1\n      tag_45\n      jump\t// in\n    tag_119:\n      mload(0x40)\n      dup1\n      swap2\n      sub\n      swap1\n      log1\n        /* \"contracts/Voting.sol\":2166:2638  function registerVoter(address _address) external onlyOwner {... */\n      pop\n      jump\t// out\n        /* \"@openzeppelin/contracts/access/Ownable.sol\":2293:2394  function renounceOwnership() public virtual onlyOwner {... */\n    tag_33:\n        /* \"@openzeppelin/contracts/access/Ownable.sol\":1531:1544  _checkOwner() */\n      tag_121\n        /* \"@openzeppelin/contracts/access/Ownable.sol\":1531:1542  _checkOwner */\n      tag_110\n        /* \"@openzeppelin/contracts/access/Ownable.sol\":1531:1544  _checkOwner() */\n      jump\t// in\n    tag_121:\n        /* \"@openzeppelin/contracts/access/Ownable.sol\":2357:2387  _transferOwnership(address(0)) */\n      tag_123\n        /* \"@openzeppelin/contracts/access/Ownable.sol\":2384:2385  0 */\n      0x00\n        /* \"@openzeppelin/contracts/access/Ownable.sol\":2357:2375  _transferOwnership */\n      tag_124\n        /* \"@openzeppelin/contracts/access/Ownable.sol\":2357:2387  _transferOwnership(address(0)) */\n      jump\t// in\n    tag_123:\n        /* \"@openzeppelin/contracts/access/Ownable.sol\":2293:2394  function renounceOwnership() public virtual onlyOwner {... */\n      jump\t// out\n        /* \"contracts/Voting.sol\":2772:3273  function nextWorkflowStatus() external onlyOwner {... */\n    tag_35:\n        /* \"@openzeppelin/contracts/access/Ownable.sol\":1531:1544  _checkOwner() */\n      tag_126\n        /* \"@openzeppelin/contracts/access/Ownable.sol\":1531:1542  _checkOwner */\n      tag_110\n        /* \"@openzeppelin/contracts/access/Ownable.sol\":1531:1544  _checkOwner() */\n      jump\t// in\n    tag_126:\n        /* \"contracts/Voting.sol\":2885:2909  type(WorkflowStatus).max */\n      0x05\n        /* \"contracts/Voting.sol\":2880:2910  uint(type(WorkflowStatus).max) */\n      dup1\n      dup2\n      gt\n      iszero\n      tag_128\n      jumpi\n      tag_129\n      tag_57\n      jump\t// in\n    tag_129:\n    tag_128:\n        /* \"contracts/Voting.sol\":2857:2868  currentVote */\n      0x01\n        /* \"contracts/Voting.sol\":2857:2875  currentVote.status */\n      0x03\n      add\n      0x00\n      swap1\n      sload\n      swap1\n      0x0100\n      exp\n      swap1\n      div\n      0xff\n      and\n        /* \"contracts/Voting.sol\":2852:2876  uint(currentVote.status) */\n      0x05\n      dup2\n      gt\n      iszero\n      tag_130\n      jumpi\n      tag_131\n      tag_57\n      jump\t// in\n    tag_131:\n    tag_130:\n        /* \"contracts/Voting.sol\":2852:2911  uint(currentVote.status) < (uint(type(WorkflowStatus).max)) */\n      lt\n        /* \"contracts/Voting.sol\":2831:2958  require(... */\n      tag_132\n      jumpi\n      mload(0x40)\n      0x086fc57f00000000000000000000000000000000000000000000000000000000\n      dup2\n      mstore\n      0x04\n      add\n      mload(0x40)\n      dup1\n      swap2\n      sub\n      swap1\n      revert\n    tag_132:\n        /* \"contracts/Voting.sol\":2968:2997  WorkflowStatus previousStatus */\n      0x00\n        /* \"contracts/Voting.sol\":3000:3011  currentVote */\n      0x01\n        /* \"contracts/Voting.sol\":3000:3018  currentVote.status */\n      0x03\n      add\n      0x00\n      swap1\n      sload\n      swap1\n      0x0100\n      exp\n      swap1\n      div\n      0xff\n      and\n        /* \"contracts/Voting.sol\":2968:3018  WorkflowStatus previousStatus = currentVote.status */\n      swap1\n      pop\n        /* \"contracts/Voting.sol\":3091:3092  1 */\n      0x01\n        /* \"contracts/Voting.sol\":3069:3080  currentVote */\n      dup1\n        /* \"contracts/Voting.sol\":3069:3087  currentVote.status */\n      0x03\n      add\n      0x00\n      swap1\n      sload\n      swap1\n      0x0100\n      exp\n      swap1\n      div\n      0xff\n      and\n        /* \"contracts/Voting.sol\":3064:3088  uint(currentVote.status) */\n      0x05\n      dup2\n      gt\n      iszero\n      tag_133\n      jumpi\n      tag_134\n      tag_57\n      jump\t// in\n    tag_134:\n    tag_133:\n        /* \"contracts/Voting.sol\":3064:3092  uint(currentVote.status) + 1 */\n      tag_135\n      swap2\n      swap1\n      tag_70\n      jump\t// in\n    tag_135:\n        /* \"contracts/Voting.sol\":3049:3093  WorkflowStatus(uint(currentVote.status) + 1) */\n      0x05\n      dup2\n      gt\n      iszero\n      tag_136\n      jumpi\n      tag_137\n      tag_57\n      jump\t// in\n    tag_137:\n    tag_136:\n        /* \"contracts/Voting.sol\":3028:3039  currentVote */\n      0x01\n        /* \"contracts/Voting.sol\":3028:3046  currentVote.status */\n      0x03\n      add\n      0x00\n        /* \"contracts/Voting.sol\":3028:3093  currentVote.status = WorkflowStatus(uint(currentVote.status) + 1) */\n      0x0100\n      exp\n      dup2\n      sload\n      dup2\n      0xff\n      mul\n      not\n      and\n      swap1\n      dup4\n      0x05\n      dup2\n      gt\n      iszero\n      tag_138\n      jumpi\n      tag_139\n      tag_57\n      jump\t// in\n    tag_139:\n    tag_138:\n      mul\n      or\n      swap1\n      sstore\n      pop\n        /* \"contracts/Voting.sol\":3108:3164  WorkflowStatusChange(previousStatus, currentVote.status) */\n      0x0a97a4ee45751e2abf3e4fc8946939630b11b371ea8ae39ccdc3056e98f5cc3f\n        /* \"contracts/Voting.sol\":3129:3143  previousStatus */\n      dup2\n        /* \"contracts/Voting.sol\":3145:3156  currentVote */\n      0x01\n        /* \"contracts/Voting.sol\":3145:3163  currentVote.status */\n      0x03\n      add\n      0x00\n      swap1\n      sload\n      swap1\n      0x0100\n      exp\n      swap1\n      div\n      0xff\n      and\n        /* \"contracts/Voting.sol\":3108:3164  WorkflowStatusChange(previousStatus, currentVote.status) */\n      mload(0x40)\n      tag_140\n      swap3\n      swap2\n      swap1\n      tag_62\n      jump\t// in\n    tag_140:\n      mload(0x40)\n      dup1\n      swap2\n      sub\n      swap1\n      log1\n        /* \"contracts/Voting.sol\":3201:3228  WorkflowStatus.VotesTallied */\n      0x05\n        /* \"contracts/Voting.sol\":3179:3228  currentVote.status == WorkflowStatus.VotesTallied */\n      dup1\n      dup2\n      gt\n      iszero\n      tag_141\n      jumpi\n      tag_142\n      tag_57\n      jump\t// in\n    tag_142:\n    tag_141:\n        /* \"contracts/Voting.sol\":3179:3190  currentVote */\n      0x01\n        /* \"contracts/Voting.sol\":3179:3197  currentVote.status */\n      0x03\n      add\n      0x00\n      swap1\n      sload\n      swap1\n      0x0100\n      exp\n      swap1\n      div\n      0xff\n      and\n        /* \"contracts/Voting.sol\":3179:3228  currentVote.status == WorkflowStatus.VotesTallied */\n      0x05\n      dup2\n      gt\n      iszero\n      tag_143\n      jumpi\n      tag_144\n      tag_57\n      jump\t// in\n    tag_144:\n    tag_143:\n      sub\n        /* \"contracts/Voting.sol\":3175:3267  if (currentVote.status == WorkflowStatus.VotesTallied) {... */\n      tag_145\n      jumpi\n        /* \"contracts/Voting.sol\":3244:3256  tallyVotes() */\n      tag_146\n        /* \"contracts/Voting.sol\":3244:3254  tallyVotes */\n      tag_147\n        /* \"contracts/Voting.sol\":3244:3256  tallyVotes() */\n      jump\t// in\n    tag_146:\n        /* \"contracts/Voting.sol\":3175:3267  if (currentVote.status == WorkflowStatus.VotesTallied) {... */\n    tag_145:\n        /* \"contracts/Voting.sol\":2821:3273  {... */\n      pop\n        /* \"contracts/Voting.sol\":2772:3273  function nextWorkflowStatus() external onlyOwner {... */\n      jump\t// out\n        /* \"contracts/Voting.sol\":6755:7075  function getVoteResults() external view allowedVoter returns (uint[] memory winningProposals) {... */\n    tag_37:\n        /* \"contracts/Voting.sol\":6817:6847  uint[] memory winningProposals */\n      0x60\n        /* \"contracts/Voting.sol\":1946:1957  currentVote */\n      0x01\n        /* \"contracts/Voting.sol\":1946:1964  currentVote.voters */\n      0x00\n      add\n        /* \"contracts/Voting.sol\":1946:1976  currentVote.voters[msg.sender] */\n      0x00\n        /* \"contracts/Voting.sol\":1965:1975  msg.sender */\n      caller\n        /* \"contracts/Voting.sol\":1946:1976  currentVote.voters[msg.sender] */\n      0xffffffffffffffffffffffffffffffffffffffff\n      and\n      0xffffffffffffffffffffffffffffffffffffffff\n      and\n      dup2\n      mstore\n      0x20\n      add\n      swap1\n      dup2\n      mstore\n      0x20\n      add\n      0x00\n      keccak256\n        /* \"contracts/Voting.sol\":1946:1989  currentVote.voters[msg.sender].isRegistered */\n      0x00\n      add\n      0x00\n      swap1\n      sload\n      swap1\n      0x0100\n      exp\n      swap1\n      div\n      0xff\n      and\n        /* \"contracts/Voting.sol\":1925:2038  require(... */\n      tag_149\n      jumpi\n      mload(0x40)\n      0xb3e2c01600000000000000000000000000000000000000000000000000000000\n      dup2\n      mstore\n      0x04\n      add\n      mload(0x40)\n      dup1\n      swap2\n      sub\n      swap1\n      revert\n    tag_149:\n        /* \"contracts/Voting.sol\":6902:6929  WorkflowStatus.VotesTallied */\n      0x05\n        /* \"contracts/Voting.sol\":6880:6929  currentVote.status == WorkflowStatus.VotesTallied */\n      dup1\n      dup2\n      gt\n      iszero\n      tag_151\n      jumpi\n      tag_152\n      tag_57\n      jump\t// in\n    tag_152:\n    tag_151:\n        /* \"contracts/Voting.sol\":6880:6891  currentVote */\n      0x01\n        /* \"contracts/Voting.sol\":6880:6898  currentVote.status */\n      0x03\n      add\n      0x00\n      swap1\n      sload\n      swap1\n      0x0100\n      exp\n      swap1\n      div\n      0xff\n      and\n        /* \"contracts/Voting.sol\":6880:6929  currentVote.status == WorkflowStatus.VotesTallied */\n      0x05\n      dup2\n      gt\n      iszero\n      tag_153\n      jumpi\n      tag_154\n      tag_57\n      jump\t// in\n    tag_154:\n    tag_153:\n      eq\n        /* \"contracts/Voting.sol\":6965:6976  currentVote */\n      0x01\n        /* \"contracts/Voting.sol\":6965:6983  currentVote.status */\n      0x03\n      add\n      0x00\n      swap1\n      sload\n      swap1\n      0x0100\n      exp\n      swap1\n      div\n      0xff\n      and\n        /* \"contracts/Voting.sol\":6985:7012  WorkflowStatus.VotesTallied */\n      0x05\n        /* \"contracts/Voting.sol\":6859:7023  require(... */\n      swap1\n      swap2\n      tag_155\n      jumpi\n      mload(0x40)\n      0x0e10df3f00000000000000000000000000000000000000000000000000000000\n      dup2\n      mstore\n      0x04\n      add\n      tag_156\n      swap3\n      swap2\n      swap1\n      tag_62\n      jump\t// in\n    tag_156:\n      mload(0x40)\n      dup1\n      swap2\n      sub\n      swap1\n      revert\n    tag_155:\n      pop\n      pop\n        /* \"contracts/Voting.sol\":7040:7051  currentVote */\n      0x01\n        /* \"contracts/Voting.sol\":7040:7068  currentVote.winningProposals */\n      0x04\n      add\n        /* \"contracts/Voting.sol\":7033:7068  return currentVote.winningProposals */\n      dup1\n      sload\n      dup1\n      0x20\n      mul\n      0x20\n      add\n      mload(0x40)\n      swap1\n      dup2\n      add\n      0x40\n      mstore\n      dup1\n      swap3\n      swap2\n      swap1\n      dup2\n      dup2\n      mstore\n      0x20\n      add\n      dup3\n      dup1\n      sload\n      dup1\n      iszero\n      tag_157\n      jumpi\n      0x20\n      mul\n      dup3\n      add\n      swap2\n      swap1\n      0x00\n      mstore\n      keccak256(0x00, 0x20)\n      swap1\n    tag_158:\n      dup2\n      sload\n      dup2\n      mstore\n      0x20\n      add\n      swap1\n      0x01\n      add\n      swap1\n      dup1\n      dup4\n      gt\n      tag_158\n      jumpi\n    tag_157:\n      pop\n      pop\n      pop\n      pop\n      pop\n      swap1\n      pop\n        /* \"contracts/Voting.sol\":6755:7075  function getVoteResults() external view allowedVoter returns (uint[] memory winningProposals) {... */\n      swap1\n      jump\t// out\n        /* \"contracts/Voting.sol\":4213:5133  function resetVotingState() external onlyOwner {... */\n    tag_41:\n        /* \"@openzeppelin/contracts/access/Ownable.sol\":1531:1544  _checkOwner() */\n      tag_160\n        /* \"@openzeppelin/contracts/access/Ownable.sol\":1531:1542  _checkOwner */\n      tag_110\n        /* \"@openzeppelin/contracts/access/Ownable.sol\":1531:1544  _checkOwner() */\n      jump\t// in\n    tag_160:\n        /* \"contracts/Voting.sol\":4313:4340  WorkflowStatus.VotesTallied */\n      0x05\n        /* \"contracts/Voting.sol\":4291:4340  currentVote.status == WorkflowStatus.VotesTallied */\n      dup1\n      dup2\n      gt\n      iszero\n      tag_162\n      jumpi\n      tag_163\n      tag_57\n      jump\t// in\n    tag_163:\n    tag_162:\n        /* \"contracts/Voting.sol\":4291:4302  currentVote */\n      0x01\n        /* \"contracts/Voting.sol\":4291:4309  currentVote.status */\n      0x03\n      add\n      0x00\n      swap1\n      sload\n      swap1\n      0x0100\n      exp\n      swap1\n      div\n      0xff\n      and\n        /* \"contracts/Voting.sol\":4291:4340  currentVote.status == WorkflowStatus.VotesTallied */\n      0x05\n      dup2\n      gt\n      iszero\n      tag_164\n      jumpi\n      tag_165\n      tag_57\n      jump\t// in\n    tag_165:\n    tag_164:\n      eq\n        /* \"contracts/Voting.sol\":4376:4387  currentVote */\n      0x01\n        /* \"contracts/Voting.sol\":4376:4394  currentVote.status */\n      0x03\n      add\n      0x00\n      swap1\n      sload\n      swap1\n      0x0100\n      exp\n      swap1\n      div\n      0xff\n      and\n        /* \"contracts/Voting.sol\":4396:4423  WorkflowStatus.VotesTallied */\n      0x05\n        /* \"contracts/Voting.sol\":4270:4434  require(... */\n      swap1\n      swap2\n      tag_166\n      jumpi\n      mload(0x40)\n      0x0e10df3f00000000000000000000000000000000000000000000000000000000\n      dup2\n      mstore\n      0x04\n      add\n      tag_167\n      swap3\n      swap2\n      swap1\n      tag_62\n      jump\t// in\n    tag_167:\n      mload(0x40)\n      dup1\n      swap2\n      sub\n      swap1\n      revert\n    tag_166:\n      pop\n      pop\n        /* \"contracts/Voting.sol\":4445:4454  pastVotes */\n      0x06\n        /* \"contracts/Voting.sol\":4445:4461  pastVotes.push() */\n      0x01\n      dup2\n      0x01\n      dup2\n      sload\n      add\n      dup1\n      dup3\n      sstore\n      dup1\n      swap2\n      pop\n      pop\n      sub\n      swap1\n      0x00\n      mstore\n      keccak256(0x00, 0x20)\n      swap1\n      pop\n      pop\n        /* \"contracts/Voting.sol\":4500:4529  VotingSummary storage summary */\n      0x00\n        /* \"contracts/Voting.sol\":4532:4541  pastVotes */\n      0x06\n        /* \"contracts/Voting.sol\":4561:4562  1 */\n      0x01\n        /* \"contracts/Voting.sol\":4542:4551  pastVotes */\n      0x06\n        /* \"contracts/Voting.sol\":4542:4558  pastVotes.length */\n      dup1\n      sload\n      swap1\n      pop\n        /* \"contracts/Voting.sol\":4542:4562  pastVotes.length - 1 */\n      tag_169\n      swap2\n      swap1\n      tag_105\n      jump\t// in\n    tag_169:\n        /* \"contracts/Voting.sol\":4532:4563  pastVotes[pastVotes.length - 1] */\n      dup2\n      sload\n      dup2\n      lt\n      tag_170\n      jumpi\n      tag_171\n      tag_67\n      jump\t// in\n    tag_171:\n    tag_170:\n      swap1\n      0x00\n      mstore\n      keccak256(0x00, 0x20)\n      swap1\n      0x03\n      mul\n      add\n        /* \"contracts/Voting.sol\":4500:4563  VotingSummary storage summary = pastVotes[pastVotes.length - 1] */\n      swap1\n      pop\n        /* \"contracts/Voting.sol\":4600:4611  currentVote */\n      0x01\n        /* \"contracts/Voting.sol\":4600:4627  currentVote.totalVotesCount */\n      dup1\n      add\n      sload\n        /* \"contracts/Voting.sol\":4574:4581  summary */\n      dup2\n        /* \"contracts/Voting.sol\":4574:4597  summary.totalVotesCount */\n      0x00\n      add\n        /* \"contracts/Voting.sol\":4574:4627  summary.totalVotesCount = currentVote.totalVotesCount */\n      dup2\n      swap1\n      sstore\n      pop\n        /* \"contracts/Voting.sol\":4643:4649  uint i */\n      0x00\n        /* \"contracts/Voting.sol\":4652:4653  0 */\n      0x00\n        /* \"contracts/Voting.sol\":4643:4653  uint i = 0 */\n      swap1\n      pop\n        /* \"contracts/Voting.sol\":4638:4767  for (uint i = 0; i < currentVote.proposals.length; i++) {... */\n    tag_173:\n        /* \"contracts/Voting.sol\":4659:4670  currentVote */\n      0x01\n        /* \"contracts/Voting.sol\":4659:4680  currentVote.proposals */\n      0x02\n      add\n        /* \"contracts/Voting.sol\":4659:4687  currentVote.proposals.length */\n      dup1\n      sload\n      swap1\n      pop\n        /* \"contracts/Voting.sol\":4655:4656  i */\n      dup2\n        /* \"contracts/Voting.sol\":4655:4687  i < currentVote.proposals.length */\n      lt\n        /* \"contracts/Voting.sol\":4638:4767  for (uint i = 0; i < currentVote.proposals.length; i++) {... */\n      iszero\n      tag_174\n      jumpi\n        /* \"contracts/Voting.sol\":4708:4715  summary */\n      dup2\n        /* \"contracts/Voting.sol\":4708:4725  summary.proposals */\n      0x01\n      add\n        /* \"contracts/Voting.sol\":4731:4742  currentVote */\n      0x01\n        /* \"contracts/Voting.sol\":4731:4752  currentVote.proposals */\n      0x02\n      add\n        /* \"contracts/Voting.sol\":4753:4754  i */\n      dup3\n        /* \"contracts/Voting.sol\":4731:4755  currentVote.proposals[i] */\n      dup2\n      sload\n      dup2\n      lt\n      tag_176\n      jumpi\n      tag_177\n      tag_67\n      jump\t// in\n    tag_177:\n    tag_176:\n      swap1\n      0x00\n      mstore\n      keccak256(0x00, 0x20)\n      swap1\n      0x02\n      mul\n      add\n        /* \"contracts/Voting.sol\":4708:4756  summary.proposals.push(currentVote.proposals[i]) */\n      swap1\n      dup1\n      0x01\n      dup2\n      sload\n      add\n      dup1\n      dup3\n      sstore\n      dup1\n      swap2\n      pop\n      pop\n      0x01\n      swap1\n      sub\n      swap1\n      0x00\n      mstore\n      keccak256(0x00, 0x20)\n      swap1\n      0x02\n      mul\n      add\n      0x00\n      swap1\n      swap2\n      swap1\n      swap2\n      swap1\n      swap2\n      pop\n      0x00\n      dup3\n      add\n      dup2\n      0x00\n      add\n      swap1\n      dup2\n      tag_180\n      swap2\n      swap1\n      tag_181\n      jump\t// in\n    tag_180:\n      pop\n      0x01\n      dup3\n      add\n      sload\n      dup2\n      0x01\n      add\n      sstore\n      pop\n      pop\n        /* \"contracts/Voting.sol\":4689:4692  i++ */\n      dup1\n      dup1\n      0x01\n      add\n      swap2\n      pop\n      pop\n        /* \"contracts/Voting.sol\":4638:4767  for (uint i = 0; i < currentVote.proposals.length; i++) {... */\n      jump(tag_173)\n    tag_174:\n      pop\n        /* \"contracts/Voting.sol\":4783:4789  uint i */\n      0x00\n        /* \"contracts/Voting.sol\":4792:4793  0 */\n      0x00\n        /* \"contracts/Voting.sol\":4783:4793  uint i = 0 */\n      swap1\n      pop\n        /* \"contracts/Voting.sol\":4778:4928  for (uint i = 0; i < currentVote.winningProposals.length; i++) {... */\n    tag_182:\n        /* \"contracts/Voting.sol\":4799:4810  currentVote */\n      0x01\n        /* \"contracts/Voting.sol\":4799:4827  currentVote.winningProposals */\n      0x04\n      add\n        /* \"contracts/Voting.sol\":4799:4834  currentVote.winningProposals.length */\n      dup1\n      sload\n      swap1\n      pop\n        /* \"contracts/Voting.sol\":4795:4796  i */\n      dup2\n        /* \"contracts/Voting.sol\":4795:4834  i < currentVote.winningProposals.length */\n      lt\n        /* \"contracts/Voting.sol\":4778:4928  for (uint i = 0; i < currentVote.winningProposals.length; i++) {... */\n      iszero\n      tag_183\n      jumpi\n        /* \"contracts/Voting.sol\":4855:4862  summary */\n      dup2\n        /* \"contracts/Voting.sol\":4855:4879  summary.winningProposals */\n      0x02\n      add\n        /* \"contracts/Voting.sol\":4885:4896  currentVote */\n      0x01\n        /* \"contracts/Voting.sol\":4885:4913  currentVote.winningProposals */\n      0x04\n      add\n        /* \"contracts/Voting.sol\":4914:4915  i */\n      dup3\n        /* \"contracts/Voting.sol\":4885:4916  currentVote.winningProposals[i] */\n      dup2\n      sload\n      dup2\n      lt\n      tag_185\n      jumpi\n      tag_186\n      tag_67\n      jump\t// in\n    tag_186:\n    tag_185:\n      swap1\n      0x00\n      mstore\n      keccak256(0x00, 0x20)\n      add\n      sload\n        /* \"contracts/Voting.sol\":4855:4917  summary.winningProposals.push(currentVote.winningProposals[i]) */\n      swap1\n      dup1\n      0x01\n      dup2\n      sload\n      add\n      dup1\n      dup3\n      sstore\n      dup1\n      swap2\n      pop\n      pop\n      0x01\n      swap1\n      sub\n      swap1\n      0x00\n      mstore\n      keccak256(0x00, 0x20)\n      add\n      0x00\n      swap1\n      swap2\n      swap1\n      swap2\n      swap1\n      swap2\n      pop\n      sstore\n        /* \"contracts/Voting.sol\":4836:4839  i++ */\n      dup1\n      dup1\n      0x01\n      add\n      swap2\n      pop\n      pop\n        /* \"contracts/Voting.sol\":4778:4928  for (uint i = 0; i < currentVote.winningProposals.length; i++) {... */\n      jump(tag_182)\n    tag_183:\n      pop\n        /* \"contracts/Voting.sol\":4945:4956  currentVote */\n      0x01\n      0x00\n        /* \"contracts/Voting.sol\":4938:4956  delete currentVote */\n      0x01\n      dup3\n      add\n      0x00\n      swap1\n      sstore\n      0x02\n      dup3\n      add\n      0x00\n      tag_189\n      swap2\n      swap1\n      tag_190\n      jump\t// in\n    tag_189:\n      0x03\n      dup3\n      add\n      exp(0x0100, 0x00)\n      dup2\n      sload\n      swap1\n      0xff\n      mul\n      not\n      and\n      swap1\n      sstore\n      0x04\n      dup3\n      add\n      0x00\n      tag_191\n      swap2\n      swap1\n      tag_192\n      jump\t// in\n    tag_191:\n      pop\n      pop\n        /* \"contracts/Voting.sol\":4987:5019  WorkflowStatus.RegisteringVoters */\n      0x00\n        /* \"contracts/Voting.sol\":4966:4977  currentVote */\n      0x01\n        /* \"contracts/Voting.sol\":4966:4984  currentVote.status */\n      0x03\n      add\n      0x00\n        /* \"contracts/Voting.sol\":4966:5019  currentVote.status = WorkflowStatus.RegisteringVoters */\n      0x0100\n      exp\n      dup2\n      sload\n      dup2\n      0xff\n      mul\n      not\n      and\n      swap1\n      dup4\n      0x05\n      dup2\n      gt\n      iszero\n      tag_193\n      jumpi\n      tag_194\n      tag_57\n      jump\t// in\n    tag_194:\n    tag_193:\n      mul\n      or\n      swap1\n      sstore\n      pop\n        /* \"contracts/Voting.sol\":5066:5067  1 */\n      0x01\n        /* \"contracts/Voting.sol\":5047:5056  pastVotes */\n      0x06\n        /* \"contracts/Voting.sol\":5047:5063  pastVotes.length */\n      dup1\n      sload\n      swap1\n      pop\n        /* \"contracts/Voting.sol\":5047:5067  pastVotes.length - 1 */\n      tag_195\n      swap2\n      swap1\n      tag_105\n      jump\t// in\n    tag_195:\n        /* \"contracts/Voting.sol\":5035:5126  VotingReset(pastVotes.length - 1, summary.totalVotesCount, summary.winningProposals.length) */\n      0x87f1efd3ecc2164eb03e4374ac4bfebd5ee2d9f4785fc2f4c9c193fc132bb03f\n        /* \"contracts/Voting.sol\":5069:5076  summary */\n      dup3\n        /* \"contracts/Voting.sol\":5069:5092  summary.totalVotesCount */\n      0x00\n      add\n      sload\n        /* \"contracts/Voting.sol\":5094:5101  summary */\n      dup4\n        /* \"contracts/Voting.sol\":5094:5118  summary.winningProposals */\n      0x02\n      add\n        /* \"contracts/Voting.sol\":5094:5125  summary.winningProposals.length */\n      dup1\n      sload\n      swap1\n      pop\n        /* \"contracts/Voting.sol\":5035:5126  VotingReset(pastVotes.length - 1, summary.totalVotesCount, summary.winningProposals.length) */\n      mload(0x40)\n      tag_196\n      swap3\n      swap2\n      swap1\n      tag_197\n      jump\t// in\n    tag_196:\n      mload(0x40)\n      dup1\n      swap2\n      sub\n      swap1\n      log2\n        /* \"contracts/Voting.sol\":4260:5133  {... */\n      pop\n        /* \"contracts/Voting.sol\":4213:5133  function resetVotingState() external onlyOwner {... */\n      jump\t// out\n        /* \"@openzeppelin/contracts/access/Ownable.sol\":1638:1723  function owner() public view virtual returns (address) {... */\n    tag_43:\n        /* \"@openzeppelin/contracts/access/Ownable.sol\":1684:1691  address */\n      0x00\n        /* \"@openzeppelin/contracts/access/Ownable.sol\":1710:1716  _owner */\n      0x00\n      0x00\n      swap1\n      sload\n      swap1\n      0x0100\n      exp\n      swap1\n      div\n      0xffffffffffffffffffffffffffffffffffffffff\n      and\n        /* \"@openzeppelin/contracts/access/Ownable.sol\":1703:1716  return _owner */\n      swap1\n      pop\n        /* \"@openzeppelin/contracts/access/Ownable.sol\":1638:1723  function owner() public view virtual returns (address) {... */\n      swap1\n      jump\t// out\n        /* \"contracts/Voting.sol\":6567:6642  function getProposal(uint256 _proposalId) public view allowedVoter {... */\n    tag_48:\n        /* \"contracts/Voting.sol\":1946:1957  currentVote */\n      0x01\n        /* \"contracts/Voting.sol\":1946:1964  currentVote.voters */\n      0x00\n      add\n        /* \"contracts/Voting.sol\":1946:1976  currentVote.voters[msg.sender] */\n      0x00\n        /* \"contracts/Voting.sol\":1965:1975  msg.sender */\n      caller\n        /* \"contracts/Voting.sol\":1946:1976  currentVote.voters[msg.sender] */\n      0xffffffffffffffffffffffffffffffffffffffff\n      and\n      0xffffffffffffffffffffffffffffffffffffffff\n      and\n      dup2\n      mstore\n      0x20\n      add\n      swap1\n      dup2\n      mstore\n      0x20\n      add\n      0x00\n      keccak256\n        /* \"contracts/Voting.sol\":1946:1989  currentVote.voters[msg.sender].isRegistered */\n      0x00\n      add\n      0x00\n      swap1\n      sload\n      swap1\n      0x0100\n      exp\n      swap1\n      div\n      0xff\n      and\n        /* \"contracts/Voting.sol\":1925:2038  require(... */\n      tag_200\n      jumpi\n      mload(0x40)\n      0xb3e2c01600000000000000000000000000000000000000000000000000000000\n      dup2\n      mstore\n      0x04\n      add\n      mload(0x40)\n      dup1\n      swap2\n      sub\n      swap1\n      revert\n    tag_200:\n        /* \"contracts/Voting.sol\":6567:6642  function getProposal(uint256 _proposalId) public view allowedVoter {... */\n      pop\n      jump\t// out\n        /* \"@openzeppelin/contracts/access/Ownable.sol\":2543:2758  function transferOwnership(address newOwner) public virtual onlyOwner {... */\n    tag_51:\n        /* \"@openzeppelin/contracts/access/Ownable.sol\":1531:1544  _checkOwner() */\n      tag_203\n        /* \"@openzeppelin/contracts/access/Ownable.sol\":1531:1542  _checkOwner */\n      tag_110\n        /* \"@openzeppelin/contracts/access/Ownable.sol\":1531:1544  _checkOwner() */\n      jump\t// in\n    tag_203:\n        /* \"@openzeppelin/contracts/access/Ownable.sol\":2647:2648  0 */\n      0x00\n        /* \"@openzeppelin/contracts/access/Ownable.sol\":2627:2649  newOwner == address(0) */\n      0xffffffffffffffffffffffffffffffffffffffff\n      and\n        /* \"@openzeppelin/contracts/access/Ownable.sol\":2627:2635  newOwner */\n      dup2\n        /* \"@openzeppelin/contracts/access/Ownable.sol\":2627:2649  newOwner == address(0) */\n      0xffffffffffffffffffffffffffffffffffffffff\n      and\n      sub\n        /* \"@openzeppelin/contracts/access/Ownable.sol\":2623:2714  if (newOwner == address(0)) {... */\n      tag_205\n      jumpi\n        /* \"@openzeppelin/contracts/access/Ownable.sol\":2700:2701  0 */\n      0x00\n        /* \"@openzeppelin/contracts/access/Ownable.sol\":2672:2703  OwnableInvalidOwner(address(0)) */\n      mload(0x40)\n      0x1e4fbdf700000000000000000000000000000000000000000000000000000000\n      dup2\n      mstore\n      0x04\n      add\n      tag_206\n      swap2\n      swap1\n      tag_45\n      jump\t// in\n    tag_206:\n      mload(0x40)\n      dup1\n      swap2\n      sub\n      swap1\n      revert\n        /* \"@openzeppelin/contracts/access/Ownable.sol\":2623:2714  if (newOwner == address(0)) {... */\n    tag_205:\n        /* \"@openzeppelin/contracts/access/Ownable.sol\":2723:2751  _transferOwnership(newOwner) */\n      tag_207\n        /* \"@openzeppelin/contracts/access/Ownable.sol\":2742:2750  newOwner */\n      dup2\n        /* \"@openzeppelin/contracts/access/Ownable.sol\":2723:2741  _transferOwnership */\n      tag_124\n        /* \"@openzeppelin/contracts/access/Ownable.sol\":2723:2751  _transferOwnership(newOwner) */\n      jump\t// in\n    tag_207:\n        /* \"@openzeppelin/contracts/access/Ownable.sol\":2543:2758  function transferOwnership(address newOwner) public virtual onlyOwner {... */\n      pop\n      jump\t// out\n        /* \"@openzeppelin/contracts/access/Ownable.sol\":1796:1958  function _checkOwner() internal view virtual {... */\n    tag_110:\n        /* \"@openzeppelin/contracts/access/Ownable.sol\":1866:1878  _msgSender() */\n      tag_209\n        /* \"@openzeppelin/contracts/access/Ownable.sol\":1866:1876  _msgSender */\n      tag_210\n        /* \"@openzeppelin/contracts/access/Ownable.sol\":1866:1878  _msgSender() */\n      jump\t// in\n    tag_209:\n        /* \"@openzeppelin/contracts/access/Ownable.sol\":1855:1878  owner() != _msgSender() */\n      0xffffffffffffffffffffffffffffffffffffffff\n      and\n        /* \"@openzeppelin/contracts/access/Ownable.sol\":1855:1862  owner() */\n      tag_211\n        /* \"@openzeppelin/contracts/access/Ownable.sol\":1855:1860  owner */\n      tag_43\n        /* \"@openzeppelin/contracts/access/Ownable.sol\":1855:1862  owner() */\n      jump\t// in\n    tag_211:\n        /* \"@openzeppelin/contracts/access/Ownable.sol\":1855:1878  owner() != _msgSender() */\n      0xffffffffffffffffffffffffffffffffffffffff\n      and\n      eq\n        /* \"@openzeppelin/contracts/access/Ownable.sol\":1851:1952  if (owner() != _msgSender()) {... */\n      tag_212\n      jumpi\n        /* \"@openzeppelin/contracts/access/Ownable.sol\":1928:1940  _msgSender() */\n      tag_213\n        /* \"@openzeppelin/contracts/access/Ownable.sol\":1928:1938  _msgSender */\n      tag_210\n        /* \"@openzeppelin/contracts/access/Ownable.sol\":1928:1940  _msgSender() */\n      jump\t// in\n    tag_213:\n        /* \"@openzeppelin/contracts/access/Ownable.sol\":1901:1941  OwnableUnauthorizedAccount(_msgSender()) */\n      mload(0x40)\n      0x118cdaa700000000000000000000000000000000000000000000000000000000\n      dup2\n      mstore\n      0x04\n      add\n      tag_214\n      swap2\n      swap1\n      tag_45\n      jump\t// in\n    tag_214:\n      mload(0x40)\n      dup1\n      swap2\n      sub\n      swap1\n      revert\n        /* \"@openzeppelin/contracts/access/Ownable.sol\":1851:1952  if (owner() != _msgSender()) {... */\n    tag_212:\n        /* \"@openzeppelin/contracts/access/Ownable.sol\":1796:1958  function _checkOwner() internal view virtual {... */\n      jump\t// out\n        /* \"@openzeppelin/contracts/access/Ownable.sol\":2912:3099  function _transferOwnership(address newOwner) internal virtual {... */\n    tag_124:\n        /* \"@openzeppelin/contracts/access/Ownable.sol\":2985:3001  address oldOwner */\n      0x00\n        /* \"@openzeppelin/contracts/access/Ownable.sol\":3004:3010  _owner */\n      0x00\n      0x00\n      swap1\n      sload\n      swap1\n      0x0100\n      exp\n      swap1\n      div\n      0xffffffffffffffffffffffffffffffffffffffff\n      and\n        /* \"@openzeppelin/contracts/access/Ownable.sol\":2985:3010  address oldOwner = _owner */\n      swap1\n      pop\n        /* \"@openzeppelin/contracts/access/Ownable.sol\":3029:3037  newOwner */\n      dup2\n        /* \"@openzeppelin/contracts/access/Ownable.sol\":3020:3026  _owner */\n      0x00\n      0x00\n        /* \"@openzeppelin/contracts/access/Ownable.sol\":3020:3037  _owner = newOwner */\n      0x0100\n      exp\n      dup2\n      sload\n      dup2\n      0xffffffffffffffffffffffffffffffffffffffff\n      mul\n      not\n      and\n      swap1\n      dup4\n      0xffffffffffffffffffffffffffffffffffffffff\n      and\n      mul\n      or\n      swap1\n      sstore\n      pop\n        /* \"@openzeppelin/contracts/access/Ownable.sol\":3083:3091  newOwner */\n      dup2\n        /* \"@openzeppelin/contracts/access/Ownable.sol\":3052:3092  OwnershipTransferred(oldOwner, newOwner) */\n      0xffffffffffffffffffffffffffffffffffffffff\n      and\n        /* \"@openzeppelin/contracts/access/Ownable.sol\":3073:3081  oldOwner */\n      dup2\n        /* \"@openzeppelin/contracts/access/Ownable.sol\":3052:3092  OwnershipTransferred(oldOwner, newOwner) */\n      0xffffffffffffffffffffffffffffffffffffffff\n      and\n      0x8be0079c531659141344cd1fd0a4f28419497f9722a3daafe3b4186f6b6457e0\n      mload(0x40)\n      mload(0x40)\n      dup1\n      swap2\n      sub\n      swap1\n      log3\n        /* \"@openzeppelin/contracts/access/Ownable.sol\":2975:3099  {... */\n      pop\n        /* \"@openzeppelin/contracts/access/Ownable.sol\":2912:3099  function _transferOwnership(address newOwner) internal virtual {... */\n      pop\n      jump\t// out\n        /* \"contracts/Voting.sol\":3414:4071  function tallyVotes() internal onlyOwner {... */\n    tag_147:\n        /* \"@openzeppelin/contracts/access/Ownable.sol\":1531:1544  _checkOwner() */\n      tag_217\n        /* \"@openzeppelin/contracts/access/Ownable.sol\":1531:1542  _checkOwner */\n      tag_110\n        /* \"@openzeppelin/contracts/access/Ownable.sol\":1531:1544  _checkOwner() */\n      jump\t// in\n    tag_217:\n        /* \"contracts/Voting.sol\":3465:3478  uint maxVotes */\n      0x00\n        /* \"contracts/Voting.sol\":3481:3482  0 */\n      0x00\n        /* \"contracts/Voting.sol\":3465:3482  uint maxVotes = 0 */\n      swap1\n      pop\n        /* \"contracts/Voting.sol\":3499:3510  currentVote */\n      0x01\n        /* \"contracts/Voting.sol\":3499:3527  currentVote.winningProposals */\n      0x04\n      add\n      0x00\n        /* \"contracts/Voting.sol\":3492:3527  delete currentVote.winningProposals */\n      tag_219\n      swap2\n      swap1\n      tag_192\n      jump\t// in\n    tag_219:\n        /* \"contracts/Voting.sol\":3543:3549  uint i */\n      0x00\n        /* \"contracts/Voting.sol\":3552:3553  0 */\n      0x00\n        /* \"contracts/Voting.sol\":3543:3553  uint i = 0 */\n      swap1\n      pop\n        /* \"contracts/Voting.sol\":3538:3990  for (uint i = 0; i < currentVote.proposals.length; ++i) {... */\n    tag_220:\n        /* \"contracts/Voting.sol\":3559:3570  currentVote */\n      0x01\n        /* \"contracts/Voting.sol\":3559:3580  currentVote.proposals */\n      0x02\n      add\n        /* \"contracts/Voting.sol\":3559:3587  currentVote.proposals.length */\n      dup1\n      sload\n      swap1\n      pop\n        /* \"contracts/Voting.sol\":3555:3556  i */\n      dup2\n        /* \"contracts/Voting.sol\":3555:3587  i < currentVote.proposals.length */\n      lt\n        /* \"contracts/Voting.sol\":3538:3990  for (uint i = 0; i < currentVote.proposals.length; ++i) {... */\n      iszero\n      tag_221\n      jumpi\n        /* \"contracts/Voting.sol\":3608:3623  uint votesCount */\n      0x00\n        /* \"contracts/Voting.sol\":3626:3637  currentVote */\n      0x01\n        /* \"contracts/Voting.sol\":3626:3647  currentVote.proposals */\n      0x02\n      add\n        /* \"contracts/Voting.sol\":3648:3649  i */\n      dup3\n        /* \"contracts/Voting.sol\":3626:3650  currentVote.proposals[i] */\n      dup2\n      sload\n      dup2\n      lt\n      tag_223\n      jumpi\n      tag_224\n      tag_67\n      jump\t// in\n    tag_224:\n    tag_223:\n      swap1\n      0x00\n      mstore\n      keccak256(0x00, 0x20)\n      swap1\n      0x02\n      mul\n      add\n        /* \"contracts/Voting.sol\":3626:3660  currentVote.proposals[i].voteCount */\n      0x01\n      add\n      sload\n        /* \"contracts/Voting.sol\":3608:3660  uint votesCount = currentVote.proposals[i].voteCount */\n      swap1\n      pop\n        /* \"contracts/Voting.sol\":3691:3699  maxVotes */\n      dup3\n        /* \"contracts/Voting.sol\":3678:3688  votesCount */\n      dup2\n        /* \"contracts/Voting.sol\":3678:3699  votesCount > maxVotes */\n      gt\n        /* \"contracts/Voting.sol\":3675:3980  if(votesCount > maxVotes){... */\n      iszero\n      tag_226\n      jumpi\n        /* \"contracts/Voting.sol\":3729:3739  votesCount */\n      dup1\n        /* \"contracts/Voting.sol\":3718:3739  maxVotes = votesCount */\n      swap3\n      pop\n        /* \"contracts/Voting.sol\":3764:3775  currentVote */\n      0x01\n        /* \"contracts/Voting.sol\":3764:3792  currentVote.winningProposals */\n      0x04\n      add\n      0x00\n        /* \"contracts/Voting.sol\":3757:3792  delete currentVote.winningProposals */\n      tag_227\n      swap2\n      swap1\n      tag_192\n      jump\t// in\n    tag_227:\n        /* \"contracts/Voting.sol\":3810:3821  currentVote */\n      0x01\n        /* \"contracts/Voting.sol\":3810:3838  currentVote.winningProposals */\n      0x04\n      add\n        /* \"contracts/Voting.sol\":3844:3845  i */\n      dup3\n        /* \"contracts/Voting.sol\":3810:3846  currentVote.winningProposals.push(i) */\n      swap1\n      dup1\n      0x01\n      dup2\n      sload\n      add\n      dup1\n      dup3\n      sstore\n      dup1\n      swap2\n      pop\n      pop\n      0x01\n      swap1\n      sub\n      swap1\n      0x00\n      mstore\n      keccak256(0x00, 0x20)\n      add\n      0x00\n      swap1\n      swap2\n      swap1\n      swap2\n      swap1\n      swap2\n      pop\n      sstore\n        /* \"contracts/Voting.sol\":3675:3980  if(votesCount > maxVotes){... */\n      jump(tag_229)\n    tag_226:\n        /* \"contracts/Voting.sol\":3885:3893  maxVotes */\n      dup3\n        /* \"contracts/Voting.sol\":3871:3881  votesCount */\n      dup2\n        /* \"contracts/Voting.sol\":3871:3893  votesCount == maxVotes */\n      eq\n        /* \"contracts/Voting.sol\":3871:3910  votesCount == maxVotes && maxVotes != 0 */\n      dup1\n      iszero\n      tag_230\n      jumpi\n      pop\n        /* \"contracts/Voting.sol\":3909:3910  0 */\n      0x00\n        /* \"contracts/Voting.sol\":3897:3905  maxVotes */\n      dup4\n        /* \"contracts/Voting.sol\":3897:3910  maxVotes != 0 */\n      eq\n      iszero\n        /* \"contracts/Voting.sol\":3871:3910  votesCount == maxVotes && maxVotes != 0 */\n    tag_230:\n        /* \"contracts/Voting.sol\":3867:3980  if (votesCount == maxVotes && maxVotes != 0){... */\n      iszero\n      tag_231\n      jumpi\n        /* \"contracts/Voting.sol\":3929:3940  currentVote */\n      0x01\n        /* \"contracts/Voting.sol\":3929:3957  currentVote.winningProposals */\n      0x04\n      add\n        /* \"contracts/Voting.sol\":3963:3964  i */\n      dup3\n        /* \"contracts/Voting.sol\":3929:3965  currentVote.winningProposals.push(i) */\n      swap1\n      dup1\n      0x01\n      dup2\n      sload\n      add\n      dup1\n      dup3\n      sstore\n      dup1\n      swap2\n      pop\n      pop\n      0x01\n      swap1\n      sub\n      swap1\n      0x00\n      mstore\n      keccak256(0x00, 0x20)\n      add\n      0x00\n      swap1\n      swap2\n      swap1\n      swap2\n      swap1\n      swap2\n      pop\n      sstore\n        /* \"contracts/Voting.sol\":3867:3980  if (votesCount == maxVotes && maxVotes != 0){... */\n    tag_231:\n        /* \"contracts/Voting.sol\":3675:3980  if(votesCount > maxVotes){... */\n    tag_229:\n        /* \"contracts/Voting.sol\":3594:3990  {... */\n      pop\n        /* \"contracts/Voting.sol\":3589:3592  ++i */\n      dup1\n      0x01\n      add\n      swap1\n      pop\n        /* \"contracts/Voting.sol\":3538:3990  for (uint i = 0; i < currentVote.proposals.length; ++i) {... */\n      jump(tag_220)\n    tag_221:\n      pop\n        /* \"contracts/Voting.sol\":4005:4064  VotesTallied(maxVotes, currentVote.winningProposals.length) */\n      0x45ef9b7fc34bdfcccc29be8be99ab3e8f3206f5957d34325050712b5b486bdce\n        /* \"contracts/Voting.sol\":4018:4026  maxVotes */\n      dup2\n        /* \"contracts/Voting.sol\":4028:4039  currentVote */\n      0x01\n        /* \"contracts/Voting.sol\":4028:4056  currentVote.winningProposals */\n      0x04\n      add\n        /* \"contracts/Voting.sol\":4028:4063  currentVote.winningProposals.length */\n      dup1\n      sload\n      swap1\n      pop\n        /* \"contracts/Voting.sol\":4005:4064  VotesTallied(maxVotes, currentVote.winningProposals.length) */\n      mload(0x40)\n      tag_233\n      swap3\n      swap2\n      swap1\n      tag_197\n      jump\t// in\n    tag_233:\n      mload(0x40)\n      dup1\n      swap2\n      sub\n      swap1\n      log1\n        /* \"contracts/Voting.sol\":3455:4071  {... */\n      pop\n        /* \"contracts/Voting.sol\":3414:4071  function tallyVotes() internal onlyOwner {... */\n      jump\t// out\n        /* \"@openzeppelin/contracts/utils/Context.sol\":656:752  function _msgSender() internal view virtual returns (address) {... */\n    tag_210:\n        /* \"@openzeppelin/contracts/utils/Context.sol\":709:716  address */\n      0x00\n        /* \"@openzeppelin/contracts/utils/Context.sol\":735:745  msg.sender */\n      caller\n        /* \"@openzeppelin/contracts/utils/Context.sol\":728:745  return msg.sender */\n      swap1\n      pop\n        /* \"@openzeppelin/contracts/utils/Context.sol\":656:752  function _msgSender() internal view virtual returns (address) {... */\n      swap1\n      jump\t// out\n    tag_75:\n      mload(0x40)\n      dup1\n      0x60\n      add\n      0x40\n      mstore\n      dup1\n      0x00\n      dup2\n      mstore\n      0x20\n      add\n      0x60\n      dup2\n      mstore\n      0x20\n      add\n      0x60\n      dup2\n      mstore\n      pop\n      swap1\n      jump\t// out\n    tag_190:\n      pop\n      dup1\n      sload\n      0x00\n      dup3\n      sstore\n      0x02\n      mul\n      swap1\n      0x00\n      mstore\n      keccak256(0x00, 0x20)\n      swap1\n      dup2\n      add\n      swap1\n      tag_236\n      swap2\n      swap1\n      tag_237\n      jump\t// in\n    tag_236:\n      pop\n      jump\t// out\n    tag_192:\n      pop\n      dup1\n      sload\n      0x00\n      dup3\n      sstore\n      swap1\n      0x00\n      mstore\n      keccak256(0x00, 0x20)\n      swap1\n      dup2\n      add\n      swap1\n      tag_239\n      swap2\n      swap1\n      tag_240\n      jump\t// in\n    tag_239:\n      pop\n      jump\t// out\n    tag_237:\n    tag_241:\n      dup1\n      dup3\n      gt\n      iszero\n      tag_242\n      jumpi\n      0x00\n      0x00\n      dup3\n      add\n      0x00\n      tag_243\n      swap2\n      swap1\n      tag_244\n      jump\t// in\n    tag_243:\n      0x01\n      dup3\n      add\n      0x00\n      swap1\n      sstore\n      pop\n      0x02\n      add\n      jump(tag_241)\n    tag_242:\n      pop\n      swap1\n      jump\t// out\n    tag_240:\n    tag_245:\n      dup1\n      dup3\n      gt\n      iszero\n      tag_246\n      jumpi\n      0x00\n      dup2\n      0x00\n      swap1\n      sstore\n      pop\n      0x01\n      add\n      jump(tag_245)\n    tag_246:\n      pop\n      swap1\n      jump\t// out\n    tag_244:\n      pop\n      dup1\n      sload\n      tag_247\n      swap1\n      tag_85\n      jump\t// in\n    tag_247:\n      0x00\n      dup3\n      sstore\n      dup1\n      0x1f\n      lt\n      tag_249\n      jumpi\n      pop\n      jump(tag_248)\n    tag_249:\n      0x1f\n      add\n      0x20\n      swap1\n      div\n      swap1\n      0x00\n      mstore\n      keccak256(0x00, 0x20)\n      swap1\n      dup2\n      add\n      swap1\n      tag_250\n      swap2\n      swap1\n      tag_240\n      jump\t// in\n    tag_250:\n    tag_248:\n      pop\n      jump\t// out\n        /* \"#utility.yul\":7:82   */\n    tag_251:\n        /* \"#utility.yul\":40:46   */\n      0x00\n        /* \"#utility.yul\":73:75   */\n      0x40\n        /* \"#utility.yul\":67:76   */\n      mload\n        /* \"#utility.yul\":57:76   */\n      swap1\n      pop\n        /* \"#utility.yul\":7:82   */\n      swap1\n      jump\t// out\n        /* \"#utility.yul\":88:205   */\n    tag_252:\n        /* \"#utility.yul\":197:198   */\n      0x00\n        /* \"#utility.yul\":194:195   */\n      0x00\n        /* \"#utility.yul\":187:199   */\n      revert\n        /* \"#utility.yul\":211:328   */\n    tag_253:\n        /* \"#utility.yul\":320:321   */\n      0x00\n        /* \"#utility.yul\":317:318   */\n      0x00\n        /* \"#utility.yul\":310:322   */\n      revert\n        /* \"#utility.yul\":334:411   */\n    tag_254:\n        /* \"#utility.yul\":371:378   */\n      0x00\n        /* \"#utility.yul\":400:405   */\n      dup2\n        /* \"#utility.yul\":389:405   */\n      swap1\n      pop\n        /* \"#utility.yul\":334:411   */\n      swap2\n      swap1\n      pop\n      jump\t// out\n        /* \"#utility.yul\":417:539   */\n    tag_255:\n        /* \"#utility.yul\":490:514   */\n      tag_322\n        /* \"#utility.yul\":508:513   */\n      dup2\n        /* \"#utility.yul\":490:514   */\n      tag_254\n      jump\t// in\n    tag_322:\n        /* \"#utility.yul\":483:488   */\n      dup2\n        /* \"#utility.yul\":480:515   */\n      eq\n        /* \"#utility.yul\":470:533   */\n      tag_323\n      jumpi\n        /* \"#utility.yul\":529:530   */\n      0x00\n        /* \"#utility.yul\":526:527   */\n      0x00\n        /* \"#utility.yul\":519:531   */\n      revert\n        /* \"#utility.yul\":470:533   */\n    tag_323:\n        /* \"#utility.yul\":417:539   */\n      pop\n      jump\t// out\n        /* \"#utility.yul\":545:684   */\n    tag_256:\n        /* \"#utility.yul\":591:596   */\n      0x00\n        /* \"#utility.yul\":629:635   */\n      dup2\n        /* \"#utility.yul\":616:636   */\n      calldataload\n        /* \"#utility.yul\":607:636   */\n      swap1\n      pop\n        /* \"#utility.yul\":645:678   */\n      tag_325\n        /* \"#utility.yul\":672:677   */\n      dup2\n        /* \"#utility.yul\":645:678   */\n      tag_255\n      jump\t// in\n    tag_325:\n        /* \"#utility.yul\":545:684   */\n      swap3\n      swap2\n      pop\n      pop\n      jump\t// out\n        /* \"#utility.yul\":690:1019   */\n    tag_17:\n        /* \"#utility.yul\":749:755   */\n      0x00\n        /* \"#utility.yul\":798:800   */\n      0x20\n        /* \"#utility.yul\":786:795   */\n      dup3\n        /* \"#utility.yul\":777:784   */\n      dup5\n        /* \"#utility.yul\":773:796   */\n      sub\n        /* \"#utility.yul\":769:801   */\n      slt\n        /* \"#utility.yul\":766:885   */\n      iszero\n      tag_327\n      jumpi\n        /* \"#utility.yul\":804:883   */\n      tag_328\n      tag_252\n      jump\t// in\n    tag_328:\n        /* \"#utility.yul\":766:885   */\n    tag_327:\n        /* \"#utility.yul\":924:925   */\n      0x00\n        /* \"#utility.yul\":949:1002   */\n      tag_329\n        /* \"#utility.yul\":994:1001   */\n      dup5\n        /* \"#utility.yul\":985:991   */\n      dup3\n        /* \"#utility.yul\":974:983   */\n      dup6\n        /* \"#utility.yul\":970:992   */\n      add\n        /* \"#utility.yul\":949:1002   */\n      tag_256\n      jump\t// in\n    tag_329:\n        /* \"#utility.yul\":939:1002   */\n      swap2\n      pop\n        /* \"#utility.yul\":895:1012   */\n      pop\n        /* \"#utility.yul\":690:1019   */\n      swap3\n      swap2\n      pop\n      pop\n      jump\t// out\n        /* \"#utility.yul\":1025:1133   */\n    tag_257:\n        /* \"#utility.yul\":1102:1126   */\n      tag_331\n        /* \"#utility.yul\":1120:1125   */\n      dup2\n        /* \"#utility.yul\":1102:1126   */\n      tag_254\n      jump\t// in\n    tag_331:\n        /* \"#utility.yul\":1097:1100   */\n      dup3\n        /* \"#utility.yul\":1090:1127   */\n      mstore\n        /* \"#utility.yul\":1025:1133   */\n      pop\n      pop\n      jump\t// out\n        /* \"#utility.yul\":1139:1278   */\n    tag_258:\n        /* \"#utility.yul\":1231:1237   */\n      0x00\n        /* \"#utility.yul\":1265:1270   */\n      dup2\n        /* \"#utility.yul\":1259:1271   */\n      mload\n        /* \"#utility.yul\":1249:1271   */\n      swap1\n      pop\n        /* \"#utility.yul\":1139:1278   */\n      swap2\n      swap1\n      pop\n      jump\t// out\n        /* \"#utility.yul\":1284:1483   */\n    tag_259:\n        /* \"#utility.yul\":1398:1409   */\n      0x00\n        /* \"#utility.yul\":1432:1438   */\n      dup3\n        /* \"#utility.yul\":1427:1430   */\n      dup3\n        /* \"#utility.yul\":1420:1439   */\n      mstore\n        /* \"#utility.yul\":1472:1476   */\n      0x20\n        /* \"#utility.yul\":1467:1470   */\n      dup3\n        /* \"#utility.yul\":1463:1477   */\n      add\n        /* \"#utility.yul\":1448:1477   */\n      swap1\n      pop\n        /* \"#utility.yul\":1284:1483   */\n      swap3\n      swap2\n      pop\n      pop\n      jump\t// out\n        /* \"#utility.yul\":1489:1646   */\n    tag_260:\n        /* \"#utility.yul\":1581:1585   */\n      0x00\n        /* \"#utility.yul\":1604:1607   */\n      dup2\n        /* \"#utility.yul\":1596:1607   */\n      swap1\n      pop\n        /* \"#utility.yul\":1634:1638   */\n      0x20\n        /* \"#utility.yul\":1629:1632   */\n      dup3\n        /* \"#utility.yul\":1625:1639   */\n      add\n        /* \"#utility.yul\":1617:1639   */\n      swap1\n      pop\n        /* \"#utility.yul\":1489:1646   */\n      swap2\n      swap1\n      pop\n      jump\t// out\n        /* \"#utility.yul\":1652:1751   */\n    tag_261:\n        /* \"#utility.yul\":1704:1710   */\n      0x00\n        /* \"#utility.yul\":1738:1743   */\n      dup2\n        /* \"#utility.yul\":1732:1744   */\n      mload\n        /* \"#utility.yul\":1722:1744   */\n      swap1\n      pop\n        /* \"#utility.yul\":1652:1751   */\n      swap2\n      swap1\n      pop\n      jump\t// out\n        /* \"#utility.yul\":1757:1916   */\n    tag_262:\n        /* \"#utility.yul\":1831:1842   */\n      0x00\n        /* \"#utility.yul\":1865:1871   */\n      dup3\n        /* \"#utility.yul\":1860:1863   */\n      dup3\n        /* \"#utility.yul\":1853:1872   */\n      mstore\n        /* \"#utility.yul\":1905:1909   */\n      0x20\n        /* \"#utility.yul\":1900:1903   */\n      dup3\n        /* \"#utility.yul\":1896:1910   */\n      add\n        /* \"#utility.yul\":1881:1910   */\n      swap1\n      pop\n        /* \"#utility.yul\":1757:1916   */\n      swap3\n      swap2\n      pop\n      pop\n      jump\t// out\n        /* \"#utility.yul\":1922:2061   */\n    tag_263:\n        /* \"#utility.yul\":2011:2017   */\n      dup3\n        /* \"#utility.yul\":2006:2009   */\n      dup2\n        /* \"#utility.yul\":2001:2004   */\n      dup4\n        /* \"#utility.yul\":1995:2018   */\n      mcopy\n        /* \"#utility.yul\":2052:2053   */\n      0x00\n        /* \"#utility.yul\":2043:2049   */\n      dup4\n        /* \"#utility.yul\":2038:2041   */\n      dup4\n        /* \"#utility.yul\":2034:2050   */\n      add\n        /* \"#utility.yul\":2027:2054   */\n      mstore\n        /* \"#utility.yul\":1922:2061   */\n      pop\n      pop\n      pop\n      jump\t// out\n        /* \"#utility.yul\":2067:2169   */\n    tag_264:\n        /* \"#utility.yul\":2108:2114   */\n      0x00\n        /* \"#utility.yul\":2159:2161   */\n      0x1f\n        /* \"#utility.yul\":2155:2162   */\n      not\n        /* \"#utility.yul\":2150:2152   */\n      0x1f\n        /* \"#utility.yul\":2143:2148   */\n      dup4\n        /* \"#utility.yul\":2139:2153   */\n      add\n        /* \"#utility.yul\":2135:2163   */\n      and\n        /* \"#utility.yul\":2125:2163   */\n      swap1\n      pop\n        /* \"#utility.yul\":2067:2169   */\n      swap2\n      swap1\n      pop\n      jump\t// out\n        /* \"#utility.yul\":2175:2532   */\n    tag_265:\n        /* \"#utility.yul\":2253:2256   */\n      0x00\n        /* \"#utility.yul\":2281:2320   */\n      tag_340\n        /* \"#utility.yul\":2314:2319   */\n      dup3\n        /* \"#utility.yul\":2281:2320   */\n      tag_261\n      jump\t// in\n    tag_340:\n        /* \"#utility.yul\":2336:2397   */\n      tag_341\n        /* \"#utility.yul\":2390:2396   */\n      dup2\n        /* \"#utility.yul\":2385:2388   */\n      dup6\n        /* \"#utility.yul\":2336:2397   */\n      tag_262\n      jump\t// in\n    tag_341:\n        /* \"#utility.yul\":2329:2397   */\n      swap4\n      pop\n        /* \"#utility.yul\":2406:2471   */\n      tag_342\n        /* \"#utility.yul\":2464:2470   */\n      dup2\n        /* \"#utility.yul\":2459:2462   */\n      dup6\n        /* \"#utility.yul\":2452:2456   */\n      0x20\n        /* \"#utility.yul\":2445:2450   */\n      dup7\n        /* \"#utility.yul\":2441:2457   */\n      add\n        /* \"#utility.yul\":2406:2471   */\n      tag_263\n      jump\t// in\n    tag_342:\n        /* \"#utility.yul\":2496:2525   */\n      tag_343\n        /* \"#utility.yul\":2518:2524   */\n      dup2\n        /* \"#utility.yul\":2496:2525   */\n      tag_264\n      jump\t// in\n    tag_343:\n        /* \"#utility.yul\":2491:2494   */\n      dup5\n        /* \"#utility.yul\":2487:2526   */\n      add\n        /* \"#utility.yul\":2480:2526   */\n      swap2\n      pop\n        /* \"#utility.yul\":2257:2532   */\n      pop\n        /* \"#utility.yul\":2175:2532   */\n      swap3\n      swap2\n      pop\n      pop\n      jump\t// out\n        /* \"#utility.yul\":2594:3202   */\n    tag_266:\n        /* \"#utility.yul\":2703:2706   */\n      0x00\n        /* \"#utility.yul\":2739:2743   */\n      0x40\n        /* \"#utility.yul\":2734:2737   */\n      dup4\n        /* \"#utility.yul\":2730:2744   */\n      add\n        /* \"#utility.yul\":2833:2837   */\n      0x00\n        /* \"#utility.yul\":2826:2831   */\n      dup4\n        /* \"#utility.yul\":2822:2838   */\n      add\n        /* \"#utility.yul\":2816:2839   */\n      mload\n        /* \"#utility.yul\":2886:2889   */\n      dup5\n        /* \"#utility.yul\":2880:2884   */\n      dup3\n        /* \"#utility.yul\":2876:2890   */\n      sub\n        /* \"#utility.yul\":2869:2873   */\n      0x00\n        /* \"#utility.yul\":2864:2867   */\n      dup7\n        /* \"#utility.yul\":2860:2874   */\n      add\n        /* \"#utility.yul\":2853:2891   */\n      mstore\n        /* \"#utility.yul\":2912:2985   */\n      tag_345\n        /* \"#utility.yul\":2980:2984   */\n      dup3\n        /* \"#utility.yul\":2966:2978   */\n      dup3\n        /* \"#utility.yul\":2912:2985   */\n      tag_265\n      jump\t// in\n    tag_345:\n        /* \"#utility.yul\":2904:2985   */\n      swap2\n      pop\n        /* \"#utility.yul\":2754:2996   */\n      pop\n        /* \"#utility.yul\":3083:3087   */\n      0x20\n        /* \"#utility.yul\":3076:3081   */\n      dup4\n        /* \"#utility.yul\":3072:3088   */\n      add\n        /* \"#utility.yul\":3066:3089   */\n      mload\n        /* \"#utility.yul\":3102:3165   */\n      tag_346\n        /* \"#utility.yul\":3159:3163   */\n      0x20\n        /* \"#utility.yul\":3154:3157   */\n      dup7\n        /* \"#utility.yul\":3150:3164   */\n      add\n        /* \"#utility.yul\":3136:3148   */\n      dup3\n        /* \"#utility.yul\":3102:3165   */\n      tag_257\n      jump\t// in\n    tag_346:\n        /* \"#utility.yul\":3006:3175   */\n      pop\n        /* \"#utility.yul\":3192:3196   */\n      dup1\n        /* \"#utility.yul\":3185:3196   */\n      swap2\n      pop\n        /* \"#utility.yul\":2708:3202   */\n      pop\n        /* \"#utility.yul\":2594:3202   */\n      swap3\n      swap2\n      pop\n      pop\n      jump\t// out\n        /* \"#utility.yul\":3208:3464   */\n    tag_267:\n        /* \"#utility.yul\":3327:3337   */\n      0x00\n        /* \"#utility.yul\":3362:3458   */\n      tag_348\n        /* \"#utility.yul\":3454:3457   */\n      dup4\n        /* \"#utility.yul\":3446:3452   */\n      dup4\n        /* \"#utility.yul\":3362:3458   */\n      tag_266\n      jump\t// in\n    tag_348:\n        /* \"#utility.yul\":3348:3458   */\n      swap1\n      pop\n        /* \"#utility.yul\":3208:3464   */\n      swap3\n      swap2\n      pop\n      pop\n      jump\t// out\n        /* \"#utility.yul\":3470:3608   */\n    tag_268:\n        /* \"#utility.yul\":3565:3569   */\n      0x00\n        /* \"#utility.yul\":3597:3601   */\n      0x20\n        /* \"#utility.yul\":3592:3595   */\n      dup3\n        /* \"#utility.yul\":3588:3602   */\n      add\n        /* \"#utility.yul\":3580:3602   */\n      swap1\n      pop\n        /* \"#utility.yul\":3470:3608   */\n      swap2\n      swap1\n      pop\n      jump\t// out\n        /* \"#utility.yul\":3674:4765   */\n    tag_269:\n        /* \"#utility.yul\":3833:3836   */\n      0x00\n        /* \"#utility.yul\":3862:3941   */\n      tag_351\n        /* \"#utility.yul\":3935:3940   */\n      dup3\n        /* \"#utility.yul\":3862:3941   */\n      tag_258\n      jump\t// in\n    tag_351:\n        /* \"#utility.yul\":3957:4058   */\n      tag_352\n        /* \"#utility.yul\":4051:4057   */\n      dup2\n        /* \"#utility.yul\":4046:4049   */\n      dup6\n        /* \"#utility.yul\":3957:4058   */\n      tag_259\n      jump\t// in\n    tag_352:\n        /* \"#utility.yul\":3950:4058   */\n      swap4\n      pop\n        /* \"#utility.yul\":4084:4087   */\n      dup4\n        /* \"#utility.yul\":4129:4133   */\n      0x20\n        /* \"#utility.yul\":4121:4127   */\n      dup3\n        /* \"#utility.yul\":4117:4134   */\n      mul\n        /* \"#utility.yul\":4112:4115   */\n      dup6\n        /* \"#utility.yul\":4108:4135   */\n      add\n        /* \"#utility.yul\":4159:4240   */\n      tag_353\n        /* \"#utility.yul\":4234:4239   */\n      dup6\n        /* \"#utility.yul\":4159:4240   */\n      tag_260\n      jump\t// in\n    tag_353:\n        /* \"#utility.yul\":4263:4270   */\n      dup1\n        /* \"#utility.yul\":4294:4295   */\n      0x00\n        /* \"#utility.yul\":4279:4720   */\n    tag_354:\n        /* \"#utility.yul\":4304:4310   */\n      dup6\n        /* \"#utility.yul\":4301:4302   */\n      dup2\n        /* \"#utility.yul\":4298:4311   */\n      lt\n        /* \"#utility.yul\":4279:4720   */\n      iszero\n      tag_356\n      jumpi\n        /* \"#utility.yul\":4375:4384   */\n      dup5\n        /* \"#utility.yul\":4369:4373   */\n      dup5\n        /* \"#utility.yul\":4365:4385   */\n      sub\n        /* \"#utility.yul\":4360:4363   */\n      dup10\n        /* \"#utility.yul\":4353:4386   */\n      mstore\n        /* \"#utility.yul\":4426:4432   */\n      dup2\n        /* \"#utility.yul\":4420:4433   */\n      mload\n        /* \"#utility.yul\":4454:4568   */\n      tag_357\n        /* \"#utility.yul\":4563:4567   */\n      dup6\n        /* \"#utility.yul\":4548:4561   */\n      dup3\n        /* \"#utility.yul\":4454:4568   */\n      tag_267\n      jump\t// in\n    tag_357:\n        /* \"#utility.yul\":4446:4568   */\n      swap5\n      pop\n        /* \"#utility.yul\":4591:4676   */\n      tag_358\n        /* \"#utility.yul\":4669:4675   */\n      dup4\n        /* \"#utility.yul\":4591:4676   */\n      tag_268\n      jump\t// in\n    tag_358:\n        /* \"#utility.yul\":4581:4676   */\n      swap3\n      pop\n        /* \"#utility.yul\":4705:4709   */\n      0x20\n        /* \"#utility.yul\":4700:4703   */\n      dup11\n        /* \"#utility.yul\":4696:4710   */\n      add\n        /* \"#utility.yul\":4689:4710   */\n      swap10\n      pop\n        /* \"#utility.yul\":4339:4720   */\n      pop\n        /* \"#utility.yul\":4326:4327   */\n      0x01\n        /* \"#utility.yul\":4323:4324   */\n      dup2\n        /* \"#utility.yul\":4319:4328   */\n      add\n        /* \"#utility.yul\":4314:4328   */\n      swap1\n      pop\n        /* \"#utility.yul\":4279:4720   */\n      jump(tag_354)\n    tag_356:\n        /* \"#utility.yul\":4283:4297   */\n      pop\n        /* \"#utility.yul\":4736:4740   */\n      dup3\n        /* \"#utility.yul\":4729:4740   */\n      swap8\n      pop\n        /* \"#utility.yul\":4756:4759   */\n      dup8\n        /* \"#utility.yul\":4749:4759   */\n      swap6\n      pop\n        /* \"#utility.yul\":3838:4765   */\n      pop\n      pop\n      pop\n      pop\n      pop\n        /* \"#utility.yul\":3674:4765   */\n      swap3\n      swap2\n      pop\n      pop\n      jump\t// out\n        /* \"#utility.yul\":4771:4885   */\n    tag_270:\n        /* \"#utility.yul\":4838:4844   */\n      0x00\n        /* \"#utility.yul\":4872:4877   */\n      dup2\n        /* \"#utility.yul\":4866:4878   */\n      mload\n        /* \"#utility.yul\":4856:4878   */\n      swap1\n      pop\n        /* \"#utility.yul\":4771:4885   */\n      swap2\n      swap1\n      pop\n      jump\t// out\n        /* \"#utility.yul\":4891:5065   */\n    tag_271:\n        /* \"#utility.yul\":4980:4991   */\n      0x00\n        /* \"#utility.yul\":5014:5020   */\n      dup3\n        /* \"#utility.yul\":5009:5012   */\n      dup3\n        /* \"#utility.yul\":5002:5021   */\n      mstore\n        /* \"#utility.yul\":5054:5058   */\n      0x20\n        /* \"#utility.yul\":5049:5052   */\n      dup3\n        /* \"#utility.yul\":5045:5059   */\n      add\n        /* \"#utility.yul\":5030:5059   */\n      swap1\n      pop\n        /* \"#utility.yul\":4891:5065   */\n      swap3\n      swap2\n      pop\n      pop\n      jump\t// out\n        /* \"#utility.yul\":5071:5203   */\n    tag_272:\n        /* \"#utility.yul\":5138:5142   */\n      0x00\n        /* \"#utility.yul\":5161:5164   */\n      dup2\n        /* \"#utility.yul\":5153:5164   */\n      swap1\n      pop\n        /* \"#utility.yul\":5191:5195   */\n      0x20\n        /* \"#utility.yul\":5186:5189   */\n      dup3\n        /* \"#utility.yul\":5182:5196   */\n      add\n        /* \"#utility.yul\":5174:5196   */\n      swap1\n      pop\n        /* \"#utility.yul\":5071:5203   */\n      swap2\n      swap1\n      pop\n      jump\t// out\n        /* \"#utility.yul\":5209:5388   */\n    tag_273:\n        /* \"#utility.yul\":5278:5288   */\n      0x00\n        /* \"#utility.yul\":5299:5345   */\n      tag_363\n        /* \"#utility.yul\":5341:5344   */\n      dup4\n        /* \"#utility.yul\":5333:5339   */\n      dup4\n        /* \"#utility.yul\":5299:5345   */\n      tag_257\n      jump\t// in\n    tag_363:\n        /* \"#utility.yul\":5377:5381   */\n      0x20\n        /* \"#utility.yul\":5372:5375   */\n      dup4\n        /* \"#utility.yul\":5368:5382   */\n      add\n        /* \"#utility.yul\":5354:5382   */\n      swap1\n      pop\n        /* \"#utility.yul\":5209:5388   */\n      swap3\n      swap2\n      pop\n      pop\n      jump\t// out\n        /* \"#utility.yul\":5394:5507   */\n    tag_274:\n        /* \"#utility.yul\":5464:5468   */\n      0x00\n        /* \"#utility.yul\":5496:5500   */\n      0x20\n        /* \"#utility.yul\":5491:5494   */\n      dup3\n        /* \"#utility.yul\":5487:5501   */\n      add\n        /* \"#utility.yul\":5479:5501   */\n      swap1\n      pop\n        /* \"#utility.yul\":5394:5507   */\n      swap2\n      swap1\n      pop\n      jump\t// out\n        /* \"#utility.yul\":5543:6255   */\n    tag_275:\n        /* \"#utility.yul\":5652:5655   */\n      0x00\n        /* \"#utility.yul\":5681:5735   */\n      tag_366\n        /* \"#utility.yul\":5729:5734   */\n      dup3\n        /* \"#utility.yul\":5681:5735   */\n      tag_270\n      jump\t// in\n    tag_366:\n        /* \"#utility.yul\":5751:5827   */\n      tag_367\n        /* \"#utility.yul\":5820:5826   */\n      dup2\n        /* \"#utility.yul\":5815:5818   */\n      dup6\n        /* \"#utility.yul\":5751:5827   */\n      tag_271\n      jump\t// in\n    tag_367:\n        /* \"#utility.yul\":5744:5827   */\n      swap4\n      pop\n        /* \"#utility.yul\":5851:5907   */\n      tag_368\n        /* \"#utility.yul\":5901:5906   */\n      dup4\n        /* \"#utility.yul\":5851:5907   */\n      tag_272\n      jump\t// in\n    tag_368:\n        /* \"#utility.yul\":5930:5937   */\n      dup1\n        /* \"#utility.yul\":5961:5962   */\n      0x00\n        /* \"#utility.yul\":5946:6230   */\n    tag_369:\n        /* \"#utility.yul\":5971:5977   */\n      dup4\n        /* \"#utility.yul\":5968:5969   */\n      dup2\n        /* \"#utility.yul\":5965:5978   */\n      lt\n        /* \"#utility.yul\":5946:6230   */\n      iszero\n      tag_371\n      jumpi\n        /* \"#utility.yul\":6047:6053   */\n      dup2\n        /* \"#utility.yul\":6041:6054   */\n      mload\n        /* \"#utility.yul\":6074:6137   */\n      tag_372\n        /* \"#utility.yul\":6133:6136   */\n      dup9\n        /* \"#utility.yul\":6118:6131   */\n      dup3\n        /* \"#utility.yul\":6074:6137   */\n      tag_273\n      jump\t// in\n    tag_372:\n        /* \"#utility.yul\":6067:6137   */\n      swap8\n      pop\n        /* \"#utility.yul\":6160:6220   */\n      tag_373\n        /* \"#utility.yul\":6213:6219   */\n      dup4\n        /* \"#utility.yul\":6160:6220   */\n      tag_274\n      jump\t// in\n    tag_373:\n        /* \"#utility.yul\":6150:6220   */\n      swap3\n      pop\n        /* \"#utility.yul\":6006:6230   */\n      pop\n        /* \"#utility.yul\":5993:5994   */\n      0x01\n        /* \"#utility.yul\":5990:5991   */\n      dup2\n        /* \"#utility.yul\":5986:5995   */\n      add\n        /* \"#utility.yul\":5981:5995   */\n      swap1\n      pop\n        /* \"#utility.yul\":5946:6230   */\n      jump(tag_369)\n    tag_371:\n        /* \"#utility.yul\":5950:5964   */\n      pop\n        /* \"#utility.yul\":6246:6249   */\n      dup6\n        /* \"#utility.yul\":6239:6249   */\n      swap4\n      pop\n        /* \"#utility.yul\":5657:6255   */\n      pop\n      pop\n      pop\n        /* \"#utility.yul\":5543:6255   */\n      swap3\n      swap2\n      pop\n      pop\n      jump\t// out\n        /* \"#utility.yul\":6327:7326   */\n    tag_276:\n        /* \"#utility.yul\":6456:6459   */\n      0x00\n        /* \"#utility.yul\":6492:6496   */\n      0x60\n        /* \"#utility.yul\":6487:6490   */\n      dup4\n        /* \"#utility.yul\":6483:6497   */\n      add\n        /* \"#utility.yul\":6590:6594   */\n      0x00\n        /* \"#utility.yul\":6583:6588   */\n      dup4\n        /* \"#utility.yul\":6579:6595   */\n      add\n        /* \"#utility.yul\":6573:6596   */\n      mload\n        /* \"#utility.yul\":6609:6672   */\n      tag_375\n        /* \"#utility.yul\":6666:6670   */\n      0x00\n        /* \"#utility.yul\":6661:6664   */\n      dup7\n        /* \"#utility.yul\":6657:6671   */\n      add\n        /* \"#utility.yul\":6643:6655   */\n      dup3\n        /* \"#utility.yul\":6609:6672   */\n      tag_257\n      jump\t// in\n    tag_375:\n        /* \"#utility.yul\":6507:6682   */\n      pop\n        /* \"#utility.yul\":6769:6773   */\n      0x20\n        /* \"#utility.yul\":6762:6767   */\n      dup4\n        /* \"#utility.yul\":6758:6774   */\n      add\n        /* \"#utility.yul\":6752:6775   */\n      mload\n        /* \"#utility.yul\":6822:6825   */\n      dup5\n        /* \"#utility.yul\":6816:6820   */\n      dup3\n        /* \"#utility.yul\":6812:6826   */\n      sub\n        /* \"#utility.yul\":6805:6809   */\n      0x20\n        /* \"#utility.yul\":6800:6803   */\n      dup7\n        /* \"#utility.yul\":6796:6810   */\n      add\n        /* \"#utility.yul\":6789:6827   */\n      mstore\n        /* \"#utility.yul\":6848:7001   */\n      tag_376\n        /* \"#utility.yul\":6996:7000   */\n      dup3\n        /* \"#utility.yul\":6982:6994   */\n      dup3\n        /* \"#utility.yul\":6848:7001   */\n      tag_269\n      jump\t// in\n    tag_376:\n        /* \"#utility.yul\":6840:7001   */\n      swap2\n      pop\n        /* \"#utility.yul\":6692:7012   */\n      pop\n        /* \"#utility.yul\":7106:7110   */\n      0x40\n        /* \"#utility.yul\":7099:7104   */\n      dup4\n        /* \"#utility.yul\":7095:7111   */\n      add\n        /* \"#utility.yul\":7089:7112   */\n      mload\n        /* \"#utility.yul\":7159:7162   */\n      dup5\n        /* \"#utility.yul\":7153:7157   */\n      dup3\n        /* \"#utility.yul\":7149:7163   */\n      sub\n        /* \"#utility.yul\":7142:7146   */\n      0x40\n        /* \"#utility.yul\":7137:7140   */\n      dup7\n        /* \"#utility.yul\":7133:7147   */\n      add\n        /* \"#utility.yul\":7126:7164   */\n      mstore\n        /* \"#utility.yul\":7185:7288   */\n      tag_377\n        /* \"#utility.yul\":7283:7287   */\n      dup3\n        /* \"#utility.yul\":7269:7281   */\n      dup3\n        /* \"#utility.yul\":7185:7288   */\n      tag_275\n      jump\t// in\n    tag_377:\n        /* \"#utility.yul\":7177:7288   */\n      swap2\n      pop\n        /* \"#utility.yul\":7022:7299   */\n      pop\n        /* \"#utility.yul\":7316:7320   */\n      dup1\n        /* \"#utility.yul\":7309:7320   */\n      swap2\n      pop\n        /* \"#utility.yul\":6461:7326   */\n      pop\n        /* \"#utility.yul\":6327:7326   */\n      swap3\n      swap2\n      pop\n      pop\n      jump\t// out\n        /* \"#utility.yul\":7332:7725   */\n    tag_23:\n        /* \"#utility.yul\":7485:7489   */\n      0x00\n        /* \"#utility.yul\":7523:7525   */\n      0x20\n        /* \"#utility.yul\":7512:7521   */\n      dup3\n        /* \"#utility.yul\":7508:7526   */\n      add\n        /* \"#utility.yul\":7500:7526   */\n      swap1\n      pop\n        /* \"#utility.yul\":7572:7581   */\n      dup2\n        /* \"#utility.yul\":7566:7570   */\n      dup2\n        /* \"#utility.yul\":7562:7582   */\n      sub\n        /* \"#utility.yul\":7558:7559   */\n      0x00\n        /* \"#utility.yul\":7547:7556   */\n      dup4\n        /* \"#utility.yul\":7543:7560   */\n      add\n        /* \"#utility.yul\":7536:7583   */\n      mstore\n        /* \"#utility.yul\":7600:7718   */\n      tag_379\n        /* \"#utility.yul\":7713:7717   */\n      dup2\n        /* \"#utility.yul\":7704:7710   */\n      dup5\n        /* \"#utility.yul\":7600:7718   */\n      tag_276\n      jump\t// in\n    tag_379:\n        /* \"#utility.yul\":7592:7718   */\n      swap1\n      pop\n        /* \"#utility.yul\":7332:7725   */\n      swap3\n      swap2\n      pop\n      pop\n      jump\t// out\n        /* \"#utility.yul\":7731:7848   */\n    tag_277:\n        /* \"#utility.yul\":7840:7841   */\n      0x00\n        /* \"#utility.yul\":7837:7838   */\n      0x00\n        /* \"#utility.yul\":7830:7842   */\n      revert\n        /* \"#utility.yul\":7854:7971   */\n    tag_278:\n        /* \"#utility.yul\":7963:7964   */\n      0x00\n        /* \"#utility.yul\":7960:7961   */\n      0x00\n        /* \"#utility.yul\":7953:7965   */\n      revert\n        /* \"#utility.yul\":7977:8157   */\n    tag_279:\n        /* \"#utility.yul\":8025:8102   */\n      0x4e487b7100000000000000000000000000000000000000000000000000000000\n        /* \"#utility.yul\":8022:8023   */\n      0x00\n        /* \"#utility.yul\":8015:8103   */\n      mstore\n        /* \"#utility.yul\":8122:8126   */\n      0x41\n        /* \"#utility.yul\":8119:8120   */\n      0x04\n        /* \"#utility.yul\":8112:8127   */\n      mstore\n        /* \"#utility.yul\":8146:8150   */\n      0x24\n        /* \"#utility.yul\":8143:8144   */\n      0x00\n        /* \"#utility.yul\":8136:8151   */\n      revert\n        /* \"#utility.yul\":8163:8444   */\n    tag_280:\n        /* \"#utility.yul\":8246:8273   */\n      tag_384\n        /* \"#utility.yul\":8268:8272   */\n      dup3\n        /* \"#utility.yul\":8246:8273   */\n      tag_264\n      jump\t// in\n    tag_384:\n        /* \"#utility.yul\":8238:8244   */\n      dup2\n        /* \"#utility.yul\":8234:8274   */\n      add\n        /* \"#utility.yul\":8376:8382   */\n      dup2\n        /* \"#utility.yul\":8364:8374   */\n      dup2\n        /* \"#utility.yul\":8361:8383   */\n      lt\n        /* \"#utility.yul\":8340:8358   */\n      0xffffffffffffffff\n        /* \"#utility.yul\":8328:8338   */\n      dup3\n        /* \"#utility.yul\":8325:8359   */\n      gt\n        /* \"#utility.yul\":8322:8384   */\n      or\n        /* \"#utility.yul\":8319:8407   */\n      iszero\n      tag_385\n      jumpi\n        /* \"#utility.yul\":8387:8405   */\n      tag_386\n      tag_279\n      jump\t// in\n    tag_386:\n        /* \"#utility.yul\":8319:8407   */\n    tag_385:\n        /* \"#utility.yul\":8427:8437   */\n      dup1\n        /* \"#utility.yul\":8423:8425   */\n      0x40\n        /* \"#utility.yul\":8416:8438   */\n      mstore\n        /* \"#utility.yul\":8206:8444   */\n      pop\n        /* \"#utility.yul\":8163:8444   */\n      pop\n      pop\n      jump\t// out\n        /* \"#utility.yul\":8450:8579   */\n    tag_281:\n        /* \"#utility.yul\":8484:8490   */\n      0x00\n        /* \"#utility.yul\":8511:8531   */\n      tag_388\n      tag_251\n      jump\t// in\n    tag_388:\n        /* \"#utility.yul\":8501:8531   */\n      swap1\n      pop\n        /* \"#utility.yul\":8540:8573   */\n      tag_389\n        /* \"#utility.yul\":8568:8572   */\n      dup3\n        /* \"#utility.yul\":8560:8566   */\n      dup3\n        /* \"#utility.yul\":8540:8573   */\n      tag_280\n      jump\t// in\n    tag_389:\n        /* \"#utility.yul\":8450:8579   */\n      swap2\n      swap1\n      pop\n      jump\t// out\n        /* \"#utility.yul\":8585:8893   */\n    tag_282:\n        /* \"#utility.yul\":8647:8651   */\n      0x00\n        /* \"#utility.yul\":8737:8755   */\n      0xffffffffffffffff\n        /* \"#utility.yul\":8729:8735   */\n      dup3\n        /* \"#utility.yul\":8726:8756   */\n      gt\n        /* \"#utility.yul\":8723:8779   */\n      iszero\n      tag_391\n      jumpi\n        /* \"#utility.yul\":8759:8777   */\n      tag_392\n      tag_279\n      jump\t// in\n    tag_392:\n        /* \"#utility.yul\":8723:8779   */\n    tag_391:\n        /* \"#utility.yul\":8797:8826   */\n      tag_393\n        /* \"#utility.yul\":8819:8825   */\n      dup3\n        /* \"#utility.yul\":8797:8826   */\n      tag_264\n      jump\t// in\n    tag_393:\n        /* \"#utility.yul\":8789:8826   */\n      swap1\n      pop\n        /* \"#utility.yul\":8881:8885   */\n      0x20\n        /* \"#utility.yul\":8875:8879   */\n      dup2\n        /* \"#utility.yul\":8871:8886   */\n      add\n        /* \"#utility.yul\":8863:8886   */\n      swap1\n      pop\n        /* \"#utility.yul\":8585:8893   */\n      swap2\n      swap1\n      pop\n      jump\t// out\n        /* \"#utility.yul\":8899:9047   */\n    tag_283:\n        /* \"#utility.yul\":8997:9003   */\n      dup3\n        /* \"#utility.yul\":8992:8995   */\n      dup2\n        /* \"#utility.yul\":8987:8990   */\n      dup4\n        /* \"#utility.yul\":8974:9004   */\n      calldatacopy\n        /* \"#utility.yul\":9038:9039   */\n      0x00\n        /* \"#utility.yul\":9029:9035   */\n      dup4\n        /* \"#utility.yul\":9024:9027   */\n      dup4\n        /* \"#utility.yul\":9020:9036   */\n      add\n        /* \"#utility.yul\":9013:9040   */\n      mstore\n        /* \"#utility.yul\":8899:9047   */\n      pop\n      pop\n      pop\n      jump\t// out\n        /* \"#utility.yul\":9053:9478   */\n    tag_284:\n        /* \"#utility.yul\":9131:9136   */\n      0x00\n        /* \"#utility.yul\":9156:9222   */\n      tag_396\n        /* \"#utility.yul\":9172:9221   */\n      tag_397\n        /* \"#utility.yul\":9214:9220   */\n      dup5\n        /* \"#utility.yul\":9172:9221   */\n      tag_282\n      jump\t// in\n    tag_397:\n        /* \"#utility.yul\":9156:9222   */\n      tag_281\n      jump\t// in\n    tag_396:\n        /* \"#utility.yul\":9147:9222   */\n      swap1\n      pop\n        /* \"#utility.yul\":9245:9251   */\n      dup3\n        /* \"#utility.yul\":9238:9243   */\n      dup2\n        /* \"#utility.yul\":9231:9252   */\n      mstore\n        /* \"#utility.yul\":9283:9287   */\n      0x20\n        /* \"#utility.yul\":9276:9281   */\n      dup2\n        /* \"#utility.yul\":9272:9288   */\n      add\n        /* \"#utility.yul\":9321:9324   */\n      dup5\n        /* \"#utility.yul\":9312:9318   */\n      dup5\n        /* \"#utility.yul\":9307:9310   */\n      dup5\n        /* \"#utility.yul\":9303:9319   */\n      add\n        /* \"#utility.yul\":9300:9325   */\n      gt\n        /* \"#utility.yul\":9297:9409   */\n      iszero\n      tag_398\n      jumpi\n        /* \"#utility.yul\":9328:9407   */\n      tag_399\n      tag_278\n      jump\t// in\n    tag_399:\n        /* \"#utility.yul\":9297:9409   */\n    tag_398:\n        /* \"#utility.yul\":9418:9472   */\n      tag_400\n        /* \"#utility.yul\":9465:9471   */\n      dup5\n        /* \"#utility.yul\":9460:9463   */\n      dup3\n        /* \"#utility.yul\":9455:9458   */\n      dup6\n        /* \"#utility.yul\":9418:9472   */\n      tag_283\n      jump\t// in\n    tag_400:\n        /* \"#utility.yul\":9137:9478   */\n      pop\n        /* \"#utility.yul\":9053:9478   */\n      swap4\n      swap3\n      pop\n      pop\n      pop\n      jump\t// out\n        /* \"#utility.yul\":9498:9838   */\n    tag_285:\n        /* \"#utility.yul\":9554:9559   */\n      0x00\n        /* \"#utility.yul\":9603:9606   */\n      dup3\n        /* \"#utility.yul\":9596:9600   */\n      0x1f\n        /* \"#utility.yul\":9588:9594   */\n      dup4\n        /* \"#utility.yul\":9584:9601   */\n      add\n        /* \"#utility.yul\":9580:9607   */\n      slt\n        /* \"#utility.yul\":9570:9692   */\n      tag_402\n      jumpi\n        /* \"#utility.yul\":9611:9690   */\n      tag_403\n      tag_277\n      jump\t// in\n    tag_403:\n        /* \"#utility.yul\":9570:9692   */\n    tag_402:\n        /* \"#utility.yul\":9728:9734   */\n      dup2\n        /* \"#utility.yul\":9715:9735   */\n      calldataload\n        /* \"#utility.yul\":9753:9832   */\n      tag_404\n        /* \"#utility.yul\":9828:9831   */\n      dup5\n        /* \"#utility.yul\":9820:9826   */\n      dup3\n        /* \"#utility.yul\":9813:9817   */\n      0x20\n        /* \"#utility.yul\":9805:9811   */\n      dup7\n        /* \"#utility.yul\":9801:9818   */\n      add\n        /* \"#utility.yul\":9753:9832   */\n      tag_284\n      jump\t// in\n    tag_404:\n        /* \"#utility.yul\":9744:9832   */\n      swap2\n      pop\n        /* \"#utility.yul\":9560:9838   */\n      pop\n        /* \"#utility.yul\":9498:9838   */\n      swap3\n      swap2\n      pop\n      pop\n      jump\t// out\n        /* \"#utility.yul\":9844:10353   */\n    tag_26:\n        /* \"#utility.yul\":9913:9919   */\n      0x00\n        /* \"#utility.yul\":9962:9964   */\n      0x20\n        /* \"#utility.yul\":9950:9959   */\n      dup3\n        /* \"#utility.yul\":9941:9948   */\n      dup5\n        /* \"#utility.yul\":9937:9960   */\n      sub\n        /* \"#utility.yul\":9933:9965   */\n      slt\n        /* \"#utility.yul\":9930:10049   */\n      iszero\n      tag_406\n      jumpi\n        /* \"#utility.yul\":9968:10047   */\n      tag_407\n      tag_252\n      jump\t// in\n    tag_407:\n        /* \"#utility.yul\":9930:10049   */\n    tag_406:\n        /* \"#utility.yul\":10116:10117   */\n      0x00\n        /* \"#utility.yul\":10105:10114   */\n      dup3\n        /* \"#utility.yul\":10101:10118   */\n      add\n        /* \"#utility.yul\":10088:10119   */\n      calldataload\n        /* \"#utility.yul\":10146:10164   */\n      0xffffffffffffffff\n        /* \"#utility.yul\":10138:10144   */\n      dup2\n        /* \"#utility.yul\":10135:10165   */\n      gt\n        /* \"#utility.yul\":10132:10249   */\n      iszero\n      tag_408\n      jumpi\n        /* \"#utility.yul\":10168:10247   */\n      tag_409\n      tag_253\n      jump\t// in\n    tag_409:\n        /* \"#utility.yul\":10132:10249   */\n    tag_408:\n        /* \"#utility.yul\":10273:10336   */\n      tag_410\n        /* \"#utility.yul\":10328:10335   */\n      dup5\n        /* \"#utility.yul\":10319:10325   */\n      dup3\n        /* \"#utility.yul\":10308:10317   */\n      dup6\n        /* \"#utility.yul\":10304:10326   */\n      add\n        /* \"#utility.yul\":10273:10336   */\n      tag_285\n      jump\t// in\n    tag_410:\n        /* \"#utility.yul\":10263:10336   */\n      swap2\n      pop\n        /* \"#utility.yul\":10059:10346   */\n      pop\n        /* \"#utility.yul\":9844:10353   */\n      swap3\n      swap2\n      pop\n      pop\n      jump\t// out\n        /* \"#utility.yul\":10359:10485   */\n    tag_286:\n        /* \"#utility.yul\":10396:10403   */\n      0x00\n        /* \"#utility.yul\":10436:10478   */\n      0xffffffffffffffffffffffffffffffffffffffff\n        /* \"#utility.yul\":10429:10434   */\n      dup3\n        /* \"#utility.yul\":10425:10479   */\n      and\n        /* \"#utility.yul\":10414:10479   */\n      swap1\n      pop\n        /* \"#utility.yul\":10359:10485   */\n      swap2\n      swap1\n      pop\n      jump\t// out\n        /* \"#utility.yul\":10491:10587   */\n    tag_287:\n        /* \"#utility.yul\":10528:10535   */\n      0x00\n        /* \"#utility.yul\":10557:10581   */\n      tag_413\n        /* \"#utility.yul\":10575:10580   */\n      dup3\n        /* \"#utility.yul\":10557:10581   */\n      tag_286\n      jump\t// in\n    tag_413:\n        /* \"#utility.yul\":10546:10581   */\n      swap1\n      pop\n        /* \"#utility.yul\":10491:10587   */\n      swap2\n      swap1\n      pop\n      jump\t// out\n        /* \"#utility.yul\":10593:10715   */\n    tag_288:\n        /* \"#utility.yul\":10666:10690   */\n      tag_415\n        /* \"#utility.yul\":10684:10689   */\n      dup2\n        /* \"#utility.yul\":10666:10690   */\n      tag_287\n      jump\t// in\n    tag_415:\n        /* \"#utility.yul\":10659:10664   */\n      dup2\n        /* \"#utility.yul\":10656:10691   */\n      eq\n        /* \"#utility.yul\":10646:10709   */\n      tag_416\n      jumpi\n        /* \"#utility.yul\":10705:10706   */\n      0x00\n        /* \"#utility.yul\":10702:10703   */\n      0x00\n        /* \"#utility.yul\":10695:10707   */\n      revert\n        /* \"#utility.yul\":10646:10709   */\n    tag_416:\n        /* \"#utility.yul\":10593:10715   */\n      pop\n      jump\t// out\n        /* \"#utility.yul\":10721:10860   */\n    tag_289:\n        /* \"#utility.yul\":10767:10772   */\n      0x00\n        /* \"#utility.yul\":10805:10811   */\n      dup2\n        /* \"#utility.yul\":10792:10812   */\n      calldataload\n        /* \"#utility.yul\":10783:10812   */\n      swap1\n      pop\n        /* \"#utility.yul\":10821:10854   */\n      tag_418\n        /* \"#utility.yul\":10848:10853   */\n      dup2\n        /* \"#utility.yul\":10821:10854   */\n      tag_288\n      jump\t// in\n    tag_418:\n        /* \"#utility.yul\":10721:10860   */\n      swap3\n      swap2\n      pop\n      pop\n      jump\t// out\n        /* \"#utility.yul\":10866:11195   */\n    tag_30:\n        /* \"#utility.yul\":10925:10931   */\n      0x00\n        /* \"#utility.yul\":10974:10976   */\n      0x20\n        /* \"#utility.yul\":10962:10971   */\n      dup3\n        /* \"#utility.yul\":10953:10960   */\n      dup5\n        /* \"#utility.yul\":10949:10972   */\n      sub\n        /* \"#utility.yul\":10945:10977   */\n      slt\n        /* \"#utility.yul\":10942:11061   */\n      iszero\n      tag_420\n      jumpi\n        /* \"#utility.yul\":10980:11059   */\n      tag_421\n      tag_252\n      jump\t// in\n    tag_421:\n        /* \"#utility.yul\":10942:11061   */\n    tag_420:\n        /* \"#utility.yul\":11100:11101   */\n      0x00\n        /* \"#utility.yul\":11125:11178   */\n      tag_422\n        /* \"#utility.yul\":11170:11177   */\n      dup5\n        /* \"#utility.yul\":11161:11167   */\n      dup3\n        /* \"#utility.yul\":11150:11159   */\n      dup6\n        /* \"#utility.yul\":11146:11168   */\n      add\n        /* \"#utility.yul\":11125:11178   */\n      tag_289\n      jump\t// in\n    tag_422:\n        /* \"#utility.yul\":11115:11178   */\n      swap2\n      pop\n        /* \"#utility.yul\":11071:11188   */\n      pop\n        /* \"#utility.yul\":10866:11195   */\n      swap3\n      swap2\n      pop\n      pop\n      jump\t// out\n        /* \"#utility.yul\":11201:11385   */\n    tag_290:\n        /* \"#utility.yul\":11300:11311   */\n      0x00\n        /* \"#utility.yul\":11334:11340   */\n      dup3\n        /* \"#utility.yul\":11329:11332   */\n      dup3\n        /* \"#utility.yul\":11322:11341   */\n      mstore\n        /* \"#utility.yul\":11374:11378   */\n      0x20\n        /* \"#utility.yul\":11369:11372   */\n      dup3\n        /* \"#utility.yul\":11365:11379   */\n      add\n        /* \"#utility.yul\":11350:11379   */\n      swap1\n      pop\n        /* \"#utility.yul\":11201:11385   */\n      swap3\n      swap2\n      pop\n      pop\n      jump\t// out\n        /* \"#utility.yul\":11421:12153   */\n    tag_291:\n        /* \"#utility.yul\":11540:11543   */\n      0x00\n        /* \"#utility.yul\":11569:11623   */\n      tag_425\n        /* \"#utility.yul\":11617:11622   */\n      dup3\n        /* \"#utility.yul\":11569:11623   */\n      tag_270\n      jump\t// in\n    tag_425:\n        /* \"#utility.yul\":11639:11725   */\n      tag_426\n        /* \"#utility.yul\":11718:11724   */\n      dup2\n        /* \"#utility.yul\":11713:11716   */\n      dup6\n        /* \"#utility.yul\":11639:11725   */\n      tag_290\n      jump\t// in\n    tag_426:\n        /* \"#utility.yul\":11632:11725   */\n      swap4\n      pop\n        /* \"#utility.yul\":11749:11805   */\n      tag_427\n        /* \"#utility.yul\":11799:11804   */\n      dup4\n        /* \"#utility.yul\":11749:11805   */\n      tag_272\n      jump\t// in\n    tag_427:\n        /* \"#utility.yul\":11828:11835   */\n      dup1\n        /* \"#utility.yul\":11859:11860   */\n      0x00\n        /* \"#utility.yul\":11844:12128   */\n    tag_428:\n        /* \"#utility.yul\":11869:11875   */\n      dup4\n        /* \"#utility.yul\":11866:11867   */\n      dup2\n        /* \"#utility.yul\":11863:11876   */\n      lt\n        /* \"#utility.yul\":11844:12128   */\n      iszero\n      tag_430\n      jumpi\n        /* \"#utility.yul\":11945:11951   */\n      dup2\n        /* \"#utility.yul\":11939:11952   */\n      mload\n        /* \"#utility.yul\":11972:12035   */\n      tag_431\n        /* \"#utility.yul\":12031:12034   */\n      dup9\n        /* \"#utility.yul\":12016:12029   */\n      dup3\n        /* \"#utility.yul\":11972:12035   */\n      tag_273\n      jump\t// in\n    tag_431:\n        /* \"#utility.yul\":11965:12035   */\n      swap8\n      pop\n        /* \"#utility.yul\":12058:12118   */\n      tag_432\n        /* \"#utility.yul\":12111:12117   */\n      dup4\n        /* \"#utility.yul\":12058:12118   */\n      tag_274\n      jump\t// in\n    tag_432:\n        /* \"#utility.yul\":12048:12118   */\n      swap3\n      pop\n        /* \"#utility.yul\":11904:12128   */\n      pop\n        /* \"#utility.yul\":11891:11892   */\n      0x01\n        /* \"#utility.yul\":11888:11889   */\n      dup2\n        /* \"#utility.yul\":11884:11893   */\n      add\n        /* \"#utility.yul\":11879:11893   */\n      swap1\n      pop\n        /* \"#utility.yul\":11844:12128   */\n      jump(tag_428)\n    tag_430:\n        /* \"#utility.yul\":11848:11862   */\n      pop\n        /* \"#utility.yul\":12144:12147   */\n      dup6\n        /* \"#utility.yul\":12137:12147   */\n      swap4\n      pop\n        /* \"#utility.yul\":11545:12153   */\n      pop\n      pop\n      pop\n        /* \"#utility.yul\":11421:12153   */\n      swap3\n      swap2\n      pop\n      pop\n      jump\t// out\n        /* \"#utility.yul\":12159:12532   */\n    tag_39:\n        /* \"#utility.yul\":12302:12306   */\n      0x00\n        /* \"#utility.yul\":12340:12342   */\n      0x20\n        /* \"#utility.yul\":12329:12338   */\n      dup3\n        /* \"#utility.yul\":12325:12343   */\n      add\n        /* \"#utility.yul\":12317:12343   */\n      swap1\n      pop\n        /* \"#utility.yul\":12389:12398   */\n      dup2\n        /* \"#utility.yul\":12383:12387   */\n      dup2\n        /* \"#utility.yul\":12379:12399   */\n      sub\n        /* \"#utility.yul\":12375:12376   */\n      0x00\n        /* \"#utility.yul\":12364:12373   */\n      dup4\n        /* \"#utility.yul\":12360:12377   */\n      add\n        /* \"#utility.yul\":12353:12400   */\n      mstore\n        /* \"#utility.yul\":12417:12525   */\n      tag_434\n        /* \"#utility.yul\":12520:12524   */\n      dup2\n        /* \"#utility.yul\":12511:12517   */\n      dup5\n        /* \"#utility.yul\":12417:12525   */\n      tag_291\n      jump\t// in\n    tag_434:\n        /* \"#utility.yul\":12409:12525   */\n      swap1\n      pop\n        /* \"#utility.yul\":12159:12532   */\n      swap3\n      swap2\n      pop\n      pop\n      jump\t// out\n        /* \"#utility.yul\":12538:12656   */\n    tag_292:\n        /* \"#utility.yul\":12625:12649   */\n      tag_436\n        /* \"#utility.yul\":12643:12648   */\n      dup2\n        /* \"#utility.yul\":12625:12649   */\n      tag_287\n      jump\t// in\n    tag_436:\n        /* \"#utility.yul\":12620:12623   */\n      dup3\n        /* \"#utility.yul\":12613:12650   */\n      mstore\n        /* \"#utility.yul\":12538:12656   */\n      pop\n      pop\n      jump\t// out\n        /* \"#utility.yul\":12662:12884   */\n    tag_45:\n        /* \"#utility.yul\":12755:12759   */\n      0x00\n        /* \"#utility.yul\":12793:12795   */\n      0x20\n        /* \"#utility.yul\":12782:12791   */\n      dup3\n        /* \"#utility.yul\":12778:12796   */\n      add\n        /* \"#utility.yul\":12770:12796   */\n      swap1\n      pop\n        /* \"#utility.yul\":12806:12877   */\n      tag_438\n        /* \"#utility.yul\":12874:12875   */\n      0x00\n        /* \"#utility.yul\":12863:12872   */\n      dup4\n        /* \"#utility.yul\":12859:12876   */\n      add\n        /* \"#utility.yul\":12850:12856   */\n      dup5\n        /* \"#utility.yul\":12806:12877   */\n      tag_292\n      jump\t// in\n    tag_438:\n        /* \"#utility.yul\":12662:12884   */\n      swap3\n      swap2\n      pop\n      pop\n      jump\t// out\n        /* \"#utility.yul\":12890:13070   */\n    tag_57:\n        /* \"#utility.yul\":12938:13015   */\n      0x4e487b7100000000000000000000000000000000000000000000000000000000\n        /* \"#utility.yul\":12935:12936   */\n      0x00\n        /* \"#utility.yul\":12928:13016   */\n      mstore\n        /* \"#utility.yul\":13035:13039   */\n      0x21\n        /* \"#utility.yul\":13032:13033   */\n      0x04\n        /* \"#utility.yul\":13025:13040   */\n      mstore\n        /* \"#utility.yul\":13059:13063   */\n      0x24\n        /* \"#utility.yul\":13056:13057   */\n      0x00\n        /* \"#utility.yul\":13049:13064   */\n      revert\n        /* \"#utility.yul\":13076:13199   */\n    tag_293:\n        /* \"#utility.yul\":13167:13168   */\n      0x06\n        /* \"#utility.yul\":13160:13165   */\n      dup2\n        /* \"#utility.yul\":13157:13169   */\n      lt\n        /* \"#utility.yul\":13147:13193   */\n      tag_441\n      jumpi\n        /* \"#utility.yul\":13173:13191   */\n      tag_442\n      tag_57\n      jump\t// in\n    tag_442:\n        /* \"#utility.yul\":13147:13193   */\n    tag_441:\n        /* \"#utility.yul\":13076:13199   */\n      pop\n      jump\t// out\n        /* \"#utility.yul\":13205:13352   */\n    tag_294:\n        /* \"#utility.yul\":13260:13267   */\n      0x00\n        /* \"#utility.yul\":13289:13294   */\n      dup2\n        /* \"#utility.yul\":13278:13294   */\n      swap1\n      pop\n        /* \"#utility.yul\":13295:13346   */\n      tag_444\n        /* \"#utility.yul\":13340:13345   */\n      dup3\n        /* \"#utility.yul\":13295:13346   */\n      tag_293\n      jump\t// in\n    tag_444:\n        /* \"#utility.yul\":13205:13352   */\n      swap2\n      swap1\n      pop\n      jump\t// out\n        /* \"#utility.yul\":13358:13505   */\n    tag_295:\n        /* \"#utility.yul\":13424:13433   */\n      0x00\n        /* \"#utility.yul\":13457:13499   */\n      tag_446\n        /* \"#utility.yul\":13493:13498   */\n      dup3\n        /* \"#utility.yul\":13457:13499   */\n      tag_294\n      jump\t// in\n    tag_446:\n        /* \"#utility.yul\":13444:13499   */\n      swap1\n      pop\n        /* \"#utility.yul\":13358:13505   */\n      swap2\n      swap1\n      pop\n      jump\t// out\n        /* \"#utility.yul\":13511:13674   */\n    tag_296:\n        /* \"#utility.yul\":13614:13667   */\n      tag_448\n        /* \"#utility.yul\":13661:13666   */\n      dup2\n        /* \"#utility.yul\":13614:13667   */\n      tag_295\n      jump\t// in\n    tag_448:\n        /* \"#utility.yul\":13609:13612   */\n      dup3\n        /* \"#utility.yul\":13602:13668   */\n      mstore\n        /* \"#utility.yul\":13511:13674   */\n      pop\n      pop\n      jump\t// out\n        /* \"#utility.yul\":13680:14076   */\n    tag_62:\n        /* \"#utility.yul\":13833:13837   */\n      0x00\n        /* \"#utility.yul\":13871:13873   */\n      0x40\n        /* \"#utility.yul\":13860:13869   */\n      dup3\n        /* \"#utility.yul\":13856:13874   */\n      add\n        /* \"#utility.yul\":13848:13874   */\n      swap1\n      pop\n        /* \"#utility.yul\":13884:13971   */\n      tag_450\n        /* \"#utility.yul\":13968:13969   */\n      0x00\n        /* \"#utility.yul\":13957:13966   */\n      dup4\n        /* \"#utility.yul\":13953:13970   */\n      add\n        /* \"#utility.yul\":13944:13950   */\n      dup6\n        /* \"#utility.yul\":13884:13971   */\n      tag_296\n      jump\t// in\n    tag_450:\n        /* \"#utility.yul\":13981:14069   */\n      tag_451\n        /* \"#utility.yul\":14065:14067   */\n      0x20\n        /* \"#utility.yul\":14054:14063   */\n      dup4\n        /* \"#utility.yul\":14050:14068   */\n      add\n        /* \"#utility.yul\":14041:14047   */\n      dup5\n        /* \"#utility.yul\":13981:14069   */\n      tag_296\n      jump\t// in\n    tag_451:\n        /* \"#utility.yul\":13680:14076   */\n      swap4\n      swap3\n      pop\n      pop\n      pop\n      jump\t// out\n        /* \"#utility.yul\":14082:14262   */\n    tag_67:\n        /* \"#utility.yul\":14130:14207   */\n      0x4e487b7100000000000000000000000000000000000000000000000000000000\n        /* \"#utility.yul\":14127:14128   */\n      0x00\n        /* \"#utility.yul\":14120:14208   */\n      mstore\n        /* \"#utility.yul\":14227:14231   */\n      0x32\n        /* \"#utility.yul\":14224:14225   */\n      0x04\n        /* \"#utility.yul\":14217:14232   */\n      mstore\n        /* \"#utility.yul\":14251:14255   */\n      0x24\n        /* \"#utility.yul\":14248:14249   */\n      0x00\n        /* \"#utility.yul\":14241:14256   */\n      revert\n        /* \"#utility.yul\":14268:14448   */\n    tag_297:\n        /* \"#utility.yul\":14316:14393   */\n      0x4e487b7100000000000000000000000000000000000000000000000000000000\n        /* \"#utility.yul\":14313:14314   */\n      0x00\n        /* \"#utility.yul\":14306:14394   */\n      mstore\n        /* \"#utility.yul\":14413:14417   */\n      0x11\n        /* \"#utility.yul\":14410:14411   */\n      0x04\n        /* \"#utility.yul\":14403:14418   */\n      mstore\n        /* \"#utility.yul\":14437:14441   */\n      0x24\n        /* \"#utility.yul\":14434:14435   */\n      0x00\n        /* \"#utility.yul\":14427:14442   */\n      revert\n        /* \"#utility.yul\":14454:14645   */\n    tag_70:\n        /* \"#utility.yul\":14494:14497   */\n      0x00\n        /* \"#utility.yul\":14513:14533   */\n      tag_455\n        /* \"#utility.yul\":14531:14532   */\n      dup3\n        /* \"#utility.yul\":14513:14533   */\n      tag_254\n      jump\t// in\n    tag_455:\n        /* \"#utility.yul\":14508:14533   */\n      swap2\n      pop\n        /* \"#utility.yul\":14547:14567   */\n      tag_456\n        /* \"#utility.yul\":14565:14566   */\n      dup4\n        /* \"#utility.yul\":14547:14567   */\n      tag_254\n      jump\t// in\n    tag_456:\n        /* \"#utility.yul\":14542:14567   */\n      swap3\n      pop\n        /* \"#utility.yul\":14590:14591   */\n      dup3\n        /* \"#utility.yul\":14587:14588   */\n      dup3\n        /* \"#utility.yul\":14583:14592   */\n      add\n        /* \"#utility.yul\":14576:14592   */\n      swap1\n      pop\n        /* \"#utility.yul\":14611:14614   */\n      dup1\n        /* \"#utility.yul\":14608:14609   */\n      dup3\n        /* \"#utility.yul\":14605:14615   */\n      gt\n        /* \"#utility.yul\":14602:14638   */\n      iszero\n      tag_457\n      jumpi\n        /* \"#utility.yul\":14618:14636   */\n      tag_458\n      tag_297\n      jump\t// in\n    tag_458:\n        /* \"#utility.yul\":14602:14638   */\n    tag_457:\n        /* \"#utility.yul\":14454:14645   */\n      swap3\n      swap2\n      pop\n      pop\n      jump\t// out\n        /* \"#utility.yul\":14651:14769   */\n    tag_298:\n        /* \"#utility.yul\":14738:14762   */\n      tag_460\n        /* \"#utility.yul\":14756:14761   */\n      dup2\n        /* \"#utility.yul\":14738:14762   */\n      tag_254\n      jump\t// in\n    tag_460:\n        /* \"#utility.yul\":14733:14736   */\n      dup3\n        /* \"#utility.yul\":14726:14763   */\n      mstore\n        /* \"#utility.yul\":14651:14769   */\n      pop\n      pop\n      jump\t// out\n        /* \"#utility.yul\":14775:15107   */\n    tag_73:\n        /* \"#utility.yul\":14896:14900   */\n      0x00\n        /* \"#utility.yul\":14934:14936   */\n      0x40\n        /* \"#utility.yul\":14923:14932   */\n      dup3\n        /* \"#utility.yul\":14919:14937   */\n      add\n        /* \"#utility.yul\":14911:14937   */\n      swap1\n      pop\n        /* \"#utility.yul\":14947:15018   */\n      tag_462\n        /* \"#utility.yul\":15015:15016   */\n      0x00\n        /* \"#utility.yul\":15004:15013   */\n      dup4\n        /* \"#utility.yul\":15000:15017   */\n      add\n        /* \"#utility.yul\":14991:14997   */\n      dup6\n        /* \"#utility.yul\":14947:15018   */\n      tag_292\n      jump\t// in\n    tag_462:\n        /* \"#utility.yul\":15028:15100   */\n      tag_463\n        /* \"#utility.yul\":15096:15098   */\n      0x20\n        /* \"#utility.yul\":15085:15094   */\n      dup4\n        /* \"#utility.yul\":15081:15099   */\n      add\n        /* \"#utility.yul\":15072:15078   */\n      dup5\n        /* \"#utility.yul\":15028:15100   */\n      tag_298\n      jump\t// in\n    tag_463:\n        /* \"#utility.yul\":14775:15107   */\n      swap4\n      swap3\n      pop\n      pop\n      pop\n      jump\t// out\n        /* \"#utility.yul\":15113:15293   */\n    tag_299:\n        /* \"#utility.yul\":15161:15238   */\n      0x4e487b7100000000000000000000000000000000000000000000000000000000\n        /* \"#utility.yul\":15158:15159   */\n      0x00\n        /* \"#utility.yul\":15151:15239   */\n      mstore\n        /* \"#utility.yul\":15258:15262   */\n      0x22\n        /* \"#utility.yul\":15255:15256   */\n      0x04\n        /* \"#utility.yul\":15248:15263   */\n      mstore\n        /* \"#utility.yul\":15282:15286   */\n      0x24\n        /* \"#utility.yul\":15279:15280   */\n      0x00\n        /* \"#utility.yul\":15272:15287   */\n      revert\n        /* \"#utility.yul\":15299:15619   */\n    tag_85:\n        /* \"#utility.yul\":15343:15349   */\n      0x00\n        /* \"#utility.yul\":15380:15381   */\n      0x02\n        /* \"#utility.yul\":15374:15378   */\n      dup3\n        /* \"#utility.yul\":15370:15382   */\n      div\n        /* \"#utility.yul\":15360:15382   */\n      swap1\n      pop\n        /* \"#utility.yul\":15427:15428   */\n      0x01\n        /* \"#utility.yul\":15421:15425   */\n      dup3\n        /* \"#utility.yul\":15417:15429   */\n      and\n        /* \"#utility.yul\":15448:15466   */\n      dup1\n        /* \"#utility.yul\":15438:15519   */\n      tag_466\n      jumpi\n        /* \"#utility.yul\":15504:15508   */\n      0x7f\n        /* \"#utility.yul\":15496:15502   */\n      dup3\n        /* \"#utility.yul\":15492:15509   */\n      and\n        /* \"#utility.yul\":15482:15509   */\n      swap2\n      pop\n        /* \"#utility.yul\":15438:15519   */\n    tag_466:\n        /* \"#utility.yul\":15566:15568   */\n      0x20\n        /* \"#utility.yul\":15558:15564   */\n      dup3\n        /* \"#utility.yul\":15555:15569   */\n      lt\n        /* \"#utility.yul\":15535:15553   */\n      dup2\n        /* \"#utility.yul\":15532:15570   */\n      sub\n        /* \"#utility.yul\":15529:15613   */\n      tag_467\n      jumpi\n        /* \"#utility.yul\":15585:15603   */\n      tag_468\n      tag_299\n      jump\t// in\n    tag_468:\n        /* \"#utility.yul\":15529:15613   */\n    tag_467:\n        /* \"#utility.yul\":15350:15619   */\n      pop\n        /* \"#utility.yul\":15299:15619   */\n      swap2\n      swap1\n      pop\n      jump\t// out\n        /* \"#utility.yul\":15625:15766   */\n    tag_300:\n        /* \"#utility.yul\":15674:15678   */\n      0x00\n        /* \"#utility.yul\":15697:15700   */\n      dup2\n        /* \"#utility.yul\":15689:15700   */\n      swap1\n      pop\n        /* \"#utility.yul\":15720:15723   */\n      dup2\n        /* \"#utility.yul\":15717:15718   */\n      0x00\n        /* \"#utility.yul\":15710:15724   */\n      mstore\n        /* \"#utility.yul\":15754:15758   */\n      0x20\n        /* \"#utility.yul\":15751:15752   */\n      0x00\n        /* \"#utility.yul\":15741:15759   */\n      keccak256\n        /* \"#utility.yul\":15733:15759   */\n      swap1\n      pop\n        /* \"#utility.yul\":15625:15766   */\n      swap2\n      swap1\n      pop\n      jump\t// out\n        /* \"#utility.yul\":15772:15865   */\n    tag_301:\n        /* \"#utility.yul\":15809:15815   */\n      0x00\n        /* \"#utility.yul\":15856:15858   */\n      0x20\n        /* \"#utility.yul\":15851:15853   */\n      0x1f\n        /* \"#utility.yul\":15844:15849   */\n      dup4\n        /* \"#utility.yul\":15840:15854   */\n      add\n        /* \"#utility.yul\":15836:15859   */\n      div\n        /* \"#utility.yul\":15826:15859   */\n      swap1\n      pop\n        /* \"#utility.yul\":15772:15865   */\n      swap2\n      swap1\n      pop\n      jump\t// out\n        /* \"#utility.yul\":15871:15978   */\n    tag_302:\n        /* \"#utility.yul\":15915:15923   */\n      0x00\n        /* \"#utility.yul\":15965:15970   */\n      dup3\n        /* \"#utility.yul\":15959:15963   */\n      dup3\n        /* \"#utility.yul\":15955:15971   */\n      shl\n        /* \"#utility.yul\":15934:15971   */\n      swap1\n      pop\n        /* \"#utility.yul\":15871:15978   */\n      swap3\n      swap2\n      pop\n      pop\n      jump\t// out\n        /* \"#utility.yul\":15984:16377   */\n    tag_303:\n        /* \"#utility.yul\":16053:16059   */\n      0x00\n        /* \"#utility.yul\":16103:16104   */\n      0x08\n        /* \"#utility.yul\":16091:16101   */\n      dup4\n        /* \"#utility.yul\":16087:16105   */\n      mul\n        /* \"#utility.yul\":16126:16223   */\n      tag_473\n        /* \"#utility.yul\":16156:16222   */\n      0xffffffffffffffffffffffffffffffffffffffffffffffffffffffffffffffff\n        /* \"#utility.yul\":16145:16154   */\n      dup3\n        /* \"#utility.yul\":16126:16223   */\n      tag_302\n      jump\t// in\n    tag_473:\n        /* \"#utility.yul\":16244:16283   */\n      tag_474\n        /* \"#utility.yul\":16274:16282   */\n      dup7\n        /* \"#utility.yul\":16263:16272   */\n      dup4\n        /* \"#utility.yul\":16244:16283   */\n      tag_302\n      jump\t// in\n    tag_474:\n        /* \"#utility.yul\":16232:16283   */\n      swap6\n      pop\n        /* \"#utility.yul\":16316:16320   */\n      dup1\n        /* \"#utility.yul\":16312:16321   */\n      not\n        /* \"#utility.yul\":16305:16310   */\n      dup5\n        /* \"#utility.yul\":16301:16322   */\n      and\n        /* \"#utility.yul\":16292:16322   */\n      swap4\n      pop\n        /* \"#utility.yul\":16365:16369   */\n      dup1\n        /* \"#utility.yul\":16355:16363   */\n      dup7\n        /* \"#utility.yul\":16351:16370   */\n      and\n        /* \"#utility.yul\":16344:16349   */\n      dup5\n        /* \"#utility.yul\":16341:16371   */\n      or\n        /* \"#utility.yul\":16331:16371   */\n      swap3\n      pop\n        /* \"#utility.yul\":16060:16377   */\n      pop\n      pop\n        /* \"#utility.yul\":15984:16377   */\n      swap4\n      swap3\n      pop\n      pop\n      pop\n      jump\t// out\n        /* \"#utility.yul\":16383:16443   */\n    tag_304:\n        /* \"#utility.yul\":16411:16414   */\n      0x00\n        /* \"#utility.yul\":16432:16437   */\n      dup2\n        /* \"#utility.yul\":16425:16437   */\n      swap1\n      pop\n        /* \"#utility.yul\":16383:16443   */\n      swap2\n      swap1\n      pop\n      jump\t// out\n        /* \"#utility.yul\":16449:16591   */\n    tag_305:\n        /* \"#utility.yul\":16499:16508   */\n      0x00\n        /* \"#utility.yul\":16532:16585   */\n      tag_477\n        /* \"#utility.yul\":16550:16584   */\n      tag_478\n        /* \"#utility.yul\":16559:16583   */\n      tag_479\n        /* \"#utility.yul\":16577:16582   */\n      dup5\n        /* \"#utility.yul\":16559:16583   */\n      tag_254\n      jump\t// in\n    tag_479:\n        /* \"#utility.yul\":16550:16584   */\n      tag_304\n      jump\t// in\n    tag_478:\n        /* \"#utility.yul\":16532:16585   */\n      tag_254\n      jump\t// in\n    tag_477:\n        /* \"#utility.yul\":16519:16585   */\n      swap1\n      pop\n        /* \"#utility.yul\":16449:16591   */\n      swap2\n      swap1\n      pop\n      jump\t// out\n        /* \"#utility.yul\":16597:16672   */\n    tag_306:\n        /* \"#utility.yul\":16640:16643   */\n      0x00\n        /* \"#utility.yul\":16661:16666   */\n      dup2\n        /* \"#utility.yul\":16654:16666   */\n      swap1\n      pop\n        /* \"#utility.yul\":16597:16672   */\n      swap2\n      swap1\n      pop\n      jump\t// out\n        /* \"#utility.yul\":16678:16947   */\n    tag_307:\n        /* \"#utility.yul\":16788:16827   */\n      tag_482\n        /* \"#utility.yul\":16819:16826   */\n      dup4\n        /* \"#utility.yul\":16788:16827   */\n      tag_305\n      jump\t// in\n    tag_482:\n        /* \"#utility.yul\":16849:16940   */\n      tag_483\n        /* \"#utility.yul\":16898:16939   */\n      tag_484\n        /* \"#utility.yul\":16922:16938   */\n      dup3\n        /* \"#utility.yul\":16898:16939   */\n      tag_306\n      jump\t// in\n    tag_484:\n        /* \"#utility.yul\":16890:16896   */\n      dup5\n        /* \"#utility.yul\":16883:16887   */\n      dup5\n        /* \"#utility.yul\":16877:16888   */\n      sload\n        /* \"#utility.yul\":16849:16940   */\n      tag_303\n      jump\t// in\n    tag_483:\n        /* \"#utility.yul\":16843:16847   */\n      dup3\n        /* \"#utility.yul\":16836:16941   */\n      sstore\n        /* \"#utility.yul\":16754:16947   */\n      pop\n        /* \"#utility.yul\":16678:16947   */\n      pop\n      pop\n      pop\n      jump\t// out\n        /* \"#utility.yul\":16953:17026   */\n    tag_308:\n        /* \"#utility.yul\":16998:17001   */\n      0x00\n        /* \"#utility.yul\":17019:17020   */\n      0x00\n        /* \"#utility.yul\":17012:17020   */\n      swap1\n      pop\n        /* \"#utility.yul\":16953:17026   */\n      swap1\n      jump\t// out\n        /* \"#utility.yul\":17032:17221   */\n    tag_309:\n        /* \"#utility.yul\":17109:17141   */\n      tag_487\n      tag_308\n      jump\t// in\n    tag_487:\n        /* \"#utility.yul\":17150:17215   */\n      tag_488\n        /* \"#utility.yul\":17208:17214   */\n      dup2\n        /* \"#utility.yul\":17200:17206   */\n      dup5\n        /* \"#utility.yul\":17194:17198   */\n      dup5\n        /* \"#utility.yul\":17150:17215   */\n      tag_307\n      jump\t// in\n    tag_488:\n        /* \"#utility.yul\":17085:17221   */\n      pop\n        /* \"#utility.yul\":17032:17221   */\n      pop\n      pop\n      jump\t// out\n        /* \"#utility.yul\":17227:17413   */\n    tag_310:\n        /* \"#utility.yul\":17287:17407   */\n    tag_490:\n        /* \"#utility.yul\":17304:17307   */\n      dup2\n        /* \"#utility.yul\":17297:17302   */\n      dup2\n        /* \"#utility.yul\":17294:17308   */\n      lt\n        /* \"#utility.yul\":17287:17407   */\n      iszero\n      tag_492\n      jumpi\n        /* \"#utility.yul\":17358:17397   */\n      tag_493\n        /* \"#utility.yul\":17395:17396   */\n      0x00\n        /* \"#utility.yul\":17388:17393   */\n      dup3\n        /* \"#utility.yul\":17358:17397   */\n      tag_309\n      jump\t// in\n    tag_493:\n        /* \"#utility.yul\":17331:17332   */\n      0x01\n        /* \"#utility.yul\":17324:17329   */\n      dup2\n        /* \"#utility.yul\":17320:17333   */\n      add\n        /* \"#utility.yul\":17311:17333   */\n      swap1\n      pop\n        /* \"#utility.yul\":17287:17407   */\n      jump(tag_490)\n    tag_492:\n        /* \"#utility.yul\":17227:17413   */\n      pop\n      pop\n      jump\t// out\n        /* \"#utility.yul\":17419:17962   */\n    tag_311:\n        /* \"#utility.yul\":17520:17522   */\n      0x1f\n        /* \"#utility.yul\":17515:17518   */\n      dup3\n        /* \"#utility.yul\":17512:17523   */\n      gt\n        /* \"#utility.yul\":17509:17955   */\n      iszero\n      tag_495\n      jumpi\n        /* \"#utility.yul\":17554:17592   */\n      tag_496\n        /* \"#utility.yul\":17586:17591   */\n      dup2\n        /* \"#utility.yul\":17554:17592   */\n      tag_300\n      jump\t// in\n    tag_496:\n        /* \"#utility.yul\":17638:17667   */\n      tag_497\n        /* \"#utility.yul\":17656:17666   */\n      dup5\n        /* \"#utility.yul\":17638:17667   */\n      tag_301\n      jump\t// in\n    tag_497:\n        /* \"#utility.yul\":17628:17636   */\n      dup2\n        /* \"#utility.yul\":17624:17668   */\n      add\n        /* \"#utility.yul\":17821:17823   */\n      0x20\n        /* \"#utility.yul\":17809:17819   */\n      dup6\n        /* \"#utility.yul\":17806:17824   */\n      lt\n        /* \"#utility.yul\":17803:17852   */\n      iszero\n      tag_498\n      jumpi\n        /* \"#utility.yul\":17842:17850   */\n      dup2\n        /* \"#utility.yul\":17827:17850   */\n      swap1\n      pop\n        /* \"#utility.yul\":17803:17852   */\n    tag_498:\n        /* \"#utility.yul\":17865:17945   */\n      tag_499\n        /* \"#utility.yul\":17921:17943   */\n      tag_500\n        /* \"#utility.yul\":17939:17942   */\n      dup6\n        /* \"#utility.yul\":17921:17943   */\n      tag_301\n      jump\t// in\n    tag_500:\n        /* \"#utility.yul\":17911:17919   */\n      dup4\n        /* \"#utility.yul\":17907:17944   */\n      add\n        /* \"#utility.yul\":17894:17905   */\n      dup3\n        /* \"#utility.yul\":17865:17945   */\n      tag_310\n      jump\t// in\n    tag_499:\n        /* \"#utility.yul\":17524:17955   */\n      pop\n      pop\n        /* \"#utility.yul\":17509:17955   */\n    tag_495:\n        /* \"#utility.yul\":17419:17962   */\n      pop\n      pop\n      pop\n      jump\t// out\n        /* \"#utility.yul\":17968:18085   */\n    tag_312:\n        /* \"#utility.yul\":18022:18030   */\n      0x00\n        /* \"#utility.yul\":18072:18077   */\n      dup3\n        /* \"#utility.yul\":18066:18070   */\n      dup3\n        /* \"#utility.yul\":18062:18078   */\n      shr\n        /* \"#utility.yul\":18041:18078   */\n      swap1\n      pop\n        /* \"#utility.yul\":17968:18085   */\n      swap3\n      swap2\n      pop\n      pop\n      jump\t// out\n        /* \"#utility.yul\":18091:18260   */\n    tag_313:\n        /* \"#utility.yul\":18135:18141   */\n      0x00\n        /* \"#utility.yul\":18168:18219   */\n      tag_503\n        /* \"#utility.yul\":18216:18217   */\n      0x00\n        /* \"#utility.yul\":18212:18218   */\n      not\n        /* \"#utility.yul\":18204:18209   */\n      dup5\n        /* \"#utility.yul\":18201:18202   */\n      0x08\n        /* \"#utility.yul\":18197:18210   */\n      mul\n        /* \"#utility.yul\":18168:18219   */\n      tag_312\n      jump\t// in\n    tag_503:\n        /* \"#utility.yul\":18164:18220   */\n      not\n        /* \"#utility.yul\":18249:18253   */\n      dup1\n        /* \"#utility.yul\":18243:18247   */\n      dup4\n        /* \"#utility.yul\":18239:18254   */\n      and\n        /* \"#utility.yul\":18229:18254   */\n      swap2\n      pop\n        /* \"#utility.yul\":18142:18260   */\n      pop\n        /* \"#utility.yul\":18091:18260   */\n      swap3\n      swap2\n      pop\n      pop\n      jump\t// out\n        /* \"#utility.yul\":18265:18560   */\n    tag_314:\n        /* \"#utility.yul\":18341:18345   */\n      0x00\n        /* \"#utility.yul\":18487:18516   */\n      tag_505\n        /* \"#utility.yul\":18512:18515   */\n      dup4\n        /* \"#utility.yul\":18506:18510   */\n      dup4\n        /* \"#utility.yul\":18487:18516   */\n      tag_313\n      jump\t// in\n    tag_505:\n        /* \"#utility.yul\":18479:18516   */\n      swap2\n      pop\n        /* \"#utility.yul\":18549:18552   */\n      dup3\n        /* \"#utility.yul\":18546:18547   */\n      0x02\n        /* \"#utility.yul\":18542:18553   */\n      mul\n        /* \"#utility.yul\":18536:18540   */\n      dup3\n        /* \"#utility.yul\":18533:18554   */\n      or\n        /* \"#utility.yul\":18525:18554   */\n      swap1\n      pop\n        /* \"#utility.yul\":18265:18560   */\n      swap3\n      swap2\n      pop\n      pop\n      jump\t// out\n        /* \"#utility.yul\":18565:19960   */\n    tag_103:\n        /* \"#utility.yul\":18682:18719   */\n      tag_507\n        /* \"#utility.yul\":18715:18718   */\n      dup3\n        /* \"#utility.yul\":18682:18719   */\n      tag_261\n      jump\t// in\n    tag_507:\n        /* \"#utility.yul\":18784:18802   */\n      0xffffffffffffffff\n        /* \"#utility.yul\":18776:18782   */\n      dup2\n        /* \"#utility.yul\":18773:18803   */\n      gt\n        /* \"#utility.yul\":18770:18826   */\n      iszero\n      tag_508\n      jumpi\n        /* \"#utility.yul\":18806:18824   */\n      tag_509\n      tag_279\n      jump\t// in\n    tag_509:\n        /* \"#utility.yul\":18770:18826   */\n    tag_508:\n        /* \"#utility.yul\":18850:18888   */\n      tag_510\n        /* \"#utility.yul\":18882:18886   */\n      dup3\n        /* \"#utility.yul\":18876:18887   */\n      sload\n        /* \"#utility.yul\":18850:18888   */\n      tag_85\n      jump\t// in\n    tag_510:\n        /* \"#utility.yul\":18935:19002   */\n      tag_511\n        /* \"#utility.yul\":18995:19001   */\n      dup3\n        /* \"#utility.yul\":18987:18993   */\n      dup3\n        /* \"#utility.yul\":18981:18985   */\n      dup6\n        /* \"#utility.yul\":18935:19002   */\n      tag_311\n      jump\t// in\n    tag_511:\n        /* \"#utility.yul\":19029:19030   */\n      0x00\n        /* \"#utility.yul\":19053:19057   */\n      0x20\n        /* \"#utility.yul\":19040:19057   */\n      swap1\n      pop\n        /* \"#utility.yul\":19085:19087   */\n      0x1f\n        /* \"#utility.yul\":19077:19083   */\n      dup4\n        /* \"#utility.yul\":19074:19088   */\n      gt\n        /* \"#utility.yul\":19102:19103   */\n      0x01\n        /* \"#utility.yul\":19097:19715   */\n      dup2\n      eq\n      tag_513\n      jumpi\n        /* \"#utility.yul\":19759:19760   */\n      0x00\n        /* \"#utility.yul\":19776:19782   */\n      dup5\n        /* \"#utility.yul\":19773:19850   */\n      iszero\n      tag_514\n      jumpi\n        /* \"#utility.yul\":19825:19834   */\n      dup3\n        /* \"#utility.yul\":19820:19823   */\n      dup8\n        /* \"#utility.yul\":19816:19835   */\n      add\n        /* \"#utility.yul\":19810:19836   */\n      mload\n        /* \"#utility.yul\":19801:19836   */\n      swap1\n      pop\n        /* \"#utility.yul\":19773:19850   */\n    tag_514:\n        /* \"#utility.yul\":19876:19943   */\n      tag_515\n        /* \"#utility.yul\":19936:19942   */\n      dup6\n        /* \"#utility.yul\":19929:19934   */\n      dup3\n        /* \"#utility.yul\":19876:19943   */\n      tag_314\n      jump\t// in\n    tag_515:\n        /* \"#utility.yul\":19870:19874   */\n      dup7\n        /* \"#utility.yul\":19863:19944   */\n      sstore\n        /* \"#utility.yul\":19732:19954   */\n      pop\n        /* \"#utility.yul\":19067:19954   */\n      jump(tag_512)\n        /* \"#utility.yul\":19097:19715   */\n    tag_513:\n        /* \"#utility.yul\":19149:19153   */\n      0x1f\n        /* \"#utility.yul\":19145:19154   */\n      not\n        /* \"#utility.yul\":19137:19143   */\n      dup5\n        /* \"#utility.yul\":19133:19155   */\n      and\n        /* \"#utility.yul\":19183:19220   */\n      tag_516\n        /* \"#utility.yul\":19215:19219   */\n      dup7\n        /* \"#utility.yul\":19183:19220   */\n      tag_300\n      jump\t// in\n    tag_516:\n        /* \"#utility.yul\":19242:19243   */\n      0x00\n        /* \"#utility.yul\":19256:19464   */\n    tag_517:\n        /* \"#utility.yul\":19270:19277   */\n      dup3\n        /* \"#utility.yul\":19267:19268   */\n      dup2\n        /* \"#utility.yul\":19264:19278   */\n      lt\n        /* \"#utility.yul\":19256:19464   */\n      iszero\n      tag_519\n      jumpi\n        /* \"#utility.yul\":19349:19358   */\n      dup5\n        /* \"#utility.yul\":19344:19347   */\n      dup10\n        /* \"#utility.yul\":19340:19359   */\n      add\n        /* \"#utility.yul\":19334:19360   */\n      mload\n        /* \"#utility.yul\":19326:19332   */\n      dup3\n        /* \"#utility.yul\":19319:19361   */\n      sstore\n        /* \"#utility.yul\":19400:19401   */\n      0x01\n        /* \"#utility.yul\":19392:19398   */\n      dup3\n        /* \"#utility.yul\":19388:19402   */\n      add\n        /* \"#utility.yul\":19378:19402   */\n      swap2\n      pop\n        /* \"#utility.yul\":19447:19449   */\n      0x20\n        /* \"#utility.yul\":19436:19445   */\n      dup6\n        /* \"#utility.yul\":19432:19450   */\n      add\n        /* \"#utility.yul\":19419:19450   */\n      swap5\n      pop\n        /* \"#utility.yul\":19293:19297   */\n      0x20\n        /* \"#utility.yul\":19290:19291   */\n      dup2\n        /* \"#utility.yul\":19286:19298   */\n      add\n        /* \"#utility.yul\":19281:19298   */\n      swap1\n      pop\n        /* \"#utility.yul\":19256:19464   */\n      jump(tag_517)\n    tag_519:\n        /* \"#utility.yul\":19492:19498   */\n      dup7\n        /* \"#utility.yul\":19483:19490   */\n      dup4\n        /* \"#utility.yul\":19480:19499   */\n      lt\n        /* \"#utility.yul\":19477:19656   */\n      iszero\n      tag_520\n      jumpi\n        /* \"#utility.yul\":19550:19559   */\n      dup5\n        /* \"#utility.yul\":19545:19548   */\n      dup10\n        /* \"#utility.yul\":19541:19560   */\n      add\n        /* \"#utility.yul\":19535:19561   */\n      mload\n        /* \"#utility.yul\":19593:19641   */\n      tag_521\n        /* \"#utility.yul\":19635:19639   */\n      0x1f\n        /* \"#utility.yul\":19627:19633   */\n      dup10\n        /* \"#utility.yul\":19623:19640   */\n      and\n        /* \"#utility.yul\":19612:19621   */\n      dup3\n        /* \"#utility.yul\":19593:19641   */\n      tag_313\n      jump\t// in\n    tag_521:\n        /* \"#utility.yul\":19585:19591   */\n      dup4\n        /* \"#utility.yul\":19578:19642   */\n      sstore\n        /* \"#utility.yul\":19500:19656   */\n      pop\n        /* \"#utility.yul\":19477:19656   */\n    tag_520:\n        /* \"#utility.yul\":19702:19703   */\n      0x01\n        /* \"#utility.yul\":19698:19699   */\n      0x02\n        /* \"#utility.yul\":19690:19696   */\n      dup9\n        /* \"#utility.yul\":19686:19700   */\n      mul\n        /* \"#utility.yul\":19682:19704   */\n      add\n        /* \"#utility.yul\":19676:19680   */\n      dup9\n        /* \"#utility.yul\":19669:19705   */\n      sstore\n        /* \"#utility.yul\":19104:19715   */\n      pop\n      pop\n      pop\n        /* \"#utility.yul\":19067:19954   */\n    tag_512:\n      pop\n        /* \"#utility.yul\":18657:19960   */\n      pop\n      pop\n      pop\n        /* \"#utility.yul\":18565:19960   */\n      pop\n      pop\n      jump\t// out\n        /* \"#utility.yul\":19966:20160   */\n    tag_105:\n        /* \"#utility.yul\":20006:20010   */\n      0x00\n        /* \"#utility.yul\":20026:20046   */\n      tag_523\n        /* \"#utility.yul\":20044:20045   */\n      dup3\n        /* \"#utility.yul\":20026:20046   */\n      tag_254\n      jump\t// in\n    tag_523:\n        /* \"#utility.yul\":20021:20046   */\n      swap2\n      pop\n        /* \"#utility.yul\":20060:20080   */\n      tag_524\n        /* \"#utility.yul\":20078:20079   */\n      dup4\n        /* \"#utility.yul\":20060:20080   */\n      tag_254\n      jump\t// in\n    tag_524:\n        /* \"#utility.yul\":20055:20080   */\n      swap3\n      pop\n        /* \"#utility.yul\":20104:20105   */\n      dup3\n        /* \"#utility.yul\":20101:20102   */\n      dup3\n        /* \"#utility.yul\":20097:20106   */\n      sub\n        /* \"#utility.yul\":20089:20106   */\n      swap1\n      pop\n        /* \"#utility.yul\":20128:20129   */\n      dup2\n        /* \"#utility.yul\":20122:20126   */\n      dup2\n        /* \"#utility.yul\":20119:20130   */\n      gt\n        /* \"#utility.yul\":20116:20153   */\n      iszero\n      tag_525\n      jumpi\n        /* \"#utility.yul\":20133:20151   */\n      tag_526\n      tag_297\n      jump\t// in\n    tag_526:\n        /* \"#utility.yul\":20116:20153   */\n    tag_525:\n        /* \"#utility.yul\":19966:20160   */\n      swap3\n      swap2\n      pop\n      pop\n      jump\t// out\n        /* \"#utility.yul\":20166:20388   */\n    tag_107:\n        /* \"#utility.yul\":20259:20263   */\n      0x00\n        /* \"#utility.yul\":20297:20299   */\n      0x20\n        /* \"#utility.yul\":20286:20295   */\n      dup3\n        /* \"#utility.yul\":20282:20300   */\n      add\n        /* \"#utility.yul\":20274:20300   */\n      swap1\n      pop\n        /* \"#utility.yul\":20310:20381   */\n      tag_528\n        /* \"#utility.yul\":20378:20379   */\n      0x00\n        /* \"#utility.yul\":20367:20376   */\n      dup4\n        /* \"#utility.yul\":20363:20380   */\n      add\n        /* \"#utility.yul\":20354:20360   */\n      dup5\n        /* \"#utility.yul\":20310:20381   */\n      tag_298\n      jump\t// in\n    tag_528:\n        /* \"#utility.yul\":20166:20388   */\n      swap3\n      swap2\n      pop\n      pop\n      jump\t// out\n        /* \"#utility.yul\":20394:20543   */\n    tag_315:\n        /* \"#utility.yul\":20443:20449   */\n      0x00\n        /* \"#utility.yul\":20477:20482   */\n      dup2\n        /* \"#utility.yul\":20471:20483   */\n      sload\n        /* \"#utility.yul\":20461:20483   */\n      swap1\n      pop\n        /* \"#utility.yul\":20503:20536   */\n      tag_530\n        /* \"#utility.yul\":20529:20535   */\n      dup2\n        /* \"#utility.yul\":20503:20536   */\n      tag_85\n      jump\t// in\n    tag_530:\n        /* \"#utility.yul\":20493:20536   */\n      swap1\n      pop\n        /* \"#utility.yul\":20394:20543   */\n      swap2\n      swap1\n      pop\n      jump\t// out\n        /* \"#utility.yul\":20549:22000   */\n    tag_181:\n        /* \"#utility.yul\":20660:20663   */\n      dup2\n        /* \"#utility.yul\":20654:20658   */\n      dup2\n        /* \"#utility.yul\":20651:20664   */\n      sub\n        /* \"#utility.yul\":20648:20674   */\n      tag_532\n      jumpi\n        /* \"#utility.yul\":20667:20672   */\n      pop\n      pop\n      jump(tag_531)\n        /* \"#utility.yul\":20648:20674   */\n    tag_532:\n        /* \"#utility.yul\":20698:20732   */\n      tag_533\n        /* \"#utility.yul\":20728:20731   */\n      dup3\n        /* \"#utility.yul\":20698:20732   */\n      tag_315\n      jump\t// in\n    tag_533:\n        /* \"#utility.yul\":20797:20815   */\n      0xffffffffffffffff\n        /* \"#utility.yul\":20789:20795   */\n      dup2\n        /* \"#utility.yul\":20786:20816   */\n      gt\n        /* \"#utility.yul\":20783:20839   */\n      iszero\n      tag_534\n      jumpi\n        /* \"#utility.yul\":20819:20837   */\n      tag_535\n      tag_279\n      jump\t// in\n    tag_535:\n        /* \"#utility.yul\":20783:20839   */\n    tag_534:\n        /* \"#utility.yul\":20863:20901   */\n      tag_536\n        /* \"#utility.yul\":20895:20899   */\n      dup3\n        /* \"#utility.yul\":20889:20900   */\n      sload\n        /* \"#utility.yul\":20863:20901   */\n      tag_85\n      jump\t// in\n    tag_536:\n        /* \"#utility.yul\":20948:21015   */\n      tag_537\n        /* \"#utility.yul\":21008:21014   */\n      dup3\n        /* \"#utility.yul\":21000:21006   */\n      dup3\n        /* \"#utility.yul\":20994:20998   */\n      dup6\n        /* \"#utility.yul\":20948:21015   */\n      tag_311\n      jump\t// in\n    tag_537:\n        /* \"#utility.yul\":21042:21043   */\n      0x00\n        /* \"#utility.yul\":21071:21073   */\n      0x1f\n        /* \"#utility.yul\":21063:21069   */\n      dup4\n        /* \"#utility.yul\":21060:21074   */\n      gt\n        /* \"#utility.yul\":21088:21089   */\n      0x01\n        /* \"#utility.yul\":21083:21755   */\n      dup2\n      eq\n      tag_539\n      jumpi\n        /* \"#utility.yul\":21799:21800   */\n      0x00\n        /* \"#utility.yul\":21816:21822   */\n      dup5\n        /* \"#utility.yul\":21813:21890   */\n      iszero\n      tag_540\n      jumpi\n        /* \"#utility.yul\":21865:21874   */\n      dup3\n        /* \"#utility.yul\":21860:21863   */\n      dup8\n        /* \"#utility.yul\":21856:21875   */\n      add\n        /* \"#utility.yul\":21850:21876   */\n      sload\n        /* \"#utility.yul\":21841:21876   */\n      swap1\n      pop\n        /* \"#utility.yul\":21813:21890   */\n    tag_540:\n        /* \"#utility.yul\":21916:21983   */\n      tag_541\n        /* \"#utility.yul\":21976:21982   */\n      dup6\n        /* \"#utility.yul\":21969:21974   */\n      dup3\n        /* \"#utility.yul\":21916:21983   */\n      tag_314\n      jump\t// in\n    tag_541:\n        /* \"#utility.yul\":21910:21914   */\n      dup7\n        /* \"#utility.yul\":21903:21984   */\n      sstore\n        /* \"#utility.yul\":21772:21994   */\n      pop\n        /* \"#utility.yul\":21053:21994   */\n      jump(tag_538)\n        /* \"#utility.yul\":21083:21755   */\n    tag_539:\n        /* \"#utility.yul\":21135:21139   */\n      0x1f\n        /* \"#utility.yul\":21131:21140   */\n      not\n        /* \"#utility.yul\":21123:21129   */\n      dup5\n        /* \"#utility.yul\":21119:21141   */\n      and\n        /* \"#utility.yul\":21161:21197   */\n      tag_542\n        /* \"#utility.yul\":21193:21196   */\n      dup8\n        /* \"#utility.yul\":21161:21197   */\n      tag_300\n      jump\t// in\n    tag_542:\n        /* \"#utility.yul\":21154:21197   */\n      swap7\n      pop\n        /* \"#utility.yul\":21224:21261   */\n      tag_543\n        /* \"#utility.yul\":21256:21260   */\n      dup7\n        /* \"#utility.yul\":21224:21261   */\n      tag_300\n      jump\t// in\n    tag_543:\n        /* \"#utility.yul\":21283:21284   */\n      0x00\n        /* \"#utility.yul\":21297:21504   */\n    tag_544:\n        /* \"#utility.yul\":21311:21318   */\n      dup3\n        /* \"#utility.yul\":21308:21309   */\n      dup2\n        /* \"#utility.yul\":21305:21319   */\n      lt\n        /* \"#utility.yul\":21297:21504   */\n      iszero\n      tag_546\n      jumpi\n        /* \"#utility.yul\":21390:21399   */\n      dup5\n        /* \"#utility.yul\":21385:21388   */\n      dup10\n        /* \"#utility.yul\":21381:21400   */\n      add\n        /* \"#utility.yul\":21375:21401   */\n      sload\n        /* \"#utility.yul\":21367:21373   */\n      dup3\n        /* \"#utility.yul\":21360:21402   */\n      sstore\n        /* \"#utility.yul\":21441:21442   */\n      0x01\n        /* \"#utility.yul\":21433:21439   */\n      dup3\n        /* \"#utility.yul\":21429:21443   */\n      add\n        /* \"#utility.yul\":21419:21443   */\n      swap2\n      pop\n        /* \"#utility.yul\":21488:21489   */\n      0x01\n        /* \"#utility.yul\":21477:21486   */\n      dup6\n        /* \"#utility.yul\":21473:21490   */\n      add\n        /* \"#utility.yul\":21460:21490   */\n      swap5\n      pop\n        /* \"#utility.yul\":21334:21338   */\n      0x20\n        /* \"#utility.yul\":21331:21332   */\n      dup2\n        /* \"#utility.yul\":21327:21339   */\n      add\n        /* \"#utility.yul\":21322:21339   */\n      swap1\n      pop\n        /* \"#utility.yul\":21297:21504   */\n      jump(tag_544)\n    tag_546:\n        /* \"#utility.yul\":21532:21538   */\n      dup7\n        /* \"#utility.yul\":21523:21530   */\n      dup4\n        /* \"#utility.yul\":21520:21539   */\n      lt\n        /* \"#utility.yul\":21517:21696   */\n      iszero\n      tag_547\n      jumpi\n        /* \"#utility.yul\":21590:21599   */\n      dup5\n        /* \"#utility.yul\":21585:21588   */\n      dup10\n        /* \"#utility.yul\":21581:21600   */\n      add\n        /* \"#utility.yul\":21575:21601   */\n      sload\n        /* \"#utility.yul\":21633:21681   */\n      tag_548\n        /* \"#utility.yul\":21675:21679   */\n      0x1f\n        /* \"#utility.yul\":21667:21673   */\n      dup10\n        /* \"#utility.yul\":21663:21680   */\n      and\n        /* \"#utility.yul\":21652:21661   */\n      dup3\n        /* \"#utility.yul\":21633:21681   */\n      tag_313\n      jump\t// in\n    tag_548:\n        /* \"#utility.yul\":21625:21631   */\n      dup4\n        /* \"#utility.yul\":21618:21682   */\n      sstore\n        /* \"#utility.yul\":21540:21696   */\n      pop\n        /* \"#utility.yul\":21517:21696   */\n    tag_547:\n        /* \"#utility.yul\":21742:21743   */\n      0x01\n        /* \"#utility.yul\":21738:21739   */\n      0x02\n        /* \"#utility.yul\":21730:21736   */\n      dup9\n        /* \"#utility.yul\":21726:21740   */\n      mul\n        /* \"#utility.yul\":21722:21744   */\n      add\n        /* \"#utility.yul\":21716:21720   */\n      dup9\n        /* \"#utility.yul\":21709:21745   */\n      sstore\n        /* \"#utility.yul\":21090:21755   */\n      pop\n      pop\n      pop\n        /* \"#utility.yul\":21053:21994   */\n    tag_538:\n      pop\n        /* \"#utility.yul\":20638:22000   */\n      pop\n      pop\n      pop\n        /* \"#utility.yul\":20549:22000   */\n      pop\n      pop\n    tag_531:\n      jump\t// out\n        /* \"#utility.yul\":22006:22338   */\n    tag_197:\n        /* \"#utility.yul\":22127:22131   */\n      0x00\n        /* \"#utility.yul\":22165:22167   */\n      0x40\n        /* \"#utility.yul\":22154:22163   */\n      dup3\n        /* \"#utility.yul\":22150:22168   */\n      add\n        /* \"#utility.yul\":22142:22168   */\n      swap1\n      pop\n        /* \"#utility.yul\":22178:22249   */\n      tag_550\n        /* \"#utility.yul\":22246:22247   */\n      0x00\n        /* \"#utility.yul\":22235:22244   */\n      dup4\n        /* \"#utility.yul\":22231:22248   */\n      add\n        /* \"#utility.yul\":22222:22228   */\n      dup6\n        /* \"#utility.yul\":22178:22249   */\n      tag_298\n      jump\t// in\n    tag_550:\n        /* \"#utility.yul\":22259:22331   */\n      tag_551\n        /* \"#utility.yul\":22327:22329   */\n      0x20\n        /* \"#utility.yul\":22316:22325   */\n      dup4\n        /* \"#utility.yul\":22312:22330   */\n      add\n        /* \"#utility.yul\":22303:22309   */\n      dup5\n        /* \"#utility.yul\":22259:22331   */\n      tag_298\n      jump\t// in\n    tag_551:\n        /* \"#utility.yul\":22006:22338   */\n      swap4\n      swap3\n      pop\n      pop\n      pop\n      jump\t// out\n\n    auxdata: 0xa264697066735822122041b78e5878e0b60c9c62c005ac44f73f3a0c7fc00cf1bf4c12353c79cc639d0364736f6c634300081e0033\n}\n",
				"bytecode": {
					"linkReferences": {},
					"object": "608060405234801561000f575f5ffd5b50335f73ffffffffffffffffffffffffffffffffffffffff168173ffffffffffffffffffffffffffffffffffffffff1603610081575f6040517f1e4fbdf700000000000000000000000000000000000000000000000000000000815260040161007891906101c2565b60405180910390fd5b610090816100c260201b60201c565b505f60016003015f6101000a81548160ff021916908360058111156100b8576100b76101db565b5b0217905550610208565b5f5f5f9054906101000a900473ffffffffffffffffffffffffffffffffffffffff169050815f5f6101000a81548173ffffffffffffffffffffffffffffffffffffffff021916908373ffffffffffffffffffffffffffffffffffffffff1602179055508173ffffffffffffffffffffffffffffffffffffffff168173ffffffffffffffffffffffffffffffffffffffff167f8be0079c531659141344cd1fd0a4f28419497f9722a3daafe3b4186f6b6457e060405160405180910390a35050565b5f73ffffffffffffffffffffffffffffffffffffffff82169050919050565b5f6101ac82610183565b9050919050565b6101bc816101a2565b82525050565b5f6020820190506101d55f8301846101b3565b92915050565b7f4e487b71000000000000000000000000000000000000000000000000000000005f52602160045260245ffd5b611fd7806102155f395ff3fe608060405234801561000f575f5ffd5b50600436106100a7575f3560e01c8063754062841161006f578063754062841461013957806386a66dc3146101435780638b5df08d146101615780638da5cb5b1461016b578063c7f758a814610189578063f2fde38b146101a5576100a7565b80630121b93f146100ab57806323edca11146100c75780632f95355b146100f757806338db6dd314610113578063715018a61461012f575b5f5ffd5b6100c560048036038101906100c091906114a4565b6101c1565b005b6100e160048036038101906100dc91906114a4565b6104d1565b6040516100ee919061173f565b60405180910390f35b610111600480360381019061010c919061188b565b61069d565b005b61012d6004803603810190610128919061192c565b610860565b005b610137610a0f565b005b610141610a22565b005b61014b610bab565b60405161015891906119c3565b60405180910390f35b610169610d19565b005b610173610fc8565b60405161018091906119f2565b60405180910390f35b6101a3600480360381019061019e91906114a4565b610fef565b005b6101bf60048036038101906101ba919061192c565b611076565b005b60015f015f3373ffffffffffffffffffffffffffffffffffffffff1673ffffffffffffffffffffffffffffffffffffffff1681526020019081526020015f205f015f9054906101000a900460ff16610245576040517fb3e2c01600000000000000000000000000000000000000000000000000000000815260040160405180910390fd5b6003600581111561025957610258611a0b565b5b60016003015f9054906101000a900460ff16600581111561027d5761027c611a0b565b5b1460016003015f9054906101000a900460ff16600390916102d5576040517f0e10df3f0000000000000000000000000000000000000000000000000000000081526004016102cc929190611a7e565b60405180910390fd5b505060015f015f3373ffffffffffffffffffffffffffffffffffffffff1673ffffffffffffffffffffffffffffffffffffffff1681526020019081526020015f205f0160019054906101000a900460ff161561035d576040517fd40aec4400000000000000000000000000000000000000000000000000000000815260040160405180910390fd5b600160020180549050811061039e576040517ff299af6600000000000000000000000000000000000000000000000000000000815260040160405180910390fd5b60018060020182815481106103b6576103b5611aa5565b5b905f5260205f2090600202016001015f8282546103d39190611aff565b925050819055508060015f015f3373ffffffffffffffffffffffffffffffffffffffff1673ffffffffffffffffffffffffffffffffffffffff1681526020019081526020015f20600101819055506001805f015f3373ffffffffffffffffffffffffffffffffffffffff1673ffffffffffffffffffffffffffffffffffffffff1681526020019081526020015f205f0160016101000a81548160ff0219169083151502179055506001806001015f82825461048e9190611aff565b925050819055507f4d99b957a2bc29a30ebd96a7be8e68fe50a3c701db28a91436490b7d53870ca433826040516104c6929190611b41565b60405180910390a150565b6104d961137d565b6006805490508210610517576040517f1397166e00000000000000000000000000000000000000000000000000000000815260040160405180910390fd5b6006828154811061052b5761052a611aa5565b5b905f5260205f2090600302016040518060600160405290815f820154815260200160018201805480602002602001604051908101604052809291908181526020015f905b82821015610638578382905f5260205f2090600202016040518060400160405290815f8201805461059f90611b95565b80601f01602080910402602001604051908101604052809291908181526020018280546105cb90611b95565b80156106165780601f106105ed57610100808354040283529160200191610616565b820191905f5260205f20905b8154815290600101906020018083116105f957829003601f168201915b505050505081526020016001820154815250508152602001906001019061056f565b5050505081526020016002820180548060200260200160405190810160405280929190818152602001828054801561068d57602002820191905f5260205f20905b815481526020019060010190808311610679575b5050505050815250509050919050565b60015f015f3373ffffffffffffffffffffffffffffffffffffffff1673ffffffffffffffffffffffffffffffffffffffff1681526020019081526020015f205f015f9054906101000a900460ff16610721576040517fb3e2c01600000000000000000000000000000000000000000000000000000000815260040160405180910390fd5b6001600581111561073557610734611a0b565b5b60016003015f9054906101000a900460ff16600581111561075957610758611a0b565b5b1460016003015f9054906101000a900460ff16600190916107b1576040517f0e10df3f0000000000000000000000000000000000000000000000000000000081526004016107a8929190611a7e565b60405180910390fd5b5050600160020160405180604001604052808381526020015f815250908060018154018082558091505060019003905f5260205f2090600202015f909190919091505f820151815f0190816108069190611d65565b506020820151816001015550507f92e393e9b54e2f801d3ea4beb0c5e71a21cc34a5d34b77d0fb8a3aa1650dc18f600180600201805490506108489190611e34565b6040516108559190611e67565b60405180910390a150565b6108686110fa565b5f600581111561087b5761087a611a0b565b5b60016003015f9054906101000a900460ff16600581111561089f5761089e611a0b565b5b1460016003015f9054906101000a900460ff165f90916108f6576040517f0e10df3f0000000000000000000000000000000000000000000000000000000081526004016108ed929190611a7e565b60405180910390fd5b505060015f015f8273ffffffffffffffffffffffffffffffffffffffff1673ffffffffffffffffffffffffffffffffffffffff1681526020019081526020015f205f015f9054906101000a900460ff161561097d576040517f59a1ec4700000000000000000000000000000000000000000000000000000000815260040160405180910390fd5b6001805f015f8373ffffffffffffffffffffffffffffffffffffffff1673ffffffffffffffffffffffffffffffffffffffff1681526020019081526020015f205f015f6101000a81548160ff0219169083151502179055507fb6be2187d059cc2a55fe29e0e503b566e1e0f8c8780096e185429350acffd3dd81604051610a0491906119f2565b60405180910390a150565b610a176110fa565b610a205f611181565b565b610a2a6110fa565b600580811115610a3d57610a3c611a0b565b5b60016003015f9054906101000a900460ff166005811115610a6157610a60611a0b565b5b10610a98576040517f086fc57f00000000000000000000000000000000000000000000000000000000815260040160405180910390fd5b5f60016003015f9054906101000a900460ff1690506001806003015f9054906101000a900460ff166005811115610ad257610ad1611a0b565b5b610adc9190611aff565b6005811115610aee57610aed611a0b565b5b60016003015f6101000a81548160ff02191690836005811115610b1457610b13611a0b565b5b02179055507f0a97a4ee45751e2abf3e4fc8946939630b11b371ea8ae39ccdc3056e98f5cc3f8160016003015f9054906101000a900460ff16604051610b5b929190611a7e565b60405180910390a1600580811115610b7657610b75611a0b565b5b60016003015f9054906101000a900460ff166005811115610b9a57610b99611a0b565b5b03610ba857610ba7611242565b5b50565b606060015f015f3373ffffffffffffffffffffffffffffffffffffffff1673ffffffffffffffffffffffffffffffffffffffff1681526020019081526020015f205f015f9054906101000a900460ff16610c31576040517fb3e2c01600000000000000000000000000000000000000000000000000000000815260040160405180910390fd5b600580811115610c4457610c43611a0b565b5b60016003015f9054906101000a900460ff166005811115610c6857610c67611a0b565b5b1460016003015f9054906101000a900460ff1660059091610cc0576040517f0e10df3f000000000000000000000000000000000000000000000000000000008152600401610cb7929190611a7e565b60405180910390fd5b50506001600401805480602002602001604051908101604052809291908181526020018280548015610d0f57602002820191905f5260205f20905b815481526020019060010190808311610cfb575b5050505050905090565b610d216110fa565b600580811115610d3457610d33611a0b565b5b60016003015f9054906101000a900460ff166005811115610d5857610d57611a0b565b5b1460016003015f9054906101000a900460ff1660059091610db0576040517f0e10df3f000000000000000000000000000000000000000000000000000000008152600401610da7929190611a7e565b60405180910390fd5b5050600660018160018154018082558091505003905f5260205f209050505f60066001600680549050610de39190611e34565b81548110610df457610df3611aa5565b5b905f5260205f20906003020190506001800154815f01819055505f5f90505b600160020180549050811015610e9c578160010160016002018281548110610e3e57610e3d611aa5565b5b905f5260205f209060020201908060018154018082558091505060019003905f5260205f2090600202015f909190919091505f8201815f019081610e829190611e95565b506001820154816001015550508080600101915050610e13565b505f5f90505b600160040180549050811015610f06578160020160016004018281548110610ecd57610ecc611aa5565b5b905f5260205f200154908060018154018082558091505060019003905f5260205f20015f90919091909150558080600101915050610ea2565b5060015f600182015f9055600282015f610f20919061139d565b600382015f6101000a81549060ff0219169055600482015f610f4291906113be565b50505f60016003015f6101000a81548160ff02191690836005811115610f6b57610f6a611a0b565b5b02179055506001600680549050610f829190611e34565b7f87f1efd3ecc2164eb03e4374ac4bfebd5ee2d9f4785fc2f4c9c193fc132bb03f825f01548360020180549050604051610fbd929190611f7a565b60405180910390a250565b5f5f5f9054906101000a900473ffffffffffffffffffffffffffffffffffffffff16905090565b60015f015f3373ffffffffffffffffffffffffffffffffffffffff1673ffffffffffffffffffffffffffffffffffffffff1681526020019081526020015f205f015f9054906101000a900460ff16611073576040517fb3e2c01600000000000000000000000000000000000000000000000000000000815260040160405180910390fd5b50565b61107e6110fa565b5f73ffffffffffffffffffffffffffffffffffffffff168173ffffffffffffffffffffffffffffffffffffffff16036110ee575f6040517f1e4fbdf70000000000000000000000000000000000000000000000000000000081526004016110e591906119f2565b60405180910390fd5b6110f781611181565b50565b611102611376565b73ffffffffffffffffffffffffffffffffffffffff16611120610fc8565b73ffffffffffffffffffffffffffffffffffffffff161461117f57611143611376565b6040517f118cdaa700000000000000000000000000000000000000000000000000000000815260040161117691906119f2565b60405180910390fd5b565b5f5f5f9054906101000a900473ffffffffffffffffffffffffffffffffffffffff169050815f5f6101000a81548173ffffffffffffffffffffffffffffffffffffffff021916908373ffffffffffffffffffffffffffffffffffffffff1602179055508173ffffffffffffffffffffffffffffffffffffffff168173ffffffffffffffffffffffffffffffffffffffff167f8be0079c531659141344cd1fd0a4f28419497f9722a3daafe3b4186f6b6457e060405160405180910390a35050565b61124a6110fa565b5f5f905060016004015f61125e91906113be565b5f5f90505b600160020180549050811015611331575f6001600201828154811061128b5761128a611aa5565b5b905f5260205f209060020201600101549050828111156112e65780925060016004015f6112b891906113be565b600160040182908060018154018082558091505060019003905f5260205f20015f9091909190915055611325565b82811480156112f557505f8314155b1561132457600160040182908060018154018082558091505060019003905f5260205f20015f90919091909150555b5b50806001019050611263565b507f45ef9b7fc34bdfcccc29be8be99ab3e8f3206f5957d34325050712b5b486bdce8160016004018054905060405161136b929190611f7a565b60405180910390a150565b5f33905090565b60405180606001604052805f815260200160608152602001606081525090565b5080545f8255600202905f5260205f20908101906113bb91906113dc565b50565b5080545f8255905f5260205f20908101906113d99190611408565b50565b5b80821115611404575f5f82015f6113f49190611423565b600182015f9055506002016113dd565b5090565b5b8082111561141f575f815f905550600101611409565b5090565b50805461142f90611b95565b5f825580601f10611440575061145d565b601f0160209004905f5260205f209081019061145c9190611408565b5b50565b5f604051905090565b5f5ffd5b5f5ffd5b5f819050919050565b61148381611471565b811461148d575f5ffd5b50565b5f8135905061149e8161147a565b92915050565b5f602082840312156114b9576114b8611469565b5b5f6114c684828501611490565b91505092915050565b6114d881611471565b82525050565b5f81519050919050565b5f82825260208201905092915050565b5f819050602082019050919050565b5f81519050919050565b5f82825260208201905092915050565b8281835e5f83830152505050565b5f601f19601f8301169050919050565b5f61154982611507565b6115538185611511565b9350611563818560208601611521565b61156c8161152f565b840191505092915050565b5f604083015f8301518482035f860152611591828261153f565b91505060208301516115a660208601826114cf565b508091505092915050565b5f6115bc8383611577565b905092915050565b5f602082019050919050565b5f6115da826114de565b6115e481856114e8565b9350836020820285016115f6856114f8565b805f5b85811015611631578484038952815161161285826115b1565b945061161d836115c4565b925060208a019950506001810190506115f9565b50829750879550505050505092915050565b5f81519050919050565b5f82825260208201905092915050565b5f819050602082019050919050565b5f61167783836114cf565b60208301905092915050565b5f602082019050919050565b5f61169982611643565b6116a3818561164d565b93506116ae8361165d565b805f5b838110156116de5781516116c5888261166c565b97506116d083611683565b9250506001810190506116b1565b5085935050505092915050565b5f606083015f8301516117005f8601826114cf565b506020830151848203602086015261171882826115d0565b91505060408301518482036040860152611732828261168f565b9150508091505092915050565b5f6020820190508181035f83015261175781846116eb565b905092915050565b5f5ffd5b5f5ffd5b7f4e487b71000000000000000000000000000000000000000000000000000000005f52604160045260245ffd5b61179d8261152f565b810181811067ffffffffffffffff821117156117bc576117bb611767565b5b80604052505050565b5f6117ce611460565b90506117da8282611794565b919050565b5f67ffffffffffffffff8211156117f9576117f8611767565b5b6118028261152f565b9050602081019050919050565b828183375f83830152505050565b5f61182f61182a846117df565b6117c5565b90508281526020810184848401111561184b5761184a611763565b5b61185684828561180f565b509392505050565b5f82601f8301126118725761187161175f565b5b813561188284826020860161181d565b91505092915050565b5f602082840312156118a05761189f611469565b5b5f82013567ffffffffffffffff8111156118bd576118bc61146d565b5b6118c98482850161185e565b91505092915050565b5f73ffffffffffffffffffffffffffffffffffffffff82169050919050565b5f6118fb826118d2565b9050919050565b61190b816118f1565b8114611915575f5ffd5b50565b5f8135905061192681611902565b92915050565b5f6020828403121561194157611940611469565b5b5f61194e84828501611918565b91505092915050565b5f82825260208201905092915050565b5f61197182611643565b61197b8185611957565b93506119868361165d565b805f5b838110156119b657815161199d888261166c565b97506119a883611683565b925050600181019050611989565b5085935050505092915050565b5f6020820190508181035f8301526119db8184611967565b905092915050565b6119ec816118f1565b82525050565b5f602082019050611a055f8301846119e3565b92915050565b7f4e487b71000000000000000000000000000000000000000000000000000000005f52602160045260245ffd5b60068110611a4957611a48611a0b565b5b50565b5f819050611a5982611a38565b919050565b5f611a6882611a4c565b9050919050565b611a7881611a5e565b82525050565b5f604082019050611a915f830185611a6f565b611a9e6020830184611a6f565b9392505050565b7f4e487b71000000000000000000000000000000000000000000000000000000005f52603260045260245ffd5b7f4e487b71000000000000000000000000000000000000000000000000000000005f52601160045260245ffd5b5f611b0982611471565b9150611b1483611471565b9250828201905080821115611b2c57611b2b611ad2565b5b92915050565b611b3b81611471565b82525050565b5f604082019050611b545f8301856119e3565b611b616020830184611b32565b9392505050565b7f4e487b71000000000000000000000000000000000000000000000000000000005f52602260045260245ffd5b5f6002820490506001821680611bac57607f821691505b602082108103611bbf57611bbe611b68565b5b50919050565b5f819050815f5260205f209050919050565b5f6020601f8301049050919050565b5f82821b905092915050565b5f60088302611c217fffffffffffffffffffffffffffffffffffffffffffffffffffffffffffffffff82611be6565b611c2b8683611be6565b95508019841693508086168417925050509392505050565b5f819050919050565b5f611c66611c61611c5c84611471565b611c43565b611471565b9050919050565b5f819050919050565b611c7f83611c4c565b611c93611c8b82611c6d565b848454611bf2565b825550505050565b5f5f905090565b611caa611c9b565b611cb5818484611c76565b505050565b5b81811015611cd857611ccd5f82611ca2565b600181019050611cbb565b5050565b601f821115611d1d57611cee81611bc5565b611cf784611bd7565b81016020851015611d06578190505b611d1a611d1285611bd7565b830182611cba565b50505b505050565b5f82821c905092915050565b5f611d3d5f1984600802611d22565b1980831691505092915050565b5f611d558383611d2e565b9150826002028217905092915050565b611d6e82611507565b67ffffffffffffffff811115611d8757611d86611767565b5b611d918254611b95565b611d9c828285611cdc565b5f60209050601f831160018114611dcd575f8415611dbb578287015190505b611dc58582611d4a565b865550611e2c565b601f198416611ddb86611bc5565b5f5b82811015611e0257848901518255600182019150602085019450602081019050611ddd565b86831015611e1f5784890151611e1b601f891682611d2e565b8355505b6001600288020188555050505b505050505050565b5f611e3e82611471565b9150611e4983611471565b9250828203905081811115611e6157611e60611ad2565b5b92915050565b5f602082019050611e7a5f830184611b32565b92915050565b5f81549050611e8e81611b95565b9050919050565b818103611ea3575050611f78565b611eac82611e80565b67ffffffffffffffff811115611ec557611ec4611767565b5b611ecf8254611b95565b611eda828285611cdc565b5f601f831160018114611f07575f8415611ef5578287015490505b611eff8582611d4a565b865550611f71565b601f198416611f1587611bc5565b9650611f2086611bc5565b5f5b82811015611f4757848901548255600182019150600185019450602081019050611f22565b86831015611f645784890154611f60601f891682611d2e565b8355505b6001600288020188555050505b5050505050505b565b5f604082019050611f8d5f830185611b32565b611f9a6020830184611b32565b939250505056fea264697066735822122041b78e5878e0b60c9c62c005ac44f73f3a0c7fc00cf1bf4c12353c79cc639d0364736f6c634300081e0033",
					"opcodes": "PUSH1 0x80 PUSH1 0x40 MSTORE CALLVALUE DUP1 ISZERO PUSH2 0xF JUMPI PUSH0 PUSH0 REVERT JUMPDEST POP CALLER PUSH0 PUSH20 0xFFFFFFFFFFFFFFFFFFFFFFFFFFFFFFFFFFFFFFFF AND DUP2 PUSH20 0xFFFFFFFFFFFFFFFFFFFFFFFFFFFFFFFFFFFFFFFF AND SUB PUSH2 0x81 JUMPI PUSH0 PUSH1 0x40 MLOAD PUSH32 0x1E4FBDF700000000000000000000000000000000000000000000000000000000 DUP2 MSTORE PUSH1 0x4 ADD PUSH2 0x78 SWAP2 SWAP1 PUSH2 0x1C2 JUMP JUMPDEST PUSH1 0x40 MLOAD DUP1 SWAP2 SUB SWAP1 REVERT JUMPDEST PUSH2 0x90 DUP2 PUSH2 0xC2 PUSH1 0x20 SHL PUSH1 0x20 SHR JUMP JUMPDEST POP PUSH0 PUSH1 0x1 PUSH1 0x3 ADD PUSH0 PUSH2 0x100 EXP DUP2 SLOAD DUP2 PUSH1 0xFF MUL NOT AND SWAP1 DUP4 PUSH1 0x5 DUP2 GT ISZERO PUSH2 0xB8 JUMPI PUSH2 0xB7 PUSH2 0x1DB JUMP JUMPDEST JUMPDEST MUL OR SWAP1 SSTORE POP PUSH2 0x208 JUMP JUMPDEST PUSH0 PUSH0 PUSH0 SWAP1 SLOAD SWAP1 PUSH2 0x100 EXP SWAP1 DIV PUSH20 0xFFFFFFFFFFFFFFFFFFFFFFFFFFFFFFFFFFFFFFFF AND SWAP1 POP DUP2 PUSH0 PUSH0 PUSH2 0x100 EXP DUP2 SLOAD DUP2 PUSH20 0xFFFFFFFFFFFFFFFFFFFFFFFFFFFFFFFFFFFFFFFF MUL NOT AND SWAP1 DUP4 PUSH20 0xFFFFFFFFFFFFFFFFFFFFFFFFFFFFFFFFFFFFFFFF AND MUL OR SWAP1 SSTORE POP DUP2 PUSH20 0xFFFFFFFFFFFFFFFFFFFFFFFFFFFFFFFFFFFFFFFF AND DUP2 PUSH20 0xFFFFFFFFFFFFFFFFFFFFFFFFFFFFFFFFFFFFFFFF AND PUSH32 0x8BE0079C531659141344CD1FD0A4F28419497F9722A3DAAFE3B4186F6B6457E0 PUSH1 0x40 MLOAD PUSH1 0x40 MLOAD DUP1 SWAP2 SUB SWAP1 LOG3 POP POP JUMP JUMPDEST PUSH0 PUSH20 0xFFFFFFFFFFFFFFFFFFFFFFFFFFFFFFFFFFFFFFFF DUP3 AND SWAP1 POP SWAP2 SWAP1 POP JUMP JUMPDEST PUSH0 PUSH2 0x1AC DUP3 PUSH2 0x183 JUMP JUMPDEST SWAP1 POP SWAP2 SWAP1 POP JUMP JUMPDEST PUSH2 0x1BC DUP2 PUSH2 0x1A2 JUMP JUMPDEST DUP3 MSTORE POP POP JUMP JUMPDEST PUSH0 PUSH1 0x20 DUP3 ADD SWAP1 POP PUSH2 0x1D5 PUSH0 DUP4 ADD DUP5 PUSH2 0x1B3 JUMP JUMPDEST SWAP3 SWAP2 POP POP JUMP JUMPDEST PUSH32 0x4E487B7100000000000000000000000000000000000000000000000000000000 PUSH0 MSTORE PUSH1 0x21 PUSH1 0x4 MSTORE PUSH1 0x24 PUSH0 REVERT JUMPDEST PUSH2 0x1FD7 DUP1 PUSH2 0x215 PUSH0 CODECOPY PUSH0 RETURN INVALID PUSH1 0x80 PUSH1 0x40 MSTORE CALLVALUE DUP1 ISZERO PUSH2 0xF JUMPI PUSH0 PUSH0 REVERT JUMPDEST POP PUSH1 0x4 CALLDATASIZE LT PUSH2 0xA7 JUMPI PUSH0 CALLDATALOAD PUSH1 0xE0 SHR DUP1 PUSH4 0x75406284 GT PUSH2 0x6F JUMPI DUP1 PUSH4 0x75406284 EQ PUSH2 0x139 JUMPI DUP1 PUSH4 0x86A66DC3 EQ PUSH2 0x143 JUMPI DUP1 PUSH4 0x8B5DF08D EQ PUSH2 0x161 JUMPI DUP1 PUSH4 0x8DA5CB5B EQ PUSH2 0x16B JUMPI DUP1 PUSH4 0xC7F758A8 EQ PUSH2 0x189 JUMPI DUP1 PUSH4 0xF2FDE38B EQ PUSH2 0x1A5 JUMPI PUSH2 0xA7 JUMP JUMPDEST DUP1 PUSH4 0x121B93F EQ PUSH2 0xAB JUMPI DUP1 PUSH4 0x23EDCA11 EQ PUSH2 0xC7 JUMPI DUP1 PUSH4 0x2F95355B EQ PUSH2 0xF7 JUMPI DUP1 PUSH4 0x38DB6DD3 EQ PUSH2 0x113 JUMPI DUP1 PUSH4 0x715018A6 EQ PUSH2 0x12F JUMPI JUMPDEST PUSH0 PUSH0 REVERT JUMPDEST PUSH2 0xC5 PUSH1 0x4 DUP1 CALLDATASIZE SUB DUP2 ADD SWAP1 PUSH2 0xC0 SWAP2 SWAP1 PUSH2 0x14A4 JUMP JUMPDEST PUSH2 0x1C1 JUMP JUMPDEST STOP JUMPDEST PUSH2 0xE1 PUSH1 0x4 DUP1 CALLDATASIZE SUB DUP2 ADD SWAP1 PUSH2 0xDC SWAP2 SWAP1 PUSH2 0x14A4 JUMP JUMPDEST PUSH2 0x4D1 JUMP JUMPDEST PUSH1 0x40 MLOAD PUSH2 0xEE SWAP2 SWAP1 PUSH2 0x173F JUMP JUMPDEST PUSH1 0x40 MLOAD DUP1 SWAP2 SUB SWAP1 RETURN JUMPDEST PUSH2 0x111 PUSH1 0x4 DUP1 CALLDATASIZE SUB DUP2 ADD SWAP1 PUSH2 0x10C SWAP2 SWAP1 PUSH2 0x188B JUMP JUMPDEST PUSH2 0x69D JUMP JUMPDEST STOP JUMPDEST PUSH2 0x12D PUSH1 0x4 DUP1 CALLDATASIZE SUB DUP2 ADD SWAP1 PUSH2 0x128 SWAP2 SWAP1 PUSH2 0x192C JUMP JUMPDEST PUSH2 0x860 JUMP JUMPDEST STOP JUMPDEST PUSH2 0x137 PUSH2 0xA0F JUMP JUMPDEST STOP JUMPDEST PUSH2 0x141 PUSH2 0xA22 JUMP JUMPDEST STOP JUMPDEST PUSH2 0x14B PUSH2 0xBAB JUMP JUMPDEST PUSH1 0x40 MLOAD PUSH2 0x158 SWAP2 SWAP1 PUSH2 0x19C3 JUMP JUMPDEST PUSH1 0x40 MLOAD DUP1 SWAP2 SUB SWAP1 RETURN JUMPDEST PUSH2 0x169 PUSH2 0xD19 JUMP JUMPDEST STOP JUMPDEST PUSH2 0x173 PUSH2 0xFC8 JUMP JUMPDEST PUSH1 0x40 MLOAD PUSH2 0x180 SWAP2 SWAP1 PUSH2 0x19F2 JUMP JUMPDEST PUSH1 0x40 MLOAD DUP1 SWAP2 SUB SWAP1 RETURN JUMPDEST PUSH2 0x1A3 PUSH1 0x4 DUP1 CALLDATASIZE SUB DUP2 ADD SWAP1 PUSH2 0x19E SWAP2 SWAP1 PUSH2 0x14A4 JUMP JUMPDEST PUSH2 0xFEF JUMP JUMPDEST STOP JUMPDEST PUSH2 0x1BF PUSH1 0x4 DUP1 CALLDATASIZE SUB DUP2 ADD SWAP1 PUSH2 0x1BA SWAP2 SWAP1 PUSH2 0x192C JUMP JUMPDEST PUSH2 0x1076 JUMP JUMPDEST STOP JUMPDEST PUSH1 0x1 PUSH0 ADD PUSH0 CALLER PUSH20 0xFFFFFFFFFFFFFFFFFFFFFFFFFFFFFFFFFFFFFFFF AND PUSH20 0xFFFFFFFFFFFFFFFFFFFFFFFFFFFFFFFFFFFFFFFF AND DUP2 MSTORE PUSH1 0x20 ADD SWAP1 DUP2 MSTORE PUSH1 0x20 ADD PUSH0 KECCAK256 PUSH0 ADD PUSH0 SWAP1 SLOAD SWAP1 PUSH2 0x100 EXP SWAP1 DIV PUSH1 0xFF AND PUSH2 0x245 JUMPI PUSH1 0x40 MLOAD PUSH32 0xB3E2C01600000000000000000000000000000000000000000000000000000000 DUP2 MSTORE PUSH1 0x4 ADD PUSH1 0x40 MLOAD DUP1 SWAP2 SUB SWAP1 REVERT JUMPDEST PUSH1 0x3 PUSH1 0x5 DUP2 GT ISZERO PUSH2 0x259 JUMPI PUSH2 0x258 PUSH2 0x1A0B JUMP JUMPDEST JUMPDEST PUSH1 0x1 PUSH1 0x3 ADD PUSH0 SWAP1 SLOAD SWAP1 PUSH2 0x100 EXP SWAP1 DIV PUSH1 0xFF AND PUSH1 0x5 DUP2 GT ISZERO PUSH2 0x27D JUMPI PUSH2 0x27C PUSH2 0x1A0B JUMP JUMPDEST JUMPDEST EQ PUSH1 0x1 PUSH1 0x3 ADD PUSH0 SWAP1 SLOAD SWAP1 PUSH2 0x100 EXP SWAP1 DIV PUSH1 0xFF AND PUSH1 0x3 SWAP1 SWAP2 PUSH2 0x2D5 JUMPI PUSH1 0x40 MLOAD PUSH32 0xE10DF3F00000000000000000000000000000000000000000000000000000000 DUP2 MSTORE PUSH1 0x4 ADD PUSH2 0x2CC SWAP3 SWAP2 SWAP1 PUSH2 0x1A7E JUMP JUMPDEST PUSH1 0x40 MLOAD DUP1 SWAP2 SUB SWAP1 REVERT JUMPDEST POP POP PUSH1 0x1 PUSH0 ADD PUSH0 CALLER PUSH20 0xFFFFFFFFFFFFFFFFFFFFFFFFFFFFFFFFFFFFFFFF AND PUSH20 0xFFFFFFFFFFFFFFFFFFFFFFFFFFFFFFFFFFFFFFFF AND DUP2 MSTORE PUSH1 0x20 ADD SWAP1 DUP2 MSTORE PUSH1 0x20 ADD PUSH0 KECCAK256 PUSH0 ADD PUSH1 0x1 SWAP1 SLOAD SWAP1 PUSH2 0x100 EXP SWAP1 DIV PUSH1 0xFF AND ISZERO PUSH2 0x35D JUMPI PUSH1 0x40 MLOAD PUSH32 0xD40AEC4400000000000000000000000000000000000000000000000000000000 DUP2 MSTORE PUSH1 0x4 ADD PUSH1 0x40 MLOAD DUP1 SWAP2 SUB SWAP1 REVERT JUMPDEST PUSH1 0x1 PUSH1 0x2 ADD DUP1 SLOAD SWAP1 POP DUP2 LT PUSH2 0x39E JUMPI PUSH1 0x40 MLOAD PUSH32 0xF299AF6600000000000000000000000000000000000000000000000000000000 DUP2 MSTORE PUSH1 0x4 ADD PUSH1 0x40 MLOAD DUP1 SWAP2 SUB SWAP1 REVERT JUMPDEST PUSH1 0x1 DUP1 PUSH1 0x2 ADD DUP3 DUP2 SLOAD DUP2 LT PUSH2 0x3B6 JUMPI PUSH2 0x3B5 PUSH2 0x1AA5 JUMP JUMPDEST JUMPDEST SWAP1 PUSH0 MSTORE PUSH1 0x20 PUSH0 KECCAK256 SWAP1 PUSH1 0x2 MUL ADD PUSH1 0x1 ADD PUSH0 DUP3 DUP3 SLOAD PUSH2 0x3D3 SWAP2 SWAP1 PUSH2 0x1AFF JUMP JUMPDEST SWAP3 POP POP DUP2 SWAP1 SSTORE POP DUP1 PUSH1 0x1 PUSH0 ADD PUSH0 CALLER PUSH20 0xFFFFFFFFFFFFFFFFFFFFFFFFFFFFFFFFFFFFFFFF AND PUSH20 0xFFFFFFFFFFFFFFFFFFFFFFFFFFFFFFFFFFFFFFFF AND DUP2 MSTORE PUSH1 0x20 ADD SWAP1 DUP2 MSTORE PUSH1 0x20 ADD PUSH0 KECCAK256 PUSH1 0x1 ADD DUP2 SWAP1 SSTORE POP PUSH1 0x1 DUP1 PUSH0 ADD PUSH0 CALLER PUSH20 0xFFFFFFFFFFFFFFFFFFFFFFFFFFFFFFFFFFFFFFFF AND PUSH20 0xFFFFFFFFFFFFFFFFFFFFFFFFFFFFFFFFFFFFFFFF AND DUP2 MSTORE PUSH1 0x20 ADD SWAP1 DUP2 MSTORE PUSH1 0x20 ADD PUSH0 KECCAK256 PUSH0 ADD PUSH1 0x1 PUSH2 0x100 EXP DUP2 SLOAD DUP2 PUSH1 0xFF MUL NOT AND SWAP1 DUP4 ISZERO ISZERO MUL OR SWAP1 SSTORE POP PUSH1 0x1 DUP1 PUSH1 0x1 ADD PUSH0 DUP3 DUP3 SLOAD PUSH2 0x48E SWAP2 SWAP1 PUSH2 0x1AFF JUMP JUMPDEST SWAP3 POP POP DUP2 SWAP1 SSTORE POP PUSH32 0x4D99B957A2BC29A30EBD96A7BE8E68FE50A3C701DB28A91436490B7D53870CA4 CALLER DUP3 PUSH1 0x40 MLOAD PUSH2 0x4C6 SWAP3 SWAP2 SWAP1 PUSH2 0x1B41 JUMP JUMPDEST PUSH1 0x40 MLOAD DUP1 SWAP2 SUB SWAP1 LOG1 POP JUMP JUMPDEST PUSH2 0x4D9 PUSH2 0x137D JUMP JUMPDEST PUSH1 0x6 DUP1 SLOAD SWAP1 POP DUP3 LT PUSH2 0x517 JUMPI PUSH1 0x40 MLOAD PUSH32 0x1397166E00000000000000000000000000000000000000000000000000000000 DUP2 MSTORE PUSH1 0x4 ADD PUSH1 0x40 MLOAD DUP1 SWAP2 SUB SWAP1 REVERT JUMPDEST PUSH1 0x6 DUP3 DUP2 SLOAD DUP2 LT PUSH2 0x52B JUMPI PUSH2 0x52A PUSH2 0x1AA5 JUMP JUMPDEST JUMPDEST SWAP1 PUSH0 MSTORE PUSH1 0x20 PUSH0 KECCAK256 SWAP1 PUSH1 0x3 MUL ADD PUSH1 0x40 MLOAD DUP1 PUSH1 0x60 ADD PUSH1 0x40 MSTORE SWAP1 DUP2 PUSH0 DUP3 ADD SLOAD DUP2 MSTORE PUSH1 0x20 ADD PUSH1 0x1 DUP3 ADD DUP1 SLOAD DUP1 PUSH1 0x20 MUL PUSH1 0x20 ADD PUSH1 0x40 MLOAD SWAP1 DUP2 ADD PUSH1 0x40 MSTORE DUP1 SWAP3 SWAP2 SWAP1 DUP2 DUP2 MSTORE PUSH1 0x20 ADD PUSH0 SWAP1 JUMPDEST DUP3 DUP3 LT ISZERO PUSH2 0x638 JUMPI DUP4 DUP3 SWAP1 PUSH0 MSTORE PUSH1 0x20 PUSH0 KECCAK256 SWAP1 PUSH1 0x2 MUL ADD PUSH1 0x40 MLOAD DUP1 PUSH1 0x40 ADD PUSH1 0x40 MSTORE SWAP1 DUP2 PUSH0 DUP3 ADD DUP1 SLOAD PUSH2 0x59F SWAP1 PUSH2 0x1B95 JUMP JUMPDEST DUP1 PUSH1 0x1F ADD PUSH1 0x20 DUP1 SWAP2 DIV MUL PUSH1 0x20 ADD PUSH1 0x40 MLOAD SWAP1 DUP2 ADD PUSH1 0x40 MSTORE DUP1 SWAP3 SWAP2 SWAP1 DUP2 DUP2 MSTORE PUSH1 0x20 ADD DUP3 DUP1 SLOAD PUSH2 0x5CB SWAP1 PUSH2 0x1B95 JUMP JUMPDEST DUP1 ISZERO PUSH2 0x616 JUMPI DUP1 PUSH1 0x1F LT PUSH2 0x5ED JUMPI PUSH2 0x100 DUP1 DUP4 SLOAD DIV MUL DUP4 MSTORE SWAP2 PUSH1 0x20 ADD SWAP2 PUSH2 0x616 JUMP JUMPDEST DUP3 ADD SWAP2 SWAP1 PUSH0 MSTORE PUSH1 0x20 PUSH0 KECCAK256 SWAP1 JUMPDEST DUP2 SLOAD DUP2 MSTORE SWAP1 PUSH1 0x1 ADD SWAP1 PUSH1 0x20 ADD DUP1 DUP4 GT PUSH2 0x5F9 JUMPI DUP3 SWAP1 SUB PUSH1 0x1F AND DUP3 ADD SWAP2 JUMPDEST POP POP POP POP POP DUP2 MSTORE PUSH1 0x20 ADD PUSH1 0x1 DUP3 ADD SLOAD DUP2 MSTORE POP POP DUP2 MSTORE PUSH1 0x20 ADD SWAP1 PUSH1 0x1 ADD SWAP1 PUSH2 0x56F JUMP JUMPDEST POP POP POP POP DUP2 MSTORE PUSH1 0x20 ADD PUSH1 0x2 DUP3 ADD DUP1 SLOAD DUP1 PUSH1 0x20 MUL PUSH1 0x20 ADD PUSH1 0x40 MLOAD SWAP1 DUP2 ADD PUSH1 0x40 MSTORE DUP1 SWAP3 SWAP2 SWAP1 DUP2 DUP2 MSTORE PUSH1 0x20 ADD DUP3 DUP1 SLOAD DUP1 ISZERO PUSH2 0x68D JUMPI PUSH1 0x20 MUL DUP3 ADD SWAP2 SWAP1 PUSH0 MSTORE PUSH1 0x20 PUSH0 KECCAK256 SWAP1 JUMPDEST DUP2 SLOAD DUP2 MSTORE PUSH1 0x20 ADD SWAP1 PUSH1 0x1 ADD SWAP1 DUP1 DUP4 GT PUSH2 0x679 JUMPI JUMPDEST POP POP POP POP POP DUP2 MSTORE POP POP SWAP1 POP SWAP2 SWAP1 POP JUMP JUMPDEST PUSH1 0x1 PUSH0 ADD PUSH0 CALLER PUSH20 0xFFFFFFFFFFFFFFFFFFFFFFFFFFFFFFFFFFFFFFFF AND PUSH20 0xFFFFFFFFFFFFFFFFFFFFFFFFFFFFFFFFFFFFFFFF AND DUP2 MSTORE PUSH1 0x20 ADD SWAP1 DUP2 MSTORE PUSH1 0x20 ADD PUSH0 KECCAK256 PUSH0 ADD PUSH0 SWAP1 SLOAD SWAP1 PUSH2 0x100 EXP SWAP1 DIV PUSH1 0xFF AND PUSH2 0x721 JUMPI PUSH1 0x40 MLOAD PUSH32 0xB3E2C01600000000000000000000000000000000000000000000000000000000 DUP2 MSTORE PUSH1 0x4 ADD PUSH1 0x40 MLOAD DUP1 SWAP2 SUB SWAP1 REVERT JUMPDEST PUSH1 0x1 PUSH1 0x5 DUP2 GT ISZERO PUSH2 0x735 JUMPI PUSH2 0x734 PUSH2 0x1A0B JUMP JUMPDEST JUMPDEST PUSH1 0x1 PUSH1 0x3 ADD PUSH0 SWAP1 SLOAD SWAP1 PUSH2 0x100 EXP SWAP1 DIV PUSH1 0xFF AND PUSH1 0x5 DUP2 GT ISZERO PUSH2 0x759 JUMPI PUSH2 0x758 PUSH2 0x1A0B JUMP JUMPDEST JUMPDEST EQ PUSH1 0x1 PUSH1 0x3 ADD PUSH0 SWAP1 SLOAD SWAP1 PUSH2 0x100 EXP SWAP1 DIV PUSH1 0xFF AND PUSH1 0x1 SWAP1 SWAP2 PUSH2 0x7B1 JUMPI PUSH1 0x40 MLOAD PUSH32 0xE10DF3F00000000000000000000000000000000000000000000000000000000 DUP2 MSTORE PUSH1 0x4 ADD PUSH2 0x7A8 SWAP3 SWAP2 SWAP1 PUSH2 0x1A7E JUMP JUMPDEST PUSH1 0x40 MLOAD DUP1 SWAP2 SUB SWAP1 REVERT JUMPDEST POP POP PUSH1 0x1 PUSH1 0x2 ADD PUSH1 0x40 MLOAD DUP1 PUSH1 0x40 ADD PUSH1 0x40 MSTORE DUP1 DUP4 DUP2 MSTORE PUSH1 0x20 ADD PUSH0 DUP2 MSTORE POP SWAP1 DUP1 PUSH1 0x1 DUP2 SLOAD ADD DUP1 DUP3 SSTORE DUP1 SWAP2 POP POP PUSH1 0x1 SWAP1 SUB SWAP1 PUSH0 MSTORE PUSH1 0x20 PUSH0 KECCAK256 SWAP1 PUSH1 0x2 MUL ADD PUSH0 SWAP1 SWAP2 SWAP1 SWAP2 SWAP1 SWAP2 POP PUSH0 DUP3 ADD MLOAD DUP2 PUSH0 ADD SWAP1 DUP2 PUSH2 0x806 SWAP2 SWAP1 PUSH2 0x1D65 JUMP JUMPDEST POP PUSH1 0x20 DUP3 ADD MLOAD DUP2 PUSH1 0x1 ADD SSTORE POP POP PUSH32 0x92E393E9B54E2F801D3EA4BEB0C5E71A21CC34A5D34B77D0FB8A3AA1650DC18F PUSH1 0x1 DUP1 PUSH1 0x2 ADD DUP1 SLOAD SWAP1 POP PUSH2 0x848 SWAP2 SWAP1 PUSH2 0x1E34 JUMP JUMPDEST PUSH1 0x40 MLOAD PUSH2 0x855 SWAP2 SWAP1 PUSH2 0x1E67 JUMP JUMPDEST PUSH1 0x40 MLOAD DUP1 SWAP2 SUB SWAP1 LOG1 POP JUMP JUMPDEST PUSH2 0x868 PUSH2 0x10FA JUMP JUMPDEST PUSH0 PUSH1 0x5 DUP2 GT ISZERO PUSH2 0x87B JUMPI PUSH2 0x87A PUSH2 0x1A0B JUMP JUMPDEST JUMPDEST PUSH1 0x1 PUSH1 0x3 ADD PUSH0 SWAP1 SLOAD SWAP1 PUSH2 0x100 EXP SWAP1 DIV PUSH1 0xFF AND PUSH1 0x5 DUP2 GT ISZERO PUSH2 0x89F JUMPI PUSH2 0x89E PUSH2 0x1A0B JUMP JUMPDEST JUMPDEST EQ PUSH1 0x1 PUSH1 0x3 ADD PUSH0 SWAP1 SLOAD SWAP1 PUSH2 0x100 EXP SWAP1 DIV PUSH1 0xFF AND PUSH0 SWAP1 SWAP2 PUSH2 0x8F6 JUMPI PUSH1 0x40 MLOAD PUSH32 0xE10DF3F00000000000000000000000000000000000000000000000000000000 DUP2 MSTORE PUSH1 0x4 ADD PUSH2 0x8ED SWAP3 SWAP2 SWAP1 PUSH2 0x1A7E JUMP JUMPDEST PUSH1 0x40 MLOAD DUP1 SWAP2 SUB SWAP1 REVERT JUMPDEST POP POP PUSH1 0x1 PUSH0 ADD PUSH0 DUP3 PUSH20 0xFFFFFFFFFFFFFFFFFFFFFFFFFFFFFFFFFFFFFFFF AND PUSH20 0xFFFFFFFFFFFFFFFFFFFFFFFFFFFFFFFFFFFFFFFF AND DUP2 MSTORE PUSH1 0x20 ADD SWAP1 DUP2 MSTORE PUSH1 0x20 ADD PUSH0 KECCAK256 PUSH0 ADD PUSH0 SWAP1 SLOAD SWAP1 PUSH2 0x100 EXP SWAP1 DIV PUSH1 0xFF AND ISZERO PUSH2 0x97D JUMPI PUSH1 0x40 MLOAD PUSH32 0x59A1EC4700000000000000000000000000000000000000000000000000000000 DUP2 MSTORE PUSH1 0x4 ADD PUSH1 0x40 MLOAD DUP1 SWAP2 SUB SWAP1 REVERT JUMPDEST PUSH1 0x1 DUP1 PUSH0 ADD PUSH0 DUP4 PUSH20 0xFFFFFFFFFFFFFFFFFFFFFFFFFFFFFFFFFFFFFFFF AND PUSH20 0xFFFFFFFFFFFFFFFFFFFFFFFFFFFFFFFFFFFFFFFF AND DUP2 MSTORE PUSH1 0x20 ADD SWAP1 DUP2 MSTORE PUSH1 0x20 ADD PUSH0 KECCAK256 PUSH0 ADD PUSH0 PUSH2 0x100 EXP DUP2 SLOAD DUP2 PUSH1 0xFF MUL NOT AND SWAP1 DUP4 ISZERO ISZERO MUL OR SWAP1 SSTORE POP PUSH32 0xB6BE2187D059CC2A55FE29E0E503B566E1E0F8C8780096E185429350ACFFD3DD DUP2 PUSH1 0x40 MLOAD PUSH2 0xA04 SWAP2 SWAP1 PUSH2 0x19F2 JUMP JUMPDEST PUSH1 0x40 MLOAD DUP1 SWAP2 SUB SWAP1 LOG1 POP JUMP JUMPDEST PUSH2 0xA17 PUSH2 0x10FA JUMP JUMPDEST PUSH2 0xA20 PUSH0 PUSH2 0x1181 JUMP JUMPDEST JUMP JUMPDEST PUSH2 0xA2A PUSH2 0x10FA JUMP JUMPDEST PUSH1 0x5 DUP1 DUP2 GT ISZERO PUSH2 0xA3D JUMPI PUSH2 0xA3C PUSH2 0x1A0B JUMP JUMPDEST JUMPDEST PUSH1 0x1 PUSH1 0x3 ADD PUSH0 SWAP1 SLOAD SWAP1 PUSH2 0x100 EXP SWAP1 DIV PUSH1 0xFF AND PUSH1 0x5 DUP2 GT ISZERO PUSH2 0xA61 JUMPI PUSH2 0xA60 PUSH2 0x1A0B JUMP JUMPDEST JUMPDEST LT PUSH2 0xA98 JUMPI PUSH1 0x40 MLOAD PUSH32 0x86FC57F00000000000000000000000000000000000000000000000000000000 DUP2 MSTORE PUSH1 0x4 ADD PUSH1 0x40 MLOAD DUP1 SWAP2 SUB SWAP1 REVERT JUMPDEST PUSH0 PUSH1 0x1 PUSH1 0x3 ADD PUSH0 SWAP1 SLOAD SWAP1 PUSH2 0x100 EXP SWAP1 DIV PUSH1 0xFF AND SWAP1 POP PUSH1 0x1 DUP1 PUSH1 0x3 ADD PUSH0 SWAP1 SLOAD SWAP1 PUSH2 0x100 EXP SWAP1 DIV PUSH1 0xFF AND PUSH1 0x5 DUP2 GT ISZERO PUSH2 0xAD2 JUMPI PUSH2 0xAD1 PUSH2 0x1A0B JUMP JUMPDEST JUMPDEST PUSH2 0xADC SWAP2 SWAP1 PUSH2 0x1AFF JUMP JUMPDEST PUSH1 0x5 DUP2 GT ISZERO PUSH2 0xAEE JUMPI PUSH2 0xAED PUSH2 0x1A0B JUMP JUMPDEST JUMPDEST PUSH1 0x1 PUSH1 0x3 ADD PUSH0 PUSH2 0x100 EXP DUP2 SLOAD DUP2 PUSH1 0xFF MUL NOT AND SWAP1 DUP4 PUSH1 0x5 DUP2 GT ISZERO PUSH2 0xB14 JUMPI PUSH2 0xB13 PUSH2 0x1A0B JUMP JUMPDEST JUMPDEST MUL OR SWAP1 SSTORE POP PUSH32 0xA97A4EE45751E2ABF3E4FC8946939630B11B371EA8AE39CCDC3056E98F5CC3F DUP2 PUSH1 0x1 PUSH1 0x3 ADD PUSH0 SWAP1 SLOAD SWAP1 PUSH2 0x100 EXP SWAP1 DIV PUSH1 0xFF AND PUSH1 0x40 MLOAD PUSH2 0xB5B SWAP3 SWAP2 SWAP1 PUSH2 0x1A7E JUMP JUMPDEST PUSH1 0x40 MLOAD DUP1 SWAP2 SUB SWAP1 LOG1 PUSH1 0x5 DUP1 DUP2 GT ISZERO PUSH2 0xB76 JUMPI PUSH2 0xB75 PUSH2 0x1A0B JUMP JUMPDEST JUMPDEST PUSH1 0x1 PUSH1 0x3 ADD PUSH0 SWAP1 SLOAD SWAP1 PUSH2 0x100 EXP SWAP1 DIV PUSH1 0xFF AND PUSH1 0x5 DUP2 GT ISZERO PUSH2 0xB9A JUMPI PUSH2 0xB99 PUSH2 0x1A0B JUMP JUMPDEST JUMPDEST SUB PUSH2 0xBA8 JUMPI PUSH2 0xBA7 PUSH2 0x1242 JUMP JUMPDEST JUMPDEST POP JUMP JUMPDEST PUSH1 0x60 PUSH1 0x1 PUSH0 ADD PUSH0 CALLER PUSH20 0xFFFFFFFFFFFFFFFFFFFFFFFFFFFFFFFFFFFFFFFF AND PUSH20 0xFFFFFFFFFFFFFFFFFFFFFFFFFFFFFFFFFFFFFFFF AND DUP2 MSTORE PUSH1 0x20 ADD SWAP1 DUP2 MSTORE PUSH1 0x20 ADD PUSH0 KECCAK256 PUSH0 ADD PUSH0 SWAP1 SLOAD SWAP1 PUSH2 0x100 EXP SWAP1 DIV PUSH1 0xFF AND PUSH2 0xC31 JUMPI PUSH1 0x40 MLOAD PUSH32 0xB3E2C01600000000000000000000000000000000000000000000000000000000 DUP2 MSTORE PUSH1 0x4 ADD PUSH1 0x40 MLOAD DUP1 SWAP2 SUB SWAP1 REVERT JUMPDEST PUSH1 0x5 DUP1 DUP2 GT ISZERO PUSH2 0xC44 JUMPI PUSH2 0xC43 PUSH2 0x1A0B JUMP JUMPDEST JUMPDEST PUSH1 0x1 PUSH1 0x3 ADD PUSH0 SWAP1 SLOAD SWAP1 PUSH2 0x100 EXP SWAP1 DIV PUSH1 0xFF AND PUSH1 0x5 DUP2 GT ISZERO PUSH2 0xC68 JUMPI PUSH2 0xC67 PUSH2 0x1A0B JUMP JUMPDEST JUMPDEST EQ PUSH1 0x1 PUSH1 0x3 ADD PUSH0 SWAP1 SLOAD SWAP1 PUSH2 0x100 EXP SWAP1 DIV PUSH1 0xFF AND PUSH1 0x5 SWAP1 SWAP2 PUSH2 0xCC0 JUMPI PUSH1 0x40 MLOAD PUSH32 0xE10DF3F00000000000000000000000000000000000000000000000000000000 DUP2 MSTORE PUSH1 0x4 ADD PUSH2 0xCB7 SWAP3 SWAP2 SWAP1 PUSH2 0x1A7E JUMP JUMPDEST PUSH1 0x40 MLOAD DUP1 SWAP2 SUB SWAP1 REVERT JUMPDEST POP POP PUSH1 0x1 PUSH1 0x4 ADD DUP1 SLOAD DUP1 PUSH1 0x20 MUL PUSH1 0x20 ADD PUSH1 0x40 MLOAD SWAP1 DUP2 ADD PUSH1 0x40 MSTORE DUP1 SWAP3 SWAP2 SWAP1 DUP2 DUP2 MSTORE PUSH1 0x20 ADD DUP3 DUP1 SLOAD DUP1 ISZERO PUSH2 0xD0F JUMPI PUSH1 0x20 MUL DUP3 ADD SWAP2 SWAP1 PUSH0 MSTORE PUSH1 0x20 PUSH0 KECCAK256 SWAP1 JUMPDEST DUP2 SLOAD DUP2 MSTORE PUSH1 0x20 ADD SWAP1 PUSH1 0x1 ADD SWAP1 DUP1 DUP4 GT PUSH2 0xCFB JUMPI JUMPDEST POP POP POP POP POP SWAP1 POP SWAP1 JUMP JUMPDEST PUSH2 0xD21 PUSH2 0x10FA JUMP JUMPDEST PUSH1 0x5 DUP1 DUP2 GT ISZERO PUSH2 0xD34 JUMPI PUSH2 0xD33 PUSH2 0x1A0B JUMP JUMPDEST JUMPDEST PUSH1 0x1 PUSH1 0x3 ADD PUSH0 SWAP1 SLOAD SWAP1 PUSH2 0x100 EXP SWAP1 DIV PUSH1 0xFF AND PUSH1 0x5 DUP2 GT ISZERO PUSH2 0xD58 JUMPI PUSH2 0xD57 PUSH2 0x1A0B JUMP JUMPDEST JUMPDEST EQ PUSH1 0x1 PUSH1 0x3 ADD PUSH0 SWAP1 SLOAD SWAP1 PUSH2 0x100 EXP SWAP1 DIV PUSH1 0xFF AND PUSH1 0x5 SWAP1 SWAP2 PUSH2 0xDB0 JUMPI PUSH1 0x40 MLOAD PUSH32 0xE10DF3F00000000000000000000000000000000000000000000000000000000 DUP2 MSTORE PUSH1 0x4 ADD PUSH2 0xDA7 SWAP3 SWAP2 SWAP1 PUSH2 0x1A7E JUMP JUMPDEST PUSH1 0x40 MLOAD DUP1 SWAP2 SUB SWAP1 REVERT JUMPDEST POP POP PUSH1 0x6 PUSH1 0x1 DUP2 PUSH1 0x1 DUP2 SLOAD ADD DUP1 DUP3 SSTORE DUP1 SWAP2 POP POP SUB SWAP1 PUSH0 MSTORE PUSH1 0x20 PUSH0 KECCAK256 SWAP1 POP POP PUSH0 PUSH1 0x6 PUSH1 0x1 PUSH1 0x6 DUP1 SLOAD SWAP1 POP PUSH2 0xDE3 SWAP2 SWAP1 PUSH2 0x1E34 JUMP JUMPDEST DUP2 SLOAD DUP2 LT PUSH2 0xDF4 JUMPI PUSH2 0xDF3 PUSH2 0x1AA5 JUMP JUMPDEST JUMPDEST SWAP1 PUSH0 MSTORE PUSH1 0x20 PUSH0 KECCAK256 SWAP1 PUSH1 0x3 MUL ADD SWAP1 POP PUSH1 0x1 DUP1 ADD SLOAD DUP2 PUSH0 ADD DUP2 SWAP1 SSTORE POP PUSH0 PUSH0 SWAP1 POP JUMPDEST PUSH1 0x1 PUSH1 0x2 ADD DUP1 SLOAD SWAP1 POP DUP2 LT ISZERO PUSH2 0xE9C JUMPI DUP2 PUSH1 0x1 ADD PUSH1 0x1 PUSH1 0x2 ADD DUP3 DUP2 SLOAD DUP2 LT PUSH2 0xE3E JUMPI PUSH2 0xE3D PUSH2 0x1AA5 JUMP JUMPDEST JUMPDEST SWAP1 PUSH0 MSTORE PUSH1 0x20 PUSH0 KECCAK256 SWAP1 PUSH1 0x2 MUL ADD SWAP1 DUP1 PUSH1 0x1 DUP2 SLOAD ADD DUP1 DUP3 SSTORE DUP1 SWAP2 POP POP PUSH1 0x1 SWAP1 SUB SWAP1 PUSH0 MSTORE PUSH1 0x20 PUSH0 KECCAK256 SWAP1 PUSH1 0x2 MUL ADD PUSH0 SWAP1 SWAP2 SWAP1 SWAP2 SWAP1 SWAP2 POP PUSH0 DUP3 ADD DUP2 PUSH0 ADD SWAP1 DUP2 PUSH2 0xE82 SWAP2 SWAP1 PUSH2 0x1E95 JUMP JUMPDEST POP PUSH1 0x1 DUP3 ADD SLOAD DUP2 PUSH1 0x1 ADD SSTORE POP POP DUP1 DUP1 PUSH1 0x1 ADD SWAP2 POP POP PUSH2 0xE13 JUMP JUMPDEST POP PUSH0 PUSH0 SWAP1 POP JUMPDEST PUSH1 0x1 PUSH1 0x4 ADD DUP1 SLOAD SWAP1 POP DUP2 LT ISZERO PUSH2 0xF06 JUMPI DUP2 PUSH1 0x2 ADD PUSH1 0x1 PUSH1 0x4 ADD DUP3 DUP2 SLOAD DUP2 LT PUSH2 0xECD JUMPI PUSH2 0xECC PUSH2 0x1AA5 JUMP JUMPDEST JUMPDEST SWAP1 PUSH0 MSTORE PUSH1 0x20 PUSH0 KECCAK256 ADD SLOAD SWAP1 DUP1 PUSH1 0x1 DUP2 SLOAD ADD DUP1 DUP3 SSTORE DUP1 SWAP2 POP POP PUSH1 0x1 SWAP1 SUB SWAP1 PUSH0 MSTORE PUSH1 0x20 PUSH0 KECCAK256 ADD PUSH0 SWAP1 SWAP2 SWAP1 SWAP2 SWAP1 SWAP2 POP SSTORE DUP1 DUP1 PUSH1 0x1 ADD SWAP2 POP POP PUSH2 0xEA2 JUMP JUMPDEST POP PUSH1 0x1 PUSH0 PUSH1 0x1 DUP3 ADD PUSH0 SWAP1 SSTORE PUSH1 0x2 DUP3 ADD PUSH0 PUSH2 0xF20 SWAP2 SWAP1 PUSH2 0x139D JUMP JUMPDEST PUSH1 0x3 DUP3 ADD PUSH0 PUSH2 0x100 EXP DUP2 SLOAD SWAP1 PUSH1 0xFF MUL NOT AND SWAP1 SSTORE PUSH1 0x4 DUP3 ADD PUSH0 PUSH2 0xF42 SWAP2 SWAP1 PUSH2 0x13BE JUMP JUMPDEST POP POP PUSH0 PUSH1 0x1 PUSH1 0x3 ADD PUSH0 PUSH2 0x100 EXP DUP2 SLOAD DUP2 PUSH1 0xFF MUL NOT AND SWAP1 DUP4 PUSH1 0x5 DUP2 GT ISZERO PUSH2 0xF6B JUMPI PUSH2 0xF6A PUSH2 0x1A0B JUMP JUMPDEST JUMPDEST MUL OR SWAP1 SSTORE POP PUSH1 0x1 PUSH1 0x6 DUP1 SLOAD SWAP1 POP PUSH2 0xF82 SWAP2 SWAP1 PUSH2 0x1E34 JUMP JUMPDEST PUSH32 0x87F1EFD3ECC2164EB03E4374AC4BFEBD5EE2D9F4785FC2F4C9C193FC132BB03F DUP3 PUSH0 ADD SLOAD DUP4 PUSH1 0x2 ADD DUP1 SLOAD SWAP1 POP PUSH1 0x40 MLOAD PUSH2 0xFBD SWAP3 SWAP2 SWAP1 PUSH2 0x1F7A JUMP JUMPDEST PUSH1 0x40 MLOAD DUP1 SWAP2 SUB SWAP1 LOG2 POP JUMP JUMPDEST PUSH0 PUSH0 PUSH0 SWAP1 SLOAD SWAP1 PUSH2 0x100 EXP SWAP1 DIV PUSH20 0xFFFFFFFFFFFFFFFFFFFFFFFFFFFFFFFFFFFFFFFF AND SWAP1 POP SWAP1 JUMP JUMPDEST PUSH1 0x1 PUSH0 ADD PUSH0 CALLER PUSH20 0xFFFFFFFFFFFFFFFFFFFFFFFFFFFFFFFFFFFFFFFF AND PUSH20 0xFFFFFFFFFFFFFFFFFFFFFFFFFFFFFFFFFFFFFFFF AND DUP2 MSTORE PUSH1 0x20 ADD SWAP1 DUP2 MSTORE PUSH1 0x20 ADD PUSH0 KECCAK256 PUSH0 ADD PUSH0 SWAP1 SLOAD SWAP1 PUSH2 0x100 EXP SWAP1 DIV PUSH1 0xFF AND PUSH2 0x1073 JUMPI PUSH1 0x40 MLOAD PUSH32 0xB3E2C01600000000000000000000000000000000000000000000000000000000 DUP2 MSTORE PUSH1 0x4 ADD PUSH1 0x40 MLOAD DUP1 SWAP2 SUB SWAP1 REVERT JUMPDEST POP JUMP JUMPDEST PUSH2 0x107E PUSH2 0x10FA JUMP JUMPDEST PUSH0 PUSH20 0xFFFFFFFFFFFFFFFFFFFFFFFFFFFFFFFFFFFFFFFF AND DUP2 PUSH20 0xFFFFFFFFFFFFFFFFFFFFFFFFFFFFFFFFFFFFFFFF AND SUB PUSH2 0x10EE JUMPI PUSH0 PUSH1 0x40 MLOAD PUSH32 0x1E4FBDF700000000000000000000000000000000000000000000000000000000 DUP2 MSTORE PUSH1 0x4 ADD PUSH2 0x10E5 SWAP2 SWAP1 PUSH2 0x19F2 JUMP JUMPDEST PUSH1 0x40 MLOAD DUP1 SWAP2 SUB SWAP1 REVERT JUMPDEST PUSH2 0x10F7 DUP2 PUSH2 0x1181 JUMP JUMPDEST POP JUMP JUMPDEST PUSH2 0x1102 PUSH2 0x1376 JUMP JUMPDEST PUSH20 0xFFFFFFFFFFFFFFFFFFFFFFFFFFFFFFFFFFFFFFFF AND PUSH2 0x1120 PUSH2 0xFC8 JUMP JUMPDEST PUSH20 0xFFFFFFFFFFFFFFFFFFFFFFFFFFFFFFFFFFFFFFFF AND EQ PUSH2 0x117F JUMPI PUSH2 0x1143 PUSH2 0x1376 JUMP JUMPDEST PUSH1 0x40 MLOAD PUSH32 0x118CDAA700000000000000000000000000000000000000000000000000000000 DUP2 MSTORE PUSH1 0x4 ADD PUSH2 0x1176 SWAP2 SWAP1 PUSH2 0x19F2 JUMP JUMPDEST PUSH1 0x40 MLOAD DUP1 SWAP2 SUB SWAP1 REVERT JUMPDEST JUMP JUMPDEST PUSH0 PUSH0 PUSH0 SWAP1 SLOAD SWAP1 PUSH2 0x100 EXP SWAP1 DIV PUSH20 0xFFFFFFFFFFFFFFFFFFFFFFFFFFFFFFFFFFFFFFFF AND SWAP1 POP DUP2 PUSH0 PUSH0 PUSH2 0x100 EXP DUP2 SLOAD DUP2 PUSH20 0xFFFFFFFFFFFFFFFFFFFFFFFFFFFFFFFFFFFFFFFF MUL NOT AND SWAP1 DUP4 PUSH20 0xFFFFFFFFFFFFFFFFFFFFFFFFFFFFFFFFFFFFFFFF AND MUL OR SWAP1 SSTORE POP DUP2 PUSH20 0xFFFFFFFFFFFFFFFFFFFFFFFFFFFFFFFFFFFFFFFF AND DUP2 PUSH20 0xFFFFFFFFFFFFFFFFFFFFFFFFFFFFFFFFFFFFFFFF AND PUSH32 0x8BE0079C531659141344CD1FD0A4F28419497F9722A3DAAFE3B4186F6B6457E0 PUSH1 0x40 MLOAD PUSH1 0x40 MLOAD DUP1 SWAP2 SUB SWAP1 LOG3 POP POP JUMP JUMPDEST PUSH2 0x124A PUSH2 0x10FA JUMP JUMPDEST PUSH0 PUSH0 SWAP1 POP PUSH1 0x1 PUSH1 0x4 ADD PUSH0 PUSH2 0x125E SWAP2 SWAP1 PUSH2 0x13BE JUMP JUMPDEST PUSH0 PUSH0 SWAP1 POP JUMPDEST PUSH1 0x1 PUSH1 0x2 ADD DUP1 SLOAD SWAP1 POP DUP2 LT ISZERO PUSH2 0x1331 JUMPI PUSH0 PUSH1 0x1 PUSH1 0x2 ADD DUP3 DUP2 SLOAD DUP2 LT PUSH2 0x128B JUMPI PUSH2 0x128A PUSH2 0x1AA5 JUMP JUMPDEST JUMPDEST SWAP1 PUSH0 MSTORE PUSH1 0x20 PUSH0 KECCAK256 SWAP1 PUSH1 0x2 MUL ADD PUSH1 0x1 ADD SLOAD SWAP1 POP DUP3 DUP2 GT ISZERO PUSH2 0x12E6 JUMPI DUP1 SWAP3 POP PUSH1 0x1 PUSH1 0x4 ADD PUSH0 PUSH2 0x12B8 SWAP2 SWAP1 PUSH2 0x13BE JUMP JUMPDEST PUSH1 0x1 PUSH1 0x4 ADD DUP3 SWAP1 DUP1 PUSH1 0x1 DUP2 SLOAD ADD DUP1 DUP3 SSTORE DUP1 SWAP2 POP POP PUSH1 0x1 SWAP1 SUB SWAP1 PUSH0 MSTORE PUSH1 0x20 PUSH0 KECCAK256 ADD PUSH0 SWAP1 SWAP2 SWAP1 SWAP2 SWAP1 SWAP2 POP SSTORE PUSH2 0x1325 JUMP JUMPDEST DUP3 DUP2 EQ DUP1 ISZERO PUSH2 0x12F5 JUMPI POP PUSH0 DUP4 EQ ISZERO JUMPDEST ISZERO PUSH2 0x1324 JUMPI PUSH1 0x1 PUSH1 0x4 ADD DUP3 SWAP1 DUP1 PUSH1 0x1 DUP2 SLOAD ADD DUP1 DUP3 SSTORE DUP1 SWAP2 POP POP PUSH1 0x1 SWAP1 SUB SWAP1 PUSH0 MSTORE PUSH1 0x20 PUSH0 KECCAK256 ADD PUSH0 SWAP1 SWAP2 SWAP1 SWAP2 SWAP1 SWAP2 POP SSTORE JUMPDEST JUMPDEST POP DUP1 PUSH1 0x1 ADD SWAP1 POP PUSH2 0x1263 JUMP JUMPDEST POP PUSH32 0x45EF9B7FC34BDFCCCC29BE8BE99AB3E8F3206F5957D34325050712B5B486BDCE DUP2 PUSH1 0x1 PUSH1 0x4 ADD DUP1 SLOAD SWAP1 POP PUSH1 0x40 MLOAD PUSH2 0x136B SWAP3 SWAP2 SWAP1 PUSH2 0x1F7A JUMP JUMPDEST PUSH1 0x40 MLOAD DUP1 SWAP2 SUB SWAP1 LOG1 POP JUMP JUMPDEST PUSH0 CALLER SWAP1 POP SWAP1 JUMP JUMPDEST PUSH1 0x40 MLOAD DUP1 PUSH1 0x60 ADD PUSH1 0x40 MSTORE DUP1 PUSH0 DUP2 MSTORE PUSH1 0x20 ADD PUSH1 0x60 DUP2 MSTORE PUSH1 0x20 ADD PUSH1 0x60 DUP2 MSTORE POP SWAP1 JUMP JUMPDEST POP DUP1 SLOAD PUSH0 DUP3 SSTORE PUSH1 0x2 MUL SWAP1 PUSH0 MSTORE PUSH1 0x20 PUSH0 KECCAK256 SWAP1 DUP2 ADD SWAP1 PUSH2 0x13BB SWAP2 SWAP1 PUSH2 0x13DC JUMP JUMPDEST POP JUMP JUMPDEST POP DUP1 SLOAD PUSH0 DUP3 SSTORE SWAP1 PUSH0 MSTORE PUSH1 0x20 PUSH0 KECCAK256 SWAP1 DUP2 ADD SWAP1 PUSH2 0x13D9 SWAP2 SWAP1 PUSH2 0x1408 JUMP JUMPDEST POP JUMP JUMPDEST JUMPDEST DUP1 DUP3 GT ISZERO PUSH2 0x1404 JUMPI PUSH0 PUSH0 DUP3 ADD PUSH0 PUSH2 0x13F4 SWAP2 SWAP1 PUSH2 0x1423 JUMP JUMPDEST PUSH1 0x1 DUP3 ADD PUSH0 SWAP1 SSTORE POP PUSH1 0x2 ADD PUSH2 0x13DD JUMP JUMPDEST POP SWAP1 JUMP JUMPDEST JUMPDEST DUP1 DUP3 GT ISZERO PUSH2 0x141F JUMPI PUSH0 DUP2 PUSH0 SWAP1 SSTORE POP PUSH1 0x1 ADD PUSH2 0x1409 JUMP JUMPDEST POP SWAP1 JUMP JUMPDEST POP DUP1 SLOAD PUSH2 0x142F SWAP1 PUSH2 0x1B95 JUMP JUMPDEST PUSH0 DUP3 SSTORE DUP1 PUSH1 0x1F LT PUSH2 0x1440 JUMPI POP PUSH2 0x145D JUMP JUMPDEST PUSH1 0x1F ADD PUSH1 0x20 SWAP1 DIV SWAP1 PUSH0 MSTORE PUSH1 0x20 PUSH0 KECCAK256 SWAP1 DUP2 ADD SWAP1 PUSH2 0x145C SWAP2 SWAP1 PUSH2 0x1408 JUMP JUMPDEST JUMPDEST POP JUMP JUMPDEST PUSH0 PUSH1 0x40 MLOAD SWAP1 POP SWAP1 JUMP JUMPDEST PUSH0 PUSH0 REVERT JUMPDEST PUSH0 PUSH0 REVERT JUMPDEST PUSH0 DUP2 SWAP1 POP SWAP2 SWAP1 POP JUMP JUMPDEST PUSH2 0x1483 DUP2 PUSH2 0x1471 JUMP JUMPDEST DUP2 EQ PUSH2 0x148D JUMPI PUSH0 PUSH0 REVERT JUMPDEST POP JUMP JUMPDEST PUSH0 DUP2 CALLDATALOAD SWAP1 POP PUSH2 0x149E DUP2 PUSH2 0x147A JUMP JUMPDEST SWAP3 SWAP2 POP POP JUMP JUMPDEST PUSH0 PUSH1 0x20 DUP3 DUP5 SUB SLT ISZERO PUSH2 0x14B9 JUMPI PUSH2 0x14B8 PUSH2 0x1469 JUMP JUMPDEST JUMPDEST PUSH0 PUSH2 0x14C6 DUP5 DUP3 DUP6 ADD PUSH2 0x1490 JUMP JUMPDEST SWAP2 POP POP SWAP3 SWAP2 POP POP JUMP JUMPDEST PUSH2 0x14D8 DUP2 PUSH2 0x1471 JUMP JUMPDEST DUP3 MSTORE POP POP JUMP JUMPDEST PUSH0 DUP2 MLOAD SWAP1 POP SWAP2 SWAP1 POP JUMP JUMPDEST PUSH0 DUP3 DUP3 MSTORE PUSH1 0x20 DUP3 ADD SWAP1 POP SWAP3 SWAP2 POP POP JUMP JUMPDEST PUSH0 DUP2 SWAP1 POP PUSH1 0x20 DUP3 ADD SWAP1 POP SWAP2 SWAP1 POP JUMP JUMPDEST PUSH0 DUP2 MLOAD SWAP1 POP SWAP2 SWAP1 POP JUMP JUMPDEST PUSH0 DUP3 DUP3 MSTORE PUSH1 0x20 DUP3 ADD SWAP1 POP SWAP3 SWAP2 POP POP JUMP JUMPDEST DUP3 DUP2 DUP4 MCOPY PUSH0 DUP4 DUP4 ADD MSTORE POP POP POP JUMP JUMPDEST PUSH0 PUSH1 0x1F NOT PUSH1 0x1F DUP4 ADD AND SWAP1 POP SWAP2 SWAP1 POP JUMP JUMPDEST PUSH0 PUSH2 0x1549 DUP3 PUSH2 0x1507 JUMP JUMPDEST PUSH2 0x1553 DUP2 DUP6 PUSH2 0x1511 JUMP JUMPDEST SWAP4 POP PUSH2 0x1563 DUP2 DUP6 PUSH1 0x20 DUP7 ADD PUSH2 0x1521 JUMP JUMPDEST PUSH2 0x156C DUP2 PUSH2 0x152F JUMP JUMPDEST DUP5 ADD SWAP2 POP POP SWAP3 SWAP2 POP POP JUMP JUMPDEST PUSH0 PUSH1 0x40 DUP4 ADD PUSH0 DUP4 ADD MLOAD DUP5 DUP3 SUB PUSH0 DUP7 ADD MSTORE PUSH2 0x1591 DUP3 DUP3 PUSH2 0x153F JUMP JUMPDEST SWAP2 POP POP PUSH1 0x20 DUP4 ADD MLOAD PUSH2 0x15A6 PUSH1 0x20 DUP7 ADD DUP3 PUSH2 0x14CF JUMP JUMPDEST POP DUP1 SWAP2 POP POP SWAP3 SWAP2 POP POP JUMP JUMPDEST PUSH0 PUSH2 0x15BC DUP4 DUP4 PUSH2 0x1577 JUMP JUMPDEST SWAP1 POP SWAP3 SWAP2 POP POP JUMP JUMPDEST PUSH0 PUSH1 0x20 DUP3 ADD SWAP1 POP SWAP2 SWAP1 POP JUMP JUMPDEST PUSH0 PUSH2 0x15DA DUP3 PUSH2 0x14DE JUMP JUMPDEST PUSH2 0x15E4 DUP2 DUP6 PUSH2 0x14E8 JUMP JUMPDEST SWAP4 POP DUP4 PUSH1 0x20 DUP3 MUL DUP6 ADD PUSH2 0x15F6 DUP6 PUSH2 0x14F8 JUMP JUMPDEST DUP1 PUSH0 JUMPDEST DUP6 DUP2 LT ISZERO PUSH2 0x1631 JUMPI DUP5 DUP5 SUB DUP10 MSTORE DUP2 MLOAD PUSH2 0x1612 DUP6 DUP3 PUSH2 0x15B1 JUMP JUMPDEST SWAP5 POP PUSH2 0x161D DUP4 PUSH2 0x15C4 JUMP JUMPDEST SWAP3 POP PUSH1 0x20 DUP11 ADD SWAP10 POP POP PUSH1 0x1 DUP2 ADD SWAP1 POP PUSH2 0x15F9 JUMP JUMPDEST POP DUP3 SWAP8 POP DUP8 SWAP6 POP POP POP POP POP POP SWAP3 SWAP2 POP POP JUMP JUMPDEST PUSH0 DUP2 MLOAD SWAP1 POP SWAP2 SWAP1 POP JUMP JUMPDEST PUSH0 DUP3 DUP3 MSTORE PUSH1 0x20 DUP3 ADD SWAP1 POP SWAP3 SWAP2 POP POP JUMP JUMPDEST PUSH0 DUP2 SWAP1 POP PUSH1 0x20 DUP3 ADD SWAP1 POP SWAP2 SWAP1 POP JUMP JUMPDEST PUSH0 PUSH2 0x1677 DUP4 DUP4 PUSH2 0x14CF JUMP JUMPDEST PUSH1 0x20 DUP4 ADD SWAP1 POP SWAP3 SWAP2 POP POP JUMP JUMPDEST PUSH0 PUSH1 0x20 DUP3 ADD SWAP1 POP SWAP2 SWAP1 POP JUMP JUMPDEST PUSH0 PUSH2 0x1699 DUP3 PUSH2 0x1643 JUMP JUMPDEST PUSH2 0x16A3 DUP2 DUP6 PUSH2 0x164D JUMP JUMPDEST SWAP4 POP PUSH2 0x16AE DUP4 PUSH2 0x165D JUMP JUMPDEST DUP1 PUSH0 JUMPDEST DUP4 DUP2 LT ISZERO PUSH2 0x16DE JUMPI DUP2 MLOAD PUSH2 0x16C5 DUP9 DUP3 PUSH2 0x166C JUMP JUMPDEST SWAP8 POP PUSH2 0x16D0 DUP4 PUSH2 0x1683 JUMP JUMPDEST SWAP3 POP POP PUSH1 0x1 DUP2 ADD SWAP1 POP PUSH2 0x16B1 JUMP JUMPDEST POP DUP6 SWAP4 POP POP POP POP SWAP3 SWAP2 POP POP JUMP JUMPDEST PUSH0 PUSH1 0x60 DUP4 ADD PUSH0 DUP4 ADD MLOAD PUSH2 0x1700 PUSH0 DUP7 ADD DUP3 PUSH2 0x14CF JUMP JUMPDEST POP PUSH1 0x20 DUP4 ADD MLOAD DUP5 DUP3 SUB PUSH1 0x20 DUP7 ADD MSTORE PUSH2 0x1718 DUP3 DUP3 PUSH2 0x15D0 JUMP JUMPDEST SWAP2 POP POP PUSH1 0x40 DUP4 ADD MLOAD DUP5 DUP3 SUB PUSH1 0x40 DUP7 ADD MSTORE PUSH2 0x1732 DUP3 DUP3 PUSH2 0x168F JUMP JUMPDEST SWAP2 POP POP DUP1 SWAP2 POP POP SWAP3 SWAP2 POP POP JUMP JUMPDEST PUSH0 PUSH1 0x20 DUP3 ADD SWAP1 POP DUP2 DUP2 SUB PUSH0 DUP4 ADD MSTORE PUSH2 0x1757 DUP2 DUP5 PUSH2 0x16EB JUMP JUMPDEST SWAP1 POP SWAP3 SWAP2 POP POP JUMP JUMPDEST PUSH0 PUSH0 REVERT JUMPDEST PUSH0 PUSH0 REVERT JUMPDEST PUSH32 0x4E487B7100000000000000000000000000000000000000000000000000000000 PUSH0 MSTORE PUSH1 0x41 PUSH1 0x4 MSTORE PUSH1 0x24 PUSH0 REVERT JUMPDEST PUSH2 0x179D DUP3 PUSH2 0x152F JUMP JUMPDEST DUP2 ADD DUP2 DUP2 LT PUSH8 0xFFFFFFFFFFFFFFFF DUP3 GT OR ISZERO PUSH2 0x17BC JUMPI PUSH2 0x17BB PUSH2 0x1767 JUMP JUMPDEST JUMPDEST DUP1 PUSH1 0x40 MSTORE POP POP POP JUMP JUMPDEST PUSH0 PUSH2 0x17CE PUSH2 0x1460 JUMP JUMPDEST SWAP1 POP PUSH2 0x17DA DUP3 DUP3 PUSH2 0x1794 JUMP JUMPDEST SWAP2 SWAP1 POP JUMP JUMPDEST PUSH0 PUSH8 0xFFFFFFFFFFFFFFFF DUP3 GT ISZERO PUSH2 0x17F9 JUMPI PUSH2 0x17F8 PUSH2 0x1767 JUMP JUMPDEST JUMPDEST PUSH2 0x1802 DUP3 PUSH2 0x152F JUMP JUMPDEST SWAP1 POP PUSH1 0x20 DUP2 ADD SWAP1 POP SWAP2 SWAP1 POP JUMP JUMPDEST DUP3 DUP2 DUP4 CALLDATACOPY PUSH0 DUP4 DUP4 ADD MSTORE POP POP POP JUMP JUMPDEST PUSH0 PUSH2 0x182F PUSH2 0x182A DUP5 PUSH2 0x17DF JUMP JUMPDEST PUSH2 0x17C5 JUMP JUMPDEST SWAP1 POP DUP3 DUP2 MSTORE PUSH1 0x20 DUP2 ADD DUP5 DUP5 DUP5 ADD GT ISZERO PUSH2 0x184B JUMPI PUSH2 0x184A PUSH2 0x1763 JUMP JUMPDEST JUMPDEST PUSH2 0x1856 DUP5 DUP3 DUP6 PUSH2 0x180F JUMP JUMPDEST POP SWAP4 SWAP3 POP POP POP JUMP JUMPDEST PUSH0 DUP3 PUSH1 0x1F DUP4 ADD SLT PUSH2 0x1872 JUMPI PUSH2 0x1871 PUSH2 0x175F JUMP JUMPDEST JUMPDEST DUP2 CALLDATALOAD PUSH2 0x1882 DUP5 DUP3 PUSH1 0x20 DUP7 ADD PUSH2 0x181D JUMP JUMPDEST SWAP2 POP POP SWAP3 SWAP2 POP POP JUMP JUMPDEST PUSH0 PUSH1 0x20 DUP3 DUP5 SUB SLT ISZERO PUSH2 0x18A0 JUMPI PUSH2 0x189F PUSH2 0x1469 JUMP JUMPDEST JUMPDEST PUSH0 DUP3 ADD CALLDATALOAD PUSH8 0xFFFFFFFFFFFFFFFF DUP2 GT ISZERO PUSH2 0x18BD JUMPI PUSH2 0x18BC PUSH2 0x146D JUMP JUMPDEST JUMPDEST PUSH2 0x18C9 DUP5 DUP3 DUP6 ADD PUSH2 0x185E JUMP JUMPDEST SWAP2 POP POP SWAP3 SWAP2 POP POP JUMP JUMPDEST PUSH0 PUSH20 0xFFFFFFFFFFFFFFFFFFFFFFFFFFFFFFFFFFFFFFFF DUP3 AND SWAP1 POP SWAP2 SWAP1 POP JUMP JUMPDEST PUSH0 PUSH2 0x18FB DUP3 PUSH2 0x18D2 JUMP JUMPDEST SWAP1 POP SWAP2 SWAP1 POP JUMP JUMPDEST PUSH2 0x190B DUP2 PUSH2 0x18F1 JUMP JUMPDEST DUP2 EQ PUSH2 0x1915 JUMPI PUSH0 PUSH0 REVERT JUMPDEST POP JUMP JUMPDEST PUSH0 DUP2 CALLDATALOAD SWAP1 POP PUSH2 0x1926 DUP2 PUSH2 0x1902 JUMP JUMPDEST SWAP3 SWAP2 POP POP JUMP JUMPDEST PUSH0 PUSH1 0x20 DUP3 DUP5 SUB SLT ISZERO PUSH2 0x1941 JUMPI PUSH2 0x1940 PUSH2 0x1469 JUMP JUMPDEST JUMPDEST PUSH0 PUSH2 0x194E DUP5 DUP3 DUP6 ADD PUSH2 0x1918 JUMP JUMPDEST SWAP2 POP POP SWAP3 SWAP2 POP POP JUMP JUMPDEST PUSH0 DUP3 DUP3 MSTORE PUSH1 0x20 DUP3 ADD SWAP1 POP SWAP3 SWAP2 POP POP JUMP JUMPDEST PUSH0 PUSH2 0x1971 DUP3 PUSH2 0x1643 JUMP JUMPDEST PUSH2 0x197B DUP2 DUP6 PUSH2 0x1957 JUMP JUMPDEST SWAP4 POP PUSH2 0x1986 DUP4 PUSH2 0x165D JUMP JUMPDEST DUP1 PUSH0 JUMPDEST DUP4 DUP2 LT ISZERO PUSH2 0x19B6 JUMPI DUP2 MLOAD PUSH2 0x199D DUP9 DUP3 PUSH2 0x166C JUMP JUMPDEST SWAP8 POP PUSH2 0x19A8 DUP4 PUSH2 0x1683 JUMP JUMPDEST SWAP3 POP POP PUSH1 0x1 DUP2 ADD SWAP1 POP PUSH2 0x1989 JUMP JUMPDEST POP DUP6 SWAP4 POP POP POP POP SWAP3 SWAP2 POP POP JUMP JUMPDEST PUSH0 PUSH1 0x20 DUP3 ADD SWAP1 POP DUP2 DUP2 SUB PUSH0 DUP4 ADD MSTORE PUSH2 0x19DB DUP2 DUP5 PUSH2 0x1967 JUMP JUMPDEST SWAP1 POP SWAP3 SWAP2 POP POP JUMP JUMPDEST PUSH2 0x19EC DUP2 PUSH2 0x18F1 JUMP JUMPDEST DUP3 MSTORE POP POP JUMP JUMPDEST PUSH0 PUSH1 0x20 DUP3 ADD SWAP1 POP PUSH2 0x1A05 PUSH0 DUP4 ADD DUP5 PUSH2 0x19E3 JUMP JUMPDEST SWAP3 SWAP2 POP POP JUMP JUMPDEST PUSH32 0x4E487B7100000000000000000000000000000000000000000000000000000000 PUSH0 MSTORE PUSH1 0x21 PUSH1 0x4 MSTORE PUSH1 0x24 PUSH0 REVERT JUMPDEST PUSH1 0x6 DUP2 LT PUSH2 0x1A49 JUMPI PUSH2 0x1A48 PUSH2 0x1A0B JUMP JUMPDEST JUMPDEST POP JUMP JUMPDEST PUSH0 DUP2 SWAP1 POP PUSH2 0x1A59 DUP3 PUSH2 0x1A38 JUMP JUMPDEST SWAP2 SWAP1 POP JUMP JUMPDEST PUSH0 PUSH2 0x1A68 DUP3 PUSH2 0x1A4C JUMP JUMPDEST SWAP1 POP SWAP2 SWAP1 POP JUMP JUMPDEST PUSH2 0x1A78 DUP2 PUSH2 0x1A5E JUMP JUMPDEST DUP3 MSTORE POP POP JUMP JUMPDEST PUSH0 PUSH1 0x40 DUP3 ADD SWAP1 POP PUSH2 0x1A91 PUSH0 DUP4 ADD DUP6 PUSH2 0x1A6F JUMP JUMPDEST PUSH2 0x1A9E PUSH1 0x20 DUP4 ADD DUP5 PUSH2 0x1A6F JUMP JUMPDEST SWAP4 SWAP3 POP POP POP JUMP JUMPDEST PUSH32 0x4E487B7100000000000000000000000000000000000000000000000000000000 PUSH0 MSTORE PUSH1 0x32 PUSH1 0x4 MSTORE PUSH1 0x24 PUSH0 REVERT JUMPDEST PUSH32 0x4E487B7100000000000000000000000000000000000000000000000000000000 PUSH0 MSTORE PUSH1 0x11 PUSH1 0x4 MSTORE PUSH1 0x24 PUSH0 REVERT JUMPDEST PUSH0 PUSH2 0x1B09 DUP3 PUSH2 0x1471 JUMP JUMPDEST SWAP2 POP PUSH2 0x1B14 DUP4 PUSH2 0x1471 JUMP JUMPDEST SWAP3 POP DUP3 DUP3 ADD SWAP1 POP DUP1 DUP3 GT ISZERO PUSH2 0x1B2C JUMPI PUSH2 0x1B2B PUSH2 0x1AD2 JUMP JUMPDEST JUMPDEST SWAP3 SWAP2 POP POP JUMP JUMPDEST PUSH2 0x1B3B DUP2 PUSH2 0x1471 JUMP JUMPDEST DUP3 MSTORE POP POP JUMP JUMPDEST PUSH0 PUSH1 0x40 DUP3 ADD SWAP1 POP PUSH2 0x1B54 PUSH0 DUP4 ADD DUP6 PUSH2 0x19E3 JUMP JUMPDEST PUSH2 0x1B61 PUSH1 0x20 DUP4 ADD DUP5 PUSH2 0x1B32 JUMP JUMPDEST SWAP4 SWAP3 POP POP POP JUMP JUMPDEST PUSH32 0x4E487B7100000000000000000000000000000000000000000000000000000000 PUSH0 MSTORE PUSH1 0x22 PUSH1 0x4 MSTORE PUSH1 0x24 PUSH0 REVERT JUMPDEST PUSH0 PUSH1 0x2 DUP3 DIV SWAP1 POP PUSH1 0x1 DUP3 AND DUP1 PUSH2 0x1BAC JUMPI PUSH1 0x7F DUP3 AND SWAP2 POP JUMPDEST PUSH1 0x20 DUP3 LT DUP2 SUB PUSH2 0x1BBF JUMPI PUSH2 0x1BBE PUSH2 0x1B68 JUMP JUMPDEST JUMPDEST POP SWAP2 SWAP1 POP JUMP JUMPDEST PUSH0 DUP2 SWAP1 POP DUP2 PUSH0 MSTORE PUSH1 0x20 PUSH0 KECCAK256 SWAP1 POP SWAP2 SWAP1 POP JUMP JUMPDEST PUSH0 PUSH1 0x20 PUSH1 0x1F DUP4 ADD DIV SWAP1 POP SWAP2 SWAP1 POP JUMP JUMPDEST PUSH0 DUP3 DUP3 SHL SWAP1 POP SWAP3 SWAP2 POP POP JUMP JUMPDEST PUSH0 PUSH1 0x8 DUP4 MUL PUSH2 0x1C21 PUSH32 0xFFFFFFFFFFFFFFFFFFFFFFFFFFFFFFFFFFFFFFFFFFFFFFFFFFFFFFFFFFFFFFFF DUP3 PUSH2 0x1BE6 JUMP JUMPDEST PUSH2 0x1C2B DUP7 DUP4 PUSH2 0x1BE6 JUMP JUMPDEST SWAP6 POP DUP1 NOT DUP5 AND SWAP4 POP DUP1 DUP7 AND DUP5 OR SWAP3 POP POP POP SWAP4 SWAP3 POP POP POP JUMP JUMPDEST PUSH0 DUP2 SWAP1 POP SWAP2 SWAP1 POP JUMP JUMPDEST PUSH0 PUSH2 0x1C66 PUSH2 0x1C61 PUSH2 0x1C5C DUP5 PUSH2 0x1471 JUMP JUMPDEST PUSH2 0x1C43 JUMP JUMPDEST PUSH2 0x1471 JUMP JUMPDEST SWAP1 POP SWAP2 SWAP1 POP JUMP JUMPDEST PUSH0 DUP2 SWAP1 POP SWAP2 SWAP1 POP JUMP JUMPDEST PUSH2 0x1C7F DUP4 PUSH2 0x1C4C JUMP JUMPDEST PUSH2 0x1C93 PUSH2 0x1C8B DUP3 PUSH2 0x1C6D JUMP JUMPDEST DUP5 DUP5 SLOAD PUSH2 0x1BF2 JUMP JUMPDEST DUP3 SSTORE POP POP POP POP JUMP JUMPDEST PUSH0 PUSH0 SWAP1 POP SWAP1 JUMP JUMPDEST PUSH2 0x1CAA PUSH2 0x1C9B JUMP JUMPDEST PUSH2 0x1CB5 DUP2 DUP5 DUP5 PUSH2 0x1C76 JUMP JUMPDEST POP POP POP JUMP JUMPDEST JUMPDEST DUP2 DUP2 LT ISZERO PUSH2 0x1CD8 JUMPI PUSH2 0x1CCD PUSH0 DUP3 PUSH2 0x1CA2 JUMP JUMPDEST PUSH1 0x1 DUP2 ADD SWAP1 POP PUSH2 0x1CBB JUMP JUMPDEST POP POP JUMP JUMPDEST PUSH1 0x1F DUP3 GT ISZERO PUSH2 0x1D1D JUMPI PUSH2 0x1CEE DUP2 PUSH2 0x1BC5 JUMP JUMPDEST PUSH2 0x1CF7 DUP5 PUSH2 0x1BD7 JUMP JUMPDEST DUP2 ADD PUSH1 0x20 DUP6 LT ISZERO PUSH2 0x1D06 JUMPI DUP2 SWAP1 POP JUMPDEST PUSH2 0x1D1A PUSH2 0x1D12 DUP6 PUSH2 0x1BD7 JUMP JUMPDEST DUP4 ADD DUP3 PUSH2 0x1CBA JUMP JUMPDEST POP POP JUMPDEST POP POP POP JUMP JUMPDEST PUSH0 DUP3 DUP3 SHR SWAP1 POP SWAP3 SWAP2 POP POP JUMP JUMPDEST PUSH0 PUSH2 0x1D3D PUSH0 NOT DUP5 PUSH1 0x8 MUL PUSH2 0x1D22 JUMP JUMPDEST NOT DUP1 DUP4 AND SWAP2 POP POP SWAP3 SWAP2 POP POP JUMP JUMPDEST PUSH0 PUSH2 0x1D55 DUP4 DUP4 PUSH2 0x1D2E JUMP JUMPDEST SWAP2 POP DUP3 PUSH1 0x2 MUL DUP3 OR SWAP1 POP SWAP3 SWAP2 POP POP JUMP JUMPDEST PUSH2 0x1D6E DUP3 PUSH2 0x1507 JUMP JUMPDEST PUSH8 0xFFFFFFFFFFFFFFFF DUP2 GT ISZERO PUSH2 0x1D87 JUMPI PUSH2 0x1D86 PUSH2 0x1767 JUMP JUMPDEST JUMPDEST PUSH2 0x1D91 DUP3 SLOAD PUSH2 0x1B95 JUMP JUMPDEST PUSH2 0x1D9C DUP3 DUP3 DUP6 PUSH2 0x1CDC JUMP JUMPDEST PUSH0 PUSH1 0x20 SWAP1 POP PUSH1 0x1F DUP4 GT PUSH1 0x1 DUP2 EQ PUSH2 0x1DCD JUMPI PUSH0 DUP5 ISZERO PUSH2 0x1DBB JUMPI DUP3 DUP8 ADD MLOAD SWAP1 POP JUMPDEST PUSH2 0x1DC5 DUP6 DUP3 PUSH2 0x1D4A JUMP JUMPDEST DUP7 SSTORE POP PUSH2 0x1E2C JUMP JUMPDEST PUSH1 0x1F NOT DUP5 AND PUSH2 0x1DDB DUP7 PUSH2 0x1BC5 JUMP JUMPDEST PUSH0 JUMPDEST DUP3 DUP2 LT ISZERO PUSH2 0x1E02 JUMPI DUP5 DUP10 ADD MLOAD DUP3 SSTORE PUSH1 0x1 DUP3 ADD SWAP2 POP PUSH1 0x20 DUP6 ADD SWAP5 POP PUSH1 0x20 DUP2 ADD SWAP1 POP PUSH2 0x1DDD JUMP JUMPDEST DUP7 DUP4 LT ISZERO PUSH2 0x1E1F JUMPI DUP5 DUP10 ADD MLOAD PUSH2 0x1E1B PUSH1 0x1F DUP10 AND DUP3 PUSH2 0x1D2E JUMP JUMPDEST DUP4 SSTORE POP JUMPDEST PUSH1 0x1 PUSH1 0x2 DUP9 MUL ADD DUP9 SSTORE POP POP POP JUMPDEST POP POP POP POP POP POP JUMP JUMPDEST PUSH0 PUSH2 0x1E3E DUP3 PUSH2 0x1471 JUMP JUMPDEST SWAP2 POP PUSH2 0x1E49 DUP4 PUSH2 0x1471 JUMP JUMPDEST SWAP3 POP DUP3 DUP3 SUB SWAP1 POP DUP2 DUP2 GT ISZERO PUSH2 0x1E61 JUMPI PUSH2 0x1E60 PUSH2 0x1AD2 JUMP JUMPDEST JUMPDEST SWAP3 SWAP2 POP POP JUMP JUMPDEST PUSH0 PUSH1 0x20 DUP3 ADD SWAP1 POP PUSH2 0x1E7A PUSH0 DUP4 ADD DUP5 PUSH2 0x1B32 JUMP JUMPDEST SWAP3 SWAP2 POP POP JUMP JUMPDEST PUSH0 DUP2 SLOAD SWAP1 POP PUSH2 0x1E8E DUP2 PUSH2 0x1B95 JUMP JUMPDEST SWAP1 POP SWAP2 SWAP1 POP JUMP JUMPDEST DUP2 DUP2 SUB PUSH2 0x1EA3 JUMPI POP POP PUSH2 0x1F78 JUMP JUMPDEST PUSH2 0x1EAC DUP3 PUSH2 0x1E80 JUMP JUMPDEST PUSH8 0xFFFFFFFFFFFFFFFF DUP2 GT ISZERO PUSH2 0x1EC5 JUMPI PUSH2 0x1EC4 PUSH2 0x1767 JUMP JUMPDEST JUMPDEST PUSH2 0x1ECF DUP3 SLOAD PUSH2 0x1B95 JUMP JUMPDEST PUSH2 0x1EDA DUP3 DUP3 DUP6 PUSH2 0x1CDC JUMP JUMPDEST PUSH0 PUSH1 0x1F DUP4 GT PUSH1 0x1 DUP2 EQ PUSH2 0x1F07 JUMPI PUSH0 DUP5 ISZERO PUSH2 0x1EF5 JUMPI DUP3 DUP8 ADD SLOAD SWAP1 POP JUMPDEST PUSH2 0x1EFF DUP6 DUP3 PUSH2 0x1D4A JUMP JUMPDEST DUP7 SSTORE POP PUSH2 0x1F71 JUMP JUMPDEST PUSH1 0x1F NOT DUP5 AND PUSH2 0x1F15 DUP8 PUSH2 0x1BC5 JUMP JUMPDEST SWAP7 POP PUSH2 0x1F20 DUP7 PUSH2 0x1BC5 JUMP JUMPDEST PUSH0 JUMPDEST DUP3 DUP2 LT ISZERO PUSH2 0x1F47 JUMPI DUP5 DUP10 ADD SLOAD DUP3 SSTORE PUSH1 0x1 DUP3 ADD SWAP2 POP PUSH1 0x1 DUP6 ADD SWAP5 POP PUSH1 0x20 DUP2 ADD SWAP1 POP PUSH2 0x1F22 JUMP JUMPDEST DUP7 DUP4 LT ISZERO PUSH2 0x1F64 JUMPI DUP5 DUP10 ADD SLOAD PUSH2 0x1F60 PUSH1 0x1F DUP10 AND DUP3 PUSH2 0x1D2E JUMP JUMPDEST DUP4 SSTORE POP JUMPDEST PUSH1 0x1 PUSH1 0x2 DUP9 MUL ADD DUP9 SSTORE POP POP POP JUMPDEST POP POP POP POP POP POP JUMPDEST JUMP JUMPDEST PUSH0 PUSH1 0x40 DUP3 ADD SWAP1 POP PUSH2 0x1F8D PUSH0 DUP4 ADD DUP6 PUSH2 0x1B32 JUMP JUMPDEST PUSH2 0x1F9A PUSH1 0x20 DUP4 ADD DUP5 PUSH2 0x1B32 JUMP JUMPDEST SWAP4 SWAP3 POP POP POP JUMP INVALID LOG2 PUSH5 0x6970667358 0x22 SLT KECCAK256 COINBASE 0xB7 DUP15 PC PUSH25 0xE0B60C9C62C005AC44F73F3A0C7FC00CF1BF4C12353C79CC63 SWAP14 SUB PUSH5 0x736F6C6343 STOP ADDMOD 0x1E STOP CALLER "
				},
				"gasEstimates": {
					"creation": {
						"codeDepositCost": "1630200",
						"executionCost": "infinite",
						"totalCost": "infinite"
					},
					"external": {
						"getPastVote(uint256)": "infinite",
						"getProposal(uint256)": "2771",
						"getVoteResults()": "infinite",
						"nextWorkflowStatus()": "infinite",
						"owner()": "2580",
						"registerProposal(string)": "infinite",
						"registerVoter(address)": "infinite",
						"renounceOwnership()": "infinite",
						"resetVotingState()": "infinite",
						"transferOwnership(address)": "infinite",
						"vote(uint256)": "infinite"
					},
					"internal": {
						"tallyVotes()": "infinite"
					}
				},
				"methodIdentifiers": {
					"getPastVote(uint256)": "23edca11",
					"getProposal(uint256)": "c7f758a8",
					"getVoteResults()": "86a66dc3",
					"nextWorkflowStatus()": "75406284",
					"owner()": "8da5cb5b",
					"registerProposal(string)": "2f95355b",
					"registerVoter(address)": "38db6dd3",
					"renounceOwnership()": "715018a6",
					"resetVotingState()": "8b5df08d",
					"transferOwnership(address)": "f2fde38b",
					"vote(uint256)": "0121b93f"
				}
			},
			"storageLayout": {
				"storage": [
					{
						"astId": 8,
						"contract": "contracts/Voting.sol:Voting",
						"label": "_owner",
						"offset": 0,
						"slot": "0",
						"type": "t_address"
					},
					{
						"astId": 292,
						"contract": "contracts/Voting.sol:Voting",
						"label": "currentVote",
						"offset": 0,
						"slot": "1",
						"type": "t_struct(VotingState)279_storage"
					},
					{
						"astId": 296,
						"contract": "contracts/Voting.sol:Voting",
						"label": "pastVotes",
						"offset": 0,
						"slot": "6",
						"type": "t_array(t_struct(VotingSummary)289_storage)dyn_storage"
					}
				],
				"types": {
					"t_address": {
						"encoding": "inplace",
						"label": "address",
						"numberOfBytes": "20"
					},
					"t_array(t_struct(Proposal)254_storage)dyn_storage": {
						"base": "t_struct(Proposal)254_storage",
						"encoding": "dynamic_array",
						"label": "struct Voting.Proposal[]",
						"numberOfBytes": "32"
					},
					"t_array(t_struct(VotingSummary)289_storage)dyn_storage": {
						"base": "t_struct(VotingSummary)289_storage",
						"encoding": "dynamic_array",
						"label": "struct Voting.VotingSummary[]",
						"numberOfBytes": "32"
					},
					"t_array(t_uint256)dyn_storage": {
						"base": "t_uint256",
						"encoding": "dynamic_array",
						"label": "uint256[]",
						"numberOfBytes": "32"
					},
					"t_bool": {
						"encoding": "inplace",
						"label": "bool",
						"numberOfBytes": "1"
					},
					"t_enum(WorkflowStatus)261": {
						"encoding": "inplace",
						"label": "enum Voting.WorkflowStatus",
						"numberOfBytes": "1"
					},
					"t_mapping(t_address,t_struct(Voter)249_storage)": {
						"encoding": "mapping",
						"key": "t_address",
						"label": "mapping(address => struct Voting.Voter)",
						"numberOfBytes": "32",
						"value": "t_struct(Voter)249_storage"
					},
					"t_string_storage": {
						"encoding": "bytes",
						"label": "string",
						"numberOfBytes": "32"
					},
					"t_struct(Proposal)254_storage": {
						"encoding": "inplace",
						"label": "struct Voting.Proposal",
						"members": [
							{
								"astId": 251,
								"contract": "contracts/Voting.sol:Voting",
								"label": "description",
								"offset": 0,
								"slot": "0",
								"type": "t_string_storage"
							},
							{
								"astId": 253,
								"contract": "contracts/Voting.sol:Voting",
								"label": "voteCount",
								"offset": 0,
								"slot": "1",
								"type": "t_uint256"
							}
						],
						"numberOfBytes": "64"
					},
					"t_struct(Voter)249_storage": {
						"encoding": "inplace",
						"label": "struct Voting.Voter",
						"members": [
							{
								"astId": 244,
								"contract": "contracts/Voting.sol:Voting",
								"label": "isRegistered",
								"offset": 0,
								"slot": "0",
								"type": "t_bool"
							},
							{
								"astId": 246,
								"contract": "contracts/Voting.sol:Voting",
								"label": "hasVoted",
								"offset": 1,
								"slot": "0",
								"type": "t_bool"
							},
							{
								"astId": 248,
								"contract": "contracts/Voting.sol:Voting",
								"label": "votedProposalId",
								"offset": 0,
								"slot": "1",
								"type": "t_uint256"
							}
						],
						"numberOfBytes": "64"
					},
					"t_struct(VotingState)279_storage": {
						"encoding": "inplace",
						"label": "struct Voting.VotingState",
						"members": [
							{
								"astId": 266,
								"contract": "contracts/Voting.sol:Voting",
								"label": "voters",
								"offset": 0,
								"slot": "0",
								"type": "t_mapping(t_address,t_struct(Voter)249_storage)"
							},
							{
								"astId": 268,
								"contract": "contracts/Voting.sol:Voting",
								"label": "totalVotesCount",
								"offset": 0,
								"slot": "1",
								"type": "t_uint256"
							},
							{
								"astId": 272,
								"contract": "contracts/Voting.sol:Voting",
								"label": "proposals",
								"offset": 0,
								"slot": "2",
								"type": "t_array(t_struct(Proposal)254_storage)dyn_storage"
							},
							{
								"astId": 275,
								"contract": "contracts/Voting.sol:Voting",
								"label": "status",
								"offset": 0,
								"slot": "3",
								"type": "t_enum(WorkflowStatus)261"
							},
							{
								"astId": 278,
								"contract": "contracts/Voting.sol:Voting",
								"label": "winningProposals",
								"offset": 0,
								"slot": "4",
								"type": "t_array(t_uint256)dyn_storage"
							}
						],
						"numberOfBytes": "160"
					},
					"t_struct(VotingSummary)289_storage": {
						"encoding": "inplace",
						"label": "struct Voting.VotingSummary",
						"members": [
							{
								"astId": 281,
								"contract": "contracts/Voting.sol:Voting",
								"label": "totalVotesCount",
								"offset": 0,
								"slot": "0",
								"type": "t_uint256"
							},
							{
								"astId": 285,
								"contract": "contracts/Voting.sol:Voting",
								"label": "proposals",
								"offset": 0,
								"slot": "1",
								"type": "t_array(t_struct(Proposal)254_storage)dyn_storage"
							},
							{
								"astId": 288,
								"contract": "contracts/Voting.sol:Voting",
								"label": "winningProposals",
								"offset": 0,
								"slot": "2",
								"type": "t_array(t_uint256)dyn_storage"
							}
						],
						"numberOfBytes": "96"
					},
					"t_uint256": {
						"encoding": "inplace",
						"label": "uint256",
						"numberOfBytes": "32"
					}
				}
			},
			"userdoc": {
				"kind": "user",
				"methods": {
					"getPastVote(uint256)": {
						"notice": "This function is to get past voting sessions"
					},
					"getVoteResults()": {
						"notice": "This function is to access the vote results Only available to registered voters"
					},
					"nextWorkflowStatus()": {
						"notice": "This function is for updating the status of the voting workflow Only available to the contract owner"
					},
					"registerProposal(string)": {
						"notice": "This function is to add voting proposal for the upcoming vote Only available to registered voters"
					},
					"registerVoter(address)": {
						"notice": "This function is for registering voter  Only available to the contract owner"
					},
					"resetVotingState()": {
						"notice": "This function is to reset the vote state and begin a new voting session Only available to the contract owner"
					},
					"vote(uint256)": {
						"notice": "This function is to vote for a proposal Only available to registered voters"
					}
				},
				"version": 1
			}
		}
	}
}