{
	"data": {
		"bytecode": {
			"linkReferences": {},
			"object": "608060405234801561000f575f5ffd5b50335f73ffffffffffffffffffffffffffffffffffffffff168173ffffffffffffffffffffffffffffffffffffffff1603610081575f6040517f1e4fbdf700000000000000000000000000000000000000000000000000000000815260040161007891906101c2565b60405180910390fd5b610090816100c260201b60201c565b505f60016003015f6101000a81548160ff021916908360058111156100b8576100b76101db565b5b0217905550610208565b5f5f5f9054906101000a900473ffffffffffffffffffffffffffffffffffffffff169050815f5f6101000a81548173ffffffffffffffffffffffffffffffffffffffff021916908373ffffffffffffffffffffffffffffffffffffffff1602179055508173ffffffffffffffffffffffffffffffffffffffff168173ffffffffffffffffffffffffffffffffffffffff167f8be0079c531659141344cd1fd0a4f28419497f9722a3daafe3b4186f6b6457e060405160405180910390a35050565b5f73ffffffffffffffffffffffffffffffffffffffff82169050919050565b5f6101ac82610183565b9050919050565b6101bc816101a2565b82525050565b5f6020820190506101d55f8301846101b3565b92915050565b7f4e487b71000000000000000000000000000000000000000000000000000000005f52602160045260245ffd5b611fd7806102155f395ff3fe608060405234801561000f575f5ffd5b50600436106100a7575f3560e01c8063754062841161006f578063754062841461013957806386a66dc3146101435780638b5df08d146101615780638da5cb5b1461016b578063c7f758a814610189578063f2fde38b146101a5576100a7565b80630121b93f146100ab57806323edca11146100c75780632f95355b146100f757806338db6dd314610113578063715018a61461012f575b5f5ffd5b6100c560048036038101906100c091906114a4565b6101c1565b005b6100e160048036038101906100dc91906114a4565b6104d1565b6040516100ee919061173f565b60405180910390f35b610111600480360381019061010c919061188b565b61069d565b005b61012d6004803603810190610128919061192c565b610860565b005b610137610a0f565b005b610141610a22565b005b61014b610bab565b60405161015891906119c3565b60405180910390f35b610169610d19565b005b610173610fc8565b60405161018091906119f2565b60405180910390f35b6101a3600480360381019061019e91906114a4565b610fef565b005b6101bf60048036038101906101ba919061192c565b611076565b005b60015f015f3373ffffffffffffffffffffffffffffffffffffffff1673ffffffffffffffffffffffffffffffffffffffff1681526020019081526020015f205f015f9054906101000a900460ff16610245576040517fb3e2c01600000000000000000000000000000000000000000000000000000000815260040160405180910390fd5b6003600581111561025957610258611a0b565b5b60016003015f9054906101000a900460ff16600581111561027d5761027c611a0b565b5b1460016003015f9054906101000a900460ff16600390916102d5576040517f0e10df3f0000000000000000000000000000000000000000000000000000000081526004016102cc929190611a7e565b60405180910390fd5b505060015f015f3373ffffffffffffffffffffffffffffffffffffffff1673ffffffffffffffffffffffffffffffffffffffff1681526020019081526020015f205f0160019054906101000a900460ff161561035d576040517fd40aec4400000000000000000000000000000000000000000000000000000000815260040160405180910390fd5b600160020180549050811061039e576040517ff299af6600000000000000000000000000000000000000000000000000000000815260040160405180910390fd5b60018060020182815481106103b6576103b5611aa5565b5b905f5260205f2090600202016001015f8282546103d39190611aff565b925050819055508060015f015f3373ffffffffffffffffffffffffffffffffffffffff1673ffffffffffffffffffffffffffffffffffffffff1681526020019081526020015f20600101819055506001805f015f3373ffffffffffffffffffffffffffffffffffffffff1673ffffffffffffffffffffffffffffffffffffffff1681526020019081526020015f205f0160016101000a81548160ff0219169083151502179055506001806001015f82825461048e9190611aff565b925050819055507f4d99b957a2bc29a30ebd96a7be8e68fe50a3c701db28a91436490b7d53870ca433826040516104c6929190611b41565b60405180910390a150565b6104d961137d565b6006805490508210610517576040517f1397166e00000000000000000000000000000000000000000000000000000000815260040160405180910390fd5b6006828154811061052b5761052a611aa5565b5b905f5260205f2090600302016040518060600160405290815f820154815260200160018201805480602002602001604051908101604052809291908181526020015f905b82821015610638578382905f5260205f2090600202016040518060400160405290815f8201805461059f90611b95565b80601f01602080910402602001604051908101604052809291908181526020018280546105cb90611b95565b80156106165780601f106105ed57610100808354040283529160200191610616565b820191905f5260205f20905b8154815290600101906020018083116105f957829003601f168201915b505050505081526020016001820154815250508152602001906001019061056f565b5050505081526020016002820180548060200260200160405190810160405280929190818152602001828054801561068d57602002820191905f5260205f20905b815481526020019060010190808311610679575b5050505050815250509050919050565b60015f015f3373ffffffffffffffffffffffffffffffffffffffff1673ffffffffffffffffffffffffffffffffffffffff1681526020019081526020015f205f015f9054906101000a900460ff16610721576040517fb3e2c01600000000000000000000000000000000000000000000000000000000815260040160405180910390fd5b6001600581111561073557610734611a0b565b5b60016003015f9054906101000a900460ff16600581111561075957610758611a0b565b5b1460016003015f9054906101000a900460ff16600190916107b1576040517f0e10df3f0000000000000000000000000000000000000000000000000000000081526004016107a8929190611a7e565b60405180910390fd5b5050600160020160405180604001604052808381526020015f815250908060018154018082558091505060019003905f5260205f2090600202015f909190919091505f820151815f0190816108069190611d65565b506020820151816001015550507f92e393e9b54e2f801d3ea4beb0c5e71a21cc34a5d34b77d0fb8a3aa1650dc18f600180600201805490506108489190611e34565b6040516108559190611e67565b60405180910390a150565b6108686110fa565b5f600581111561087b5761087a611a0b565b5b60016003015f9054906101000a900460ff16600581111561089f5761089e611a0b565b5b1460016003015f9054906101000a900460ff165f90916108f6576040517f0e10df3f0000000000000000000000000000000000000000000000000000000081526004016108ed929190611a7e565b60405180910390fd5b505060015f015f8273ffffffffffffffffffffffffffffffffffffffff1673ffffffffffffffffffffffffffffffffffffffff1681526020019081526020015f205f015f9054906101000a900460ff161561097d576040517f59a1ec4700000000000000000000000000000000000000000000000000000000815260040160405180910390fd5b6001805f015f8373ffffffffffffffffffffffffffffffffffffffff1673ffffffffffffffffffffffffffffffffffffffff1681526020019081526020015f205f015f6101000a81548160ff0219169083151502179055507fb6be2187d059cc2a55fe29e0e503b566e1e0f8c8780096e185429350acffd3dd81604051610a0491906119f2565b60405180910390a150565b610a176110fa565b610a205f611181565b565b610a2a6110fa565b600580811115610a3d57610a3c611a0b565b5b60016003015f9054906101000a900460ff166005811115610a6157610a60611a0b565b5b10610a98576040517f086fc57f00000000000000000000000000000000000000000000000000000000815260040160405180910390fd5b5f60016003015f9054906101000a900460ff1690506001806003015f9054906101000a900460ff166005811115610ad257610ad1611a0b565b5b610adc9190611aff565b6005811115610aee57610aed611a0b565b5b60016003015f6101000a81548160ff02191690836005811115610b1457610b13611a0b565b5b02179055507f0a97a4ee45751e2abf3e4fc8946939630b11b371ea8ae39ccdc3056e98f5cc3f8160016003015f9054906101000a900460ff16604051610b5b929190611a7e565b60405180910390a1600580811115610b7657610b75611a0b565b5b60016003015f9054906101000a900460ff166005811115610b9a57610b99611a0b565b5b03610ba857610ba7611242565b5b50565b606060015f015f3373ffffffffffffffffffffffffffffffffffffffff1673ffffffffffffffffffffffffffffffffffffffff1681526020019081526020015f205f015f9054906101000a900460ff16610c31576040517fb3e2c01600000000000000000000000000000000000000000000000000000000815260040160405180910390fd5b600580811115610c4457610c43611a0b565b5b60016003015f9054906101000a900460ff166005811115610c6857610c67611a0b565b5b1460016003015f9054906101000a900460ff1660059091610cc0576040517f0e10df3f000000000000000000000000000000000000000000000000000000008152600401610cb7929190611a7e565b60405180910390fd5b50506001600401805480602002602001604051908101604052809291908181526020018280548015610d0f57602002820191905f5260205f20905b815481526020019060010190808311610cfb575b5050505050905090565b610d216110fa565b600580811115610d3457610d33611a0b565b5b60016003015f9054906101000a900460ff166005811115610d5857610d57611a0b565b5b1460016003015f9054906101000a900460ff1660059091610db0576040517f0e10df3f000000000000000000000000000000000000000000000000000000008152600401610da7929190611a7e565b60405180910390fd5b5050600660018160018154018082558091505003905f5260205f209050505f60066001600680549050610de39190611e34565b81548110610df457610df3611aa5565b5b905f5260205f20906003020190506001800154815f01819055505f5f90505b600160020180549050811015610e9c578160010160016002018281548110610e3e57610e3d611aa5565b5b905f5260205f209060020201908060018154018082558091505060019003905f5260205f2090600202015f909190919091505f8201815f019081610e829190611e95565b506001820154816001015550508080600101915050610e13565b505f5f90505b600160040180549050811015610f06578160020160016004018281548110610ecd57610ecc611aa5565b5b905f5260205f200154908060018154018082558091505060019003905f5260205f20015f90919091909150558080600101915050610ea2565b5060015f600182015f9055600282015f610f20919061139d565b600382015f6101000a81549060ff0219169055600482015f610f4291906113be565b50505f60016003015f6101000a81548160ff02191690836005811115610f6b57610f6a611a0b565b5b02179055506001600680549050610f829190611e34565b7f87f1efd3ecc2164eb03e4374ac4bfebd5ee2d9f4785fc2f4c9c193fc132bb03f825f01548360020180549050604051610fbd929190611f7a565b60405180910390a250565b5f5f5f9054906101000a900473ffffffffffffffffffffffffffffffffffffffff16905090565b60015f015f3373ffffffffffffffffffffffffffffffffffffffff1673ffffffffffffffffffffffffffffffffffffffff1681526020019081526020015f205f015f9054906101000a900460ff16611073576040517fb3e2c01600000000000000000000000000000000000000000000000000000000815260040160405180910390fd5b50565b61107e6110fa565b5f73ffffffffffffffffffffffffffffffffffffffff168173ffffffffffffffffffffffffffffffffffffffff16036110ee575f6040517f1e4fbdf70000000000000000000000000000000000000000000000000000000081526004016110e591906119f2565b60405180910390fd5b6110f781611181565b50565b611102611376565b73ffffffffffffffffffffffffffffffffffffffff16611120610fc8565b73ffffffffffffffffffffffffffffffffffffffff161461117f57611143611376565b6040517f118cdaa700000000000000000000000000000000000000000000000000000000815260040161117691906119f2565b60405180910390fd5b565b5f5f5f9054906101000a900473ffffffffffffffffffffffffffffffffffffffff169050815f5f6101000a81548173ffffffffffffffffffffffffffffffffffffffff021916908373ffffffffffffffffffffffffffffffffffffffff1602179055508173ffffffffffffffffffffffffffffffffffffffff168173ffffffffffffffffffffffffffffffffffffffff167f8be0079c531659141344cd1fd0a4f28419497f9722a3daafe3b4186f6b6457e060405160405180910390a35050565b61124a6110fa565b5f5f905060016004015f61125e91906113be565b5f5f90505b600160020180549050811015611331575f6001600201828154811061128b5761128a611aa5565b5b905f5260205f209060020201600101549050828111156112e65780925060016004015f6112b891906113be565b600160040182908060018154018082558091505060019003905f5260205f20015f9091909190915055611325565b82811480156112f557505f8314155b1561132457600160040182908060018154018082558091505060019003905f5260205f20015f90919091909150555b5b50806001019050611263565b507f45ef9b7fc34bdfcccc29be8be99ab3e8f3206f5957d34325050712b5b486bdce8160016004018054905060405161136b929190611f7a565b60405180910390a150565b5f33905090565b60405180606001604052805f815260200160608152602001606081525090565b5080545f8255600202905f5260205f20908101906113bb91906113dc565b50565b5080545f8255905f5260205f20908101906113d99190611408565b50565b5b80821115611404575f5f82015f6113f49190611423565b600182015f9055506002016113dd565b5090565b5b8082111561141f575f815f905550600101611409565b5090565b50805461142f90611b95565b5f825580601f10611440575061145d565b601f0160209004905f5260205f209081019061145c9190611408565b5b50565b5f604051905090565b5f5ffd5b5f5ffd5b5f819050919050565b61148381611471565b811461148d575f5ffd5b50565b5f8135905061149e8161147a565b92915050565b5f602082840312156114b9576114b8611469565b5b5f6114c684828501611490565b91505092915050565b6114d881611471565b82525050565b5f81519050919050565b5f82825260208201905092915050565b5f819050602082019050919050565b5f81519050919050565b5f82825260208201905092915050565b8281835e5f83830152505050565b5f601f19601f8301169050919050565b5f61154982611507565b6115538185611511565b9350611563818560208601611521565b61156c8161152f565b840191505092915050565b5f604083015f8301518482035f860152611591828261153f565b91505060208301516115a660208601826114cf565b508091505092915050565b5f6115bc8383611577565b905092915050565b5f602082019050919050565b5f6115da826114de565b6115e481856114e8565b9350836020820285016115f6856114f8565b805f5b85811015611631578484038952815161161285826115b1565b945061161d836115c4565b925060208a019950506001810190506115f9565b50829750879550505050505092915050565b5f81519050919050565b5f82825260208201905092915050565b5f819050602082019050919050565b5f61167783836114cf565b60208301905092915050565b5f602082019050919050565b5f61169982611643565b6116a3818561164d565b93506116ae8361165d565b805f5b838110156116de5781516116c5888261166c565b97506116d083611683565b9250506001810190506116b1565b5085935050505092915050565b5f606083015f8301516117005f8601826114cf565b506020830151848203602086015261171882826115d0565b91505060408301518482036040860152611732828261168f565b9150508091505092915050565b5f6020820190508181035f83015261175781846116eb565b905092915050565b5f5ffd5b5f5ffd5b7f4e487b71000000000000000000000000000000000000000000000000000000005f52604160045260245ffd5b61179d8261152f565b810181811067ffffffffffffffff821117156117bc576117bb611767565b5b80604052505050565b5f6117ce611460565b90506117da8282611794565b919050565b5f67ffffffffffffffff8211156117f9576117f8611767565b5b6118028261152f565b9050602081019050919050565b828183375f83830152505050565b5f61182f61182a846117df565b6117c5565b90508281526020810184848401111561184b5761184a611763565b5b61185684828561180f565b509392505050565b5f82601f8301126118725761187161175f565b5b813561188284826020860161181d565b91505092915050565b5f602082840312156118a05761189f611469565b5b5f82013567ffffffffffffffff8111156118bd576118bc61146d565b5b6118c98482850161185e565b91505092915050565b5f73ffffffffffffffffffffffffffffffffffffffff82169050919050565b5f6118fb826118d2565b9050919050565b61190b816118f1565b8114611915575f5ffd5b50565b5f8135905061192681611902565b92915050565b5f6020828403121561194157611940611469565b5b5f61194e84828501611918565b91505092915050565b5f82825260208201905092915050565b5f61197182611643565b61197b8185611957565b93506119868361165d565b805f5b838110156119b657815161199d888261166c565b97506119a883611683565b925050600181019050611989565b5085935050505092915050565b5f6020820190508181035f8301526119db8184611967565b905092915050565b6119ec816118f1565b82525050565b5f602082019050611a055f8301846119e3565b92915050565b7f4e487b71000000000000000000000000000000000000000000000000000000005f52602160045260245ffd5b60068110611a4957611a48611a0b565b5b50565b5f819050611a5982611a38565b919050565b5f611a6882611a4c565b9050919050565b611a7881611a5e565b82525050565b5f604082019050611a915f830185611a6f565b611a9e6020830184611a6f565b9392505050565b7f4e487b71000000000000000000000000000000000000000000000000000000005f52603260045260245ffd5b7f4e487b71000000000000000000000000000000000000000000000000000000005f52601160045260245ffd5b5f611b0982611471565b9150611b1483611471565b9250828201905080821115611b2c57611b2b611ad2565b5b92915050565b611b3b81611471565b82525050565b5f604082019050611b545f8301856119e3565b611b616020830184611b32565b9392505050565b7f4e487b71000000000000000000000000000000000000000000000000000000005f52602260045260245ffd5b5f6002820490506001821680611bac57607f821691505b602082108103611bbf57611bbe611b68565b5b50919050565b5f819050815f5260205f209050919050565b5f6020601f8301049050919050565b5f82821b905092915050565b5f60088302611c217fffffffffffffffffffffffffffffffffffffffffffffffffffffffffffffffff82611be6565b611c2b8683611be6565b95508019841693508086168417925050509392505050565b5f819050919050565b5f611c66611c61611c5c84611471565b611c43565b611471565b9050919050565b5f819050919050565b611c7f83611c4c565b611c93611c8b82611c6d565b848454611bf2565b825550505050565b5f5f905090565b611caa611c9b565b611cb5818484611c76565b505050565b5b81811015611cd857611ccd5f82611ca2565b600181019050611cbb565b5050565b601f821115611d1d57611cee81611bc5565b611cf784611bd7565b81016020851015611d06578190505b611d1a611d1285611bd7565b830182611cba565b50505b505050565b5f82821c905092915050565b5f611d3d5f1984600802611d22565b1980831691505092915050565b5f611d558383611d2e565b9150826002028217905092915050565b611d6e82611507565b67ffffffffffffffff811115611d8757611d86611767565b5b611d918254611b95565b611d9c828285611cdc565b5f60209050601f831160018114611dcd575f8415611dbb578287015190505b611dc58582611d4a565b865550611e2c565b601f198416611ddb86611bc5565b5f5b82811015611e0257848901518255600182019150602085019450602081019050611ddd565b86831015611e1f5784890151611e1b601f891682611d2e565b8355505b6001600288020188555050505b505050505050565b5f611e3e82611471565b9150611e4983611471565b9250828203905081811115611e6157611e60611ad2565b5b92915050565b5f602082019050611e7a5f830184611b32565b92915050565b5f81549050611e8e81611b95565b9050919050565b818103611ea3575050611f78565b611eac82611e80565b67ffffffffffffffff811115611ec557611ec4611767565b5b611ecf8254611b95565b611eda828285611cdc565b5f601f831160018114611f07575f8415611ef5578287015490505b611eff8582611d4a565b865550611f71565b601f198416611f1587611bc5565b9650611f2086611bc5565b5f5b82811015611f4757848901548255600182019150600185019450602081019050611f22565b86831015611f645784890154611f60601f891682611d2e565b8355505b6001600288020188555050505b5050505050505b565b5f604082019050611f8d5f830185611b32565b611f9a6020830184611b32565b939250505056fea264697066735822122041b78e5878e0b60c9c62c005ac44f73f3a0c7fc00cf1bf4c12353c79cc639d0364736f6c634300081e0033",
			"opcodes": "PUSH1 0x80 PUSH1 0x40 MSTORE CALLVALUE DUP1 ISZERO PUSH2 0xF JUMPI PUSH0 PUSH0 REVERT JUMPDEST POP CALLER PUSH0 PUSH20 0xFFFFFFFFFFFFFFFFFFFFFFFFFFFFFFFFFFFFFFFF AND DUP2 PUSH20 0xFFFFFFFFFFFFFFFFFFFFFFFFFFFFFFFFFFFFFFFF AND SUB PUSH2 0x81 JUMPI PUSH0 PUSH1 0x40 MLOAD PUSH32 0x1E4FBDF700000000000000000000000000000000000000000000000000000000 DUP2 MSTORE PUSH1 0x4 ADD PUSH2 0x78 SWAP2 SWAP1 PUSH2 0x1C2 JUMP JUMPDEST PUSH1 0x40 MLOAD DUP1 SWAP2 SUB SWAP1 REVERT JUMPDEST PUSH2 0x90 DUP2 PUSH2 0xC2 PUSH1 0x20 SHL PUSH1 0x20 SHR JUMP JUMPDEST POP PUSH0 PUSH1 0x1 PUSH1 0x3 ADD PUSH0 PUSH2 0x100 EXP DUP2 SLOAD DUP2 PUSH1 0xFF MUL NOT AND SWAP1 DUP4 PUSH1 0x5 DUP2 GT ISZERO PUSH2 0xB8 JUMPI PUSH2 0xB7 PUSH2 0x1DB JUMP JUMPDEST JUMPDEST MUL OR SWAP1 SSTORE POP PUSH2 0x208 JUMP JUMPDEST PUSH0 PUSH0 PUSH0 SWAP1 SLOAD SWAP1 PUSH2 0x100 EXP SWAP1 DIV PUSH20 0xFFFFFFFFFFFFFFFFFFFFFFFFFFFFFFFFFFFFFFFF AND SWAP1 POP DUP2 PUSH0 PUSH0 PUSH2 0x100 EXP DUP2 SLOAD DUP2 PUSH20 0xFFFFFFFFFFFFFFFFFFFFFFFFFFFFFFFFFFFFFFFF MUL NOT AND SWAP1 DUP4 PUSH20 0xFFFFFFFFFFFFFFFFFFFFFFFFFFFFFFFFFFFFFFFF AND MUL OR SWAP1 SSTORE POP DUP2 PUSH20 0xFFFFFFFFFFFFFFFFFFFFFFFFFFFFFFFFFFFFFFFF AND DUP2 PUSH20 0xFFFFFFFFFFFFFFFFFFFFFFFFFFFFFFFFFFFFFFFF AND PUSH32 0x8BE0079C531659141344CD1FD0A4F28419497F9722A3DAAFE3B4186F6B6457E0 PUSH1 0x40 MLOAD PUSH1 0x40 MLOAD DUP1 SWAP2 SUB SWAP1 LOG3 POP POP JUMP JUMPDEST PUSH0 PUSH20 0xFFFFFFFFFFFFFFFFFFFFFFFFFFFFFFFFFFFFFFFF DUP3 AND SWAP1 POP SWAP2 SWAP1 POP JUMP JUMPDEST PUSH0 PUSH2 0x1AC DUP3 PUSH2 0x183 JUMP JUMPDEST SWAP1 POP SWAP2 SWAP1 POP JUMP JUMPDEST PUSH2 0x1BC DUP2 PUSH2 0x1A2 JUMP JUMPDEST DUP3 MSTORE POP POP JUMP JUMPDEST PUSH0 PUSH1 0x20 DUP3 ADD SWAP1 POP PUSH2 0x1D5 PUSH0 DUP4 ADD DUP5 PUSH2 0x1B3 JUMP JUMPDEST SWAP3 SWAP2 POP POP JUMP JUMPDEST PUSH32 0x4E487B7100000000000000000000000000000000000000000000000000000000 PUSH0 MSTORE PUSH1 0x21 PUSH1 0x4 MSTORE PUSH1 0x24 PUSH0 REVERT JUMPDEST PUSH2 0x1FD7 DUP1 PUSH2 0x215 PUSH0 CODECOPY PUSH0 RETURN INVALID PUSH1 0x80 PUSH1 0x40 MSTORE CALLVALUE DUP1 ISZERO PUSH2 0xF JUMPI PUSH0 PUSH0 REVERT JUMPDEST POP PUSH1 0x4 CALLDATASIZE LT PUSH2 0xA7 JUMPI PUSH0 CALLDATALOAD PUSH1 0xE0 SHR DUP1 PUSH4 0x75406284 GT PUSH2 0x6F JUMPI DUP1 PUSH4 0x75406284 EQ PUSH2 0x139 JUMPI DUP1 PUSH4 0x86A66DC3 EQ PUSH2 0x143 JUMPI DUP1 PUSH4 0x8B5DF08D EQ PUSH2 0x161 JUMPI DUP1 PUSH4 0x8DA5CB5B EQ PUSH2 0x16B JUMPI DUP1 PUSH4 0xC7F758A8 EQ PUSH2 0x189 JUMPI DUP1 PUSH4 0xF2FDE38B EQ PUSH2 0x1A5 JUMPI PUSH2 0xA7 JUMP JUMPDEST DUP1 PUSH4 0x121B93F EQ PUSH2 0xAB JUMPI DUP1 PUSH4 0x23EDCA11 EQ PUSH2 0xC7 JUMPI DUP1 PUSH4 0x2F95355B EQ PUSH2 0xF7 JUMPI DUP1 PUSH4 0x38DB6DD3 EQ PUSH2 0x113 JUMPI DUP1 PUSH4 0x715018A6 EQ PUSH2 0x12F JUMPI JUMPDEST PUSH0 PUSH0 REVERT JUMPDEST PUSH2 0xC5 PUSH1 0x4 DUP1 CALLDATASIZE SUB DUP2 ADD SWAP1 PUSH2 0xC0 SWAP2 SWAP1 PUSH2 0x14A4 JUMP JUMPDEST PUSH2 0x1C1 JUMP JUMPDEST STOP JUMPDEST PUSH2 0xE1 PUSH1 0x4 DUP1 CALLDATASIZE SUB DUP2 ADD SWAP1 PUSH2 0xDC SWAP2 SWAP1 PUSH2 0x14A4 JUMP JUMPDEST PUSH2 0x4D1 JUMP JUMPDEST PUSH1 0x40 MLOAD PUSH2 0xEE SWAP2 SWAP1 PUSH2 0x173F JUMP JUMPDEST PUSH1 0x40 MLOAD DUP1 SWAP2 SUB SWAP1 RETURN JUMPDEST PUSH2 0x111 PUSH1 0x4 DUP1 CALLDATASIZE SUB DUP2 ADD SWAP1 PUSH2 0x10C SWAP2 SWAP1 PUSH2 0x188B JUMP JUMPDEST PUSH2 0x69D JUMP JUMPDEST STOP JUMPDEST PUSH2 0x12D PUSH1 0x4 DUP1 CALLDATASIZE SUB DUP2 ADD SWAP1 PUSH2 0x128 SWAP2 SWAP1 PUSH2 0x192C JUMP JUMPDEST PUSH2 0x860 JUMP JUMPDEST STOP JUMPDEST PUSH2 0x137 PUSH2 0xA0F JUMP JUMPDEST STOP JUMPDEST PUSH2 0x141 PUSH2 0xA22 JUMP JUMPDEST STOP JUMPDEST PUSH2 0x14B PUSH2 0xBAB JUMP JUMPDEST PUSH1 0x40 MLOAD PUSH2 0x158 SWAP2 SWAP1 PUSH2 0x19C3 JUMP JUMPDEST PUSH1 0x40 MLOAD DUP1 SWAP2 SUB SWAP1 RETURN JUMPDEST PUSH2 0x169 PUSH2 0xD19 JUMP JUMPDEST STOP JUMPDEST PUSH2 0x173 PUSH2 0xFC8 JUMP JUMPDEST PUSH1 0x40 MLOAD PUSH2 0x180 SWAP2 SWAP1 PUSH2 0x19F2 JUMP JUMPDEST PUSH1 0x40 MLOAD DUP1 SWAP2 SUB SWAP1 RETURN JUMPDEST PUSH2 0x1A3 PUSH1 0x4 DUP1 CALLDATASIZE SUB DUP2 ADD SWAP1 PUSH2 0x19E SWAP2 SWAP1 PUSH2 0x14A4 JUMP JUMPDEST PUSH2 0xFEF JUMP JUMPDEST STOP JUMPDEST PUSH2 0x1BF PUSH1 0x4 DUP1 CALLDATASIZE SUB DUP2 ADD SWAP1 PUSH2 0x1BA SWAP2 SWAP1 PUSH2 0x192C JUMP JUMPDEST PUSH2 0x1076 JUMP JUMPDEST STOP JUMPDEST PUSH1 0x1 PUSH0 ADD PUSH0 CALLER PUSH20 0xFFFFFFFFFFFFFFFFFFFFFFFFFFFFFFFFFFFFFFFF AND PUSH20 0xFFFFFFFFFFFFFFFFFFFFFFFFFFFFFFFFFFFFFFFF AND DUP2 MSTORE PUSH1 0x20 ADD SWAP1 DUP2 MSTORE PUSH1 0x20 ADD PUSH0 KECCAK256 PUSH0 ADD PUSH0 SWAP1 SLOAD SWAP1 PUSH2 0x100 EXP SWAP1 DIV PUSH1 0xFF AND PUSH2 0x245 JUMPI PUSH1 0x40 MLOAD PUSH32 0xB3E2C01600000000000000000000000000000000000000000000000000000000 DUP2 MSTORE PUSH1 0x4 ADD PUSH1 0x40 MLOAD DUP1 SWAP2 SUB SWAP1 REVERT JUMPDEST PUSH1 0x3 PUSH1 0x5 DUP2 GT ISZERO PUSH2 0x259 JUMPI PUSH2 0x258 PUSH2 0x1A0B JUMP JUMPDEST JUMPDEST PUSH1 0x1 PUSH1 0x3 ADD PUSH0 SWAP1 SLOAD SWAP1 PUSH2 0x100 EXP SWAP1 DIV PUSH1 0xFF AND PUSH1 0x5 DUP2 GT ISZERO PUSH2 0x27D JUMPI PUSH2 0x27C PUSH2 0x1A0B JUMP JUMPDEST JUMPDEST EQ PUSH1 0x1 PUSH1 0x3 ADD PUSH0 SWAP1 SLOAD SWAP1 PUSH2 0x100 EXP SWAP1 DIV PUSH1 0xFF AND PUSH1 0x3 SWAP1 SWAP2 PUSH2 0x2D5 JUMPI PUSH1 0x40 MLOAD PUSH32 0xE10DF3F00000000000000000000000000000000000000000000000000000000 DUP2 MSTORE PUSH1 0x4 ADD PUSH2 0x2CC SWAP3 SWAP2 SWAP1 PUSH2 0x1A7E JUMP JUMPDEST PUSH1 0x40 MLOAD DUP1 SWAP2 SUB SWAP1 REVERT JUMPDEST POP POP PUSH1 0x1 PUSH0 ADD PUSH0 CALLER PUSH20 0xFFFFFFFFFFFFFFFFFFFFFFFFFFFFFFFFFFFFFFFF AND PUSH20 0xFFFFFFFFFFFFFFFFFFFFFFFFFFFFFFFFFFFFFFFF AND DUP2 MSTORE PUSH1 0x20 ADD SWAP1 DUP2 MSTORE PUSH1 0x20 ADD PUSH0 KECCAK256 PUSH0 ADD PUSH1 0x1 SWAP1 SLOAD SWAP1 PUSH2 0x100 EXP SWAP1 DIV PUSH1 0xFF AND ISZERO PUSH2 0x35D JUMPI PUSH1 0x40 MLOAD PUSH32 0xD40AEC4400000000000000000000000000000000000000000000000000000000 DUP2 MSTORE PUSH1 0x4 ADD PUSH1 0x40 MLOAD DUP1 SWAP2 SUB SWAP1 REVERT JUMPDEST PUSH1 0x1 PUSH1 0x2 ADD DUP1 SLOAD SWAP1 POP DUP2 LT PUSH2 0x39E JUMPI PUSH1 0x40 MLOAD PUSH32 0xF299AF6600000000000000000000000000000000000000000000000000000000 DUP2 MSTORE PUSH1 0x4 ADD PUSH1 0x40 MLOAD DUP1 SWAP2 SUB SWAP1 REVERT JUMPDEST PUSH1 0x1 DUP1 PUSH1 0x2 ADD DUP3 DUP2 SLOAD DUP2 LT PUSH2 0x3B6 JUMPI PUSH2 0x3B5 PUSH2 0x1AA5 JUMP JUMPDEST JUMPDEST SWAP1 PUSH0 MSTORE PUSH1 0x20 PUSH0 KECCAK256 SWAP1 PUSH1 0x2 MUL ADD PUSH1 0x1 ADD PUSH0 DUP3 DUP3 SLOAD PUSH2 0x3D3 SWAP2 SWAP1 PUSH2 0x1AFF JUMP JUMPDEST SWAP3 POP POP DUP2 SWAP1 SSTORE POP DUP1 PUSH1 0x1 PUSH0 ADD PUSH0 CALLER PUSH20 0xFFFFFFFFFFFFFFFFFFFFFFFFFFFFFFFFFFFFFFFF AND PUSH20 0xFFFFFFFFFFFFFFFFFFFFFFFFFFFFFFFFFFFFFFFF AND DUP2 MSTORE PUSH1 0x20 ADD SWAP1 DUP2 MSTORE PUSH1 0x20 ADD PUSH0 KECCAK256 PUSH1 0x1 ADD DUP2 SWAP1 SSTORE POP PUSH1 0x1 DUP1 PUSH0 ADD PUSH0 CALLER PUSH20 0xFFFFFFFFFFFFFFFFFFFFFFFFFFFFFFFFFFFFFFFF AND PUSH20 0xFFFFFFFFFFFFFFFFFFFFFFFFFFFFFFFFFFFFFFFF AND DUP2 MSTORE PUSH1 0x20 ADD SWAP1 DUP2 MSTORE PUSH1 0x20 ADD PUSH0 KECCAK256 PUSH0 ADD PUSH1 0x1 PUSH2 0x100 EXP DUP2 SLOAD DUP2 PUSH1 0xFF MUL NOT AND SWAP1 DUP4 ISZERO ISZERO MUL OR SWAP1 SSTORE POP PUSH1 0x1 DUP1 PUSH1 0x1 ADD PUSH0 DUP3 DUP3 SLOAD PUSH2 0x48E SWAP2 SWAP1 PUSH2 0x1AFF JUMP JUMPDEST SWAP3 POP POP DUP2 SWAP1 SSTORE POP PUSH32 0x4D99B957A2BC29A30EBD96A7BE8E68FE50A3C701DB28A91436490B7D53870CA4 CALLER DUP3 PUSH1 0x40 MLOAD PUSH2 0x4C6 SWAP3 SWAP2 SWAP1 PUSH2 0x1B41 JUMP JUMPDEST PUSH1 0x40 MLOAD DUP1 SWAP2 SUB SWAP1 LOG1 POP JUMP JUMPDEST PUSH2 0x4D9 PUSH2 0x137D JUMP JUMPDEST PUSH1 0x6 DUP1 SLOAD SWAP1 POP DUP3 LT PUSH2 0x517 JUMPI PUSH1 0x40 MLOAD PUSH32 0x1397166E00000000000000000000000000000000000000000000000000000000 DUP2 MSTORE PUSH1 0x4 ADD PUSH1 0x40 MLOAD DUP1 SWAP2 SUB SWAP1 REVERT JUMPDEST PUSH1 0x6 DUP3 DUP2 SLOAD DUP2 LT PUSH2 0x52B JUMPI PUSH2 0x52A PUSH2 0x1AA5 JUMP JUMPDEST JUMPDEST SWAP1 PUSH0 MSTORE PUSH1 0x20 PUSH0 KECCAK256 SWAP1 PUSH1 0x3 MUL ADD PUSH1 0x40 MLOAD DUP1 PUSH1 0x60 ADD PUSH1 0x40 MSTORE SWAP1 DUP2 PUSH0 DUP3 ADD SLOAD DUP2 MSTORE PUSH1 0x20 ADD PUSH1 0x1 DUP3 ADD DUP1 SLOAD DUP1 PUSH1 0x20 MUL PUSH1 0x20 ADD PUSH1 0x40 MLOAD SWAP1 DUP2 ADD PUSH1 0x40 MSTORE DUP1 SWAP3 SWAP2 SWAP1 DUP2 DUP2 MSTORE PUSH1 0x20 ADD PUSH0 SWAP1 JUMPDEST DUP3 DUP3 LT ISZERO PUSH2 0x638 JUMPI DUP4 DUP3 SWAP1 PUSH0 MSTORE PUSH1 0x20 PUSH0 KECCAK256 SWAP1 PUSH1 0x2 MUL ADD PUSH1 0x40 MLOAD DUP1 PUSH1 0x40 ADD PUSH1 0x40 MSTORE SWAP1 DUP2 PUSH0 DUP3 ADD DUP1 SLOAD PUSH2 0x59F SWAP1 PUSH2 0x1B95 JUMP JUMPDEST DUP1 PUSH1 0x1F ADD PUSH1 0x20 DUP1 SWAP2 DIV MUL PUSH1 0x20 ADD PUSH1 0x40 MLOAD SWAP1 DUP2 ADD PUSH1 0x40 MSTORE DUP1 SWAP3 SWAP2 SWAP1 DUP2 DUP2 MSTORE PUSH1 0x20 ADD DUP3 DUP1 SLOAD PUSH2 0x5CB SWAP1 PUSH2 0x1B95 JUMP JUMPDEST DUP1 ISZERO PUSH2 0x616 JUMPI DUP1 PUSH1 0x1F LT PUSH2 0x5ED JUMPI PUSH2 0x100 DUP1 DUP4 SLOAD DIV MUL DUP4 MSTORE SWAP2 PUSH1 0x20 ADD SWAP2 PUSH2 0x616 JUMP JUMPDEST DUP3 ADD SWAP2 SWAP1 PUSH0 MSTORE PUSH1 0x20 PUSH0 KECCAK256 SWAP1 JUMPDEST DUP2 SLOAD DUP2 MSTORE SWAP1 PUSH1 0x1 ADD SWAP1 PUSH1 0x20 ADD DUP1 DUP4 GT PUSH2 0x5F9 JUMPI DUP3 SWAP1 SUB PUSH1 0x1F AND DUP3 ADD SWAP2 JUMPDEST POP POP POP POP POP DUP2 MSTORE PUSH1 0x20 ADD PUSH1 0x1 DUP3 ADD SLOAD DUP2 MSTORE POP POP DUP2 MSTORE PUSH1 0x20 ADD SWAP1 PUSH1 0x1 ADD SWAP1 PUSH2 0x56F JUMP JUMPDEST POP POP POP POP DUP2 MSTORE PUSH1 0x20 ADD PUSH1 0x2 DUP3 ADD DUP1 SLOAD DUP1 PUSH1 0x20 MUL PUSH1 0x20 ADD PUSH1 0x40 MLOAD SWAP1 DUP2 ADD PUSH1 0x40 MSTORE DUP1 SWAP3 SWAP2 SWAP1 DUP2 DUP2 MSTORE PUSH1 0x20 ADD DUP3 DUP1 SLOAD DUP1 ISZERO PUSH2 0x68D JUMPI PUSH1 0x20 MUL DUP3 ADD SWAP2 SWAP1 PUSH0 MSTORE PUSH1 0x20 PUSH0 KECCAK256 SWAP1 JUMPDEST DUP2 SLOAD DUP2 MSTORE PUSH1 0x20 ADD SWAP1 PUSH1 0x1 ADD SWAP1 DUP1 DUP4 GT PUSH2 0x679 JUMPI JUMPDEST POP POP POP POP POP DUP2 MSTORE POP POP SWAP1 POP SWAP2 SWAP1 POP JUMP JUMPDEST PUSH1 0x1 PUSH0 ADD PUSH0 CALLER PUSH20 0xFFFFFFFFFFFFFFFFFFFFFFFFFFFFFFFFFFFFFFFF AND PUSH20 0xFFFFFFFFFFFFFFFFFFFFFFFFFFFFFFFFFFFFFFFF AND DUP2 MSTORE PUSH1 0x20 ADD SWAP1 DUP2 MSTORE PUSH1 0x20 ADD PUSH0 KECCAK256 PUSH0 ADD PUSH0 SWAP1 SLOAD SWAP1 PUSH2 0x100 EXP SWAP1 DIV PUSH1 0xFF AND PUSH2 0x721 JUMPI PUSH1 0x40 MLOAD PUSH32 0xB3E2C01600000000000000000000000000000000000000000000000000000000 DUP2 MSTORE PUSH1 0x4 ADD PUSH1 0x40 MLOAD DUP1 SWAP2 SUB SWAP1 REVERT JUMPDEST PUSH1 0x1 PUSH1 0x5 DUP2 GT ISZERO PUSH2 0x735 JUMPI PUSH2 0x734 PUSH2 0x1A0B JUMP JUMPDEST JUMPDEST PUSH1 0x1 PUSH1 0x3 ADD PUSH0 SWAP1 SLOAD SWAP1 PUSH2 0x100 EXP SWAP1 DIV PUSH1 0xFF AND PUSH1 0x5 DUP2 GT ISZERO PUSH2 0x759 JUMPI PUSH2 0x758 PUSH2 0x1A0B JUMP JUMPDEST JUMPDEST EQ PUSH1 0x1 PUSH1 0x3 ADD PUSH0 SWAP1 SLOAD SWAP1 PUSH2 0x100 EXP SWAP1 DIV PUSH1 0xFF AND PUSH1 0x1 SWAP1 SWAP2 PUSH2 0x7B1 JUMPI PUSH1 0x40 MLOAD PUSH32 0xE10DF3F00000000000000000000000000000000000000000000000000000000 DUP2 MSTORE PUSH1 0x4 ADD PUSH2 0x7A8 SWAP3 SWAP2 SWAP1 PUSH2 0x1A7E JUMP JUMPDEST PUSH1 0x40 MLOAD DUP1 SWAP2 SUB SWAP1 REVERT JUMPDEST POP POP PUSH1 0x1 PUSH1 0x2 ADD PUSH1 0x40 MLOAD DUP1 PUSH1 0x40 ADD PUSH1 0x40 MSTORE DUP1 DUP4 DUP2 MSTORE PUSH1 0x20 ADD PUSH0 DUP2 MSTORE POP SWAP1 DUP1 PUSH1 0x1 DUP2 SLOAD ADD DUP1 DUP3 SSTORE DUP1 SWAP2 POP POP PUSH1 0x1 SWAP1 SUB SWAP1 PUSH0 MSTORE PUSH1 0x20 PUSH0 KECCAK256 SWAP1 PUSH1 0x2 MUL ADD PUSH0 SWAP1 SWAP2 SWAP1 SWAP2 SWAP1 SWAP2 POP PUSH0 DUP3 ADD MLOAD DUP2 PUSH0 ADD SWAP1 DUP2 PUSH2 0x806 SWAP2 SWAP1 PUSH2 0x1D65 JUMP JUMPDEST POP PUSH1 0x20 DUP3 ADD MLOAD DUP2 PUSH1 0x1 ADD SSTORE POP POP PUSH32 0x92E393E9B54E2F801D3EA4BEB0C5E71A21CC34A5D34B77D0FB8A3AA1650DC18F PUSH1 0x1 DUP1 PUSH1 0x2 ADD DUP1 SLOAD SWAP1 POP PUSH2 0x848 SWAP2 SWAP1 PUSH2 0x1E34 JUMP JUMPDEST PUSH1 0x40 MLOAD PUSH2 0x855 SWAP2 SWAP1 PUSH2 0x1E67 JUMP JUMPDEST PUSH1 0x40 MLOAD DUP1 SWAP2 SUB SWAP1 LOG1 POP JUMP JUMPDEST PUSH2 0x868 PUSH2 0x10FA JUMP JUMPDEST PUSH0 PUSH1 0x5 DUP2 GT ISZERO PUSH2 0x87B JUMPI PUSH2 0x87A PUSH2 0x1A0B JUMP JUMPDEST JUMPDEST PUSH1 0x1 PUSH1 0x3 ADD PUSH0 SWAP1 SLOAD SWAP1 PUSH2 0x100 EXP SWAP1 DIV PUSH1 0xFF AND PUSH1 0x5 DUP2 GT ISZERO PUSH2 0x89F JUMPI PUSH2 0x89E PUSH2 0x1A0B JUMP JUMPDEST JUMPDEST EQ PUSH1 0x1 PUSH1 0x3 ADD PUSH0 SWAP1 SLOAD SWAP1 PUSH2 0x100 EXP SWAP1 DIV PUSH1 0xFF AND PUSH0 SWAP1 SWAP2 PUSH2 0x8F6 JUMPI PUSH1 0x40 MLOAD PUSH32 0xE10DF3F00000000000000000000000000000000000000000000000000000000 DUP2 MSTORE PUSH1 0x4 ADD PUSH2 0x8ED SWAP3 SWAP2 SWAP1 PUSH2 0x1A7E JUMP JUMPDEST PUSH1 0x40 MLOAD DUP1 SWAP2 SUB SWAP1 REVERT JUMPDEST POP POP PUSH1 0x1 PUSH0 ADD PUSH0 DUP3 PUSH20 0xFFFFFFFFFFFFFFFFFFFFFFFFFFFFFFFFFFFFFFFF AND PUSH20 0xFFFFFFFFFFFFFFFFFFFFFFFFFFFFFFFFFFFFFFFF AND DUP2 MSTORE PUSH1 0x20 ADD SWAP1 DUP2 MSTORE PUSH1 0x20 ADD PUSH0 KECCAK256 PUSH0 ADD PUSH0 SWAP1 SLOAD SWAP1 PUSH2 0x100 EXP SWAP1 DIV PUSH1 0xFF AND ISZERO PUSH2 0x97D JUMPI PUSH1 0x40 MLOAD PUSH32 0x59A1EC4700000000000000000000000000000000000000000000000000000000 DUP2 MSTORE PUSH1 0x4 ADD PUSH1 0x40 MLOAD DUP1 SWAP2 SUB SWAP1 REVERT JUMPDEST PUSH1 0x1 DUP1 PUSH0 ADD PUSH0 DUP4 PUSH20 0xFFFFFFFFFFFFFFFFFFFFFFFFFFFFFFFFFFFFFFFF AND PUSH20 0xFFFFFFFFFFFFFFFFFFFFFFFFFFFFFFFFFFFFFFFF AND DUP2 MSTORE PUSH1 0x20 ADD SWAP1 DUP2 MSTORE PUSH1 0x20 ADD PUSH0 KECCAK256 PUSH0 ADD PUSH0 PUSH2 0x100 EXP DUP2 SLOAD DUP2 PUSH1 0xFF MUL NOT AND SWAP1 DUP4 ISZERO ISZERO MUL OR SWAP1 SSTORE POP PUSH32 0xB6BE2187D059CC2A55FE29E0E503B566E1E0F8C8780096E185429350ACFFD3DD DUP2 PUSH1 0x40 MLOAD PUSH2 0xA04 SWAP2 SWAP1 PUSH2 0x19F2 JUMP JUMPDEST PUSH1 0x40 MLOAD DUP1 SWAP2 SUB SWAP1 LOG1 POP JUMP JUMPDEST PUSH2 0xA17 PUSH2 0x10FA JUMP JUMPDEST PUSH2 0xA20 PUSH0 PUSH2 0x1181 JUMP JUMPDEST JUMP JUMPDEST PUSH2 0xA2A PUSH2 0x10FA JUMP JUMPDEST PUSH1 0x5 DUP1 DUP2 GT ISZERO PUSH2 0xA3D JUMPI PUSH2 0xA3C PUSH2 0x1A0B JUMP JUMPDEST JUMPDEST PUSH1 0x1 PUSH1 0x3 ADD PUSH0 SWAP1 SLOAD SWAP1 PUSH2 0x100 EXP SWAP1 DIV PUSH1 0xFF AND PUSH1 0x5 DUP2 GT ISZERO PUSH2 0xA61 JUMPI PUSH2 0xA60 PUSH2 0x1A0B JUMP JUMPDEST JUMPDEST LT PUSH2 0xA98 JUMPI PUSH1 0x40 MLOAD PUSH32 0x86FC57F00000000000000000000000000000000000000000000000000000000 DUP2 MSTORE PUSH1 0x4 ADD PUSH1 0x40 MLOAD DUP1 SWAP2 SUB SWAP1 REVERT JUMPDEST PUSH0 PUSH1 0x1 PUSH1 0x3 ADD PUSH0 SWAP1 SLOAD SWAP1 PUSH2 0x100 EXP SWAP1 DIV PUSH1 0xFF AND SWAP1 POP PUSH1 0x1 DUP1 PUSH1 0x3 ADD PUSH0 SWAP1 SLOAD SWAP1 PUSH2 0x100 EXP SWAP1 DIV PUSH1 0xFF AND PUSH1 0x5 DUP2 GT ISZERO PUSH2 0xAD2 JUMPI PUSH2 0xAD1 PUSH2 0x1A0B JUMP JUMPDEST JUMPDEST PUSH2 0xADC SWAP2 SWAP1 PUSH2 0x1AFF JUMP JUMPDEST PUSH1 0x5 DUP2 GT ISZERO PUSH2 0xAEE JUMPI PUSH2 0xAED PUSH2 0x1A0B JUMP JUMPDEST JUMPDEST PUSH1 0x1 PUSH1 0x3 ADD PUSH0 PUSH2 0x100 EXP DUP2 SLOAD DUP2 PUSH1 0xFF MUL NOT AND SWAP1 DUP4 PUSH1 0x5 DUP2 GT ISZERO PUSH2 0xB14 JUMPI PUSH2 0xB13 PUSH2 0x1A0B JUMP JUMPDEST JUMPDEST MUL OR SWAP1 SSTORE POP PUSH32 0xA97A4EE45751E2ABF3E4FC8946939630B11B371EA8AE39CCDC3056E98F5CC3F DUP2 PUSH1 0x1 PUSH1 0x3 ADD PUSH0 SWAP1 SLOAD SWAP1 PUSH2 0x100 EXP SWAP1 DIV PUSH1 0xFF AND PUSH1 0x40 MLOAD PUSH2 0xB5B SWAP3 SWAP2 SWAP1 PUSH2 0x1A7E JUMP JUMPDEST PUSH1 0x40 MLOAD DUP1 SWAP2 SUB SWAP1 LOG1 PUSH1 0x5 DUP1 DUP2 GT ISZERO PUSH2 0xB76 JUMPI PUSH2 0xB75 PUSH2 0x1A0B JUMP JUMPDEST JUMPDEST PUSH1 0x1 PUSH1 0x3 ADD PUSH0 SWAP1 SLOAD SWAP1 PUSH2 0x100 EXP SWAP1 DIV PUSH1 0xFF AND PUSH1 0x5 DUP2 GT ISZERO PUSH2 0xB9A JUMPI PUSH2 0xB99 PUSH2 0x1A0B JUMP JUMPDEST JUMPDEST SUB PUSH2 0xBA8 JUMPI PUSH2 0xBA7 PUSH2 0x1242 JUMP JUMPDEST JUMPDEST POP JUMP JUMPDEST PUSH1 0x60 PUSH1 0x1 PUSH0 ADD PUSH0 CALLER PUSH20 0xFFFFFFFFFFFFFFFFFFFFFFFFFFFFFFFFFFFFFFFF AND PUSH20 0xFFFFFFFFFFFFFFFFFFFFFFFFFFFFFFFFFFFFFFFF AND DUP2 MSTORE PUSH1 0x20 ADD SWAP1 DUP2 MSTORE PUSH1 0x20 ADD PUSH0 KECCAK256 PUSH0 ADD PUSH0 SWAP1 SLOAD SWAP1 PUSH2 0x100 EXP SWAP1 DIV PUSH1 0xFF AND PUSH2 0xC31 JUMPI PUSH1 0x40 MLOAD PUSH32 0xB3E2C01600000000000000000000000000000000000000000000000000000000 DUP2 MSTORE PUSH1 0x4 ADD PUSH1 0x40 MLOAD DUP1 SWAP2 SUB SWAP1 REVERT JUMPDEST PUSH1 0x5 DUP1 DUP2 GT ISZERO PUSH2 0xC44 JUMPI PUSH2 0xC43 PUSH2 0x1A0B JUMP JUMPDEST JUMPDEST PUSH1 0x1 PUSH1 0x3 ADD PUSH0 SWAP1 SLOAD SWAP1 PUSH2 0x100 EXP SWAP1 DIV PUSH1 0xFF AND PUSH1 0x5 DUP2 GT ISZERO PUSH2 0xC68 JUMPI PUSH2 0xC67 PUSH2 0x1A0B JUMP JUMPDEST JUMPDEST EQ PUSH1 0x1 PUSH1 0x3 ADD PUSH0 SWAP1 SLOAD SWAP1 PUSH2 0x100 EXP SWAP1 DIV PUSH1 0xFF AND PUSH1 0x5 SWAP1 SWAP2 PUSH2 0xCC0 JUMPI PUSH1 0x40 MLOAD PUSH32 0xE10DF3F00000000000000000000000000000000000000000000000000000000 DUP2 MSTORE PUSH1 0x4 ADD PUSH2 0xCB7 SWAP3 SWAP2 SWAP1 PUSH2 0x1A7E JUMP JUMPDEST PUSH1 0x40 MLOAD DUP1 SWAP2 SUB SWAP1 REVERT JUMPDEST POP POP PUSH1 0x1 PUSH1 0x4 ADD DUP1 SLOAD DUP1 PUSH1 0x20 MUL PUSH1 0x20 ADD PUSH1 0x40 MLOAD SWAP1 DUP2 ADD PUSH1 0x40 MSTORE DUP1 SWAP3 SWAP2 SWAP1 DUP2 DUP2 MSTORE PUSH1 0x20 ADD DUP3 DUP1 SLOAD DUP1 ISZERO PUSH2 0xD0F JUMPI PUSH1 0x20 MUL DUP3 ADD SWAP2 SWAP1 PUSH0 MSTORE PUSH1 0x20 PUSH0 KECCAK256 SWAP1 JUMPDEST DUP2 SLOAD DUP2 MSTORE PUSH1 0x20 ADD SWAP1 PUSH1 0x1 ADD SWAP1 DUP1 DUP4 GT PUSH2 0xCFB JUMPI JUMPDEST POP POP POP POP POP SWAP1 POP SWAP1 JUMP JUMPDEST PUSH2 0xD21 PUSH2 0x10FA JUMP JUMPDEST PUSH1 0x5 DUP1 DUP2 GT ISZERO PUSH2 0xD34 JUMPI PUSH2 0xD33 PUSH2 0x1A0B JUMP JUMPDEST JUMPDEST PUSH1 0x1 PUSH1 0x3 ADD PUSH0 SWAP1 SLOAD SWAP1 PUSH2 0x100 EXP SWAP1 DIV PUSH1 0xFF AND PUSH1 0x5 DUP2 GT ISZERO PUSH2 0xD58 JUMPI PUSH2 0xD57 PUSH2 0x1A0B JUMP JUMPDEST JUMPDEST EQ PUSH1 0x1 PUSH1 0x3 ADD PUSH0 SWAP1 SLOAD SWAP1 PUSH2 0x100 EXP SWAP1 DIV PUSH1 0xFF AND PUSH1 0x5 SWAP1 SWAP2 PUSH2 0xDB0 JUMPI PUSH1 0x40 MLOAD PUSH32 0xE10DF3F00000000000000000000000000000000000000000000000000000000 DUP2 MSTORE PUSH1 0x4 ADD PUSH2 0xDA7 SWAP3 SWAP2 SWAP1 PUSH2 0x1A7E JUMP JUMPDEST PUSH1 0x40 MLOAD DUP1 SWAP2 SUB SWAP1 REVERT JUMPDEST POP POP PUSH1 0x6 PUSH1 0x1 DUP2 PUSH1 0x1 DUP2 SLOAD ADD DUP1 DUP3 SSTORE DUP1 SWAP2 POP POP SUB SWAP1 PUSH0 MSTORE PUSH1 0x20 PUSH0 KECCAK256 SWAP1 POP POP PUSH0 PUSH1 0x6 PUSH1 0x1 PUSH1 0x6 DUP1 SLOAD SWAP1 POP PUSH2 0xDE3 SWAP2 SWAP1 PUSH2 0x1E34 JUMP JUMPDEST DUP2 SLOAD DUP2 LT PUSH2 0xDF4 JUMPI PUSH2 0xDF3 PUSH2 0x1AA5 JUMP JUMPDEST JUMPDEST SWAP1 PUSH0 MSTORE PUSH1 0x20 PUSH0 KECCAK256 SWAP1 PUSH1 0x3 MUL ADD SWAP1 POP PUSH1 0x1 DUP1 ADD SLOAD DUP2 PUSH0 ADD DUP2 SWAP1 SSTORE POP PUSH0 PUSH0 SWAP1 POP JUMPDEST PUSH1 0x1 PUSH1 0x2 ADD DUP1 SLOAD SWAP1 POP DUP2 LT ISZERO PUSH2 0xE9C JUMPI DUP2 PUSH1 0x1 ADD PUSH1 0x1 PUSH1 0x2 ADD DUP3 DUP2 SLOAD DUP2 LT PUSH2 0xE3E JUMPI PUSH2 0xE3D PUSH2 0x1AA5 JUMP JUMPDEST JUMPDEST SWAP1 PUSH0 MSTORE PUSH1 0x20 PUSH0 KECCAK256 SWAP1 PUSH1 0x2 MUL ADD SWAP1 DUP1 PUSH1 0x1 DUP2 SLOAD ADD DUP1 DUP3 SSTORE DUP1 SWAP2 POP POP PUSH1 0x1 SWAP1 SUB SWAP1 PUSH0 MSTORE PUSH1 0x20 PUSH0 KECCAK256 SWAP1 PUSH1 0x2 MUL ADD PUSH0 SWAP1 SWAP2 SWAP1 SWAP2 SWAP1 SWAP2 POP PUSH0 DUP3 ADD DUP2 PUSH0 ADD SWAP1 DUP2 PUSH2 0xE82 SWAP2 SWAP1 PUSH2 0x1E95 JUMP JUMPDEST POP PUSH1 0x1 DUP3 ADD SLOAD DUP2 PUSH1 0x1 ADD SSTORE POP POP DUP1 DUP1 PUSH1 0x1 ADD SWAP2 POP POP PUSH2 0xE13 JUMP JUMPDEST POP PUSH0 PUSH0 SWAP1 POP JUMPDEST PUSH1 0x1 PUSH1 0x4 ADD DUP1 SLOAD SWAP1 POP DUP2 LT ISZERO PUSH2 0xF06 JUMPI DUP2 PUSH1 0x2 ADD PUSH1 0x1 PUSH1 0x4 ADD DUP3 DUP2 SLOAD DUP2 LT PUSH2 0xECD JUMPI PUSH2 0xECC PUSH2 0x1AA5 JUMP JUMPDEST JUMPDEST SWAP1 PUSH0 MSTORE PUSH1 0x20 PUSH0 KECCAK256 ADD SLOAD SWAP1 DUP1 PUSH1 0x1 DUP2 SLOAD ADD DUP1 DUP3 SSTORE DUP1 SWAP2 POP POP PUSH1 0x1 SWAP1 SUB SWAP1 PUSH0 MSTORE PUSH1 0x20 PUSH0 KECCAK256 ADD PUSH0 SWAP1 SWAP2 SWAP1 SWAP2 SWAP1 SWAP2 POP SSTORE DUP1 DUP1 PUSH1 0x1 ADD SWAP2 POP POP PUSH2 0xEA2 JUMP JUMPDEST POP PUSH1 0x1 PUSH0 PUSH1 0x1 DUP3 ADD PUSH0 SWAP1 SSTORE PUSH1 0x2 DUP3 ADD PUSH0 PUSH2 0xF20 SWAP2 SWAP1 PUSH2 0x139D JUMP JUMPDEST PUSH1 0x3 DUP3 ADD PUSH0 PUSH2 0x100 EXP DUP2 SLOAD SWAP1 PUSH1 0xFF MUL NOT AND SWAP1 SSTORE PUSH1 0x4 DUP3 ADD PUSH0 PUSH2 0xF42 SWAP2 SWAP1 PUSH2 0x13BE JUMP JUMPDEST POP POP PUSH0 PUSH1 0x1 PUSH1 0x3 ADD PUSH0 PUSH2 0x100 EXP DUP2 SLOAD DUP2 PUSH1 0xFF MUL NOT AND SWAP1 DUP4 PUSH1 0x5 DUP2 GT ISZERO PUSH2 0xF6B JUMPI PUSH2 0xF6A PUSH2 0x1A0B JUMP JUMPDEST JUMPDEST MUL OR SWAP1 SSTORE POP PUSH1 0x1 PUSH1 0x6 DUP1 SLOAD SWAP1 POP PUSH2 0xF82 SWAP2 SWAP1 PUSH2 0x1E34 JUMP JUMPDEST PUSH32 0x87F1EFD3ECC2164EB03E4374AC4BFEBD5EE2D9F4785FC2F4C9C193FC132BB03F DUP3 PUSH0 ADD SLOAD DUP4 PUSH1 0x2 ADD DUP1 SLOAD SWAP1 POP PUSH1 0x40 MLOAD PUSH2 0xFBD SWAP3 SWAP2 SWAP1 PUSH2 0x1F7A JUMP JUMPDEST PUSH1 0x40 MLOAD DUP1 SWAP2 SUB SWAP1 LOG2 POP JUMP JUMPDEST PUSH0 PUSH0 PUSH0 SWAP1 SLOAD SWAP1 PUSH2 0x100 EXP SWAP1 DIV PUSH20 0xFFFFFFFFFFFFFFFFFFFFFFFFFFFFFFFFFFFFFFFF AND SWAP1 POP SWAP1 JUMP JUMPDEST PUSH1 0x1 PUSH0 ADD PUSH0 CALLER PUSH20 0xFFFFFFFFFFFFFFFFFFFFFFFFFFFFFFFFFFFFFFFF AND PUSH20 0xFFFFFFFFFFFFFFFFFFFFFFFFFFFFFFFFFFFFFFFF AND DUP2 MSTORE PUSH1 0x20 ADD SWAP1 DUP2 MSTORE PUSH1 0x20 ADD PUSH0 KECCAK256 PUSH0 ADD PUSH0 SWAP1 SLOAD SWAP1 PUSH2 0x100 EXP SWAP1 DIV PUSH1 0xFF AND PUSH2 0x1073 JUMPI PUSH1 0x40 MLOAD PUSH32 0xB3E2C01600000000000000000000000000000000000000000000000000000000 DUP2 MSTORE PUSH1 0x4 ADD PUSH1 0x40 MLOAD DUP1 SWAP2 SUB SWAP1 REVERT JUMPDEST POP JUMP JUMPDEST PUSH2 0x107E PUSH2 0x10FA JUMP JUMPDEST PUSH0 PUSH20 0xFFFFFFFFFFFFFFFFFFFFFFFFFFFFFFFFFFFFFFFF AND DUP2 PUSH20 0xFFFFFFFFFFFFFFFFFFFFFFFFFFFFFFFFFFFFFFFF AND SUB PUSH2 0x10EE JUMPI PUSH0 PUSH1 0x40 MLOAD PUSH32 0x1E4FBDF700000000000000000000000000000000000000000000000000000000 DUP2 MSTORE PUSH1 0x4 ADD PUSH2 0x10E5 SWAP2 SWAP1 PUSH2 0x19F2 JUMP JUMPDEST PUSH1 0x40 MLOAD DUP1 SWAP2 SUB SWAP1 REVERT JUMPDEST PUSH2 0x10F7 DUP2 PUSH2 0x1181 JUMP JUMPDEST POP JUMP JUMPDEST PUSH2 0x1102 PUSH2 0x1376 JUMP JUMPDEST PUSH20 0xFFFFFFFFFFFFFFFFFFFFFFFFFFFFFFFFFFFFFFFF AND PUSH2 0x1120 PUSH2 0xFC8 JUMP JUMPDEST PUSH20 0xFFFFFFFFFFFFFFFFFFFFFFFFFFFFFFFFFFFFFFFF AND EQ PUSH2 0x117F JUMPI PUSH2 0x1143 PUSH2 0x1376 JUMP JUMPDEST PUSH1 0x40 MLOAD PUSH32 0x118CDAA700000000000000000000000000000000000000000000000000000000 DUP2 MSTORE PUSH1 0x4 ADD PUSH2 0x1176 SWAP2 SWAP1 PUSH2 0x19F2 JUMP JUMPDEST PUSH1 0x40 MLOAD DUP1 SWAP2 SUB SWAP1 REVERT JUMPDEST JUMP JUMPDEST PUSH0 PUSH0 PUSH0 SWAP1 SLOAD SWAP1 PUSH2 0x100 EXP SWAP1 DIV PUSH20 0xFFFFFFFFFFFFFFFFFFFFFFFFFFFFFFFFFFFFFFFF AND SWAP1 POP DUP2 PUSH0 PUSH0 PUSH2 0x100 EXP DUP2 SLOAD DUP2 PUSH20 0xFFFFFFFFFFFFFFFFFFFFFFFFFFFFFFFFFFFFFFFF MUL NOT AND SWAP1 DUP4 PUSH20 0xFFFFFFFFFFFFFFFFFFFFFFFFFFFFFFFFFFFFFFFF AND MUL OR SWAP1 SSTORE POP DUP2 PUSH20 0xFFFFFFFFFFFFFFFFFFFFFFFFFFFFFFFFFFFFFFFF AND DUP2 PUSH20 0xFFFFFFFFFFFFFFFFFFFFFFFFFFFFFFFFFFFFFFFF AND PUSH32 0x8BE0079C531659141344CD1FD0A4F28419497F9722A3DAAFE3B4186F6B6457E0 PUSH1 0x40 MLOAD PUSH1 0x40 MLOAD DUP1 SWAP2 SUB SWAP1 LOG3 POP POP JUMP JUMPDEST PUSH2 0x124A PUSH2 0x10FA JUMP JUMPDEST PUSH0 PUSH0 SWAP1 POP PUSH1 0x1 PUSH1 0x4 ADD PUSH0 PUSH2 0x125E SWAP2 SWAP1 PUSH2 0x13BE JUMP JUMPDEST PUSH0 PUSH0 SWAP1 POP JUMPDEST PUSH1 0x1 PUSH1 0x2 ADD DUP1 SLOAD SWAP1 POP DUP2 LT ISZERO PUSH2 0x1331 JUMPI PUSH0 PUSH1 0x1 PUSH1 0x2 ADD DUP3 DUP2 SLOAD DUP2 LT PUSH2 0x128B JUMPI PUSH2 0x128A PUSH2 0x1AA5 JUMP JUMPDEST JUMPDEST SWAP1 PUSH0 MSTORE PUSH1 0x20 PUSH0 KECCAK256 SWAP1 PUSH1 0x2 MUL ADD PUSH1 0x1 ADD SLOAD SWAP1 POP DUP3 DUP2 GT ISZERO PUSH2 0x12E6 JUMPI DUP1 SWAP3 POP PUSH1 0x1 PUSH1 0x4 ADD PUSH0 PUSH2 0x12B8 SWAP2 SWAP1 PUSH2 0x13BE JUMP JUMPDEST PUSH1 0x1 PUSH1 0x4 ADD DUP3 SWAP1 DUP1 PUSH1 0x1 DUP2 SLOAD ADD DUP1 DUP3 SSTORE DUP1 SWAP2 POP POP PUSH1 0x1 SWAP1 SUB SWAP1 PUSH0 MSTORE PUSH1 0x20 PUSH0 KECCAK256 ADD PUSH0 SWAP1 SWAP2 SWAP1 SWAP2 SWAP1 SWAP2 POP SSTORE PUSH2 0x1325 JUMP JUMPDEST DUP3 DUP2 EQ DUP1 ISZERO PUSH2 0x12F5 JUMPI POP PUSH0 DUP4 EQ ISZERO JUMPDEST ISZERO PUSH2 0x1324 JUMPI PUSH1 0x1 PUSH1 0x4 ADD DUP3 SWAP1 DUP1 PUSH1 0x1 DUP2 SLOAD ADD DUP1 DUP3 SSTORE DUP1 SWAP2 POP POP PUSH1 0x1 SWAP1 SUB SWAP1 PUSH0 MSTORE PUSH1 0x20 PUSH0 KECCAK256 ADD PUSH0 SWAP1 SWAP2 SWAP1 SWAP2 SWAP1 SWAP2 POP SSTORE JUMPDEST JUMPDEST POP DUP1 PUSH1 0x1 ADD SWAP1 POP PUSH2 0x1263 JUMP JUMPDEST POP PUSH32 0x45EF9B7FC34BDFCCCC29BE8BE99AB3E8F3206F5957D34325050712B5B486BDCE DUP2 PUSH1 0x1 PUSH1 0x4 ADD DUP1 SLOAD SWAP1 POP PUSH1 0x40 MLOAD PUSH2 0x136B SWAP3 SWAP2 SWAP1 PUSH2 0x1F7A JUMP JUMPDEST PUSH1 0x40 MLOAD DUP1 SWAP2 SUB SWAP1 LOG1 POP JUMP JUMPDEST PUSH0 CALLER SWAP1 POP SWAP1 JUMP JUMPDEST PUSH1 0x40 MLOAD DUP1 PUSH1 0x60 ADD PUSH1 0x40 MSTORE DUP1 PUSH0 DUP2 MSTORE PUSH1 0x20 ADD PUSH1 0x60 DUP2 MSTORE PUSH1 0x20 ADD PUSH1 0x60 DUP2 MSTORE POP SWAP1 JUMP JUMPDEST POP DUP1 SLOAD PUSH0 DUP3 SSTORE PUSH1 0x2 MUL SWAP1 PUSH0 MSTORE PUSH1 0x20 PUSH0 KECCAK256 SWAP1 DUP2 ADD SWAP1 PUSH2 0x13BB SWAP2 SWAP1 PUSH2 0x13DC JUMP JUMPDEST POP JUMP JUMPDEST POP DUP1 SLOAD PUSH0 DUP3 SSTORE SWAP1 PUSH0 MSTORE PUSH1 0x20 PUSH0 KECCAK256 SWAP1 DUP2 ADD SWAP1 PUSH2 0x13D9 SWAP2 SWAP1 PUSH2 0x1408 JUMP JUMPDEST POP JUMP JUMPDEST JUMPDEST DUP1 DUP3 GT ISZERO PUSH2 0x1404 JUMPI PUSH0 PUSH0 DUP3 ADD PUSH0 PUSH2 0x13F4 SWAP2 SWAP1 PUSH2 0x1423 JUMP JUMPDEST PUSH1 0x1 DUP3 ADD PUSH0 SWAP1 SSTORE POP PUSH1 0x2 ADD PUSH2 0x13DD JUMP JUMPDEST POP SWAP1 JUMP JUMPDEST JUMPDEST DUP1 DUP3 GT ISZERO PUSH2 0x141F JUMPI PUSH0 DUP2 PUSH0 SWAP1 SSTORE POP PUSH1 0x1 ADD PUSH2 0x1409 JUMP JUMPDEST POP SWAP1 JUMP JUMPDEST POP DUP1 SLOAD PUSH2 0x142F SWAP1 PUSH2 0x1B95 JUMP JUMPDEST PUSH0 DUP3 SSTORE DUP1 PUSH1 0x1F LT PUSH2 0x1440 JUMPI POP PUSH2 0x145D JUMP JUMPDEST PUSH1 0x1F ADD PUSH1 0x20 SWAP1 DIV SWAP1 PUSH0 MSTORE PUSH1 0x20 PUSH0 KECCAK256 SWAP1 DUP2 ADD SWAP1 PUSH2 0x145C SWAP2 SWAP1 PUSH2 0x1408 JUMP JUMPDEST JUMPDEST POP JUMP JUMPDEST PUSH0 PUSH1 0x40 MLOAD SWAP1 POP SWAP1 JUMP JUMPDEST PUSH0 PUSH0 REVERT JUMPDEST PUSH0 PUSH0 REVERT JUMPDEST PUSH0 DUP2 SWAP1 POP SWAP2 SWAP1 POP JUMP JUMPDEST PUSH2 0x1483 DUP2 PUSH2 0x1471 JUMP JUMPDEST DUP2 EQ PUSH2 0x148D JUMPI PUSH0 PUSH0 REVERT JUMPDEST POP JUMP JUMPDEST PUSH0 DUP2 CALLDATALOAD SWAP1 POP PUSH2 0x149E DUP2 PUSH2 0x147A JUMP JUMPDEST SWAP3 SWAP2 POP POP JUMP JUMPDEST PUSH0 PUSH1 0x20 DUP3 DUP5 SUB SLT ISZERO PUSH2 0x14B9 JUMPI PUSH2 0x14B8 PUSH2 0x1469 JUMP JUMPDEST JUMPDEST PUSH0 PUSH2 0x14C6 DUP5 DUP3 DUP6 ADD PUSH2 0x1490 JUMP JUMPDEST SWAP2 POP POP SWAP3 SWAP2 POP POP JUMP JUMPDEST PUSH2 0x14D8 DUP2 PUSH2 0x1471 JUMP JUMPDEST DUP3 MSTORE POP POP JUMP JUMPDEST PUSH0 DUP2 MLOAD SWAP1 POP SWAP2 SWAP1 POP JUMP JUMPDEST PUSH0 DUP3 DUP3 MSTORE PUSH1 0x20 DUP3 ADD SWAP1 POP SWAP3 SWAP2 POP POP JUMP JUMPDEST PUSH0 DUP2 SWAP1 POP PUSH1 0x20 DUP3 ADD SWAP1 POP SWAP2 SWAP1 POP JUMP JUMPDEST PUSH0 DUP2 MLOAD SWAP1 POP SWAP2 SWAP1 POP JUMP JUMPDEST PUSH0 DUP3 DUP3 MSTORE PUSH1 0x20 DUP3 ADD SWAP1 POP SWAP3 SWAP2 POP POP JUMP JUMPDEST DUP3 DUP2 DUP4 MCOPY PUSH0 DUP4 DUP4 ADD MSTORE POP POP POP JUMP JUMPDEST PUSH0 PUSH1 0x1F NOT PUSH1 0x1F DUP4 ADD AND SWAP1 POP SWAP2 SWAP1 POP JUMP JUMPDEST PUSH0 PUSH2 0x1549 DUP3 PUSH2 0x1507 JUMP JUMPDEST PUSH2 0x1553 DUP2 DUP6 PUSH2 0x1511 JUMP JUMPDEST SWAP4 POP PUSH2 0x1563 DUP2 DUP6 PUSH1 0x20 DUP7 ADD PUSH2 0x1521 JUMP JUMPDEST PUSH2 0x156C DUP2 PUSH2 0x152F JUMP JUMPDEST DUP5 ADD SWAP2 POP POP SWAP3 SWAP2 POP POP JUMP JUMPDEST PUSH0 PUSH1 0x40 DUP4 ADD PUSH0 DUP4 ADD MLOAD DUP5 DUP3 SUB PUSH0 DUP7 ADD MSTORE PUSH2 0x1591 DUP3 DUP3 PUSH2 0x153F JUMP JUMPDEST SWAP2 POP POP PUSH1 0x20 DUP4 ADD MLOAD PUSH2 0x15A6 PUSH1 0x20 DUP7 ADD DUP3 PUSH2 0x14CF JUMP JUMPDEST POP DUP1 SWAP2 POP POP SWAP3 SWAP2 POP POP JUMP JUMPDEST PUSH0 PUSH2 0x15BC DUP4 DUP4 PUSH2 0x1577 JUMP JUMPDEST SWAP1 POP SWAP3 SWAP2 POP POP JUMP JUMPDEST PUSH0 PUSH1 0x20 DUP3 ADD SWAP1 POP SWAP2 SWAP1 POP JUMP JUMPDEST PUSH0 PUSH2 0x15DA DUP3 PUSH2 0x14DE JUMP JUMPDEST PUSH2 0x15E4 DUP2 DUP6 PUSH2 0x14E8 JUMP JUMPDEST SWAP4 POP DUP4 PUSH1 0x20 DUP3 MUL DUP6 ADD PUSH2 0x15F6 DUP6 PUSH2 0x14F8 JUMP JUMPDEST DUP1 PUSH0 JUMPDEST DUP6 DUP2 LT ISZERO PUSH2 0x1631 JUMPI DUP5 DUP5 SUB DUP10 MSTORE DUP2 MLOAD PUSH2 0x1612 DUP6 DUP3 PUSH2 0x15B1 JUMP JUMPDEST SWAP5 POP PUSH2 0x161D DUP4 PUSH2 0x15C4 JUMP JUMPDEST SWAP3 POP PUSH1 0x20 DUP11 ADD SWAP10 POP POP PUSH1 0x1 DUP2 ADD SWAP1 POP PUSH2 0x15F9 JUMP JUMPDEST POP DUP3 SWAP8 POP DUP8 SWAP6 POP POP POP POP POP POP SWAP3 SWAP2 POP POP JUMP JUMPDEST PUSH0 DUP2 MLOAD SWAP1 POP SWAP2 SWAP1 POP JUMP JUMPDEST PUSH0 DUP3 DUP3 MSTORE PUSH1 0x20 DUP3 ADD SWAP1 POP SWAP3 SWAP2 POP POP JUMP JUMPDEST PUSH0 DUP2 SWAP1 POP PUSH1 0x20 DUP3 ADD SWAP1 POP SWAP2 SWAP1 POP JUMP JUMPDEST PUSH0 PUSH2 0x1677 DUP4 DUP4 PUSH2 0x14CF JUMP JUMPDEST PUSH1 0x20 DUP4 ADD SWAP1 POP SWAP3 SWAP2 POP POP JUMP JUMPDEST PUSH0 PUSH1 0x20 DUP3 ADD SWAP1 POP SWAP2 SWAP1 POP JUMP JUMPDEST PUSH0 PUSH2 0x1699 DUP3 PUSH2 0x1643 JUMP JUMPDEST PUSH2 0x16A3 DUP2 DUP6 PUSH2 0x164D JUMP JUMPDEST SWAP4 POP PUSH2 0x16AE DUP4 PUSH2 0x165D JUMP JUMPDEST DUP1 PUSH0 JUMPDEST DUP4 DUP2 LT ISZERO PUSH2 0x16DE JUMPI DUP2 MLOAD PUSH2 0x16C5 DUP9 DUP3 PUSH2 0x166C JUMP JUMPDEST SWAP8 POP PUSH2 0x16D0 DUP4 PUSH2 0x1683 JUMP JUMPDEST SWAP3 POP POP PUSH1 0x1 DUP2 ADD SWAP1 POP PUSH2 0x16B1 JUMP JUMPDEST POP DUP6 SWAP4 POP POP POP POP SWAP3 SWAP2 POP POP JUMP JUMPDEST PUSH0 PUSH1 0x60 DUP4 ADD PUSH0 DUP4 ADD MLOAD PUSH2 0x1700 PUSH0 DUP7 ADD DUP3 PUSH2 0x14CF JUMP JUMPDEST POP PUSH1 0x20 DUP4 ADD MLOAD DUP5 DUP3 SUB PUSH1 0x20 DUP7 ADD MSTORE PUSH2 0x1718 DUP3 DUP3 PUSH2 0x15D0 JUMP JUMPDEST SWAP2 POP POP PUSH1 0x40 DUP4 ADD MLOAD DUP5 DUP3 SUB PUSH1 0x40 DUP7 ADD MSTORE PUSH2 0x1732 DUP3 DUP3 PUSH2 0x168F JUMP JUMPDEST SWAP2 POP POP DUP1 SWAP2 POP POP SWAP3 SWAP2 POP POP JUMP JUMPDEST PUSH0 PUSH1 0x20 DUP3 ADD SWAP1 POP DUP2 DUP2 SUB PUSH0 DUP4 ADD MSTORE PUSH2 0x1757 DUP2 DUP5 PUSH2 0x16EB JUMP JUMPDEST SWAP1 POP SWAP3 SWAP2 POP POP JUMP JUMPDEST PUSH0 PUSH0 REVERT JUMPDEST PUSH0 PUSH0 REVERT JUMPDEST PUSH32 0x4E487B7100000000000000000000000000000000000000000000000000000000 PUSH0 MSTORE PUSH1 0x41 PUSH1 0x4 MSTORE PUSH1 0x24 PUSH0 REVERT JUMPDEST PUSH2 0x179D DUP3 PUSH2 0x152F JUMP JUMPDEST DUP2 ADD DUP2 DUP2 LT PUSH8 0xFFFFFFFFFFFFFFFF DUP3 GT OR ISZERO PUSH2 0x17BC JUMPI PUSH2 0x17BB PUSH2 0x1767 JUMP JUMPDEST JUMPDEST DUP1 PUSH1 0x40 MSTORE POP POP POP JUMP JUMPDEST PUSH0 PUSH2 0x17CE PUSH2 0x1460 JUMP JUMPDEST SWAP1 POP PUSH2 0x17DA DUP3 DUP3 PUSH2 0x1794 JUMP JUMPDEST SWAP2 SWAP1 POP JUMP JUMPDEST PUSH0 PUSH8 0xFFFFFFFFFFFFFFFF DUP3 GT ISZERO PUSH2 0x17F9 JUMPI PUSH2 0x17F8 PUSH2 0x1767 JUMP JUMPDEST JUMPDEST PUSH2 0x1802 DUP3 PUSH2 0x152F JUMP JUMPDEST SWAP1 POP PUSH1 0x20 DUP2 ADD SWAP1 POP SWAP2 SWAP1 POP JUMP JUMPDEST DUP3 DUP2 DUP4 CALLDATACOPY PUSH0 DUP4 DUP4 ADD MSTORE POP POP POP JUMP JUMPDEST PUSH0 PUSH2 0x182F PUSH2 0x182A DUP5 PUSH2 0x17DF JUMP JUMPDEST PUSH2 0x17C5 JUMP JUMPDEST SWAP1 POP DUP3 DUP2 MSTORE PUSH1 0x20 DUP2 ADD DUP5 DUP5 DUP5 ADD GT ISZERO PUSH2 0x184B JUMPI PUSH2 0x184A PUSH2 0x1763 JUMP JUMPDEST JUMPDEST PUSH2 0x1856 DUP5 DUP3 DUP6 PUSH2 0x180F JUMP JUMPDEST POP SWAP4 SWAP3 POP POP POP JUMP JUMPDEST PUSH0 DUP3 PUSH1 0x1F DUP4 ADD SLT PUSH2 0x1872 JUMPI PUSH2 0x1871 PUSH2 0x175F JUMP JUMPDEST JUMPDEST DUP2 CALLDATALOAD PUSH2 0x1882 DUP5 DUP3 PUSH1 0x20 DUP7 ADD PUSH2 0x181D JUMP JUMPDEST SWAP2 POP POP SWAP3 SWAP2 POP POP JUMP JUMPDEST PUSH0 PUSH1 0x20 DUP3 DUP5 SUB SLT ISZERO PUSH2 0x18A0 JUMPI PUSH2 0x189F PUSH2 0x1469 JUMP JUMPDEST JUMPDEST PUSH0 DUP3 ADD CALLDATALOAD PUSH8 0xFFFFFFFFFFFFFFFF DUP2 GT ISZERO PUSH2 0x18BD JUMPI PUSH2 0x18BC PUSH2 0x146D JUMP JUMPDEST JUMPDEST PUSH2 0x18C9 DUP5 DUP3 DUP6 ADD PUSH2 0x185E JUMP JUMPDEST SWAP2 POP POP SWAP3 SWAP2 POP POP JUMP JUMPDEST PUSH0 PUSH20 0xFFFFFFFFFFFFFFFFFFFFFFFFFFFFFFFFFFFFFFFF DUP3 AND SWAP1 POP SWAP2 SWAP1 POP JUMP JUMPDEST PUSH0 PUSH2 0x18FB DUP3 PUSH2 0x18D2 JUMP JUMPDEST SWAP1 POP SWAP2 SWAP1 POP JUMP JUMPDEST PUSH2 0x190B DUP2 PUSH2 0x18F1 JUMP JUMPDEST DUP2 EQ PUSH2 0x1915 JUMPI PUSH0 PUSH0 REVERT JUMPDEST POP JUMP JUMPDEST PUSH0 DUP2 CALLDATALOAD SWAP1 POP PUSH2 0x1926 DUP2 PUSH2 0x1902 JUMP JUMPDEST SWAP3 SWAP2 POP POP JUMP JUMPDEST PUSH0 PUSH1 0x20 DUP3 DUP5 SUB SLT ISZERO PUSH2 0x1941 JUMPI PUSH2 0x1940 PUSH2 0x1469 JUMP JUMPDEST JUMPDEST PUSH0 PUSH2 0x194E DUP5 DUP3 DUP6 ADD PUSH2 0x1918 JUMP JUMPDEST SWAP2 POP POP SWAP3 SWAP2 POP POP JUMP JUMPDEST PUSH0 DUP3 DUP3 MSTORE PUSH1 0x20 DUP3 ADD SWAP1 POP SWAP3 SWAP2 POP POP JUMP JUMPDEST PUSH0 PUSH2 0x1971 DUP3 PUSH2 0x1643 JUMP JUMPDEST PUSH2 0x197B DUP2 DUP6 PUSH2 0x1957 JUMP JUMPDEST SWAP4 POP PUSH2 0x1986 DUP4 PUSH2 0x165D JUMP JUMPDEST DUP1 PUSH0 JUMPDEST DUP4 DUP2 LT ISZERO PUSH2 0x19B6 JUMPI DUP2 MLOAD PUSH2 0x199D DUP9 DUP3 PUSH2 0x166C JUMP JUMPDEST SWAP8 POP PUSH2 0x19A8 DUP4 PUSH2 0x1683 JUMP JUMPDEST SWAP3 POP POP PUSH1 0x1 DUP2 ADD SWAP1 POP PUSH2 0x1989 JUMP JUMPDEST POP DUP6 SWAP4 POP POP POP POP SWAP3 SWAP2 POP POP JUMP JUMPDEST PUSH0 PUSH1 0x20 DUP3 ADD SWAP1 POP DUP2 DUP2 SUB PUSH0 DUP4 ADD MSTORE PUSH2 0x19DB DUP2 DUP5 PUSH2 0x1967 JUMP JUMPDEST SWAP1 POP SWAP3 SWAP2 POP POP JUMP JUMPDEST PUSH2 0x19EC DUP2 PUSH2 0x18F1 JUMP JUMPDEST DUP3 MSTORE POP POP JUMP JUMPDEST PUSH0 PUSH1 0x20 DUP3 ADD SWAP1 POP PUSH2 0x1A05 PUSH0 DUP4 ADD DUP5 PUSH2 0x19E3 JUMP JUMPDEST SWAP3 SWAP2 POP POP JUMP JUMPDEST PUSH32 0x4E487B7100000000000000000000000000000000000000000000000000000000 PUSH0 MSTORE PUSH1 0x21 PUSH1 0x4 MSTORE PUSH1 0x24 PUSH0 REVERT JUMPDEST PUSH1 0x6 DUP2 LT PUSH2 0x1A49 JUMPI PUSH2 0x1A48 PUSH2 0x1A0B JUMP JUMPDEST JUMPDEST POP JUMP JUMPDEST PUSH0 DUP2 SWAP1 POP PUSH2 0x1A59 DUP3 PUSH2 0x1A38 JUMP JUMPDEST SWAP2 SWAP1 POP JUMP JUMPDEST PUSH0 PUSH2 0x1A68 DUP3 PUSH2 0x1A4C JUMP JUMPDEST SWAP1 POP SWAP2 SWAP1 POP JUMP JUMPDEST PUSH2 0x1A78 DUP2 PUSH2 0x1A5E JUMP JUMPDEST DUP3 MSTORE POP POP JUMP JUMPDEST PUSH0 PUSH1 0x40 DUP3 ADD SWAP1 POP PUSH2 0x1A91 PUSH0 DUP4 ADD DUP6 PUSH2 0x1A6F JUMP JUMPDEST PUSH2 0x1A9E PUSH1 0x20 DUP4 ADD DUP5 PUSH2 0x1A6F JUMP JUMPDEST SWAP4 SWAP3 POP POP POP JUMP JUMPDEST PUSH32 0x4E487B7100000000000000000000000000000000000000000000000000000000 PUSH0 MSTORE PUSH1 0x32 PUSH1 0x4 MSTORE PUSH1 0x24 PUSH0 REVERT JUMPDEST PUSH32 0x4E487B7100000000000000000000000000000000000000000000000000000000 PUSH0 MSTORE PUSH1 0x11 PUSH1 0x4 MSTORE PUSH1 0x24 PUSH0 REVERT JUMPDEST PUSH0 PUSH2 0x1B09 DUP3 PUSH2 0x1471 JUMP JUMPDEST SWAP2 POP PUSH2 0x1B14 DUP4 PUSH2 0x1471 JUMP JUMPDEST SWAP3 POP DUP3 DUP3 ADD SWAP1 POP DUP1 DUP3 GT ISZERO PUSH2 0x1B2C JUMPI PUSH2 0x1B2B PUSH2 0x1AD2 JUMP JUMPDEST JUMPDEST SWAP3 SWAP2 POP POP JUMP JUMPDEST PUSH2 0x1B3B DUP2 PUSH2 0x1471 JUMP JUMPDEST DUP3 MSTORE POP POP JUMP JUMPDEST PUSH0 PUSH1 0x40 DUP3 ADD SWAP1 POP PUSH2 0x1B54 PUSH0 DUP4 ADD DUP6 PUSH2 0x19E3 JUMP JUMPDEST PUSH2 0x1B61 PUSH1 0x20 DUP4 ADD DUP5 PUSH2 0x1B32 JUMP JUMPDEST SWAP4 SWAP3 POP POP POP JUMP JUMPDEST PUSH32 0x4E487B7100000000000000000000000000000000000000000000000000000000 PUSH0 MSTORE PUSH1 0x22 PUSH1 0x4 MSTORE PUSH1 0x24 PUSH0 REVERT JUMPDEST PUSH0 PUSH1 0x2 DUP3 DIV SWAP1 POP PUSH1 0x1 DUP3 AND DUP1 PUSH2 0x1BAC JUMPI PUSH1 0x7F DUP3 AND SWAP2 POP JUMPDEST PUSH1 0x20 DUP3 LT DUP2 SUB PUSH2 0x1BBF JUMPI PUSH2 0x1BBE PUSH2 0x1B68 JUMP JUMPDEST JUMPDEST POP SWAP2 SWAP1 POP JUMP JUMPDEST PUSH0 DUP2 SWAP1 POP DUP2 PUSH0 MSTORE PUSH1 0x20 PUSH0 KECCAK256 SWAP1 POP SWAP2 SWAP1 POP JUMP JUMPDEST PUSH0 PUSH1 0x20 PUSH1 0x1F DUP4 ADD DIV SWAP1 POP SWAP2 SWAP1 POP JUMP JUMPDEST PUSH0 DUP3 DUP3 SHL SWAP1 POP SWAP3 SWAP2 POP POP JUMP JUMPDEST PUSH0 PUSH1 0x8 DUP4 MUL PUSH2 0x1C21 PUSH32 0xFFFFFFFFFFFFFFFFFFFFFFFFFFFFFFFFFFFFFFFFFFFFFFFFFFFFFFFFFFFFFFFF DUP3 PUSH2 0x1BE6 JUMP JUMPDEST PUSH2 0x1C2B DUP7 DUP4 PUSH2 0x1BE6 JUMP JUMPDEST SWAP6 POP DUP1 NOT DUP5 AND SWAP4 POP DUP1 DUP7 AND DUP5 OR SWAP3 POP POP POP SWAP4 SWAP3 POP POP POP JUMP JUMPDEST PUSH0 DUP2 SWAP1 POP SWAP2 SWAP1 POP JUMP JUMPDEST PUSH0 PUSH2 0x1C66 PUSH2 0x1C61 PUSH2 0x1C5C DUP5 PUSH2 0x1471 JUMP JUMPDEST PUSH2 0x1C43 JUMP JUMPDEST PUSH2 0x1471 JUMP JUMPDEST SWAP1 POP SWAP2 SWAP1 POP JUMP JUMPDEST PUSH0 DUP2 SWAP1 POP SWAP2 SWAP1 POP JUMP JUMPDEST PUSH2 0x1C7F DUP4 PUSH2 0x1C4C JUMP JUMPDEST PUSH2 0x1C93 PUSH2 0x1C8B DUP3 PUSH2 0x1C6D JUMP JUMPDEST DUP5 DUP5 SLOAD PUSH2 0x1BF2 JUMP JUMPDEST DUP3 SSTORE POP POP POP POP JUMP JUMPDEST PUSH0 PUSH0 SWAP1 POP SWAP1 JUMP JUMPDEST PUSH2 0x1CAA PUSH2 0x1C9B JUMP JUMPDEST PUSH2 0x1CB5 DUP2 DUP5 DUP5 PUSH2 0x1C76 JUMP JUMPDEST POP POP POP JUMP JUMPDEST JUMPDEST DUP2 DUP2 LT ISZERO PUSH2 0x1CD8 JUMPI PUSH2 0x1CCD PUSH0 DUP3 PUSH2 0x1CA2 JUMP JUMPDEST PUSH1 0x1 DUP2 ADD SWAP1 POP PUSH2 0x1CBB JUMP JUMPDEST POP POP JUMP JUMPDEST PUSH1 0x1F DUP3 GT ISZERO PUSH2 0x1D1D JUMPI PUSH2 0x1CEE DUP2 PUSH2 0x1BC5 JUMP JUMPDEST PUSH2 0x1CF7 DUP5 PUSH2 0x1BD7 JUMP JUMPDEST DUP2 ADD PUSH1 0x20 DUP6 LT ISZERO PUSH2 0x1D06 JUMPI DUP2 SWAP1 POP JUMPDEST PUSH2 0x1D1A PUSH2 0x1D12 DUP6 PUSH2 0x1BD7 JUMP JUMPDEST DUP4 ADD DUP3 PUSH2 0x1CBA JUMP JUMPDEST POP POP JUMPDEST POP POP POP JUMP JUMPDEST PUSH0 DUP3 DUP3 SHR SWAP1 POP SWAP3 SWAP2 POP POP JUMP JUMPDEST PUSH0 PUSH2 0x1D3D PUSH0 NOT DUP5 PUSH1 0x8 MUL PUSH2 0x1D22 JUMP JUMPDEST NOT DUP1 DUP4 AND SWAP2 POP POP SWAP3 SWAP2 POP POP JUMP JUMPDEST PUSH0 PUSH2 0x1D55 DUP4 DUP4 PUSH2 0x1D2E JUMP JUMPDEST SWAP2 POP DUP3 PUSH1 0x2 MUL DUP3 OR SWAP1 POP SWAP3 SWAP2 POP POP JUMP JUMPDEST PUSH2 0x1D6E DUP3 PUSH2 0x1507 JUMP JUMPDEST PUSH8 0xFFFFFFFFFFFFFFFF DUP2 GT ISZERO PUSH2 0x1D87 JUMPI PUSH2 0x1D86 PUSH2 0x1767 JUMP JUMPDEST JUMPDEST PUSH2 0x1D91 DUP3 SLOAD PUSH2 0x1B95 JUMP JUMPDEST PUSH2 0x1D9C DUP3 DUP3 DUP6 PUSH2 0x1CDC JUMP JUMPDEST PUSH0 PUSH1 0x20 SWAP1 POP PUSH1 0x1F DUP4 GT PUSH1 0x1 DUP2 EQ PUSH2 0x1DCD JUMPI PUSH0 DUP5 ISZERO PUSH2 0x1DBB JUMPI DUP3 DUP8 ADD MLOAD SWAP1 POP JUMPDEST PUSH2 0x1DC5 DUP6 DUP3 PUSH2 0x1D4A JUMP JUMPDEST DUP7 SSTORE POP PUSH2 0x1E2C JUMP JUMPDEST PUSH1 0x1F NOT DUP5 AND PUSH2 0x1DDB DUP7 PUSH2 0x1BC5 JUMP JUMPDEST PUSH0 JUMPDEST DUP3 DUP2 LT ISZERO PUSH2 0x1E02 JUMPI DUP5 DUP10 ADD MLOAD DUP3 SSTORE PUSH1 0x1 DUP3 ADD SWAP2 POP PUSH1 0x20 DUP6 ADD SWAP5 POP PUSH1 0x20 DUP2 ADD SWAP1 POP PUSH2 0x1DDD JUMP JUMPDEST DUP7 DUP4 LT ISZERO PUSH2 0x1E1F JUMPI DUP5 DUP10 ADD MLOAD PUSH2 0x1E1B PUSH1 0x1F DUP10 AND DUP3 PUSH2 0x1D2E JUMP JUMPDEST DUP4 SSTORE POP JUMPDEST PUSH1 0x1 PUSH1 0x2 DUP9 MUL ADD DUP9 SSTORE POP POP POP JUMPDEST POP POP POP POP POP POP JUMP JUMPDEST PUSH0 PUSH2 0x1E3E DUP3 PUSH2 0x1471 JUMP JUMPDEST SWAP2 POP PUSH2 0x1E49 DUP4 PUSH2 0x1471 JUMP JUMPDEST SWAP3 POP DUP3 DUP3 SUB SWAP1 POP DUP2 DUP2 GT ISZERO PUSH2 0x1E61 JUMPI PUSH2 0x1E60 PUSH2 0x1AD2 JUMP JUMPDEST JUMPDEST SWAP3 SWAP2 POP POP JUMP JUMPDEST PUSH0 PUSH1 0x20 DUP3 ADD SWAP1 POP PUSH2 0x1E7A PUSH0 DUP4 ADD DUP5 PUSH2 0x1B32 JUMP JUMPDEST SWAP3 SWAP2 POP POP JUMP JUMPDEST PUSH0 DUP2 SLOAD SWAP1 POP PUSH2 0x1E8E DUP2 PUSH2 0x1B95 JUMP JUMPDEST SWAP1 POP SWAP2 SWAP1 POP JUMP JUMPDEST DUP2 DUP2 SUB PUSH2 0x1EA3 JUMPI POP POP PUSH2 0x1F78 JUMP JUMPDEST PUSH2 0x1EAC DUP3 PUSH2 0x1E80 JUMP JUMPDEST PUSH8 0xFFFFFFFFFFFFFFFF DUP2 GT ISZERO PUSH2 0x1EC5 JUMPI PUSH2 0x1EC4 PUSH2 0x1767 JUMP JUMPDEST JUMPDEST PUSH2 0x1ECF DUP3 SLOAD PUSH2 0x1B95 JUMP JUMPDEST PUSH2 0x1EDA DUP3 DUP3 DUP6 PUSH2 0x1CDC JUMP JUMPDEST PUSH0 PUSH1 0x1F DUP4 GT PUSH1 0x1 DUP2 EQ PUSH2 0x1F07 JUMPI PUSH0 DUP5 ISZERO PUSH2 0x1EF5 JUMPI DUP3 DUP8 ADD SLOAD SWAP1 POP JUMPDEST PUSH2 0x1EFF DUP6 DUP3 PUSH2 0x1D4A JUMP JUMPDEST DUP7 SSTORE POP PUSH2 0x1F71 JUMP JUMPDEST PUSH1 0x1F NOT DUP5 AND PUSH2 0x1F15 DUP8 PUSH2 0x1BC5 JUMP JUMPDEST SWAP7 POP PUSH2 0x1F20 DUP7 PUSH2 0x1BC5 JUMP JUMPDEST PUSH0 JUMPDEST DUP3 DUP2 LT ISZERO PUSH2 0x1F47 JUMPI DUP5 DUP10 ADD SLOAD DUP3 SSTORE PUSH1 0x1 DUP3 ADD SWAP2 POP PUSH1 0x1 DUP6 ADD SWAP5 POP PUSH1 0x20 DUP2 ADD SWAP1 POP PUSH2 0x1F22 JUMP JUMPDEST DUP7 DUP4 LT ISZERO PUSH2 0x1F64 JUMPI DUP5 DUP10 ADD SLOAD PUSH2 0x1F60 PUSH1 0x1F DUP10 AND DUP3 PUSH2 0x1D2E JUMP JUMPDEST DUP4 SSTORE POP JUMPDEST PUSH1 0x1 PUSH1 0x2 DUP9 MUL ADD DUP9 SSTORE POP POP POP JUMPDEST POP POP POP POP POP POP JUMPDEST JUMP JUMPDEST PUSH0 PUSH1 0x40 DUP3 ADD SWAP1 POP PUSH2 0x1F8D PUSH0 DUP4 ADD DUP6 PUSH2 0x1B32 JUMP JUMPDEST PUSH2 0x1F9A PUSH1 0x20 DUP4 ADD DUP5 PUSH2 0x1B32 JUMP JUMPDEST SWAP4 SWAP3 POP POP POP JUMP INVALID LOG2 PUSH5 0x6970667358 0x22 SLT KECCAK256 COINBASE 0xB7 DUP15 PC PUSH25 0xE0B60C9C62C005AC44F73F3A0C7FC00CF1BF4C12353C79CC63 SWAP14 SUB PUSH5 0x736F6C6343 STOP ADDMOD 0x1E STOP CALLER "
		},
		"gasEstimates": {
			"creation": {
				"codeDepositCost": "1630200",
				"executionCost": "infinite",
				"totalCost": "infinite"
			},
			"external": {
				"getPastVote(uint256)": "infinite",
				"getProposal(uint256)": "2771",
				"getVoteResults()": "infinite",
				"nextWorkflowStatus()": "infinite",
				"owner()": "2580",
				"registerProposal(string)": "infinite",
				"registerVoter(address)": "infinite",
				"renounceOwnership()": "infinite",
				"resetVotingState()": "infinite",
				"transferOwnership(address)": "infinite",
				"vote(uint256)": "infinite"
			},
			"internal": {
				"tallyVotes()": "infinite"
			}
		},
		"methodIdentifiers": {
			"getPastVote(uint256)": "23edca11",
			"getProposal(uint256)": "c7f758a8",
			"getVoteResults()": "86a66dc3",
			"nextWorkflowStatus()": "75406284",
			"owner()": "8da5cb5b",
			"registerProposal(string)": "2f95355b",
			"registerVoter(address)": "38db6dd3",
			"renounceOwnership()": "715018a6",
			"resetVotingState()": "8b5df08d",
			"transferOwnership(address)": "f2fde38b",
			"vote(uint256)": "0121b93f"
		}
	},
	"abi": [
		{
			"inputs": [],
			"stateMutability": "nonpayable",
			"type": "constructor"
		},
		{
			"inputs": [],
			"name": "HasAlreadyVoted",
			"type": "error"
		},
		{
			"inputs": [],
			"name": "InvalidPastVoteID",
			"type": "error"
		},
		{
			"inputs": [],
			"name": "InvalidProposalID",
			"type": "error"
		},
		{
			"inputs": [
				{
					"internalType": "enum Voting.WorkflowStatus",
					"name": "current",
					"type": "uint8"
				},
				{
					"internalType": "enum Voting.WorkflowStatus",
					"name": "expected",
					"type": "uint8"
				}
			],
			"name": "InvalidWorkflowStatus",
			"type": "error"
		},
		{
			"inputs": [
				{
					"internalType": "address",
					"name": "owner",
					"type": "address"
				}
			],
			"name": "OwnableInvalidOwner",
			"type": "error"
		},
		{
			"inputs": [
				{
					"internalType": "address",
					"name": "account",
					"type": "address"
				}
			],
			"name": "OwnableUnauthorizedAccount",
			"type": "error"
		},
		{
			"inputs": [],
			"name": "VoterAddressNotAllowed",
			"type": "error"
		},
		{
			"inputs": [],
			"name": "VoterAlreadyRegistered",
			"type": "error"
		},
		{
			"inputs": [],
			"name": "WorkflowAlreadyEnded",
			"type": "error"
		},
		{
			"anonymous": false,
			"inputs": [
				{
					"indexed": true,
					"internalType": "address",
					"name": "previousOwner",
					"type": "address"
				},
				{
					"indexed": true,
					"internalType": "address",
					"name": "newOwner",
					"type": "address"
				}
			],
			"name": "OwnershipTransferred",
			"type": "event"
		},
		{
			"anonymous": false,
			"inputs": [
				{
					"indexed": false,
					"internalType": "uint256",
					"name": "proposalId",
					"type": "uint256"
				}
			],
			"name": "ProposalRegistered",
			"type": "event"
		},
		{
			"anonymous": false,
			"inputs": [
				{
					"indexed": false,
					"internalType": "address",
					"name": "voter",
					"type": "address"
				},
				{
					"indexed": false,
					"internalType": "uint256",
					"name": "proposalId",
					"type": "uint256"
				}
			],
			"name": "Voted",
			"type": "event"
		},
		{
			"anonymous": false,
			"inputs": [
				{
					"indexed": false,
					"internalType": "address",
					"name": "voterAddress",
					"type": "address"
				}
			],
			"name": "VoterRegistered",
			"type": "event"
		},
		{
			"anonymous": false,
			"inputs": [
				{
					"indexed": false,
					"internalType": "uint256",
					"name": "maxVotes",
					"type": "uint256"
				},
				{
					"indexed": false,
					"internalType": "uint256",
					"name": "winningProposalsCount",
					"type": "uint256"
				}
			],
			"name": "VotesTallied",
			"type": "event"
		},
		{
			"anonymous": false,
			"inputs": [
				{
					"indexed": true,
					"internalType": "uint256",
					"name": "roundIndex",
					"type": "uint256"
				},
				{
					"indexed": false,
					"internalType": "uint256",
					"name": "totalVotes",
					"type": "uint256"
				},
				{
					"indexed": false,
					"internalType": "uint256",
					"name": "winningProposalsCount",
					"type": "uint256"
				}
			],
			"name": "VotingReset",
			"type": "event"
		},
		{
			"anonymous": false,
			"inputs": [
				{
					"indexed": false,
					"internalType": "enum Voting.WorkflowStatus",
					"name": "previousStatus",
					"type": "uint8"
				},
				{
					"indexed": false,
					"internalType": "enum Voting.WorkflowStatus",
					"name": "newStatus",
					"type": "uint8"
				}
			],
			"name": "WorkflowStatusChange",
			"type": "event"
		},
		{
			"inputs": [
				{
					"internalType": "uint256",
					"name": "index",
					"type": "uint256"
				}
			],
			"name": "getPastVote",
			"outputs": [
				{
					"components": [
						{
							"internalType": "uint256",
							"name": "totalVotesCount",
							"type": "uint256"
						},
						{
							"components": [
								{
									"internalType": "string",
									"name": "description",
									"type": "string"
								},
								{
									"internalType": "uint256",
									"name": "voteCount",
									"type": "uint256"
								}
							],
							"internalType": "struct Voting.Proposal[]",
							"name": "proposals",
							"type": "tuple[]"
						},
						{
							"internalType": "uint256[]",
							"name": "winningProposals",
							"type": "uint256[]"
						}
					],
					"internalType": "struct Voting.VotingSummary",
					"name": "",
					"type": "tuple"
				}
			],
			"stateMutability": "view",
			"type": "function"
		},
		{
			"inputs": [
				{
					"internalType": "uint256",
					"name": "_proposalId",
					"type": "uint256"
				}
			],
			"name": "getProposal",
			"outputs": [],
			"stateMutability": "view",
			"type": "function"
		},
		{
			"inputs": [],
			"name": "getVoteResults",
			"outputs": [
				{
					"internalType": "uint256[]",
					"name": "winningProposals",
					"type": "uint256[]"
				}
			],
			"stateMutability": "view",
			"type": "function"
		},
		{
			"inputs": [],
			"name": "nextWorkflowStatus",
			"outputs": [],
			"stateMutability": "nonpayable",
			"type": "function"
		},
		{
			"inputs": [],
			"name": "owner",
			"outputs": [
				{
					"internalType": "address",
					"name": "",
					"type": "address"
				}
			],
			"stateMutability": "view",
			"type": "function"
		},
		{
			"inputs": [
				{
					"internalType": "string",
					"name": "_description",
					"type": "string"
				}
			],
			"name": "registerProposal",
			"outputs": [],
			"stateMutability": "nonpayable",
			"type": "function"
		},
		{
			"inputs": [
				{
					"internalType": "address",
					"name": "_address",
					"type": "address"
				}
			],
			"name": "registerVoter",
			"outputs": [],
			"stateMutability": "nonpayable",
			"type": "function"
		},
		{
			"inputs": [],
			"name": "renounceOwnership",
			"outputs": [],
			"stateMutability": "nonpayable",
			"type": "function"
		},
		{
			"inputs": [],
			"name": "resetVotingState",
			"outputs": [],
			"stateMutability": "nonpayable",
			"type": "function"
		},
		{
			"inputs": [
				{
					"internalType": "address",
					"name": "newOwner",
					"type": "address"
				}
			],
			"name": "transferOwnership",
			"outputs": [],
			"stateMutability": "nonpayable",
			"type": "function"
		},
		{
			"inputs": [
				{
					"internalType": "uint256",
					"name": "_proposalId",
					"type": "uint256"
				}
			],
			"name": "vote",
			"outputs": [],
			"stateMutability": "nonpayable",
			"type": "function"
		}
	]
}